:020000040800F2
:10000000000003202D0600088D2000088F20000826
:1000100091200008932000089520000800000000AF
:10002000000000000000000000000000618E0008D9
:100030009720000800000000F18E0008818700086A
:100040007D0600087D0600087D0600087D06000884
:100050007D0600087D0600087D0600087D06000874
:100060007D0600087D0600087D0600087D06000864
:100070007D0600087D0600087D0600087D06000854
:100080007D0600087D0600087D0600087D06000844
:100090007D0600087D0600087D0600087D06000834
:1000A0007D0600087D0600087D0600087D06000824
:1000B0007D0600087D0600087D0600087D06000814
:1000C0007D0600087D0600087D0600087D06000804
:1000D0007D0600087D0600087D0600087D060008F4
:1000E0007D0600087D0600087D0600087D060008E4
:1000F0007D0600087D0600087D0600087D060008D4
:100100007D0600087D0600087D0600087D060008C3
:100110007D0600087D060008992000087D0600087D
:100120007D0600087D0600087D0600087D060008A3
:100130007D0600087D0600087D0600087D06000893
:100140007D0600087D0600087D0600087D06000883
:100150007D0600087D0600087D0600087D06000873
:100160007D0600087D0600087D0600087D06000863
:100170007D0600087D0600087D06000800000000DE
:100180007D0600087D0600087D0600087D06000843
:100190007D0600087D0600087D0600087D06000833
:0C01A000A52000087D060008B120000822
:1001B00010B5054C237833B9044B13B10448AFF3A1
:1001C00000800123237010BD6401002000000000A6
:1001D000D075020808B5034B1BB103490348AFF3C0
:1001E000008008BD0000000068010020D0750208F2
:1001F00001F0FF01102A2BDB10F0070F08D010F8D8
:10020000013B013A8B422DD010F0070F42B3F6D1DB
:10021000F0B441EA012141EA014122F007047FF0F4
:1002200000070023F0E80256083C85EA010586EA4B
:10023000010685FA47F5A3FA87F586FA47F6A5FA87
:1002400087F68EB9EED1F0BC01F0FF0102F0070293
:1002500032B110F8013B013A83EA010313B1F8D13E
:100260000020704701387047002D06BF354603381F
:10027000073815F0010F07D1013015F4807F02BF58
:10028000013015F4C03F0130F0BC0138704700BFA9
:100290007BB972B90029BEBF00204FF0004106E0D3
:1002A00008BF00281CBF6FF000414FF0FF3000F086
:1002B000BBB9ADF1080C6DE904CE002909DB002BB8
:1002C0001ADB00F04DF8DDF804E0DDE9022304B0AC
:1002D0007047404261EB4101002B1BDB00F040F80E
:1002E000DDF804E0DDE9022304B0404261EB4101A6
:1002F000524263EB43037047524263EB430300F007
:100300002FF8DDF804E0DDE9022304B0404261EBA0
:1003100041017047524263EB430300F021F8DDF8DE
:1003200004E0DDE9022304B0524263EB430370476B
:1003300053B94AB9002908BF00281CBF4FF0FF314C
:100340004FF0FF3000F070B9ADF1080C6DE904CE4C
:1003500000F006F8DDF804E0DDE9022304B07047A0
:100360002DE9F047089E0D4604460F46002B4AD162
:100370008A42944665D9B2FA82F343B102FA03FC89
:10038000C3F120029F4020FA02F217439C404FEA3B
:100390001C4E1FFA8CF5B7FBFEF1220C0EFB1177F9
:1003A00042EA074201FB05F090420AD91CEB020227
:1003B00001F1FF3780F01C81904240F2198102392F
:1003C0006244121AA4B2B2FBFEF00EFB102244EA01
:1003D000024400FB05F5A5420AD91CEB040400F118
:1003E000FF3280F00781A54240F204816444023864
:1003F00040EA0140641B00211EB1DC400023C6E935
:100400000043BDE8F0878B4208D9002E00F0ED8054
:100410000021C6E900050846BDE8F087B3FA83F17C
:10042000002949D1AB4202D3824200F2F880841AFB
:1004300065EB030201201746002EE2D0C6E9004713
:10044000DFE702B9FFDEB2FA82F3002B40F09080C2
:100450008A1A4FEA1C471FFA8CFE0121B2FBF7F5FE
:1004600007FB1520220C42EA00420EFB05F09042E9
:1004700008D91CEB020205F1FF3802D2904200F2CB
:10048000CB804546121AA4B2B2FBF7F007FB10224C
:1004900044EA02440EFB00FEA64508D91CEB040406
:1004A00000F1FF3202D2A64500F2BB801046A4EB59
:1004B0000E0440EA05409FE7C1F120078B4022FA75
:1004C00007FC4CEA030C05FA01F420FA07F3FD409F
:1004D0004FEA1C492343B5FBF9F81FFA8CFE09FBD0
:1004E00018551C0C44EA054408FB0EF5A54202FA17
:1004F00001F200FA01F00BD91CEB040408F1FF3AF9
:1005000080F08880A54240F28580A8F1020864440A
:10051000641B9DB2B4FBF9F309FB134445EA0444A0
:1005200003FB0EFEA64508D91CEB040403F1FF35BE
:100530006CD2A6456AD9023B644443EA0843A3FB54
:100540000295A4EB0E04AC42C846AE4656D353D037
:1005500056B1B0EB080264EB0E0404FA07F7CA4088
:10056000CC401743C6E9007418460021BDE8F08767
:10057000C3F1200102FA03FC20FA01F225FA01F18D
:100580009D402A434FEA1C471FFA8CFEB1FBF7F04F
:1005900007FB1015110C41EA054100FB0EF58D42D9
:1005A00004FA03F408D91CEB010100F1FF382FD243
:1005B0008D422DD902386144491B92B2B1FBF7F547
:1005C00007FB151142EA014205FB0EF1914208D9E1
:1005D0001CEB020205F1FF3816D2914214D9023DFC
:1005E0006244521A45EA004138E73146304608E78E
:1005F0003946E6E61046FBE64845A9D2B9EB0208C3
:1006000065EB0C0E013BA3E74546EAE72B4694E772
:100610004046D1E7D0467BE7023D624432E70846D8
:100620000AE76444023842E7704700BFDFF834D07D
:10063000002103E00C4B5B58435004310B480C4B3A
:1006400042189A42F6D30B4A02E0002342F8043BD8
:10065000094B9A42F9D305F033FE26F03DFA00F03B
:10066000FDFF7047000003201CD815080000002083
:100670006401002064010020004A0120FEE7704769
:1006800008B500F069FDBDE8084000F0EBBC00F0E3
:1006900065BD704710B50421044625F029F82046B1
:1006A00010BD000038B50C4B0C4C18800C4B822050
:1006B00019806368984740F6110398420AD1094DA2
:1006C00023682C60822098472B688220DB6898473B
:1006D000002038BD0120FCE7800100204C000020F4
:1006E00082010020840100204FF4A071F020FFF768
:1006F000D9BF0000F7B5334D2B6804461B69822033
:10070000984780B2208000284AD02B680DF106025D
:100710005B6901A982209847BDF8063040F67462F3
:1007200093423FD9ADF80620BDF80630D21A92B2F6
:100730000A2A3DD90B23B2FBF3F2234B1B889A42C2
:1007400001D9013B9AB2BDF8043040F6B8318B4272
:1007500030D8C3F571630E339BB20F21B3FBF1F3B5
:100760001A4909888B4201D901398BB2184E194DAB
:1007700030682F68834281B28CBF591AC91AB8B247
:10078000BA428CBF101A801A89B280B2014405297E
:10079000C8BF33603368C8BF2A6063802B68A380FA
:1007A00003B0F0BDB32B9CBFB423ADF80630BBE75C
:1007B0000022C8E7C3F56D6308339BB20E2BCCD87B
:1007C0000023D3E784010020820100208001002063
:1007D000880100208C01002037B568460D4614467C
:1007E000FFF788FFBDF8000030B1BDF802302B6084
:1007F000BDF804302360012003B030BD032821D8A8
:10080000DFE800F0020B12190F4B1A68B2FA82F2FD
:10081000520904210D4805F0EBBF0B4B5A68B2FAA0
:1008200082F252090821F5E7074B9A68B2FA82F280
:1008300052091021EEE7044BDA68B2FA82F252094B
:100840002021E7E7704700BF900100200010024020
:10085000032821D8DFE800F0020B12190F4B1A68A9
:10086000003A18BF012204210D4805F0C1BF0B4B0F
:100870005A68003A18BF01220821F5E7074B9A6829
:10088000003A18BF01221021EEE7044BDA68003A63
:1008900018BF01222021E7E7704700BF9001002028
:1008A0000010024003280DD8DFE800F00206080A15
:1008B0000421054805F0A1BF0821FAE71021F8E757
:1008C0002021F6E7704700BF0010024008B503285A
:1008D00011D8DFE800F0020A0C0E0421074805F0E9
:1008E00081FF431E5842584108BD0821F6E71021F8
:1008F000F4E72021F2E70020F3E700BF00100240F8
:1009000070B5084D00240126E0B2FFF7DFFF18B1F3
:100910002B68012B18BF2E600134052C05F104054E
:10092000F2D170BD90010020012380F8781080F88A
:100930007930704700207047034B4164003918BF7D
:1009400001211970704700BFC73D0120002070478A
:10095000836B0BB10846184770474FF6FF7070471E
:10096000406803689B6918477047704770470000EC
:1009700010B5044600F008FD23680349D3F88C3015
:100980002046BDE810401847000000D008B50368B5
:100990000446D3F880309847236820469B6F9847D9
:1009A00000F0ECF8236820461B6F9847292001F0DF
:1009B0008DF800F0E3F8236820461B6F9847F8E7AE
:1009C00010B504460DF04CF823682046D3F8AC303F
:1009D000BDE81040184700F0B9BC00F0BDBC00F005
:1009E000F1BC00F08FBC00F00DBD00F0F7BC00F0D2
:1009F00093BC0CF0A0BA10B57C21044624F078FE1C
:100A0000204610BD90F87A301BB1406803681B681F
:100A1000184718467047000010B590F8341090F849
:100A200078400C4B8C421A7809D03AB90A4A0B49E3
:100A30001488088810800C8001221A7010BD002ACA
:100A4000FCD0054A05491488088810800C800022D3
:100A5000F3E700BFC03D0120BC3D0120BE3D0120A9
:100A600070B50D46194635B9094B0A4A0A4840F295
:100A7000D22125F083FDC0E90F52084B003A18BF80
:100A800001221A700368BDE87040D3F88C30184713
:100A90004C76020884760208D2760208C63D012010
:100AA00008B5094B1B888B4203D8084B1B8893421F
:100AB00005D9074B074A08489E2125F05FFD074BE3
:100AC0001980074B1A8008BDBC3D0120BE3D0120A6
:100AD000177702087A770208D2760208C23D012011
:100AE000C43D0120012108B50022084607F0D5FECB
:100AF0000A4B186028B90A4B0A4A28210A4825F0EF
:100B00003DFD00220421012007F064FF074B18601F
:100B100018B9074B034A2C21F0E708BDA4010020B7
:100B200098780208E178020810790208A0010020F4
:100B30005D790208024B4FF0FF31186807F0F7BEED
:100B4000A4010020014B186807F01CBFA40100207D
:100B5000024B0021186807F0EABE00BFA401002084
:100B6000FFF7F0BF03480449006800231A4607F066
:100B70006CBF00BFA00100200400002013B5084C8A
:100B800000231A4601A9206807F08FFF20684FF064
:100B9000FF33002201A907F088FF02B010BD00BF9B
:100BA000A001002003685B6C1847012070470368B0
:100BB0009B6A184740F2EF3070470000054B036016
:100BC000054B4FF08062C3F88820BFF34F8FBFF30F
:100BD0006F8F7047FC7A020800E100E010B5044610
:100BE0004FF45A61FFF7EAFF204624F081FD2046CA
:100BF00010BD000082B0002301930D4B1A6B42F42C
:100C000000021A631A6B02F400020192019A1A6937
:100C100042F400021A611A6922F400021A61054BBB
:100C2000054A1A61054B4FF080629A6002B0704726
:100C300000380240682D0020410C000800E100E06F
:100C4000024B1B68586803685B691847C83D012060
:100C500070B5044625460A4B0C30002660602672AB
:100C6000667245F8203B602229460DF051F804F5E4
:100C70005A63EE602435AB42FBD1204670BD00BF05
:100C8000FC7A020808B50B290BD8DFE801F0120640
:100C9000100A0A0A0A0808080808012008BD0520E9
:100CA000FCE7054B054A0648652125F067FC002056
:100CB000F4E70220F2E700BF9F790208BA79020840
:100CC000047A020808B50A2909D8DFE801F01006FD
:100CD0000E080808080606060600012008BD054B98
:100CE000054A0648862125F049FC0020F6E7022047
:100CF000F4E700BF9F7902084F7A0208047A0208DD
:100D00002DE9F84391F81D800C4641460746FFF750
:100D1000B9FF94F81E90054649463846FFF7B2FFE2
:100D2000494606463846FFF7CDFFA18A628B434B02
:100D3000521A1A649A61228B521A1A61E28A586313
:100D400042EA01425A6420696268D863DA6027681F
:100D5000802F28D0227F0FD8202F65D0402F63D03E
:100D6000042F1AD0354B45EA026545F40035C845D5
:100D7000DD615FD0324A44E0B7F5807F04D0B7F53B
:100D8000007FEFD12F4900E02F4941EA0262DA618A
:100D9000E2681A625E62586132E045EA026242F439
:100DA0000032DA61F6E7A7683A1DDA62217F3A7805
:100DB00045EA016545F40035DD615E62586142B186
:100DC000012A21D0214B224A22484FF4887125F074
:100DD000D5FBDA69798822F47F42013922F01002CA
:100DE00042EA0122DA610121144BDA6942F0200261
:100DF000DA61DA699206FCD410229A600029B9D02F
:100E0000154A1A60BDE8F883DA69788822F47F42CF
:100E1000013822F0100242EA0022FF3942F01002AB
:100E200018BF0121DA61DFE745EA0262034B42F4B1
:100E30000032B6E740F20122E3E700BF00B0024013
:100E400001020100090002000A0002009A7A020869
:100E5000B47A0208047A02080102020038B50C468E
:100E6000897FFFF72FFFA58AE28A164B2169586315
:100E700042EA05425A64628BD963521B1A642568A0
:100E8000082D0ED19A611A615862207F0E4A42EAFB
:100E90000062DA61E2681A620C4A5961D9601A602C
:100EA00038BD0022D8611A61E1680A0A480902F4D3
:100EB000784200F4FC600243C1F3C4010A439A6320
:100EC000034AECE700B00240090001000102020001
:100ED00001020300034B1A68D207FCD423229A6054
:100EE000704700BF00B0024030B50F4C2568ED07D9
:100EF000FCD423250904A56041F001010225FF2B44
:100F000065636164E0630AD00849656241EA03638E
:100F1000E361074B22626061E060236030BDE56100
:100F2000039BA363034BF8E700B0024009000100F4
:100F30000100020001000300012070470C207047EF
:100F40000C2303FB0100083070470C2303FB010056
:100F5000083070470120704741F65420704741F631
:100F6000542303FB01000830704741F6542303FB70
:100F7000010008307047012070471020704700EBD7
:100F800001100830704700EB011008307047084628
:100F900002F09CBE10B5034B0360044609F005FD4A
:100FA000204610BDB47B020810B50446FFF7F2FFDF
:100FB0002046142124F09CFB204610BD10B5034BA5
:100FC0000360044609F0F1FC204610BD807B020856
:100FD00010B50446FFF7F2FF204641F65C2124F0ED
:100FE00087FB204610BD000010B5034B036004468C
:100FF00009F0DBFC204610BD4C7B020810B504460E
:10100000FFF7F2FF2046182124F072FB204610BDA6
:1010100010B5094B0360044600F5D4500830FFF7C3
:10102000B9FF04F12C00FFF7C9FF04F11400FFF72A
:10103000DBFF204610BD00BFE87B020808B5024870
:10104000FFF7E6FF08BD00BFAC01002010B5044665
:10105000FFF7DEFF204641F61C4124F049FB204605
:1010600010BD00002DE9F34101F040FA054601F002
:1010700041FA00240146234628462246009416F0F1
:1010800057F9274B274A1A60204603F00BFF264BDF
:10109000264A274D9A60274816F0B2F82B68BFF30E
:1010A0005B8FDB0736D4284624F024FB90B3224C18
:1010B000224B234F236004F5D65604F1140004F1AB
:1010C0002C086060C4F80880E760266109F06EFCB7
:1010D0001C4B6361404609F069FC1B4BE3623846D8
:1010E00009F064FC04F58053184AC3F8882A03F613
:1010F0009C2004F081FC2246A6F12401304604F035
:1011000031FC304602F0E2FD114825F055FA284640
:1011100024F0FCFA0F4802B0BDE8F041FFF728BC0C
:101120002C3E0120042C0020082C0020C81D00208B
:10113000A801002008000020AC010020E87B020884
:10114000341C00204C7B0208807B0208B47B020820
:101150003D100008882B0020704700000148FFF771
:1011600015BC00BF882B002070B5244E244C254DA3
:10117000254B23603046FFF76BFD28461AF0AAFB8B
:10118000224813F027FD224B2248DC6000224FF456
:101190008071C3E9121220491A86C3E91A121F4945
:1011A00099671F4983F858200B60F02101801D4882
:1011B0005A6601801C4883F870204FF4A071C3E97F
:1011C0000422C3E90622C3E90822C3E90A22C3E9CB
:1011D0000E22C3E91022C3E91422C3E917225A6779
:1011E000C3E9016501801148018011490A7001229B
:1011F00083F834200F4A1A6070BD00BFE81D00203C
:10120000E41D0020082C00203C760208C81D0020A8
:10121000882B0020BC3D01200100000100000101DD
:10122000C83D0120C23D0120BE3D0120C43D01203A
:10123000C03D0120C87702080148FFF7BFBC00BFCE
:10124000E81D00200020704781807047C1807047F2
:101250000181704741817047704770477047704700
:10126000704710B4C4880368121B84885B6D091B27
:1012700012B25DF8044B09B218474FF6FF73838131
:101280004FF0FF3303621368C3611060704790F83A
:1012900025201AB190F8242002B118607047002070
:1012A00070478B88838001207047704780F8261034
:1012B000704790F82600704710B50022B1F9084039
:1012C000B1F90A10028042808480C18010BD0022E2
:1012D000028042808280C28070470177704780ED33
:1012E000080A704780F82410704780F8251070476E
:1012F00001207047983070478C30704784307047B9
:1013000070470000034B902283F85A2383F8582338
:10131000704700BF00E100E0094A0A49D3680A4863
:10132000C3F30A03013B9BB20B801169C1F30A01AD
:10133000013901801364536B43F001035363704719
:1013400000680140962C0020942C0020014BD3F81B
:10135000AC00704700680140024B0122C3F8AC109A
:101360005A627047006801407047704710B52C21E1
:10137000044624F0BDF9204610BD10B5BC2104463A
:1013800024F0B6F9204610BD70B504460BF029FED6
:1013900023685D6E12F0A8FA01462046A84723682C
:1013A000054AD3F888502046AC460023BDE870407B
:1013B000A2F51631604700BF00B004D00BF0F8BDB5
:1013C0000BF002BE0BF0BDBD0BF01FBF90F8252047
:1013D00012B103685B69184770470000084B4FF073
:1013E0008062C3F88820BFF34F8FBFF36F8F4FF039
:1013F0008072C3F88820BFF34F8FBFF36F8F7047A1
:1014000000E100E0034B4FF080629A604FF0807281
:101410009A60704700E100E070B50023124E8380AF
:10142000124B0360336893F8582005460AB1D86C14
:1014300000B998680368DB6A98473368B0FA80F4AB
:10144000D86C640930B10368DB6A9847002808BF8C
:1014500044F001042CB9064B064A07482C2125F01C
:101460008DF8284670BD00BFC83D0120F87C0208F9
:10147000F47B0208527C02088B7C020870B5244E73
:101480003568BFF35B8F15F001053FD1304624F07E
:1014900031F900283AD01F4C1F4B256104F134006C
:1014A000C4E90035C4E90255E584A562A58513F0B9
:1014B000F0FD04F158000EF05FFD184BA3652046C7
:1014C000174B40F8843BFFF7A7FF164BC4F8843056
:1014D0002433C4F88C306423C4E928350023C4F8CD
:1014E000AC30C4F8B030C4F8B430C4F8B8300E48EA
:1014F0000E4BC4F89050C4F89C50C4F8A850C4F8DF
:10150000983025F059F8304624F000F9014870BDB4
:10151000902C0020982C0020649C0208187D020862
:10152000907D0208189C020801130008F89B02082D
:1015300010B5144C236823B3134B144A1B6C118849
:101540008B4213D1124B198805F05EFF226892F886
:101550006A30013382F86A30FFF704FB20680CF030
:101560007FFABDE810400020FFF748B905F04CFFB6
:10157000206803681B6A9847BDE810400020FFF709
:1015800067B910BDC83D012000680140962C0020BD
:10159000942C002007B5064BADF806001B680548E3
:1015A00001220DF1060106F091FC03B05DF804FB89
:1015B00010000020D82E002008B5642007F061F943
:1015C000FBE7000030B595B0102200210AA825F0F5
:1015D000DAF91422002103A825F0D5F900241D4BC7
:1015E00001941A6C42F080521A641B6C03F0805311
:1015F0000193019B184B02941A6842F440421A600E
:101600001B6803F4404302930122029B4FF4803392
:10161000CDE9082302254FF48003CDE90E530821BC
:101620004FF4A873CDE9101308A80423139312955F
:1016300005F008FF0F23CDE903354FF4A0504FF418
:101640008053CDE90603052103A8059406F0D4F8DC
:1016500015B030BD003802400070004080B59AB02F
:1016600004F03CFEFFF7AEFF142200210DA8002479
:1016700025F089F9C04B00941A6BC048C04D42F068
:1016800010021A631A6B02F010020092009A019481
:101690001A6B42F020021A631A6B02F020020192C8
:1016A000019A02941A6B42F080021A631A6B02F0DC
:1016B00080020292029A03941A6B42F004021A63A7
:1016C0001A6B02F004020392039A04941A6B42F01C
:1016D00001021A631A6B02F001020492049A059443
:1016E0001A6B42F002021A631A6B02F002020592B0
:1016F000059A06941A6B42F040021A631A6B02F0C4
:1017000040020692069A07941A6B42F008021A6386
:101710001B6B03F00803079322463C21079B05F04F
:1017200067F898482246042105F062F82246964858
:101730004FF4405105F05CF801264FF003083C23BC
:101740008E48CDF840800DA902274FF00409CDE95D
:101750000D360F9404F060FF8A480F940DA9CDE96F
:101760000D96109704F058FF0DA94FF4405386488A
:10177000CDE90D36CDE90F4704F04EFF8348844B89
:10178000036004F03DFE834A834B2C62C5E90023CD
:1017900028464FF48043C5E90434C5E90244C5E94D
:1017A000064405F031FA1021284605F075FC214663
:1017B000284605F090FC7948794984624FF4827399
:1017C000C0E900134FF400751823C0E906530A233B
:1017D000744DC362C0E90244C0E90444C0E908444E
:1017E00006F018FB704B0D974FF0100CC5E9003652
:1017F0004023C5E904C34FF4C073C5E906344FF470
:101800000063C5E908344FF40053AB620DA9072308
:101810002846CDE90E39CDE910384FF0080AC5E960
:101820000249CDE9127706F0D9F94FF6FF7209A9FE
:101830002846CDE90AA6089409960C9406F0EEF91C
:10184000304604F077FD4FF6FF7209A92846CDE92E
:10185000097ACDE90B6406F0E1F94FF6FF7209A9A8
:101860002846CDE9098ACDE90B9406F0D7F94FF463
:101870000C730893089B0C934FF6FF7209A9284636
:10188000CDE9099A0B9606F0C9F940F26A5128464B
:1018900006F0E2F9342221460DEB020025F073F840
:1018A000424D434BAC86C5E900340923C5E90536F2
:1018B0001D2340F20D1EC5E9073840F24313C5E968
:1018C00009E3284640F2471340F21718C5E90B8395
:1018D000C5E902442C6185F8364005F09DFCFF21E6
:1018E000F022CDE912144FF4806905214FF4A07362
:1018F000CDE90E24CDE91491CDE916420DA9224679
:101900002846CDE910372B4D18930D94ADF864405F
:101910008DF8664005F04BFD274B2B601B68984700
:101920002B68264DDB689847254BC5E90A47C5E972
:101930000C442846C5E90034C5E9027404F070FD82
:101940003146284604F024FEFEF79AFEFEF797FE85
:1019500006F024FF1B4A1C48214606F04BFF1B4B98
:101960001B4A186021461B4806F044FF1A4B1860BA
:1019700006F026FFFEE700BF0038024000100240DC
:10198000A82D002000080240000C0240602D00201D
:1019900000300240005C0040A0860100D82E0020EC
:1019A00000500140A42E0020400100A0FC2D00208A
:1019B00000680140582D002014000020682D0020F0
:1019C00000B00240107E0208B91500085C2D00200E
:1019D000EC7D02088F060008542D002070477047E8
:1019E0007FB5094B8DF817201B6802930DF1170284
:1019F0000123009201930A460146044805F0ACF920
:101A000007B05DF804FB00BF0C000020A82D0020EB
:101A10007FB500238DF81730084B1B6802930A46E8
:101A200001230DF11701009101930146044805F0CF
:101A300023FA9DF8170007B05DF804FB0C000020A6
:101A4000A82D00201FB5084C24680092CDE9013470
:101A50000A4601230146054805F00EFA003818BF72
:101A6000012004B010BD00BF0C000020A82D0020F4
:101A700004F060BC08B506480022042104F0B8FE5A
:101A8000BDE8084002480122042104F0B1BE00BFB5
:101A90000008024038B50B4D044601220A484FF4B5
:101AA000005104F0A5FE00220421284604F0A0FE07
:101AB0002046FFF76FFD28460122BDE8384004218B
:101AC00004F096BE00080240000C024038B50B4DF1
:101AD000044600220A484FF4005104F089FE002217
:101AE0000421284604F084FE2046FFF753FD2846D3
:101AF0000122BDE83840042104F07ABE000802400B
:101B0000000C0240F7B5144E144F05460C46304603
:101B10000022042104F06CFE00224FF400513846EC
:101B200004F066FE2846FFF735FD0D4B0D481B6897
:101B3000224601A906F073FB384601224FF40051FA
:101B4000019C04F055FE30460122042104F050FEB1
:101B5000204603B0F0BD00BF00080240000C024068
:101B600010000020D82E002004F0E4BB0268034BD4
:101B70009A4201D104F0CCBB704700BF0010004076
:101B80007047000082B00E4B00220092596C41F465
:101B900080415964596C01F480410091009901928F
:101BA000196C41F0805119641B6C03F08053019350
:101BB000019B0F216FF0010002B004F0E1BB00BFF8
:101BC000003802400268094B9A4282B00BD10023D0
:101BD0000193074B1A6B42F480521A631B6B03F498
:101BE00080530193019B02B0704700BF0030024058
:101BF0000038024007B50F4B02689A4216D1002206
:101C0000A3F5F0430192196B41F4000119631B6BBA
:101C100003F40003019305215A20019B04F0B0FB5B
:101C20005A2003B05DF804EB04F0DCBB03B05DF8B0
:101C300004FB00BF00B002402DE9F043044689B028
:101C40001422002103A824F09EFE2268244B9A420D
:101C500043D1244C244800250095236B43F0040312
:101C60002363236B03F004030093009B0195236B14
:101C700043F001032363236B03F001030193019BF2
:101C80004FF012094FF400734FF0010803270426A8
:101C900003A9CDE90339CDE90587079604F0BCFC1B
:101CA0004FF480731148079603A9CDE90339CDE9B4
:101CB000058704F0B1FC0295236C43F40003236410
:101CC000236C03F400030293029B236A43F4000392
:101CD0002362236A23F40003236209B0BDE8F08382
:101CE000005C004000380240000802400000024052
:101CF000F0B599B004461422002107A824F043FE51
:101D000030220DEB0200002124F03DFE22685E4BE4
:101D10009A4240F0B78008230C93C0231093042309
:101D200012930CA84FF40033159305F02DFE08B163
:101D3000FFF726FF554B5648002400945A6C42F09A
:101D400080625A645A6C02F080620092009A019498
:101D50001A6B42F020021A631A6B02F02002019201
:101D6000019A02941A6B42F001021A631A6B02F094
:101D700001020292029A03941A6B42F002021A6361
:101D80001A6B02F002020392039A04941A6B42F057
:101D900040021A631A6B02F040020492049A0594FE
:101DA0001A6B42F004021A631A6B02F004020592E5
:101DB000059A06941A6B42F008021A631B6B03F033
:101DC0000803069302250E26069B0B964FF48063AC
:101DD00007A9CDE90735CDE9094504F01DFC41F619
:101DE00058032C480B9607A9CDE907350927CDE9FB
:101DF000094504F011FC032327480B9707A9CDE9F7
:101E00000735CDE9094504F007FC4FF4706322481B
:101E10000B9607A9CDE90735CDE9094504F0FCFB90
:101E20004FF40C631D480B9607A9CDE90735CDE9A2
:101E3000094504F0F1FBC02319480B9607A9CDE929
:101E40000735CDE9094504F0E7FB082315480B9653
:101E500007A9CDE90735CDE9094504F0DDFB4FF4CD
:101E6000A0530E480B9707A9CDE90735CDE90945E1
:101E700004F0D2FB58202246052104F081FA5820B4
:101E800004F0B0FA19B0F0BD00680140003802401B
:101E9000001402400000024000040240001802400A
:101EA00000080240000C024010B5044688B014221D
:101EB000002103A824F067FD2268144B9A4223D125
:101EC00003F56843002101915A6C114842F48012D5
:101ED0005A645A6C02F480120192019A02911A6BB0
:101EE00042F020021A631B6B03F020030293029B53
:101EF0004FF4607202230321CDE903230523CDE9CA
:101F0000061303A904F088FB08B010BD005001407F
:101F1000001402402DE9F04186B0002303932B4BBF
:101F20001C68002C4FD14FF00108C3F80080284BEB
:101F300000949A6B274842EA08029A639B6B03EA73
:101F400008030093022703260C25009B01A94FF6E6
:101F50003F03CDE90137CDE9046504F05DFB1E4880
:101F6000059501A9CDE90187CDE9034604F054FBAD
:101F700048F233131948059501A9CDE90137CDE998
:101F8000034604F049FB4FF683731548059501A9F4
:101F9000CDE90137CDE9034604F03EFB4CF2037373
:101FA0001048059501A9CDE90137CDE9034604F0B4
:101FB00033FB60230C48059501A9CDE90137CDE934
:101FC000034604F029FB06B0BDE8F081302F002065
:101FD000003802400014024000080240001802408D
:101FE00000100240000C02400004024070B588B0AE
:101FF00000230293204B1A6C42F010021A641B6CEF
:1020000003F010030293054601A903A8029B05F003
:102010009DFC069B4BBB05F089FC184E184B3360AA
:1020200040F2E733F360174BB0FBF3F3013B73600F
:10203000304600233361B360B36106F0D5FA04463D
:1020400080B9304606F092F9044658B9362004F0BB
:10205000C9F90F2D0DD822462946362004F090F9F3
:10206000094B1D60204608B070BD05F05FFC4000C4
:10207000D3E70124F6E700BF00380240342F0020E8
:102080000010004040420F007C0000207047FEE737
:10209000FEE7FEE7FEE77047014806F0A5B900BF7E
:1020A000342F0020014805F025B900BFFC2D002089
:1020B000014804F0E3B900BF682D002001207047FB
:1020C00008B524F003FD162303604FF0FF3008BD70
:1020D00008B524F0FBFC16230360FEE770B50D463F
:1020E00014460E46731B9C4201DC204670BDAFF3C4
:1020F000008006F8010BF5E770B50D4614460E4654
:10210000731B9C4201DC204670BD16F8010BAFF337
:102110000080F5E74FF0FF3070474FF400534B60FD
:102120000020704701207047002070470A4A11685C
:1021300008B5034609B909491160106869460344A6
:102140008B4206D924F0C2FC0C2303604FF0FF3011
:1021500008BD1360FCE700BF7C2F0020004A01206F
:1021600070477047704770477047704770477047B7
:10217000704730B4C26844685510034604EB6200EF
:10218000D20748BF62599B6830BC48BFD358184734
:1021900043682BB183682BB9C06800F00100704719
:1021A000184670470120704710B50821044623F0F7
:1021B0009FFA204610BD10B51021044623F098FA6E
:1021C000204610BD10B54FF4C071044623F090FABC
:1021D000204610BDE030884208B505D111F084FBDF
:1021E000BDE8084001F082BD08BD70B50368044633
:1021F0001B6B154698472368294620465B6BBDE854
:102200007040184770B504461D46BDF91060FFF7D1
:10221000ECFF2368294620469B6B9847236831468C
:102220002046DB6BBDE8704018470000094A026099
:102230004FF4807100228184FF21C0E90122C0E9AE
:102240000322C0E90522C0E9072280F82610826235
:10225000704700BFE89E02084FF4807181840D49E9
:1022600001600D4981624FF6FF7181854FF47F0156
:10227000002241634FF0FF31C0E90122C0E903228F
:10228000C0E90522C0E90722C0E9101202630287F3
:10229000C2637047589E0208007F02081A4B73B54C
:1022A0001B88018F8B4206462BD9184B1B682BB914
:1022B000174B184A18486C2124F060F913F81120C4
:1022C000164B1B6853F82250154B186802F026FE77
:1022D0002B6801909B6B284698472B6801999B6C53
:1022E0000446284698472B6801995B6A14FB00F462
:1022F00028469847A4B223181BB2A6F8463002B06D
:1023000070BD0023F9E700BF243E0120203E0120DC
:10231000347E0208767E0208B17E0208283E012043
:102320002C3E01202DE9F04F04468BB0A24600253B
:1023300013F034FA564BE5634AF8403B04F16C0B5A
:10234000504604F19809FFF771FF5846FFF76EFFFA
:1023500004F1E0084846FFF77FFF04F59477404614
:102360000EF002FF3846FFF777FF4A4BC4E95C34B2
:10237000494BC4E95E354FF4A0732A4600932946C1
:102380005046F023FFF73EFF261D4FF07F43A36624
:102390005146304609F063FE4FF4A0732A4600937D
:1023A00029465846F023FFF72DFF3C4BC4F89430E4
:1023B0005946304609F053FE0F2248461421FFF7D4
:1023C00014FF0DF1080A364BC4F8C8304946504690
:1023D000A4F8CC500DF0CEFE9AE8070004F1D40327
:1023E00083E8070020230DEB0301DFF8B8B0ADF858
:1023F00024304846CDF820B00EF056F94946304614
:1024000009F02DFE40460722C521FFF7EEFE02230C
:1024100008AA07A9ADF81C3040460323ADF82030C8
:102420000EF075FB1F23A4F818314046FFF736FF66
:102430004FF0FF3904F5B873C4F80831414630460F
:10244000C4E9479909F00BFE4B2238461821FFF7E3
:10245000CCFE39465046C4F85891A4F85C510DF0B2
:1024600089FE9AE8070004F5B27383E807001E238B
:1024700008A93846ADF82430CDF820B00EF014F994
:102480003046394609F0EBFD20460BB0BDE8F08F31
:10249000287F0208107F0208D52100082B2B2BFF74
:1024A000808080FF007F0208704708B5052914D896
:1024B000DFE801F00F03070F0B0F03F011F840687E
:1024C00008BD03F00DF88068FAE703F009F8C0686A
:1024D000F6E703F005F80068F2E70020F0E710B532
:1024E0000421044623F004F9204610BD004870473B
:1024F000687F02080E20704713B5002451B10368AD
:1025000001948DF8034001AA9C680DF10303A047D4
:1025100002B010BD0846FBE7C0897047008A7047CB
:10252000C088704780887047807A00F07F007047CD
:10253000807AC00970470020704700009FED010AB3
:10254000704700BF0000000030B50368018185B00E
:102550006D460146D3F8843004462846984795E8EE
:1025600007003C3484E8070005B030BD30B503688F
:10257000418185B06D460146D3F884300446284633
:10258000984795E807003C3484E8070005B030BD63
:102590000022028042808280C280704780F836101C
:1025A000704770B5036804461B6B1546984723684F
:1025B000294620465B6EBDE87040184700207047F2
:1025C000806C70477047704770477047704770471E
:1025D0007047704770477047704730B4C2684468AE
:1025E0005510034604EB6200D20748BF62599B684E
:1025F00030BC48BFD358184743682BB183682BB908
:10260000C06800F00100704718467047012070470D
:1026100010B54C21044623F06BF8204610BD10B5D0
:102620001021044623F064F8204610BD10B540F296
:10263000F451044623F05CF8204610BD00F1E0039D
:10264000994270B504460D4603D111F04DF901F0E1
:102650004DFB04F5B2739D4203D123682046DB6A2B
:10266000984704F5EE739D4203D1236820461B6B07
:10267000984704F5D0739D4203D1236820465B6BD5
:10268000984704F506739D4203D1236820469B6B4F
:10269000984704F515739D4203D123682046DB6BF0
:1026A000984704F524739D4203D1236820461B6C90
:1026B000984704F594739D4205D1236820465B6CCE
:1026C000BDE87040184770BD08B5FEF77FFE08BD35
:1026D000036870B55E6B124B1B6804468DB22BB954
:1026E000104B114A6C21114823F048FF1049828D8C
:1026F0000988914203D80F4B0B4A6D21F3E713F879
:1027000012200D4B1B6853F8220003681B6B98477F
:10271000281A01B233462046BDE87040184700BF72
:10272000203E0120347E0208767E0208B17E020837
:10273000243E012080800208283E012000224FF024
:10274000FF31C0E9002182607047000010B50446E7
:10275000FFF782FD024B23600023A364204610BDD7
:10276000048102082DE9F04F2DED108B04468DB049
:10277000A0464FF0000B13F011F8ED4BC4F83CB03D
:1027800048F8403B04F16C0A4046FFF74FFD04F166
:1027900098075046FFF74AFD04F1E0063846FFF778
:1027A0005BFD04F5947930460EF0DEFC48460EF0F1
:1027B0007DFB04F5B27318460CEE903A0EF076FBF2
:1027C00004F5D07318460DEE103A0EF06FFB04F5C9
:1027D000EE7318460DEE903A0EF068FB04F50673A2
:1027E00018460EEE103A0EF061FB04F5157318460C
:1027F0000EEE903A0EF05AFB04F5247318460FEED5
:10280000103A0EF053FB04F53373184609EE103AF4
:10281000FFF722FD04F54573184608EE103AFFF75E
:1028200095FF04F55873184608EE903AFFF78EFFAF
:1028300004F56B73184609EE903AFFF70DFD04F5A9
:102840007D7318460AEE103AFFF780FF04F588639F
:1028500018460AEE903AFFF779FF04F28C431846C7
:102860000BEE103AFFF7F8FC04F2D44318460BEED7
:10287000903AFFF76BFF04F5A46318460CEE103A8C
:10288000FFF764FFAB4BC4F8E435AB4BC4F8EC3551
:102890004FF4A0735A46404600935946F023C4F8BB
:1028A000E845C4F8F0B5251DFFF7ACFC4FF07F43B9
:1028B0004146A366284609F0D2FB4FF4A0735A465E
:1028C000504600935946F023FFF79CFC9B4BC4F8FD
:1028D00094305146284609F0C2FB0F223846142195
:1028E000FFF783FC0DF1080A954BC4F8C830394650
:1028F0005046A4F8CCB00DF03DFC9AE8070004F176
:10290000D40383E807004FF01D088E4B0A93384626
:102910000AA9ADF82C800DF0C7FE3946284609F00B
:102920009EFB30460722C521FFF75FFC4FF00202F5
:10293000ADF824204FF0030209A93046ADF8282055
:102940000AAA0EF0E4F81C23A4F81831304604F269
:10295000E457FFF7A3FC4FF0FF323146C4E94722AA
:10296000C4F80871284609F07AFB48464FF4827291
:102970004121FFF73AFC4FF00402ADF81C20ADF8FE
:10298000202009A94FF00A020B46ADF82420ADF82B
:10299000282008A90AAA484600920A4607A90EF06C
:1029A000F0F91E23C4F860314946C4F85071284636
:1029B00009F055FB1CEE900AA0224146FFF715FCDA
:1029C00009A803460AAA08A84FF00C010092024683
:1029D00007A86FF006164FF00109ADF82410ADF806
:1029E000281001461CEE900AADF81C90ADF820B0FE
:1029F0000EF0C7F91CEE901AC4F89C61C4F88C71F3
:102A0000284609F02CFB1DEE100AA0226B21FFF7CF
:102A1000ECFB4FF00A020DF1240C6346ADF82820C0
:102A20000DF1200C0AAA4FF00C01009262460DF144
:102A30001C0C1DEE100AADF824106146ADF81C9078
:102A4000ADF820B00EF09DF91DEE101AC4F8D86153
:102A5000C4F8C871284609F002FB1DEE900AD22284
:102A60004146FFF7C2FB0DF1240C63460AAA0DF1A3
:102A7000200C009262460DF11C0C61461DEE900A7E
:102A8000ADF81C904FF00B09ADF820B0ADF82490D4
:102A9000ADF828900EF075F91DEE901AC4F8146286
:102AA000C4F80472284609F0DAFA1EEE100AD2229F
:102AB0006B21FFF79AFB4FF001020DF1240C6346E6
:102AC000ADF81C200DF1200C0AAA009262460DF10F
:102AD0001C0C61461EEE100AADF820B0ADF8249033
:102AE000ADF828900EF04DF91EEE101AC4F85062A1
:102AF000C4F84072284609F0B2FA1EEE900AA022ED
:102B0000AF21FFF772FB4FF00A014FF00102ADF861
:102B1000281009A90B46ADF81C204FF00C000AAA9A
:102B200008A9ADF8240000921EEE900A0A460BE0B8
:102B3000AC810208948102083D2600082B2B2BFF54
:102B4000808080FF007F020807A9ADF820B00EF05A
:102B500018F91EEE901AC4F88C62C4F87C722846EC
:102B600009F07DFA1FEE100AD222AF21FFF73DFBDC
:102B70004FF00102ADF81C200AAA009209AA1346E0
:102B80001FEE100A08AA07A9ADF820B0ADF82490EE
:102B9000ADF828900EF0F5F81FEE101AC4F8C862D0
:102BA000C4F8B872284609F05AFA19EE100A5622EB
:102BB0002521FFF71AFB4FF07F4219EE101AC4F8D7
:102BC000FC225046A4F800B30DF0D4FA9AE80700AE
:102BD00004F5427383E807001D4B0A9319EE100AAF
:102BE00013230AA9ADF82C300DF05EFD19EE101A72
:102BF000284609F034FA7E2218EE100A4146FFF703
:102C0000F4FA4FF07F43C4F84433D4F81433A4F8F3
:102C100048B3D3F884300F4E18EE101A5046984738
:102C20009AE8070004F5547383E80700336804F258
:102C30006C572BB9084B094A6021094823F09EFCC8
:102C4000084B1B88082B11D8074B044A6121F4E775
:102C5000007F0208203E0120347E0208BE80020868
:102C6000B17E0208243E012080800208DFF86893CC
:102C70000821D9F8000002F051F9D34A03460A218D
:102C8000384614F0AFFA18EE100AC4F85C730DF071
:102C9000EBFCCE4F0A97102318EE100A0AA9ADF8E4
:102CA0002C300DF001FD18EE101A284609F0D7F966
:102CB0003622414618EE900AFFF797FAD4F86033AF
:102CC000DFF81883D3F88430C4F8908318EE901A94
:102CD0005046A4F894B398479AE8070004F5677340
:102CE00083E80700336804F5B067002BA2D0B84B27
:102CF0001B88042BA8D90421D9F8000002F00EF992
:102D0000B14A03460A21384614F06CFA18EE900ACC
:102D1000C4F8A8730DF0A8FCAC4F0A97052318EE71
:102D2000900A0AA9ADF82C300DF0BEFC18EE901AEE
:102D3000284609F094F919EE900A56227021FFF7FF
:102D400054FA4FF07F4219EE901AC4F8DC23504633
:102D5000A4F8E0B30DF00EFA9AE8070004F57A73D0
:102D600083E80700122319EE900A0AA9ADF82C3067
:102D70000A970DF099FC19EE901A284609F06FF9A0
:102D80007E221AEE100A7021FFF72FFA4FF07F42D1
:102D90003368C4F824244FF0FF32A4F828B4C4F8F0
:102DA00030B4C4F83424C4F838B404F29457002B77
:102DB0003FF440AF864B1B88072B7FF645AF0721BA
:102DC000D9F8000002F0AAF87F4A03460A213846E3
:102DD00014F008FA1AEE100AC4F83C740DF044FC22
:102DE0007A4F0A970F231AEE100A0AA9ADF82C3071
:102DF0000DF05AFC1AEE101A284609F030F9362266
:102E00001AEE900A7021FFF7F0F93368C4F8708465
:102E10004FF0FF32A4F874B4C4F87CB4C4F8802432
:102E2000C4F884B404F5B567002B3FF403AF684BD6
:102E30001B88022B7FF608AF0221D9F8000002F0B0
:102E40006DF8614A03460A21384614F0CBF91AEEB0
:102E5000900AC4F888740DF007FC5C4F0A974FF095
:102E600003021AEE900A0AA9ADF82C200DF01CFC02
:102E70001AEE901A284609F0F2F81BEE100A5622B4
:102E8000BA21FFF7B2F94FF07F421BEE101AC4F8D7
:102E9000BC245046A4F8C0B40DF06CF99AE80700C1
:102EA00004F5996383E8070011231BEE100A0AA9B1
:102EB000ADF82C300A970DF0F7FB1BEE101A2846E0
:102EC00009F0CDF87E221BEE900AA221FFF78DF9C2
:102ED0004FF07F423368C4F804254FF0FF32A4F866
:102EE00008B5C4F810B5C4F81425C4F818B504F230
:102EF000BC57002B3FF49EAE354B1B88062B7FF64C
:102F0000A3AE0621D9F8000002F008F82E4A0346C5
:102F10000A21384614F066F91BEE900AC4F81C75B5
:102F20000DF0A2FB294F0A970E231BEE900A0AA967
:102F3000ADF82C300DF0B8FB1BEE901A284609F0C6
:102F40008EF8A2211CEE100A3622FFF74EF94FF040
:102F5000FF33C4F860351F4BC4F850851B6800214F
:102F6000A4F85415C4F85C15C4F8641504F5BA68DF
:102F7000002B3FF45FAE164B1B88002B3FF464AE72
:102F8000D9F8000001F0CAFF0F4A03460A21404663
:102F900014F028F91CEE100AC4F868850DF064FBE3
:102FA00001231CEE100A0AA9ADF82C300A970DF087
:102FB0007BFB28461CEE101A09F051F820460DB094
:102FC000BDEC108BBDE8F08FF6800208007F020890
:102FD000243E0120203E01202C3E0120787329FF51
:102FE000704770470368DB6A1847704730B4C2689F
:102FF00044685510034604EB6200D20748BF62598B
:103000009B6830BC48BFD358184743682BB18368CE
:103010002BB9C06800F001007047184670470120C6
:10302000704710B51021044622F062FB204610BD07
:103030009830884208B505D110F056FCBDE808402C
:1030400000F054BE08BD0000074A02600022C0E93B
:103050000122C0E90322C0E90522C0E907224FF49A
:1030600080728284704700BF90A102082DE9F04F62
:103070002DED108B044697B012F090FB22460025F0
:10308000EA4BE56342F8403B10460AEE102AFFF790
:10309000CDF804F16C0304F1980818460693FFF785
:1030A000C5F840460EF060F804F1E00304F5947AA8
:1030B00018460AEE903AFFF7CFF8504609F096FB13
:1030C00004F5087318460BEE103ADFF888B3D84FB2
:1030D000FFF7BAFF04F51373C4F820B2C4F84852DE
:1030E00018460BEE903AFFF7B7F804F5257318462B
:1030F00004F5387609EE903AFFF7AEF8CD4BC4F8F8
:103100009432C4F8DC52304607F022FD04F578739F
:1031100018460993FEF780F907F1240304F57D7141
:10312000C4F8E833C4F8EC53C4F8E07308460CEE76
:10313000101AFFF789FF04F58461C4F8F4B3C4F8EA
:103140001C5408460CEE901AFFF786F804F58D61C2
:1031500008460DEE101AFFF77FF804F59661084651
:1031600008EE101A07F0F4FC04F5B66108460A915F
:10317000FEF752F907F1240204F2C451C4F8B8254D
:10318000C4F8BC55C4F8B07508460DEE901AFFF7A8
:103190005BFF04F5BE61C4F8C4B5C4F8EC5508463D
:1031A0000EEE101AFFF758F804F5C76104F5D06762
:1031B00008460EEE901AFFF74FF8384607F0C8FCA5
:1031C00004F5F06108460B91FEF726F9984BC4F818
:1031D000803703F1240204F29471C4F88827C4F8FC
:1031E0008C5708460FEE101AFFF72EFF04F5F86112
:1031F000C4F894B7C4F8BC5708460FEE901AFFF70E
:103200002BF804F6080104F5056908460291FFF75A
:1032100023F8484607F09CFC04F5156108460C911C
:10322000FEF7FAF8824BC4F8503903F1240204F691
:103230006411C4F85829C4F85C5908460391FFF793
:1032400003FF04F51961C4F864B9C4F88C59084641
:103250000491FFF701F804F6D81104F5226B084633
:103260000591FEF7F9FF584607F072FC04F532614C
:1032700008460D91FEF7D0F86D4BC4F8203B03F1E2
:10328000240204F63433C4F8282BC4F82C5B184607
:1032900009EE103A08F01EFE04F6CC3318460793E8
:1032A000FEF7C4FF04F6F83318460893FEF7BEFF96
:1032B00004F58053604AC3F8382A604AC3F83C4A90
:1032C000C3F8402AC3F8445A04F628404FF4616119
:1032D0000EF006FE4FF4A0732A461AEE100A009371
:1032E0002946F023FEF78EFF4FF07F43A366231D90
:1032F0001AEE101A184608EE903A08F0B0FE4FF495
:10330000A0732A46069800932946F023FEF77AFF19
:103310004B4BC4F89430069918EE900A08F09FFEC3
:1033200040460722C521FEF760FF022314AA13A915
:10333000ADF84C3040464FF00303ADF850300DF07F
:10334000E6FB2C23A4F8D0304046FEF7A7FF4FF051
:10335000FF33C4E9353304F5D1531833C4F8C03012
:1033600018EE900A414608F07AFE1AEE900A0D22F5
:103370001B210DF13808FEF738FF324BC4F810312D
:103380001AEE901AA4F8145140460CF0F3FE98E897
:10339000070004F58E7383E807002B4B14931AEE95
:1033A000900A2B2314A9ADF854300DF07DF91AEED4
:1033B000901A18EE900A08F052FE294650461F2235
:1033C000FEF713FF4FF009020823ADF8502013A9B0
:1033D00014AA5046ADF84C3009F0A8FAF022504635
:1033E0005A2109F04FF95046322109F0C4F85046ED
:1033F000322109F045F9154AC4F828221BEE900A3B
:103400001A222021FEF7F1FE114AC4F87C221BEE9D
:10341000901AA4F8805240460CF0ACFE98E80700E1
:1034200004F5227383E8070016E000BF1482020847
:10343000189C020804810208FC810208313000084F
:103440002B2B2BFF999999FF007F0208F0000501B3
:10345000FFF700FF4C990208ED4B14931BEE900A06
:10346000292314A9ADF854300DF01EF91BEE901A63
:103470001BEE100A08F0F3FD19EE900A40225B21C2
:10348000FEF7B3FED4F89432E24AC4F8C42219EE2F
:10349000901AA4F8C8524046D3F88430984798E868
:1034A000070004F5347383E8070004F6244319EE9B
:1034B000900AA4F8245CC4F8DC320DF0D5F8D44BA3
:1034C000149319EE900A2A2314A9ADF854300DF084
:1034D000EBF819EE901A1BEE100A08F0C0FD30460A
:1034E0006B224121FEF781FE6E20009003462A46A2
:1034F0002946304607F0D0FA2B460095294630463B
:10350000642207F059FB37221146304607F059FA7A
:103510003046322107F07FFA30460A2107F081FA5F
:10352000B4222946304607F000FB3046B42107F0AC
:103530007FFA4FF00700ADF8500014A9304607F0AD
:1035400069FC40F29F7CB448A4F8F0C30999C4F820
:10355000EC03304607F032FA30463C2107F0C9FA56
:103560001BEE100A314608F07AFD1BEE101A504689
:1035700009F053FAA949C4F8FC131CEE900A17226B
:103580004C21FEF732FEA34AC4F850241CEE901AD8
:10359000A4F8545440460CF0EDFD98E807000DF1F6
:1035A000500E04F25C439A4E149683E807002623DB
:1035B00071461CEE900AADF854300DF075F81CEE13
:1035C000901A1CEE100A08F04AFD1DEE100A3C226B
:1035D0005B21FEF70AFE8F4AC4F898241DEE101AEC
:1035E000A4F89C5440460CF0C5FD98E807000DF186
:1035F000500E04F2A44383E80700714625231DEE14
:10360000100AADF8543014960DF04EF81DEE101A55
:103610001CEE100A08F023FD18EE100A6B2241215F
:10362000FEF7E3FD6E2318EE100A00932A462946A2
:1036300007F032FA2B4618EE100A0095294664224C
:1036400007F0BAFA3722114618EE100A07F0B9F956
:1036500018EE100A322107F0DEF918EE100A0A21DE
:1036600007F0DFF94FF4B47218EE100A294607F09C
:103670005CFA18EE100AB42107F0DAF90DF1500ED9
:103680004FF00703714618EE100AADF8503007F0FE
:10369000C1FB40F29F7C6048A4F8C0C50A99C4F8F9
:1036A000BC0518EE100A07F089F918EE100A3C2143
:1036B00007F01FFA18EE101A1CEE100A08F0CFFCE3
:1036C0001CEE101A504609F0A8F95449C4F8CC155C
:1036D0001EEE100A17223621FEF787FD4D4AC4F868
:1036E00020261EEE101AA4F8245640460CF042FD87
:1036F00098E807000DF1500E04F22C6383E80700F0
:10370000242371461EEE100AADF8543014960CF0C6
:10371000CBFF1EEE101A1DEE900A08F0A0FC1EEE64
:10372000900A3C225B21FEF760FD3A4AC4F8682605
:103730001EEE901AA4F86C5640460CF01BFD98E85B
:1037400007000DF1500E04F2746383E80700232391
:1037500071461EEE900AADF8543014960CF0A4FF9A
:103760001EEE901A1DEE900A08F079FC38466B2286
:103770004121FEF73AFD4FF06E0E7346CDF800E0A2
:103780002A462946384607F087F92B4600952946F0
:103790003846642207F010FA37221146384607F0FF
:1037A00010F93846322107F036F938460A2107F079
:1037B00038F94FF4B4722946384607F0B6F938465E
:1037C000B42107F035F90DF1500E71464FF00703A3
:1037D0003846ADF8503007F01DFB40F29F7C0E4894
:1037E000A4F890C70B99C4F88C07384607F0E6F8A0
:1037F00038463C2107F07DF91DEE900A394608F065
:103800002EFC1DEE901A504609F007F908E000BFA3
:10381000007F0208FFF700FFFFF000FFF000050146
:10382000C349C44FC4F89C171FEE900A17224C21BD
:10383000FEF7DBFC1FEE901AA4F8F4574046C4F8DC
:10384000F0770CF097FC98E8070004F2FC7383E82B
:10385000070014AA282311461FEE900AADF8543031
:1038600014960CF021FF1FEE901A1FEE100A08F0BC
:10387000F6FB02983C225B21FEF7B7FC0299A4F804
:103880003C584046C4F838780CF074FC98E80700BF
:1038900004F6440383E8070014AA2723114602987C
:1038A000ADF8543014960CF0FFFE02991FEE100A8A
:1038B00008F0D5FB48466B224121FEF796FC6E22AC
:1038C0001346009229462A46484607F0E5F82B465B
:1038D000009529464846642207F06EF937221146C2
:1038E000484607F06EF84846322107F094F84846FB
:1038F0000A2107F096F84FF4B4722946484607F0BB
:1039000014F94846B42107F093F814AA4FF00703BE
:1039100011464846ADF8503007F07CFA40F29F7CE3
:103920008548A4F860C90C99C4F85C09484607F0BA
:1039300045F848463C2107F0DCF81FEE100A4946DE
:1039400008F08DFB1FEE101A504609F066F8784912
:103950000498C4F86C193C225B21FEF746FC0499DC
:10396000A4F8C4594046C4F8C0790CF003FC98E8A8
:10397000070004F6CC1383E8070021230498ADF870
:10398000543014A914960CF08FFEDDE9030108F001
:1039900066FB2A4605983321FEF727FC0599A4F813
:1039A0000C5A4046C4F8087A0CF0E4FB98E807008B
:1039B00004F6142383E8070022230598ADF8543059
:1039C00014A914960CF070FE0599039808F047FBB3
:1039D00058466B224121FEF708FC6E2213460092E6
:1039E00029462A46584607F057F82B46009529469F
:1039F0005846642207F0E0F837221146584606F090
:103A0000E0FF5846322107F006F858460A2107F031
:103A100008F84FF4B4722946584607F086F858461D
:103A2000B42107F005F84FF0070314A95846ADF884
:103A3000503007F0EFF940F29F7C3F48A4F830CBBC
:103A40000D99C4F82C0B584606F0B8FF58463C2197
:103A500007F04FF80398594608F001FB03995046C8
:103A600008F0DBFF2946504608F0C8FF18EE900A20
:103A7000514608F0F4FA1C234FF4927219EE100A22
:103A8000009309216223FEF7BDFB19EE100A2B49B2
:103A900008F05EF919EE100A149614A90A26ADF87A
:103AA000546008F068F919EE100A012108F060FA74
:103AB0004FF00303324619EE100A84F8633B314697
:103AC0002B4608F058FA19EE101A18EE900A84F8EE
:103AD000595B08F0C4FA34232A460798184E00931D
:103AE0002946F0231125FEF78DFB0799C4F8F46BE6
:103AF00018EE900A84F8F25B08F0B1FA20230898D7
:103B000000934FF49272F1234FF0FF31FEF77AFBEE
:103B100018EE900A0899C4F8206C84F81E5C08F02E
:103B20009EFA204617B0BDEC108BBDE8F08F00BFA9
:103B3000F0000501FFF700FFFFF000FFFFEA00FFC4
:103B4000FF5938FF10B5054B036004460EF0D2F95B
:103B500004F5947008F01AFD204610BD1482020886
:103B600010B50446FFF7EEFF204641F6482121F04C
:103B7000BFFD204610BD7047704700F59873086878
:103B8000496803C37047704770474160704770478A
:103B9000064BC0F84C310023C0F8503100F5A27339
:103BA000C0F84801C0F84031704700BFB542000876
:103BB0000123037270477047704710B4C2684168B0
:103BC0005410034601EB6200D20748BF0A599B68B4
:103BD0005DF8044B48BFD358184743682BB183683E
:103BE0002BB9C06800F001007047184670470120EB
:103BF000704710B50C21044621F07AFD204610BD17
:103C000010B51021044621F073FD204610BD10B5FB
:103C10004FF4AE71044621F06BFD204610BD10B587
:103C20000FF062FE0368BDE81040DB6B184710B56B
:103C30000446D0F8400158B10368DB68984738B1B2
:103C4000D4F8400103689B6898470023C4F84031CA
:103C500010BD0000044B1B6893F858200AB1D86CC3
:103C600000B99868704700BFC83D0120F8B5044608
:103C700017460E460FF044FF104B1C60104B23609C
:103C8000104B0025C4E951350F4BC4E95355186852
:103C9000036801219B68C4E94F55C4E955769847EC
:103CA000284601F0FFF8FFF7D5FF19F044FCFFF7B5
:103CB000D1FF19F0BBFC2046F8BD00BF1C3E01201F
:103CC000C0890208A8890208C83D0120064BC0F837
:103CD0004C310023C0F8503100F5A273C0F8480100
:103CE000C0F84031704700BFB5420008064BC0F82D
:103CF0004C310023C0F8503100F5A273C0F84801E0
:103D0000C0F84031704700BF65410008064BC0F85D
:103D10004C310023C0F8503100F5A273C0F84801BF
:103D2000C0F84031704700BF15400008064BC0F88E
:103D30004C310023C0F8503100F5A273C0F848019F
:103D4000C0F84031704700BFC53E0008064BC0F8C0
:103D50004C310023C0F8503100F5A273C0F848017F
:103D6000C0F84031704700BF753D000803685B6ACA
:103D7000184700002DE9F14FD0E9555A0746A868C9
:103D800003681B6A984740F20B63984205D8454B7D
:103D9000454AA321454822F0F1FB686803681B6A85
:103DA00098470F2803D8424B3F4AA421F2E7E8681E
:103DB00003681B6A98470B2803D83E4B3A4AA52153
:103DC000E8E70FF091FDDFF8F49004300FF0CAFD42
:103DD000D9F8000010B10368DB689847D9F80000F3
:103DE00010B103681B689847DFF8D480D8F800004A
:103DF00010B103685B699847D7F83C0110B10368BC
:103E00005B689847D8F8000010B103681B689847B2
:103E1000D7F83C0110B103689B689847E868002117
:103E2000FFF7A4FF4FF0000B234B03600446C0F8DC
:103E300004B080F808B0A868036859465B6A9847E0
:103E4000064601F0F9FB6868036859465B6A9847C3
:103E50003146054601F0C0FBC9F80040C7F83C51A7
:103E6000C8F80060E5B12B1DCAF800303368C5F80A
:103E700008A03046DB68F56398472B6828461B6826
:103E800098472146304611F035FE236820461B69CD
:103E9000984723685B69204601B0BDE8F04F18479A
:103EA0002B46E1E744820208D2820208E28302083C
:103EB00029840208CC840208148A0208103E0120DA
:103EC0000C3E01202DE9F14FD0E9555A0746A8686C
:103ED00003681B6A9847B0F5856F05D2454B464A83
:103EE000A321464822F04AFB686803681B6A98478A
:103EF0000F2803D8424B404AA421F2E7E868036840
:103F00001B6A98470B2803D83E4B3B4AA521E8E79C
:103F10000FF0EAFCDFF8F49004300FF023FDD9F83D
:103F2000000010B10368DB689847D9F8000010B1B1
:103F300003681B689847DFF8D880D8F8000010B1F4
:103F400003685B699847D7F83C0110B103685B6868
:103F50009847D8F8000010B103681B689847D7F855
:103F60003C0110B103689B689847E8680021FFF79F
:103F7000FDFE4FF0000B244B03600446C0F804B074
:103F800080F808B0A868036859465B6A98470646F7
:103F900001F02CFE6868036859465B6A9847314611
:103FA000054601F0F3FDC9F80040C7F83C51C8F8D8
:103FB0000060E5B12B1DCAF800303368C5F808A0D1
:103FC0003046DB68F56398472B6828461B6898479E
:103FD0002146304611F08EFD236820461B69984724
:103FE00023685B69204601B0BDE8F04F18472B46B7
:103FF000E1E700BF448202086F850208E2830208FD
:1040000029840208CC840208148A0208103E012088
:104010000C3E01202DE9F14FD0E9555A0746A8681A
:1040200003681B6A9847B0F5C07F05D2454B464AE6
:10403000A321464822F0A2FA686803681B6A9847E1
:104040000F2803D8424B404AA421F2E7E8680368EE
:104050001B6A98470B2803D83E4B3B4AA521E8E74B
:104060000FF042FCDFF8F49004300FF07BFCD9F83D
:10407000000010B10368DB689847D9F8000010B160
:1040800003681B689847DFF8D880D8F8000010B1A3
:1040900003685B699847D7F83C0110B103685B6817
:1040A0009847D8F8000010B103681B689847D7F804
:1040B0003C0110B103689B689847E8680021FFF74E
:1040C00055FE4FF0000B244B03600446C0F804B0CB
:1040D00080F808B0A868036859465B6A98470646A6
:1040E00001F054FA6868036859465B6A984731469C
:1040F000054601F025FAC9F80040C7F83C51C8F858
:104100000060E5B12B1DCAF800303368C5F808A07F
:104110003046DB68F56398472B6828461B6898474C
:104120002146304611F0E6FC236820461B6998477B
:1041300023685B69204601B0BDE8F04F18472B4665
:10414000E1E700BF448202087F860208E28302089A
:1041500029840208CC840208148A0208103E012037
:104160000C3E01202DE9F14FD0E9555A0746A868C9
:1041700003681B6A9847B0F5C86F05D2454B464A9D
:10418000A321464822F0FAF9686803681B6A984739
:104190000F2803D8424B404AA421F2E7E86803689D
:1041A0001B6A98470B2803D83E4B3B4AA521E8E7FA
:1041B0000FF09AFBDFF8F49004300FF0D3FBD9F83E
:1041C000000010B10368DB689847D9F8000010B10F
:1041D00003681B689847DFF8D880D8F8000010B152
:1041E00003685B699847D7F83C0110B103685B68C6
:1041F0009847D8F8000010B103681B689847D7F8B3
:104200003C0110B103689B689847E8680021FFF7FC
:10421000ADFD4FF0000B244B03600446C0F804B022
:1042200080F808B0A868036859465B6A9847064654
:1042300001F0D6FB6868036859465B6A98473146C7
:10424000054601F0A7FBC9F80040C7F83C51C8F883
:104250000060E5B12B1DCAF800303368C5F808A02E
:104260003046DB68F56398472B6828461B689847FB
:104270002146304611F03EFC236820461B699847D2
:1042800023685B69204601B0BDE8F04F18472B4614
:10429000E1E700BF448202087F870208E283020848
:1042A00029840208CC840208148A0208103E0120E6
:1042B0000C3E01202DE9F14FD0E9555A0746A86878
:1042C00003681B6A984741F65323984205D8454B2B
:1042D000454AA321454822F051F9686803681B6AE2
:1042E00098470F2803D8424B3F4AA421F2E7E868D9
:1042F00003681B6A98470B2803D83E4B3A4AA5210E
:10430000E8E70FF0F1FADFF8F49004300FF02AFB41
:10431000D9F8000010B10368DB689847D9F80000AD
:1043200010B103681B689847DFF8D480D8F8000004
:1043300010B103685B699847D7F83C0110B1036876
:104340005B689847D8F8000010B103681B6898476D
:10435000D7F83C0110B103689B689847E8680021D2
:10436000FFF704FD4FF0000B234B03600446C0F839
:1043700004B080F808B0A868036859465B6A98479B
:10438000064601F0A3FA6868036859465B6A9847D5
:104390003146054601F068FAC9F80040C7F83C51BB
:1043A000C8F80060E5B12B1DCAF800303368C5F8C5
:1043B00008A03046DB68F56398472B6828461B68E1
:1043C00098472146304611F095FB236820461B692B
:1043D000984723685B69204601B0BDE8F04F184755
:1043E0002B46E1E74482020891880208E283020832
:1043F00029840208CC840208148A0208103E012095
:104400000C3E0120406A7047806A704770478B8875
:10441000C0690A68DB0A50F823001044704710B5E1
:10442000C2B1137BB3B1547BD27A240204F4E064AA
:104430001443026A98B202EB840213888B4202D1C1
:1044400092F9020010BD05D8013880B2043200286C
:10445000F3D1F7E70020F5E710B52C21044621F051
:1044600047F9204610BD000030B58BB00446BDF8BA
:1044700060500895BDF85C5007959DF85050069522
:104480009DF84C5005959DF8485004959DF8445072
:1044900003959DF8405002959DF83C500195BDF85C
:1044A0003850009510F0B2FE064B2360159BE36177
:1044B000169B2362199B63621A9BA36220460BB072
:1044C00030BD00BF388A020870470220704770472D
:1044D0007047000038B50546074B45F8043BD0F857
:1044E0001C3204461B6800F507709847636828462D
:1044F0001B689847204638BD1C8C020810B5044B39
:104500000360044600F5F670FFF7E4FF204610BD97
:10451000648C020830B4C26844685510034604EB4A
:104520006200D20748BF62599B6830BC48BFD3586D
:10453000184743682BB183682BB9C06800F00100AD
:1045400070471846704701207047F0B4C568466848
:104550006F10044606EB6500ED07A46844BFF559EB
:104560002C59A446F0BC604743682BB183682BB933
:10457000C06800F00100704718467047012070477E
:1045800010B50446FFF7A6FF204640F2344121F063
:10459000AFF8204610BD10B51021044621F0A8F850
:1045A000204610BD10B51021044621F0A1F8204688
:1045B00010BD10B50446FFF7A1FF20464FF4C861B7
:1045C00021F096F8204610BD10B5044600F5AA70FB
:1045D00006F027FE04F5F87001F0BCFAD4F80834B0
:1045E00004F58160D3F88830BDE81040184700001A
:1045F00008B58BB2012B05D9054B064A0648542154
:1046000021F0BCFF4FF4067301FB0300043008BD2A
:10461000988A0208B38A0208478B020898308842B9
:1046200008B505D10FF060F9BDE80840FFF74EBBB3
:1046300008BD000070B500F5F6748C4215461A46A8
:1046400011D10368012DDB6A05D9074B074A0848D9
:10465000612121F093FF4FF4067105FB0141043104
:10466000BDE87040184770BD988A0208A68B020802
:10467000478B02082DE9F04F2DED028B04468BB0DD
:10468000A146002511F08AF8844BE56349F8403BC8
:1046900004F16C0B484604F19808FDF7C7FD584635
:1046A000FDF7C4FD40460CF05FFD4FF48073A4F8A5
:1046B00004317B4BC4F8E0307A4BC4F808314FF634
:1046C000FF7304F59476A4F80C314FF0FF324FF4E9
:1046D0007F03C4E94825C4F81431C4E93955C4E955
:1046E0003B55C4E93D55C4E93F55C4F81051A4F801
:1046F0001851C4F81C51304606F0EAFF6A4BC4F862
:10470000EC3104F5F67204F5F87008EE102A01F0A9
:1047100017FA04F5816001F013FA644BC4F82036EF
:10472000634BC4F82836634BC4F830364FF4A0729C
:10473000614BC4F83836009229462A464846C4F8E8
:104740002446C4F82C56C4F83446C4F83C56F0232A
:10475000FDF758FD271D4FF07F43A36649463846B5
:1047600007F07DFC4FF4A072009229462A46584675
:10477000F023FDF747FD514BC4F8943059463846B5
:1047800007F06DFC40460722C521FDF72EFD0223F0
:1047900008AA07A9ADF81C3040460323ADF8203025
:1047A0000CF0B5F91723A4F8D0304046FDF776FD9C
:1047B00004F5C6634FF0FF3204F1E00AC4F8C030DC
:1047C000C4E935224146384607F049FC0F225046DD
:1047D0001421FDF70AFD0DF10808394BC4F810311A
:1047E00051464046A4F814510BF0C4FC98E8070069
:1047F00004F58E7383E807002A4B089308A9162353
:104800005046ADF824300BF04FFF5146384607F0C4
:1048100026FC40F22713332200932946F523304625
:10482000FDF7F0FC2946304607F0D1F9294630461D
:1048300007F028FA3046234907F009F930460A21E3
:1048400007F008F930460A2107F007F930460A2137
:1048500007F07DF82A462946304606F0B8FF29467B
:10486000304606F0CCFF4B2384F8B2312A4630465E
:104870004FF4027106F08EFF18EE101A04F5C462B0
:10488000304606F05AFE3846314607F0E8FB20462F
:104890000BB0BDEC028BBDE8F08F00BF648C02084A
:1048A000589E0208007F02081C8C0208348C020803
:1048B000354600084C8C02081D4600082B2B2BFFA8
:1048C000808080FF3D5C0108806A704770477047B8
:1048D000704730B4C26844685510034604EB620068
:1048E000D20748BF62599B6830BC48BFD3581847AD
:1048F00043682BB183682BB9C06800F00100704792
:10490000184670470120704710B51021044620F06A
:10491000EFFE204610BD10B54FF40671044620F09E
:10492000E7FE204610BD38B500F1A00399420446C9
:104930000D4603D10EF0D8FFFFF7C8F904F5E07378
:104940009D4203D10EF0D0FFFFF7E0F904F5BC73F0
:104950009D4203D10EF0C8FFFFF7E8F904F5987403
:10496000A54205D10EF0C0FFBDE83840FFF7EEB913
:1049700038BD00002DE9F04F064600254FF4807346
:104980008C4A8384C0E90155C0E90355C0E9055547
:10499000C0E90755856246F82C2B874AA0F85030AD
:1049A000FF2385B0044680F8523000F15803C0E977
:1049B0000B2504F1A00BC0E90D55C0E90F55C0E966
:1049C0001155C56445651846019304F1E80A0CF0D9
:1049D000CBFB58460CF0C8FB04F5987950460CF018
:1049E000C3FB04F5BC7848460CF0BEFB04F5E07749
:1049F00040460CF0B9FB38460CF0B6FB6F4AC4E9F0
:104A000082246F4AC4E984256E4AA26030462A4651
:104A10006FF00201FDF7E9FB3046F821FCF718FCC6
:104A200030464FF40271FCF715FC674A6265314667
:104A3000204607F014FB019B642218463221FDF743
:104A4000D4FB4FF00503ADF80C30019B062602A9FC
:104A500003AA1846ADF808600CF059F8019B1B2218
:104A6000A4F890201846FDF719FC019B4FF0FF3584
:104A700019462046C4E9255507F0F1FA58460B229D
:104A80003221FDF7B2FB03AA02A94FF005035846F5
:104A9000ADF80C30ADF808600CF039F81A23A4F822
:104AA000D8305846FDF7FAFB04F50272C4F8C82066
:104AB00059462046C4E93755019207F0D0FA5046CE
:104AC000BA223221FDF791FB4FF0050B03AA02A990
:104AD0005046ADF80860ADF80CB00CF018F819238A
:104AE000A4F820315046FDF7D9FB51462046C4E9D1
:104AF000495507F0B4FA484640F267123121FDF7F4
:104B000074FB03AA02A94846ADF80860ADF80CB0E2
:104B10000BF0FDFF1823A4F868314846FDF7BEFBF3
:104B2000019BC4F8583149462046C4E95B5507F05B
:104B300096FA40464FF48B723121FDF756FB03AADB
:104B400002A94046ADF80860ADF80CB00BF0DFFFED
:104B50001523A4F8B0314046FDF7A0FB019BC4F833
:104B6000A03141462046C4E96D5507F078FA384631
:104B70004FF4DF723121FDF738FB03AA02A9384652
:104B8000ADF80860ADF80CB00BF0C1FF1423A4F829
:104B9000F8313846FDF782FB019BC4F8E831204626
:104BA000C4E97F55394607F05AFA204605B0BDE8FA
:104BB000F08F00BFB48C0208E89E02089C8C0208AB
:104BC00027490008F50008022B2B2BFF7047000037
:104BD00030B5164D2C68BFF35B8F14F001048FB015
:104BE00020D1284620F086FDE0B13F230993104BE9
:104BF0000893104B104911480A940122CDE906434D
:104C00000423CDE903320A230093CDE90B44CDE917
:104C100001440594FFF728FC094821F0CDFC284603
:104C200020F074FD05480FB030BD00BF802F00207C
:104C300020E7020818E90208D8DE0208842F0020C5
:104C4000CD4B00087047000030B5174D2C68BFF3FE
:104C50005B8F14F001048FB022D1284620F04AFD6A
:104C6000F0B13F230993114B0893114B0793012394
:104C7000CDE9054304930423CDE902430F230D49F5
:104C8000009327221223CDE90B440B480A94019488
:104C9000FFF7EAFB094821F08FFC284620F036FD9B
:104CA00005480FB030BD00BFB02F002024E7020838
:104CB0001CE90208E8DE0208B42F0020454C000879
:104CC0007047000030B5174D2C68BFF35B8F14F0B0
:104CD00001048FB022D1284620F00CFDF0B13F2313
:104CE0000993114B0893114B07930123CDE9053329
:104CF00004930423CDE9024314230D4900935F225A
:104D00001823CDE90B440B480A940194FFF7ACFB40
:104D1000094821F051FC284620F0F8FC05480FB066
:104D200030BD00BFE02F002070E7020820E9020834
:104D30000CE10208E42F0020C14C0008704700007D
:104D400030B5174D2C68BFF35B8F14F001048FB0A2
:104D500022D1284620F0CEFCF0B13F230993114B1D
:104D60000893114B114912480A94CDE906430122D8
:104D70000423CDE903322823009310222923CDE90F
:104D80000B44CDE901440594FFF76EFB094821F07F
:104D900013FC284620F0BAFC05480FB030BD00BF18
:104DA0001030002014E9020824E9020840E6020855
:104DB000143000203D4D000800207047002070474F
:104DC0000EB403B503AB002153F8042B01930FF08D
:104DD00021FD02B05DF804EB03B070470CB407B5D9
:104DE00004AB53F8042B01930FF014FD03B05DF8EE
:104DF00004EB02B070470000436C10B5044673B377
:104E0000038F2BB9184B194AC521194821F0B6FB5D
:104E1000C38E00EB43035B8C0BB311F03AFC238F82
:104E2000012B03D8134B144ACB21EEE7E28E531C1F
:104E30009BB2092B194688BFA3F10A0104EB41017B
:104E400040F63F10498C814209D10A2B04EB420203
:104E500028BF002304EB4303508C58845184204620
:104E6000BDE8104011F018BB408D0208498D0208C2
:104E7000F48D02083E8E02084C8E020811F0D3BA5F
:104E800010B586B002AC84E806001A460AAB05935A
:104E90000193099B00932146089B0EF0C3F806B0CE
:104EA00010BD000038B518BB124B13481C681349DD
:104EB000B4B1226822440260626822440A60A26897
:104EC00014440F4B00221A8000F00AFB054600F044
:104ED00005FB0C4B1C600C4B1D600C4B188007E055
:104EE0000B4B03600B4B0B600B4B1C68002CE8D189
:104EF00038BD00BF40300020443000204830002042
:104F00004C300020203E0120283E0120243E01207C
:104F1000DCE9020828E9020844EC0208044B1B689B
:104F200053F82100034B1B6803EB4000704700BFA0
:104F30004830002044300020704770477047704769
:104F400070477047704770477047704730B4C26809
:104F500044685510034604EB6200D20748BF62590B
:104F60009B6830BC48BFD358184743682BB183684F
:104F70002BB9C06800F00100704718467047012047
:104F8000704710B51021044620F0B2FB204610BD3A
:104F900010B540F20C41044620F0AAFB204610BD9B
:104FA00000F1E003994270B504460D4603D10EF0BE
:104FB0009BFCFEF79BFE04F525739D4203D12368FD
:104FC0002046DB6A984704F543739D4203D123686A
:104FD00020461B6B984704F534739D4203D1236828
:104FE00020465B6B984704F552739D4203D12368BA
:104FF00020469B6B984704F561739D4203D123685B
:105000002046DB6B984704F570739D4203D12368FB
:1050100020461B6C984704F516739D4205D1236802
:1050200020465B6CBDE87040184770BD2DE9F04F1D
:105030002DED088B04468FB0A046002510F0AEFB86
:10504000EA4BE56348F8403B4046FDF7EFF804F1D2
:105050006C0318460BEE903AFDF7E8F84FF48073B6
:10506000A4F8BC30E24BC4F89830E24BC4F8C0302E
:105070004FF6FF7304F1E0074FF0FF32A4F8C4309D
:105080004FF47F03C4F8CC3004F5947BC4E9362593
:10509000C4E92755C4E92955C4E92B55C4E92D5560
:1050A000C4F8C850A4F8D050C4F8D450384604F519
:1050B000E07A0CF059F8584606F00CFF504606F01E
:1050C00009FF04F51672104608EE102A0BF0EEFEEA
:1050D00004F52572104608EE902A0BF0E7FE04F561
:1050E0003472104609EE102A0BF0E0FE04F543720C
:1050F000104609EE902A0BF0D9FE04F552721046C4
:105100000AEE102A0BF0D2FE04F5617210460AEE88
:10511000902A0BF0CBFE04F5707210460BEE102AAD
:105120000BF0C4FEB44BC4F8FC334FF4A072B34B85
:10513000C4F804340092F0232A4629464046C4F8B5
:105140000044C4F80854261DFDF75CF84FF07F4278
:10515000A2664146304606F082FF4FF4A0721BEE75
:10516000900A009229462A46F023FDF74BF8A44BFB
:10517000C4F8943004F198091BEE901A304606F0FA
:105180006EFF0F2248461421FDF72FF80DF110088D
:105190009C4BC4F8C83049464046A4F8CC500AF0AD
:1051A000E9FF98E8070004F1D4030DF1300883E823
:1051B0000700904B0C9341460D234846ADF8343020
:1051C0000BF072FA4946304606F049FF384607228E
:1051D000C521FDF70AF84FF003024FF00C09022336
:1051E0000BA9ADF8302038464246ADF82C300BF014
:1051F0008EFC3846A4F81891FDF750F84FF0FF32B6
:10520000C4E9472204F57F72C4F8082139463046C4
:105210002B27039206F023FF0097C5236A225846E6
:105220001421FCF7EFFF58464FF07F4106F090FD48
:10523000704B0C934FF00B0241465846ADF83420AA
:1052400006F099FD5846012106F092FE4FF0030149
:105250002B4684F857111E224946584606F08BFE0D
:105260005946304606F0FBFE35220097C5235046CE
:105270001421FCF7C7FF5046634906F069FD5D4BFA
:105280000C93414609235046ADF8343006F073FDC7
:105290005046012106F06CFE4FF003012B4684F8C6
:1052A000EF111E224946504606F065FE5146304633
:1052B00006F0D5FE18EE100A40F205124121FCF767
:1052C00094FF04230AA94FF00A0B0A4618EE100AAD
:1052D000ADF82430ADF8283009A90BABCDF800802B
:1052E000ADF82CB0ADF830B00BF04BFD1E23C4F878
:1052F0009032039BC4F8803218EE101A304606F044
:10530000AEFE18EE900AA0221D21FCF76EFF0AA93E
:105310004FF0010A0A4618EE900A0BAB09A9CDF826
:1053200000806FF00617ADF824A0ADF82850ADF856
:105330002C90ADF830900BF024FD039BC4F8BC32E8
:1053400018EE901A3046C4F8CC7206F088FE19EEBA
:10535000100AA0226B21FCF748FF0AA90A4619EEA1
:10536000100A0BAB09A9CDF80080ADF824A0ADF868
:105370002850ADF82C90ADF830B00BF002FD039B37
:10538000C4F8F83219EE101A3046C4F8087306F063
:1053900066FE19EE900AD2221D21FCF726FF4FF07F
:1053A0000B020AA919EE900AADF82C20ADF83020B6
:1053B0000BAB0A46CDF8008009A9ADF824A0ADF8E2
:1053C00028500BF0DEFC039BC4F8343319EE901A1E
:1053D0003046C4F8447306F042FE1AEE100AD22298
:1053E0006B21FCF702FF4FF00B020FE0408F020829
:1053F000589E0208007F0208288F0208A14F00086B
:105400002B2B2BFF808080FF787329FF0AA91AEECF
:10541000100AADF82C20ADF830200BAB0A46CDF8C1
:10542000008009A9ADF824A0ADF828500BF0A9FC24
:10543000039BC4F870331AEE101A3046C4F8807318
:1054400006F00DFE1AEE900AA022AF21FCF7CDFE69
:105450000AA90A461AEE900A0BAB09A9CDF80080FA
:10546000ADF824A0ADF82850ADF82C90ADF830B0D0
:105470000BF087FC039BC4F8AC331AEE901A30464D
:10548000C4F8BC7306F0EBFD1BEE100AD222AF216C
:10549000FCF7ABFE4FF00B021BEE100AADF82C2010
:1054A000ADF830200BAB0AAA09A9CDF80080ADF801
:1054B00024A0ADF828500BF064FC039BC4F8F873EB
:1054C00030461BEE101AC4F8E83306F0C8FD20463B
:1054D0000FB0BDEC088BBDE8F08F00BF2D207047EA
:1054E000004870475030002010B5FFF7EBFB064C2A
:1054F0002060FFF725FC6060FFF76AFBA060FFF704
:10550000A3FBE06010BD00BF5030002010B50024A8
:1055100004600C6014601C6010BD704770477047D9
:105520007047704704387047704710B51021044623
:1055300020F0DEF8204610BDA0F10400F5E70000E1
:1055400010B500228260044AC16002F108042032D2
:105550000460426010BD00BF888F020870470000E1
:1055600010B5034B03600446FCF700FE204610BD57
:10557000C88F020810B50446FFF7F2FF20464FF42B
:10558000C07120F0B5F8204610BD000010B50446EB
:10559000FCF7C8FE014B2360204610BDC88F0208EF
:1055A000FCF7E5BD7047043870477047C068036872
:1055B0009B6C1847A0F10400FFF7F8BF10B510214D
:1055C000044620F095F8204610BDA0F10400F5E750
:1055D000806800F098BA000010B500228260044A8A
:1055E000C16002F1080428320460426010BD00BFAF
:1055F000F48F020870478B68C0F808364B68C0F813
:1056000004360B68C0F800367047000010B5034B35
:1056100003600446FCF7DDFF204610BD4090020801
:1056200010B50446FFF7F2FF204640F20C6120F06F
:105630005FF8204610BD000010B50446FDF792F853
:10564000064B23600F23C4F8F4350423C4F8F8355F
:1056500040F2E473C4F8FC35204610BD40900208C7
:10566000FCF7B8BF10B50446D0F80036114A0A213D
:1056700000F5B06011F0B6FDD4F804360D4A0A21E9
:1056800004F5B56011F0AEFDD4F80836094A0A21D8
:1056900004F5BA6011F0A6FD04F558700FF0E4F9B6
:1056A00004F588600FF0E0F904F5A460BDE810404F
:1056B0000FF0DAB93490020810B5D0F8F435084A82
:1056C00001330446C0F8F4350A2100F26C5011F0A1
:1056D00089FD04F54570BDE810400FF0C5B900BF65
:1056E0003490020810B5D0F8F435084A013B04465E
:1056F000C0F8F4350A2100F26C5011F073FD04F586
:105700004570BDE810400FF0AFB900BF34900208FB
:1057100010B5D0F8F835084A01330446C0F8F8351A
:105720000A2100F2945011F05DFD04F57D70BDE892
:1057300010400FF099B900BF3490020810B5D0F8AE
:10574000F835084A013B0446C0F8F8350A2100F252
:10575000945011F047FD04F57D70BDE810400FF046
:1057600083B900BF3490020810B5D0F8FC35084A60
:1057700001330446C0F8FC350A2100F2BC5011F098
:1057800031FD04F2D440BDE810400FF06DB900BF08
:105790003490020810B5D0F8FC35084A013B0446A5
:1057A000C0F8FC350A2100F2BC5011F01BFD04F2D8
:1057B000D440BDE810400FF057B900BF3490020844
:1057C0001FB5D0F8F825D0F8F435C0F80426044603
:1057D000D0F8FC25C0F80036C0F808260A21184A7F
:1057E00000F5B06011F0FEFCD4F8F835144A0A2137
:1057F00004F5B56011F0F6FCD4F8FC35104A0A2126
:1058000004F5BA6011F0EEFC04F558700FF02CF9B5
:1058100004F588600FF028F904F5A4600FF024F96E
:10582000D4F8F435E06B0193D4F8F8350293D4F84A
:10583000FC350393036801A95B69984704B010BD68
:10584000349002087047043870477047C068036896
:105850001B6B184710B5102104461FF049FF204666
:1058600010BDA0F10400F5E710B500228260044AE3
:10587000C16002F1080424320460426010BD00BF20
:105880008C900208704700F580500B68C0F8483AC9
:105890004B68C0F84C3A8B68C0F8503A704700002B
:1058A00010B5034B03600446FEF74CF9204610BDCB
:1058B000D090020810B50446FFF7F2FF204641F6EB
:1058C00054211FF015FF204610BD000010B50446FE
:1058D000FDF7CCFB014B2360204610BDD0900208A1
:1058E00038B5044604F63435FDF77BFB284606F050
:1058F0008DFB04F58054C4F8480A284606F09FFB47
:10590000C4F84C0A284606F09DFBC4F8500A38BD7E
:1059100007B5014601F5805100F6343091F8503A50
:1059200091F84C2A91F8481A019006F024FB01984E
:1059300003B05DF804EB0FF097B8704710B54FF463
:10594000AE7104461FF0D4FE204610BD10B50446CB
:10595000D0F8580100F064F82046BDE810400EF081
:105960005FB8000010B50446FEF780F9014B2360D4
:10597000204610BD0C9102087047043870477047EC
:1059800010B5102104461FF0B3FE204610BDA0F153
:105990000400F5E710B500228260044AC16002F1FC
:1059A000080420320460426010BD00BF5891020814
:1059B0007047000010B5034B03600446FEF79EFDE0
:1059C000204610BD9891020810B50446FFF7F2FF7B
:1059D00020464FF4C8611FF08BFE204610BD00002A
:1059E00010B50446FEF746FE014B2360204610BD6D
:1059F00098910208FEF7E8BD0022642110B5C0E9C5
:105A00000021C0E90222C0E90422044A034600F151
:105A1000180407CA84E80700184610BDE875020894
:105A20008368C26901333C2110B58360044693FB4F
:105A3000F1F001FB103323B9616901313B2909DC25
:105A40006161E3690C2B47DD0123E361236A0133C4
:105A5000236241E02169636101313B2901DC21615D
:105A6000EFE7E16823610131172901DCE160E8E734
:105A7000012AE36007D0D11E09290ED840F2B523D0
:105A8000CB40D80709D5A36901331E2BC5BF01231D
:105A9000D218A361A361C8BFE261E369042B06D0F9
:105AA0000B2B0ED84FF42462DA40D10709D5A26936
:105AB00001321D2AC5BF01229B18A261A261C8BF85
:105AC000E361E369022BBCD1A36901331B2B11DD18
:105AD00001220323C4E90623214651F80C0B036875
