:020000040800F2
:1000000000000320590F0008294300082B43000873
:100010002D4300082F430008314300080000000072
:10002000000000000000000000000000013B01088B
:100030003343000800000000913B01080935010826
:10004000A90F0008A90F0008A90F0008A90F0008B0
:10005000A90F0008A90F0008A90F0008A90F0008A0
:10006000A90F0008A90F0008A90F0008A90F000890
:10007000A90F0008A90F0008A90F0008A90F000880
:10008000A90F0008A90F000835430008A90F0008B0
:10009000A90F0008A90F0008A90F0008A90F000860
:1000A000A90F0008A90F0008A90F0008A90F000850
:1000B000A90F0008A90F0008A90F0008A90F000840
:1000C000A90F0008A90F0008A90F0008A90F000830
:1000D000A90F000841430008A90F0008A90F000854
:1000E000A90F0008A90F0008A90F0008A90F000810
:1000F000A90F0008A90F0008A90F0008A90F000800
:10010000A90F0008A90F0008A90F0008A90F0008EF
:10011000A90F0008A90F00084D430008A90F000807
:10012000A90F0008A90F0008A90F0008A90F0008CF
:10013000A90F0008A90F0008A90F0008A90F0008BF
:10014000A90F0008A90F0008A90F0008A90F0008AF
:10015000A90F0008A90F0008A90F0008A90F00089F
:10016000A90F0008A90F0008A90F0008A90F00088F
:10017000A90F0008A90F0008A90F0008000000003F
:10018000A90F0008A90F0008A90F0008A90F00086F
:10019000A90F0008A90F0008A90F0008A90F00085F
:0C01A00059430008A90F0008654300083F
:1001B00010B5054C237833B9044B13B10448AFF3A1
:1001C00000800123237010BD4C03002000000000BC
:1001D000A44D030808B5034B1BB103490348AFF313
:1001E000008008BD0000000050030020A44D03085B
:1001F00001F0FF01102A2BDB10F0070F08D010F8D8
:10020000013B013A8B422DD010F0070F42B3F6D1DB
:10021000F0B441EA012141EA014122F007047FF0F4
:1002200000070023F0E80256083C85EA010586EA4B
:10023000010685FA47F5A3FA87F586FA47F6A5FA87
:1002400087F68EB9EED1F0BC01F0FF0102F0070293
:1002500032B110F8013B013A83EA010313B1F8D13E
:100260000020704701387047002D06BF354603381F
:10027000073815F0010F07D1013015F4807F02BF58
:10028000013015F4C03F0130F0BC0138704700BFA9
:10029000034613F8012B002AFBD1181A01387047C6
:1002A00081F0004102E000BF83F0004330B54FEA27
:1002B00041044FEA430594EA050F08BF90EA020F94
:1002C0001FBF54EA000C55EA020C7FEA645C7FEA27
:1002D000655C00F0E2804FEA5454D4EB5555B8BF4A
:1002E0006D420CDD2C4480EA020281EA030382EABB
:1002F000000083EA010180EA020281EA0303362D4D
:1003000088BF30BD11F0004F4FEA01314FF4801C1F
:100310004CEA113102D0404261EB410113F0004F31
:100320004FEA03334CEA133302D0524263EB4303E8
:1003300094EA050F00F0A780A4F10104D5F1200E86
:100340000DDB02FA0EFC22FA05F2801841F10001E1
:1003500003FA0EF2801843FA05F359410EE0A5F1B5
:1003600020050EF1200E012A03FA0EFC28BF4CF0E6
:10037000020C43FA05F3C01851EBE37101F000459C
:1003800007D54FF0000EDCF1000C7EEB00006EEBA9
:100390000101B1F5801F1BD3B1F5001F0CD3490833
:1003A0005FEA30004FEA3C0C04F101044FEA44528A
:1003B00012F5800F80F09A80BCF1004F08BF5FEA11
:1003C000500C50F1000041EB045141EA050130BDF1
:1003D0005FEA4C0C404141EB0101013C28BFB1F503
:1003E000801FE9D291F0000F04BF01460020B1FA4E
:1003F00081F308BF2033A3F10B03B3F120020CDA21
:100400000C3208DD02F1140CC2F10C0201FA0CF0FE
:1004100021FA02F10CE002F11402D8BFC2F1200C63
:1004200001FA02F120FA0CFCDCBF41EA0C01904019
:10043000E41AA2BF01EB0451294330BD6FEA040462
:100440001F3C1CDA0C340EDC04F11404C4F120024D
:1004500020FA04F001FA02F340EA030021FA04F35F
:1004600045EA030130BDC4F10C04C4F1200220FAB6
:1004700002F001FA04F340EA0300294630BD21FAF4
:1004800004F0294630BD94F0000F83F4801306BFBA
:1004900081F480110134013D4EE77FEA645C18BFAE
:1004A0007FEA655C29D094EA050F08BF90EA020F45
:1004B00005D054EA000C04BF1946104630BD91EA3D
:1004C000030F1EBF0021002030BD5FEA545C05D140
:1004D0004000494128BF41F0004130BD14F580047F
:1004E0003CBF01F5801130BD01F0004545F0FE41F3
:1004F00041F470014FF0000030BD7FEA645C1ABF28
:10050000194610467FEA655C1CBF0B46024650EA5E
:10051000013406BF52EA033591EA030F41F400218A
:1005200030BD00BF90F0000F04BF0021704730B510
:100530004FF4806404F132044FF000054FF00001E5
:1005400050E700BF90F0000F04BF0021704730B5A6
:100550004FF4806404F1320410F0004548BF40427B
:100560004FF000013EE700BF42004FEAE2014FEAD0
:1005700031014FEA02701FBF12F07F4393F07F4FAB
:1005800081F06051704732F07F4208BF704793F0AE
:100590007F4F04BF41F40021704730B54FF46074C1
:1005A00001F0004521F000411CE700BF50EA0102C4
:1005B00008BF704730B54FF000050AE050EA01026D
:1005C00008BF704730B511F0004502D5404261EBDD
:1005D00041014FF4806404F132045FEA915C3FF41E
:1005E000D8AE4FF003025FEADC0C18BF03325FEABB
:1005F000DC0C18BF033202EBDC02C2F1200300FA6C
:1006000003FC20FA02F001FA03FE40EA0E0021FA90
:1006100002F11444BDE600BF70B54FF0FF0C4CF47E
:10062000E06C1CEA11541DBF1CEA135594EA0C0F30
:1006300095EA0C0F00F0DEF82C4481EA030621EA6B
:100640004C5123EA4C5350EA013518BF52EA0335A6
:1006500041F4801143F4801338D0A0FB02CE4FF058
:100660000005E1FB02E506F00042E0FB03E54FF088
:100670000006E1FB03569CF0000F18BF4EF0010E80
:10068000A4F1FF04B6F5007F64F5407404D25FEA7C
:100690004E0E6D4146EB060642EAC62141EA55512F
:1006A0004FEAC52040EA5E504FEACE2EB4F1FD0C71
:1006B00088BFBCF5E06F1ED8BEF1004F08BF5FEAEF
:1006C000500E50F1000041EB045170BD06F00046A1
:1006D00046EA010140EA020081EA0301B4EB5C044E
:1006E000C2BFD4EB0C0541EA045170BD41F4801146
:1006F0004FF0000E013C00F3AB8014F1360FDEBF6B
:10070000002001F0004170BDC4F10004203C35DA46
:100710000C341BDC04F11404C4F1200500FA05F3C9
:1007200020FA04F001FA05F240EA020001F000426A
:1007300021F0004110EBD37021FA04F642EB0601E0
:100740005EEA430E08BF20EAD37070BDC4F10C040A
:10075000C4F1200500FA04F320FA05F001FA04F2CE
:1007600040EA020001F0004110EBD37041F10001BA
:100770005EEA430E08BF20EAD37070BDC4F12005C5
:1007800000FA05F24EEA020E20FA04F301FA05F22D
:1007900043EA020321FA04F001F0004121FA04F2D5
:1007A00020EA020000EBD3705EEA430E08BF20EAA5
:1007B000D37070BD94F0000F0FD101F000464000DF
:1007C00041EB010111F4801F08BF013CF7D041EA61
:1007D000060195F0000F18BF704703F00046520065
:1007E00043EB030313F4801F08BF013DF7D043EA36
:1007F0000603704794EA0C0F0CEA135518BF95EAEC
:100800000C0F0CD050EA410618BF52EA4306D1D172
:1008100081EA030101F000414FF0000070BD50EA91
:10082000410606BF1046194652EA430619D094EA1B
:100830000C0F02D150EA013613D195EA0C0F05D105
:1008400052EA03361CBF104619460AD181EA030159
:1008500001F0004141F0FE4141F470014FF0000011
:1008600070BD41F0FE4141F4780170BD70B54FF0AC
:10087000FF0C4CF4E06C1CEA11541DBF1CEA13552C
:1008800094EA0C0F95EA0C0F00F0A7F8A4EB05040E
:1008900081EA030E52EA03354FEA013100F0888005
:1008A0004FEA03334FF0805545EA131343EA1263CE
:1008B0004FEA022245EA111545EA10654FEA002683
:1008C0000EF000419D4208BF964244F1FD0404F53C
:1008D000407402D25B084FEA3202B61A65EB030598
:1008E0005B084FEA32024FF480104FF4002CB6EB55
:1008F000020E75EB030E22BFB61A754640EA0C00D5
:100900005B084FEA3202B6EB020E75EB030E22BF14
:10091000B61A754640EA5C005B084FEA3202B6EB55
:10092000020E75EB030E22BFB61A754640EA9C0014
:100930005B084FEA3202B6EB020E75EB030E22BFE4
:10094000B61A754640EADC0055EA060E18D04FEAA2
:10095000051545EA16754FEA06164FEAC30343EA42
:1009600052734FEAC2025FEA1C1CC0D111F4801F0F
:100970000BD141EA00014FF000004FF0004CB6E708
:1009800011F4801F04BF01430020B4F1FD0C88BFA7
:10099000BCF5E06F3FF6AFAEB5EB030C04BFB6EBB2
:1009A000020C5FEA500C50F1000041EB045170BDA5
:1009B0000EF0004E4EEA113114EB5C04C2BFD4EBD2
:1009C0000C0541EA045170BD41F480114FF0000E56
:1009D000013C90E645EA060E8DE60CEA135594EAD2
:1009E0000C0F08BF95EA0C0F3FF43BAF94EA0C0FD5
:1009F0000AD150EA01347FF434AF95EA0C0F7FF44A
:100A000025AF104619462CE795EA0C0F06D152EA9D
:100A100003353FF4FDAE1046194622E750EA410681
:100A200018BF52EA43067FF4C5AE50EA41047FF492
:100A30000DAF52EA43057FF4EBAE12E74FF0FF3CF7
:100A400006E000BF4FF0010C02E000BF4FF0010CC8
:100A50004DF804CD4FEA410C7FEA6C5C4FEA430C41
:100A600018BF7FEA6C5C1BD001B050EA410C0CBF90
:100A700052EA430C91EA030F02BF90EA020F0020F2
:100A8000704710F1000F91EA030F58BF994208BF59
:100A900090422CBFD8176FEAE37040F00100704716
:100AA0004FEA410C7FEA6C5C02D150EA013C07D16D
:100AB0004FEA430C7FEA6C5CD6D152EA033CD3D0B8
:100AC0005DF8040B704700BF8446104662468C46B2
:100AD0001946634600E000BF01B5FFF7B7FF0028E5
:100AE00048BF10F1000F01BD4DF808EDFFF7F4FF0E
:100AF0000CBF012000205DF808FB00BF4DF808ED99
:100B0000FFF7EAFF34BF012000205DF808FB00BFBB
:100B10004DF808EDFFF7E0FF94BF012000205DF8DD
:100B200008FB00BF4DF808EDFFF7CEFF94BF012092
:100B300000205DF808FB00BF4DF808EDFFF7C4FF8B
:100B400034BF012000205DF808FB00BF4FEA410CD4
:100B50007FEA6C5C02D150EA013C0AD14FEA430CB7
:100B60007FEA6C5C02D152EA033C02D14FF00000F4
:100B700070474FF0010070474FEA410212F5001232
:100B800015D211D56FF47873B3EB625212D94FEAD4
:100B9000C12343F0004343EA505311F0004F23FABE
:100BA00002F018BF404270474FF00000704750EA13
:100BB000013005D111F0004008BF6FF000407047D0
:100BC0004FF00000704700BF7BB972B90029BEBF6B
:100BD00000204FF0004106E008BF00281CBF6FF066
:100BE00000414FF0FF3000F0B5B9ADF1080C6DE9F0
:100BF00004CE002909DB002B1ADB00F04DF8DDF8EC
:100C000004E0DDE9022304B07047404261EB41019A
:100C1000002B1BDB00F040F8DDF804E0DDE90223E7
:100C200004B0404261EB4101524263EB4303704721
:100C3000524263EB430300F02FF8DDF804E0DDE9F6
:100C4000022304B0404261EB41017047524263EB22
:100C5000430300F021F8DDF804E0DDE9022304B0ED
:100C6000524263EB4303704753B94AB9002908BFA6
:100C700000281CBF4FF0FF314FF0FF3000F06AB981
:100C8000ADF1080C6DE904CE00F006F8DDF804E0E3
:100C9000DDE9022304B070472DE9F047089D0C46BA
:100CA000002B4ED194468C458646B2FA82F262D928
:100CB0004AB1C2F12003914020FA03F30CFA02FC7E
:100CC000194300FA02FE4FEA1C471FFA8CF6B1FBEB
:100CD000F7F44FEA1E4307FB141143EA014304FBF8
:100CE00006F199420AD91CEB030304F1FF3080F0AE
:100CF0001281994240F20F81023C6344591A1FFA53
:100D00008EF3B1FBF7F007FB101143EA014300FB40
:100D100006F69E420AD91CEB030300F1FF3180F076
:100D2000FC809E4240F2F980634402389B1B40EAFB
:100D3000044000211DB1D3400022C5E90032BDE8C6
:100D4000F0878B4205D90DB1C5E9000100210846A5
:100D5000F5E7B3FA83F1002946D1A34202D39042CA
:100D6000C0F0F080861A64EB03030120002DE6D06A
:100D7000C5E90063E3E7002A40F09080A1EB0C0492
:100D80004FEA1C481FFA8CF70121B4FBF8F64FEA32
:100D90001E4308FB164443EA044307FB06F098424F
:100DA00008D91CEB030306F1FF3402D2984200F28B
:100DB000CD8026461C1A1FFA8EF3B4FBF8F008FB10
:100DC000104443EA044300FB07F79F4208D91CEB99
:100DD000030300F1FF3402D29F4200F2B0802046AC
:100DE000DB1B40EA0640A5E7C1F120068B4022FA52
:100DF00006F71F4320FA06FC04FA01F343EA0C034A
:100E0000F44000FA01F8380C4FEA1349B4FBF0FE45
:100E10001FFA87FC00FB1E4449EA04440EFB0CF950
:100E2000A14502FA01F20AD93C190EF1FF3A80F00D
:100E30008480A14540F28180AEF1020E3C44A4EBD7
:100E400009041FFA83F9B4FBF0F300FB134449EAE9
:100E5000044403FB0CFCA44507D93C1903F1FF3003
:100E600067D2A44565D9023B3C4443EA0E40A0FB4F
:100E70000293A4EB0C049C42CE469C4651D34ED028
:100E800055B1B8EB0E0364EB0C0404FA06F6CB4044
:100E90001E43CC40C5E90064002150E7C2F12003A5
:100EA00020FA03F10CFA02FC24FA03F394400C43F9
:100EB0004FEA1C4800FA02FE1FFA8CF7B3FBF8F069
:100EC00008FB1031230C43EA014300FB07F1994270
:100ED00008D91CEB030300F1FF362CD299422AD922
:100EE000023863445B1AA4B2B3FBF8F108FB113378
:100EF00044EA034401FB07F3A34208D91CEB0404B2
:100F000001F1FF3613D2A34211D902396444E41A25
:100F100041EA004139E70446F0E6084606E7C845DD
:100F2000AED2B9EB020E63EB070C0138A8E73146ED
:100F3000EDE7034699E73046D4E7D6467FE76344BA
:100F400002384DE70646234608460FE7023E634453
:100F500030E700BF704700BFDFF834D0002103E066
:100F60000C4B5B58435004310B480C4B42189A42CF
:100F7000F6D30B4A02E0002342F8043B094B9A42A5
:100F8000F9D30EF0CBFF31F077FF02F025FD70476B
:100F90000000032034C40708000000204C03002098
:100FA0004C03002080420120FEE7704708B500F0A6
:100FB00063FDBDE8084000F0E7BC00F05FBD70478E
:100FC00010B5042104462FF0F5FF204610BD0000A7
:100FD00038B50C4B0C4C18800C4B82201980636880
:100FE000984740F6110398420AD1094D23682C60B6
:100FF000822098472B688220DB689847002038BD04
:101000000120FCE772030020C800002070030020CC
:10101000740300204FF4A071F020FFF7D9BF000047
:10102000F7B5334D2B6804461B6982209847208012
:1010300000284AD02B680DF106025B6901A98220C5
:101040009847BDF8063040F6746293423FD9ADF838
:101050000620BDF80630D21A92B20A2A3DD90B23D7
:10106000B2FBF3F2234B1B889A4201D9013B9AB29F
:10107000BDF8043040F6B8318B4230D8C3F5716307
:101080000E339BB20F21B3FBF1F31B4909888B424E
:1010900001D901398BB2194E194D30682F6883423E
:1010A00081B28CBF591AC91AB8B2BA428CBF101A91
:1010B000801A89B280B201440529C8BF3360336801
:1010C000C8BF2A6063802B68A38003B0F0BDB32B38
:1010D0009CBFB423ADF80630BBE70022C8E7C3F5D8
:1010E0006D6308339BB20E2BCCD80023D3E700BF2F
:1010F0007403002070030020720300206C030020A2
:101100006803002037B568460D461446FFF788FF90
:10111000BDF8000030B1BDF802302B60BDF80430DE
:101120002360012003B030BD032821D8DFE800F0A0
:10113000020B12190F4B1A68B2FA82F252090421FB
:101140000D480FF095BC0B4B5A68B2FA82F2520967
:101150000821F5E7074B9A68B2FA82F2520910218A
:10116000EEE7044BDA68B2FA82F252092021E7E78F
:10117000704700BF7803002000100240032821D8E8
:10118000DFE800F0020B12190F4B1A68003A18BF83
:10119000012204210D480FF06BBC0B4B5A68003A3A
:1011A00018BF01220821F5E7074B9A68003A18BFDB
:1011B00001221021EEE7044BDA68003A18BF012241
:1011C0002021E7E7704700BF7803002000100240AD
:1011D00003280DD8DFE800F00206080A04210548BC
:1011E0000FF04BBC0821FAE71021F8E72021F6E7C1
:1011F000704700BF0010024008B5032811D8DFE88F
:1012000000F0020A0C0E042107480FF02BFC431ECD
:101210005842584108BD0821F6E71021F4E7202183
:10122000F2E70020F3E700BF0010024070B5084D60
:1012300000240126E0B2FFF7DFFF18B12B68012B75
:1012400018BF2E600134052C05F10405F2D170BDE4
:1012500078030020012380F8781080F879307047F7
:1012600000207047034B4164003918BF01211970F9
:10127000704700BF4736012000207047836B0BB1D9
:101280000846184770474FF6FF707047406803687C
:101290009B691847704770477047000010B50446B7
:1012A00000F0FAFC23680349D3F88C302046BDE8EF
:1012B00010401847000000D008B503680446D3F872
:1012C00080309847236820469B6F984700F0ECF8E1
:1012D000236820461B6F9847292002F075FC00F018
:1012E000E3F8236820461B6F9847F8E710B50446DB
:1012F00017F0DEF823682046D3F8AC30BDE8104084
:10130000184700F0ABBC00F0AFBC00F0E3BC00F04D
:1013100081BC00F0F3BC00F0FBBC00F085BC16F013
:1013200032BB10B57C2104462FF044FE204610BD90
:1013300010B590F8341090F878400C4B8C421A7825
:1013400009D03AB90A4A0B491488088810800C80E1
:1013500001221A7010BD002AFCD0054A05491488E4
:10136000088810800C800022F3E700BF403601207F
:101370003C3601203E36012070B50D46194635B980
:10138000094B0A4A0A4840F2D22130F059FDC0E91F
:101390000F52084B003A18BF01221A700368BDE8CB
:1013A0007040D3F88C301847AC4E0308E44E030865
:1013B000324F03084636012008B5094B1B888B4283
:1013C00003D8084B1B88934205D9074B074A0848A6
:1013D0009E2130F035FD074B1980074B1A8008BD60
:1013E0003C3601203E360120774F0308DA4F0308D0
:1013F000324F03084236012044360120034690F85C
:101400007A0018B1586803681B68184770470000D5
:10141000012108B50022084612F08FF80A4B186027
:1014200028B90A4B0A4A28210A4830F009FD00224F
:101430000421012012F020F9074B186018B9074B5E
:10144000034A2C21F0E708BD8C030020F850030864
:10145000415103087051030888030020C551030857
:10146000024B4FF0FF31186812F0B1B88C03002026
:10147000014B186812F0D7B88C030020024B0021F2
:10148000186812F0A4B800BF8C030020FFF7F0BF6B
:1014900003480449006800231A4612F028B900BF27
:1014A000880300200400002013B5084C00231A46CE
:1014B00001A9206812F04CF920684FF0FF33002298
:1014C00001A912F045F902B010BD00BF8803002049
:1014D00003685B6C18470120704703689B6A1847D4
:1014E00040F2EF3070470000054B0360054B4FF0B2
:1014F0008062C3F88820BFF34F8FBFF36F8F7047B0
:101500006C53030800E100E010B504464FF45A6143
:10151000FFF7EAFF20462FF04DFD204610BD0000EA
:1015200082B0002301930D4B1A6B42F400021A6340
:101530001A6B02F400020192019A1A6942F4000245
:101540001A611A6922F400021A61054B054A1A61F0
:10155000054B4FF080629A6002B07047003802403D
:10156000F0230020B917000800E100E008B50A28C0
:1015700009D8DFE800F006100E080808081010105F
:101580001000022008BD054B054A0648862130F0B0
:1015900057FC0020F6E70120F4E700BF07520308DC
:1015A000225203086D52030838B50C46887FFFF7B6
:1015B000DDFFA58AE28A164B2169586342EA05429B
:1015C0005A64628BD963521B1A642568082D0ED1A8
:1015D0009A611A615862207F0E4A42EA0062DA611B
:1015E000E2681A620C4A5961D9601A6038BD00225B
:1015F000D8611A61E1680A0A480902F4784200F4E5
:10160000FC600243C1F3C4010A439A63034AECE756
:1016100000B00240090001000102020001020300C3
:1016200008B50B280BD8DFE800F00612100A0A0AEA
:101630000A0808080808022008BD0520FCE7054B39
:10164000054A0648652130F0FBFB0020F4E7012045
:10165000F2E700BF07520308C05203086D520308A7
:101660002DE9F04191F81D800C464046FFF7D8FF68
:10167000A77F05463846FFF7D3FF06463846FFF7F3
:1016800075FFA18A628B444B521A1A649A61228BAD
:10169000521A1A61E28A586342EA01425A64216985
:1016A0006268D963DA602068802828D0227F0FD84A
:1016B000202867D0402865D004281AD0364B45EA48
:1016C000026545F40035B845DD6161D0334A44E038
:1016D000B0F5807F04D0B0F5007FEFD1304800E056
:1016E000304840EA0262DA61E2681A625E62596179
:1016F00032E045EA026242F40032DA61F6E7A068BD
:10170000021DDA62227F45EA026545F40035DD619B
:101710005E625961017841B1012921D0224B234AEF
:1017200023484FF4887130F08BFBDA69418822F44A
:101730007F42013922F0100242EA0122DA610121DE
:10174000154BDA6942F02002DA61DA699206FCD4BC
:1017500010229A600029B9D0164A1A60BDE8F081BB
:10176000B2F1FF01DA69408822F47F4200F1FF30D4
:1017700022F0100242EA002242F0100218BF0121BA
:10178000DA61DDE745EA0262034B42F40032B4E776
:1017900040F20122E1E700BF00B002400102010077
:1017A000090002000A0002000A5303082453030838
:1017B0006D52030801020200024B1B68586803685F
:1017C0005B6918474836012070B5044625460A4B28
:1017D0000C30002660602672667245F8203B60225D
:1017E000294616F0BDFF04F55A63EE6024359D428C
:1017F000FBD1204670BD00BF6C530308034B1A6831
:10180000D207FCD423229A60704700BF00B0024088
:1018100030B50F4C2568ED07FCD423250904A560DD
:1018200041F001010225FF2B65636164E0630AD08A
:101830000849656241EA0363E361074B2262606124
:10184000E060236030BDE561039BA363034BF8E7D1
:1018500000B0024009000100010002000100030085
:10186000012070470C2070470C2303FB0100083057
:1018700070470C2303FB01000830704701207047BC
:1018800040F64430704740F6443303FB0100083013
:10189000704740F6443303FB0100083070470120D5
:1018A00070471020704700EB01100830704700EBC4
:1018B000011008307047084606F0EEBF10B5034B24
:1018C0000360044614F003F8204610BD24540308B6
:1018D00010B50446FFF7F2FF204614212FF06AFBF3
:1018E000204610BD10B5034B0360044613F0EFFF14
:1018F000204610BDF053030810B50446FFF7F2FF71
:10190000204640F64C312FF055FB204610BD00001C
:1019100010B5034B0360044613F0D9FF204610BDF9
:10192000BC53030810B50446FFF7F2FF2046182108
:101930002FF040FB204610BD10B5084B0360044655
:1019400000F67830FFF7BAFF04F12C00FFF7CAFF6A
:1019500004F11400FFF7DCFF204610BD58540308C3
:1019600008B50248FFF7E8FF08BD00BF5C12002081
:1019700010B50446FFF7E0FF204641F238012FF092
:1019800019FB204610BD00002DE9F34105F0E6FBF0
:10199000054605F0E7FB002401462346284622467B
:1019A000009421F027F9274B274A1A6020460BF0B4
:1019B000DDFC264D264B274A27489A6021F082F805
:1019C0002B68BFF35B8FDB0735D428462FF0F4FA82
:1019D00088B3224C224B236004F6DC6604F1140029
:1019E00004F12C0804F678376060C4F80880E760DA
:1019F000266113F06DFF1B4B6361404613F068FFD7
:101A0000194BE362384613F063FF184BC4F8783B78
:101A100004F68C300DF044F8224604F68C31304642
:101A20000CF050FF304606F037FF114830F026FA30
:101A300028462FF0CDFA0F4802B0BDE8F041FFF77D
:101A40002DBC00BFAC3601200C0400205812002031
:101A50002C04002010040020080000205C1200204C
:101A600058540308BC530308F053030824540308D4
:101A70006119000890030020704700000148FFF73B
:101A80001BBC00BF9003002070B5244E244C254D94
:101A9000254B23603046FFF797FE284625F07CFB58
:101AA00022481EF0F9FC224B2248DC6000224FF451
:101AB0008071C3E9121220491A86C3E91A121F491C
:101AC00099671F4983F858200B60F02101801D4859
:101AD0005A6601801C4883F870204FF4A071C3E956
:101AE0000422C3E90622C3E90822C3E90A22C3E9A2
:101AF0000E22C3E91022C3E91422C3E917225A6750
:101B0000C3E9016501801148018011490A70012271
:101B100083F834200F4A1A6070BD00BFB40400205F
:101B2000541200202C0400209C4E030810040020B6
:101B3000900300203C36012001000001000001015B
:101B400048360120423601203E360120443601202D
:101B500040360120285003080148FFF7C5BC00BFEC
:101B6000B40400200020704781807047C180704716
:101B700001817047418170477047704770477047D7
:101B8000704710B4C4880368121B84885B6D091BFE
:101B900012B25DF8044B09B218474FF6FF73838108
:101BA0004FF0FF3303621368C36110607047002079
:101BB00070478B88838001207047704780F826101B
:101BC000704790F82600704710B50022B1F9084020
:101BD000B1F90A10028042808480C18010BD0022C9
:101BE000028042808280C28070470177704780ED1A
:101BF000080A704780F82410704780F82510704755
:101C000001207047983070478C307047843070479F
:101C100070470000034B902283F85A2383F858231F
:101C2000704700BF00E100E0094A0A49D3680A484A
:101C3000C3F30A03013B9BB20B801169C1F30A0194
:101C4000013901801364536B43F001035363704700
:101C5000006801409622002094220020014BD3F816
:101C6000AC00704700680140024B0122C3F8AC1081
:101C70005A627047006801407047704710B52C21C8
:101C800004462FF097F9204610BD10B5BC2104463C
:101C90002FF090F9204610BD70B5044615F0C9FE2E
:101CA00023685D6E1DF082FA01462046A84723682E
:101CB000054AD3F888502046AC460023BDE8704062
:101CC000A2F51631604700BF00B004D015F098BEF1
:101CD00015F0A2BE15F05DBE15F0BFBF90F825202F
:101CE00012B103685B691847704790F825201AB154
:101CF00090F8242002B1186070470000034B4FF0A9
:101D000080629A604FF080729A60704700E100E054
:101D1000084B4FF08062C3F88820BFF34F8FBFF3AA
:101D20006F8F4FF08072C3F88820BFF34F8FBFF3DF
:101D30006F8F704700E100E070B50023124E838082
:101D4000124B0360336893F8582005460AB1D86CEB
:101D500000B998680368DB6A98473368B0FA80F482
:101D6000D86C640930B10368DB6A9847002808BF63
:101D700044F001042CB9064B064A07482C2130F0E8
:101D80005FF8284670BD00BF48360120685503083B
:101D900064540308C2540308FB54030870B5244E6E
:101DA0003568BFF35B8F15F001053FD130462FF04A
:101DB00003F900283AD01F4C1F4B256104F1340071
:101DC000C4E90035C4E90255E584A562A5851EF085
:101DD000C2FD04F1580018F0BDF8184BA365204669
:101DE000174B40F8843BFFF7A7FF164BC4F884302D
:101DF0002433C4F88C306423C4E928350023C4F8A4
:101E0000AC30C4F8B030C4F8B430C4F8B8300E48C0
:101E10000E4BC4F89050C4F89C50C4F8A850C4F8B5
:101E2000983030F02BF830462FF0D2F8014870BDD2
:101E3000982200209C220020989A030888550308C5
:101E4000005603084C9A0308111C00082C9A03083A
:101E500010B5144C236823B3134B144A1B6C118820
:101E60008B4213D1124B19880FF068FE226892F84A
:101E70006A30013382F86A30FFF70AFB206816F0F7
:101E800017FBBDE810400020FFF74EB90FF056FEDB
:101E9000206803681B6A9847BDE810400020FFF7E0
:101EA0006DB910BD4836012000680140962200201F
:101EB000942200200F48104A104908B54FF480338F
:101EC000C0E90023816200230122022183600261B4
:101ED000037680F82030C362C360C16180F830307F
:101EE00042610EF069F818B1BDE8084001F0DABEB1
:101EF00008BD00BF58230020002001400100000F52
:101F000030B5002387B0CDE904330546052201230F
:101F1000144802A9CDE902230EF074FA08B101F0C9
:101F2000C1FE10480EF0EEF84FF47A710D480EF035
:101F300082F90C480EF0D2F904460A480EF060F916
:101F4000272C0BD96423009340F6FF720123002154
:101F5000204602F0A9FB286007B030BD40F2F51022
:101F6000F9E700BF5823002030B5002387B0CDE942
:101F70000433054607220123174802A9CDE90223AD
:101F80000EF040FA08B101F08DFE13480EF0BAF8D9
:101F90004FF47A7110480EF04EF90F480EF09EF98A
:101FA00004460D480EF02CF99F2C0FD9B4F57A7F1A
:101FB0000ED84FF47A7300934FF4FA721423A021D1
:101FC000204602F071FB286107B030BDA024F0E785
:101FD00040F25920F7E700BF5823002048B1836C36
:101FE0003BB1C36C2BB1006DB0FA80F040094042A8
:101FF00070474FF0FF30704773B502460846FFF751
:10200000EDFF0C460546A8B9D343C978C3F3C01306
:10201000B1EB031F4FEA03120CD0E270A66C60789C
:1020200001230DF10702F321B04784F8540020B1D9
:102030006FF00105284602B070BD9DF80730E278C8
:10204000E66C607802F0100223F0100313438DF861
:1020500007300DF1070201237321B04784F85400C3
:102060000028E7D0E4E737B50446FFF7B7FF70B9BB
:10207000A56C607801230DF10702F321A84784F8CD
:10208000540030B99DF8073003F01003E37003B03B
:1020900030BD6FF00100FAE703788B4281BF017019
:1020A00092F8463043F0020382F846300020704731
:1020B0002DE9F843064618461D46FFF78FFF884670
:1020C00091460446A8B9AB783BB929463046FFF79C
:1020D00093FF044608B946F08006AF6C68784B461B
:1020E00042463146B847002885F8540018BF6FF0C3
:1020F00001042046BDE8F8832DE9F0438BB01D466E
:1021000006460F4614460021242201A8009130F013
:102110009EFD2846FFF762FF78BB631E122B2FD867
:10212000013EE9468046AA7816F8013F32B91846C2
:102130002946FFF761FF337803F07F0389F8003009
:1021400017F8083089F8013008F101081FFA88F300
:10215000A34209F10209E6D378B96400013CEE6CB0
:102160009DF800106878A3B20DF10102B047002875
:1021700085F8540018BF6FF001000BB0BDE8F08384
:102180006FF00300F9E737B5E0238DF80630B6238A
:1021900005468DF80730FFF721FF044670B9AB788C
:1021A0007BB12B4601220DF107010DF10600FFF76F
:1021B000A3FF2B6D04460A2098474CB1204603B07C
:1021C00030BD2846FFF74FFF04460028F6D1E8E768
:1021D000AB78002BF2D1284603B0BDE83040FFF7C2
:1021E00042BF30B58DB00546FFF7F8FE0446002823
:1021F00040F0A5802846FFF7C6FF0446002840F0BF
:102200009E802B4601222946D020FFF751FF04462D
:10221000002840F094802B78612B40F0938001904F
:102220000146252202A830F012FD28468DF8034011
:10223000FFF7D4FE0446002840F081802B46192287
:1022400001A98920FFF734FF044638B92B46102234
:102250000DF11D01E120FFF72BFF0446BDF82530ED
:10226000EB82BDF805302B839DF80730AB76BDF8C7
:102270000930AB83BDF80B30EB839DF80D3085F84A
:102280002030BDF80F306B84BDF81130AB849DF861
:10229000143085F826309DF8133085F82730BDF8C6
:1022A00017302B85BDF819306B859DF81B3085F8EC
:1022B0002C309DF81E309DF81F1003F00F0242EAEB
:1022C00001122A819DF81D201B0943EA02136B812C
:1022D000089BEB609DF824302B749DF829306B74BB
:1022E000BDF827306B829DF82A302B7514BB2B4626
:1022F00001220DF103010220FFF7DAFE9DF8033001
:10230000C3F3011385F83430044698B92B460122F3
:102310000DF10301FFF7CCFE9DF8033085F8353051
:10232000044638B92B4601220DF103010420FFF7C2
:10233000BFFE04469DF903301B1185F83630204658
:102340000DB030BD6FF00204F9E737B574230446D1
:102350008DF80730FFF742FEA0BB05462346012259
:102360000DF106017420FFF7A3FEA0B99DF8063019
:1023700013F0030511D023F003038DF8063001227A
:1023800023460DF106010DF10700FFF7B5FE236DA1
:102390000A209847E2E7002DE0D194F844208AB162
:1023A0009DF8063002F0030223F0030313438DF877
:1023B000063038B9234601220DF106010DF1070060
:1023C000FFF79AFE03B030BDF0B589B00023064692
:1023D00008460C468DF807300493ADF81430069388
:1023E000ADF81C30FFF7FAFD002840F0FC8016F035
:1023F000080391F8447005D181F844302046FFF776
:10240000A4FF07E0012FADF80C0000F0EE8081F88A
:102410004400012016F010051ED02246072104F1C9
:102420003B00FFF739FE28B9234601226944752095
:10243000FFF73EFE94F83B309DF807209B0022F00A
:102440001C0203F01C03134375228DF807308DF82E
:1024500010208DF818300125B30622D52246082118
:1024600004F13D00FFF718FE30B9234601220DF1BB
:1024700007017020FFF71CFE9DF8073094F83D20FF
:1024800023F0080302F00802134305F120026A4416
:10249000702101358DF8073002F8101C02F8083C55
:1024A000EDB2B10733D02246052104F13900FFF720
:1024B000F3FD30B9234601220DF107017420FFF727
:1024C000F7FDF20709D59DF8073094F8392003F09D
:1024D0001F0343EA42138DF80730B3070BD594F876
:1024E0003A309DF807209B0003F01C0322F01C02E9
:1024F00013438DF8073005F120036B44742203F871
:10250000102C01359DF8072003F8082CEDB2710757
:1025100022D52246052104F13800FFF7BDFD30B970
:10252000234601220DF107017220FFF7C1FD9DF83E
:10253000073094F8382023F0070302F00702134312
:1025400005F120026A44722101358DF8073002F846
:10255000101C02F8083CEDB216F0C00F3AD022462B
:10256000012104F13E00FFF797FD60B90A2104F153
:102570003C00FFF791FD30B9234601220DF1070120
:102580007120FFF795FD72060BD594F83E309DF84B
:1025900007201B0103F0100322F0100213438DF8F3
:1025A000073033060AD59DF8073094F83C2023F015
:1025B0000F0302F00F0213438DF8073005F12003DB
:1025C0006B44712203F8102C01359DF8072003F8A5
:1025D000082CEDB228B923462A4606A904A8FFF71D
:1025E0008BFD84F8447009B0F0BDB1F84020B1F91A
:1025F0001230B2F5C87F03F5163303F2991328BFE2
:102600004FF4C8725A431423B2FBF3F20A2302F5C3
:102610004812B2FBF3F291F9113003F544735A43B7
:1026200091F9043091F9141013FB01F34FF47A710E
:1026300093FBF1F31B0203EB620394F834200432A2
:10264000B3FBF2F394F9352083214A4302F580323B
:10265000B3FBF2F32222FA3B53433233642293FB5F
:10266000F2F38DF80C3046F25A43ADF80830B4F866
:102670004230B3F57C6F1AD23F2B00F1010213D820
:1026800003EB8013DBB200258DF80D3084F83C504D
:102690002346022203A902A8FFF72EFD84F8445026
:1026A00000287FF4B7AEA9E69B081046E4E7FF23B5
:1026B000E9E7000013B5184B024618689B88ADF88F
:1026C000043091F83930009008336B4440F2AB7419
:1026D00013F8080C91F83A3008336B4413F8083CAF
:1026E000034491F838000830684410F8080C184486
:1026F00041F2B92304FB00334FF47A70B3FBF0F3DB
:1027000001339BB2138091F83E0018B1B1F842102A
:102710000B44138002B010BDC04D03082DE9F04FEB
:102720000746A7B00846FFF759FC0C4606460028A6
:1027300040F07981CDE9020004904FF00A08CDF80D
:102740001300002E40F0768123460F2202A91D209F
:10275000FFF7AEFC9DF811109DF81650009106464B
:102760009DF808009DF81510019100F00F0305F089
:10277000300120F07F0001437B7039709DF80930F3
:10278000BB7009069DF80AE09DF80B909DF80C308F
:102790009DF80DA09DF80EB09DF80F209DF810C07B
:1027A00040F14581E08A120942EA0B1242EA0A32FC
:1027B0004000C0EBD2004FEAE078420842EAC8721B
:1027C00094F91AA002FB08F8A2FB021202EB4802DD
:1027D000090B41EA02514FEA0A184FEAEA7A12134A
:1027E00001FB0AFA08FB02AAB4F91820A1FB088130
:1027F00082FB00205144D20A4FEA983848EA8148C7
:1028000042EA4052424402EB82012263803152107C
:102810000912A2F57A42B9804FEAA20894F926007B
:1028200008FB08F84FEAE82A00FB0AFAB4F924008A
:102830005043400000EBAA00B4F91EA01B0902FBA4
:102840000AFA94F9202043EA09134FEA683843EA68
:102850000E335201B4F922E008FB02F24FEA0E4EA9
:10286000D2100EEBA00002EB6A02C3F58013B4F89D
:102870001C80B4F92AE0A3EB2033921440F63540D3
:10288000434302F50042B3F1804F08FB02F2B8BFA8
:102890005B004FEAE232A6BF93FBF2F35B0093FBCF
:1028A000F2F3DA105243B4F9288052130EFB02F20D
:1028B0004FEAA30E08FB0EFE18124FEA6E3E0EEB17
:1028C000223200FB00FE00FB0EF094F82CE00EFB21
:1028D00000F002EB604294F9270002EBC01203EB18
:1028E0002213BB6094F90E3094F90D0064224B431F
:1028F00093FBF2F34B4348439B1190FBF2F093FBA5
:10290000F2F30344608903F580434343009840EAAF
:102910000C20B4F808C0A0EB0C1094F90CC09B126A
:1029200001FB0CFC9CFBF2FCA0EB6C00434394F914
:102930001000DFF81CC1414391FBF2F2E17B02EB96
:10294000C1129913494312118912514303EB6103D8
:102950004FF47A729B1253431B133C4A23EAE373EE
:102960009342D4BFFB60FA60BCE80F000DF1180E73
:1029700094F93680AEE80F00BCE80F00AEE80F0017
:10298000BCE80F00AEE80F009CE80F000CF1100C43
:102990008EE80F00BCE80F000DF1580EAEE80F00F6
:1029A000BCE80F00AEE80F00BCE80F00AEE80F0077
:1029B0009CE80F008EE80F00052340F23C500022F7
:1029C000C3FB080205F00F0C26AB03EB8C0C5CF884
:1029D000801CA0FB010301FB02330199AA0942EA12
:1029E0008102000CD2035CF8405C40EA034012F123
:1029F0007F4261EB010112184FEA234E41EB234362
:102A0000A5FB000105FB0E11400A550840EAC15024
:102A100045EAC3754FEA630C40194CEB6121FEF7A0
:102A2000D3F8386176B1304627B0BDE8F08F236D1A
:102A30000A20984708F1FF3818F0FF087FF481AEAC
:102A40000226F0E7012384F84530ECE7A086010078
:102A5000C84D0308C92383617047652383617047AC
:102A600040F259238361704740F2911383617047AC
:102A700040F22D138361704740F2F5138361704774
:102A80001B78322B104609D0332B0DD0312B11D1AE
:102A9000094B01221A80094B5B6804E0064B0222B5
:102AA0001A80064B9B681847034B03221A80034B7E
:102AB000DB68F8E7024BEFE7BC230020780000203A
:102AC0001C000020D0ED017AFDEEE77A0B4617EEF0
:102AD000902A0249184630F057B800BF4456030800
:102AE000D0ED027AFDEEE77A0B4617EE902A024906
:102AF000184630F049B800BF61560308D0ED057A9A
:102B0000FDEEE77A0B4617EE902A0249184630F0A0
:102B10003BB800BF7F5603080B46C2680149184600
:102B200030F032B8935603080B4602680149184644
:102B300030F02AB8A85603080B4602690149184626
:102B400030F022B8C156030807B50246084653695B
:102B50000093D2E90323034930F016F803B05DF87F
:102B600004FB00BFDA56030807B50246084613689F
:102B70000093D2E90132034930F006F803B05DF862
:102B800004FB00BFEE56030810B58AB004461D4989
:102B9000684630F098F96846FDF77AFB4FF47A738F
:102BA00082B26946204610F0EAF91749684630F0CB
:102BB0008AF96846FDF76CFB4FF47A7382B2694676
:102BC000204610F0DCF91149684630F07CF968467F
:102BD000FDF75EFB4FF47A7382B26946204610F02F
:102BE000CEF90B49684630F06EF96846FDF750FBA8
:102BF0004FF47A7382B26946204610F0C0F90AB0E9
:102C000010BD00BF02570308105703081F570308E1
:102C10003257030810B58AB004464749684630F079
:102C200052F96846FDF734FB4FF47A7382B2694675
:102C3000204610F0A4F94149684630F044F968464E
:102C4000FDF726FB4FF47A7382B26946204610F0F6
:102C500096F93B49684630F036F96846FDF718FBAF
:102C60004FF47A7382B26946204610F088F93549EC
:102C7000684630F028F96846FDF70AFB4FF47A738E
:102C800082B26946204610F07AF92F49684630F042
:102C90001AF96846FDF7FCFA4FF47A7382B2694676
:102CA000204610F06CF92949684630F00CF9684666
:102CB000FDF7EEFA4FF47A7382B26946204610F0BF
:102CC0005EF92349684630F0FEF86846FDF7E0FA01
:102CD0004FF47A7382B26946204610F050F91D49CC
:102CE000684630F0F0F86846FDF7D2FA4FF47A7390
:102CF00082B26946204610F042F91749684630F022
:102D0000E2F86846FDF7C4FA4FF47A7382B2694676
:102D1000204610F034F91149684630F0D4F868467E
:102D2000FDF7B6FA4FF47A7382B26946204610F086
:102D300026F90AB010BD00BF4357030858570308CF
:102D40006657030874570308815703089057030810
:102D50009E570308AF570308C0570308CF5703080F
:102D600010B58EB004463949684630F0ACF8684674
:102D7000FDF78EFA4FF47A7382B26946204610F05E
:102D8000FEF83349684630F09EF86846FDF780FA51
:102D90004FF47A7382B26946204610F0F0F82D495C
:102DA000684630F090F86846FDF772FA4FF47A738F
:102DB00082B26946204610F0E2F82749684630F0B2
:102DC00082F86846FDF764FA4FF47A7382B2694676
:102DD000204610F0D4F82149684630F074F868466F
:102DE000FDF756FA4FF47A7382B26946204610F026
:102DF000C6F81B49684630F066F86846FDF748FAA1
:102E00004FF47A7382B26946204610F0B8F815493B
:102E1000684630F058F86846FDF73AFA4FF47A738E
:102E200082B26946204610F0AAF80F49684630F091
:102E30004AF86846FDF72CFA4FF47A7382B2694675
:102E4000204610F09CF80EB010BD00BFD957030803
:102E5000E95703080858030826580308415803088F
:102E60006158030881580308A058030810B58AB0B8
:102E700004463949684630F026F86846FDF708FAF6
:102E80004FF47A7382B26946204610F078F83349DD
:102E9000684630F018F86846FDF7FAF94FF47A738F
:102EA00082B26946204610F06AF82D49684630F033
:102EB0000AF86846FDF7ECF94FF47A7382B2694676
:102EC000204610F05CF8274968462FF0FCFF684662
:102ED000FDF7DEF94FF47A7382B26946204610F0AE
:102EE0004EF8214968462FF0EEFF6846FDF7D0F90D
:102EF0004FF47A7382B26946204610F040F81B49BD
:102F000068462FF0E0FF6846FDF7C2F94FF47A7388
:102F100082B26946204610F032F8154968462FF013
:102F2000D2FF6846FDF7B4F94FF47A7382B269466E
:102F3000204610F024F80F4968462FF0C4FF684679
:102F4000FDF7A6F94FF47A7382B26946204610F075
:102F500016F80AB010BD00BFAA580308B8580308F5
:102F6000D4580308F1580308085903081F590308E7
:102F70003B590308A058030810B590B0084904460F
:102F800001A82FF0A0FF01A8FDF782F94FF47A7392
:102F900082B201A920460FF0F2FF10B010BD00BFB1
:102FA0005959030810B590B00849044601A82FF0FC
:102FB0008AFF01A8FDF76CF94FF47A7382B201A978
:102FC00020460FF0DCFF10B010BD00BF945903087D
:102FD00010B590B004460C4901A82FF074FF01A869
:102FE000FDF756F901A982B24FF47A7320460FF02B
:102FF000C6FF064BB3F90020054B204653F822309C
:10300000984710B010BD00BFD0590308BC23002062
:103010007800002030B51B78313B91B0084614464B
:10302000062B34D8DFE803F004181B1E21242700E8
:10303000184B1B6801A9984701A8FDF729F94FF41F
:103040007A7382B201A920460FF099FF002101A8EE
:1030500001F036FB11B030BD0E4B5B68EAE70D4B5B
:103060009B68E7E70B4BDB68E4E70A4B1B69E1E78A
:10307000084B5B69DEE7084B00251D80074B1B688A
:1030800020469847002101A801F01AFBD4E7044B21
:103090005B68F5E728000020BC23002078000020B2
:1030A0001C00002030B51B78313B91B01446082B32
:1030B00054D8DFE803F005191C32373C41464B0079
:1030C000284B9B6901A9984701A8FDF7E1F84FF447
:1030D0007A7382B201A920460FF051FF002101A8A6
:1030E00001F0EEFA11B030BD1E4BDB69EAE71E4B72
:1030F0001E4908221A8001A82FF0E5FE01A8FDF75D
:10310000C7F84FF47A7382B201A920460FF037FF57
:10311000002101A801F0D4FAD6E7134B1449092283
:103120001A80E8E7104B13490A221A80E3E70E4B96
:1031300011490B221A80DEE70B4B10490C221A8032
:10314000D9E7094B0E490D221A80D4E70D4B002513
:103150001D800D4B1B6820469847D9E70B4B5B68D9
:10316000F9E700BF28000020C6230020F359030818
:10317000035A0308155A0308265A03083A5A030843
:103180004E5A0308BC230020780000201C000020B9
:1031900030B51B78313B91B01446062B36D8DFE8AA
:1031A00003F0041E2124272A2D001A4B9B6B9847FD
:1031B000194901A82FF087FE01A8FDF769F84FF41F
:1031C0007A7382B201A920460FF0D9FE002101A82E
:1031D00001F076FA114B01221A8011B030BD0D4B6F
:1031E000DB6BE4E70B4B1B6CE1E70A4B5B6CDEE748
:1031F000084B9B6CDBE7074BDB6CD8E7084B0025E3
:103200001D80084B1B6820469847DFE7064B5B682C
:10321000F9E700BF28000020F0590308C42300206C
:10322000BC230020780000201C000020014B9B687C
:10323000184700BF1C000020034610464A1E1D2AE6
:1032400001D9FFF7F3BFD9607047034610464A1E05
:103250000B2A01D9FFF7EABF1961704703461046F0
:103260004A1EB2F5FF6F01D3FFF7E0BF5961704707
:10327000034610464A1E3A2A01D9FFF7D7BF196004
:103280007047034610464A1E3A2A01D9FFF7CEBFBF
:103290005960704717290346104601D9FFF7C6BF8A
:1032A000996070472DE9F0411D46B3F90030172BA6
:1032B00007460E46144607DD364B08461B689847FE
:1032C0002946204601F0FCF9B5F90030E25C0D2AF0
:1032D0005CD1DFF8E880204601F000FAB8F9003050
:1032E00073B320462EF0D0FD2B4BB8F900201860A8
:1032F0002A4B014653F8223029483246984700238A
:10330000A8F80030274B2849012220461A802FF0C8
:10331000DAFD2046FCF7BCFF4FF47A7382B22146F7
:1033200030460FF02CFE2946204601F0C9F9B5F9C8
:103330000010304621440122BDE8F04110F037B8BA
:10334000B5F90080B8F1000F14DD18494246204657
:103350002FF085FC40B9164BB3F90020154B53F8FC
:10336000223030469847DEE7B8F1010F02D0094B12
:103370005B68F6E70E4B0A48B3F900200E4B39465E
:1033800053F8228023463246C047CCE701332B80D6
:10339000CDE700BF1C000020C02300202800002033
:1033A000A0230020C4230020F0590308605A03081A
:1033B000BC230020780000200C000020C623002041
:1033C00010B594B0102200210AA82FF040FC14225E
:1033D000002103A82FF03BFC214B002101911A6C26
:1033E00042F080521A641B6C03F080530193019BDE
:1033F0001C4B02911A6842F440421A601B6803F4A5
:1034000040430293029B01214FF480330224CDE913
:1034100008134FF480030820CDE90E434FF4A8733E
:10342000CDE91003042308A8129413930EF0A4FB13
:1034300008B100F037FC0F23CDE9033400224FF42C
:10344000A053CDE9052305214FF4805303A807932A
:103450000EF06EFD08B100F025FC14B010BD00BFE9
:103460000038024000700040054808B5054B036075
:103470000DF0B8F818B1BDE8084000F013BC08BD65
:10348000E8230020003002400D480E4A08B5002312
:10349000C0E900230222C0E90223C0E90A32C0E9E0
:1034A0000C330DF0FFF808B100F0FCFB04480121DB
:1034B0000DF0B0F918B1BDE8084000F0F3BB08BD4D
:1034C000F023002000B002402DE9F74301264FF021
:1034D00000080827C1E90067C1E902684FF6FF72DA
:1034E0000C460546CDF804800EF046FF30460CF041
:1034F0004FFD0223C4E900372146C4E902684FF6B4
:10350000FF7228460EF038FF4FF004090323C4E988
:1035100000372146C4E902984FF6FF7228460EF0A4
:103520002BFF4FF40C730193019BA6602146C4E965
:103530000097E3604FF6FF7228460EF01DFF40F241
:103540006A51284603B0BDE8F0430EF033BF0000D7
:103550001848194A00B50123C0E900234FF0100CA8
:1035600040220023C0E904C24FF4C0720421C0E924
:1035700006234FF40062C0E90231C0E908234FF48A
:1035800000538DB0072283620223CDE90712CDE9F3
:10359000053205A90322CDE909230B930EF0CCFED9
:1035A00008B100F07FFB034801A9FFF78DFF0DB0C4
:1035B0005DF804FB30240020400100A02DE9F0411B
:1035C0008EB01422002109A82FF041FB0024434BA8
:1035D00001941A6B424FDFF81081424E42F0100204
:1035E0001A631A6B02F010020192019A02941A6B8C
:1035F00042F020021A631A6B02F020020292029A31
:1036000003941A6B42F080021A631A6B02F0800274
:103610000392039A04941A6B42F004021A631A6B21
:1036200002F004020492049A05941A6B42F001021B
:103630001A631A6B02F001020592059A06941A6B3E
:1036400042F002021A631A6B02F002020692069A14
:1036500007941A6B42F040021A631A6B02F04002A0
:103660000792079A08941A6B42F008021A631B6BC0
:1036700003F008030893224638463C21089B0DF0CE
:10368000F7F92246404604210DF0F2F92246304671
:103690004FF440510DF0ECF901253C23CDE90935FB
:1036A00009A9032338460C9302270B940DF0F6F872
:1036B000042309A94046CDE909350B940C970DF078
:1036C000EDF84FF4405309A93046CDE90935CDE96D
:1036D0000B470DF0E3F80EB0BDE8F0810038024072
:1036E00000100240000C02400008024008B51248D9
:1036F000124A134BC0E9002300234FF48042C0E973
:103700000233C0E90423C0E9063303620DF0BEFBB7
:1037100008B100F0C7FA084810210EF053F808B1BC
:1037200000F0C0FA044800210EF06BF818B1BDE8B3
:10373000084000F0B7BA08BD64240020005C0040D7
:10374000A086010070B5104E86B004460D46306864
:103750008DF81720322110F0A3FE0128034611D165
:103760000A4A1268CDE901020DF1170200922146C2
:103770002A4607480DF086FE002330681A4619468F
:1037800010F090FC06B070BD642500208800002079
:1037900064240020F0B5124E87B004460D46306810
:1037A000002732218DF8177010F07AFE01280346A9
:1037B00011D10C4A1268CDE901020DF117020092F5
:1037C00021462A4608480DF0EDFE30683B463A4651
:1037D000394610F067FC9DF8170007B0F0BD00BF38
:1037E0006425002088000020642400202DE9FF418A
:1037F000124F04460D46386832219846164610F09E
:103800004FFE0128034616D10D4A0E481268009655
:103810002146CDE901822A460DF0C4FE002304466C
:103820001A463868194610F03DFC201E18BF0120CA
:1038300004B0BDE8F0810020FAE700BF6425002055
:10384000880000206424002010B58EB034220021AE
:1038500001A82FF0FCF92848284B0024C0E90034C7
:103860004FF0090C0123C0E905C34FF01D0E0323DF
:10387000C0E907E340F20D1240F24313C0E9092307
:1038800040F2171140F24713C0E90244C0E90B139C
:103890000461848680F836400EF058F808B100F0D4
:1038A00001FA4FF4A0730221CDE90431FF21F02287
:1038B0004FF48060CDE906140521CDE90801CDE97A
:1038C0000224CDE90A420C480194002201A90C937C
:1038D000ADF834408DF836400EF003F908B100F031
:1038E000E1F9074C074B23601B6898472368DB68A6
:1038F00098470EB010BD00BFBC24002000680140F6
:10390000B8240020900000207FB518491848194CB1
:10391000194D002200F0FCFD18491948012200F061
:10392000F7FD6846FEF7ECFA6846FEF71DFB6846B1
:1039300000F022FE206810F0BDFE012805D1002312
:1039400020681A46694610F0ADFB286810F0B2FEF8
:10395000012805D1002328681A46694610F0A2FB09
:103960004FF4FA700FF0DDFDDBE700BF32260020D8
:10397000B42600206C250020682500203026002079
:103980005C2600207FB5104C1049B4F90030104877
:10399000104D012219440FF00AFD286810F08AFE2C
:1039A000024618B92868694610F0DCFC00224FF086
:1039B000FF330121104611F0A5FC044A04492346B7
:1039C0006846FFF76FFCE8E7C8230020CA23002001
:1039D0000C270020682500202DE9874803220021BC
:1039E000012010F0F8FADFF86081DFF860A1C8F874
:1039F000000000231A461946182410F053FB0CF05F
:103A00009BFAFFF7DDFCFFF7D9FDFFF72DFDFFF770
:103A10006DFE00F049F9FFF79BFDFFF715FFFFF77B
:103A200033FDFEF747FA00F023FEFDF7BFFAFDF77E
:103A3000BCFA3749009400234FF400523548CDF8C2
:103A400004A011F05DF8DFF808B1334B3349CBF82F
:103A50000000CDE90043802200233148DFF8F490D4
:103A6000304E314F314D11F04BF80023CDE9004677
:103A70002F49C9F8000080222E4811F041F8214654
:103A800038600022012010F0A6FA214628600022AA
:103A9000012010F0A0FADBF80030274C012B206049
:103AA00003D0DAF8000011F059F8D9F80030012BF2
:103AB00003D0194B186811F051F83B68012B02D064
:103AC000306811F04BF8D8F800302BB91B480122B0
:103AD0004FF480410CF0CCFF2B682BB91748012222
:103AE0004FF480410CF0C4FF23682BB91348012226
:103AF0004FF480410CF0BCFF1149286810F0F0FD34
:103B00001049286810F0ECFD11F080F8FEE700BFC6
:103B1000655A0308BB0F000880250020735A03086C
:103B2000093900087C250020702500206C25002024
:103B3000835A0308853900086825002000180240D0
:103B40009A5A0308A45A03086425002084250020FB
:103B5000782500207425002070477047FFF7F2BDDC
:103B6000FFF718BE08B5FFF741FE08BD0CF010BA0C
:103B700010B5064C0022204604210CF079FF2046A7
:103B80000122BDE8104004210CF072BF0008024081
:103B900038B50B4D044601220A484FF400510CF091
:103BA00067FF0022042128460CF062FF204600F047
:103BB000ADF828460122BDE8384004210CF058BF7A
:103BC00000080240000C024038B50B4D04460022AC
:103BD0000A484FF400510CF04BFF00220421284604
:103BE0000CF046FF204600F091F828460122BDE87F
:103BF000384004210CF03CBF00080240000C024099
:103C0000F8B5114E114F05460C46304600220421EE
:103C10000CF02EFF00224FF4005138460CF028FF24
:103C2000284600F073F8204600F060F801220446B0
:103C30004FF4005138460CF01BFF3046012204219E
:103C40000CF016FF2046F8BD00080240000C0240B0
:103C50000CF09EB907B50023094800931A4619468F
:103C6000006811F099FB074B0748B3F900100144B5
:103C700006486423012203B05DF804EB0FF07FB91E
:103C80007C250020C8230020CA2300200C27002008
:103C90000268034B9A4201D10CF068B9704700BF2B
:103CA00000100040704700000E480F4A08B54FF45E
:103CB0008273C0E900230023C0E90233C0E9043362
:103CC000C0E908334FF40071182283620A23C0E967
:103CD0000612C3620EF04CFC18B1BDE80840FFF7B5
:103CE000E1BF08BD882500200050014007B5054B05
:103CF00002461B68044801A90EF041FE019803B07A
:103D00005DF804FB8C0000208825002007B5064BD9
:103D1000ADF806001B68054801220DF106010EF002
:103D200083FC03B05DF804FB8C0000208825002094
:103D300082B00E4B00220092596C41F480415964CC
:103D4000596C01F48041009100990192196C41F085
:103D5000805119641B6C03F080530193019B0F2168
:103D60006FF0010002B00CF0FDBB00BF0038024054
:103D700010B5044688B01422002103A82EF067FF76
:103D80002268164B9A4226D103F58C330024019405
:103D90005A6C134842F480725A645A6C02F480726E
:103DA0000192019A02941A6B42F001021A631B6B92
:103DB00003F001030293A022029B03A90323CDE990
:103DC00003230CF06BFD1220224605210CF0CAFBE8
:103DD00012200CF0F9FB08B010BD00BF002001401C
:103DE000000002400268094B9A4282B00BD10023C6
:103DF0000193074B1A6B42F480521A631B6B03F456
:103E000080530193019B02B0704700BF0030024015
:103E10000038024007B50F4B02689A4216D10022C3
:103E2000A3F5F0430192196B41F4000119631B6B78
:103E300003F40003019305215A20019B0CF092FB2F
:103E40005A2003B05DF804EB0CF0BEBB03B05DF884
:103E500004FB00BF00B002402DE9F043044689B0E6
:103E60001422002103A82EF0F2FE2268244B9A426D
:103E700043D1244C244800250095236B43F00403D0
:103E80002363236B03F004030093009B0195236BD2
:103E900043F001032363236B03F001030193019BB0
:103EA0004FF012094FF400734FF001080327042666
:103EB00003A9CDE90339CDE9058707960CF0EEFC9F
:103EC0004FF480731148079603A9CDE90339CDE972
:103ED00005870CF0E3FC0295236C43F40003236494
:103EE000236C03F400030293029B236A43F4000350
:103EF0002362236A23F40003236209B0BDE8F08340
:103F0000005C00400038024000080240000002400F
:103F1000F0B599B004461422002107A82EF097FEB0
:103F200030220DEB020000212EF091FE22685E4B44
:103F30009A4240F0B78008230C93C02310930423C7
:103F400012930CA84FF4003315930EF0C9F808B182
:103F5000FFF7A8FE554B5648002400945A6C42F0D7
:103F600080625A645A6C02F080620092009A019456
:103F70001A6B42F020021A631A6B02F020020192BF
:103F8000019A02941A6B42F001021A631A6B02F052
:103F900001020292029A03941A6B42F002021A631F
:103FA0001A6B02F002020392039A04941A6B42F015
:103FB00040021A631A6B02F040020492049A0594BC
:103FC0001A6B42F004021A631A6B02F004020592A3
:103FD000059A06941A6B42F008021A631B6B03F0F1
:103FE0000803069302250E26069B0B964FF480636A
:103FF00007A9CDE90735CDE909450CF04FFC41F69D
:1040000058032C480B9607A9CDE907350927CDE9B8
:1040100009450CF043FC032327480B9707A9CDE97A
:104020000735CDE909450CF039FC4FF4706322489F
:104030000B9607A9CDE90735CDE909450CF02EFC13
:104040004FF40C631D480B9607A9CDE90735CDE960
:1040500009450CF023FCC02319480B9607A9CDE9AC
:104060000735CDE909450CF019FC082315480B96D6
:1040700007A9CDE90735CDE909450CF00FFC4FF450
:10408000A0530E480B9707A9CDE90735CDE909459F
:104090000CF004FC5820224605210CF063FA58204D
:1040A0000CF092FA19B0F0BD0068014000380240EF
:1040B00000140240000002400004024000180240C8
:1040C00000080240000C024010B5044688B01422DB
:1040D000002103A82EF0BBFD2268144B9A4223D185
:1040E00003F56843002101915A6C114842F4801293
:1040F0005A645A6C02F480120192019A02911A6B6E
:1041000042F020021A631B6B03F020030293029B10
:104110004FF4607202230321CDE903230523CDE987
:10412000061303A90CF0BAFB08B010BD0050014003
:104130000014024010B5044688B01422002103A8E0
:104140002EF085FD2268184B9A422BD103F594334B
:10415000002401945A6C154842F010025A645A6CBB
:1041600002F010020192019A02941A6B42F00102CD
:104170001A631B6B03F0010302934FF4C062029BAE
:104180000223CDE9032303210723CDE9061303A965
:104190000CF084FB2520224605210CF0E3F92520B4
:1041A0000CF012FA08B010BD0010014000000240EF
:1041B0002DE9F04186B0002303932B4B1C68002CA3
:1041C0004FD14FF00108C3F80080284B00949A6B40
:1041D000274842EA08029A639B6B03EA08030093AC
:1041E000022703260C25009B01A94FF63F03CDE9CA
:1041F0000137CDE904650CF051FB1E48059501A976
:10420000CDE90187CDE903460CF048FB48F23313B2
:104210001948059501A9CDE90137CDE903460CF010
:104220003DFB4FF683731548059501A9CDE901378C
:10423000CDE903460CF032FB4CF2037310480595B0
:1042400001A9CDE90137CDE903460CF027FB602336
:104250000C48059501A9CDE90137CDE903460CF0DD
:104260001DFB06B0BDE8F081E025002000380240CB
:1042700000140240000802400018024000100240F2
:10428000000C02400004024070B588B00023029385
:10429000204B1A6C42F010021A641B6C03F01003DE
:1042A0000293054601A903A8029B0DF0FBFE069BA5
:1042B0004BBB0DF0D7FE184E184B336040F2E7337E
:1042C000F360174BB0FBF3F3013B73603046002300
:1042D0003361B360B3610EF037FD044680B93046F8
:1042E0000EF0F4FB044658B936200CF06DF90F2D92
:1042F0000DD82246294636200CF034F9094B1D60B2
:10430000204608B070BD0DF0ADFE4000D3E701249B
:10431000F6E700BF00380240E4250020001000400E
:1043200040420F00F80000207047FEE7FEE7FEE77E
:10433000FEE7704701480BF0D7BF00BF58230020AD
:1043400001480EF0D1BE00BF0C27002001480EF03E
:10435000FBBB00BFE425002001480DF065BB00BF9A
:10436000BC24002001480CF0CBB900BFF023002092
:104370000120704708B52EF079FD162303604FF039
:10438000FF3008BD08B52EF071FD16230360FEE76F
:1043900070B50D4614460E46731B9C4201DC204648
:1043A00070BDAFF3008006F8010BF5E770B50D4660
:1043B00014460E46731B9C4201DC204670BD16F865
:1043C000010BAFF30080F5E74FF0FF3070474FF47B
:1043D00000534B6000207047012070470020704759
:1043E0000A4A116808B5034609B9094911601068FD
:1043F000694603448B4206D92EF038FD0C23036036
:104400004FF0FF3008BD1360FCE700BF2C260020F2
:10441000804201202DE9F0431B4E85B004468DF803
:104420000F10306832211F46154610F039F8012868
:10443000034626D14FEA44094FF032081348CDF81D
:1044400000800DF10F0249460CF0C8FDB0B90F48CD
:10445000CDF800803B462A4649F001010CF098FE59
:10446000041E18BF01246442002330681A4619460E
:104470000FF018FE204605B0BDE8F0834FF0FF3482
:10448000F2E70024F6E700BF642500206424002042
:104490002DE9F041044682B003F108000D46C00842
:1044A000114603F101081A466B46A3EBC00302AFA5
:1044B0009D460DF109008DF80850124D2EF00BFDB0
:1044C000286832210FF0ECFF012802AE17D14FF01F
:1044D000FF336100009332461FFA88F30A480CF05C
:1044E0007DFD0023041E18BF012428681A461946C2
:1044F00064420FF0D7FD2046BD46BDE8F0810024A0
:10450000F9E700BF64250020642400200BF040BDC3
:10451000002AF8B514BF762377234370134B8364C6
:10452000134BC364134B0365012719230371877071
:1045300004460E46FDF755FE40F20243238703234F
:10454000054684F83A3084F8447021460720FDF788
:104550003BFF18B92046FDF7F8FE08B14FF0FF35D4
:1045600030462146FEF7A6F82846F8BD1544000857
:10457000914400080D450008F8B5324F324D334ED6
:10458000044638880BF004FD29463046FEF7C6F88D
:10459000002842D1B6F90430DFED2D6A9FED2D6A77
:1045A00007EE903AF8EEE77A87EEA67AD6ED037A30
:1045B00084ED017AF8EE677A87EE867A84ED057AE3
:1045C00096ED027AB8EE477AC7EE267AFDEEE77AE4
:1045D000C4ED037A95F84430012B02D12846FDF74B
:1045E000B4FE1D4D1D4E29463046FEF797F808BB18
:1045F000B6F90430DFED166A07EE903AF8EEE77A86
:1046000087EEA67A84ED027A95F84430012B18D112
:104610002846BDE8F840FDF798BE002239462846F6
:10462000FFF776FF0E4B63600E4B636140F2911310
:10463000E360D6E70C4901222846FFF769FF0B4BE0
:10464000A360F8BD32260020B426002048260020B2
:104650000000C84200007A445C2600203426002076
:104660000000CA42008096433026002000004943E3
:104670000B480C4A08B54FF4E133C0E9002300238E
:104680000C22C0E90233C0E905230361C3610EF0C7
:1046900047FC18B1BDE80840FFF704BB08BD00BFE8
:1046A0000C2700200010014030B5039C521AE51A77
:1046B000441A05FB0444013294FBF2F4E01830BDC7
:1046C00038B500250D800446FBF7E2FD2946024679
:1046D0002046BDE838402EF0BABA000070B50A4E48
:1046E000044605462046FBF7D3FD2B1B984200D815
:1046F00070BD2B78F25C02F00302012A08BF203360
:1047000005F8013BEEE700BFE9AB030870477047CF
:10471000704770477047704770477047704730B4B4
:10472000C26844685510034604EB6200D20748BFD4
:1047300062599B6830BC48BFD3581847034640684D
:1047400030B19A681AB9D86800F0010070470120AA
:10475000704710B5082104462CF02CFC204610BDF3
:1047600010B5102104462CF025FC204610BD10B5D4
:104770004FF4627104462CF01DFC204610BD38B584
:1047800000F1C403994204460D4603D11AF00EFD10
:1047900004F092F804F5CE739D4203D11AF006FDA1
:1047A00004F0AAF904F5F2739D4203D11AF0FEFC5D
:1047B00004F092F904F50B739D4203D11AF0F6FC54
:1047C00004F07AF904F51D739D4203D11AF0EEFC52
:1047D00004F042F904F52F739D4203D11AF0E6FC70
:1047E00004F04AF904F54174A54205D11AF0DEFC43
:1047F000BDE8384004F050B938BD70B503680446D0
:104800001B6B154698472368294620465B6BBDE81D
:104810007040184770B504461D46BDF91060FFF79B
:10482000ECFF2368294620469B6B98472368314656
:104830002046DB6BBDE8704018470000094A026063
:104840004FF4807100228184FF21C0E90122C0E978
:104850000322C0E90522C0E9072280F826108262FF
:10486000704700BFC0A00308F8B5194B018F1B8823
:104870008B4206462AD9174B1B682BB9164B174A91
:1048800017486C212DF0DCFA13F81120154B1B682A
:1048900053F82250144B186808F0A4FD2B68074603
:1048A0009B6B284698472B6804469B6C39462846E4
:1048B00098472B6814FB00F45B6A394628469847F2
:1048C000A4B223181BB2A6F84630F8BD0023FAE7BD
:1048D000A4360120A0360120AD5A0308EF5A030880
:1048E0002A5B0308A8360120AC3601204FF4807102
:1048F00081840D4901600D4981624FF6FF71818508
:104900004FF47F01002241634FF0FF31C0E90122E3
:10491000C0E90322C0E90522C0E90722C0E910125C
:1049200002630287C263704730A003087C5B030800
:104930002DE9F04F044695B0274600261CF090FB69
:10494000D64BE66347F8403B3846FFF777FF04F164
:104950006C03184604F1980904F1C4080A93FFF7A0
:104960006DFF4846FFF76AFF04F5867A404618F067
:10497000B7F85046FFF7BAFF04F5AA731846039339
:10498000FFF7B4FF04F5CE731846049318F0A8F8A7
:1049900004F5F2731846059318F0A2F804F50B73AA
:1049A0001846069318F09CF804F51D7318460793F3
:1049B00018F096F804F52F731846089318F090F83D
:1049C00004F541731846099318F08AF804F55373F7
:1049D00018460B93FFF732FFB14BC4E9DE34B14BFD
:1049E000C4E9E0364FF4A073251D4FF07F4B3246EB
:1049F00000933146F0233846FFF70CFF394628462E
:104A0000C4F868B012F02DF84FF4A07332460A983B
:104A100000933146F023FFF7FDFEA34B0A99C4F83B
:104A20009430284612F01DF8342332460093314664
:104A30004846F023FFF7EEFE9C4BC4F8C03011232C
:104A400084F8BE304946284612F00BF8404607224B
:104A5000C521FFF7D2FE022312AA11A9ADF84430F6
:104A600040460323ADF8483017F00DFD4D234FF0BD
:104A7000FF3704F55E79A4F8FC304046FFF7F4FEFA
:104A800041462846C4E94077C4F8EC9011F0E9FFAC
:104A90000D2250461B21FFF7B0FE0DF13008844B6C
:104AA000C4F83C3151464046A4F8406117F01EF866
:104AB00098E8070004F5A47C8CE807007D4B12936E
:104AC0004C2212A95046ADF84C2017F0A9FA5146D5
:104AD000284611F0C6FF039849222621FFF78DFED4
:104AE000734B0399C4F884314046A4F8886116F0EA
:104AF000FDFF98E8070004F5C87383E807006D4BD5
:104B00000398129312A94B23ADF84C3017F088FA92
:104B10000399284611F0A5FF04987C220721FFF78E
:104B20006CFE4FF007084FF0080A12AA11A904986A
:104B3000ADF84480ADF848A017F0A5FC4A23A4F8CE
:104B4000D4310498FFF790FE0499C4F8C491284624
:104B5000C4E976B711F085FF05987C228521FFF71F
:104B60004CFE12AA11A90598ADF84480ADF848A0F2
:104B700017F089FC4923A4F81C320598FFF774FE4E
:104B80000599C4F80C922846C4E988B711F069FF6A
:104B900006984146B222FFF730FE12AA11A90698E4
:104BA000ADF84480ADF848A017F06DFC4823A4F898
:104BB00064320698FFF758FE0699C4F854922846C6
:104BC000C4E99AB711F04DFF0798B2228521FFF78B
:104BD00014FE12AA11A90798ADF84480ADF848A0B8
:104BE00017F051FC4723A4F8AC320798FFF73CFEBE
:104BF0000799C4F89C922846C4E9ACB711F031FF7C
:104C000008984146E722FFF7F8FD12AA11A9089873
:104C1000ADF84480ADF848A017F035FC4623A4F861
:104C2000F4320898FFF720FE0899C4F8E492284669
:104C3000C4E9BEB711F015FF0998E7228521FFF7F7
:104C4000DCFD12AA11A90998ADF84480ADF848A07E
:104C500017F019FC4523A4F83C330998FFF704FE2C
:104C60000999C4F82C932846C4E9D0B711F0F9FE8D
:104C70004FF4A0730B9800933246F0233146FFF7B0
:104C8000C9FD28460B99C4F874B384F8726311F017
:104C9000E8FE204615B0BDE8F08F00BFA45B030816
:104CA0008C5B03087F4700082B2B2BFFFF5938FF35
:104CB000999999FF7C5B030870477047704730B43F
:104CC000C26844685510034604EB6200D20748BF2F
:104CD00062599B6830BC48BFD358184703464068A8
:104CE00030B19A681AB9D86800F001007047012005
:104CF000704710B5102104462CF05CF9204610BD19
:104D000010B54FF4D67104462CF054F9204610BD6E
:104D1000E030884208B505D11AF048FABDE80840ED
:104D200003F0CABD08BD00002DE9F04F04468DB068
:104D3000A24600251CF094F9624BE5634AF8403B1B
:104D400004F16C0B504604F19809FFF777FD5846C3
:104D5000FFF774FD04F1E0084846FFF7C7FD04F5CE
:104D60009477404617F0BCFE3846FFF7BFFD04F5C8
:104D7000B87318460393FFF761FD534BC4E96734DA
:104D8000524BC4E969354FF4A0732A460093294673
:104D90005046F023FFF73EFD261D4FF07F43A366EC
:104DA0005146304611F05DFE4FF4A0732A46009341
:104DB00029465846F023FFF72DFD454BC4F89430A3
:104DC0005946304611F04DFE0F2248461421FFF798
:104DD00014FD0DF1100A3F4BC4F8C8304946504647
:104DE000A4F8CC5016F082FE9AE8070004F1D40330
:104DF00083E80700DFF8E0B0CDF828B0BA230AA9AD
:104E00004846ADF82C3017F00BF94946304611F002
:104E100028FE40460722C521FFF7EFFC02230AAA1D
:104E200009A9ADF8243040460323ADF8283017F027
:104E30002AFBB923A4F818314046FFF715FD4FF0BF
:104E4000FF3904F5CE73C4F8083141463046C4E951
:104E5000479911F006FE4B2238461821FFF7CDFC8A
:104E600039465046C4F85891A4F85C5116F03EFEFD
:104E70009AE8070004F5B27383E80700B8230AA98B
:104E80003846ADF82C30CDF828B017F0C9F83946BF
:104E9000304611F0E6FD4FF4A073039800932A46C4
:104EA0002946F023FFF7B6FC4FF07F4330460399C5
:104EB000C4F8983184F8965111F0D3FD20460DB016
:104EC000BDE8F08FF05B0308D85B0308114D0008C4
:104ED0002B2B2BFF808080FF7C5B030830B50368A1
:104EE000018185B06D460146D3F8843004462846DA
:104EF000984795E807003C3484E8070005B030BDCA
:104F000030B50368418185B06D460146D3F88430E1
:104F100004462846984795E807003C3484E8070093
:104F200005B030BD0022028042808280C28070477E
:104F300080F83610704770B5036804461B6B154641
:104F400098472368294620465B6EBDE870401847A5
:104F500000207047806C70477047704770477047FB
:104F60007047704730B4C26844685510034604EB7C
:104F70006200D20748BF62599B6830BC48BFD35813
:104F800018470346406830B19A681AB9D86800F0EB
:104F9000010070470120704710B54C2104462CF0E9
:104FA00009F8204610BD10B5102104462CF002F877
:104FB000204610BD10B54FF4547104462BF0FAFF93
:104FC000204610BD08B5FCF789FE08BD036870B522
:104FD0005E6B124B1B6804468DB22BB9104B114A05
:104FE0006C2111482CF02CFF1049828D09889142C8
:104FF00003D80F4B0B4A6D21F3E713F812200D4B2A
:105000001B6853F8220003681B6B9847291A334624
:10501000204609B2BDE87040184700BFA036012005
:10502000AD5A0308EF5A03082A5B0308A43601208F
:105030001C5C0308A836012000F1F003994270B50A
:1050400004460D4603D11AF0B1F803F035FC04F51F
:1050500004739D4203D123682046DB6A984704F518
:1050600013739D4205D1236820461B6BBDE8704039
:10507000184770BD00224FF0FF31C0E90021826067
:10508000704700002DE9F04F044695B0A04600257A
:105090001BF0E6FFD54BE56348F8403B04F16C0B91
:1050A0004046FFF7CBFB04F1980A5846FFF7C6FBD2
:1050B00004F1C4095046FFF7C1FB04F1F00748466C
:1050C000FFF7BCFB384617F00BFD04F59C73184640
:1050D0000393FFF70BFC04F5C07318460493FFF726
:1050E00005FC04F5E47318460593FFF7FFFB04F590
:1050F00004731846069317F095FB04F513731846CE
:10510000079317F08FFB04F5227318460893FFF7F7
:1051100095FB04F52D7318460293FFF7E7FBB44B9C
:10512000C4F8B43204F540731846C4F8FC5209932D
:10513000FFF784FBAF4BC4E9D034AF4BC4E9D235A1
:105140004FF4A0732A46404600932946F023261DBB
:10515000FFF760FB4FF07F434146A366304611F0F6
:1051600080FC4FF4A0732A46584600932946F0234A
:10517000FFF750FBA14BC4F894305946304611F06C
:1051800070FC2023DFF898B200934FF49272F12361
:1051900050464FF011084FF0FF31FFF73BFB5146EF
:1051A000C4F8C0B084F8BE80304611F05AFC3423F5
:1051B0002A46484600932946F023FFF72BFB494631
:1051C000C4F8ECB084F8EA80304611F04AFC384666
:1051D0000722C521FFF711FB022312AA11A93846A5
:1051E000ADF844300323ADF8483017F04CF9722382
:1051F000A4F82831384604F5507B4FF0FF39FFF70B
:1052000033FB39463046C4E94B99C4F818B111F064
:1052100028FC0D220398DFF80CA21B210AAFFFF730
:10522000ECFA774B0399C4F868313846A4F86C510E
:1052300016F05CFC97E8070004F5BA7383E80700F2
:1052400073230398ADF84C3012A9CDF848A016F09E
:10525000E7FE0399304611F004FC412204981D2119
:10526000FFF7CBFA674B0499C4F8B0313846A4F87D
:10527000B45116F03BFC97E8070004F5DE7383E8B1
:10528000070071230498ADF84C3012A9CDF848A05E
:1052900016F0C6FE0499304611F0E3FBD4220598BF
:1052A0001021FFF7AAFA38460599C4F8F891A4F836
:1052B000FC5116F01BFC97E8070004F5017383E826
:1052C000070070230598ADF84C3012A9CDF848A01E
:1052D00016F0A6FE0599304611F0C3FB069864222D
:1052E0007F21FFF78AFA4FF0040211A80346ADF8B8
:1052F0003C2010A812AA4FF00501009202460FA808
:105300004FF00E08ADF8401001460698ADF8448005
:10531000ADF8488017F0F1F94FF005100699C4F880
:105320004802C4F838B2304611F09BFB079864225B
:105330002F21FFF762FA4FF00402ADF83C2012AAC9
:105340004FF005011023009211AA0798ADF8401004
:10535000ADF844300FA9134610AAADF8488017F0F5
:10536000CCF94FF005120799C4F884223046C4F8EE
:1053700074B211F076FB1923B222089800934321EE
:105380005A23FFF747FA1F4BC4F8B032089930464A
:1053900011F067FBB32202986121FFF72EFA4FF05C
:1053A0007F43C4F8E432D4F8B4320299D3F884309D
:1053B000A4F8E8523846984797E8070004F53C738C
:1053C00083E80700104B1B6804F54B772BB90F4B94
:1053D0000F4A60210F482CF033FD0F4B1B886E2BBA
:1053E00022D80E4B0A4A6121F4E700BF585D03083A
:1053F000B05C0308405D0308395000082B2B2BFFDD
:10540000999999FFFFF700FFA0360120AD5A0308D4
:105410005A5C03082A5B0308A43601201C5C0308BD
:10542000FF5938FF7C5B0308194B6E21186807F0A1
:10543000D9FF184A03460A2138461DF035FB029869
:10544000C4F8FC7216F0CCFD6F230298ADF84C3016
:1054500012A9CDF848A016F0E3FD0299304611F0EC
:1054600000FB4FF4A073099800932A464946F023A5
:10547000FFF7D0F94FF07F4330460999C4F828333D
:1054800084F8265311F0EDFA204615B0BDE8F08FF0
:10549000AC360120A55C0308704708B5062915D86D
:1054A000DFE801F00C04080C100C100008F060FAA2
:1054B000406808BD08F05CFA8068FAE708F058FA1E
:1054C0000068F6E708F054FAC068F2E70020F0E759
:1054D00010B5042104462BF06DFD204610BD704729
:1054E0007047704730B4C26844685510034604EBF7
:1054F0006200D20748BF62599B6830BC48BFD3588E
:1055000018470346406830B19A681AB9D86800F065
:10551000010070470120704710B5102104462BF0A0
:1055200049FD204610BD10B54FF4577104462BF0CD
:1055300041FD204610BDC430884208B505D119F0A0
:1055400035FEBDE8084003F067BA08BD2DE9F04F0D
:10555000044691B0A04600251BF082FD7C4BE5631C
:1055600048F8403B04F16C0A4046FFF767F904F144
:105570009809504604F1C407FFF760F9484604F55E
:105580008676FFF75BF9384617F0AAFA3046FFF740
:10559000ADF904F5AA731846DFF8E4B10293FFF7FA
:1055A000A5F904F5D073C4F854B11846C4F89C5159
:1055B0000393FFF79BF904F5F673C4F8A0B11846FE
:1055C000C4F8E8510493FFF791F904F50E73C4F899
:1055D000ECB11846C4F834520593FFF787F904F587
:1055E000207318460693FFF781F904F532731846C5
:1055F0000793FFF77BF9574BC4E9D334564BC4E903
:10560000D5354FF4A0732A46404600932946F0232F
:10561000FFF700F904F1040B4FF07F434146A36606
:10562000584611F01EFA4FF4A0732A4600932946FB
:10563000F0235046FFF7EEF8484BC4F8943051463B
:10564000584611F00EFA34232A464846009329465C
:10565000F023FFF7DFF8424BC4F8C0304FF01103DE
:1056600084F8BE304946584611F0FBF93846072207
:10567000C521FFF7C2F802230EAA0DA93846ADF8DE
:1056800034300323ADF8383016F0FDFE19233846C8
:10569000A4F8FC30FFF7E8F84FF0FF33C4E94033DB
:1056A00004F55373C4F8EC303946584611F0D9F973
:1056B0000D2230461B21FFF7A0F808AF294BC4F894
:1056C0003C3131463846A4F8405116F00FFA97E8BD
:1056D000070004F5A47383E80700DFF8A880CDF87D
:1056E0003880182330460EA9ADF83C3016F098FCEF
:1056F0003146584611F0B5F9592202981A4E6A21DE
:10570000FFF77BF84FF07F43C4F88431D4F854316D
:105710000299D3F88430A4F888513846984797E81E
:10572000070004F5C87383E80700336804F544797B
:105730002BB90E4B0E4A60210E482CF081FB0E4B0C
:105740001B88162B20D80D4B094A6121F4E700BFB6
:10575000C05D0308A85D0308375500082B2B2BFFFD
:10576000FF5938FF999999FFA0360120AD5A0308D7
:105770005A5C03082A5B0308A43601201C5C03085A
:10578000B05C03087C5B0308DFF810A21621DAF88E
:10579000000007F027FE7E4A03460A2148461DF016
:1057A00083F90298C4F89C9116F01AFC172302980A
:1057B000ADF83C300EA9CDF8388016F031FC0299D6
:1057C000584611F04EF9AC2203986A21FFF715F8FC
:1057D0004FF07F43C4F8D031D4F8A0310399D3F807
:1057E0008430A4F8D4513846984797E8070004F568
:1057F000EE7383E80700336804F54979002B98D0ED
:10580000644B1B88142B9ED91421DAF8000007F092
:10581000E9FD5F4A03460A2148461DF045F9039811
:10582000C4F8E89116F0DCFB15230398ADF83C3082
:105830000EA9CDF8388016F0F3FB0399584611F005
:1058400010F90498FB226A21FEF7D7FFD4F8EC3157
:105850000499D3F88430A4F820524FF07F42C4F862
:105860001C223846984797E8070004F50A7383E836
:105870000700336804F54E79002B3FF45AAF454BCF
:105880001B88122B7FF65FAFDAF80000424E122120
:1058900007F0A8FD3E4A03460A2148461DF004F9D8
:1058A0000498C4F8349216F09BFB13230498ADF8C7
:1058B0003C300EA9CDF8388016F0B2FB049958465A
:1058C00011F0CFF8059841222221FEF796FF0599A5
:1058D000C4F868623846A4F86C5216F007F997E8E5
:1058E000070004F51D7383E807004FF011030598C6
:1058F000ADF83C300EA9CDF8388016F091FB059933
:10590000584611F0AEF8069894221F21FEF775FF55
:105910000699C4F8B0623846A4F8B45216F0E6F816
:1059200097E8070004F52F7383E807001023069813
:10593000ADF83C300EA9CDF8388016F071FB069911
:10594000584611F08EF80798E3221421FEF755FF10
:105950000799C4F8F8623846A4F8FC5216F0C6F865
:1059600097E8070004F5417383E807000F230798C1
:10597000ADF83C300EA9CDF8388016F051FB5846F2
:10598000079911F06EF8204611B0BDE8F08F00BF06
:10599000A55C0308A4360120F7FF00FFAC36012008
:1059A00070477047704730B4C2684468551003466A
:1059B00004EB6200D20748BF62599B6830BC48BF05
:1059C000D35818470346406830B19A681AB9D86866
:1059D00000F0010070470120704710B51021044607
:1059E0002BF0E8FA204610BD10B54FF4577104466D
:1059F0002BF0E0FA204610BDC430884208B505D12E
:105A000019F0D4FBBDE8084003F006B808BD00005B
:105A10002DE9F04F044691B0A04600251BF020FB75
:105A20007B4BE56348F8403B04F16C0A4046FEF7C7
:105A300005FF04F19809504604F1C407FEF7FEFE85
:105A4000484604F58676FEF7F9FE384617F048F822
:105A50003046FEF74BFF04F5AA731846DFF8E0B1B5
:105A60000293FEF743FF04F5D073C4F854B118460F
:105A7000C4F89C510393FEF739FF04F5F673C4F89C
:105A8000A0B11846C4F8E8510493FEF72FFF04F5BF
:105A90000E73C4F8ECB11846C4F834520593FEF7FF
:105AA00025FF04F5207318460693FEF71FFF04F543
:105AB000327318460793FEF719FF564BC4E9D334E7
:105AC000554BC4E9D5354FF4A0732A4640460093A0
:105AD0002946F023FEF79EFE04F1040B4FF07F43AE
