:020000040800F2
:10000000000003202D0600088D2000088F20000826
:1000100091200008932000089520000800000000AF
:10002000000000000000000000000000118800082F
:100030009720000800000000A18800083581000812
:100040007D0600087D0600087D0600087D06000884
:100050007D0600087D0600087D0600087D06000874
:100060007D0600087D0600087D0600087D06000864
:100070007D0600087D0600087D0600087D06000854
:100080007D0600087D0600087D0600087D06000844
:100090007D0600087D0600087D0600087D06000834
:1000A0007D0600087D0600087D0600087D06000824
:1000B0007D0600087D0600087D0600087D06000814
:1000C0007D0600087D0600087D0600087D06000804
:1000D0007D0600087D0600087D0600087D060008F4
:1000E0007D0600087D0600087D0600087D060008E4
:1000F0007D0600087D0600087D0600087D060008D4
:100100007D0600087D0600087D0600087D060008C3
:100110007D0600087D060008992000087D0600087D
:100120007D0600087D0600087D0600087D060008A3
:100130007D0600087D0600087D0600087D06000893
:100140007D0600087D0600087D0600087D06000883
:100150007D0600087D0600087D0600087D06000873
:100160007D0600087D0600087D0600087D06000863
:100170007D0600087D0600087D06000800000000DE
:100180007D0600087D0600087D0600087D06000843
:100190007D0600087D0600087D0600087D06000833
:0C01A000A52000087D060008B120000822
:1001B00010B5054C237833B9044B13B10448AFF3A1
:1001C00000800123237010BD6401002000000000A6
:1001D000806F020808B5034B1BB103490348AFF316
:1001E000008008BD0000000068010020806F020848
:1001F00001F0FF01102A2BDB10F0070F08D010F8D8
:10020000013B013A8B422DD010F0070F42B3F6D1DB
:10021000F0B441EA012141EA014122F007047FF0F4
:1002200000070023F0E80256083C85EA010586EA4B
:10023000010685FA47F5A3FA87F586FA47F6A5FA87
:1002400087F68EB9EED1F0BC01F0FF0102F0070293
:1002500032B110F8013B013A83EA010313B1F8D13E
:100260000020704701387047002D06BF354603381F
:10027000073815F0010F07D1013015F4807F02BF58
:10028000013015F4C03F0130F0BC0138704700BFA9
:100290007BB972B90029BEBF00204FF0004106E0D3
:1002A00008BF00281CBF6FF000414FF0FF3000F086
:1002B000BBB9ADF1080C6DE904CE002909DB002BB8
:1002C0001ADB00F04DF8DDF804E0DDE9022304B0AC
:1002D0007047404261EB4101002B1BDB00F040F80E
:1002E000DDF804E0DDE9022304B0404261EB4101A6
:1002F000524263EB43037047524263EB430300F007
:100300002FF8DDF804E0DDE9022304B0404261EBA0
:1003100041017047524263EB430300F021F8DDF8DE
:1003200004E0DDE9022304B0524263EB430370476B
:1003300053B94AB9002908BF00281CBF4FF0FF314C
:100340004FF0FF3000F070B9ADF1080C6DE904CE4C
:1003500000F006F8DDF804E0DDE9022304B07047A0
:100360002DE9F047089E0D4604460F46002B4AD162
:100370008A42944665D9B2FA82F343B102FA03FC89
:10038000C3F120029F4020FA02F217439C404FEA3B
:100390001C4E1FFA8CF5B7FBFEF1220C0EFB1177F9
:1003A00042EA074201FB05F090420AD91CEB020227
:1003B00001F1FF3780F01C81904240F2198102392F
:1003C0006244121AA4B2B2FBFEF00EFB102244EA01
:1003D000024400FB05F5A5420AD91CEB040400F118
:1003E000FF3280F00781A54240F204816444023864
:1003F00040EA0140641B00211EB1DC400023C6E935
:100400000043BDE8F0878B4208D9002E00F0ED8054
:100410000021C6E900050846BDE8F087B3FA83F17C
:10042000002949D1AB4202D3824200F2F880841AFB
:1004300065EB030201201746002EE2D0C6E9004713
:10044000DFE702B9FFDEB2FA82F3002B40F09080C2
:100450008A1A4FEA1C471FFA8CFE0121B2FBF7F5FE
:1004600007FB1520220C42EA00420EFB05F09042E9
:1004700008D91CEB020205F1FF3802D2904200F2CB
:10048000CB804546121AA4B2B2FBF7F007FB10224C
:1004900044EA02440EFB00FEA64508D91CEB040406
:1004A00000F1FF3202D2A64500F2BB801046A4EB59
:1004B0000E0440EA05409FE7C1F120078B4022FA75
:1004C00007FC4CEA030C05FA01F420FA07F3FD409F
:1004D0004FEA1C492343B5FBF9F81FFA8CFE09FBD0
:1004E00018551C0C44EA054408FB0EF5A54202FA17
:1004F00001F200FA01F00BD91CEB040408F1FF3AF9
:1005000080F08880A54240F28580A8F1020864440A
:10051000641B9DB2B4FBF9F309FB134445EA0444A0
:1005200003FB0EFEA64508D91CEB040403F1FF35BE
:100530006CD2A6456AD9023B644443EA0843A3FB54
:100540000295A4EB0E04AC42C846AE4656D353D037
:1005500056B1B0EB080264EB0E0404FA07F7CA4088
:10056000CC401743C6E9007418460021BDE8F08767
:10057000C3F1200102FA03FC20FA01F225FA01F18D
:100580009D402A434FEA1C471FFA8CFEB1FBF7F04F
:1005900007FB1015110C41EA054100FB0EF58D42D9
:1005A00004FA03F408D91CEB010100F1FF382FD243
:1005B0008D422DD902386144491B92B2B1FBF7F547
:1005C00007FB151142EA014205FB0EF1914208D9E1
:1005D0001CEB020205F1FF3816D2914214D9023DFC
:1005E0006244521A45EA004138E73146304608E78E
:1005F0003946E6E61046FBE64845A9D2B9EB0208C3
:1006000065EB0C0E013BA3E74546EAE72B4694E772
:100610004046D1E7D0467BE7023D624432E70846D8
:100620000AE76444023842E7704700BFDFF834D07D
:10063000002103E00C4B5B58435004310B480C4B3A
:1006400042189A42F6D30B4A02E0002342F8043BD8
:10065000094B9A42F9D305F00DFB25F015FF00F088
:10066000FDFF704700000320C4F7150800000020BC
:100670006401002064010020D8490120FEE7704792
:1006800008B500F069FDBDE8084000F0EBBC00F0E3
:1006900065BD704710B50421044624F001FD2046D5
:1006A00010BD000038B50C4B0C4C18800C4B822050
:1006B00019806368984740F6110398420AD1094DA2
:1006C00023682C60822098472B688220DB6898473B
:1006D000002038BD0120FCE7800100204C000020F4
:1006E00082010020840100204FF4A071F020FFF768
:1006F000D9BF0000F7B5334D2B6804461B69822033
:10070000984780B2208000284AD02B680DF106025D
:100710005B6901A982209847BDF8063040F67462F3
:1007200093423FD9ADF80620BDF80630D21A92B2F6
:100730000A2A3DD90B23B2FBF3F2234B1B889A42C2
:1007400001D9013B9AB2BDF8043040F6B8318B4272
:1007500030D8C3F571630E339BB20F21B3FBF1F3B5
:100760001A4909888B4201D901398BB2184E194DAB
:1007700030682F68834281B28CBF591AC91AB8B247
:10078000BA428CBF101A801A89B280B2014405297E
:10079000C8BF33603368C8BF2A6063802B68A380FA
:1007A00003B0F0BDB32B9CBFB423ADF80630BBE75C
:1007B0000022C8E7C3F56D6308339BB20E2BCCD87B
:1007C0000023D3E784010020820100208001002063
:1007D000880100208C01002037B568460D4614467C
:1007E000FFF788FFBDF8000030B1BDF802302B6084
:1007F000BDF804302360012003B030BD032821D8A8
:10080000DFE800F0020B12190F4B1A68B2FA82F2FD
:10081000520904210D4805F0C5BC0B4B5A68B2FAC9
:1008200082F252090821F5E7074B9A68B2FA82F280
:1008300052091021EEE7044BDA68B2FA82F252094B
:100840002021E7E7704700BF900100200010024020
:10085000032821D8DFE800F0020B12190F4B1A68A9
:10086000003A18BF012204210D4805F09BBC0B4B38
:100870005A68003A18BF01220821F5E7074B9A6829
:10088000003A18BF01221021EEE7044BDA68003A63
:1008900018BF01222021E7E7704700BF9001002028
:1008A0000010024003280DD8DFE800F00206080A15
:1008B0000421054805F07BBC0821FAE71021F8E780
:1008C0002021F6E7704700BF0010024008B503285A
:1008D00011D8DFE800F0020A0C0E0421074805F0E9
:1008E0005BFC431E5842584108BD0821F6E7102121
:1008F000F4E72021F2E70020F3E700BF00100240F8
:1009000070B5084D00240126E0B2FFF7DFFF18B1F3
:100910002B68012B18BF2E600134052C05F104054E
:10092000F2D170BD90010020012380F8781080F88A
:100930007930704700207047034B4164003918BF7D
:1009400001211970704700BF9F3D012000207047B2
:10095000836B0BB10846184770474FF6FF7070471E
:10096000406803689B6918477047704770470000EC
:1009700010B5044600F008FD23680349D3F88C3015
:100980002046BDE810401847000000D008B50368B5
:100990000446D3F880309847236820469B6F9847D9
:1009A00000F0ECF8236820461B6F9847292001F0DF
:1009B0008DF800F0E3F8236820461B6F9847F8E7AE
:1009C00010B504460CF024FD23682046D3F8AC3063
:1009D000BDE81040184700F0B9BC00F0BDBC00F005
:1009E000F1BC00F08FBC00F00DBD00F0F7BC00F0D2
:1009F00093BC0BF078BF10B57C21044624F050FB6B
:100A0000204610BD90F87A301BB1406803681B681F
:100A1000184718467047000010B590F8341090F849
:100A200078400C4B8C421A7809D03AB90A4A0B49E3
:100A30001488088810800C8001221A7010BD002ACA
:100A4000FCD0054A05491488088810800C800022D3
:100A5000F3E700BF983D0120943D0120963D012021
:100A600070B50D46194635B9094B0A4A0A4840F295
:100A7000D22125F05BFAC0E90F52084B003A18BFAB
:100A800001221A700368BDE87040D3F88C30184713
:100A9000F06F020828700208767002089E3D01205F
:100AA00008B5094B1B888B4203D8084B1B8893421F
:100AB00005D9074B074A08489E2125F037FA074B0E
:100AC0001980074B1A8008BD943D0120963D0120F6
:100AD000BB7002081E710208767002089A3D012060
:100AE0009C3D0120012108B50022084607F0AFFB1C
:100AF0000A4B186028B90A4B0A4A28210A4825F0EF
:100B000015FA00220421012007F03EFC074B186073
:100B100018B9074B034A2C21F0E708BDA4010020B7
:100B20003C72020885720208B4720208A00100201B
:100B300001730208024B4FF0FF31186807F0D1BB78
:100B4000A4010020014B186807F0F6BBA4010020A7
:100B5000024B0021186807F0C4BB00BFA4010020AD
:100B6000FFF7F0BF03480449006800231A4607F066
:100B700046BC00BFA00100200400002013B5084CB3
:100B800000231A4601A9206807F069FC20684FF08D
:100B9000FF33002201A907F062FC02B010BD00BFC4
:100BA000A001002003685B6C1847012070470368B0
:100BB0009B6A184740F2EF3070470000054B036016
:100BC000054B4FF08062C3F88820BFF34F8FBFF30F
:100BD0006F8F7047A074020800E100E010B5044672
:100BE0004FF45A61FFF7EAFF204624F059FA2046F5
:100BF00010BD000082B0002301930D4B1A6B42F42C
:100C000000021A631A6B02F400020192019A1A6937
:100C100042F400021A611A6922F400021A61054BBB
:100C2000054A1A61054B4FF080629A6002B0704726
:100C300000380240402D0020410C000800E100E097
:100C4000024B1B68586803685B691847A03D012088
:100C500070B5044625460A4B0C30002660602672AB
:100C6000667245F8203B602229460CF029FD04F508
:100C70005A63EE602435AB42FBD1204670BD00BF05
:100C8000A074020808B50B290BD8DFE801F01206A2
:100C9000100A0A0A0A0808080808012008BD0520E9
:100CA000FCE7054B054A0648652125F03FF9002081
:100CB000F4E70220F2E700BF437302085E73020804
:100CC000A873020808B50A2909D8DFE801F0100660
:100CD0000E080808080606060600012008BD054B98
:100CE000054A0648862125F021F90020F6E7022072
:100CF000F4E700BF43730208F3730208A873020805
:100D00002DE9F84391F81D800C4641460746FFF750
:100D1000B9FF94F81E90054649463846FFF7B2FFE2
:100D2000494606463846FFF7CDFFA18A628B434B02
:100D3000521A1A649A61228B521A1A61E28A586313
:100D400042EA01425A6420696268D863DA6027681F
:100D5000802F28D0227F0FD8202F65D0402F63D03E
:100D6000042F1AD0354B45EA026545F40035C845D5
:100D7000DD615FD0324A44E0B7F5807F04D0B7F53B
:100D8000007FEFD12F4900E02F4941EA0262DA618A
:100D9000E2681A625E62586132E045EA026242F439
:100DA0000032DA61F6E7A7683A1DDA62217F3A7805
:100DB00045EA016545F40035DD615E62586142B186
:100DC000012A21D0214B224A22484FF4887125F074
:100DD000ADF8DA69798822F47F42013922F01002F5
:100DE00042EA0122DA610121144BDA6942F0200261
:100DF000DA61DA699206FCD410229A600029B9D02F
:100E0000154A1A60BDE8F883DA69788822F47F42CF
:100E1000013822F0100242EA0022FF3942F01002AB
:100E200018BF0121DA61DFE745EA0262034B42F4B1
:100E30000032B6E740F20122E3E700BF00B0024013
:100E400001020100090002000A0002003E740208CB
:100E500058740208A87302080102020038B50C4653
:100E6000897FFFF72FFFA58AE28A164B2169586315
:100E700042EA05425A64628BD963521B1A642568A0
:100E8000082D0ED19A611A615862207F0E4A42EAFB
:100E90000062DA61E2681A620C4A5961D9601A602C
:100EA00038BD0022D8611A61E1680A0A480902F4D3
:100EB000784200F4FC600243C1F3C4010A439A6320
:100EC000034AECE700B00240090001000102020001
:100ED00001020300034B1A68D207FCD423229A6054
:100EE000704700BF00B0024030B50F4C2568ED07D9
:100EF000FCD423250904A56041F001010225FF2B44
:100F000065636164E0630AD00849656241EA03638E
:100F1000E361074B22626061E060236030BDE56100
:100F2000039BA363034BF8E700B0024009000100F4
:100F30000100020001000300012070470C207047EF
:100F40000C2303FB0100083070470C2303FB010056
:100F5000083070470120704741F64820704741F63D
:100F6000482303FB01000830704741F6482303FB88
:100F7000010008307047012070471020704700EBD7
:100F800001100830704700EB011008307047084628
:100F900002F0F8BC10B5034B0360044609F0DDF91C
:100FA000204610BD5875020810B50446FFF7F2FF41
:100FB0002046142124F074F8204610BD10B5034BD0
:100FC0000360044609F0C9F9204610BD24750208E3
:100FD00010B50446FFF7F2FF204641F6502124F0F9
:100FE0005FF8204610BD000010B5034B03600446B7
:100FF00009F0B3F9204610BDF074020810B504469C
:10100000FFF7F2FF2046182124F04AF8204610BDD1
:1010100010B5094B0360044600F5D3501C30FFF7B0
:10102000B9FF04F12C00FFF7C9FF04F11400FFF72A
:10103000DBFF204610BD00BF8C75020808B50248D2
:10104000FFF7E6FF08BD00BFAC01002010B5044665
:10105000FFF7DEFF204641F6F43124F021F8204668
:1010600010BD00002DE9F34101F040FA054601F002
:1010700041FA00240146234628462246009415F0F2
:101080002FFE274B274A1A60204603F067FD264BA8
:10109000264A274D9A60274815F08AFD2B68BFF332
:1010A0005B8FDB0736D4284623F0FCFF90B3224C3D
:1010B000224F234B236007F11C0604F1140004F1B6
:1010C0002C086060C4F80880E760266109F046F9E2
:1010D0001C4B6361404609F041F91B4BE362384603
:1010E00009F03CF904F58053184AC3F87C2A03F54B
:1010F000296004F0BFF9224607F11401304604F0DC
:101100006FF9304602F03EFC114824F02DFF2846CE
:1011100023F0D4FF0F4802B0BDE8F041FFF728BC30
:10112000043E0120DC2B0020E02B0020A01D00202D
:10113000A801002008000020AC010020281C00208D
:101140008C750208F07402082475020858750208AC
:101150003D100008602B0020704700000148FFF799
:1011600015BC00BF602B002070B5244E244C254DCB
:10117000254B23603046FFF76BFD28461AF082F8B6
:10118000224813F0FFF9224B2248DC6000224FF482
:101190008071C3E9121220491A86C3E91A121F4945
:1011A00099671F4983F858200B60F02101801D4882
:1011B0005A6601801C4883F870204FF4A071C3E97F
:1011C0000422C3E90622C3E90822C3E90A22C3E9CB
:1011D0000E22C3E91022C3E91422C3E917225A6779
:1011E000C3E9016501801148018011490A7001229B
:1011F00083F834200F4A1A6070BD00BFC01D002064
:10120000BC1D0020E02B0020E06F0208A01D002084
:10121000602B0020943D012001000001000001012D
:10122000A03D01209A3D0120963D01209C3D0120DA
:10123000983D01206C7102080148FFF7BFBC00BF58
:10124000C01D00200020704781807047C18070471A
:101250000181704741817047704770477047704700
:10126000704710B4C4880368121B84885B6D091B27
:1012700012B25DF8044B09B218474FF6FF73838131
:101280004FF0FF3303621368C3611060704790F83A
:1012900025201AB190F8242002B118607047002070
:1012A00070478B88838001207047704780F8261034
:1012B000704790F82600704710B50022B1F9084039
:1012C000B1F90A10028042808480C18010BD0022E2
:1012D000028042808280C28070470177704780ED33
:1012E000080A704780F82410704780F8251070476E
:1012F00001207047983070478C30704784307047B9
:1013000070470000034B902283F85A2383F8582338
:10131000704700BF00E100E0094A0A49D3680A4863
:10132000C3F30A03013B9BB20B801169C1F30A01AD
:10133000013901801364536B43F001035363704719
:10134000006801406E2C00206C2C0020014BD3F86B
:10135000AC00704700680140024B0122C3F8AC109A
:101360005A627047006801407047704710B52C21E1
:10137000044623F095FE204610BD10B5BC2104465E
:1013800023F08EFE204610BD70B504460BF001FB25
:1013900023685D6E11F080FF01462046A847236850
:1013A000054AD3F888502046AC460023BDE870407B
:1013B000A2F51631604700BF00B004D00BF0D0BAE0
:1013C0000BF0DABA0BF095BA0BF0F7BB90F82520CA
:1013D00012B103685B69184770470000084B4FF073
:1013E0008062C3F88820BFF34F8FBFF36F8F4FF039
:1013F0008072C3F88820BFF34F8FBFF36F8F7047A1
:1014000000E100E0034B4FF080629A604FF0807281
:101410009A60704700E100E070B50023124E8380AF
:10142000124B0360336893F8582005460AB1D86C14
:1014300000B998680368DB6A98473368B0FA80F4AB
:10144000D86C640930B10368DB6A9847002808BF8C
:1014500044F001042CB9064B064A07482C2124F01D
:1014600065FD284670BD00BFA03D01209C760208A6
:1014700098750208F67502082F76020870B5244E9A
:101480003568BFF35B8F15F001053FD1304623F07F
:1014900009FE00283AD01F4C1F4B256104F134008F
:1014A000C4E90035C4E90255E584A562A58513F0B9
:1014B000C8FA04F158000EF037FA184BA36520461D
:1014C000174B40F8843BFFF7A7FF164BC4F8843056
:1014D0002433C4F88C306423C4E928350023C4F8CD
:1014E000AC30C4F8B030C4F8B430C4F8B8300E48EA
:1014F0000E4BC4F89050C4F89C50C4F8A850C4F8DF
:10150000983024F031FD304623F0D8FD014870BDFD
:10151000682C0020702C002050950208BC76020830
:10152000347702080495020801130008E4940208C5
:1015300010B5144C236823B3134B144A1B6C118849
:101540008B4213D1124B198805F038FC226892F8AF
:101550006A30013382F86A30FFF704FB20680BF031
:1015600057FFBDE810400020FFF748B905F026FC02
:10157000206803681B6A9847BDE810400020FFF709
:1015800067B910BDA03D0120006801406E2C00200D
:101590006C2C002007B5064BADF806001B6805480B
:1015A00001220DF1060106F06BF903B05DF804FBB2
:1015B00010000020B02E002008B5642006F03BFE8D
:1015C000FBE7000030B595B0102200210AA824F0F6
:1015D000B2FE1422002103A824F0ADFE00241D4B0E
:1015E00001941A6C42F080521A641B6C03F0805311
:1015F0000193019B184B02941A6842F440421A600E
:101600001B6803F4404302930122029B4FF4803392
:10161000CDE9082302254FF48003CDE90E530821BC
:101620004FF4A873CDE9101308A80423139312955F
:1016300005F0E2FB0F23CDE903354FF4A0504FF442
:101640008053CDE90603052103A8059405F0AEFDFE
:1016500015B030BD003802400070004080B59AB02F
:1016600004F016FBFFF7AEFF142200210DA80024A2
:1016700024F061FEC04B00941A6BC048C04D42F08C
:1016800010021A631A6B02F010020092009A019481
:101690001A6B42F020021A631A6B02F020020192C8
:1016A000019A02941A6B42F080021A631A6B02F0DC
:1016B00080020292029A03941A6B42F004021A63A7
:1016C0001A6B02F004020392039A04941A6B42F01C
:1016D00001021A631A6B02F001020492049A059443
:1016E0001A6B42F002021A631A6B02F002020592B0
:1016F000059A06941A6B42F040021A631A6B02F0C4
:1017000040020692069A07941A6B42F008021A6386
:101710001B6B03F00803079322463C21079B04F050
:1017200041FD98482246042104F03CFD224696489B
:101730004FF4405104F036FD01264FF003083C23DE
:101740008E48CDF840800DA902274FF00409CDE95D
:101750000D360F9404F03AFC8A480F940DA9CDE998
:101760000D96109704F032FC0DA94FF440538648B3
:10177000CDE90D36CDE90F4704F028FC8348844BB2
:10178000036004F017FB834A834B2C62C5E90023F6
:1017900028464FF48043C5E90434C5E90244C5E94D
:1017A000064404F00BFF1021284605F04FF92146AE
:1017B000284605F06AF97948794984624FF48273C2
:1017C000C0E900134FF400751823C0E906530A233B
:1017D000744DC362C0E90244C0E90444C0E908444E
:1017E00005F0F2FF704B0D974FF0100CC5E9003675
:1017F0004023C5E904C34FF4C073C5E906344FF470
:101800000063C5E908344FF40053AB620DA9072308
:101810002846CDE90E39CDE910384FF0080AC5E960
:101820000249CDE9127705F0B3FE4FF6FF7209A920
:101830002846CDE90AA6089409960C9405F0C8FE3E
:10184000304604F051FA4FF6FF7209A92846CDE957
:10185000097ACDE90B6405F0BBFE4FF6FF7209A9CA
:101860002846CDE9098ACDE90B9405F0B1FE4FF485
:101870000C730893089B0C934FF6FF7209A9284636
:10188000CDE9099A0B9605F0A3FE40F26A5128466D
:1018900005F0BCFE342221460DEB020024F04BFD86
:1018A000424D434BAC86C5E900340923C5E90536F2
:1018B0001D2340F20D1EC5E9073840F24313C5E968
:1018C00009E3284640F2471340F21718C5E90B8395
:1018D000C5E902442C6185F8364005F077F9FF210F
:1018E000F022CDE912144FF4806905214FF4A07362
:1018F000CDE90E24CDE91491CDE916420DA9224679
:101900002846CDE910372B4D18930D94ADF864405F
:101910008DF8664005F025FA274B2B601B68984729
:101920002B68264DDB689847254BC5E90A47C5E972
:101930000C442846C5E90034C5E9027404F04AFAAB
:101940003146284604F0FEFAFEF79AFEFEF797FEAF
:1019500006F0FEFB1B4A1C48214606F025FC1B4BEB
:101960001B4A186021461B4806F01EFC1A4B1860E3
:1019700006F000FCFEE700BF003802400010024005
:10198000802D002000080240000C0240382D00206D
:1019900000300240005C0040A0860100B02E002014
:1019A000005001407C2E0020400100A0D42D0020DA
:1019B00000680140302D002014000020402D002040
:1019C00000B00240B4770208B9150008342D002099
:1019D000907702088F0600082C2D00207047704772
:1019E0007FB5094B8DF817201B6802930DF1170284
:1019F0000123009201930A460146044804F086FE42
:101A000007B05DF804FB00BF0C000020802D002013
:101A10007FB500238DF81730084B1B6802930A46E8
:101A200001230DF11701009101930146044804F0D0
:101A3000FDFE9DF8170007B05DF804FB0C000020C8
:101A4000802D00201FB5084C24680092CDE9013498
:101A50000A4601230146054804F0E8FE003818BF95
:101A6000012004B010BD00BF0C000020802D00201C
:101A700004F03AB908B506480022042104F092FBAC
:101A8000BDE8084002480122042104F08BBB00BFDE
:101A90000008024038B50B4D044601220A484FF4B5
:101AA000005104F07FFB00220421284604F07AFB59
:101AB0002046FFF76FFD28460122BDE8384004218B
:101AC00004F070BB00080240000C024038B50B4D1A
:101AD000044600220A484FF4005104F063FB002240
:101AE0000421284604F05EFB2046FFF753FD2846FC
:101AF0000122BDE83840042104F054BB0008024034
:101B0000000C0240F7B5144E144F05460C46304603
:101B10000022042104F046FB00224FF40051384615
:101B200004F040FB2846FFF735FD0D4B0D481B68C0
:101B3000224601A906F04DF8384601224FF4005123
:101B4000019C04F02FFB30460122042104F02AFB03
:101B5000204603B0F0BD00BF00080240000C024068
:101B600010000020B02E002004F0BEB80268034B25
:101B70009A4201D104F0A6B8704700BF001000409F
:101B80007047000082B00E4B00220092596C41F465
:101B900080415964596C01F480410091009901928F
:101BA000196C41F0805119641B6C03F08053019350
:101BB000019B0F216FF0010002B004F0BBB800BF21
:101BC000003802400268094B9A4282B00BD10023D0
:101BD0000193074B1A6B42F480521A631B6B03F498
:101BE00080530193019B02B0704700BF0030024058
:101BF0000038024007B50F4B02689A4216D1002206
:101C0000A3F5F0430192196B41F4000119631B6BBA
:101C100003F40003019305215A20019B04F08AF884
:101C20005A2003B05DF804EB04F0B6B803B05DF8D9
:101C300004FB00BF00B002402DE9F043044689B028
:101C40001422002103A824F076FB2268244B9A4238
:101C500043D1244C244800250095236B43F0040312
:101C60002363236B03F004030093009B0195236B14
:101C700043F001032363236B03F001030193019BF2
:101C80004FF012094FF400734FF0010803270426A8
:101C900003A9CDE90339CDE90587079604F096F944
:101CA0004FF480731148079603A9CDE90339CDE9B4
:101CB000058704F08BF90295236C43F40003236439
:101CC000236C03F400030293029B236A43F4000392
:101CD0002362236A23F40003236209B0BDE8F08382
:101CE000005C004000380240000802400000024052
:101CF000F0B599B004461422002107A824F01BFB7C
:101D000030220DEB0200002124F015FB22685E4B0F
:101D10009A4240F0B78008230C93C0231093042309
:101D200012930CA84FF40033159305F007FB08B18C
:101D3000FFF726FF554B5648002400945A6C42F09A
:101D400080625A645A6C02F080620092009A019498
:101D50001A6B42F020021A631A6B02F02002019201
:101D6000019A02941A6B42F001021A631A6B02F094
:101D700001020292029A03941A6B42F002021A6361
:101D80001A6B02F002020392039A04941A6B42F057
:101D900040021A631A6B02F040020492049A0594FE
:101DA0001A6B42F004021A631A6B02F004020592E5
:101DB000059A06941A6B42F008021A631B6B03F033
:101DC0000803069302250E26069B0B964FF48063AC
:101DD00007A9CDE90735CDE9094504F0F7F841F643
:101DE00058032C480B9607A9CDE907350927CDE9FB
:101DF000094504F0EBF8032327480B9707A9CDE921
:101E00000735CDE9094504F0E1F84FF47063224845
:101E10000B9607A9CDE90735CDE9094504F0D6F8B9
:101E20004FF40C631D480B9607A9CDE90735CDE9A2
:101E3000094504F0CBF8C02319480B9607A9CDE952
:101E40000735CDE9094504F0C1F8082315480B967C
:101E500007A9CDE90735CDE9094504F0B7F84FF4F6
:101E6000A0530E480B9707A9CDE90735CDE90945E1
:101E700004F0ACF858202246052103F05BFF5820FF
:101E800003F08AFF19B0F0BD00680140003802403D
:101E9000001402400000024000040240001802400A
:101EA00000080240000C024010B5044688B014221D
:101EB000002103A824F03FFA2268144B9A4223D150
:101EC00003F56843002101915A6C114842F48012D5
:101ED0005A645A6C02F480120192019A02911A6BB0
:101EE00042F020021A631B6B03F020030293029B53
:101EF0004FF4607202230321CDE903230523CDE9CA
:101F0000061303A904F062F808B010BD00500140A8
:101F1000001402402DE9F04186B0002303932B4BBF
:101F20001C68002C4FD14FF00108C3F80080284BEB
:101F300000949A6B274842EA08029A639B6B03EA73
:101F400008030093022703260C25009B01A94FF6E6
:101F50003F03CDE90137CDE9046504F037F81E48A9
:101F6000059501A9CDE90187CDE9034604F02EF8D6
:101F700048F233131948059501A9CDE90137CDE998
:101F8000034604F023F84FF683731548059501A91D
:101F9000CDE90137CDE9034604F018F84CF203739C
:101FA0001048059501A9CDE90137CDE9034604F0B4
:101FB0000DF860230C48059501A9CDE90137CDE95D
:101FC000034604F003F806B0BDE8F081082F0020B6
:101FD000003802400014024000080240001802408D
:101FE00000100240000C02400004024070B588B0AE
:101FF00000230293204B1A6C42F010021A641B6CEF
:1020000003F010030293054601A903A8029B05F003
:1020100077F9069B4BBB05F063F9184E184B3360FC
:1020200040F2E733F360174BB0FBF3F3013B73600F
:10203000304600233361B360B36105F0AFFF04465F
:1020400080B9304605F06CFE044658B9362003F0DE
:10205000A3FE0F2D0DD822462946362003F06AFE36
:10206000094B1D60204608B070BD05F039F94000ED
:10207000D3E70124F6E700BF003802400C2F002010
:102080000010004040420F007C0000207047FEE737
:10209000FEE7FEE7FEE77047014805F07FBE00BFA0
:1020A0000C2F0020014804F0FFBD00BFD42D0020FC
:1020B000014803F0BDBE00BF402D00200120704745
:1020C00008B524F0DBF9162303604FF0FF3008BD9C
:1020D00008B524F0D3F916230360FEE770B50D466A
:1020E00014460E46731B9C4201DC204670BDAFF3C4
:1020F000008006F8010BF5E770B50D4614460E4654
:10210000731B9C4201DC204670BD16F8010BAFF337
:102110000080F5E74FF0FF3070474FF400534B60FD
:102120000020704701207047002070470A4A11685C
:1021300008B5034609B909491160106869460344A6
:102140008B4206D924F09AF90C2303604FF0FF303C
:1021500008BD1360FCE700BF542F0020D8490120C0
:1021600070477047704770477047704770477047B7
:10217000704730B4C26844685510034604EB6200EF
:10218000D20748BF62599B6830BC48BFD358184734
:1021900043682BB183682BB9C06800F00100704719
:1021A000184670470120704710B50821044622F0F8
:1021B00077FF204610BD10B51021044622F070FFB5
:1021C000204610BD10B54FF4C071044622F068FFE0
:1021D000204610BDE030884208B505D111F05CF80A
:1021E000BDE8084001F0DEBB08BD70B503680446D9
:1021F0001B6B154698472368294620465B6BBDE854
:102200007040184770B504461D46BDF91060FFF7D1
:10221000ECFF2368294620469B6B9847236831468C
:102220002046DB6BBDE8704018470000094A026099
:102230004FF4807100228184FF21C0E90122C0E9AE
:102240000322C0E90522C0E9072280F82610826235
:10225000704700BFD49702084FF4807181840D4904
:1022600001600D4981624FF6FF7181854FF47F0156
:10227000002241634FF0FF31C0E90122C0E903228F
:10228000C0E90522C0E90722C0E9101202630287F3
:10229000C263704744970208A47802081A4B73B5CA
:1022A0001B88018F8B4206462BD9184B1B682BB914
:1022B000174B184A18486C2123F038FE13F81120E8
:1022C000164B1B6853F82250154B186802F082FC1D
:1022D0002B6801909B6B284698472B6801999B6C53
:1022E0000446284698472B6801995B6A14FB00F462
:1022F00028469847A4B223181BB2A6F8463002B06D
:1023000070BD0023F9E700BFFC3D0120F83D01202E
:10231000D87702081A78020855780208003E012092
:10232000043E01202DE9F04F04468BB0A246002563
:1023300012F00CFF564BE5634AF8403B04F16C0B7E
:10234000504604F19809FFF771FF5846FFF76EFFFA
:1023500004F1E0084846FFF77FFF04F59477404614
:102360000EF0DAFB3846FFF777FF4A4BC4E95C34DE
:10237000494BC4E95E354FF4A0732A4600932946C1
:102380005046F023FFF73EFF261D4FF07F43A36624
:102390005146304609F03BFB4FF4A0732A460093A8
:1023A00029465846F023FFF72DFF3C4BC4F89430E4
:1023B0005946304609F02BFB0F2248461421FFF7FF
:1023C00014FF0DF1080A364BC4F8C8304946504690
:1023D000A4F8CC500DF0A6FB9AE8070004F1D40352
:1023E00083E80700DFF8BCB0CDF820B0172308A9B8
:1023F0004846ADF824300DF02FFE4946304609F02E
:1024000006FB40460722C521FFF7EFFE022308AA7C
:1024100007A9ADF81C3040460323ADF820300EF07C
:102420004EF81623A4F818314046FFF737FF4FF057
:10243000FF3904F5B873C4F8083141463046C4E9A1
:10244000479909F0E4FA4B2238461821FFF7CDFEF0
:1024500039465046C4F85891A4F85C510DF062FB1F
:102460009AE8070004F5B27383E80700152308A96A
:102470003846ADF82430CDF820B00DF0EDFD3046F3
:10248000394609F0C4FA20460BB0BDE8F08F00BF12
:10249000CC780208B4780208D52100082B2B2BFF3A
:1024A000808080FFA4780208704708B5042914D8FA
:1024B000DFE801F00B03070B0F0002F093FE40680A
:1024C00008BD02F08FFE8068FAE702F08BFE00681C
:1024D000F6E702F087FEC068F2E70020F0E710B5EB
:1024E0000421044622F0DCFD204610BD0048704760
:1024F0000C7902080F20704713B5002451B103680E
:1025000001948DF8034001AA9C680DF10303A047D4
:1025100002B010BD0846FBE7C0897047008A7047CB
:10252000C088704780887047807A00F07F007047CD
:10253000807AC00970470020704700009FED010AB3
:10254000704700BF0000000070477047704730B40C
:10255000C26844685510034604EB6200D20748BFC6
:1025600062599B6830BC48BFD358184743682BB1A9
:1025700083682BB9C06800F00100704718467047A7
:102580000120704710B51021044622F089FD204635
:1025900010BD10B54FF49961044622F081FD20462C
:1025A00010BDE030884208B505D110F075FEBDE8D9
:1025B000084001F0F7B908BD2DE9F04F2DED0E8B65
:1025C00004468DB026464FF0000B12F0BFFDEA4BDB
:1025D000C4F83CB046F8403B04F16C0A3046FFF7C3
:1025E00025FE04F198085046FFF720FE04F1E007AD
:1025F0004046FFF731FE04F5947938460EF08CFA28
:1026000048460EF02BF904F5B27318460BEE103A5B
:102610000EF024F904F5D07318460BEE903A0EF044
:102620001DF904F5EE7318460CEE103A0EF016F98B
:1026300004F5067318460CEE903A0EF00FF904F507
:10264000157318460DEE103A0EF008F904F52473D0
:1026500018460DEE903A0EF001F904F53373184662
:102660000EEE103A0EF0FAF804F54273184608EE32
:10267000103AFFF7F1FD04F55473184608EE903A4E
:10268000FFF7EAFD04F56673184609EE103AFFF706
:10269000E3FD04F57873184609EE903AFFF7DCFD88
:1026A00004F5856318460AEE103AFFF7D5FD04F5E8
:1026B0008E6318460AEE903AFFF7CEFDAF4BC4F892
:1026C000B834AF4BC4F8C0344FF4A0735A460093EB
:1026D00059463046C4F8BC44C4F8C4B4F023251DA0
:1026E000FFF790FD4FF07F43A3663146284609F07F
:1026F0008EF94FF4A0735A46009359465046F02382
:10270000FFF780FD9F4BC4F894305146284609F0EE
:102710007EF90F22404614210DF1080AFFF765FDEE
:10272000994BC4F8C83041465046A4F8CCB00DF0DF
:10273000F9F99AE8070004F1D4030AAE83E8070028
:10274000924B0A93314614234046ADF82C300DF0DD
:1027500083FC4146284609F05AF938460722C5212C
:10276000FFF743FD0223324609A9ADF8243038466D
:102770000323ADF828300DF0A2FE1323A4F818317E
:102780003846FFF78BFD4FF0FF33C4E9473304F5BC
:102790009763C4F808313946284609F038F94846A5
:1027A0004FF481727D21FFF720FD4FF00B0208A945
:1027B000042709ABADF82420ADF8282048460A4686
:1027C0004FF01E0807A90096ADF81C70ADF82070F8
:1027D0000DF0AFFFC4F860814946284609F017F9AB
:1027E0001BEE100A4FF481720A21FFF7FEFC08A8C5
:1027F00002464FF00A0107A809ABADF82410ADF866
:102800002810009601461BEE100AADF81C70ADF8BA
:1028100020700DF08EFF1BEE101AC4F89C81284624
:1028200009F0F5F81BEE900AA0221D21FFF7DDFC50
:1028300008A8024607A84FF001086FF0061709AB79
:102840004FF00D09014600961BEE900AADF824905A
:10285000ADF82890ADF81C80ADF820B00DF069FF00
:102860001BEE901AC4F8D871284609F0D0F81CEE77
:10287000100AA0226B21FFF7B8FC08A84FF00B024A
:10288000ADF82820024607A809AB014600961CEEC9
:10289000100AADF82490ADF81C80ADF820B00DF012
:1028A00048FF1CEE101AC4F81472284609F0AFF85D
:1028B0001CEE900AD2221D21FFF797FC08A80246C1
:1028C00007A84FF00C0909AB014600961CEE900AD0
:1028D000ADF81C80ADF820B0ADF82490ADF828908C
:1028E0000DF027FF1CEE901AC4F85072284609F02C
:1028F0008EF81DEE100AD2226B21FFF776FC08A895
:10290000024607A809AB014600961DEE100AADF875
:102910001C80ADF820B0ADF82490ADF828900DF0F3
:1029200008FF1DEE101AC4F88C72284609F06FF8E3
:102930001DEE900AA022AF21FFF757FC07A84FF029
:102940000D014FF00B0209ABADF82410ADF82820B3
:10295000014608AA1DEE900A0096ADF81C80ADF85D
:1029600020B00DF0E6FE1DEE901AC4F8C87228469D
:1029700009F04DF80CE000BF587A0208407A0208CE
:10298000A32500082B2B2BFF808080FFA478020852
:102990001EEE100AD222AF21FFF727FC07A809ABD1
:1029A00008AA014600961EEE100AADF81C80ADF88C
:1029B00020B0ADF82490ADF828900DF0BAFE1EEED0
:1029C000101AC4F80473284609F021F818EE100A0A
:1029D00056222521FFF709FC4FF07F4218EE101A0E
:1029E000C4F838235046A4F83CB30DF09BF89AE89D
:1029F000070004F5517383E807004FF00A01664FA2
:102A0000ADF82C1018EE100A31460A970DF024FB91
:102A100018EE101A284608F0FAFF18EE900A7822ED
:102A20002821FFF7E2FB4FF07F4318EE901AC4F81D
:102A300080335046A4F884B30DF074F89AE8070088
:102A400004F5637383E80700072318EE900A314604
:102A5000ADF82C300A970DF0FFFA18EE901A2846C0
:102A600008F0D5FF19EE100A56227021FFF7BDFBC2
:102A70004FF07F4319EE101AC4F8C8335046A4F83B
:102A8000CCB30DF04FF89AE8070004F5757383E8AE
:102A90000700092319EE100A3146ADF82C300A97C9
:102AA0000DF0DAFA19EE101A284608F0B0FF19EE08
:102AB000900A78227421FFF798FB4FF07F4319EEBC
:102AC000901AC4F810345046A4F814B40DF02AF843
:102AD0009AE8070004F21C4383E80700062319EE76
:102AE000900A3146ADF82C300A970DF0B5FA19EE80
:102AF000901A284608F08BFF1AEE100A5622BA21C7
:102B0000FFF773FB4FF07F431AEE101AC4F85834E6
:102B10005046A4F85CB40DF005F89AE8070004F2FA
:102B2000644383E8070008231AEE100A3146ADF823
:102B30002C300A970DF090FA1AEE101A284608F079
:102B400066FF1AEE900A7822BA21FFF74EFB4FF08B
:102B50007F431AEE901AC4F8A0345046A4F8A4B4E7
:102B60000CF0E0FF9AE8070004F2AC4383E80700AA
:102B700005231AEE900A3146ADF82C300A970DF075
:102B80006BFA28461AEE901A08F041FF20460DB065
:102B9000BDEC0E8BBDE8F08FA478020830B5036859
:102BA000018185B06D460146D3F88430044628463D
:102BB000984795E807003C3484E8070005B030BD2D
:102BC00030B50368418185B06D460146D3F8843045
:102BD00004462846984795E807003C3484E80700F7
:102BE00005B030BD0022028042808280C2807047E2
:102BF00080F83610704770B5036804461B6B1546A5
:102C000098472368294620465B6EBDE87040184708
:102C100000207047806C7047704770470368DB6A1C
:102C200018477047704730B4C2684468551003466F
:102C300004EB6200D20748BF62599B6830BC48BFB2
:102C4000D358184743682BB183682BB9C06800F08C
:102C500001007047184670470120704710B54C219D
:102C6000044622F01DFA204610BD10B5102104467E
:102C700022F016FA204610BD08B5FEF7A7FB08BDE6
:102C8000036870B55E6B124B1B6804468DB22BB99E
:102C9000104B114A6C21114823F048F91049828DDC
:102CA0000988914203D80F4B0B4A6D21F3E713F8C3
:102CB00012200D4B1B6853F8220003681B6B9847CA
:102CC000281A01B233462046BDE87040184700BFBD
:102CD000F83D0120D87702081A78020855780208D2
:102CE000FC3D0120847A0208003E01209830884291
:102CF00008B505D110F0D0FABDE8084000F052BE8A
:102D000008BD00224FF0FF31C0E90021826070470A
:102D1000074A02600022C0E90122C0E90322C0E99B
:102D20000522C0E907224FF480728284704700BFF9
:102D30007C9A02082DE9F04F2DED108B044697B0D8
:102D400012F004FA22460025EB4BE56342F8403BC3
:102D500010460AEE102AFFF769FA04F16C0304F139
:102D6000980818460693FFF761FA40460DF0D4FE26
:102D700004F1E00304F5947A18460AEE903AFFF75E
:102D80006BFA504609F00AFA04F5087318460BEE80
:102D9000103ADFF88CB3D94FFFF7BAFF04F513737D
:102DA000C4F820B2C4F8485218460BEE903AFFF728
:102DB00053FA04F52573184604F5387609EE903A6F
:102DC000FFF74AFACE4BC4F89432C4F8DC523046CE
:102DD00007F096FB04F5787318460993FEF71CFB81
:102DE00007F1240304F57D71C4F8E833C4F8EC530B
:102DF000C4F8E07308460CEE101AFFF789FF04F5DB
:102E00008461C4F8F4B3C4F81C5408460CEE901A5C
:102E1000FFF722FA04F58D6108460DEE101AFFF750
:102E20001BFA04F59661084608EE101A07F068FBD5
:102E300004F5B66108460A91FEF7EEFA07F124029E
:102E400004F2C451C4F8B825C4F8BC55C4F8B07530
:102E500008460DEE901AFFF75BFF04F5BE61C4F85B
:102E6000C4B5C4F8EC5508460EEE101AFFF7F4F995
:102E700004F5C76104F5D06708460EEE901AFFF717
:102E8000EBF9384607F03CFB04F5F06108460B917E
:102E9000FEF7C2FA994BC4F8803703F1240204F21A
:102EA0009471C4F88827C4F88C5708460FEE101A9E
:102EB000FFF72EFF04F5F861C4F894B7C4F8BC57C7
:102EC00008460FEE901AFFF7C7F904F6080104F55B
:102ED000056908460291FFF7BFF9484607F010FB65
:102EE00004F5156108460C91FEF796FA834BC4F879
:102EF000503903F1240204F66411C4F85829C4F8C7
:102F00005C5908460391FFF703FF04F51961C4F803
:102F100064B9C4F88C5908460491FFF79DF904F68A
:102F2000D81104F5226B08460591FFF795F958462C
:102F300007F0E6FA04F5326108460D91FEF76CFAE7
:102F40006E4BC4F8203B03F1240204F63433C4F87A
:102F5000282BC4F82C5B184609EE103A08F092FCB6
:102F600004F6CC3318460793FFF760F904F6F833FC
:102F700018460893FFF75AF904F58053614AC3F8DD
:102F8000382A614AC3F83C4AC3F8402AC3F8445A75
:102F900004F628404FF461610EF07AFC4FF4A07300
:102FA0002A461AEE100A00932946F023FFF72AF961
:102FB0004FF07F43A366231D1AEE101A184608EE41
:102FC000903A08F024FD4FF4A0732A460698009327
:102FD0002946F023FFF716F94C4BC4F894300699B4
:102FE00018EE900A08F013FD40460722C521FFF7AE
:102FF000FCF8022314AA13A9ADF84C3040464FF058
:103000000303ADF850300DF05AFA2323A4F8D03062
:103010004046FFF743F94FF0FF33C4E9353304F579
:10302000D1531833C4F8C03018EE900A414608F066
:10303000EEFC1AEE900A0D221B210DF13808FFF765
:10304000D4F8334BC4F810311AEE901AA4F8145186
:1030500040460CF067FD98E8070004F58E7383E89E
:1030600007002C4B14931AEE900A222314A9ADF8F2
:1030700054300CF0F1FF1AEE901A18EE900A08F096
:10308000C6FC294650461F22FFF7AFF84FF0090251
:103090000823ADF8502013A914AA5046ADF84C30BF
:1030A00009F01CF9F02250465A2108F0C3FF50469F
:1030B000322108F038FF5046322108F0B9FF164A95
:1030C000C4F828221BEE900A1A222021FFF78DF85F
:1030D000124AC4F87C221BEE901AA4F88052404693
:1030E0000CF020FD98E8070004F5227383E8070040
:1030F0004FF0200016E000BF747B02080495020820
:10310000CC7A02085C7B0208ED2C00082B2B2BFFED
:10311000999999FFA4780208F0000501FFF700FFD4
:1031200038920208E84BADF8540014A91BEE900A3F
:1031300014930CF091FF1BEE901A1BEE100A08F08E
:1031400066FC19EE900A40225B21FFF74EF8D4F896
:103150009432DE4AC4F8C42219EE901AA4F8C85278
:103160004046D3F88430984798E8070004F5347354
:1031700083E8070004F6244319EE900AA4F8245CBF
:10318000C4F8DC320CF048FFCF4B149319EE900AD0
:10319000212314A9ADF854300CF05EFF19EE901AFB
:1031A0001BEE100A08F033FC30466B224121FFF77A
:1031B0001CF86E20009003462A462946304607F048
:1031C00043F92B46009529463046642207F0CCF996
:1031D00037221146304607F0CCF83046322107F04E
:1031E000F2F830460A2107F0F4F8B42229463046B6
:1031F00007F073F93046B42107F0F2F84FF00700FA
:10320000ADF8500014A9304607F0DCFA40F29F7E7A
:10321000AF48A4F8F0E30999C4F8EC03304607F08E
:10322000A5F830463C2107F03CF91BEE100A314668
:1032300008F0EDFB1BEE101A504609F0C6F8A54940
:10324000C4F8FC131CEE900A17224C21FEF7CDFFA8
:103250009E4AC4F850241CEE901AA4F854544046D8
:103260000CF060FC98E8070004F25C4383E8070078
:103270001D23ADF8543014AB1946934E14961CEE32
:10328000900A0CF0E9FE1CEE901A1CEE100A08F0F1
:10329000BEFB1DEE100A3C225B21FEF7A6FF8B4A07
:1032A000C4F898241DEE101AA4F89C5440460CF063
:1032B00039FC98E8070004F2A44383E8070014AB44
:1032C00019461DEE100A14961C26ADF854600CF039
:1032D000C3FE1DEE101A1CEE100A08F098FB18EE43
:1032E000100A6B224121FEF780FF6E2318EE100AB0
:1032F00000932A46294607F0A7F82B4618EE100A35
:1033000000952946642207F02FF93722114618EE5E
:10331000100A07F02EF818EE100A322107F053F8C1
:1033200018EE100A0A2107F054F84FF4B47218EEA0
:10333000100A294607F0D1F818EE100AB42107F058
:103340004FF814AB4FF0070C194618EE100AADF801
:1033500050C007F037FA40F29F7E5D48A4F8C0E500
:103360000A99C4F8BC0518EE100A06F0FFFF18EE23
:10337000100A3C2107F095F818EE101A1CEE100AFE
:1033800008F045FB1CEE101A504609F01EF8514992
:10339000C4F8CC151EEE100A17223621FEF725FFC1
:1033A0004A4AC4F820261EEE101AA4F824564046B5
:1033B0000CF0B8FB98E8070004F22C6383E80700E0
:1033C000414B14931EEE100A1B2314A9ADF8543080
:1033D0000CF042FE1EEE101A1DEE900A08F017FBCC
:1033E0001EEE900A3C225B21FEF7FFFE374AC4F82E
:1033F00068261EEE901AA4F86C5640460CF092FB1C
:1034000098E8070004F2746383E807002E4B1493D6
:103410001A23ADF8543014AB19461EEE900A0CF086
:103420001BFE1EEE901A1DEE900A08F0F0FA3846C8
:103430006B224121FEF7D9FE6E2300932A462946CE
:10344000384607F001F82B46009529463846642295
:1034500007F08AF837221146384606F08AFF3846C8
:10346000322106F0B0FF38460A2106F0B2FF4FF4D1
:10347000B4722946384607F030F83846B42106F0D1
:10348000AFFF14AB4FF0070C19463846ADF850C0EB
:1034900007F098F940F29F7E0D48A4F890E70B9949
:1034A000C4F88C07384606F061FF38463C2106F028
:1034B000F8FF1DEE900A394608F0A9FA1DEE901AA1
:1034C000504608F082FF07E0A4780208FFF700FFEB
:1034D000FFF000FFF0000501C249C4F89C171FEE81
:1034E000900A17224C21FEF780FEBF4AC4F8F0274D
:1034F0001FEE901AA4F8F45740460CF013FB98E81E
:10350000070004F2FC7383E807001F23ADF8543072
:1035100014ABB64F149719461FEE900A0CF09CFDA1
:103520001FEE901A1FEE100A08F071FA02983C2262
:103530005B21FEF75AFEAC4A0299C4F83828A4F879
:103540003C5840460CF0EEFA98E8070004F64403B5
:1035500083E807001E23ADF8543014AB19460298D7
:1035600014970CF079FD02991FEE100A08F04FFA3B
:1035700048466B224121FEF738FE6E2300932A460F
:103580002946484606F060FF2B46009529464846E6
:10359000642206F0E9FF37221146484606F0E9FEAC
:1035A0004846322106F00FFF48460A2106F011FF77
:1035B0004FF4B4722946484606F08FFF4846B421BE
:1035C00006F00EFF14AB4FF0070C19464846ADF855
:1035D00050C007F0F7F840F29F7E8548A4F860E9F4
:1035E0000C99C4F85C09484606F0C0FE48463C21E8
:1035F00006F057FF1FEE100A494608F008FA1FEEC2
:10360000101A504608F0E1FE76490498C4F86C1987
:103610003C225B21FEF7E9FD734A0499C4F8C029F6
:10362000A4F8C45940460CF07DFA98E8070004F667
:10363000CC1383E8070018230498ADF8543014A97C
:1036400014970CF009FDDDE9030108F0E0F9059895
:103650002A463321FEF7C9FD634A0599C4F8082AB2
:10366000A4F80C5A40460CF05DFA98E8070004F6FE
:10367000142383E8070019230598ADF8543014A9E2
:1036800014970CF0E9FC0599039808F0C0F9584626
:103690006B224121FEF7A9FD6E2300932A4629469D
:1036A000584606F0D1FE2B4600952946584664221E
:1036B00006F05AFF37221146584606F05AFE584681
:1036C000322106F080FE58460A2106F082FE4FF4B1
:1036D000B4722946584606F000FF5846B42106F059
:1036E0007FFE4FF0070C14A95846ADF850C007F004
:1036F00069F840F29F7E3E48A4F830EB0D99C4F87B
:103700002C0B584606F032FE58463C2106F0C9FE06
:103710000398594608F07BF90399504608F055FE86
:103720002946504608F042FE18EE900A514608F02D
:103730006EF962234FF4927219EE100A0096092175
:10374000FEF760FD19EE100A2A4907F0D9FF01269D
:1037500019EE100A14A9ADF85460149707F0E3FFAE
:1037600019EE100A314608F0DBF80A224FF0030385
:10377000114619EE100A84F8633B2B4608F0D3F883
:1037800019EE101A18EE900A08F041F934232A466F
:103790000798194E00932946F0231125FEF732FDB4
:1037A0000799C4F8F46B18EE900A84F8F25B08F0FD
:1037B0002EF92023089800934FF49272F1234FF0D2
:1037C000FF31FEF71FFD18EE900A0899C4F8206C2F
:1037D00084F81E5C08F01BF9204617B0BDEC108B76
:1037E000BDE8F08FF0000501FFF700FFA4780208A4
:1037F000FFF000FFFFEA00FFFF5938FF10B5054B4F
:10380000036004460EF04EF804F5947008F096FB41
:10381000204610BD747B020810B50446FFF7EEFF8A
:10382000204641F6482121F03BFC204610BD704760
:10383000704700F598730868496803C3704770477C
:103840007047416070477047064BC0F84C31002309
:10385000C0F8503100F5A273C0F84801C0F84031FB
:10386000704700BF6D3F0008012303727047704727
:10387000704710B4C26841685410034601EB6200FF
:10388000D20748BF0A599B685DF8044B48BFD3581C
:10389000184743682BB183682BB9C06800F001005A
:1038A0007047184670470120704710B50C21044638
:1038B00021F0F6FB204610BD10B51021044621F082
:1038C000EFFB204610BD10B54FF4AE71044621F059
:1038D000E7FB204610BD10B50FF0DEFC0368BDE825
:1038E0001040DB6B184710B50446D0F8400158B1C2
:1038F0000368DB68984738B1D4F8400103689B68D7
:1039000098470023C4F8403110BD0000044B1B68E9
:1039100093F858200AB1D86C00B99868704700BF76
:10392000A03D0120F8B5044617460E460FF0C0FD35
:10393000104B1C60104B2360104B0025C4E951351F
:103940000F4BC4E953551868036801219B68C4E90B
:103950004F55C4E955769847284601F0FFF8FFF720
:10396000D5FF19F0C0FAFFF7D1FF19F037FB204659
:10397000F8BD00BFF43D012020830208088302083F
:10398000A03D0120064BC0F84C310023C0F8503157
:1039900000F5A273C0F84801C0F84031704700BF7D
:1039A0006D3F0008064BC0F84C310023C0F8503181
:1039B00000F5A273C0F84801C0F84031704700BF5D
:1039C0001D3E0008064BC0F84C310023C0F85031B2
:1039D00000F5A273C0F84801C0F84031704700BF3D
:1039E000CD3C0008064BC0F84C310023C0F85031E4
:1039F00000F5A273C0F84801C0F84031704700BF1D
:103A00007D3B0008064BC0F84C310023C0F8503114
:103A100000F5A273C0F84801C0F84031704700BFFC
:103A20002D3A000803685B6A184700002DE9F14F42
:103A3000D0E9555A0746A86803681B6A9847B0F54D
:103A4000996F05D2454B464AA321464822F06EFAAB
:103A5000686803681B6A98470F2803D8424B404A9E
:103A6000A421F2E7E86803681B6A98470B2803D88B
:103A70003E4B3B4AA521E8E70FF00EFCDFF8F4903F
:103A800004300FF047FCD9F8000010B10368DB6880
:103A90009847D9F8000010B103681B689847DFF811
:103AA000D880D8F8000010B103685B699847D7F850
:103AB0003C0110B103685B689847D8F8000010B16A
:103AC00003681B689847D7F83C0110B103689B68EE
:103AD0009847E8680021FFF7A5FF4FF0000B244B43
:103AE00003600446C0F804B080F808B0A868036812
:103AF00059465B6A9847064601F006FC6868036809
:103B000059465B6A98473146054601F0D7FBC9F82C
:103B10000040C7F83C51C8F80060E5B12B1DCAF859
:103B200000303368C5F808A03046DB68F563984775
:103B30002B6828461B6898472146304611F0B2FC96
:103B4000236820461B69984723685B69204601B0BB
:103B5000BDE8F04F18472B46E1E700BFA47B020801
:103B6000327C0208427D0208897D02082C7E020810
:103B700074830208E83D0120E43D01202DE9F14F66
:103B8000D0E9555A0746A86803681B6A984740F26F
:103B90006343984205D8454B454AA321454822F046
:103BA000C5F9686803681B6A98470F2803D8424B19
:103BB0003F4AA421F2E7E86803681B6A98470B288C
:103BC00003D83E4B3A4AA521E8E70FF065FBDFF842
:103BD000F49004300FF09EFBD9F8000010B1036898
:103BE000DB689847D9F8000010B103681B68984754
:103BF000DFF8D480D8F8000010B103685B699847FB
:103C0000D7F83C0110B103685B689847D8F800000A
:103C100010B103681B689847D7F83C0110B10368DE
:103C20009B689847E8680021FFF7FCFE4FF0000B07
:103C3000234B03600446C0F804B080F808B0A868BD
:103C4000036859465B6A9847064601F075FC686848
:103C5000036859465B6A98473146054601F046FCC1
:103C6000C9F80040C7F83C51C8F80060E5B12B1D09
:103C7000CAF800303368C5F808A03046DB68F56341
:103C800098472B6828461B6898472146304611F014
:103C900009FC236820461B69984723685B69204616
:103CA00001B0BDE8F04F18472B46E1E7A47B0208BE
:103CB000CF7E0208427D0208897D02082C7E020820
:103CC00074830208E83D0120E43D01202DE9F14F15
:103CD000D0E9555A0746A86803681B6A9847B0F5AB
:103CE000C07F05D2454B464AA321464822F01EF923
:103CF000686803681B6A98470F2803D8424B404AFC
:103D0000A421F2E7E86803681B6A98470B2803D8E8
:103D10003E4B3B4AA521E8E70FF0BEFADFF8F490EE
:103D200004300FF0F7FAD9F8000010B10368DB682F
:103D30009847D9F8000010B103681B689847DFF86E
:103D4000D880D8F8000010B103685B699847D7F8AD
:103D50003C0110B103685B689847D8F8000010B1C7
:103D600003681B689847D7F83C0110B103689B684B
:103D70009847E8680021FFF755FE4FF0000B244BF1
:103D800003600446C0F804B080F808B0A86803686F
:103D900059465B6A9847064601F076FA68680368F8
:103DA00059465B6A98473146054601F047FAC9F81B
:103DB0000040C7F83C51C8F80060E5B12B1DCAF8B7
:103DC00000303368C5F808A03046DB68F5639847D3
:103DD0002B6828461B6898472146304611F062FB45
:103DE000236820461B69984723685B69204601B019
:103DF000BDE8F04F18472B46E1E700BFA47B02085F
:103E0000DF7F0208427D0208897D02082C7E0208BD
:103E100074830208E83D0120E43D01202DE9F14FC3
:103E2000D0E9555A0746A86803681B6A9847B0F559
:103E3000C86F05D2454B464AA321464822F076F882
:103E4000686803681B6A98470F2803D8424B404AAA
:103E5000A421F2E7E86803681B6A98470B2803D897
:103E60003E4B3B4AA521E8E70FF016FADFF8F49045
:103E700004300FF04FFAD9F8000010B10368DB6886
:103E80009847D9F8000010B103681B689847DFF81D
:103E9000D880D8F8000010B103685B699847D7F85C
:103EA0003C0110B103685B689847D8F8000010B176
:103EB00003681B689847D7F83C0110B103689B68FA
:103EC0009847E8680021FFF7ADFD4FF0000B244B49
:103ED00003600446C0F804B080F808B0A86803681E
:103EE00059465B6A9847064601F0B8FA6868036865
:103EF00059465B6A98473146054601F089FAC9F888
:103F00000040C7F83C51C8F80060E5B12B1DCAF865
:103F100000303368C5F808A03046DB68F563984781
:103F20002B6828461B6898472146304611F0BAFA9C
:103F3000236820461B69984723685B69204601B0C7
:103F4000BDE8F04F18472B46E1E700BFA47B02080D
:103F5000DF800208427D0208897D02082C7E02086B
:103F600074830208E83D0120E43D01202DE9F14F72
:103F7000D0E9555A0746A86803681B6A984741F676
:103F80004723984205D8454B454AA321454821F08F
:103F9000CDFF686803681B6A98470F2803D8424B17
:103FA0003F4AA421F2E7E86803681B6A98470B2898
:103FB00003D83E4B3A4AA521E8E70FF06DF9DFF848
:103FC000F49004300FF0A6F9D9F8000010B103689E
:103FD000DB689847D9F8000010B103681B68984760
:103FE000DFF8D480D8F8000010B103685B69984707
:103FF000D7F83C0110B103685B689847D8F8000017
:1040000010B103681B689847D7F83C0110B10368EA
:104010009B689847E8680021FFF704FD4FF0000B0C
:10402000234B03600446C0F804B080F808B0A868C9
:10403000036859465B6A9847064601F0ADF968681F
:10404000036859465B6A98473146054601F07EF998
:10405000C9F80040C7F83C51C8F80060E5B12B1D15
:10406000CAF800303368C5F808A03046DB68F5634D
:1040700098472B6828461B6898472146304611F020
:1040800011FA236820461B69984723685B6920461C
:1040900001B0BDE8F04F18472B46E1E7A47B0208CA
:1040A000F1810208427D0208897D02082C7E020807
:1040B00074830208E83D0120E43D0120406A704716
:1040C000806A704770478B88C0690A68DB0A50F8BD
:1040D00023001044704710B5C2B1137BB3B1547BB9
:1040E000D27A240204F4E0641443026A98B202EB28
:1040F000840213888B4202D192F9020010BD05D8C8
:10410000013880B204320028F3D1F7E70020F5E748
:1041100010B52C21044620F0C3FF204610BD00003E
:1041200030B58BB00446BDF860500895BDF85C50C2
:1041300007959DF8505006959DF84C5005959DF8B3
:10414000485004959DF8445003959DF840500295C1
:104150009DF83C500195BDF83850009510F02EFDAB
:10416000064B2360159BE361169B2362199B6362D8
:104170001A9BA36220460BB030BD00BF9883020893
:1041800070470220704770477047000038B50546F9
:10419000074B45F8043BD0F81C3204461B6800F579
:1041A00007709847636828461B689847204638BDC3
:1041B0007C85020810B5044B0360044600F5F670D8
:1041C000FFF7E4FF204610BDC485020830B4C26882
:1041D00044685510034604EB6200D20748BF625999
:1041E0009B6830BC48BFD358184743682BB18368DD
:1041F0002BB9C06800F001007047184670470120D5
:104200007047F0B4C56846686F10044606EB650059
:10421000ED07A46844BFF5592C59A446F0BC60478B
:1042200043682BB183682BB9C06800F00100704768
:10423000184670470120704710B50446FFF7A6FFE7
:10424000204640F2344120F02BFF204610BD10B52F
:104250001021044620F024FF204610BD10B5102187
:10426000044620F01DFF204610BD10B50446FFF7A0
:10427000A1FF20464FF4C86120F012FF204610BD78
:1042800010B5044600F5AA7006F0A3FC04F5F8701A
:1042900001F01CF9D4F8083404F58160D3F88830B3
:1042A000BDE810401847000008B58BB2012B05D9B6
:1042B000054B064A0648542121F038FE4FF4067398
:1042C00001FB0300043008BDF883020813840208D0
:1042D000A78402089830884208B505D10EF0DCFFAB
:1042E000BDE80840FFF74EBB08BD000070B500F503
:1042F000F6748C4215461A4611D10368012DDB6A0B
:1043000005D9074B074A0848612121F00FFE4FF4F9
:10431000067105FB01410431BDE87040184770BDCE
:10432000F883020806850208A78402082DE9F04FE9
:104330002DED028B04468BB0A146002510F006FF40
:10434000844BE56349F8403B04F16C0B484604F1AB
:104350009808FDF76BFF5846FDF768FF40460CF0E4
:10436000DBFB4FF48073A4F804317B4BC4F8E030DE
:104370007A4BC4F808314FF6FF7304F59476A4F82D
:104380000C314FF0FF324FF47F03C4E94825C4F8E5
:104390001431C4E93955C4E93B55C4E93D55C4E974
:1043A0003F55C4F81051A4F81851C4F81C513046B8
:1043B00006F066FE6A4BC4F8EC3104F5F67204F5BB
:1043C000F87008EE102A01F077F804F5816001F02A
:1043D00073F8644BC4F82036634BC4F82836634B3B
:1043E000C4F830364FF4A072614BC4F838360092EE
:1043F00029462A464846C4F82446C4F82C56C4F830
:104400003446C4F83C56F023FDF7FCFE271D4FF060
:104410007F43A3664946384607F0F9FA4FF4A07285
:10442000009229462A465846F023FDF7EBFE514BF1
:10443000C4F894305946384607F0E9FA4046072256
:10444000C521FDF7D2FE022308AA07A9ADF81C304A
:1044500040460323ADF820300CF031F80E23A4F8C9
:10446000D0304046FDF71AFF04F5C6634FF0FF3227
:1044700004F1E00AC4F8C030C4E9352241463846A8
:1044800007F0C5FA0F2250461421FDF7AEFE0DF1DC
:104490000808394BC4F8103151464046A4F814516D
:1044A0000BF040FB98E8070004F58E7383E80700E3
:1044B0002A4B089308A90D235046ADF824300BF081
:1044C000CBFD5146384607F0A2FA40F227133322BB
:1044D00000932946F5233046FDF794FE29463046E1
:1044E00007F04DF82946304607F0A4F83046234936
:1044F00006F085FF30460A2106F084FF30460A2187
:1045000006F083FF30460A2106F0F9FE2A462946C6
:10451000304606F034FE2946304606F048FE4B236E
:1045200084F8B2312A4630464FF4027106F00AFE92
:1045300018EE101A04F5C462304606F0D6FC384670
:10454000314607F064FA20460BB0BDEC028BBDE8A3
:10455000F08F00BFC485020844970208A4780208BF
:104560007C85020894850208ED420008AC850208AB
:10457000D54200082B2B2BFF808080FFED550108D2
:10458000806A704770477047704730B4C2684468AB
:104590005510034604EB6200D20748BF62599B687E
:1045A00030BC48BFD358184743682BB183682BB938
:1045B000C06800F00100704718467047012070473E
:1045C00010B51021044620F06BFD204610BD10B53B
:1045D0004FF40671044620F063FD204610BD38B547
:1045E00000F1A003994204460D4603D10EF054FE9B
:1045F000FFF7C8F904F5E0739D4203D10EF04CFEBD
:10460000FFF7E0F904F5BC739D4203D10EF044FEC0
:10461000FFF7E8F904F59874A54205D10EF03CFEC9
:10462000BDE83840FFF7EEB938BD00002DE9F04F86
:10463000064600254FF480738C4A8384C0E90155F7
:10464000C0E90355C0E90555C0E90755856246F83C
:104650002C2B874AA0F85030FF2385B0044680F801
:10466000523000F15803C0E90B2504F1A00BC0E95A
:104670000D55C0E90F55C0E91155C564456518468B
:10468000019304F1E80A0CF047FA58460CF044FA9A
:1046900004F5987950460CF03FFA04F5BC7848468A
:1046A0000CF03AFA04F5E07740460CF035FA38465B
:1046B0000CF032FA6F4AC4E982246F4AC4E98425B7
:1046C0006E4AA26030462A466FF00201FDF78DFD6A
:1046D0003046F821FCF7BCFD30464FF40271FCF780
:1046E000B9FD674A62653146204607F090F9019BA3
:1046F000642218463221FDF778FD4FF00503ADF82E
:104700000C30019B062602A903AA1846ADF80860E2
:104710000BF0D5FE019B1222A4F890201846FDF75D
:10472000BDFD019B4FF0FF3519462046C4E92555D4
:1047300007F06DF958460B223221FDF756FD03AA0A
:1047400002A94FF005035846ADF80C30ADF80860EB
:104750000BF0B5FE1123A4F8D8305846FDF79EFDA6
:1047600004F50272C4F8C82059462046C4E93755FA
:10477000019207F04CF95046BA223221FDF735FD7F
:104780004FF0050B03AA02A95046ADF80860ADF83A
:104790000CB00BF094FE1023A4F820315046FDF726
:1047A0007DFD51462046C4E9495507F030F9484699
:1047B00040F267123121FDF718FD03AA02A948460D
:1047C000ADF80860ADF80CB00BF079FE0F23A4F83B
:1047D00068314846FDF762FD019BC4F858314946EF
:1047E0002046C4E95B5507F012F940464FF48B723E
:1047F0003121FDF7FAFC03AA02A94046ADF8086092
:10480000ADF80CB00BF05BFE0C23A4F8B0314046C1
:10481000FDF744FD019BC4F8A03141462046C4E9A0
:104820006D5507F0F4F838464FF4DF723121FDF78B
:10483000DCFC03AA02A93846ADF80860ADF80CB05C
:104840000BF03DFE0B23A4F8F8313846FDF726FDAA
:10485000019BC4F8E8312046C4E97F55394607F08A
:10486000D6F8204605B0BDE8F08F00BF14860208D8
:10487000D4970208FC850208DF450008F50008020D
:104880002B2B2BFF7047000030B5164D2C68BFF363
:104890005B8F14F001048FB020D1284620F002FC79
:1048A000E0B13F230993104B0893104B1049114876
:1048B0000A940122CDE906430423CDE903320A23F9
:1048C0000093CDE90B44CDE901440594FFF728FCA2
:1048D000094821F049FB284620F0F0FB05480FB0BD
:1048E00030BD00BF582F00200CE0020804E202088F
:1048F000C4D702085C2F00208548000870470000DC
:1049000030B5174D2C68BFF35B8F14F001048FB0E6
:1049100022D1284620F0C6FBF0B13F230993114B6A
:104920000893114B07930123CDE905430493042316
:10493000CDE902430F230D49009327221223CDE92D
:104940000B440B480A940194FFF7EAFB094821F055
:104950000BFB284620F0B2FB05480FB030BD00BF6E
:10496000882F002010E0020808E20208D4D70208CD
:104970008C2F0020FD4800087047000030B5174D0F
:104980002C68BFF35B8F14F001048FB022D128464E
:1049900020F088FBF0B13F230993114B0893114B92
:1049A00007930123CDE9053304930423CDE90243A2
:1049B00014230D4900935F221823CDE90B440B48C3
:1049C0000A940194FFF7ACFB094821F0CDFA284680
:1049D00020F074FB05480FB030BD00BFB82F002099
:1049E0005CE002080CE20208F8D90208BC2F0020A3
:1049F000794900087047000030B5174D2C68BFF3A7
:104A00005B8F14F001048FB022D1284620F04AFBBE
:104A1000F0B13F230993114B0893114B11491248F0
:104A20000A94CDE9064301220423CDE90332282369
:104A3000009310222923CDE90B44CDE901440594CC
:104A4000FFF76EFB094821F08FFA284620F036FB6D
:104A500005480FB030BD00BFE82F002000E202087B
:104A600010E202082CDF0208EC2F0020F5490008B4
:104A700000207047002070470EB403B503AB00213F
:104A800053F8042B01930FF09DFB02B05DF804EB8B
:104A900003B070470CB407B504AB53F8042B019373
:104AA0000FF090FB03B05DF804EB02B0704700001C
:104AB000436C10B5044673B3038F2BB9184B194AD6
:104AC000C521194821F032FAC38E00EB43035B8CF9
:104AD0000BB311F0B6FA238F012B03D8134B144AF2
:104AE000CB21EEE7E28E531C9BB2092B194688BFFF
:104AF000A3F10A0104EB410140F63F10498C8142C9
:104B000009D10A2B04EB420228BF002304EB430324
:104B1000508C588451842046BDE8104011F094B95F
:104B2000A0860208A9860208548702089E87020808
:104B3000AC87020811F04FB910B586B002AC84E81A
:104B400006001A460AAB05930193099B0093214680
:104B5000089B0DF03FFF06B010BD000038B518BB34
:104B6000124B13481C681349B4B1226822440260F6
:104B7000626822440A60A26814440F4B00221A8023
:104B800000F030FB054600F02BFB0C4B1C600C4B7F
:104B90001D600C4B188007E00B4B03600B4B0B6048
:104BA0000B4B1C68002CE8D138BD00BF183000202A
:104BB0001C3000202030002024300020F83D01204F
:104BC000003E0120FC3D0120A4E2020814E202089C
:104BD000DCE40208044B1B6853F82100034B1B68FC
:104BE00003EB4000704700BF203000201C30002045
:104BF00070477047704770477047704770477047FD
:104C00007047704730B4C26844685510034604EBDF
:104C10006200D20748BF62599B6830BC48BFD35876
:104C2000184743682BB183682BB9C06800F00100B6
:104C30007047184670470120704710B51021044690
:104C400020F02EFA204610BD10B54FF489610446BD
:104C500020F026FA204610BD00F1E003994270B51D
:104C600004460D4603D10EF017FBFEF79BFE04F53C
:104C700034739D4203D123682046DB6A984704F5CC
:104C800052739D4203D1236820461B6B984704F55D
:104C900043739D4203D1236820465B6B984704F51C
:104CA00061739D4203D1236820469B6B984704F5AE
:104CB00070739D4203D123682046DB6B984704F54F
:104CC0007F739D4203D1236820461B6C984704F5EF
:104CD00016739D4205D1236820465B6CBDE8704089
:104CE000184770BD2DE9F04F2DED0A8B04468FB0AB
:104CF000A046002510F02AFAEB4BE56348F8403B4C
:104D00004046FDF793FA04F16C0318460CEE103A96
:104D1000FDF78CFA4FF48073A4F8BC30E34BC4F871
:104D20009830E34BC4F8C0304FF6FF7304F1E0074E
:104D30004FF0FF32A4F8C4304FF47F03C4F8CC30F6
:104D400004F59479C4E93625C4E92755C4E9295501
:104D5000C4E92B55C4E92D55C4F8C850A4F8D05067
:104D6000C4F8D450384604F5E07B0BF0D5FE484635
:104D700006F088FD584606F085FD04F516721046CB
:104D800008EE102A0BF06AFD04F52572104608EEB5
:104D9000902A0BF063FD04F53472104609EE102AD8
:104DA0000BF05CFD04F54372104609EE902A0BF0FF
:104DB00055FD04F5527210460AEE102A0BF04EFD16
:104DC00004F5617210460AEE902A0BF047FD04F5D7
:104DD000707210460BEE102A0BF040FD04F57F7246
:104DE00010460BEE902A0BF039FDB24BC4F8383464
:104DF0004FF4A072B04BC4F840340092F0232A461E
:104E000029464046C4F83C44C4F84454261DFDF7E6
:104E1000F9F94FF07F42A2664146304606F0F7FDB1
:104E20004FF4A0721CEE100A009229462A46F02385
:104E3000FDF7E8F9A14BC4F8943004F1980A1CEE90
:104E4000101A304606F0E3FD0F2250461421FDF7FC
:104E5000CCF90DF110089A4BC4F8C83051464046C1
:104E6000A4F8CC500AF05EFE98E8070004F1D403E1
:104E70000DF1300883E807008D4B0C934FF00402CE
:104E800041465046ADF834200BF0E6F85146304626
:104E900006F0BDFD38460722C521FDF7A6F90BA88F
:104EA0004FF002014FF0030A4246ADF82C100146C4
:104EB0003846ADF830A00BF002FBA4F818A1384634
:104EC000FDF7ECF94FF0FF30C4E9470004F58760C7
:104ED0000390C4F80801394630462B2706F097FDA9
:104EE0006A220097C52348461421FDF78BF94846EE
:104EF0004FF07F4106F004FC4FF002016C4BADF81F
:104F00003410484641460C9306F00DFC48460121FA
:104F100006F006FD2B4684F857A11E2248460C21B8
:104F200006F001FD4946304606F071FD3522009736
:104F3000C52358461421FDF765F95846614906F026
:104F4000DFFB5B4B0C9341465846ADF8345006F0FE
:104F5000EAFB5846012106F0E3FC2B4684F8EFA15A
:104F60001E2258460C2106F0DEFC5946304606F05B
:104F70004EFD18EE100A4FF481727D21FDF735F9D0
:104F80004FF004029146ADF82420ADF828204FF0F0
:104F90000B030BAA18EE100AADF82C30ADF8303028
:104FA00009A91346CDF800800AAA0BF0C2FB1E2700
:104FB000039BC4F8803218EE101AC4F89072304681
:104FC00006F025FD18EE900A4FF481720A21FDF7D4
:104FD0000CF90A230BAA18EE900AADF82C30ADF8A4
:104FE000303009A91346CDF800800AAAADF8249004
:104FF000ADF828900BF09DFB18EE901AC4F8CC7217
:10500000304606F004FD19EE100AA0221D21FDF71E
:10501000ECF80BAA4FF0010A4FF00D0B19EE100A35
:10502000134609A90AAACDF800806FF00617ADF85B
:1050300024A0ADF82850ADF82CB0ADF830B00BF08E
:1050400078FB039BC4F8F83219EE101A3046C4F806
:10505000087306F0DCFC19EE900AA0226B21FDF724
:10506000C4F80BAA4FF00B0319EE900AADF83030DC
:1050700009A91346CDF800800AAAADF824A0ADF81E
:105080002850ADF82CB00BF054FB039BC4F834331C
:1050900019EE901A3046C4F8447306F0B8FC1AEEC4
:1050A000100AD2221D210FE0A088020844970208AE
:1050B000A478020888880208594C00082B2B2BFF83
:1050C000808080FF787329FFFDF78FF80BAA4FF0DF
:1050D0000C091AEE100A134609A90AAACDF8008095
:1050E000ADF824A0ADF82850ADF82C90ADF8309074
:1050F0000BF01FFB039BC4F870331AEE101A3046F6
:10510000C4F8807306F083FC1AEE900AD2226B2159
:10511000FDF76BF80BAA1AEE900A134609A90AAA22
:10512000CDF80080ADF824A0ADF82850ADF82C9053
:10513000ADF830900BF0FDFA039BC4F8AC331AEED7
:10514000901A3046C4F8BC7306F061FC1BEE100ADE
:10515000A022AF21FDF749F84FF00B030AAA1BEE7E
:10516000100AADF8303009A90BABCDF80080ADF8CE
:1051700024A0ADF82850ADF82CB00BF0DAFA039B60
:10518000C4F8E8331BEE101A3046C4F8F87306F082
:105190003EFC1BEE900AD222AF21FDF726F81BEE53
:1051A000900A0BAB0AAA09A9CDF80080ADF824A09B
:1051B000ADF82850ADF82C90ADF830900BF0B9FA5E
:1051C000039BC4F8347430461BEE901AC4F82434A0
:1051D00006F01DFC20460FB0BDEC0A8BBDE8F08F39
:1051E00024207047004870472830002010B5FFF792
:1051F000C5FB064C2060FFF7FFFB6060FFF744FB38
:10520000A060FFF77DFBE06010BD00BF28300020EC
:1052100010B5002404600C6014601C6010BD704761
:10522000704704387047704710B5102104461FF0CE
:1052300037FF204610BDA0F10400F5E710B50022AD
:105240008260044AC16002F10804203204604260B6
:1052500010BD00BFE88802087047000010B5034B7E
:1052600003600446FCF782FF204610BD1C8902083B
:1052700010B50446FFF7F2FF20464FF4C0711FF04F
:105280000FFF204610BD000010B50446FDF74AF898
:10529000014B2360204610BD1C890208FCF767BF44
:1052A000704704387047704710B5102104461FF04E
:1052B000F7FE204610BDA0F10400F5E710B500226E
:1052C0008260044AC16002F1080420320460426036
:1052D00010BD00BF488902087047000010B5034B9D
:1052E00003600446FDF730F9204610BD7C890208B2
:1052F00010B50446FFF7F2FF20464FF499611FF006
:10530000CFFE204610BD000010B50446FDF754F94D
:10531000014B2360204610BD7C890208FDF715B9BA
:105320007047043870477047C06803681B6B1847A4
:10533000A0F10400FFF7F8BF10B5102104461FF0DC
:10534000AFFE204610BDA0F10400F5E710B5002225
:105350008260044AC16002F10804243204604260A1
:1053600010BD00BFA88902087047000010B5034BAC
:1053700003600446FEF742FA204610BDE0890208A9
:1053800010B50446FFF7F2FF204641F648211FF012
:1053900087FE204610BD000010B50446FDF7CAFC8C
:1053A000014B2360204610BDE0890208FDF735BCA3
:1053B00000F5387005F075B8704710B54FF4AE7150
:1053C00004461FF06DFE204610BD10B50446D0F80F
:1053D000580100F054F82046BDE810400DF0F8BF29
:1053E00010B50446FEF79EFA014B2360204610BD1F
:1053F0001C8A0208704704387047704710B51021A6
:1054000004461FF04DFE204610BDA0F10400F5E754
:1054100010B500228260044AC16002F10804203203
:105420000460426010BD00BF688A02087047000037
:1054300010B5034B03600446FEF7BCFE204610BDCA
:105440009C8A020810B50446FFF7F2FF20464FF48D
:10545000C8611FF025FE204610BD000010B50446AF
:10546000FEF764FF014B2360204610BD9C8A0208B2
:10547000FEF706BF0021F022C0E900127047036862
:1054800041681A68184692681047000010B5034B2F
:1054900003600446FFF776F8204610BDD48A020860
:1054A00010B50446FFF7F2FF20464FF406711FF0D7
:1054B000F7FD204610BD000010B50446FFF7B6F812
:1054C000014B2360204610BDD48A0208FFF75BB869
:1054D000704704387047704710B5102104461FF01C
:1054E000DFFD204610BDA0F10400F5E710B5002255
:1054F0008260044AC16002F1080420320460426004
:1055000010BD00BF608B02087047000010B5034B50
:1055100003600446FFF773FB204610BD948B02081E
:1055200010B50446FFF7F2FF204640F264411FF039
:10553000B7FD204610BD000010B50446FFF7D2FBB2
:10554000054B23600023C4F84834C4F84C34C4F835
:105550005034204610BD00BF948B020838B5044675
:1055600004F5E075FFF74CFB284606F027FAC4F86F
:105570005804284606F03BFAC4F85C04284606F0B6
:1055800039FAC4F8600438BD10B5044690F85034B8
:1055900090F84C2490F8481400F5E07006F0C3F938
:1055A000D4F84834C4F85834D4F84C34C4F85C34D3
:1055B000D4F85034C4F8603410BDD0F85434D0F866
:1055C0005C14D0F8582470B401333C25C0F854342E
:1055D00093FBF5F605FB1633D0F8604423B901348C
:1055E0003B2C0CDCC0F8604490F8603490F85C24EC
:1055F00090F8581470BC00F5E07006F094B90131D1
:105600003B29C0F8603402DCC0F85C14ECE70132DE
:10561000C0F85C34172AD8BF1346C0F85834E3E703
:1056200007B5D0F8481402460131C0F8481492F882
:10563000503492F84C2400F59470C9B2019006F0F1
:1056400072F9019803B05DF804EB0EF0E5BE07B502
:10565000D0F8481402460139C0F8481492F8503482
:1056600092F84C2400F59470C9B2019006F05BF9F1
:10567000019803B05DF804EB0EF0CEBE07B5D0F88C
:105680004C2401460132C0F84C2491F8503491F872
:10569000481400F59470D2B2019006F044F90198D4
:1056A00003B05DF804EB0EF0B7BE07B5D0F84C249C
:1056B0000146013AC0F84C2491F8503491F848144E
:1056C00000F59470D2B2019006F02DF9019803B064
:1056D0005DF804EB0EF0A0BE07B5D0F850340146DB
:1056E0000133C0F8503491F84C2491F8481400F577
:1056F0009470DBB2019006F016F9019803B05DF8E2
:1057000004EB0EF089BE07B5D0F850340146013BDA
:10571000C0F8503491F84C2491F8481400F5947076
:10572000DBB2019006F0FFF8019803B05DF804EBDE
:105730000EF072BEF02070474FF4A0707047292021
:10574000FCF7C4B92820FCF7C1B908B5FCF792F9F9
:10575000CA20FCF7BBF9C320FCF79CF90820FCF732
:1057600099F95020FCF796F9CF20FCF7AFF900200B
:10577000FCF790F9C120FCF78DF93020FCF78AF98D
:10578000ED20FCF7A3F96420FCF784F90320FCF773
:1057900081F91220FCF77EF98120FCF77BF9E820E3
:1057A000FCF794F98520FCF775F90020FCF772F9F5
:1057B0007820FCF76FF9CB20FCF788F93920FCF74B
:1057C00069F92C20FCF766F90020FCF763F9342016
:1057D000FCF760F90220FCF75DF9F720FCF776F999
:1057E0002020FCF757F9EA20FCF770F90020FCF7BD
:1057F00051F90020FCF74EF9B120FCF767F90020C1
:10580000FCF748F91B20FCF745F9B620FCF75EF9D8
:105810000A20FCF73FF9A220FCF73CF9C020FCF776
:1058200055F91020FCF736F9C120FCF74FF910208C
:10583000FCF730F9C520FCF749F94520FCF72AF9B7
:105840001520FCF727F9C720FCF740F99020FCF75A
:1058500021F93620FCF73AF9C820FCF71BF9F220B1
:10586000FCF734F90020FCF715F9B020FCF72EF90D
:10587000C220FCF70FF9B620FCF728F90A20FCF744
:1058800009F9A720FCF706F92720FCF703F9042003
:10589000FCF700F92A20FCF719F90020FCF7FAF8C8
:1058A0000020FCF7F7F80020FCF7F4F8EF20FCF7F5
:1058B000F1F82B20FCF70AF90020FCF7EBF80020A8
:1058C000FCF7E8F80120FCF7E5F83F20FCF7E2F8E8
:1058D000F620FCF7FBF80120FCF7DCF80020FCF7D1
:1058E000D9F80620FCF7D6F82C20FCF7EFF8C820F2
:1058F000FCF73AF92620FCF7E9F80120FCF7CAF892
:10590000E020FCF7E3F80F20FCF7C4F82920FCF7AF
:10591000C1F82420FCF7BEF80C20FCF7BBF80E20E1
:10592000FCF7B8F80920FCF7B5F84E20FCF7B2F800
:105930007820FCF7AFF83C20FCF7ACF80920FCF726
:10594000A9F81320FCF7A6F80520FCF7A3F8172008
:10595000FCF7A0F81120FCF79DF80020FCF79AF85E
:10596000E120FCF7B3F80020FCF794F81620FCF7D0
:1059700091F81B20FCF78EF80420FCF78BF811201F
:10598000FCF788F80720FCF785F83120FCF782F84F
:105990003320FCF77FF84220FCF77CF80520FCF769
:1059A00079F80C20FCF776F80A20FCF773F8282029
:1059B000FCF770F82F20FCF76DF80F20FCF76AF861
:1059C0001120FCF783F8C820FCF7CEF82920FCF75B
:1059D0007DF8BDE808402C20FCF778B808B5FCF746
:1059E00049F80321D320FCF78DF880B208BD10B52B
:1059F000C4B2022203212046FBF7F2FF0A20FCF783
:105A000037F8204600220321FBF7EAFFBDE81040EB
:105A10000220FCF72DB838B50446E4B2FBF7DEFFF0
:105A200000212046FBF7F4FF012105462046FBF745
:105A3000EFFF40EA052080B238BD10B5C4B2402166
:105A40002046FBF7E5FF030607D54C212046FBF770
:105A5000DFFF003818BF012010BD01224B21204676
:105A6000FBF7BEFF204600224B21FBF7B9FF0020C9
:105A7000F2E773B50423C4B20E461546D7210DEBE9
:105A800003022046FBF7DEFF019B1BBA1A0DC3F38E
:105A90000B23328020462B8001224B21FBF7A0FFF5
:105AA00000224B212046FBF79BFF02B070BD000097
:105AB00010B50A4B1A78904204460DD059788842A6
:105AC0000AD00AB141B901229C54FBF787FF204656
:105AD000BDE81040FFF78BBF10BD00BF383000207D
