:020000040800F2
:10000000000003202D0600088D2000088F20000826
:1000100091200008932000089520000800000000AF
:10002000000000000000000000000000D185000872
:10003000972000080000000061860008ED7E00089F
:100040007D0600087D0600087D0600087D06000884
:100050007D0600087D0600087D0600087D06000874
:100060007D0600087D0600087D0600087D06000864
:100070007D0600087D0600087D0600087D06000854
:100080007D0600087D0600087D0600087D06000844
:100090007D0600087D0600087D0600087D06000834
:1000A0007D0600087D0600087D0600087D06000824
:1000B0007D0600087D0600087D0600087D06000814
:1000C0007D0600087D0600087D0600087D06000804
:1000D0007D0600087D0600087D0600087D060008F4
:1000E0007D0600087D0600087D0600087D060008E4
:1000F0007D0600087D0600087D0600087D060008D4
:100100007D0600087D0600087D0600087D060008C3
:100110007D0600087D060008992000087D0600087D
:100120007D0600087D0600087D0600087D060008A3
:100130007D0600087D0600087D0600087D06000893
:100140007D0600087D0600087D0600087D06000883
:100150007D0600087D0600087D0600087D06000873
:100160007D0600087D0600087D0600087D06000863
:100170007D0600087D0600087D06000800000000DE
:100180007D0600087D0600087D0600087D06000843
:100190007D0600087D0600087D0600087D06000833
:0C01A000A52000087D060008B120000822
:1001B00010B5054C237833B9044B13B10448AFF3A1
:1001C00000800123237010BD6401002000000000A6
:1001D000186E020808B5034B1BB103490348AFF37F
:1001E000008008BD0000000068010020186E0208B1
:1001F00001F0FF01102A2BDB10F0070F08D010F8D8
:10020000013B013A8B422DD010F0070F42B3F6D1DB
:10021000F0B441EA012141EA014122F007047FF0F4
:1002200000070023F0E80256083C85EA010586EA4B
:10023000010685FA47F5A3FA87F586FA47F6A5FA87
:1002400087F68EB9EED1F0BC01F0FF0102F0070293
:1002500032B110F8013B013A83EA010313B1F8D13E
:100260000020704701387047002D06BF354603381F
:10027000073815F0010F07D1013015F4807F02BF58
:10028000013015F4C03F0130F0BC0138704700BFA9
:100290007BB972B90029BEBF00204FF0004106E0D3
:1002A00008BF00281CBF6FF000414FF0FF3000F086
:1002B000BBB9ADF1080C6DE904CE002909DB002BB8
:1002C0001ADB00F04DF8DDF804E0DDE9022304B0AC
:1002D0007047404261EB4101002B1BDB00F040F80E
:1002E000DDF804E0DDE9022304B0404261EB4101A6
:1002F000524263EB43037047524263EB430300F007
:100300002FF8DDF804E0DDE9022304B0404261EBA0
:1003100041017047524263EB430300F021F8DDF8DE
:1003200004E0DDE9022304B0524263EB430370476B
:1003300053B94AB9002908BF00281CBF4FF0FF314C
:100340004FF0FF3000F070B9ADF1080C6DE904CE4C
:1003500000F006F8DDF804E0DDE9022304B07047A0
:100360002DE9F047089E0D4604460F46002B4AD162
:100370008A42944665D9B2FA82F343B102FA03FC89
:10038000C3F120029F4020FA02F217439C404FEA3B
:100390001C4E1FFA8CF5B7FBFEF1220C0EFB1177F9
:1003A00042EA074201FB05F090420AD91CEB020227
:1003B00001F1FF3780F01C81904240F2198102392F
:1003C0006244121AA4B2B2FBFEF00EFB102244EA01
:1003D000024400FB05F5A5420AD91CEB040400F118
:1003E000FF3280F00781A54240F204816444023864
:1003F00040EA0140641B00211EB1DC400023C6E935
:100400000043BDE8F0878B4208D9002E00F0ED8054
:100410000021C6E900050846BDE8F087B3FA83F17C
:10042000002949D1AB4202D3824200F2F880841AFB
:1004300065EB030201201746002EE2D0C6E9004713
:10044000DFE702B9FFDEB2FA82F3002B40F09080C2
:100450008A1A4FEA1C471FFA8CFE0121B2FBF7F5FE
:1004600007FB1520220C42EA00420EFB05F09042E9
:1004700008D91CEB020205F1FF3802D2904200F2CB
:10048000CB804546121AA4B2B2FBF7F007FB10224C
:1004900044EA02440EFB00FEA64508D91CEB040406
:1004A00000F1FF3202D2A64500F2BB801046A4EB59
:1004B0000E0440EA05409FE7C1F120078B4022FA75
:1004C00007FC4CEA030C05FA01F420FA07F3FD409F
:1004D0004FEA1C492343B5FBF9F81FFA8CFE09FBD0
:1004E00018551C0C44EA054408FB0EF5A54202FA17
:1004F00001F200FA01F00BD91CEB040408F1FF3AF9
:1005000080F08880A54240F28580A8F1020864440A
:10051000641B9DB2B4FBF9F309FB134445EA0444A0
:1005200003FB0EFEA64508D91CEB040403F1FF35BE
:100530006CD2A6456AD9023B644443EA0843A3FB54
:100540000295A4EB0E04AC42C846AE4656D353D037
:1005500056B1B0EB080264EB0E0404FA07F7CA4088
:10056000CC401743C6E9007418460021BDE8F08767
:10057000C3F1200102FA03FC20FA01F225FA01F18D
:100580009D402A434FEA1C471FFA8CFEB1FBF7F04F
:1005900007FB1015110C41EA054100FB0EF58D42D9
:1005A00004FA03F408D91CEB010100F1FF382FD243
:1005B0008D422DD902386144491B92B2B1FBF7F547
:1005C00007FB151142EA014205FB0EF1914208D9E1
:1005D0001CEB020205F1FF3816D2914214D9023DFC
:1005E0006244521A45EA004138E73146304608E78E
:1005F0003946E6E61046FBE64845A9D2B9EB0208C3
:1006000065EB0C0E013BA3E74546EAE72B4694E772
:100610004046D1E7D0467BE7023D624432E70846D8
:100620000AE76444023842E7704700BFDFF834D07D
:10063000002103E00C4B5B58435004310B480C4B3A
:1006400042189A42F6D30B4A02E0002342F8043BD8
:10065000094B9A42F9D305F0E9F925F061FE00F063
:10066000FDFF704700000320B8E3150800000020DC
:100670006401002064010020CC490120FEE770479E
:1006800008B500F069FDBDE8084000F0EBBC00F0E3
:1006900065BD704710B50421044624F04DFC20468A
:1006A00010BD000038B50C4B0C4C18800C4B822050
:1006B00019806368984740F6110398420AD1094DA2
:1006C00023682C60822098472B688220DB6898473B
:1006D000002038BD0120FCE7800100204C000020F4
:1006E00082010020840100204FF4A071F020FFF768
:1006F000D9BF0000F7B5334D2B6804461B69822033
:10070000984780B2208000284AD02B680DF106025D
:100710005B6901A982209847BDF8063040F67462F3
:1007200093423FD9ADF80620BDF80630D21A92B2F6
:100730000A2A3DD90B23B2FBF3F2234B1B889A42C2
:1007400001D9013B9AB2BDF8043040F6B8318B4272
:1007500030D8C3F571630E339BB20F21B3FBF1F3B5
:100760001A4909888B4201D901398BB2184E194DAB
:1007700030682F68834281B28CBF591AC91AB8B247
:10078000BA428CBF101A801A89B280B2014405297E
:10079000C8BF33603368C8BF2A6063802B68A380FA
:1007A00003B0F0BDB32B9CBFB423ADF80630BBE75C
:1007B0000022C8E7C3F56D6308339BB20E2BCCD87B
:1007C0000023D3E784010020820100208001002063
:1007D000880100208C01002037B568460D4614467C
:1007E000FFF788FFBDF8000030B1BDF802302B6084
:1007F000BDF804302360012003B030BD032821D8A8
:10080000DFE800F0020B12190F4B1A68B2FA82F2FD
:10081000520904210D4805F0A1BB0B4B5A68B2FAEE
:1008200082F252090821F5E7074B9A68B2FA82F280
:1008300052091021EEE7044BDA68B2FA82F252094B
:100840002021E7E7704700BF900100200010024020
:10085000032821D8DFE800F0020B12190F4B1A68A9
:10086000003A18BF012204210D4805F077BB0B4B5D
:100870005A68003A18BF01220821F5E7074B9A6829
:10088000003A18BF01221021EEE7044BDA68003A63
:1008900018BF01222021E7E7704700BF9001002028
:1008A0000010024003280DD8DFE800F00206080A15
:1008B0000421054805F057BB0821FAE71021F8E7A5
:1008C0002021F6E7704700BF0010024008B503285A
:1008D00011D8DFE800F0020A0C0E0421074805F0E9
:1008E00037FB431E5842584108BD0821F6E7102146
:1008F000F4E72021F2E70020F3E700BF00100240F8
:1009000070B5084D00240126E0B2FFF7DFFF18B1F3
:100910002B68012B18BF2E600134052C05F104054E
:10092000F2D170BD90010020012380F8781080F88A
:100930007930704700207047034B4164003918BF7D
:1009400001211970704700BF933D012000207047BE
:10095000836B0BB10846184770474FF6FF7070471E
:10096000406803689B6918477047704770470000EC
:1009700010B5044600F008FD23680349D3F88C3015
:100980002046BDE810401847000000D008B50368B5
:100990000446D3F880309847236820469B6F9847D9
:1009A00000F0ECF8236820461B6F9847292001F0DF
:1009B0008DF800F0E3F8236820461B6F9847F8E7AE
:1009C00010B504460CF06EFC23682046D3F8AC301A
:1009D000BDE81040184700F0B9BC00F0BDBC00F005
:1009E000F1BC00F08FBC00F00DBD00F0F7BC00F0D2
:1009F00093BC0BF0C2BE10B57C21044624F09CFAD7
:100A0000204610BD90F87A301BB1406803681B681F
:100A1000184718467047000010B590F8341090F849
:100A200078400C4B8C421A7809D03AB90A4A0B49E3
:100A30001488088810800C8001221A7010BD002ACA
:100A4000FCD0054A05491488088810800C800022D3
:100A5000F3E700BF8C3D0120883D01208A3D012045
:100A600070B50D46194635B9094B0A4A0A4840F295
:100A7000D22125F0A7F9C0E90F52084B003A18BF60
:100A800001221A700368BDE87040D3F88C30184713
:100A9000886E0208C06E02080E6F0208923D0120A7
:100AA00008B5094B1B888B4203D8084B1B8893421F
:100AB00005D9074B074A08489E2125F083F9074BC3
:100AC0001980074B1A8008BD883D01208A3D01200E
:100AD000536F0208B66F02080E6F02088E3D0120A8
:100AE000903D0120012108B50022084607F08BFA4D
:100AF0000A4B186028B90A4B0A4A28210A4825F0EF
:100B000061F900220421012007F01AFB074B18604D
:100B100018B9074B034A2C21F0E708BDA4010020B7
:100B2000D47002081D7102084C710208A001002057
:100B300099710208024B4FF0FF31186807F0ADBA07
:100B4000A4010020014B186807F0D2BAA4010020CC
:100B5000024B0021186807F0A0BA00BFA4010020D2
:100B6000FFF7F0BF03480449006800231A4607F066
:100B700022BB00BFA00100200400002013B5084CD8
:100B800000231A4601A9206807F045FB20684FF0B2
:100B9000FF33002201A907F03EFB02B010BD00BFE9
:100BA000A001002003685B6C1847012070470368B0
:100BB0009B6A184740F2EF3070470000054B036016
:100BC000054B4FF08062C3F88820BFF34F8FBFF30F
:100BD0006F8F70473873020800E100E010B50446DB
:100BE0004FF45A61FFF7EAFF204624F0A5F92046AA
:100BF00010BD000082B0002301930D4B1A6B42F42C
:100C000000021A631A6B02F400020192019A1A6937
:100C100042F400021A611A6922F400021A61054BBB
:100C2000054A1A61054B4FF080629A6002B0704726
:100C300000380240342D0020410C000800E100E0A3
:100C4000024B1B68586803685B691847943D012094
:100C500070B5044625460A4B0C30002660602672AB
:100C6000667245F8203B602229460CF073FC04F5BF
:100C70005A63EE602435AB42FBD1204670BD00BF05
:100C80003873020808B50B290BD8DFE801F012060B
:100C9000100A0A0A0A0808080808012008BD0520E9
:100CA000FCE7054B054A0648652125F08BF8002036
:100CB000F4E70220F2E700BFDB710208F6710208D8
:100CC0004072020808B50A2909D8DFE801F01006C9
:100CD0000E080808080606060600012008BD054B98
:100CE000054A0648862125F06DF80020F6E7022027
:100CF000F4E700BFDB7102088B7202084072020841
:100D00002DE9F84391F81D800C4641460746FFF750
:100D1000B9FF94F81E90054649463846FFF7B2FFE2
:100D2000494606463846FFF7CDFFA18A628B434B02
:100D3000521A1A649A61228B521A1A61E28A586313
:100D400042EA01425A6420696268D863DA6027681F
:100D5000802F28D0227F0FD8202F65D0402F63D03E
:100D6000042F1AD0354B45EA026545F40035C845D5
:100D7000DD615FD0324A44E0B7F5807F04D0B7F53B
:100D8000007FEFD12F4900E02F4941EA0262DA618A
:100D9000E2681A625E62586132E045EA026242F439
:100DA0000032DA61F6E7A7683A1DDA62217F3A7805
:100DB00045EA016545F40035DD615E62586142B186
:100DC000012A21D0214B224A22484FF4887124F075
:100DD000F9FFDA69798822F47F42013922F01002A2
:100DE00042EA0122DA610121144BDA6942F0200261
:100DF000DA61DA699206FCD410229A600029B9D02F
:100E0000154A1A60BDE8F883DA69788822F47F42CF
:100E1000013822F0100242EA0022FF3942F01002AB
:100E200018BF0121DA61DFE745EA0262034B42F4B1
:100E30000032B6E740F20122E3E700BF00B0024013
:100E400001020100090002000A000200D672020835
:100E5000F0720208407202080102020038B50C4626
:100E6000897FFFF72FFFA58AE28A164B2169586315
:100E700042EA05425A64628BD963521B1A642568A0
:100E8000082D0ED19A611A615862207F0E4A42EAFB
:100E90000062DA61E2681A620C4A5961D9601A602C
:100EA00038BD0022D8611A61E1680A0A480902F4D3
:100EB000784200F4FC600243C1F3C4010A439A6320
:100EC000034AECE700B00240090001000102020001
:100ED00001020300034B1A68D207FCD423229A6054
:100EE000704700BF00B0024030B50F4C2568ED07D9
:100EF000FCD423250904A56041F001010225FF2B44
:100F000065636164E0630AD00849656241EA03638E
:100F1000E361074B22626061E060236030BDE56100
:100F2000039BA363034BF8E700B0024009000100F4
:100F30000100020001000300012070470C207047EF
:100F40000C2303FB0100083070470C2303FB010056
:100F500008307047012070474FF4D25070474FF46B
:100F6000D25303FB0100083070474FF4D25303FB08
:100F7000010008307047012070471020704700EBD7
:100F800001100830704700EB011008307047084628
:100F900002F05CBC10B5034B0360044609F0BDF8D9
:100FA000204610BDF073020810B50446FFF7F2FFAB
:100FB0002046142123F0C0FF204610BD10B5034B7E
:100FC0000360044609F0A9F8204610BDBC7302086E
:100FD00010B50446FFF7F2FF204641F6482123F002
:100FE000ABFF204610BD000010B5034B0360044664
:100FF00009F093F8204610BD8873020810B5044626
:10100000FFF7F2FF2046182123F096FF204610BD7F
:1010100010B5094B0360044600F5D3501430FFF7B8
:10102000B9FF04F12C00FFF7C9FF04F11400FFF72A
:10103000DBFF204610BD00BF2474020808B502483B
:10104000FFF7E6FF08BD00BFAC01002010B5044665
:10105000FFF7DEFF204641F6E83123F06DFF204622
:1010600010BD00002DE9F34101F040FA054601F002
:1010700041FA00240146234628462246009415F0F2
:101080007BFD284B284A1A60204603F0CBFC274BF7
:10109000274A284D9A60284815F0D6FC2B68BFF3E4
:1010A0005B8FDB0737D4284623F048FF98B3234CE7
:1010B000234B236004F1140000F5D35707F1180601
:1010C00004F12C086060C4F80880E760266109F02C
:1010D00025F81C4B6361404609F020F81A4BE36287
:1010E000384609F01BF804F58053184AC3F8742AEF
:1010F00003F6882004F094F9224607F114013046E3
:1011000004F044F9304602F0A1FB114824F078FEC7
:10111000284623F01FFF0F4802B0BDE8F041FFF75B
:1011200027BC00BFF83D0120D02B0020D42B00208D
:10113000941D0020A801002008000020AC01002020
:101140002474020888730208BC730208F073020852
:101150003D100008542B0020704700000148FFF7A5
:1011600015BC00BF542B002070B5244E244C254DD7
:10117000254B23603046FFF76BFD284619F0CEFF64
:10118000224813F04BF9224B2248DC6000224FF436
:101190008071C3E9121220491A86C3E91A121F4945
:1011A00099671F4983F858200B60F02101801D4882
:1011B0005A6601801C4883F870204FF4A071C3E97F
:1011C0000422C3E90622C3E90822C3E90A22C3E9CB
:1011D0000E22C3E91022C3E91422C3E917225A6779
:1011E000C3E9016501801148018011490A7001229B
:1011F00083F834200F4A1A6070BD00BFB41D002070
:10120000B01D0020D42B0020786E0208941D002011
:10121000542B0020883D0120010000010000010145
:10122000943D01208E3D01208A3D0120903D01200A
:101230008C3D0120047002080148FFF7BFBC00BFCD
:10124000B41D00200020704781807047C180704726
:101250000181704741817047704770477047704700
:10126000704710B4C4880368121B84885B6D091B27
:1012700012B25DF8044B09B218474FF6FF73838131
:101280004FF0FF3303621368C3611060704790F83A
:1012900025201AB190F8242002B118607047002070
:1012A00070478B88838001207047704780F8261034
:1012B000704790F82600704710B50022B1F9084039
:1012C000B1F90A10028042808480C18010BD0022E2
:1012D000028042808280C28070470177704780ED33
:1012E000080A704780F82410704780F8251070476E
:1012F00001207047983070478C30704784307047B9
:1013000070470000034B902283F85A2383F8582338
:10131000704700BF00E100E0094A0A49D3680A4863
:10132000C3F30A03013B9BB20B801169C1F30A01AD
:10133000013901801364536B43F001035363704719
:1013400000680140622C0020602C0020014BD3F883
:10135000AC00704700680140024B0122C3F8AC109A
:101360005A627047006801407047704710B52C21E1
:10137000044623F0E1FD204610BD10B5BC21044613
:1013800023F0DAFD204610BD70B504460BF04BFA91
:1013900023685D6E11F0CCFE01462046A847236805
:1013A000054AD3F888502046AC460023BDE870407B
:1013B000A2F51631604700BF00B004D00BF01ABA96
:1013C0000BF024BA0BF0DFB90BF041BB90F82520ED
:1013D00012B103685B69184770470000084B4FF073
:1013E0008062C3F88820BFF34F8FBFF36F8F4FF039
:1013F0008072C3F88820BFF34F8FBFF36F8F7047A1
:1014000000E100E0034B4FF080629A604FF0807281
:101410009A60704700E100E070B50023124E8380AF
:10142000124B0360336893F8582005460AB1D86C14
:1014300000B998680368DB6A98473368B0FA80F4AB
:10144000D86C640930B10368DB6A9847002808BF8C
:1014500044F001042CB9064B064A07482C2124F01D
:10146000B1FC284670BD00BF943D012034750208D0
:10147000307402088E740208C774020870B5244ED6
:101480003568BFF35B8F15F001053FD1304623F07F
:1014900055FD00283AD01F4C1F4B256104F1340044
:1014A000C4E90035C4E90255E584A562A58513F0B9
:1014B00014FA04F158000EF083F9184BA365204686
:1014C000174B40F8843BFFF7A7FF164BC4F8843056
:1014D0002433C4F88C306423C4E928350023C4F8CD
:1014E000AC30C4F8B030C4F8B430C4F8B8300E48EA
:1014F0000E4BC4F89050C4F89C50C4F8A850C4F8DF
:10150000983024F07DFC304623F024FD014870BD66
:101510005C2C0020642C00205493020854750208AF
:10152000CC7502080893020801130008E89202082B
:1015300010B5144C236823B3134B144A1B6C118849
:101540008B4213D1124B198805F014FB226892F8D4
:101550006A30013382F86A30FFF704FB20680BF031
:10156000A1FEBDE810400020FFF748B905F002FBDE
:10157000206803681B6A9847BDE810400020FFF709
:1015800067B910BD943D012000680140622C002025
:10159000602C002007B5064BADF806001B68054817
:1015A00001220DF1060106F047F803B05DF804FBD7
:1015B00010000020A42E002008B5642006F017FDBE
:1015C000FBE7000030B595B0102200210AA824F0F6
:1015D000FEFD1422002103A824F0F9FD00241D4B78
:1015E00001941A6C42F080521A641B6C03F0805311
:1015F0000193019B184B02941A6842F440421A600E
:101600001B6803F4404302930122029B4FF4803392
:10161000CDE9082302254FF48003CDE90E530821BC
:101620004FF4A873CDE9101308A80423139312955F
:1016300005F0BEFA0F23CDE903354FF4A0504FF467
:101640008053CDE90603052103A8059405F08AFC23
:1016500015B030BD003802400070004080B59AB02F
:1016600004F0F2F9FFF7AEFF142200210DA80024C8
:1016700024F0ADFDC04B00941A6BC048C04D42F041
:1016800010021A631A6B02F010020092009A019481
:101690001A6B42F020021A631A6B02F020020192C8
:1016A000019A02941A6B42F080021A631A6B02F0DC
:1016B00080020292029A03941A6B42F004021A63A7
:1016C0001A6B02F004020392039A04941A6B42F01C
:1016D00001021A631A6B02F001020492049A059443
:1016E0001A6B42F002021A631A6B02F002020592B0
:1016F000059A06941A6B42F040021A631A6B02F0C4
:1017000040020692069A07941A6B42F008021A6386
:101710001B6B03F00803079322463C21079B04F050
:101720001DFC98482246042104F018FC22469648E5
:101730004FF4405104F012FC01264FF003083C2303
:101740008E48CDF840800DA902274FF00409CDE95D
:101750000D360F9404F016FB8A480F940DA9CDE9BD
:101760000D96109704F00EFB0DA94FF440538648D8
:10177000CDE90D36CDE90F4704F004FB8348844BD7
:10178000036004F0F3F9834A834B2C62C5E900231C
:1017900028464FF48043C5E90434C5E90244C5E94D
:1017A000064404F0E7FD1021284605F02BF82146F9
:1017B000284605F046F87948794984624FF48273E7
:1017C000C0E900134FF400751823C0E906530A233B
:1017D000744DC362C0E90244C0E90444C0E908444E
:1017E00005F0CEFE704B0D974FF0100CC5E900369A
:1017F0004023C5E904C34FF4C073C5E906344FF470
:101800000063C5E908344FF40053AB620DA9072308
:101810002846CDE90E39CDE910384FF0080AC5E960
:101820000249CDE9127705F08FFD4FF6FF7209A945
:101830002846CDE90AA6089409960C9405F0A4FD63
:10184000304604F02DF94FF6FF7209A92846CDE97C
:10185000097ACDE90B6405F097FD4FF6FF7209A9EF
:101860002846CDE9098ACDE90B9405F08DFD4FF4AA
:101870000C730893089B0C934FF6FF7209A9284636
:10188000CDE9099A0B9605F07FFD40F26A51284692
:1018900005F098FD342221460DEB020024F097FC60
:1018A000424D434BAC86C5E900340923C5E90536F2
:1018B0001D2340F20D1EC5E9073840F24313C5E968
:1018C00009E3284640F2471340F21718C5E90B8395
:1018D000C5E902442C6185F8364005F053F8FF2134
:1018E000F022CDE912144FF4806905214FF4A07362
:1018F000CDE90E24CDE91491CDE916420DA9224679
:101900002846CDE910372B4D18930D94ADF864405F
:101910008DF8664005F001F9274B2B601B6898474E
:101920002B68264DDB689847254BC5E90A47C5E972
:101930000C442846C5E90034C5E9027404F026F9D0
:101940003146284604F0DAF9FEF79AFEFEF797FED4
:1019500006F0DAFA1B4A1C48214606F001FB1B4B35
:101960001B4A186021461B4806F0FAFA1A4B186009
:1019700006F0DCFAFEE700BF00380240001002402B
:10198000742D002000080240000C02402C2D002085
:1019900000300240005C0040A0860100A42E002020
:1019A00000500140702E0020400100A0C82D0020F2
:1019B00000680140242D002014000020342D002058
:1019C00000B002404C760208B9150008282D00200E
:1019D000287602088F060008202D002070477047E7
:1019E0007FB5094B8DF817201B6802930DF1170284
:1019F0000123009201930A460146044804F062FD67
:101A000007B05DF804FB00BF0C000020742D00201F
:101A10007FB500238DF81730084B1B6802930A46E8
:101A200001230DF11701009101930146044804F0D0
:101A3000D9FD9DF8170007B05DF804FB0C000020ED
:101A4000742D00201FB5084C24680092CDE90134A4
:101A50000A4601230146054804F0C4FD003818BFBA
:101A6000012004B010BD00BF0C000020742D002028
:101A700004F016B808B506480022042104F06EFAF6
:101A8000BDE8084002480122042104F067BA00BF03
:101A90000008024038B50B4D044601220A484FF4B5
:101AA000005104F05BFA00220421284604F056FAA3
:101AB0002046FFF76FFD28460122BDE8384004218B
:101AC00004F04CBA00080240000C024038B50B4D3F
:101AD000044600220A484FF4005104F03FFA002265
:101AE0000421284604F03AFA2046FFF753FD284621
:101AF0000122BDE83840042104F030BA0008024059
:101B0000000C0240F7B5144E144F05460C46304603
:101B10000022042104F022FA00224FF4005138463A
:101B200004F01CFA2846FFF735FD0D4B0D481B68E5
:101B3000224601A905F029FF384601224FF4005141
:101B4000019C04F00BFA30460122042104F006FA4D
:101B5000204603B0F0BD00BF00080240000C024068
:101B600010000020A42E002003F09ABF0268034B4F
:101B70009A4201D103F082BF704700BF00100040BD
:101B80007047000082B00E4B00220092596C41F465
:101B900080415964596C01F480410091009901928F
:101BA000196C41F0805119641B6C03F08053019350
:101BB000019B0F216FF0010002B003F097BF00BF3F
:101BC000003802400268094B9A4282B00BD10023D0
:101BD0000193074B1A6B42F480521A631B6B03F498
:101BE00080530193019B02B0704700BF0030024058
:101BF0000038024007B50F4B02689A4216D1002206
:101C0000A3F5F0430192196B41F4000119631B6BBA
:101C100003F40003019305215A20019B03F066FFA2
:101C20005A2003B05DF804EB03F092BF03B05DF8F7
:101C300004FB00BF00B002402DE9F043044689B028
:101C40001422002103A824F0C2FA2268244B9A42ED
:101C500043D1244C244800250095236B43F0040312
:101C60002363236B03F004030093009B0195236B14
:101C700043F001032363236B03F001030193019BF2
:101C80004FF012094FF400734FF0010803270426A8
:101C900003A9CDE90339CDE90587079604F072F869
:101CA0004FF480731148079603A9CDE90339CDE9B4
:101CB000058704F067F80295236C43F4000323645E
:101CC000236C03F400030293029B236A43F4000392
:101CD0002362236A23F40003236209B0BDE8F08382
:101CE000005C004000380240000802400000024052
:101CF000F0B599B004461422002107A824F067FA31
:101D000030220DEB0200002124F061FA22685E4BC4
:101D10009A4240F0B78008230C93C0231093042309
:101D200012930CA84FF40033159305F0E3F908B1B2
:101D3000FFF726FF554B5648002400945A6C42F09A
:101D400080625A645A6C02F080620092009A019498
:101D50001A6B42F020021A631A6B02F02002019201
:101D6000019A02941A6B42F001021A631A6B02F094
:101D700001020292029A03941A6B42F002021A6361
:101D80001A6B02F002020392039A04941A6B42F057
:101D900040021A631A6B02F040020492049A0594FE
:101DA0001A6B42F004021A631A6B02F004020592E5
:101DB000059A06941A6B42F008021A631B6B03F033
:101DC0000803069302250E26069B0B964FF48063AC
:101DD00007A9CDE90735CDE9094503F0D3FF41F661
:101DE00058032C480B9607A9CDE907350927CDE9FB
:101DF000094503F0C7FF032327480B9707A9CDE93F
:101E00000735CDE9094503F0BDFF4FF47063224863
:101E10000B9607A9CDE90735CDE9094503F0B2FFD7
:101E20004FF40C631D480B9607A9CDE90735CDE9A2
:101E3000094503F0A7FFC02319480B9607A9CDE970
:101E40000735CDE9094503F09DFF082315480B969A
:101E500007A9CDE90735CDE9094503F093FF4FF414
:101E6000A0530E480B9707A9CDE90735CDE90945E1
:101E700003F088FF58202246052103F037FE582042
:101E800003F066FE19B0F0BD006801400038024062
:101E9000001402400000024000040240001802400A
:101EA00000080240000C024010B5044688B014221D
:101EB000002103A824F08BF92268144B9A4223D105
:101EC00003F56843002101915A6C114842F48012D5
:101ED0005A645A6C02F480120192019A02911A6BB0
:101EE00042F020021A631B6B03F020030293029B53
:101EF0004FF4607202230321CDE903230523CDE9CA
:101F0000061303A903F03EFF08B010BD00500140C6
:101F1000001402402DE9F04186B0002303932B4BBF
:101F20001C68002C4FD14FF00108C3F80080284BEB
:101F300000949A6B274842EA08029A639B6B03EA73
:101F400008030093022703260C25009B01A94FF6E6
:101F50003F03CDE90137CDE9046503F013FF1E48C7
:101F6000059501A9CDE90187CDE9034603F00AFFF4
:101F700048F233131948059501A9CDE90137CDE998
:101F8000034603F0FFFE4FF683731548059501A93C
:101F9000CDE90137CDE9034603F0F4FE4CF20373BB
:101FA0001048059501A9CDE90137CDE9034603F0B5
:101FB000E9FE60230C48059501A9CDE90137CDE97B
:101FC000034603F0DFFE06B0BDE8F081FC2E0020E2
:101FD000003802400014024000080240001802408D
:101FE00000100240000C02400004024070B588B0AE
:101FF00000230293204B1A6C42F010021A641B6CEF
:1020000003F010030293054601A903A8029B05F003
:1020100053F8069B4BBB05F03FF8184E184B336046
:1020200040F2E733F360174BB0FBF3F3013B73600F
:10203000304600233361B360B36105F08BFE044684
:1020400080B9304605F048FD044658B9362003F003
:102050007FFD0F2D0DD822462946362003F046FD80
:10206000094B1D60204608B070BD05F015F8400012
:10207000D3E70124F6E700BF00380240002F00201C
:102080000010004040420F007C0000207047FEE737
:10209000FEE7FEE7FEE77047014805F05BBD00BFC5
:1020A000002F0020014804F0DBBC00BFC82D002039
:1020B000014803F099BD00BF342D00200120704776
:1020C00008B524F027F9162303604FF0FF3008BD50
:1020D00008B524F01FF916230360FEE770B50D461E
:1020E00014460E46731B9C4201DC204670BDAFF3C4
:1020F000008006F8010BF5E770B50D4614460E4654
:10210000731B9C4201DC204670BD16F8010BAFF337
:102110000080F5E74FF0FF3070474FF400534B60FD
:102120000020704701207047002070470A4A11685C
:1021300008B5034609B909491160106869460344A6
:102140008B4206D924F0E6F80C2303604FF0FF30F1
:1021500008BD1360FCE700BF482F0020D0490120D4
:1021600070477047704770477047704770477047B7
:10217000704730B4C26844685510034604EB6200EF
:10218000D20748BF62599B6830BC48BFD358184734
:1021900043682BB183682BB9C06800F00100704719
:1021A000184670470120704710B50821044622F0F8
:1021B000C3FE204610BD10B51021044622F0BCFE1F
:1021C000204610BD10B54FF4C071044622F0B4FE95
:1021D000204610BDE030884208B505D110F0A8FFB8
:1021E000BDE8084001F042BB08BD70B50368044675
:1021F0001B6B154698472368294620465B6BBDE854
:102200007040184770B504461D46BDF91060FFF7D1
:10221000ECFF2368294620469B6B9847236831468C
:102220002046DB6BBDE8704018470000094A026099
:102230004FF4807100228184FF21C0E90122C0E9AE
:102240000322C0E90522C0E9072280F82610826235
:10225000704700BFD89502084FF4807181840D4902
:1022600001600D4981624FF6FF7181854FF47F0156
:10227000002241634FF0FF31C0E90122C0E903228F
:10228000C0E90522C0E90722C0E9101202630287F3
:10229000C2637047489502083C7702081A4B73B531
:1022A0001B88018F8B4206462BD9184B1B682BB914
:1022B000174B184A18486C2123F084FD13F811209D
:1022C000164B1B6853F82250154B186802F0E6FBBA
:1022D0002B6801909B6B284698472B6801999B6C53
:1022E0000446284698472B6801995B6A14FB00F462
:1022F00028469847A4B223181BB2A6F8463002B06D
:1023000070BD0023F9E700BFF03D0120EC3D012046
:1023100070760208B2760208ED760208F43D0120DC
:10232000F83D01202DE9F04F04468BB0A246002570
:1023300012F058FE564BE5634AF8403B04F16C0B33
:10234000504604F19809FFF771FF5846FFF76EFFFA
:1023500004F1E0084846FFF77FFF04F59477404614
:102360000EF026FB3846FFF777FF4A4BC4E95C3492
:10237000494BC4E95E354FF4A0732A4600932946C1
:102380005046F023FFF73EFF261D4FF07F43A36624
:102390005146304609F086FA4FF4A0732A4600935E
:1023A00029465846F023FFF72DFF3C4BC4F89430E4
:1023B0005946304609F076FA0F2248461421FFF7B5
:1023C00014FF0DF1080A364BC4F8C8304946504690
:1023D000A4F8CC500DF0F2FA9AE8070004F1D40307
:1023E00083E80700DFF8BCB0CDF820B01C2308A9B3
:1023F0004846ADF824300DF07BFD4946304609F0E3
:1024000051FA40460722C521FFF7EFFE022308AA32
:1024100007A9ADF81C3040460323ADF820300DF07D
:102420009AFF1B23A4F818314046FFF737FF4FF0FF
:10243000FF3904F5B873C4F8083141463046C4E9A1
:10244000479909F02FFA4B2238461821FFF7CDFEA5
:1024500039465046C4F85891A4F85C510DF0AEFAD4
:102460009AE8070004F5B27383E807001A2308A965
:102470003846ADF82430CDF820B00DF039FD3046A7
:10248000394609F00FFA20460BB0BDE8F08F00BFC7
:10249000647702084C770208D52100082B2B2BFF0C
:1024A000808080FF3C770208704708B5042914D863
:1024B000DFE801F00B03070B0F0002F075FE406828
:1024C00008BD02F071FE8068FAE702F06DFE006858
:1024D000F6E702F069FEC068F2E70020F0E710B509
:1024E0000421044622F028FD204610BD0048704714
:1024F000A47702080F20704713B5002451B1036878
:1025000001948DF8034001AA9C680DF10303A047D4
:1025100002B010BD0846FBE7C0897047008A7047CB
:10252000C088704780887047807A00F07F007047CD
:10253000807AC00970470020704700009FED010AB3
:10254000704700BF0000000070477047704730B40C
:10255000C26844685510034604EB6200D20748BFC6
:1025600062599B6830BC48BFD358184743682BB1A9
:1025700083682BB9C06800F00100704718467047A7
:102580000120704710B51021044622F0D5FC2046EA
:1025900010BD10B54FF49961044622F0CDFC2046E1
:1025A00010BDE030884208B505D110F0C1FDBDE88E
:1025B000084001F05BB908BD2DE9F04F2DED0E8B01
:1025C00004468DB026464FF0000B12F00BFDEA4B8F
:1025D000C4F83CB046F8403B04F16C0A3046FFF7C3
:1025E00025FE04F198085046FFF720FE04F1E007AD
:1025F0004046FFF731FE04F5947938460EF0D8F9DD
:1026000048460EF077F804F5B27318460BEE103A10
:102610000EF070F804F5D07318460BEE903A0EF0F9
:1026200069F804F5EE7318460CEE103A0EF062F8F5
:1026300004F5067318460CEE903A0EF05BF804F5BC
:10264000157318460DEE103A0EF054F804F5247385
:1026500018460DEE903A0EF04DF804F53373184617
:102660000EEE103A0EF046F804F54273184608EEE6
:10267000103AFFF7F1FD04F55473184608EE903A4E
:10268000FFF7EAFD04F56673184609EE103AFFF706
:10269000E3FD04F57873184609EE903AFFF7DCFD88
:1026A00004F5856318460AEE103AFFF7D5FD04F5E8
:1026B0008E6318460AEE903AFFF7CEFDAF4BC4F892
:1026C000B834AF4BC4F8C0344FF4A0735A460093EB
:1026D00059463046C4F8BC44C4F8C4B4F023251DA0
:1026E000FFF790FD4FF07F43A3663146284609F07F
:1026F000D9F84FF4A0735A46009359465046F02338
:10270000FFF780FD9F4BC4F894305146284609F0EE
:10271000C9F80F22404614210DF1080AFFF765FDA4
:10272000994BC4F8C83041465046A4F8CCB00DF0DF
:1027300045F99AE8070004F1D4030AAE83E80700DC
:10274000924B0A93314619234046ADF82C300DF0D8
:10275000CFFB4146284609F0A5F838460722C52197
:10276000FFF743FD0223324609A9ADF8243038466D
:102770000323ADF828300DF0EEFD1823A4F818312E
:102780003846FFF78BFD4FF0FF33C4E9473304F5BC
:102790009763C4F808313946284609F083F848465B
:1027A0004FF481727D21FFF720FD4FF00B0208A945
:1027B000042709ABADF82420ADF8282048460A4686
:1027C0004FF01E0807A90096ADF81C70ADF82070F8
:1027D0000DF0FBFEC4F860814946284609F062F816
:1027E0001BEE100A4FF481720A21FFF7FEFC08A8C5
:1027F00002464FF00A0107A809ABADF82410ADF866
:102800002810009601461BEE100AADF81C70ADF8BA
:1028100020700DF0DAFE1BEE101AC4F89C812846D9
:1028200009F040F81BEE900AA0221D21FFF7DDFC05
:1028300008A8024607A84FF001086FF0061709AB79
:102840004FF00D09014600961BEE900AADF824905A
:10285000ADF82890ADF81C80ADF820B00DF0B5FEB5
:102860001BEE901AC4F8D871284609F01BF81CEE2C
:10287000100AA0226B21FFF7B8FC08A84FF00B024A
:10288000ADF82820024607A809AB014600961CEEC9
:10289000100AADF82490ADF81C80ADF820B00DF012
:1028A00094FE1CEE101AC4F81472284608F0FAFFC1
:1028B0001CEE900AD2221D21FFF797FC08A80246C1
:1028C00007A84FF00C0909AB014600961CEE900AD0
:1028D000ADF81C80ADF820B0ADF82490ADF828908C
:1028E0000DF073FE1CEE901AC4F85072284608F0E2
:1028F000D9FF1DEE100AD2226B21FFF776FC08A843
:10290000024607A809AB014600961DEE100AADF875
:102910001C80ADF820B0ADF82490ADF828900DF0F3
:1029200054FE1DEE101AC4F88C72284608F0BAFF47
:102930001DEE900AA022AF21FFF757FC08A84FF028
:102940000B02ADF828204FF00D01024607A809AB95
:10295000ADF82410009601461DEE900AADF81C80DB
:10296000ADF820B00DF031FE1DEE901AC4F8C8721B
:10297000284608F097FF0BE0F0780208D8780208A4
:10298000A32500082B2B2BFF808080FF3C770208BB
:102990001EEE100AD222AF21FFF727FC08A802463C
:1029A00007A809AB014600961EEE100AADF81C8080
:1029B000ADF820B0ADF82490ADF828900DF005FEEC
:1029C0001EEE101AC4F80473284608F06BFF18EEC8
:1029D000100A56222521FFF708FC4FF07F4018EE21
:1029E000101AC4F83803A4F83CB350460CF0E6FFC4
:1029F0009AE8070004F55173684F0A9783E80700C7
:102A00000F2318EE100A3146ADF82C300DF070FA95
:102A100018EE101A284608F045FF18EE900A7822A2
:102A20002821FFF7E2FB4FF07F4318EE901AC4F81D
:102A300080335046A4F884B30CF0C0FF9AE8070036
:102A400004F5637383E8070018EE900A31460A978D
:102A5000ADF82C900DF04CFA18EE901A284608F0BC
:102A600021FF19EE100A56227021FFF7BEFB4FF02E
:102A70007F4319EE101AC4F8C8335046A4F8CCB3FB
:102A80000CF09CFF9AE8070004F5757383E80700D3
:102A90000E2319EE100A3146ADF82C300A970DF0CE
:102AA00027FA19EE101A284608F0FCFE19EE900AD3
:102AB00078227421FFF799FB4FF07F4319EE901AAB
:102AC000C4F810345046A4F814B40CF077FF9AE818
:102AD000070004F21C4383E807004FF00B0219EED5
:102AE000900A3146ADF82C200A970DF001FA19EE44
:102AF000901A284608F0D6FE1AEE100A5622BA217D
:102B0000FFF773FB4FF07F431AEE101AC4F85834E6
:102B10005046A4F85CB40CF051FF9AE8070004F2A8
:102B2000644383E807004FF00D011AEE100AADF878
:102B30002C1031460A970DF0DBF91AEE101A2846D0
:102B400008F0B0FE1AEE900A7822BA21FFF74DFB8A
:102B50004FF07F431AEE901AC4F8A0345046A4F800
:102B6000A4B40CF02BFF9AE8070004F2AC4383E80E
:102B700007004FF00A011AEE900AADF82C1031460A
:102B80000A970DF0B5F928461AEE901A08F08AFE59
:102B900020460DB0BDEC0E8BBDE8F08F3C770208EF
:102BA000704770470368DB6A1847704730B4C268E3
:102BB00044685510034604EB6200D20748BF6259CF
:102BC0009B6830BC48BFD358184743682BB1836813
:102BD0002BB9C06800F0010070471846704701200B
:102BE000704710B51021044622F0A6F9204610BD0A
:102BF0009830884208B505D110F09AFABDE808402F
:102C000000F034BE08BD0000074A02600022C0E99F
:102C10000122C0E90322C0E90522C0E907224FF4DE
:102C200080728284704700BF809802082DE9F04FBF
:102C30002DED108B044697B012F0D4F922460025F2
:102C4000EA4BE56342F8403B104609EE902AFFF755
:102C5000EDFA04F16C0304F1980818460693FFF7A7
:102C6000E5FA40460DF0A4FE04F1E00304F5947A81
:102C700018460AEE103AFFF7EFFA504609F0D8F975
:102C800004F5087318460AEE903ADFF884B3D84F7B
:102C9000FFF7BAFF04F51373C4F820B2C4F8485222
:102CA00018460BEE103AFFF7D7FA04F5257304F532
:102CB000377618460BEE903AFFF7CEFA304607F01B
:102CC000FFFA04F5777318460993FEF7A5FB07F1A1
:102CD000240304F57C71C4F8E433C4F8E853C4F861
:102CE000DC7308460CEE101AFFF78EFF04F21C414D
:102CF000C4F8F0B3C4F8185408460CEE901AFFF765
:102D0000ABFA04F2644108460DEE101AFFF7A4FA7C
:102D100004F2AC41084608EE101A07F0D1FA04F2AA
:102D2000AC5108460A91FEF777FB07F1240204F53F
:102D3000B861C4F8B425C4F8B855C4F8AC750846F1
:102D40000DEE901AFFF760FF04F2EC51C4F8C0B525
:102D5000C4F8E85508460EEE101AFFF77DFA04F2A3
:102D6000346104F27C6708460EEE901AFFF774FA9D
:102D7000384607F0A5FA04F27C7108460B91FEF77D
:102D80004BFB9B4BC4F87C3703F1240204F5F26142
:102D9000C4F88427C4F8885708460FEE101AFFF7C6
:102DA00033FF04F2BC71C4F890B7C4F8B8570846B2
:102DB0000FEE901AFFF750FA04F6040104F64C09DE
:102DC00008460291FFF748FA484607F079FA04F6F8
:102DD0004C1108460C91FEF71FFB854BC4F84C398B
:102DE00003F1240204F51661C4F85429C4F85859B3
:102DF00008460391FFF708FF04F68C11C4F860B988
:102E0000C4F8885908460491FFF726FA04F6D4114D
:102E100004F61C2B08460591FFF71EFA584607F0EA
:102E20004FFA04F61C3108460D91FEF7F5FA704B87
:102E3000C4F81C3B03F1240204F53363C4F8242BCB
:102E4000C4F8285B184609EE103A08F069FC04F64D
:102E5000C83318460793FFF7E9F904F6F433184628
:102E60000893FFF7E3F904F58053624AC3F8302A68
:102E7000614AC3F8344AC3F8382AC3F83C5A04F507
:102E800042604FF461610EF04FFC4FF4A0732A468C
:102E900019EE900A00932946F023FFF7B3F94FF09B
:102EA0007F43A366231D19EE901A184608EE903A48
:102EB00008F0F8FC4FF4A0732A46069800932946C0
:102EC000F023FFF79FF94D4BC4F89430069918EEA4
:102ED000900A08F0E7FC40460722C521FFF785F974
:102EE000022314AA13A9ADF84C3040464FF0030357
:102EF000ADF850300DF02FFA2823A4F8D03040461A
:102F0000FFF7CCF94FF0FF33C4E9353304F5D15363
:102F10001033C4F8C03018EE900A414608F0C2FCE5
:102F20001AEE100A0D221B210DF13808FFF75DF98A
:102F3000334BC4F810311AEE101AA4F8145140465D
:102F40000CF03CFD98E8070004F58E7383E8070059
:102F50002C4B14931AEE100A272314A9ADF8543001
:102F60000CF0C6FF1AEE101A18EE900A08F09AFC40
:102F7000294650461F22FFF738F94FF0090208236F
:102F8000ADF8502013A914AA5046ADF84C3009F002
:102F9000EFF8F02250465A2108F096FF50463221B1
:102FA00008F00BFF5046322108F08CFF164AC4F897
:102FB00028221BEE100A1A222021FFF716F9134AC5
:102FC000C4F87C221BEE101AA4F8805240460CF084
:102FD000F5FC98E8070004F5227383E80700094B25
:102FE00014931BEE100A252314A913E03C79020860
:102FF0000893020824790208F12B00082B2B2BFFE1
:10300000999999FF3C770208F0000501FFF700FF4E
:103010003C900208ADF854300CF06AFF1BEE101A19
:103020001AEE900A08F03EFC1BEE900A3C225B214F
:10303000FFF7DBF8EA4AC4F8C4221BEE901AA4F8A2
:10304000C85240460CF0BAFC98E8070004F5347307
:1030500083E80700E34B14931BEE900A262314A980
:10306000ADF854300CF044FF1BEE901A1AEE900AA3
:1030700008F018FC30466B224121FFF7B6F86E20AD
:10308000009003462A462946304607F0BDF82B46F5
:10309000009529463046642207F046F9372211464A
:1030A000304607F046F83046322107F06CF83046DB
:1030B0000A2107F06EF84FF4B4722946304607F043
:1030C000ECF83046B42107F06BF84FF00700ADF88C
:1030D000500014A9304607F055FA40F29F7CC248D0
:1030E000A4F8ECC30999C4F8E803304607F01EF8C9
:1030F00030463C2107F0B5F81AEE900A314608F048
:10310000D1FB1AEE901A504609F0A9F8B749C4F855
:10311000F8131CEE900A17224C21FFF766F8B04A0C
:10312000C4F84C241CEE901AA4F8505440460CF0FD
:1031300045FC98E8070004F58B6383E80700222329
:10314000ADF8543014AB1946A64E14961CEE900AF6
:103150000CF0CEFE1CEE901A1CEE100A08F0A2FB3A
:103160001DEE100A3C225B21FFF73FF89C4AC4F891
:1031700094241DEE101AA4F8985440460CF01EFC3E
:1031800098E8070004F5946383E807002123ADF86D
:10319000543014AB19461DEE100A14960CF0A8FE1C
:1031A0001DEE101A1CEE100A08F07CFB18EE100A37
:1031B0006B224121FFF719F86E2318EE100A0093D5
:1031C0002A46294607F020F82B4618EE100A0095EB
:1031D0002946642207F0A8F83722114618EE100A93
:1031E00006F0A7FF18EE100A322106F0CCFF18EE09
:1031F000100A0A2106F0CDFF4FF4B47218EE100A3F
:10320000294607F04AF818EE100AB42106F0C8FF64
:103210004FF00703ADF8503014AB194618EE100A02
:1032200007F0B0F940F29F7E6F48A4F8BCE50A9918
:10323000C4F8B80518EE100A06F078FF18EE100A68
:103240003C2107F00EF818EE101A1CEE100A08F0D8
:1032500029FB1CEE101A504609F001F86349C4F826
:10326000C8151EEE100A17223621FEF7BEFF5C4A73
:10327000C4F81C261EEE101AA4F8205640460CF086
:103280009DFB98E8070004F5C56383E807001496E2
:103290001EEE100A202614A9ADF854600CF028FE8A
:1032A0001EEE101A1DEE900A08F0FCFA1EEE900AAF
:1032B0003C225B21FEF799FF494AC4F864261EEEC2
:1032C000901AA4F8685640460CF078FB98E807007E
:1032D00004F5CE6383E80700424B14931EEE900A78
:1032E0001F2314A9ADF854300CF002FE1EEE901A04
:1032F0001DEE900A08F0D6FA38466B224121FEF7FF
:1033000074FF6E2300932A462946384606F07CFF58
:103310002B46009529463846642207F005F83722E7
:103320001146384606F005FF3846322106F02BFFDD
:1033300038460A2106F02DFF4FF4B472294638466C
:1033400006F0ABFF3846B42106F02AFF14AB4FF06D
:10335000070C19463846ADF850C007F013F940F293
:103360009F7E2148A4F88CE70B99C4F8880738465B
:1033700006F0DCFE38463C2106F073FF1DEE900A95
:10338000394608F08FFA1DEE901A504608F067FF94
:103390001649C4F898171FEE900A17224C21FEF721
:1033A00024FF0F4AC4F8EC271FEE901AA4F8F05738
:1033B00040460CF003FB98E8070004F5FF6383E840
:1033C00007002423ADF8543014AB064F1497194668
:1033D0001FEE900A0CF08CFD1FEE901A08E000BF63
:1033E000FFF700FF3C770208FFF000FFF000050147
:1033F0001FEE100A08F056FA02983C225B21FEF7F5
:10340000F4FEAB4A0299C4F83428A4F83858404670
:103410000CF0D4FA98E8070004F5046383E8070089
:103420002323ADF8543014AB1946029814970CF0CE
:103430005FFD02991FEE100A08F034FA48466B222D
:103440004121FEF7D2FE6E2300932A4629464846C4
:1034500006F0DAFE2B46009529464846642206F01F
:1034600063FF37221146484606F063FE4846322184
:1034700006F089FE48460A2106F08BFE4FF4B4722E
:103480002946484606F009FF4846B42106F088FE62
:1034900014AB4FF0070C19464846ADF850C007F082
:1034A00071F840F29F7E8348A4F85CE90C99C4F857
:1034B0005809484606F03AFE48463C2106F0D1FE3F
:1034C0001FEE100A494608F0EDF91FEE101A50469B
:1034D00008F0C5FE78490498C4F868193C225B21BD
:1034E000FEF783FE724A0499C4F8BC29A4F8C059B7
:1034F00040460CF063FA98E8070004F6C81383E826
:1035000007001D230498ADF8543014A914970CF04B
:10351000EFFCDDE9030108F0C5F905982A463321DF
:10352000FEF763FE624A0599C4F8042AA4F8085A13
:1035300040460CF043FA98E8070004F5216383E85D
:1035400007001E230598ADF8543014A914970CF009
:10355000CFFC05990398DFF8688108F0A3F9584675
:103560006B224121FEF741FE6E2300932A46294635
:10357000584606F049FE2B460095294658466422D7
:1035800006F0D2FE37221146584606F0D2FD5846C4
:10359000322106F0F8FD58460A2106F0FAFD4FF4F4
:1035A000B4722946584606F078FE5846B42106F013
:1035B000F7FD4FF0070C14A95846ADF850C006F0BF
:1035C000E1FF40F29F7E3B48A4F82CEB0D99C4F834
:1035D000280B584606F0AAFD58463C2106F041FE4D
:1035E0000398594608F05EF90399504608F037FEF3
:1035F0002946504608F024FE18EE900A514608F07D
:1036000051F91C234FF4927219EE100A009309210C
:103610006223FEF7F7FD19EE100A284907F0AEFF06
:1036200019EE100A14A9ADF85450149707F0C1FF11
:1036300019EE100A012108F0C1F80A224FF0030325
:10364000114619EE100A84F85F3B2B4608F0B9F8D2
:1036500019EE101A18EE900A08F024F934232A46BD
:10366000079800932946F0231125FEF7CBFD079913
:10367000C4F8F08B18EE900A84F8EE5B08F012F9AB
:1036800008980096F1234FF492724FF0FF31FEF745
:10369000B9FD18EE900A0899C4F81C8C84F81A5CDD
:1036A00008F000F9204617B0BDEC108BBDE8F08F94
:1036B000FFF700FFFFF000FFF0000501FFEA00FF49
:1036C000FF5938FF10B5054B036004460EF036F87D
:1036D00004F5947008F07CFB204610BD3C7902088C
:1036E00010B50446FFF7EEFF20464FF4D25121F00B
:1036F00023FC204610BD7047704700F5987308689A
:10370000496803C37047704770474160704770470E
:10371000064BC0F84C310023C0F8503100F5A273BD
:10372000C0F84801C0F84031704700BF353E00087E
:103730000123037270477047704710B4C268416834
:103740005410034601EB6200D20748BF0A599B6838
:103750005DF8044B48BFD358184743682BB18368C2
:103760002BB9C06800F0010070471846704701206F
:10377000704710B50C21044621F0DEFB204610BD39
:1037800010B51021044621F0D7FB204610BD10B51E
:103790004FF4AE71044621F0CFFB204610BD10B5AA
:1037A0000FF0C6FC0368BDE81040DB6B184710B58E
:1037B0000446D0F8400158B10368DB68984738B137
:1037C000D4F8400103689B6898470023C4F840314F
:1037D00010BD0000044B1B6893F858200AB1D86C48
:1037E00000B99868704700BF943D0120F8B50446C1
:1037F00017460E460FF0A8FD104B1C60104B2360BF
:10380000104B0025C4E951350F4BC4E953551868D6
:10381000036801219B68C4E94F55C4E95576984770
:10382000284601F0FFF8FFF7D5FF19F0A8FAFFF7D7
:10383000D1FF19F01FFB2046F8BD00BFE83D012075
:10384000E8800208D0800208943D0120064BC0F8B1
:103850004C310023C0F8503100F5A273C0F8480184
:10386000C0F84031704700BF353E0008064BC0F835
:103870004C310023C0F8503100F5A273C0F8480164
:10388000C0F84031704700BFE53C0008064BC0F867
:103890004C310023C0F8503100F5A273C0F8480144
:1038A000C0F84031704700BF953B0008064BC0F898
:1038B0004C310023C0F8503100F5A273C0F8480124
:1038C000C0F84031704700BF453A0008064BC0F8C9
:1038D0004C310023C0F8503100F5A273C0F8480104
:1038E000C0F84031704700BFF538000803685B6AD4
:1038F000184700002DE9F14FD0E9555A0746A8684E
:1039000003681B6A9847B0F5996F05D2454B464A44
:10391000A321464822F056FA686803681B6A984754
:103920000F2803D8424B404AA421F2E7E868036815
:103930001B6A98470B2803D83E4B3B4AA521E8E772
:103940000FF0F6FBDFF8F49004300FF02FFCD9F8FD
:10395000000010B10368DB689847D9F8000010B187
:1039600003681B689847DFF8D880D8F8000010B1CA
:1039700003685B699847D7F83C0110B103685B683E
:103980009847D8F8000010B103681B689847D7F82B
:103990003C0110B103689B689847E8680021FFF775
:1039A000A5FF4FF0000B244B03600446C0F804B0A1
:1039B00080F808B0A868036859465B6A98470646CD
:1039C00001F084FC6868036859465B6A9847314691
:1039D000054601F055FCC9F80040C7F83C51C8F84D
:1039E0000060E5B12B1DCAF800303368C5F808A0A7
:1039F0003046DB68F56398472B6828461B68984774
:103A00002146304611F09AFC236820461B699847EE
:103A100023685B69204601B0BDE8F04F18472B468C
:103A2000E1E700BF6C790208FA7902080A7B020814
:103A3000517B0208F47B02083C810208DC3D012036
:103A4000D83D01202DE9F14FD0E9555A0746A86825
:103A500003681B6A9847B0F5AC6F05D2454B464AE0
:103A6000A321464822F0AEF9686803681B6A9847AC
:103A70000F2803D8424B404AA421F2E7E8680368C4
:103A80001B6A98470B2803D83E4B3B4AA521E8E721
:103A90000FF04EFBDFF8F49004300FF087FBD9F8FD
:103AA000000010B10368DB689847D9F8000010B136
:103AB00003681B689847DFF8D880D8F8000010B179
:103AC00003685B699847D7F83C0110B103685B68ED
:103AD0009847D8F8000010B103681B689847D7F8DA
:103AE0003C0110B103689B689847E8680021FFF724
:103AF000FDFE4FF0000B244B03600446C0F804B0F9
:103B000080F808B0A868036859465B6A984706467B
:103B100001F0E0FC6868036859465B6A98473146E3
:103B2000054601F0B1FCC9F80040C7F83C51C8F89F
:103B30000060E5B12B1DCAF800303368C5F808A055
:103B40003046DB68F56398472B6828461B68984722
:103B50002146304611F0F2FB236820461B69984746
:103B600023685B69204601B0BDE8F04F18472B463B
:103B7000E1E700BF6C790208977C02080A7B020823
:103B8000517B0208F47B02083C810208DC3D0120E5
:103B9000D83D01202DE9F14FD0E9555A0746A868D4
:103BA00003681B6A9847B0F5C07F05D2454B464A6B
:103BB000A321464822F006F9686803681B6A984703
:103BC0000F2803D8424B404AA421F2E7E868036873
:103BD0001B6A98470B2803D83E4B3B4AA521E8E7D0
:103BE0000FF0A6FADFF8F49004300FF0DFFAD9F8FE
:103BF000000010B10368DB689847D9F8000010B1E5
:103C000003681B689847DFF8D880D8F8000010B127
:103C100003685B699847D7F83C0110B103685B689B
:103C20009847D8F8000010B103681B689847D7F888
:103C30003C0110B103689B689847E8680021FFF7D2
:103C400055FE4FF0000B244B03600446C0F804B04F
:103C500080F808B0A868036859465B6A984706462A
:103C600001F0F4FA6868036859465B6A9847314680
:103C7000054601F0C5FAC9F80040C7F83C51C8F83C
:103C80000060E5B12B1DCAF800303368C5F808A004
:103C90003046DB68F56398472B6828461B689847D1
:103CA0002146304611F04AFB236820461B6998479D
:103CB00023685B69204601B0BDE8F04F18472B46EA
:103CC000E1E700BF6C790208A77D02080A7B0208C1
:103CD000517B0208F47B02083C810208DC3D012094
:103CE000D83D01202DE9F14FD0E9555A0746A86883
:103CF00003681B6A9847B0F5C86F05D2454B464A22
:103D0000A321464822F05EF8686803681B6A98475A
:103D10000F2803D8424B404AA421F2E7E868036821
:103D20001B6A98470B2803D83E4B3B4AA521E8E77E
:103D30000FF0FEF9DFF8F49004300FF037FAD9F8FD
:103D4000000010B10368DB689847D9F8000010B193
:103D500003681B689847DFF8D880D8F8000010B1D6
:103D600003685B699847D7F83C0110B103685B684A
:103D70009847D8F8000010B103681B689847D7F837
:103D80003C0110B103689B689847E8680021FFF781
:103D9000ADFD4FF0000B244B03600446C0F804B0A7
:103DA00080F808B0A868036859465B6A98470646D9
:103DB00001F02AFB6868036859465B6A98473146F8
:103DC000054601F0FBFAC9F80040C7F83C51C8F8B5
:103DD0000060E5B12B1DCAF800303368C5F808A0B3
:103DE0003046DB68F56398472B6828461B68984780
:103DF0002146304611F0A2FA236820461B699847F5
:103E000023685B69204601B0BDE8F04F18472B4698
:103E1000E1E700BF6C790208A77E02080A7B02086E
:103E2000517B0208F47B02083C810208DC3D012042
:103E3000D83D01202DE9F14FD0E9555A0746A86831
:103E400003681B6A9847B0F5D25F05D2454B464AD6
:103E5000A321464821F0B6FF686803681B6A9847AB
:103E60000F2803D8424B404AA421F2E7E8680368D0
:103E70001B6A98470B2803D83E4B3B4AA521E8E72D
:103E80000FF056F9DFF8F49004300FF08FF9D9F8FD
:103E9000000010B10368DB689847D9F8000010B142
:103EA00003681B689847DFF8D880D8F8000010B185
:103EB00003685B699847D7F83C0110B103685B68F9
:103EC0009847D8F8000010B103681B689847D7F8E6
:103ED0003C0110B103689B689847E8680021FFF730
:103EE00005FD4FF0000B244B03600446C0F804B0FE
:103EF00080F808B0A868036859465B6A9847064688
:103F000001F024FA6868036859465B6A98473146AD
:103F1000054601F0F5F9C9F80040C7F83C51C8F86A
:103F20000060E5B12B1DCAF800303368C5F808A061
:103F30003046DB68F56398472B6828461B6898472E
:103F40002146304611F0FAF9236820461B6998474C
:103F500023685B69204601B0BDE8F04F18472B4647
:103F6000E1E700BF6C790208B97F02080A7B02080A
:103F7000517B0208F47B02083C810208DC3D0120F1
:103F8000D83D0120406A7047806A704770478B882F
:103F9000C0690A68DB0A50F823001044704710B566
:103FA000C2B1137BB3B1547BD27A240204F4E0642F
:103FB0001443026A98B202EB840213888B4202D146
:103FC00092F9020010BD05D8013880B204320028F1
:103FD000F3D1F7E70020F5E710B52C21044620F0D7
:103FE000ABFF204610BD000030B58BB00446BDF8D5
:103FF00060500895BDF85C5007959DF850500695A7
:104000009DF84C5005959DF8485004959DF84450F6
:1040100003959DF8405002959DF83C500195BDF8E0
:104020003850009510F016FD064B2360159BE36198
:10403000169B2362199B63621A9BA36220460BB0F6
:1040400030BD00BF60810208704702207047704792
:104050007047000038B50546074B45F8043BD0F8DB
:104060001C3204461B6800F50770984763682846B1
:104070001B689847204638BD4483020810B5044B9E
:104080000360044600F5F670FFF7E4FF204610BD1C
:104090008C83020830B4C26844685510034604EBB0
:1040A0006200D20748BF62599B6830BC48BFD358F2
:1040B000184743682BB183682BB9C06800F0010032
:1040C00070471846704701207047F0B4C5684668CD
:1040D0006F10044606EB6500ED07A46844BFF55970
:1040E0002C59A446F0BC604743682BB183682BB9B8
:1040F000C06800F001007047184670470120704703
:1041000010B50446FFF7A6FF204640F2344120F0E8
:1041100013FF204610BD10B51021044620F00CFFFF
:10412000204610BD10B51021044620F005FF2046A2
:1041300010BD10B50446FFF7A1FF20464FF4C8613B
:1041400020F0FAFE204610BD10B5044600F5AA7016
:1041500006F01FFC04F5F87001F086F9D4F8083475
:1041600004F58160D3F88830BDE81040184700009E
:1041700008B58BB2012B05D9054B064A06485421D8
:1041800021F020FE4FF4067301FB0300043008BD4C
:10419000C0810208DB8102086F82020898308842E1
:1041A00008B505D10EF0C4FFBDE80840FFF74EBBCF
:1041B00008BD000070B500F5F6748C4215461A462D
:1041C00011D10368012DDB6A05D9074B074A08485E
:1041D000612121F0F7FD4FF4067105FB0141043127
:1041E000BDE87040184770BDC0810208CE82020849
:1041F0006F8202082DE9F04F2DED028B04468BB043
:10420000A146002510F0EEFE844BE56349F8403BE3
:1042100004F16C0B484604F19808FEF707F858467D
:10422000FEF704F840460CF0C3FB4FF48073A4F88B
:1042300004317B4BC4F8E0307A4BC4F808314FF6B8
:10424000FF7304F59476A4F80C314FF0FF324FF46D
:104250007F03C4E94825C4F81431C4E93955C4E9D9
:104260003B55C4E93D55C4E93F55C4F81051A4F885
:104270001851C4F81C51304606F0E2FD6A4BC4F8F0
:10428000EC3104F5F67204F5F87008EE102A01F02E
:10429000E1F804F5816001F0DDF8644BC4F82036E4
:1042A000634BC4F82836634BC4F830364FF4A07221
:1042B000614BC4F83836009229462A464846C4F86D
:1042C0002446C4F82C56C4F83446C4F83C56F023AF
:1042D000FDF798FF271D4FF07F43A36649463846F8
:1042E00007F0E0FA4FF4A072009229462A46584699
:1042F000F023FDF787FF514BC4F8943059463846F8
:1043000007F0D0FA40460722C521FDF76EFF0223D1
:1043100008AA07A9ADF81C3040460323ADF82030A9
:104320000CF019F81323A4F8D0304046FDF7B6FF7F
:1043300004F5C6634FF0FF3204F1E00AC4F8C03060
:10434000C4E935224146384607F0ACFA0F22504600
:104350001421FDF74AFF0DF10808394BC4F810315C
:1043600051464046A4F814510BF028FB98E807008A
:1043700004F58E7383E807002A4B089308A91223DB
:104380005046ADF824300BF0B3FD5146384607F0E7
:1043900089FA40F22713332200932946F523304649
:1043A000FDF730FF2946304606F0C9FF2946304662
:1043B00007F020F83046234906F001FF30460A2175
:1043C00006F000FF30460A2106F0FFFE30460A21C3
:1043D00006F075FE2A462946304606F0B0FD29460D
:1043E000304606F0C4FD4B2384F8B2312A463046ED
:1043F0004FF4027106F086FD18EE101A04F5C4623F
:10440000304606F052FC3846314607F04BFA20465B
:104410000BB0BDEC028BBDE8F08F00BF8C830208AF
:10442000489502083C770208448302085C8302082E
:10443000B5410008748302089D4100082B2B2BFF17
:10444000808080FF85540108806A704770477047FC
:10445000704730B4C26844685510034604EB6200EC
:10446000D20748BF62599B6830BC48BFD358184731
:1044700043682BB183682BB9C06800F00100704716
:10448000184670470120704710B51021044620F0EF
:1044900053FD204610BD10B54FF40671044620F0C0
:1044A0004BFD204610BD38B500F1A00399420446EB
:1044B0000D4603D10EF03CFEFFF7C8F904F5E0739A
:1044C0009D4203D10EF034FEFFF7E0F904F5BC7312
:1044D0009D4203D10EF02CFEFFF7E8F904F5987425
:1044E000A54205D10EF024FEBDE83840FFF7EEB935
:1044F00038BD00002DE9F04F064600254FF48073CB
:104500008C4A8384C0E90155C0E90355C0E90555CB
:10451000C0E90755856246F82C2B874AA0F8503031
:10452000FF2385B0044680F8523000F15803C0E9FB
:104530000B2504F1A00BC0E90D55C0E90F55C0E9EA
:104540001155C56445651846019304F1E80A0CF05D
:104550002FFA58460CF02CFA04F5987950460CF0D6
:1045600027FA04F5BC7848460CF022FA04F5E07707
:1045700040460CF01DFA38460CF01AFA6F4AC4E9AE
:1045800082246F4AC4E984256E4AA26030462A46D6
:104590006FF00201FDF729FE3046F821FCF758FEC6
:1045A00030464FF40271FCF755FE674A62653146AA
:1045B000204607F077F9019B642218463221FDF767
:1045C00014FE4FF00503ADF80C30019B062602A93E
:1045D00003AA1846ADF808600BF0BDFE019B172238
:1045E000A4F890201846FDF759FE019B4FF0FF35C7
:1045F00019462046C4E9255507F054F958460B22C0
:104600003221FDF7F2FD03AA02A94FF00503584637
:10461000ADF80C30ADF808600BF09DFE1623A4F841
:10462000D8305846FDF73AFE04F50272C4F8C820A7
:1046300059462046C4E93755019207F033F95046F0
:10464000BA223221FDF7D1FD4FF0050B03AA02A9D2
:104650005046ADF80860ADF80CB00BF07CFE1523A9
:10466000A4F820315046FDF719FE51462046C4E912
:10467000495507F017F9484640F267123121FDF716
:10468000B4FD03AA02A94846ADF80860ADF80CB025
:104690000BF061FE1423A4F868314846FDF7FEFDD7
:1046A000019BC4F8583149462046C4E95B5507F0E0
:1046B000F9F840464FF48B723121FDF796FD03AABD
:1046C00002A94046ADF80860ADF80CB00BF043FE0F
:1046D0001123A4F8B0314046FDF7E0FD019BC4F87A
:1046E000A03141462046C4E96D5507F0DBF8384655
:1046F0004FF4DF723121FDF778FD03AA02A9384695
:10470000ADF80860ADF80CB00BF025FE1023A4F84E
:10471000F8313846FDF7C2FD019BC4F8E831204668
:10472000C4E97F55394607F0BDF8204605B0BDE81D
:10473000F08F00BFDC830208D8950208C48302080A
:10474000A7440008F50008022B2B2BFF7047000040
:1047500030B5164D2C68BFF35B8F14F001048FB099
:1047600020D1284620F0EAFBE0B13F230993104B0B
:104770000893104B104911480A940122CDE90643D1
:104780000423CDE903320A230093CDE90B44CDE99C
:1047900001440594FFF728FC094821F031FB284625
:1047A00020F0D8FB05480FB030BD00BF4C2F0020D3
:1047B000F8CC0208DCCD02087CC70208502F00208C
:1047C0004D4700087047000030B5174D2C68BFF307
:1047D0005B8F14F001048FB022D1284620F0AEFB8D
:1047E000F0B13F230993114B0893114B0793012319
:1047F000CDE9054304930423CDE902430F230D497A
:10480000009327221223CDE90B440B480A9401940C
:10481000FFF7EAFB094821F0F3FA284620F09AFB5B
:1048200005480FB030BD00BF7C2F0020FCCC020833
:10483000E0CD02088CC70208802F0020C547000881
:104840007047000030B5174D2C68BFF35B8F14F034
:1048500001048FB022D1284620F070FBF0B13F2335
:104860000993114B0893114B07930123CDE905439D
:1048700004930423CDE9024314230D4900932C2211
:104880001823CDE90B440B480A940194FFF7ACFBC5
:10489000094821F0B5FA284620F05CFB05480FB026
:1048A00030BD00BFAC2F002048CD0208E4CD020887
:1048B000B0C90208B02F002041480008704700002E
:1048C00030B5174D2C68BFF35B8F14F001048FB027
:1048D00022D1284620F032FBF0B13F230993114B3F
:1048E0000893114B114912480A94CDE9064301225D
:1048F0000423CDE903322823009310222923CDE994
:104900000B44CDE901440594FFF76EFB094821F003
:1049100077FA284620F01EFB05480FB030BD00BFD7
:10492000DC2F0020D8CD0208E8CD020818CC020800
:10493000E02F0020BD48000800207047002070478D
:104940000EB403B503AB002153F8042B01930FF011
:1049500085FB02B05DF804EB03B070470CB407B5FB
:1049600004AB53F8042B01930FF078FB03B05DF810
:1049700004EB02B070470000436C10B5044673B3FB
:10498000038F2BB9184B194AC521194821F01AFA7F
:10499000C38E00EB43035B8C0BB311F09EFA238FA5
:1049A000012B03D8134B144ACB21EEE7E28E531CA4
:1049B0009BB2092B194688BFA3F10A0104EB410100
:1049C00040F63F10498C814209D10A2B04EB420288
:1049D00028BF002304EB4303508C588451842046A5
:1049E000BDE8104011F07CB96884020871840208A7
:1049F0001C850208668502087485020811F037B923
:104A000010B586B002AC84E806001A460AAB0593DE
:104A10000193099B00932146089B0DF027FF06B0E8
:104A200010BD000038B518BB124B13481C68134961
:104A3000B4B1226822440260626822440A60A2681B
:104A400014440F4B00221A8000F0AEFB054600F024
:104A5000A9FB0C4B1C600C4B1D600C4B188007E035
:104A60000B4B03600B4B0B600B4B1C68002CE8D10D
:104A700038BD00BF0C300020103000201430002062
:104A800018300020EC3D0120F43D0120F03D0120D4
:104A900090CE0208ECCD0208D0D00208044B1B686F
:104AA00053F82100034B1B6803EB4000704700BF25
:104AB000143000201030002070477047704730B429
:104AC000C26844685510034604EB6200D20748BF31
:104AD00062599B6830BC48BFD358184743682BB114
:104AE00083682BB9C06800F0010070471846704712
:104AF0000120704710B51021044620F01DFA204611
:104B000010BD10B54FF4AC61044620F015FA2046F4
:104B100010BDE030884208B505D10EF009FBBDE8B4
:104B20000840FEF7A3BE08BD2DE9F04F2DED0E8B1A
:104B300004468DB026464FF0000B10F053FAEF4BB1
:104B4000C4F83CB046F8403B04F16C0A3046FDF72F
:104B50006DFB04F198095046FDF768FB04F1E0088D
:104B6000484604F59477FDF777FB40460BF020FFAD
:104B7000384606F0D5FD04F5E07318460BEE103A02
:104B80000BF0B8FD04F5FE7318460BEE903A0BF0EF
:104B9000B1FD04F50E7318460CEE103A0BF0AAFDA9
:104BA00004F51D7318460CEE903A0BF0A3FD04F5C6
:104BB0002C7318460DEE103A0BF09CFD04F53B7378
:104BC00018460DEE903A0BF095FD04F54A73184621
:104BD0000EEE103A0BF08EFD04F5597318460EEEEA
:104BE000903A0BF087FD04F56873184608EE103A0A
:104BF000FDF732FB04F57A73184608EE903AFDF79C
:104C00002BFB04F58663184609EE103AFDF724FBEA
:104C100004F58F63184609EE903AFDF71DFB04F585
:104C2000986318460AEE103AFDF716FB04F5A163E7
:104C300018460AEE903AFDF70FFBB14BC4F8503519
:104C4000B04BC4F858354FF4A0735A4600935946F8
:104C50003046C4F85445C4F85CB5F023251DFDF773
:104C6000D1FA4FF07F43A3663146284606F01AFE7C
:104C70004FF4A0735A46009359465046F023FDF76F
:104C8000C1FAA14BC4F894305146284606F00AFEFA
:104C90000F22484614210DF1080AFDF7A6FA9B4B96
:104CA000C4F8C83049465046A4F8CCB00AF086FE95
:104CB0009AE8070004F1D4030AAE83E80700944B96
:104CC0000A93314609234846ADF82C300BF010F911
:104CD0004946284606F0E6FD40460722C521FDF775
:104CE00084FA4FF002024FF00301ADF82420ADF832
:104CF0002810324609A940460BF02DFB0823A4F8E2
:104D000018314046FDF7CAFA4FF0FF33C4E9473384
:104D100004F5AA63C4F808314146284606F0C2FDEE
:104D20002B23272200933846C5231621FDF76AFA64
:104D300038464FF07F4106F021FC754B0A9331460F
:104D400007233846ADF82C3006F033FC38460121F5
:104D500006F034FD0A224FF003015B4684F8571138
:104D60003846114606F02DFD3946284606F09AFDD4
:104D70001BEE100A4FF481727D21FDF736FA09A966
:104D80000B464FF00B0208A94FF004081BEE100A67
:104D9000ADF82420ADF828201E270A46009607A962
:104DA000ADF81C80ADF820800BF00FFC1BEE101A44
:104DB000C4F8F871284606F075FD1BEE900A4FF412
:104DC00081720A21FDF711FA0A2309A9ADF82430EE
:104DD000ADF828300B4608A90A461BEE900A07A931
:104DE0000096ADF81C80ADF820800BF0EEFB1BEEBA
:104DF000901AC4F83472284606F054FD1CEE100ACE
:104E0000A0221D21FDF7F1F909A8034608A80246D2
:104E10004FF00D0107A86FF006174FF00109ADF82C
:104E20002410ADF82810009601461CEE100AADF8CB
:104E30001C90ADF820B00BF0C8FB1CEE101AC4F8A3
:104E40007072284606F02EFD1CEE900AA0226B21FF
:104E5000FDF7CBF90DF1240C63464FF00B020DF179
:104E6000200CADF828204FF00D0162460DF11C0C0E
:104E70001CEE900AADF8241000966146ADF81C9027
:104E8000ADF820B00BF0A1FB1CEE901AC4F8AC7288
:104E9000284606F007FD1DEE100AD2221D21FDF75F
:104EA000A4F90DF1240C63460DF1200C62460DF1BE
:104EB0001C0C61461DEE100AADF81C9000964FF0D8
:104EC0000C09ADF820B0ADF82490ADF828900BF0A7
:104ED0007CFB1DEE101AC4F8E872284606F0E2FCCE
:104EE0001DEE900AD2226B21FDF77FF90DF1240C03
:104EF00063464FF001020DF1200C0BE068860208BA
:104F000050860208134B00082B2B2BFF808080FF5C
:104F10003C770208ADF81C2062460DF11C0C61467E
:104F20001DEE900A0096ADF820B0ADF82490ADF8D3
:104F300028900BF04AFB1DEE901AC4F82473284603
:104F400006F0B0FC1EEE100AA022AF21FDF74DF9CD
:104F50004FF00B01ADF8281009A90B464FF00102E4
:104F600008A94FF00D00ADF81C20ADF824000A464A
:104F70001EEE100A07A90096ADF820B00BF025FB35
:104F80001EEE101AC4F86073284606F08BFC1EEE65
:104F9000900AD222AF21FDF728F909A90B464FF05C
:104FA000010208A91EEE900AADF81C2000960A46E0
:104FB00007A9ADF820B0ADF82490ADF828900BF01B
:104FC00004FB1EEE901AC4F89C73284606F06AFC97
:104FD00018EE100A56222821FDF707F94FF07F41FD
:104FE000C4F8D013504618EE101AA4F8D4B30AF03F
:104FF000E5FC9AE8070004F57773694F0A9783E8A0
:105000000700062318EE100A3146ADF82C300AF0DE
:105010006FFF18EE101A284606F044FC18EE900AAE
:1050200078222821FDF7E1F84FF07F4318EE901A1F
:10503000C4F818345046A4F81CB40AF0BFFC9AE82F
:10504000070004F2244383E80700052318EE900AC2
:105050003146ADF82C300A970AF04AFF18EE901A44
:10506000284606F01FFC19EE100A56227021FDF7A3
:10507000BCF84FF07F4319EE101AC4F86034504664
:10508000A4F864B40AF09AFC9AE8070004F26C43AE
:1050900083E8070019EE100A31460A97ADF82C8014
:1050A0000AF026FF19EE101A284606F0FBFB19EE4F
:1050B000900A78227021FDF798F84FF07F4319EE9F
:1050C000901AC4F8A8345046A4F8ACB40AF076FCA0
:1050D0009AE8070004F2B44383E807004FF00301A5
:1050E00019EE900AADF82C1031460A970AF000FF2D
:1050F00019EE901A284606F0D5FB1AEE100A562231
:10510000BA21FDF772F84FF07F431AEE101AC4F877
:10511000F0345046A4F8F4B40AF050FC9AE80700C2
:1051200004F2FC4383E807004FF002031AEE100A72
:105130003146ADF82C300A970AF0DAFE1AEE101A52
:10514000284606F0AFFB1AEE900A7822BA21FDF746
:105150004CF84FF07F431AEE901AC4F83835504699
:10516000A4F83CB50AF02AFC9AE8070004F244537C
:1051700083E807004FF001021AEE900A3146ADF8BD
:105180002C200A970AF0B4FE28461AEE901A06F070
:1051900089FB20460DB0BDEC0E8BBDE8F08F00BF43
:1051A0003C77020829207047004870471C300020D7
:1051B00010B5FFF747FB064C2060FFF781FB6060EE
:1051C000FFF7C6FAA060FFF7FFFAE06010BD00BF6E
:1051D0001C30002010B5002404600C6014601C60BA
:1051E00010BD704704387047704710B51021044651
:1051F0001FF0A2FE204610BDA0F10400F5E700005C
:1052000010B500228260044AC16002F10804203215
:105210000460426010BD00BF948602087047000021
:1052200010B5034B03600446FCF7A0FF204610BDF9
:10523000C486020810B50446FFF7F2FF20464FF47B
:10524000C0711FF079FE204610BD000010B5044665
:10525000FDF768F8014B2360204610BDC4860208A4
:10526000FCF785BF704704387047704710B51021B0
:1052700004461FF061FE204610BDA0F10400F5E7D2
:1052800010B500228260044AC16002F10804203295
:105290000460426010BD00BFF08602087047000045
:1052A00010B5034B03600446FDF74EF9204610BDD0
:1052B0002087020810B50446FFF7F2FF20464FF49E
:1052C00099611FF039FE204610BD000010B504465C
:1052D000FDF772F9014B2360204610BD20870208BC
:1052E000FDF733B9704704387047704710B5102187
:1052F00004461FF021FE204610BDA0F10400F5E792
:1053000010B500228260044AC16002F10804203214
:105310000460426010BD00BF4C8702087047000067
:1053200010B5034B03600446FEF7CCF9204610BDD0
:105330007C87020810B50446FFF7F2FF20464FF4C1
:10534000D2511FF0F9FD204610BD000010B50446F3
:10535000FDF76CFC014B2360204610BD7C870208E2
:10536000FDF71FBC704710B54FF4AE7104461FF037
:10537000E3FD204610BD10B50446D0F8580100F0FA
:1053800052F82046BDE810400DF06EBF10B504463F
:10539000FEF72CFA014B2360204610BDB4870208AB
:1053A000704704387047704710B5102104461FF04D
:1053B000C3FD204610BDA0F10400F5E710B50022A2
:1053C0008260044AC16002F1080420320460426035
:1053D00010BD00BF008802087047000010B5034BE5
:1053E00003600446FEF74AFE204610BD30880208DE
:1053F00010B50446FFF7F2FF20464FF4C8611FF0D6
:105400009BFD204610BD000010B50446FEF7F2FEDD
:10541000014B2360204610BD30880208FEF794BE81
:10542000002202607047704710B5034B03600446CA
:10543000FFF70CF8204610BD6888020810B5044636
:10544000FFF7F2FF20464FF406711FF075FD20466E
:1054500010BD000010B50446FFF74CF8014B236067
:10546000204610BD68880208FEF7F1BF7047043877
:105470007047704710B5102104461FF05DFD2046AF
:1054800010BDA0F10400F5E710B500228260044AC7
:10549000C16002F1080420320460426010BD00BF08
:1054A000F48802087047000010B5034B03600446FF
:1054B000FFF702FB204610BD2489020810B5044600
:1054C000FFF7F2FF20464FF4AC611FF035FD204698
:1054D00010BD000010B50446FFF726FB014B23600A
:1054E000204610BD24890208FFF7E7BAF020704774
:1054F0004FF4A07070472920FCF7E8BA2820FCF789
:10550000E5BA08B5FCF7B6FACA20FCF7DFFAC32003
:10551000FCF7C0FA0820FCF7BDFA5020FCF7BAFAF5
:10552000CF20FCF7D3FA0020FCF7B4FAC120FCF737
:10553000B1FA3020FCF7AEFAED20FCF7C7FA642090
:10554000FCF7A8FA0320FCF7A5FA1220FCF7A2FA50
:105550008120FCF79FFAE820FCF7B8FA8520FCF7D9
:1055600099FA0020FCF796FA7820FCF793FACB2002
:10557000FCF7ACFA3920FCF78DFA2C20FCF78AFAFC
:105580000020FCF787FA3420FCF784FA0220FCF7AD
:1055900081FAF720FCF79AFA2020FCF77BFAEA2040
:1055A000FCF794FA0020FCF775FA0020FCF772FA79
:1055B000B120FCF78BFA0020FCF76CFA1B20FCF7FB
:1055C00069FAB620FCF782FA0A20FCF763FAA220F7
:1055D000FCF760FAC020FCF779FA1020FCF75AFAC1
:1055E000C120FCF773FA1020FCF754FAC520FCF731
:1055F0006DFA4520FCF74EFA1520FCF74BFAC72050
:10560000FCF764FA9020FCF745FA3620FCF75EFAC6
:10561000C820FCF73FFAF220FCF758FA0020FCF70C
:1056200039FAB020FCF752FAC220FCF733FAB62060
:10563000FCF74CFA0A20FCF72DFAA720FCF72AFA0F
:105640002720FCF727FA0420FCF724FA2A20FCF78D
:105650003DFA0020FCF71EFA0020FCF71BFA0020A0
:10566000FCF718FAEF20FCF715FA2B20FCF72EFABE
:105670000020FCF70FFA0020FCF70CFA0120FCF7E1
:1056800009FA3F20FCF706FAF620FCF71FFA012082
:10569000FCF700FA0020FCF7FDF90620FCF7FAF908
:1056A0002C20FCF713FAC820FCF75EFA2620FCF742
:1056B0000DFA0120FCF7EEF9E020FCF707FA0F20C5
:1056C000FCF7E8F92920FCF7E5F92420FCF7E2F9DA
:1056D0000C20FCF7DFF90E20FCF7DCF90920FCF7C1
:1056E000D9F94E20FCF7D6F97820FCF7D3F93C2005
:1056F000FCF7D0F90920FCF7CDF91320FCF7CAF923
:105700000520FCF7C7F91720FCF7C4F91120FCF7B6
:10571000C1F90020FCF7BEF9E120FCF7D7F9002021
:10572000FCF7B8F91620FCF7B5F91B20FCF7B2F925
:105730000420FCF7AFF91120FCF7ACF90720FCF7C7
:10574000A9F93120FCF7A6F93320FCF7A3F9422090
:10575000FCF7A0F90520FCF79DF90C20FCF79AF95D
:105760000A20FCF797F92820FCF794F92F20FCF782
:1057700091F90F20FCF78EF91120FCF7A7F9C8204A
:10578000FCF7F2F92920FCF7A1F9BDE808402C202C
:10579000FCF79CB908B5FCF76DF90321D320FCF7A1
:1057A000B1F980B208BD10B5C4B20222032120466F
:1057B000FCF716F90A20FCF75BF9204600220321CA
:1057C000FCF70EF9BDE810400220FCF751B938B5DE
:1057D0000446E4B2FCF702F900212046FCF718F970
:1057E000012105462046FCF713F940EA052080B266
:1057F00038BD10B5C4B240212046FCF709F90306B4
:1058000007D54C212046FCF703F9003818BF0120CA
:1058100010BD01224B212046FCF7E2F82046002271
:105820004B21FCF7DDF80020F2E773B50423C4B286
:105830000E461546D7210DEB03022046FCF702F970
:10584000019B1BBA1A0DC3F30B23328020462B8019
:1058500001224B21FCF7C4F800224B212046FCF723
:10586000BFF802B070BD000010B50A4B1A78904224
:1058700004460DD0597888420AD00AB141B90122B4
:105880009C54FCF7ABF82046BDE81040FFF78BBFF7
:1058900010BD00BF2C30002010B5C4B20921204635
:1058A000FCF7B6F840F00100C2B209212046BDE87D
:1058B0001040FCF795B810B5C4B209212046FCF79A
:1058C000A7F8092100F0FE022046BDE81040FCF7D1
:1058D00087B838B5C4B20D4620460A21FCF798F8BF
:1058E00040EA0502D2B220460A21BDE83840FCF762
:1058F00077B807B50190FCF772F801981F21FFF700
:10590000E8FF019803B05DF804EBFFF7C5BF38B5B9
:10591000C4B20D4620460A21FCF77AF820EA0502B7
:10592000D2B220460A21BDE83840FCF759B810B57C
:105930000446FFF7C0FF20461F21BDE81040FFF7D7
:10594000E6BF10B5C0B20C460B21FCF761F8204051
:1059500010BD1F21FFF7F5BF0A46C0B20B21FCF7AF
:105960003FB81F21FFF7F8BF38B5C4B20D46204637
:105970001721FCF74DF820EA0502D2B22046172184
:10598000BDE83840FCF72CB870B5C4B20646042117
:105990002046FCF73DF8042100F0FB0205462046B6
:1059A000FCF71EF83046F021FFF7DEFF05F0F802A5
:1059B00020460421FCF714F8492220212046FCF758
:1059C0000FF80220FCF754F8204601222121FCF7B1
:1059D00007F820469A224121FCF702F820460122CE
:1059E0004A21FBF7FDFF204601224B21FBF7F8FF80
:1059F000204600224B21FBF7F3FF204601225621CF
:105A0000FBF7EEFF204601225821FBF7E9FF204675
:105A100001224021FBF7E4FF2046FF220B21FBF788
:105A2000DFFFBDE870400220FCF722B8054BD3F839
:105A3000882042F47002C3F888204FF000629A6018
:105A4000704700BF00ED00E008B50B4B1A6842F448
:105A500000721A601A6842F480621A601A6842F48E
:105A600080721A60032000F02FF80020FCF7BEFAC5
:105A7000FCF788F8002008BD003C0240034A044BB4
:105A800011681B780B441360704700BF3030002052
:105A900078000020014B1868704700BF30300020AC
:105AA00038B50446FFF7F6FF631C1CBF054B1B7897
:105AB000054618BFE418FFF7EDFF431BA342FAD3D6
:105AC00038BD00BF780000200749CA6822F4E062B0
:105AD0000302120403F4E063120C134343F0BF63A8
