:020000040800F2
:10000000000003202D0600088D2000088F20000826
:1000100091200008932000089520000800000000AF
:1000200000000000000000000000000081C1000886
:10003000972000080000000011C200089DBA0008C7
:100040007D0600087D0600087D0600087D06000884
:100050007D0600087D0600087D0600087D06000874
:100060007D0600087D0600087D0600087D06000864
:100070007D0600087D0600087D0600087D06000854
:100080007D0600087D0600087D0600087D06000844
:100090007D0600087D0600087D0600087D06000834
:1000A0007D0600087D0600087D0600087D06000824
:1000B0007D0600087D0600087D0600087D06000814
:1000C0007D0600087D0600087D0600087D06000804
:1000D0007D0600087D0600087D0600087D060008F4
:1000E0007D0600087D0600087D0600087D060008E4
:1000F0007D0600087D0600087D0600087D060008D4
:100100007D0600087D0600087D0600087D060008C3
:100110007D0600087D060008992000087D0600087D
:100120007D0600087D0600087D0600087D060008A3
:100130007D0600087D0600087D0600087D06000893
:100140007D0600087D0600087D0600087D06000883
:100150007D0600087D0600087D0600087D06000873
:100160007D0600087D0600087D0600087D06000863
:100170007D0600087D0600087D06000800000000DE
:100180007D0600087D0600087D0600087D06000843
:100190007D0600087D0600087D0600087D06000833
:0C01A000A52000087D060008B120000822
:1001B00010B5054C237833B9044B13B10448AFF3A1
:1001C00000800123237010BD6401002000000000A6
:1001D00000B6020808B5034B1BB103490348AFF34F
:1001E000008008BD000000006801002000B6020881
:1001F00001F0FF01102A2BDB10F0070F08D010F8D8
:10020000013B013A8B422DD010F0070F42B3F6D1DB
:10021000F0B441EA012141EA014122F007047FF0F4
:1002200000070023F0E80256083C85EA010586EA4B
:10023000010685FA47F5A3FA87F586FA47F6A5FA87
:1002400087F68EB9EED1F0BC01F0FF0102F0070293
:1002500032B110F8013B013A83EA010313B1F8D13E
:100260000020704701387047002D06BF354603381F
:10027000073815F0010F07D1013015F4807F02BF58
:10028000013015F4C03F0130F0BC0138704700BFA9
:100290007BB972B90029BEBF00204FF0004106E0D3
:1002A00008BF00281CBF6FF000414FF0FF3000F086
:1002B000BBB9ADF1080C6DE904CE002909DB002BB8
:1002C0001ADB00F04DF8DDF804E0DDE9022304B0AC
:1002D0007047404261EB4101002B1BDB00F040F80E
:1002E000DDF804E0DDE9022304B0404261EB4101A6
:1002F000524263EB43037047524263EB430300F007
:100300002FF8DDF804E0DDE9022304B0404261EBA0
:1003100041017047524263EB430300F021F8DDF8DE
:1003200004E0DDE9022304B0524263EB430370476B
:1003300053B94AB9002908BF00281CBF4FF0FF314C
:100340004FF0FF3000F070B9ADF1080C6DE904CE4C
:1003500000F006F8DDF804E0DDE9022304B07047A0
:100360002DE9F047089E0D4604460F46002B4AD162
:100370008A42944665D9B2FA82F343B102FA03FC89
:10038000C3F120029F4020FA02F217439C404FEA3B
:100390001C4E1FFA8CF5B7FBFEF1220C0EFB1177F9
:1003A00042EA074201FB05F090420AD91CEB020227
:1003B00001F1FF3780F01C81904240F2198102392F
:1003C0006244121AA4B2B2FBFEF00EFB102244EA01
:1003D000024400FB05F5A5420AD91CEB040400F118
:1003E000FF3280F00781A54240F204816444023864
:1003F00040EA0140641B00211EB1DC400023C6E935
:100400000043BDE8F0878B4208D9002E00F0ED8054
:100410000021C6E900050846BDE8F087B3FA83F17C
:10042000002949D1AB4202D3824200F2F880841AFB
:1004300065EB030201201746002EE2D0C6E9004713
:10044000DFE702B9FFDEB2FA82F3002B40F09080C2
:100450008A1A4FEA1C471FFA8CFE0121B2FBF7F5FE
:1004600007FB1520220C42EA00420EFB05F09042E9
:1004700008D91CEB020205F1FF3802D2904200F2CB
:10048000CB804546121AA4B2B2FBF7F007FB10224C
:1004900044EA02440EFB00FEA64508D91CEB040406
:1004A00000F1FF3202D2A64500F2BB801046A4EB59
:1004B0000E0440EA05409FE7C1F120078B4022FA75
:1004C00007FC4CEA030C05FA01F420FA07F3FD409F
:1004D0004FEA1C492343B5FBF9F81FFA8CFE09FBD0
:1004E00018551C0C44EA054408FB0EF5A54202FA17
:1004F00001F200FA01F00BD91CEB040408F1FF3AF9
:1005000080F08880A54240F28580A8F1020864440A
:10051000641B9DB2B4FBF9F309FB134445EA0444A0
:1005200003FB0EFEA64508D91CEB040403F1FF35BE
:100530006CD2A6456AD9023B644443EA0843A3FB54
:100540000295A4EB0E04AC42C846AE4656D353D037
:1005500056B1B0EB080264EB0E0404FA07F7CA4088
:10056000CC401743C6E9007418460021BDE8F08767
:10057000C3F1200102FA03FC20FA01F225FA01F18D
:100580009D402A434FEA1C471FFA8CFEB1FBF7F04F
:1005900007FB1015110C41EA054100FB0EF58D42D9
:1005A00004FA03F408D91CEB010100F1FF382FD243
:1005B0008D422DD902386144491B92B2B1FBF7F547
:1005C00007FB151142EA014205FB0EF1914208D9E1
:1005D0001CEB020205F1FF3816D2914214D9023DFC
:1005E0006244521A45EA004138E73146304608E78E
:1005F0003946E6E61046FBE64845A9D2B9EB0208C3
:1006000065EB0C0E013BA3E74546EAE72B4694E772
:100610004046D1E7D0467BE7023D624432E70846D8
:100620000AE76444023842E7704700BFDFF834D07D
:10063000002103E00C4B5B58435004310B480C4B3A
:1006400042189A42F6D30B4A02E0002342F8043BD8
:10065000094B9A42F9D308F0C1FF2AF055FA00F08D
:10066000FDFF7047000003209C22160800000020B8
:1006700064010020640100202C4A0120FEE770473D
:1006800008B500F069FDBDE8084000F0EBBC00F0E3
:1006900065BD704710B50421044629F041F8204695
:1006A00010BD000038B50C4B0C4C18800C4B822050
:1006B00019806368984740F6110398420AD1094DA2
:1006C00023682C60822098472B688220DB6898473B
:1006D000002038BD0120FCE7800100204C000020F4
:1006E00082010020840100204FF4A071F020FFF768
:1006F000D9BF0000F7B5334D2B6804461B69822033
:10070000984780B2208000284AD02B680DF106025D
:100710005B6901A982209847BDF8063040F67462F3
:1007200093423FD9ADF80620BDF80630D21A92B2F6
:100730000A2A3DD90B23B2FBF3F2234B1B889A42C2
:1007400001D9013B9AB2BDF8043040F6B8318B4272
:1007500030D8C3F571630E339BB20F21B3FBF1F3B5
:100760001A4909888B4201D901398BB2184E194DAB
:1007700030682F68834281B28CBF591AC91AB8B247
:10078000BA428CBF101A801A89B280B2014405297E
:10079000C8BF33603368C8BF2A6063802B68A380FA
:1007A00003B0F0BDB32B9CBFB423ADF80630BBE75C
:1007B0000022C8E7C3F56D6308339BB20E2BCCD87B
:1007C0000023D3E784010020820100208001002063
:1007D000880100208C01002037B568460D4614467C
:1007E000FFF788FFBDF8000030B1BDF802302B6084
:1007F000BDF804302360012003B030BD032821D8A8
:10080000DFE800F0020B12190F4B1A68B2FA82F2FD
:10081000520904210D4809F079B90B4B5A68B2FA14
:1008200082F252090821F5E7074B9A68B2FA82F280
:1008300052091021EEE7044BDA68B2FA82F252094B
:100840002021E7E7704700BF900100200010024020
:10085000032821D8DFE800F0020B12190F4B1A68A9
:10086000003A18BF012204210D4809F04FB90B4B83
:100870005A68003A18BF01220821F5E7074B9A6829
:10088000003A18BF01221021EEE7044BDA68003A63
:1008900018BF01222021E7E7704700BF9001002028
:1008A0000010024003280DD8DFE800F00206080A15
:1008B0000421054809F02FB90821FAE71021F8E7CB
:1008C0002021F6E7704700BF0010024008B503285A
:1008D00011D8DFE800F0020A0C0E0421074809F0E5
:1008E0000FF9431E5842584108BD0821F6E7102170
:1008F000F4E72021F2E70020F3E700BF00100240F8
:1009000070B5084D00240126E0B2FFF7DFFF18B1F3
:100910002B68012B18BF2E600134052C05F104054E
:10092000F2D170BD90010020012380F8781080F88A
:100930007930704700207047034B4164003918BF7D
:1009400001211970704700BFF33D0120002070475E
:10095000836B0BB10846184770474FF6FF7070471E
:10096000406803689B6918477047704770470000EC
:1009700010B5044600F008FD23680349D3F88C3015
:100980002046BDE810401847000000D008B50368B5
:100990000446D3F880309847236820469B6F9847D9
:1009A00000F0ECF8236820461B6F9847292001F0DF
:1009B0008DF800F0E3F8236820461B6F9847F8E7AE
:1009C00010B5044610F0DCF923682046D3F8AC30AB
:1009D000BDE81040184700F0B9BC00F0BDBC00F005
:1009E000F1BC00F08FBC00F00DBD00F0F7BC00F0D2
:1009F00093BC0FF030BC10B57C21044628F090FE6B
:100A0000204610BD90F87A301BB1406803681B681F
:100A1000184718467047000010B590F8341090F849
:100A200078400C4B8C421A7809D03AB90A4A0B49E3
:100A30001488088810800C8001221A7010BD002ACA
:100A4000FCD0054A05491488088810800C800022D3
:100A5000F3E700BFEC3D0120E83D0120EA3D012025
:100A600070B50D46194635B9094B0A4A0A4840F295
:100A7000D22129F09BFDC0E90F52084B003A18BF64
:100A800001221A700368BDE87040D3F88C30184713
:100A90007CB60208B4B6020802B70208F23D012093
:100AA00008B5094B1B888B4203D8084B1B8893421F
:100AB00005D9074B074A08489E2129F077FD074BC7
:100AC0001980074B1A8008BDE83D0120EA3D01204E
:100AD00047B70208AAB7020802B70208EE3D012094
:100AE000F03D0120012108B5002208460BF063F813
:100AF0000A4B186028B90A4B0A4A28210A4829F0EB
:100B000055FD0022042101200BF0F2F8074B18607C
:100B100018B9074B034A2C21F0E708BDA4010020B7
:100B2000C8B8020811B9020840B90208A0010020A3
:100B30008DB90208024B4FF0FF3118680BF085B8F1
:100B4000A4010020014B18680BF0AAB8A4010020F2
:100B5000024B002118680BF078B800BFA4010020F8
:100B6000FFF7F0BF03480449006800231A460BF062
:100B7000FAB800BFA00100200400002013B5084C03
:100B800000231A4601A920680BF01DF920684FF0D8
:100B9000FF33002201A90BF016F902B010BD00BF0F
:100BA000A001002003685B6C1847012070470368B0
:100BB0009B6A184740F2EF3070470000054B036016
:100BC000054B4FF08062C3F88820BFF34F8FBFF30F
:100BD0006F8F70472CBB020800E100E010B504469F
:100BE0004FF45A61FFF7EAFF204628F099FD2046AE
:100BF00010BD000082B0002301930D4B1A6B42F42C
:100C000000021A631A6B02F400020192019A1A6937
:100C100042F400021A611A6922F400021A61054BBB
:100C2000054A1A61054B4FF080629A6002B0704726
:100C300000380240942D0020410C000800E100E043
:100C4000024B1B68586803685B691847F43D012034
:100C500070B5044625460A4B0C30002660602672AB
:100C6000667245F8203B6022294610F0E1F904F550
:100C70005A63EE602435AB42FBD1204670BD00BF05
:100C80002CBB020808B50B290BD8DFE801F01206CF
:100C9000100A0A0A0A0808080808012008BD0520E9
:100CA000FCE7054B054A0648652129F07FFC00203A
:100CB000F4E70220F2E700BFCFB90208EAB9020860
:100CC00034BA020808B50A2909D8DFE801F010068D
:100CD0000E080808080606060600012008BD054B98
:100CE000054A0648862129F061FC0020F6E702202B
:100CF000F4E700BFCFB902087FBA020834BA02088D
:100D00002DE9F84391F81D800C4641460746FFF750
:100D1000B9FF94F81E90054649463846FFF7B2FFE2
:100D2000494606463846FFF7CDFFA18A628B434B02
:100D3000521A1A649A61228B521A1A61E28A586313
:100D400042EA01425A6420696268D863DA6027681F
:100D5000802F28D0227F0FD8202F65D0402F63D03E
:100D6000042F1AD0354B45EA026545F40035C845D5
:100D7000DD615FD0324A44E0B7F5807F04D0B7F53B
:100D8000007FEFD12F4900E02F4941EA0262DA618A
:100D9000E2681A625E62586132E045EA026242F439
:100DA0000032DA61F6E7A7683A1DDA62217F3A7805
:100DB00045EA016545F40035DD615E62586142B186
:100DC000012A21D0214B224A22484FF4887129F070
:100DD000EDFBDA69798822F47F42013922F01002B2
:100DE00042EA0122DA610121144BDA6942F0200261
:100DF000DA61DA699206FCD410229A600029B9D02F
:100E0000154A1A60BDE8F883DA69788822F47F42CF
:100E1000013822F0100242EA0022FF3942F01002AB
:100E200018BF0121DA61DFE745EA0262034B42F4B1
:100E30000032B6E740F20122E3E700BF00B0024013
:100E400001020100090002000A000200CABA0208F9
:100E5000E4BA020834BA02080102020038B50C46AE
:100E6000897FFFF72FFFA58AE28A164B2169586315
:100E700042EA05425A64628BD963521B1A642568A0
:100E8000082D0ED19A611A615862207F0E4A42EAFB
:100E90000062DA61E2681A620C4A5961D9601A602C
:100EA00038BD0022D8611A61E1680A0A480902F4D3
:100EB000784200F4FC600243C1F3C4010A439A6320
:100EC000034AECE700B00240090001000102020001
:100ED00001020300034B1A68D207FCD423229A6054
:100EE000704700BF00B0024030B50F4C2568ED07D9
:100EF000FCD423250904A56041F001010225FF2B44
:100F000065636164E0630AD00849656241EA03638E
:100F1000E361074B22626061E060236030BDE56100
:100F2000039BA363034BF8E700B0024009000100F4
:100F30000100020001000300012070470C207047EF
:100F40000C2303FB0100083070470C2303FB010056
:100F500008307047012070474FF4D45070474FF469
:100F6000D45303FB0100083070474FF4D45303FB04
:100F7000010008307047012070471020704700EBD7
:100F800001100830704700EB011008307047084628
:100F900002F0B2BE10B5034B036004460CF095FEA0
:100FA000204610BDE4BB020810B50446FFF7F2FF6F
:100FB0002046142128F0B4FB204610BD10B5034B89
:100FC000036004460CF081FE204610BDB0BB020851
:100FD00010B50446FFF7F2FF204641F6882128F0BD
:100FE0009FFB204610BD000010B5034B0360044674
:100FF0000CF06BFE204610BD7CBB020810B5044609
:10100000FFF7F2FF2046182128F08AFB204610BD8A
:1010100010B5094B0360044600F5D5501430FFF7B6
:10102000B9FF04F12C00FFF7C9FF04F11400FFF72A
:10103000DBFF204610BD00BF18BC020808B50248FF
:10104000FFF7E6FF08BD00BFAC01002010B5044665
:10105000FFF7DEFF204641F6484128F061FB2046BD
:1010600010BD00002DE9F34101F042FA054601F000
:1010700043FA0024014623462846224600941AF0EB
:101080006FF9284B284A1A60204607F065F8274B6D
:10109000274A284D9A6028481AF0CAF82B68BFF3EF
:1010A0005B8FDB0737D4284628F03CFB98B3234CF2
:1010B000234B236004F1140000F5D55707F13806DF
:1010C00004F12C086060C4F80880E76026610CF029
:1010D000FDFD1C4B636140460CF0F8FD1A4BE362CA
:1010E00038460CF0F3FD04F58053184AC3F8B42ACF
:1010F00003F6C82007F0CEFD224607F11401304662
:1011000007F07EFD304602F0F7FD114829F06CFA39
:10111000284628F013FB0F4802B0BDE8F041FFF766
:1011200027BC00BF583E0120302C0020342C00206A
:10113000F41D0020A801002008000020AC010020C0
:1011400018BC02087CBB0208B0BB0208E4BB020862
:101150003D100008B42B0020704700000148FFF745
:1011600015BC00BFB42B002070B5244E244C254D77
:10117000254B23603046FFF76BFD28461EF0C2FB6F
:10118000224817F03FFD224B2248DC6000224FF43A
:101190008071C3E9121220491A86C3E91A121F4945
:1011A00099671F4983F858200B60F02101801D4882
:1011B0005A6601801C4883F870204FF4A071C3E97F
:1011C0000422C3E90622C3E90822C3E90A22C3E9CB
:1011D0000E22C3E91022C3E91422C3E917225A6779
:1011E000C3E9016501801148018011490A7001229B
:1011F00083F834200F4A1A6070BD00BF141E00200F
:10120000101E0020342C00206CB60208F41D0020B3
:10121000B42B0020E83D0120010000010000010185
:10122000F43D0120EE3D0120EA3D0120F03D01208A
:10123000EC3D0120F8B702080148FFF7BFBC00BF32
:10124000141E00200020704781807047C1807047C5
:101250000181704741817047704770477047704700
:10126000704710B4C4880368121B84885B6D091B27
:1012700012B25DF8044B09B218474FF6FF73838131
:101280004FF0FF3303621368C3611060704790F83A
:1012900025201AB190F8242002B118607047002070
:1012A00070478B88838001207047704780F8261034
:1012B000704790F82600704710B50022B1F9084039
:1012C000B1F90A10028042808480C18010BD0022E2
:1012D000028042808280C28070470177704780ED33
:1012E000080A704780F82410704780F8251070476E
:1012F00001207047983070478C30704784307047B9
:1013000070470000034B902283F85A2383F8582338
:10131000704700BF00E100E0094A0A49D3680A4863
:10132000C3F30A03013B9BB20B801169C1F30A01AD
:10133000013901801364536B43F001035363704719
:1013400000680140C22C0020C02C0020014BD3F8C3
:10135000AC00704700680140024B0122C3F8AC109A
:101360005A627047006801407047704710B52C21E1
:10137000044628F0D5F9204610BD10B5BC2104461E
:1013800028F0CEF9204610BD70B504460EF0B9FF26
:1013900023685D6E16F0C0FA01462046A847236810
:1013A000054AD3F888502046AC460023BDE870407B
:1013B000A2F51631604700BF00B004D00EF088BF20
:1013C0000EF092BF0EF04DBF0FF0AFB890F8252091
:1013D00012B103685B69184770470000084B4FF073
:1013E0008062C3F88820BFF34F8FBFF36F8F4FF039
:1013F0008072C3F88820BFF34F8FBFF36F8F7047A1
:1014000000E100E0034B4FF080629A604FF0807281
:101410009A60704700E100E070B50023124E8380AF
:10142000124B0360336893F8582005460AB1D86C14
:1014300000B998680368DB6A98473368B0FA80F4AB
:10144000D86C640930B10368DB6A9847002808BF8C
:1014500044F001042CB9064B064A07482C2129F018
:10146000A5F8284670BD00BFF43D012028BD020844
:1014700024BC020882BC0208BBBC020870B5244E22
:101480003568BFF35B8F15F001053FD1304628F07A
:1014900049F900283AD01F4C1F4B256104F1340054
:1014A000C4E90035C4E90255E584A562A58517F0B5
:1014B00008FE04F1580011F0EFFE184BA36520461A
:1014C000174B40F8843BFFF7A7FF164BC4F8843056
:1014D0002433C4F88C306423C4E928350023C4F8CD
:1014E000AC30C4F8B030C4F8B430C4F8B8300E48EA
:1014F0000E4BC4F89050C4F89C50C4F8A850C4F8DF
:10150000983029F071F8304628F018F9014870BD7C
:10151000BC2C0020C42C002024E1020848BD020895
:10152000C0BD0208D8E0020801130008B8E00208B4
:1015300010B5144C236823B3134B144A1B6C118849
:101540008B4213D1124B198809F0ECF8226892F8FB
:101550006A30013382F86A30FFF704FB20680FF02D
:101560000FFCBDE810400020FFF748B909F0DAF899
:10157000206803681B6A9847BDE810400020FFF709
:1015800067B910BDF43D012000680140C22C002065
:10159000C02C002007B5064BADF806001B680548B7
:1015A00001220DF1060109F01FFE03B05DF804FBF6
:1015B00010000020042F002008B564200AF0EFFA84
:1015C000FBE7000030B595B0102200210AA829F0F1
:1015D000F2F91422002103A829F0EDF900241D4B93
:1015E00001941A6C42F080521A641B6C03F0805311
:1015F0000193019B184B02941A6842F440421A600E
:101600001B6803F4404302930122029B4FF4803392
:10161000CDE9082302254FF48003CDE90E530821BC
:101620004FF4A873CDE9101308A80423139312955F
:1016300009F096F80F23CDE903354FF4A0504FF48D
:101640008053CDE90603052103A8059409F062FA49
:1016500015B030BD003802400070004080B59AB02F
:1016600007F0CAFFFFF7AEFF142200210DA80024E7
:1016700029F0A1F9C04B00941A6BC048C04D42F04C
:1016800010021A631A6B02F010020092009A019481
:101690001A6B42F020021A631A6B02F020020192C8
:1016A000019A02941A6B42F080021A631A6B02F0DC
:1016B00080020292029A03941A6B42F004021A63A7
:1016C0001A6B02F004020392039A04941A6B42F01C
:1016D00001021A631A6B02F001020492049A059443
:1016E0001A6B42F002021A631A6B02F002020592B0
:1016F000059A06941A6B42F040021A631A6B02F0C4
:1017000040020692069A07941A6B42F008021A6386
:101710001B6B03F00803079322463C21079B08F04C
:10172000F5F998482246042108F0F0F92246964837
:101730004FF4405108F0EAF901264FF003083C232A
:101740008E48CDF840800DA902274FF00409CDE95D
:101750000D360F9408F0EEF88A480F940DA9CDE9E4
:101760000D96109708F0E6F80DA94FF440538648FF
:10177000CDE90D36CDE90F4708F0DCF88348844BFE
:10178000036007F0CBFF834A834B2C62C5E900233B
:1017900028464FF48043C5E90434C5E90244C5E94D
:1017A000064408F0BFFB1021284608F003FE21463E
:1017B000284608F01EFE7948794984624FF4827306
:1017C000C0E900134FF400751823C0E906530A233B
:1017D000744DC362C0E90244C0E90444C0E908444E
:1017E00009F0A6FC704B0D974FF0100CC5E90036C0
:1017F0004023C5E904C34FF4C073C5E906344FF470
:101800000063C5E908344FF40053AB620DA9072308
:101810002846CDE90E39CDE910384FF0080AC5E960
:101820000249CDE9127709F067FB4FF6FF7209A96B
:101830002846CDE90AA6089409960C9409F07CFB89
:10184000304607F005FF4FF6FF7209A92846CDE99B
:10185000097ACDE90B6409F06FFB4FF6FF7209A915
:101860002846CDE9098ACDE90B9409F065FB4FF4D0
:101870000C730893089B0C934FF6FF7209A9284636
:10188000CDE9099A0B9609F057FB40F26A512846B8
:1018900009F070FB342221460DEB020029F08BF891
:1018A000424D434BAC86C5E900340923C5E90536F2
:1018B0001D2340F20D1EC5E9073840F24313C5E968
:1018C00009E3284640F2471340F21718C5E90B8395
:1018D000C5E902442C6185F8364008F02BFEFF2153
:1018E000F022CDE912144FF4806905214FF4A07362
:1018F000CDE90E24CDE91491CDE916420DA9224679
:101900002846CDE910372B4D18930D94ADF864405F
:101910008DF8664008F0D9FE274B2B601B6898476E
:101920002B68264DDB689847254BC5E90A47C5E972
:101930000C442846C5E90034C5E9027407F0FEFEF0
:101940003146284607F0B2FFFEF79AFEFEF797FEF3
:101950000AF0B2F81B4A1C4821460AF0D9F81B4B82
:101960001B4A186021461B480AF0D2F81A4B18602F
:101970000AF0B4F8FEE700BF003802400010024051
:10198000D42D002000080240000C02408C2D0020C5
:1019900000300240005C0040A0860100042F0020BF
:1019A00000500140D02E0020400100A0282E002031
:1019B00000680140842D002014000020942D002098
:1019C00000B0024040BE0208B9150008882D002072
:1019D0001CBE02088F060008802D0020704770474B
:1019E0007FB5094B8DF817201B6802930DF1170284
:1019F0000123009201930A460146044808F03AFB8D
:101A000007B05DF804FB00BF0C000020D42D0020BF
:101A10007FB500238DF81730084B1B6802930A46E8
:101A200001230DF11701009101930146044808F0CC
:101A3000B1FB9DF8170007B05DF804FB0C00002017
:101A4000D42D00201FB5084C24680092CDE9013444
:101A50000A4601230146054808F09CFB003818BFE0
:101A6000012004B010BD00BF0C000020D42D0020C8
:101A700007F0EEBD08B506480022042108F046F83C
:101A8000BDE8084002480122042108F03FB800BF29
:101A90000008024038B50B4D044601220A484FF4B5
:101AA000005108F033F800220421284608F02EF8EF
:101AB0002046FFF76FFD28460122BDE8384004218B
:101AC00008F024B800080240000C024038B50B4D65
:101AD000044600220A484FF4005108F017F800228B
:101AE0000421284608F012F82046FFF753FD284647
:101AF0000122BDE83840042108F008B8000802407F
:101B0000000C0240F7B5144E144F05460C46304603
:101B10000022042107F0FAFF00224FF4005138465A
:101B200007F0F4FF2846FFF735FD0D4B0D481B6805
:101B3000224601A909F001FD384601224FF4005167
:101B4000019C07F0E3FF30460122042107F0DEFF8D
:101B5000204603B0F0BD00BF00080240000C024068
:101B600010000020042F002007F072BD0268034B14
:101B70009A4201D107F05ABD704700BF00100040E3
:101B80007047000082B00E4B00220092596C41F465
:101B900080415964596C01F480410091009901928F
:101BA000196C41F0805119641B6C03F08053019350
:101BB000019B0F216FF0010002B007F06FBD00BF65
:101BC000003802400268094B9A4282B00BD10023D0
:101BD0000193074B1A6B42F480521A631B6B03F498
:101BE00080530193019B02B0704700BF0030024058
:101BF0000038024007B50F4B02689A4216D1002206
:101C0000A3F5F0430192196B41F4000119631B6BBA
:101C100003F40003019305215A20019B07F03EFDC8
:101C20005A2003B05DF804EB07F06ABD03B05DF81D
:101C300004FB00BF00B002402DE9F043044689B028
:101C40001422002103A828F0B6FE2268244B9A42F1
:101C500043D1244C244800250095236B43F0040312
:101C60002363236B03F004030093009B0195236B14
:101C700043F001032363236B03F001030193019BF2
:101C80004FF012094FF400734FF0010803270426A8
:101C900003A9CDE90339CDE90587079607F04AFE88
:101CA0004FF480731148079603A9CDE90339CDE9B4
:101CB000058707F03FFE0295236C43F4000323647D
:101CC000236C03F400030293029B236A43F4000392
:101CD0002362236A23F40003236209B0BDE8F08382
:101CE000005C004000380240000802400000024052
:101CF000F0B599B004461422002107A828F05BFE35
:101D000030220DEB0200002128F055FE22685E4BC8
:101D10009A4240F0B78008230C93C0231093042309
:101D200012930CA84FF40033159308F0BBFF08B1D1
:101D3000FFF726FF554B5648002400945A6C42F09A
:101D400080625A645A6C02F080620092009A019498
:101D50001A6B42F020021A631A6B02F02002019201
:101D6000019A02941A6B42F001021A631A6B02F094
:101D700001020292029A03941A6B42F002021A6361
:101D80001A6B02F002020392039A04941A6B42F057
:101D900040021A631A6B02F040020492049A0594FE
:101DA0001A6B42F004021A631A6B02F004020592E5
:101DB000059A06941A6B42F008021A631B6B03F033
:101DC0000803069302250E26069B0B964FF48063AC
:101DD00007A9CDE90735CDE9094507F0ABFD41F687
:101DE00058032C480B9607A9CDE907350927CDE9FB
:101DF000094507F09FFD032327480B9707A9CDE965
:101E00000735CDE9094507F095FD4FF47063224889
:101E10000B9607A9CDE90735CDE9094507F08AFDFD
:101E20004FF40C631D480B9607A9CDE90735CDE9A2
:101E3000094507F07FFDC02319480B9607A9CDE996
:101E40000735CDE9094507F075FD082315480B96C0
:101E500007A9CDE90735CDE9094507F06BFD4FF43A
:101E6000A0530E480B9707A9CDE90735CDE90945E1
:101E700007F060FD58202246052107F00FFC58208E
:101E800007F03EFC19B0F0BD006801400038024088
:101E9000001402400000024000040240001802400A
:101EA00000080240000C024010B5044688B014221D
:101EB000002103A828F07FFD2268144B9A4223D109
:101EC00003F56843002101915A6C114842F48012D5
:101ED0005A645A6C02F480120192019A02911A6BB0
:101EE00042F020021A631B6B03F020030293029B53
:101EF0004FF4607202230321CDE903230523CDE9CA
:101F0000061303A907F016FD08B010BD00500140EC
:101F1000001402402DE9F04186B0002303932B4BBF
:101F20001C68002C4FD14FF00108C3F80080284BEB
:101F300000949A6B274842EA08029A639B6B03EA73
:101F400008030093022703260C25009B01A94FF6E6
:101F50003F03CDE90137CDE9046507F0EBFC1E48EE
:101F6000059501A9CDE90187CDE9034607F0E2FC1B
:101F700048F233131948059501A9CDE90137CDE998
:101F8000034607F0D7FC4FF683731548059501A962
:101F9000CDE90137CDE9034607F0CCFC4CF20373E1
:101FA0001048059501A9CDE90137CDE9034607F0B1
:101FB000C1FC60230C48059501A9CDE90137CDE9A5
:101FC000034607F0B7FC06B0BDE8F0815C2F0020A7
:101FD000003802400014024000080240001802408D
:101FE00000100240000C02400004024070B588B0AE
:101FF00000230293204B1A6C42F010021A641B6CEF
:1020000003F010030293054601A903A8029B08F000
:102010002BFE069B4BBB08F017FE184E184B336087
:1020200040F2E733F360174BB0FBF3F3013B73600F
:10203000304600233361B360B36109F063FC0446AA
:1020400080B9304609F020FB044658B9362007F025
:1020500057FB0F2D0DD822462946362007F01EFBD0
:10206000094B1D60204608B070BD08F0EDFD400032
:10207000D3E70124F6E700BF00380240602F0020BC
:102080000010004040420F007C0000207047FEE737
:10209000FEE7FEE7FEE77047014809F033BB00BFEB
:1020A000602F0020014808F0B3BA00BF282E00209E
:1020B000014807F071BB00BF942D0020012070473C
:1020C00008B528F01BFD162303604FF0FF3008BD54
:1020D00008B528F013FD16230360FEE770B50D4622
:1020E00014460E46731B9C4201DC204670BDAFF3C4
:1020F000008006F8010BF5E770B50D4614460E4654
:10210000731B9C4201DC204670BD16F8010BAFF337
:102110000080F5E74FF0FF3070474FF400534B60FD
:102120000020704701207047002070470A4A11685C
:1021300008B5034609B909491160106869460344A6
:102140008B4206D928F0DAFC0C2303604FF0FF30F5
:1021500008BD1360FCE700BFA82F0020304A012013
:1021600070477047704770477047704770477047B7
:10217000704730B4C26844685510034604EB6200EF
:10218000D20748BF62599B6830BC48BFD358184734
:1021900043682BB183682BB9C06800F00100704719
:1021A000184670470120704710B50821044627F0F3
:1021B000B7FA204610BD10B51021044627F0B0FA3A
:1021C000204610BD10B54FF4C071044627F0A8FAA0
:1021D000204610BDE030884208B505D115F09CFBC3
:1021E000BDE8084001F098BD08BD70B5036804461D
:1021F0001B6B154698472368294620465B6BBDE854
:102200007040184770B504461D46BDF91060FFF7D1
:10221000ECFF2368294620469B6B9847236831468C
:102220002046DB6BBDE8704018470000094A026099
:102230004FF4807100228184FF21C0E90122C0E9AE
:102240000322C0E90522C0E9072280F82610826235
:10225000704700BFECE602084FF4807181840D499D
:1022600001600D4981624FF6FF7181854FF47F0156
:10227000002241634FF0FF31C0E90122C0E903228F
:10228000C0E90522C0E90722C0E9101202630287F3
:10229000C26370475CE6020830BF02081A4B73B590
:1022A0001B88018F8B4206462BD9184B1B682BB914
:1022B000174B184A18486C2128F078F913F81120A8
:1022C000164B1B6853F82250154B186805F080FF19
:1022D0002B6801909B6B284698472B6801999B6C53
:1022E0000446284698472B6801995B6A14FB00F462
:1022F00028469847A4B223181BB2A6F8463002B06D
:1023000070BD0023F9E700BF503E01204C3E012084
:1023100064BE0208A6BE0208E1BE0208543E0120C7
:10232000583E01202DE9F04F04468BB0A24600250F
:1023300017F04CFA564BE5634AF8403B04F16C0B3E
:10234000504604F19809FFF771FF5846FFF76EFFFA
:1023500004F1E0084846FFF77FFF04F59477404614
:1023600012F060FF3846FFF777FF4A4BC4E95C3450
:10237000494BC4E95E354FF4A0732A4600932946C1
:102380005046F023FFF73EFF261D4FF07F43A36624
:10239000514630460CF0F3FF4FF4A0732A460093E9
:1023A00029465846F023FFF72DFF3C4BC4F89430E4
:1023B000594630460CF0E3FF0F2248461421FFF740
:1023C00014FF0DF1080A364BC4F8C8304946504690
:1023D000A4F8CC5011F02CFF9AE8070004F1D403C4
:1023E00083E80700DFF8BCB0CDF820B0272308A9A8
:1023F0004846ADF8243012F0B5F9494630460CF0A5
:10240000BEFF40460722C521FFF7EFFE022308AAC0
:1024100007A9ADF81C3040460323ADF8203012F078
:10242000D4FB2623A4F818314046FFF737FF4FF0BE
:10243000FF3904F5B873C4F8083141463046C4E9A1
:1024400047990CF09CFF4B2238461821FFF7CDFE30
:1024500039465046C4F85891A4F85C5111F0E8FE92
:102460009AE8070004F5B27383E80700252308A95A
:102470003846ADF82430CDF820B012F073F930466C
:1024800039460CF07CFF20460BB0BDE8F08F00BF52
:1024900058BF020840BF0208D52100082B2B2BFF94
:1024A000808080FF30BF0208704708B5062915D824
:1024B000DFE801F00C04080C100C100006F05EF9C7
:1024C000406808BD06F05AF98068FAE706F056F948
:1024D0000068F6E706F052F9C068F2E70020F0E77E
:1024E00010B50421044627F01BF9204610BD00005A
:1024F0000048704798BF02080E20704713B50024AB
:1025000051B1036801948DF8034001AA9C680DF154
:102510000303A04702B010BD0846FBE7C08970471F
:10252000008A7047C088704780887047807A00F0C2
:102530007F007047807AC009704700207047000014
:102540009FED010A704700BF0000000030B503682E
:10255000018185B06D460146D3F884300446284693
:10256000984795E807003C3484E8070005B030BD83
:1025700030B50368418185B06D460146D3F884309B
:1025800004462846984795E807003C3484E807004D
:1025900005B030BD0022028042808280C280704738
:1025A00080F83610704770B5036804461B6B1546FB
:1025B00098472368294620465B6EBDE8704018475F
:1025C00000207047806C70477047704770477047B5
:1025D000704770477047704770477047704730B416
:1025E000C26844685510034604EB6200D20748BF36
:1025F00062599B6830BC48BFD358184743682BB119
:1026000083682BB9C06800F0010070471846704716
:102610000120704710B54C21044627F081F8204670
:1026200010BD10B51021044627F07AF8204610BDE1
:1026300010B540F2F451044627F072F8204610BD60
:1026400000F1E003994270B504460D4603D115F040
:1026500063F901F061FB04F5B2739D4203D1236875
:102660002046DB6A984704F5EE739D4203D1236848
:1026700020461B6B984704F5D0739D4203D1236815
:1026800020465B6B984704F506739D4203D123688F
:1026900020469B6B984704F515739D4203D1236830
:1026A0002046DB6B984704F524739D4203D12368D1
:1026B00020461B6C984704F594739D4205D123680E
:1026C00020465B6CBDE87040184770BD08B5FEF74A
:1026D0007DFE08BD036870B55E6B124B1B68044637
:1026E0008DB22BB9104B114A6C21114827F05EFFB7
:1026F0001049828D0988914203D80F4B0B4A6D21F6
:10270000F3E713F812200D4B1B6853F822000368FF
:102710001B6B9847281A01B233462046BDE870402B
:10272000184700BF4C3E012064BE0208A6BE020846
:10273000E1BE0208503E0120B0C00208543E012014
:1027400000224FF0FF31C0E9002182607047000095
:1027500010B50446FFF780FD024B23600023A364FD
:10276000204610BD34C102082DE9F04F2DED108B2D
:1027700004468DB0A0464FF0000B17F027F8E94B48
:10278000C4F83CB048F8403B04F16C0A4046FFF7FF
:102790004DFD04F198075046FFF748FD04F1E006AF
:1027A0003846FFF759FD04F59479304612F03AFDAA
:1027B000484612F0D9FB04F5B27318460CEE903A75
:1027C00012F0D2FB04F5D07318460DEE103A12F059
:1027D000CBFB04F5EE7318460DEE903A12F0C4FBF5
:1027E00004F5067318460EEE103A12F0BDFB04F520
:1027F000157318460EEE903A12F0B6FB04F52473EA
:1028000018460FEE103A12F0AFFB04F5337318467A
:1028100009EE103AFFF720FD04F54573184608EE5F
:10282000103AFFF795FF04F55873184608EE903AF2
:10283000FFF78EFF04F56B73184609EE903AFFF729
:102840000BFD04F57D7318460AEE103AFFF780FF82
:1028500004F5886318460AEE903AFFF779FF04F210
:102860008C4318460BEE103AFFF7F6FC04F2D44303
:1028700018460BEE903AFFF76BFF04F5A463184679
:102880000CEE103AFFF764FFA74BC4F8E435A74BF2
:10289000C4F8EC354FF4A0735A46404600935946AD
:1028A000F023C4F8E845C4F8F0B5251DFFF7AAFCED
:1028B0004FF07F434146A36628460CF060FD4FF47D
:1028C000A0735A46504600935946F023FFF79AFCEE
:1028D000974BC4F89430514628460CF050FD0F2217
:1028E00038461421FFF781FC0DF1080A914BC4F81A
:1028F000C83039465046A4F8CCB011F099FC9AE89B
:10290000070004F1D40383E807008B4B0A93384691
:1029100024230AA9ADF82C3011F024FF39462846AB
:102920000CF02DFD30460722C521FFF75EFC022387
:102930000AAA09A93046ADF824300323ADF828309F
:1029400012F043F92323A4F81831304604F2E45876
:10295000FFF7A4FC4FF0FF323146C4E94722284676
:10296000C4F808810CF00BFD48464FF482724121F7
:10297000FFF73BFC04234FF00A0209A9ADF81C3015
:10298000ADF82030ADF824200B46ADF8282008A97A
:102990000AAA484600920A4607A912F050FA1E23D6
:1029A000C4F8603149462846C4F850810CF0E7FC71
:1029B0001CEE900AA0221D21FFF717FC09A90B4667
:1029C0000AAA08A901276FF006164FF00C091CEEA1
:1029D000900A00920A4607A9ADF81C70ADF8249041
:1029E000ADF82890ADF820B012F029FA1CEE901A3C
:1029F000C4F89C612846C4F88C810CF0C0FC1DEE24
:102A0000100AA0226B21FFF7F0FB4FF00A0209A881
:102A10000346ADF8282008A80AAA009207A9024692
:102A20001DEE100AADF81C70ADF82490ADF820B082
:102A300012F005FA1DEE101AC4F8D8612846C4F841
:102A4000C8810CF09CFC1DEE900AD2221D21FFF7DC
:102A5000CCFB09A803460AAA08A84FF00B0900926C
:102A600007A902461DEE900AADF81C70ADF820B023
:102A7000ADF82490ADF8289012F0E1F91DEE901A0F
:102A8000C4F814622846C4F804820CF078FC1EEEE8
:102A9000100AD2226B21FFF7A8FB09A803460AAA55
:102AA00008A8009207A902461EEE100AADF81C7095
:102AB000ADF820B0ADF82490ADF8289012F0BFF931
:102AC0001EEE101AC4F850622846C4F840820CF07A
:102AD00056FC1EEE900AA022AF21FFF786FB4FF0B6
:102AE0000A02ADF828200AAA4FF00C01009209AAA8
:102AF00013461EEE900A08AAADF8241007A9ADF8F7
:102B00001C70ADF820B012F09AF91EEE901AC4F8BD
:102B10008C622846C4F87C820CF031FC1FEE100A4F
:102B20000CE000BFDCC10208C4C102084126000855
:102B30002B2B2BFF808080FF30BF0208D222AF21D9
:102B4000FFF753FB0AAA009209AA13461FEE100AC8
:102B500008AA07A9ADF81C70ADF820B0ADF8249014
:102B6000ADF8289012F06BF91FEE101AC4F8C86285
:102B70002846C4F8B8820CF002FC19EE100A56225E
:102B80002521FFF732FB4FF07F4219EE101AC4F8EF
:102B9000FC225046A4F800B311F04AFB9AE8070063
:102BA00004F5427383E807001E4B0A9319EE100ADE
:102BB0001A230AA9ADF82C3011F0D4FD19EE101A21
:102BC00028460CF0DCFB7E2218EE100A1D21FFF7D0
:102BD0000CFB4FF07F43C4F84433D4F81433A4F80B
:102BE00048B3D3F88430104E18EE101A5046984768
:102BF0009AE8070004F5547383E80700336804F289
:102C00006C572BB9094B0A4A60210A4827F0CEFCC1
:102C1000DFF82880B8F800300F2B11D8064B044A93
:102C20006121F2E730BF02084C3E012064BE020879
:102C3000EEC00208E1BE0208B0C00208503E01200A
:102C4000D64B0F21186805F0C3FAD54A03460A216E
:102C5000384618F0DFFA18EE100AC4F85C7311F069
:102C600061FDD04F0A97172318EE100A0AA9ADF894
:102C70002C3011F077FD18EE101A28460CF07FFB6F
:102C800018EE900A36221D21FFF7AFFAD4F8603310
:102C9000C54AD3F88430C4F8902318EE901A5046F1
:102CA000A4F894B398479AE8070004F5677383E89B
:102CB0000700336804F5B067002BA3D0B8F80030E4
:102CC0000B2BABD9B54B4946186805F081FAB44ACD
:102CD00003460A21384618F09DFA18EE900AC4F807
:102CE000A87311F01FFD4FF00C01AE4FADF82C1082
:102CF00018EE900A0AA90A9711F034FD18EE901AFE
:102D000028460CF03CFB562219EE900A7021FFF782
:102D10006CFA4FF07F41C4F8DC13504619EE901A5C
:102D2000A4F8E0B311F084FA9AE8070004F57A7386
:102D300083E80700192319EE900A0AA9ADF82C3090
:102D40000A9711F00FFD19EE901A28460CF017FBA8
:102D500070211AEE100A7E22FFF747FA4FF07F41EA
:102D60003368C4F824144FF0FF31A4F828B4C4F831
:102D700030B4C4F83414C4F838B404F29457002BB7
:102D80003FF440AFB8F800300E2B7FF647AF834BCF
:102D90000E21186805F01CFA814A03460A213846BC
:102DA00018F038FA1AEE100AC4F83C7411F0BAFCA4
:102DB0007C4F0A9716231AEE100A0AA9ADF82C3098
:102DC00011F0D0FC1AEE101A28460CF0D8FA362270
:102DD00070211AEE900AFFF708FA3368724AC4F8B5
:102DE00070244FF0FF31A4F874B4C4F87CB4C4F874
:102DF0008014C4F884B404F5B567002B3FF402AF27
:102E0000B8F80030092B7FF609AF644B0921186828
:102E100005F0DEF9624A03460A21384618F0FAF94D
:102E20001AEE900AC4F8887411F07CFC5D4F0A9782
:102E30004FF00A031AEE900A0AA9ADF82C3011F0EF
:102E400091FC1AEE901A28460CF099FA56221BEEC5
:102E5000100ABA21FFF7C9F94FF07F431BEE101A91
:102E6000C4F8BC345046A4F8C0B411F0E1F99AE8B3
:102E7000070004F5996383E8070018231BEE100A86
:102E80000AA9ADF82C300A9711F06CFC1BEE101A51
:102E900028460CF074FA1BEE900A7E22A221FFF75E
:102EA000A4F94FF07F43C4F804354FF0FF33C4F862
:102EB00014353368A4F808B5C4F810B5C4F818B5CB
:102EC00004F2BC57002B3FF49DAEB8F800300D2B38
:102ED0007FF6A4AE314E0D21306805F079F9304A05
:102EE00003460A21384618F095F91BEE900AC4F8FB
:102EF0001C7511F017FC2B4F0A9715231BEE900A37
:102F00000AA9ADF82C3011F02DFC1BEE901A2846C2
:102F10000CF035FA36221CEE100AA221FFF765F9F3
:102F20000023A4F85435C4F85C35C4F864351F4B4D
:102F30001D4A1B68C4F850254FF0FF32C4F86025C5
:102F400004F5BA68002B3FF45DAE194B1B88072BC4
:102F50007FF664AE3068072105F03AF9104A03465F
:102F60000A21404618F056F91CEE100AC4F868858C
:102F700011F0D8FB08231CEE100A0AA9ADF82C307A
:102F80000A9711F0EFFB28461CEE101A0CF0F7F927
:102F900020460DB0BDEC108BBDE8F08F583E0120EF
:102FA00026C1020830BF0208787329FF4C3E012079
:102FB000503E0120704770470368DB6A184770472E
:102FC00030B4C26844685510034604EB6200D2076F
:102FD00048BF62599B6830BC48BFD3581847436804
:102FE0002BB183682BB9C06800F001007047184608
:102FF00070470120704710B51021044626F090FB61
:10300000204610BD9830884208B505D114F084FCE4
:10301000BDE8084000F080BE08BD0000074A02601D
:103020000022C0E90122C0E90322C0E90522C0E96B
:1030300007224FF480728284704700BF94E902082F
:103040002DE9F04F2DED108B044699B02746002551
:1030500016F0BCFBEA4BE56347F8403B3846FFF708
:10306000E5F804F16C0304F1980818460793FFF79C
:10307000DDF8404612F0D6F804F1E00304F5947947
:1030800018460AEE903AFFF7E7F848460CF03EFD86
:1030900004F5087318460BEE103ADFF88CB3FFF70F
:1030A000BDFF04F51373C4F820B2C4F848521846A3
:1030B0000BEE903AFFF7D0F804F52573184604F5A7
:1030C00038760AEE103AFFF7C7F8CE4BC4F89432C0
:1030D000C4F8DC5230460AF0CBFE04F5787318468B
:1030E0000B93FEF799F9C84BC4F8E03303F12402BF
:1030F00004F57D71C4F8E823C4F8EC5308460CEEDF
:10310000101AFFF78BFF04F58461C4F8F4B3C4F818
:103110001C5408460CEE901AFFF79EF804F58D61DA
:1031200008460DEE101AFFF797F804F59661084669
:1031300008EE101A0AF09CFE04F5B66108460C91E0
:10314000FEF76AF9B04BC4F8B03503F1240204F27B
:10315000C451C4F8B825C4F8BC5508460DEE901A01
:10316000FFF75CFF04F5BE61C4F8C4B5C4F8EC55C4
:1031700008460EEE101AFFF76FF804F5C76108460F
:103180000EEE901AFFF768F804F5D061084608EED5
:10319000901A0AF06DFE04F5F06108460D91FEF7F5
:1031A0003BF9994BC4F8803703F1240204F294717F
:1031B000C4F88827C4F88C5708460FEE101AFFF79A
:1031C0002DFF04F5F861C4F894B7C4F8BC5708465D
:1031D0000FEE901AFFF740F804F6080104F5056AAF
:1031E00008460391FFF738F850460AF041FE04F50F
:1031F000156108460E91FEF70FF9834BC4F850395C
:1032000003F1240204F66411C4F85829C4F85C5987
:1032100008460491FFF702FF04F51961C4F864B988
:10322000C4F88C5908460591FFF716F804F6D81132
:1032300004F5226B08460691FFF70EF858460AF08F
:1032400017FE04F5326108460F91FEF7E5F86E4B64
:10325000C4F8203B03F1240204F63433C4F8282BCD
:10326000C4F82C5B184609EE903A0BF0C3FF04F645
:10327000CC3318460893FEF7D9FF04F6F833184606
:103280000993FEF7D3FF04F6244318460A93FEF78A
:10329000CDFF04F580535D4AC3F8642A5C4AC3F845
:1032A000684AC3F86C2AC3F8705A04F654404FF4C5
:1032B000616112F073FE4FF4A0732A460093294611
:1032C0003846F023FEF79EFF4FF07F43A366231D91
:1032D0003946184609EE103A0CF051F84FF4A07335
:1032E0002A46079800932946F023FEF78BFF494BA7
:1032F000C4F89430079919EE100A0CF040F84046D3
:103300000722C521FEF771FF022316AA15A9ADF801
:10331000543040464FF00303ADF8583011F055FCDF
:103320004FF03303A4F8D0304046FEF7B7FF4FF01C
:10333000FF33C4E9353304F5D3530433C4F8C03044
:1033400019EE100A41460CF01AF81AEE900A0D22F6
:103350001B2110AFFEF749FF2F4BC4F810311AEEB6
:10336000901A3846A4F8145110F062FF97E807004D
:1033700004F58E734FF0320883E80700274B16934D
:103380001AEE900A16A9ADF85C8011F0EBF91AEE6E
:10339000901A19EE100A0BF0F2FF294648461F2238
:1033A000FEF723FF4FF009020823ADF8582015A9B6
:1033B00016AA4846ADF854300CF048FCF0224846B6
:1033C0005A210CF0EFFA414648460CF064FA4146A7
:1033D00048460CF0E5FA124AC4F828221BEE900A7F
:1033E0001A222021FEF701FF0E4AC4F87C221BEEB0
:1033F000901A3846A4F8805210F01AFF16E000BF69
:1034000044C2020834C10208D8E002082CC20208F3
:10341000053000082B2B2BFF999999FF30BF02082C
:10342000F0000501FFF700FF0CDE020897E8070037
:1034300004F5227383E80700EE4B16931BEE900A07
:10344000302316A9ADF85C3011F08CF91BEE901A00
:103450001BEE100A0BF093FF1AEE100A40225B21BC
:10346000FEF7C3FED4F89432E34AC4F8C4221AEE3D
:10347000101A3846D3F88430A4F8C852984797E811
:10348000070004F5347383E8070004F545631AEE7A
:10349000100AC4F8DC32A4F8505C11F043F9D54BA3
:1034A00016931AEE100A312316A9ADF85C3011F00C
:1034B00059F91AEE101A1BEE100A0BF060FF304695
:1034C0006B224121FEF791FE6E20009003462A46B2
:1034D000294630460AF070FC2B46294630460095B6
:1034E00064220AF0F9FC3722114630460AF0F9FB53
:1034F000414630460AF01FFC30460A210AF021FC02
:10350000B422294630460AF0A0FC3046B4210AF025
:103510001FFC4FF00700ADF8580016A930460AF01E
:1035200009FE40F29F7CB548A4F8F0C30B99C4F89B
:10353000EC0330460AF0D2FB30463C210AF069FC2D
:103540001BEE100A31460BF01AFF1BEE101A48460C
:103550000CF0F3FBAA49C4F8FC131CEE900A1722E6
:103560004C21FEF742FEA44AC4F850241CEE901AE7
:103570003846A4F8545410F05BFE97E807000DF1AC
:10358000580E04F25C439B4E169683E807002D23E9
:1035900071461CEE900AADF85C3011F0E3F81CEEB9
:1035A000901A1CEE100A0BF0EAFE1DEE100A3C22E7
:1035B0005B21FEF71AFE904AC4F898241DEE101AFB
:1035C0003846A4F89C5410F033FE97E807000DF13C
:1035D000580E04F2A44383E8070071462C231DEE25
:1035E000100AADF85C30169611F0BCF81DEE101AFA
:1035F0001CEE100A0BF0C3FE18EE100A6B224121DC
:10360000FEF7F3FD6E2318EE100A00932A462946B2
:103610000AF0D2FB2B4618EE100A294600956422C8
:103620000AF05AFC3722114618EE100A0AF059FB2C
:1036300018EE100A41460AF07EFB18EE100A0A2125
:103640000AF07FFB4FF4B47218EE100A29460AF014
:10365000FCFB18EE100AB4210AF07AFB0DF1580EAB
:103660004FF00703714618EE100AADF858300AF013
:1036700061FD40F29F7C6148A4F8C0C50C99C4F874
:10368000BC0518EE100A0AF029FB18EE100A3C21BE
:103690000AF0BFFB18EE101A1CEE100A0BF06FFEBA
:1036A0001CEE101A48460CF048FB5549C4F8CC15DE
:1036B0001EEE100A17223621FEF797FD4E4AC4F877
:1036C00020261EEE101A3846A4F8245610F0B0FD3D
:1036D00097E807000DF1580E04F22C6383E8070009
:1036E0002B2371461EEE100AADF85C30169611F0D1
:1036F00039F81EEE101A1DEE900A0BF040FE1EEE79
:10370000900A3C225B21FEF770FD3B4AC4F8682614
:103710001EEE901A3846A4F86C5610F089FD97E812
:1037200007000DF1580E04F2746383E807002A23A2
:1037300071461EEE900AADF85C30169611F012F844
:103740001EEE901A1DEE900A0BF019FE18EE900A6C
:103750006B224121FEF749FD4FF06E0E7346CDF806
:1037600000E018EE900A2A4629460AF025FB2B466F
:1037700018EE900A2946009564220AF0ADFB372224
:10378000114618EE900A0AF0ACFA18EE900A41467B
:103790000AF0D1FA18EE900A0A210AF0D2FA4FF490
:1037A000B47218EE900A29460AF04FFB18EE900A00
:1037B000B4210AF0CDFA0DF1580E4FF0070371460F
:1037C00018EE900AADF858300AF0B4FC40F29F7C35
:1037D0000A48A4F890C70D99C4F88C0718EE900A0F
:1037E0000AF07CFA18EE900A3C210AF012FB18EE5F
:1037F000901A07E030BF0208FFF700FFFFF000FF5C
:10380000F00005011DEE900A0BF0B9FD1DEE901AB7
:1038100048460CF092FAD149C4F89C171FEE900A62
:103820003C225B21FEF7E1FCCD4AC4F8F0271FEEF5
:10383000901A3846A4F8F45710F0FAFC97E80700FD
:103840000DF1580E04F2FC7383E80700282371463B
:103850001FEE900AADF85C30169610F083FF1FEE55
:10386000901A1FEE100A0BF08AFD03982A463321A6
:10387000FEF7BBFCBA4A0399C4F838283846A4F8C6
:103880003C5810F0D5FC97E807000DF1580E04F6EF
:10389000440383E80700292371460398ADF85C30A0
:1038A000169610F05FFF03991FEE100A0BF067FDEC
:1038B00050466B224121FEF798FC4FF06E0E734686
:1038C000CDF800E02A46294650460AF075FA2B4604
:1038D00029465046009564220AF0FEFA3722114626
:1038E00050460AF0FEF9414650460AF024FA504686
:1038F0000A210AF026FA4FF4B472294650460AF01B
:10390000A4FA5046B4210AF023FA0DF1580E71467C
:103910004FF007035046ADF858300AF00BFC40F268
:103920009F7C9048A4F860C90E99C4F85C09504681
:103930000AF0D4F950463C210AF06BFA1FEE100A47
:1039400051460BF01CFD1FEE101A48460CF0F5F91D
:1039500082490598C4F86C1917224C21FEF745FCE2
:103960007F4A0599C4F8C0293846A4F8C45910F014
:103970005FFC97E8070004F6CC1383E807002F23C9
:103980000598ADF85C3016A9169610F0EBFEDDE94F
:1039900004010BF0F4FC06983C225B21FEF725FCA9
:1039A0006F4A0699C4F8082A3846A4F80C5A10F051
:1039B0003FFC97E8070004F6142383E807002E2352
:1039C0000698ADF85C3016A9169610F0CBFE069955
:1039D0000498654F0BF0D3FC58466B224121FEF74B
:1039E00004FC6E221346009229462A4658460AF0E5
:1039F000E3F92B4629465846009564220AF06CFAF2
:103A00003722114658460AF06CF9414658460AF0EA
:103A100092F958460A210AF094F94FF4B4722946F3
:103A200058460AF012FA5846B4210AF091F94FF0BC
:103A3000070316A95846ADF858300AF07BFB40F250
:103A40009F7C4848A4F830CB0F99C4F82C0B5846FB
:103A50000AF044F958463C210AF0DBF9049859462B
:103A60000BF08DFC049948460CF067F9294648464E
:103A70000CF054F919EE100A49460BF080FC1C2397
:103A80004FF4927219EE900A009309216223FEF717
:103A9000B9FB19EE900A35490BF0EAFA19EE900AD3
:103AA000169616A91126ADF85C600BF0F4FA19EE23
:103AB000900A01210BF0ECFB0A224FF003031146A0
:103AC00019EE900A84F8633B2B460BF0E4FB19EEE9
:103AD000901A19EE100A84F8595B0BF050FC34234D
:103AE0002A46089800932946F023FEF78BFB089995
:103AF000C4F8F47B19EE100A84F8F26B0BF03FFC6B
:103B00002023099800934FF49272F1234FF0FF3174
:103B1000FEF778FB0999C4F8207C19EE100A84F8A6
:103B20001E6C0BF02CFC4FF4A0730A9800932A46ED
:103B30002946F023FEF766FB4FF07F4319EE100A8B
:103B40000A99C4F84C3C84F84A5C0BF018FC2046F7
:103B500019B0BDEC108BBDE8F08F00BFF00005017F
:103B6000FFF700FFFFF000FFFF5938FFFFEA00FFFB
:103B700010B5054B0360044612F01AFA04F5947070
:103B80000BF094FE204610BD44C2020810B5044656
:103B9000FFF7EEFF204641F6742125F0C1FD2046D7
:103BA00010BD7047704700F598730868496803C3F3
:103BB000704770477047416070477047064BC0F8C8
:103BC0004C310023C0F8503100F5A273C0F8480111
:103BD000C0F84031704700BF514400080123037210
:103BE00070477047704710B4C2684168541003466C
:103BF00001EB6200D20748BF0A599B685DF8044B8D
:103C000048BFD358184743682BB183682BB9C068A5
:103C100000F001007047184670470120704710B54A
:103C20000C21044625F07CFD204610BD10B5102166
:103C3000044625F075FD204610BD10B54FF4AE7159
:103C4000044625F06DFD204610BD10B513F064FE4E
:103C50000368BDE81040DB6B184710B50446D0F888
:103C6000400158B10368DB68984738B1D4F8400187
:103C700003689B6898470023C4F8403110BD0000DA
:103C8000044B1B6893F858200AB1D86C00B99868A7
:103C9000704700BFF43D0120F8B5044617460E46B4
:103CA00013F046FF104B1C60104B2360104B002597
:103CB000C4E951350F4BC4E9535518680368012115
:103CC0009B68C4E94F55C4E955769847284604F0E7
:103CD00043FAFFF7D5FF1DF046FCFFF7D1FF1DF0BB
:103CE000BDFC2046F8BD00BF483E012010CB0208B5
:103CF000F8CA0208F43D0120064BC0F84C310023FD
:103D0000C0F8503100F5A273C0F84801C0F8403146
:103D1000704700BF51440008064BC0F84C310023E7
:103D2000C0F8503100F5A273C0F84801C0F8403126
:103D3000704700BF01430008064BC0F84C31002318
:103D4000C0F8503100F5A273C0F84801C0F8403106
:103D5000704700BFB1410008064BC0F84C3100234A
:103D6000C0F8503100F5A273C0F84801C0F84031E6
:103D7000704700BF61400008064BC0F84C3100237B
:103D8000C0F8503100F5A273C0F84801C0F84031C6
:103D9000704700BF113F0008064BC0F84C310023AC
:103DA000C0F8503100F5A273C0F84801C0F84031A6
:103DB000704700BFC13D000803685B6A18470000F8
:103DC0002DE9F14FD0E9555A0746A86803681B6AE8
:103DD000984741F2FB33984205D8454B454AA32109
:103DE000454826F0E3FB686803681B6A98470F287C
:103DF00003D8424B3F4AA421F2E7E86803681B6AF4
:103E000098470B2803D83E4B3A4AA521E8E713F020
:103E100083FDDFF8F490043013F0BCFDD9F8000006
:103E200010B10368DB689847D9F8000010B1036847
:103E30001B689847DFF8D480D8F8000010B10368F9
:103E40005B699847D7F83C0110B103685B689847F5
:103E5000D8F8000010B103681B689847D7F83C01F8
:103E600010B103689B689847E8680021FFF7A4FF3A
:103E70004FF0000B234B03600446C0F804B080F8F9
:103E800008B0A868036859465B6A9847064604F07C
:103E9000E5FF6868036859465B6A984731460546FE
:103EA00004F0B6FFC9F80040C7F83C51C8F80060FC
:103EB000E5B12B1DCAF800303368C5F808A03046BC
:103EC000DB68F56398472B6828461B6898472146AE
:103ED000304615F027FE236820461B699847236863
:103EE0005B69204601B0BDE8F04F18472B46E1E77B
:103EF00074C2020802C3020824C402086BC4020888
:103F00000EC5020864CB02083C3E0120383E012069
:103F10002DE9F14FD0E9555A0746A86803681B6A96
:103F2000984740F20B63984205D8454B454AA32178
:103F3000454826F03BFB686803681B6A98470F28D2
:103F400003D8424B3F4AA421F2E7E86803681B6AA2
:103F500098470B2803D83E4B3A4AA521E8E713F0CF
:103F6000DBFCDFF8F490043013F014FDD9F8000006
:103F700010B10368DB689847D9F8000010B10368F6
:103F80001B689847DFF8D480D8F8000010B10368A8
:103F90005B699847D7F83C0110B103685B689847A4
:103FA000D8F8000010B103681B689847D7F83C01A7
:103FB00010B103689B689847E8680021FFF7FCFE92
:103FC0004FF0000B234B03600446C0F804B080F8A8
:103FD00008B0A868036859465B6A9847064604F02B
:103FE00079FC6868036859465B6A9847314605461C
:103FF00004F040FCC9F80040C7F83C51C8F8006024
:10400000E5B12B1DCAF800303368C5F808A030466A
:10401000DB68F56398472B6828461B68984721465C
:10402000304615F07FFD236820461B6998472368BA
:104030005B69204601B0BDE8F04F18472B46E1E729
:1040400074C20208B1C5020824C402086BC4020885
:104050000EC5020864CB02083C3E0120383E012018
:104060002DE9F14FD0E9555A0746A86803681B6A45
:104070009847B0F5856F05D2454B464AA32146487F
:1040800026F094FA686803681B6A98470F2803D8DB
:10409000424B404AA421F2E7E86803681B6A98474C
:1040A0000B2803D83E4B3B4AA521E8E713F034FC2C
:1040B000DFF8F490043013F06DFCD9F8000010B173
:1040C0000368DB689847D9F8000010B103681B68E3
:1040D0009847DFF8D880D8F8000010B103685B6912
:1040E0009847D7F83C0110B103685B689847D8F847
:1040F000000010B103681B689847D7F83C0110B165
:1041000003689B689847E8680021FFF755FE4FF069
:10411000000B244B03600446C0F804B080F808B0DC
:10412000A868036859465B6A9847064604F0ECFEA7
:104130006868036859465B6A98473146054604F04B
:10414000B3FEC9F80040C7F83C51C8F80060E5B1BB
:104150002B1DCAF800303368C5F808A03046DB686C
:10416000F56398472B6828461B68984721463046D8
:1041700015F0D8FC236820461B69984723685B69C3
:10418000204601B0BDE8F04F18472B46E1E700BFDD
:1041900074C20208C1C6020824C402086BC4020823
:1041A0000EC5020864CB02083C3E0120383E0120C7
:1041B0002DE9F14FD0E9555A0746A86803681B6AF4
:1041C0009847B0F5C07F05D2454B464AA3214648E3
:1041D00026F0ECF9686803681B6A98470F2803D833
:1041E000424B404AA421F2E7E86803681B6A9847FB
:1041F0000B2803D83E4B3B4AA521E8E713F08CFB84
:10420000DFF8F490043013F0C5FBD9F8000010B1CA
:104210000368DB689847D9F8000010B103681B6891
:104220009847DFF8D880D8F8000010B103685B69C0
:104230009847D7F83C0110B103685B689847D8F8F5
:10424000000010B103681B689847D7F83C0110B113
:1042500003689B689847E8680021FFF7ADFD4FF0C1
:10426000000B244B03600446C0F804B080F808B08B
:10427000A868036859465B6A9847064604F0D4FA72
:104280006868036859465B6A98473146054604F0FA
:10429000A5FAC9F80040C7F83C51C8F80060E5B17C
:1042A0002B1DCAF800303368C5F808A03046DB681B
:1042B000F56398472B6828461B6898472146304687
:1042C00015F030FC236820461B69984723685B691A
:1042D000204601B0BDE8F04F18472B46E1E700BF8C
:1042E00074C20208D1C7020824C402086BC40208C1
:1042F0000EC5020864CB02083C3E0120383E012076
:104300002DE9F14FD0E9555A0746A86803681B6AA2
:104310009847B0F5C86F05D2454B464AA321464899
:1043200026F044F9686803681B6A98470F2803D889
:10433000424B404AA421F2E7E86803681B6A9847A9
:104340000B2803D83E4B3B4AA521E8E713F0E4FADB
:10435000DFF8F490043013F01DFBD9F8000010B121
:104360000368DB689847D9F8000010B103681B6840
:104370009847DFF8D880D8F8000010B103685B696F
:104380009847D7F83C0110B103685B689847D8F8A4
:10439000000010B103681B689847D7F83C0110B1C2
:1043A00003689B689847E8680021FFF705FD4FF018
:1043B000000B244B03600446C0F804B080F808B03A
:1043C000A868036859465B6A9847064604F056FC9D
:1043D0006868036859465B6A98473146054604F0A9
:1043E00027FCC9F80040C7F83C51C8F80060E5B1A7
:1043F0002B1DCAF800303368C5F808A03046DB68CA
:10440000F56398472B6828461B6898472146304635
:1044100015F088FB236820461B69984723685B6971
:10442000204601B0BDE8F04F18472B46E1E700BF3A
:1044300074C20208D1C8020824C402086BC402086E
:104440000EC5020864CB02083C3E0120383E012024
:104450002DE9F14FD0E9555A0746A86803681B6A51
:104460009847B0F5D45F05D2454B464AA32146484C
:1044700026F09CF8686803681B6A98470F2803D8E1
:10448000424B404AA421F2E7E86803681B6A984758
:104490000B2803D83E4B3B4AA521E8E713F03CFA32
:1044A000DFF8F490043013F075FAD9F8000010B179
:1044B0000368DB689847D9F8000010B103681B68EF
:1044C0009847DFF8D880D8F8000010B103685B691E
:1044D0009847D7F83C0110B103685B689847D8F853
:1044E000000010B103681B689847D7F83C0110B171
:1044F00003689B689847E8680021FFF75DFC4FF070
:10450000000B244B03600446C0F804B080F808B0E8
:10451000A868036859465B6A9847064604F024FB7E
:104520006868036859465B6A98473146054604F057
:10453000E9FAC9F80040C7F83C51C8F80060E5B195
:104540002B1DCAF800303368C5F808A03046DB6878
:10455000F56398472B6828461B68984721463046E4
:1045600015F0E0FA236820461B69984723685B69C9
:10457000204601B0BDE8F04F18472B46E1E700BFE9
:1045800074C20208E3C9020824C402086BC402080A
:104590000EC5020864CB02083C3E0120383E0120D3
:1045A000406A7047806A704770478B88C0690A68A4
:1045B000DB0A50F823001044704710B5C2B1137BDA
:1045C000B3B1547BD27A240204F4E0641443026A47
:1045D00098B202EB840213888B4202D192F9020056
:1045E00010BD05D8013880B204320028F3D1F7E7B6
:1045F0000020F5E710B52C21044625F091F820465F
:1046000010BD000030B58BB00446BDF86050089571
:10461000BDF85C5007959DF8505006959DF84C509C
:1046200005959DF8485004959DF8445003959DF8D4
:10463000405002959DF83C500195BDF838500095CA
:1046400014F0FCFD064B2360159BE361169B23626F
:10465000199B63621A9BA36220460BB030BD00BF5A
:1046600088CB0208704702207047704770470000EF
:1046700038B50546074B45F8043BD0F81C320446D4
:104680001B6800F507709847636828461B689847C1
:10469000204638BD6CCD020810B5044B03600446BB
:1046A00000F5F670FFF7E4FF204610BDB4CD020818
:1046B00030B4C26844685510034604EB6200D20768
:1046C00048BF62599B6830BC48BFD35818474368FD
:1046D0002BB183682BB9C06800F001007047184601
:1046E000704701207047F0B4C56846686F100446F3
:1046F00006EB6500ED07A46844BFF5592C59A446A4
:10470000F0BC604743682BB183682BB9C06800F0E8
:1047100001007047184670470120704710B50446E5
:10472000FFF7A6FF204640F2344124F0F9FF20466F
:1047300010BD10B51021044624F0F2FF204610BD34
:1047400010B51021044624F0EBFF204610BD10B533
:104750000446FFF7A1FF20464FF4C86124F0E0FFB4
:10476000204610BD10B5044600F5AA7009F0E9FE18
:1047700004F5F87004F03CFBD4F8083404F58160CB
:10478000D3F88830BDE810401847000008B58BB258
:10479000012B05D9054B064A0648542125F006FF92
:1047A0004FF4067301FB0300043008BDE8CB020898
:1047B00003CC020897CC02089830884208B505D18E
:1047C00013F0AAF8BDE80840FFF796BA08BD00004C
:1047D00070B500F5F6748C4215461A4611D103687F
:1047E000012DDB6A05D9074B074A0848612125F0EE
:1047F000DDFE4FF4067105FB01410431BDE8704058
:10480000184770BDE8CB0208F6CC020897CC020826
:104810002DE9F04F2DED028B04468BB0A14600250B
:1048200014F0D4FF844BE56349F8403B04F16C0B72
:10483000484604F19808FDF7F9FC5846FDF7F6FCE8
:10484000404610F0EFFC4FF48073A4F804317B4B2A
:10485000C4F8E0307A4BC4F808314FF6FF7304F522
:104860009476A4F80C314FF0FF324FF47F03C4E983
:104870004825C4F81431C4E93955C4E93B55C4E9A5
:104880003D55C4E93F55C4F81051A4F81851C4F877
:104890001C5130460AF0ACF86A4BC4F8EC3104F510
:1048A000F67204F5F87008EE102A04F097FA04F591
:1048B000816004F093FA644BC4F82036634BC4F86B
:1048C0002836634BC4F830364FF4A072614BC4F8FD
:1048D0003836009229462A464846C4F82446C4F889
:1048E0002C56C4F83446C4F83C56F023FDF78AFC35
:1048F000271D4FF07F43A366494638460AF03FFD27
:104900004FF4A072009229462A465846F023FDF73C
:1049100079FC514BC4F89430594638460AF02FFDC3
:1049200040460722C521FDF760FC022308AA07A91B
:10493000ADF81C3040460323ADF8203010F045F9A7
:104940001E23A4F8D0304046FDF7A8FC04F5C6634A
:104950004FF0FF3204F1E00AC4F8C030C4E9352258
:10496000414638460AF00BFD0F2250461421FDF750
:104970003CFC0DF10808394BC4F810315146404653
:10498000A4F814510FF054FC98E8070004F58E7356
:1049900083E807002A4B089308A91D235046ADF869
:1049A00024300FF0DFFE514638460AF0E8FC40F2B2
:1049B0002713332200932946F5233046FDF722FCC6
:1049C000294630460AF093FA294630460AF0EAFAB8
:1049D000304623490AF0CBF930460A210AF0CAF9D9
:1049E00030460A210AF0C9F930460A210AF03FF997
:1049F0002A46294630460AF07AF8294630460AF017
:104A00008EF84B2384F8B2312A4630464FF40271B7
:104A10000AF050F818EE101A04F5C462304609F096
:104A20001CFF384631460AF0AAFC20460BB0BDEC0C
:104A3000028BBDE8F08F00BFB4CD02085CE602082F
:104A400030BF02086CCD020884CD0208D1470008AF
:104A50009CCD0208B94700082B2B2BFF808080FFDC
:104A60006D9C0108806A704770477047704730B48A
:104A7000C26844685510034604EB6200D20748BF81
:104A800062599B6830BC48BFD358184743682BB164
:104A900083682BB9C06800F0010070471846704762
:104AA0000120704710B51021044624F039FE20463D
:104AB00010BD10B54FF40671044624F031FE2046B7
:104AC00010BD38B500F1A003994204460D4603D14C
:104AD00012F022FFFFF710F904F5E0739D4203D1B5
:104AE00012F01AFFFFF728F904F5BC739D4203D1B9
:104AF00012F012FFFFF730F904F598739D4203D1CD
:104B000012F00AFFFFF738F95834A54205D112F028
:104B100003FFBDE83840FFF73FB938BD2DE9F04F3E
:104B2000064600254FF480738E4A8384C0E9015500
:104B3000C0E90355C0E90555C0E90755856246F847
:104B40002C2B894AA0F85030FF2385B0044680F80A
:104B5000523000F15803C0E90B2504F1A00BC0E965
:104B60000D55C0E90F55C0E91155C5644565184696
:104B7000009304F1E80A10F055FB584610F052FB80
:104B800004F59879504610F04DFB04F5BC78484682
:104B900010F048FB04F5E077404610F043FB384640
:104BA00010F040FB714AC4E98224714AC4E98425AB
:104BB000704AA26030462A466FF00201FDF715FBED
:104BC0003046F821FCF744FB30464FF40271FCF705
:104BD00041FB694A6265314620460AF0D0FB009BE2
:104BE000642218463221FDF700FB4FF00503ADF8B3
:104BF0000C30009B062602A903AA1846ADF80860EF
:104C00000FF0E3FF009B01932222A4F890201846A6
:104C1000FDF744FB019B4FF0FF3504F50272194686
:104C2000C4F880202046C4E9255500920AF0A7FB6D
:104C300058460B223221FDF7D8FA03AA02A94FF0F9
:104C400005035846ADF80C30ADF808600FF0BDFF15
:104C50002123A4F8D8305846FDF720FB009BC4F868
:104C6000C83059462046C4E937550AF088FB5046FB
:104C7000BA223221FDF7B9FA4FF0050B03AA02A9B7
:104C80005046ADF80860ADF80CB00FF09EFF202341
:104C9000A4F820315046FDF701FB51462046C4E9F7
:104CA00049550AF06CFB484640F267123121FDF786
:104CB0009CFA03AA02A94846ADF80860ADF80CB00A
:104CC0000FF083FF1F23A4F868314846FDF7E6FA8A
:104CD000009BC4F8583149462046C4E95B550AF0A8
:104CE0004EFB40464FF48B723121FDF77EFA03AA4A
:104CF00002A94046ADF80860ADF80CB00FF065FFB2
:104D00001C23A4F8B0314046FDF7C8FA009BC4F854
:104D1000A03141462046C4E96D550AF030FB3846C3
:104D20004FF4DF723121FDF760FA03AA02A9384679
:104D3000ADF80860ADF80CB00FF047FF1B23A4F8E6
:104D4000F8313846FDF7AAFA009BC4F8E83120464E
:104D5000C4E97F5539460AF012FB204605B0BDE88C
:104D6000F08F00BF04CE0208ECE60208ECCD02088A
:104D7000C34A0008F50008022B2B2BFF80F82C10EB
:104D8000704710B40368046BD3F8A43062436143E6
:104D90005DF8044B1847D0ED0C7A0368F8EEE77A1B
:104DA00010B420EE270AD3F8A440B5EEC00AF1EE05
:104DB00010FA1ADBB6EE007A30EE070ABDEEC07AC2
:104DC00017EE101A60EEA70AF5EEC00AF1EE10FA1F
:104DD0001EDBF6EE007A70EEA70AFDEEE07A17EE23
:104DE000902A23465DF8044B1847BDEEC07AF8EED2
:104DF000C76A17EE103A30EE660AF7EE086A30EE30
:104E0000260A013BBDEEC00A10EE101A1944D9E77C
:104E1000FDEEE07AB8EEE77A17EE903A70EEC70A48
:104E2000B7EE087A70EE870A013BFDEEE00A10EE5D
:104E3000902A1A44D5E710B40368046BD3F8B03055
:104E400062435DF8044B1847D0ED0C7A0368F8EE26
:104E5000E77A10B427EE800AD3F8B040B5EEC00A66
:104E6000F1EE10FA0BDBF6EE007A30EE270AFDEEDB
:104E7000C07A17EE902A23465DF8044B1847FDEEE2
:104E8000C07AB8EEE77A17EE903A30EE470AB7EEFE
:104E9000087A30EE070A013BBDEEC00A10EE102A78
:104EA0001A44E8E710B40368446BD3F8BC3062439B
:104EB00061435DF8044B1847D0ED0D7A0368F8EEB6
:104EC000E77A10B420EE270AD3F8BC40B5EEC00A4A
:104ED000F1EE10FA1ADBB6EE007A30EE070ABDEEFC
:104EE000C07A17EE101A60EEA70AF5EEC00AF1EECE
:104EF00010FA1EDBF6EE007A70EEA70AFDEEE07AFD
:104F000017EE902A23465DF8044B1847BDEEC07A91
:104F1000F8EEC76A17EE103A30EE660AF7EE086A46
:104F200030EE260A013BBDEEC00A10EE101A1944FD
:104F3000D9E7FDEEE07AB8EEE77A17EE903A70EE38
:104F4000C70AB7EE087A70EE870A013BFDEEE00A69
:104F500010EE902A1A44D5E710B40368446BD3F8D6
:104F6000C03062435DF8044B1847D0ED0D7A0368FA
:104F7000F8EEE77A10B427EE800AD3F8C040B5EE19
:104F8000C00AF1EE10FA0BDBF6EE007A30EE270ADB
:104F9000FDEEC07A17EE902A23465DF8044B1847C1
:104FA000FDEEC07AB8EEE77A17EE903A30EE470A97
:104FB000B7EE087A30EE070A013BBDEEC00A10EEEC
:104FC000102A1A44E8E7D0F82C31026B002B07DBDB
:104FD00002EB430090FBF2F000EBD0704010704702
:104FE0006FF0010101FB0320013890FBF2F000EBB0
:104FF000D070401040427047D0ED4B7A90ED0C0AD3
:10500000F8EEE77AB8EEC00A87EE800A7047D0F86B
:105010002C017047D0F83031026B002B07DB02EB1C
:10502000430090FBF2F000EBD070401070476FF03F
:10503000010101FB0320013890FBF2F000EBD0707E
:10504000401040427047D0ED4C7A90ED0C0AF8EEDB
:10505000E77AB8EEC00A87EE800A7047D0F83001D0
:105060007047D0F83431426B002B07DB02EB430072
:1050700090FBF2F000EBD070401070476FF0010130
:1050800001FB0320013890FBF2F000EBD0704010E0
:1050900040427047D0ED4D7A90ED0D0AF8EEE77A78
:1050A000B8EEC00A87EE800A7047D0F83401704726
:1050B000D0F83831426B002B07DB02EB430090FB4A
:1050C000F2F000EBD070401070476FF0010101FB6F
:1050D0000320013890FBF2F000EBD070401040420A
:1050E0007047D0ED4E7A90ED0D0AF8EEE77AB8EE03
:1050F000C00A87EE800A7047D0F83801704770B553
:1051000003680446D3F888300D461646984723684E
:10511000324629462046D3F89030BDE87040184703
:105120000368D3F8943018470368D3F8D43018478D
:105130000368D3F8E03018470368002A10B4D3F8A6
:10514000A430046B0EDB04EB420292FBF4F101EBA2
:10515000D1714910B0F91E215DF8044B013A0A449F
:10516000494218476FF0010101FB0241013991FBEF
:10517000F4F101EBD17149104942EBE70368D3F830
:105180003C311847026B03685143D3F84831184744
:105190000368D3F844311847D0ED0C7A0368F8EE71
:1051A000E77AD3F8482127EE800AB5EEC00AF1EE7F
:1051B00010FA08DBF6EE007A30EE270AFDEEC07A30
:1051C00017EE901A1047FDEEC07AB8EEE77A17EEA8
:1051D000903A30EE470AB7EE087A30EE070A013B04
:1051E000BDEEC00A10EE101A1944EBE7C0F83C11EE
:1051F00070470368D3F850311847036810B5D3F8E7
:105200005C31044698470028236B07DB03EB400022
:1052100090FBF3F000EBD070401010BD6FF0010276
:1052200002FB0030013890FBF3F000EBD07040102F
:105230004042F2E70368D3F858311847036810B5C5
:10524000D3F85C310446984707EE900AB8EEE70AB7
:10525000D4ED0C7AF8EEE77A80EE270A10BDD0F88C
:105260003C017047026B03685143D3F8683118471B
:10527000D0ED0C7A0368F8EEE77AD3F8682127EED0
:10528000800AB5EEC00AF1EE10FA08DBF6EE007AFD
:1052900030EE270AFDEEC07A17EE901A1047FDEEA9
:1052A000C07AB8EEE77A17EE903A30EE470AB7EEDA
:1052B000087A30EE070A013BBDEEC00A10EE101A64
:1052C0001944EBE7C0F840117047036810B5D3F8F4
:1052D0007431044698470028236B07DB03EB40003A
:1052E00090FBF3F000EBD070401010BD6FF00102A6
:1052F00002FB0030013890FBF3F000EBD07040105F
:105300004042F2E7036810B5D3F874310446984779
:1053100007EE900AB8EEE70AD4ED0C7AF8EEE77AD9
:1053200080EE270A10BDD0F840017047084670474C
:105330000368026BD3F88431002910B504460EDBF4
:1053400002EB410191FBF2F101EBD171491009B27D
:1053500020469847D4E94F2302FB003010BD6FF080
:10536000010000FB0121013991FBF2F101EBD17148
:1053700049104942EBE7006B7047406B7047036888
:10538000D3F8483118470368D3F85C311847026BEB
:1053900003685143D3F814311847036870B5D3F844
:1053A0001851D3F88031D0F84461044698472B4611
:1053B00056F820102046BDE870401847D0F8483114
:1053C000B0F91E011944081A7047704770477047BA
:1053D00030B4C26844685510034604EB6200D2073B
:1053E00048BF62599B6830BC48BFD35818474368D0
:1053F0002BB183682BB9C06800F0010070471846D4
:1054000070470120704710B54FF43771044624F0FF
:1054100087F9204610BD10B51021044624F080F90C
:10542000204610BD10B5034B0360044610F0C0FDCC
:10543000204610BD68D1020807B5074B03600190F4
:1054400010F0B6FD019841F2FC3124F069F90198A1
:1054500003B05DF804FB00BF68D1020808B590F8FE
:105460002C300BB1FBF7B2FF08BD00000A1E10B5CF
:1054700003DBB0F91E41944206DC084B084A094898
:1054800040F2396125F092F80368D0F84441D3F82E
:105490008031984754F8200010BD00BF90CE02081C
:1054A000B3CE020802CF02080B1E10B5044603DB80
:1054B000B0F91E219A4206DC074B084A084840F220
:1054C000336125F073F80368D3F884319847D4E941
:1054D0004F2302FB003010BD90CE02085FCF0208C0
:1054E00002CF0208C430884208B505D112F014FA80
:1054F000BDE80840FEF710BC08BD37B501AB154646
:1055000013F09AFF00284FEA401401992A464FF001
:10551000200004DB13F0AFFF204403B030BD13F0D4
:10552000AAFF201AF9E770B5B0F81A31B0F91441A2
:10553000B0F842502344ED1AD0E94D320E462DB258
:10554000D21A691EF01AFFF7D8FF2C44013CC0EBB9
:10555000441070BD38B504460846B4F81631B4F8A6
:1055600018110B44B4F84010D4E94B52C91A09B2CF
:10557000521B0139401BFFF7C0FFB4F9163100EB95
:10558000431038BD2DE9F04F2DED088B04468DB04A
:10559000A246002614F01AF9EF4BE6634AF8403BA6
:1055A0005046FCF743FE04F16C03184604F1980BD7
:1055B0000AEE903A04F1C408FCF738FE5846FCF7AE
:1055C00035FE04F5867940460FF02CFE4846FCF780
:1055D00043FE04F5AA73184608EE103AFCF73CFEA9
:1055E00004F5CE73184608EE903AFCF735FE04F544
:1055F000F273184609EE103AFCF72EFE04F50B7311
:10560000184609EE903AFCF727FE04F51D7304F5E1
:105610002F7518460AEE103AFCF71EFE6421284644
:105620000EF0DCF9CD4BC4F8BC320123C4E9FE36E0
:1056300004F5816363223146C4F800342846C4F877
:105640000464FFF79EFBC64BC4F8BC3204F5B36399
:1056500018460BEE103A0DF01FFEC24BC4F89835F9
:105660004FF0020384F8C43504F5B9631846039378
:10567000FBF7D2FEBC4BC4F8C835BC4AC4F8D465AD
:105680002433C4F8D03504F58053C3E9FB24B84A69
:105690004FF46161C3E9FD2604F2DC5010F07EFC9A
:1056A0004FF4A0733246504600933146F023271D35
:1056B000FCF7A8FD4FF07F435146A366384609F03A
:1056C0005EFE4FF4A07332461AEE900A0093314604
:1056D000F023FCF797FDA74BC4F894301AEE901A0C
:1056E000384609F04CFE3423324658460093314682
:1056F000F023FCF787FDA04BC4F8C030112384F8D9
:10570000BE305946384609F03AFE40460722C521C8
:10571000FCF76BFD4FF0020309A94046ADF82430B9
:105720000AAA0323ADF828300FF04FFA05224046AD
:10573000A4F8FC20FCF7B2FD4FF0FF32C4E9402290
:1057400004F59F520C324146C4F8EC20384609F06B
:1057500016FE48460D221B210DF11008FCF745FDF1
:10576000864AC4F83C2149464046A4F840610EF000
:105770005FFD98E8070004F5A47C8CE80700DFF8DB
:1057800004A2CDF828A04FF0060B48460AA9ADF8B0
:105790002CB00EF0E7FF4946384609F0F0FDDFF87F
:1057A000E891482218EE100A1621FCF71EFD18EEAB
:1057B000101A4046C4F88491A4F888610EF038FDB0
:1057C00098E8070004F5C87C8CE80700042218EE6E
:1057D000100A0AA9ADF82C20CDF828A00EF0C2FFBF
:1057E00018EE101A384609F0CAFD682218EE900A21
:1057F0002D21FCF7FAFC18EE901A4046C4F8CC9123
:10580000A4F8D0610EF014FD98E8070004F5EC7CD4
:105810008CE80700032318EE900A0AA9ADF82C3093
:10582000CDF828A00EF09EFF18EE901A384609F029
:10583000A6FDEC2219EE100A5946FCF7D6FC19EE2B
:10584000101A4046C4F81492A4F818620EF0F0FC46
:1058500098E8070004F5087383E807004FF0020397
:1058600019EE100A0AA9ADF82C30CDF828A00EF0D8
:1058700079FF19EE101A384609F081FD4FF4827253
:1058800019EE900A5946FCF7B0FC19EE901A404602
:10589000C4F85C92A4F860620EF0CAFC98E80700B5
:1058A00004F51A7383E807004FF0010319EE900A1C
:1058B0000AA9ADF82C30CDF828A00EF053FF19EE50
:1058C000901A384609F05BFD4FF48E721AEE100AFA
:1058D0005946FCF78AFC1AEE101A4046C4F8A49206
:1058E000A4F8A8620EF0A4FC98E8070004F52C7355
:1058F00083E807001AEE100A0AA9CDF828A0ADF82F
:105900002C600EF02FFF1AEE101A384609F037FD02
:105910004C2300938922C82317212846FCF772FCE8
:10592000324601212846FFF7EAFB3346324631462C
:10593000284600960EF003F8334632463146284694
:1059400000960DF023FF642231462846FFF7AAFA9D
:105950000B4BC4F8D4353FE068D1020818E30208C5
:10596000B8CF0208E0E50208D8E0020850D10208EA
:10597000E55400082B2B2BFFFF5938FF999999FF0D
:10598000C59714FF30BF0208FFF700FFA5B13442EE
:10599000E18B5E423B767442A6417442419C614277
:1059A0008F054542CC912942C2091A42761D1E42FA
:1059B000A55A384278686542EE5C8E421A46A94282
:1059C0001C5BBD42EECBC542B639C042794EAD42FA
:1059D0009E9A9042E4805F4241F2B843A4F8D835E1
:1059E000039BC4F8C0354FF002031BEE101A84F875
:1059F000C43528460DF0D5FED4EDBC7A1FED1D7AD6
:105A0000F8EEE77A67EE877AF5EEC07AF1EE10FAF3
:105A1000C1F25F82B6EE007A77EE877AFDEEE77A22
:105A200017EE901A28460EF097F8D4EDBC7A1FEDC9
:105A3000287AF8EEE77A67EE877AF5EEC07AF1EE2B
:105A400010FAC1F25A82B6EE007A77EE877AFDEE4E
:105A5000E77A17EE901A28460EF07EF8D4EDBC7A5D
:105A60001FED347AF8EEE77A67EE877AF5EEC07AC2
:105A7000F1EE10FAC1F25582B6EE007A77EE877A2F
:105A8000FDEEE77A17EE901A28460EF065F8D4ED91
:105A9000BC7A1FED3F7AF8EEE77A67EE877AF5EE8B
:105AA000C07AF1EE10FAC1F25082B6EE007A77EECB
:105AB000877AFDEEE77A17EE901A28460EF04CF83A
:105AC000D4EDBC7A1FED4B7AF8EEE77A67EE877A71
:105AD000F5EEC07AF1EE10FAC1F24B82B6EE007A22
