:020000040800F2
:10000000000003202D060008752D0008772D00083C
:10001000792D00087B2D00087D2D000800000000D0
:10002000000000000000000000000000B1C3010853
:100030007F2D00080000000041C40108D5BD010863
:100040007D0600087D0600087D0600087D06000884
:100050007D0600087D0600087D0600087D06000874
:100060007D0600087D0600087D0600087D06000864
:100070007D0600087D0600087D0600087D06000854
:100080007D0600087D060008812D00087D06000819
:100090007D0600087D0600087D0600087D06000834
:1000A0007D0600087D0600087D0600087D06000824
:1000B0007D0600087D0600087D0600087D06000814
:1000C0007D0600087D0600087D0600087D06000804
:1000D0007D0600087D0600087D0600087D060008F4
:1000E0007D0600087D0600087D0600087D060008E4
:1000F0007D0600087D0600087D0600087D060008D4
:100100007D0600087D0600087D0600087D060008C3
:100110007D0600087D0600088D2D00087D0600087C
:100120007D0600087D0600087D0600087D060008A3
:100130007D0600087D0600087D0600087D06000893
:100140007D0600087D0600087D0600087D06000883
:100150007D0600087D0600087D0600087D06000873
:100160007D0600087D0600087D0600087D06000863
:100170007D0600087D0600087D06000800000000DE
:100180007D0600087D0600087D0600087D06000843
:100190007D0600087D0600087D0600087D06000833
:0C01A000992D00087D060008A52D000820
:1001B00010B5054C237833B9044B13B10448AFF3A1
:1001C00000800123237010BD6401002000000000A6
:1001D000D4B8030808B5034B1BB103490348AFF378
:1001E000008008BD0000000068010020D4B80308AA
:1001F00001F0FF01102A2BDB10F0070F08D010F8D8
:10020000013B013A8B422DD010F0070F42B3F6D1DB
:10021000F0B441EA012141EA014122F007047FF0F4
:1002200000070023F0E80256083C85EA010586EA4B
:10023000010685FA47F5A3FA87F586FA47F6A5FA87
:1002400087F68EB9EED1F0BC01F0FF0102F0070293
:1002500032B110F8013B013A83EA010313B1F8D13E
:100260000020704701387047002D06BF354603381F
:10027000073815F0010F07D1013015F4807F02BF58
:10028000013015F4C03F0130F0BC0138704700BFA9
:100290007BB972B90029BEBF00204FF0004106E0D3
:1002A00008BF00281CBF6FF000414FF0FF3000F086
:1002B000BBB9ADF1080C6DE904CE002909DB002BB8
:1002C0001ADB00F04DF8DDF804E0DDE9022304B0AC
:1002D0007047404261EB4101002B1BDB00F040F80E
:1002E000DDF804E0DDE9022304B0404261EB4101A6
:1002F000524263EB43037047524263EB430300F007
:100300002FF8DDF804E0DDE9022304B0404261EBA0
:1003100041017047524263EB430300F021F8DDF8DE
:1003200004E0DDE9022304B0524263EB430370476B
:1003300053B94AB9002908BF00281CBF4FF0FF314C
:100340004FF0FF3000F070B9ADF1080C6DE904CE4C
:1003500000F006F8DDF804E0DDE9022304B07047A0
:100360002DE9F047089E0D4604460F46002B4AD162
:100370008A42944665D9B2FA82F343B102FA03FC89
:10038000C3F120029F4020FA02F217439C404FEA3B
:100390001C4E1FFA8CF5B7FBFEF1220C0EFB1177F9
:1003A00042EA074201FB05F090420AD91CEB020227
:1003B00001F1FF3780F01C81904240F2198102392F
:1003C0006244121AA4B2B2FBFEF00EFB102244EA01
:1003D000024400FB05F5A5420AD91CEB040400F118
:1003E000FF3280F00781A54240F204816444023864
:1003F00040EA0140641B00211EB1DC400023C6E935
:100400000043BDE8F0878B4208D9002E00F0ED8054
:100410000021C6E900050846BDE8F087B3FA83F17C
:10042000002949D1AB4202D3824200F2F880841AFB
:1004300065EB030201201746002EE2D0C6E9004713
:10044000DFE702B9FFDEB2FA82F3002B40F09080C2
:100450008A1A4FEA1C471FFA8CFE0121B2FBF7F5FE
:1004600007FB1520220C42EA00420EFB05F09042E9
:1004700008D91CEB020205F1FF3802D2904200F2CB
:10048000CB804546121AA4B2B2FBF7F007FB10224C
:1004900044EA02440EFB00FEA64508D91CEB040406
:1004A00000F1FF3202D2A64500F2BB801046A4EB59
:1004B0000E0440EA05409FE7C1F120078B4022FA75
:1004C00007FC4CEA030C05FA01F420FA07F3FD409F
:1004D0004FEA1C492343B5FBF9F81FFA8CFE09FBD0
:1004E00018551C0C44EA054408FB0EF5A54202FA17
:1004F00001F200FA01F00BD91CEB040408F1FF3AF9
:1005000080F08880A54240F28580A8F1020864440A
:10051000641B9DB2B4FBF9F309FB134445EA0444A0
:1005200003FB0EFEA64508D91CEB040403F1FF35BE
:100530006CD2A6456AD9023B644443EA0843A3FB54
:100540000295A4EB0E04AC42C846AE4656D353D037
:1005500056B1B0EB080264EB0E0404FA07F7CA4088
:10056000CC401743C6E9007418460021BDE8F08767
:10057000C3F1200102FA03FC20FA01F225FA01F18D
:100580009D402A434FEA1C471FFA8CFEB1FBF7F04F
:1005900007FB1015110C41EA054100FB0EF58D42D9
:1005A00004FA03F408D91CEB010100F1FF382FD243
:1005B0008D422DD902386144491B92B2B1FBF7F547
:1005C00007FB151142EA014205FB0EF1914208D9E1
:1005D0001CEB020205F1FF3816D2914214D9023DFC
:1005E0006244521A45EA004138E73146304608E78E
:1005F0003946E6E61046FBE64845A9D2B9EB0208C3
:1006000065EB0C0E013BA3E74546EAE72B4694E772
:100610004046D1E7D0467BE7023D624432E70846D8
:100620000AE76444023842E7704700BFDFF834D07D
:10063000002103E00C4B5B58435004310B480C4B3A
:1006400042189A42F6D30B4A02E0002342F8043BD8
:10065000094B9A42F9D318F03DFC3AF0BFFB01F088
:1006600047FD7047000003207C2F09080000002090
:100670006401002064010020584C0120FEE708B509
:1006800000F068FDBDE8084000F0EABC00F064BD81
:10069000704710B50421044639F056F9204610BDC4
:1006A00038B50C4B0C4C18800C4B822019806368B9
:1006B000984740F6110398420AD1094D23682C60EF
:1006C000822098472B688220DB689847002038BD3D
:1006D0000120FCE7800100204C0000208201002066
:1006E000840100204FF4A071F020FFF7D9BF000073
:1006F000F7B5334D2B6804461B698220984780B2BA
:10070000208000284AD02B680DF106025B6901A900
:1007100082209847BDF8063040F6746293423FD974
:10072000ADF80620BDF80630D21A92B20A2A3DD999
:100730000B23B2FBF3F2234B1B889A4201D9013BF6
:100740009AB2BDF8043040F6B8318B4230D8C3F5C8
:1007500071630E339BB20F21B3FBF1F31A49098881
:100760008B4201D901398BB2184E194D30682F6870
:10077000834281B28CBF591AC91AB8B2BA428CBF2F
:10078000101A801A89B280B201440529C8BF3360AB
:100790003368C8BF2A6063802B68A38003B0F0BDB4
:1007A000B32B9CBFB423ADF80630BBE70022C8E7EB
:1007B000C3F56D6308339BB20E2BCCD80023D3E76F
:1007C0008401002082010020800100208801002097
:1007D0008C01002037B568460D461446FFF788FFA8
:1007E000BDF8000030B1BDF802302B60BDF8043018
:1007F0002360012003B030BD032821D8DFE800F0DA
:10080000020B12190F4B1A68B2FA82F25209042134
:100810000D4819F0C5B80B4B5A68B2FA82F252096A
:100820000821F5E7074B9A68B2FA82F252091021C3
:10083000EEE7044BDA68B2FA82F252092021E7E7C8
:10084000704700BF9001002000100240032821D80B
:10085000DFE800F0020B12190F4B1A68003A18BFBC
:10086000012204210D4819F09BB80B4B5A68003A3D
:1008700018BF01220821F5E7074B9A68003A18BF14
:1008800001221021EEE7044BDA68003A18BF01227A
:100890002021E7E7704700BF9001002000100240D0
:1008A00003280DD8DFE800F00206080A04210548F5
:1008B00019F07BB80821FAE71021F8E72021F6E7C4
:1008C000704700BF0010024008B5032811D8DFE8C8
:1008D00000F0020A0C0E0421074819F05BF8431ED1
:1008E0005842584108BD0821F6E71021F4E72021BD
:1008F000F2E70020F3E700BF0010024070B5084D9A
:1009000000240126E0B2FFF7DFFF18B12B68012BAE
:1009100018BF2E600134052C05F10405F2D170BD1D
:1009200090010020012380F8781080F8793070471A
:1009300000207047034B4164003918BF0121197032
:10094000704700BF1F40012000207047836B0BB130
:100950000846184770474FF6FF70704740680368B5
:100960009B691847704770477047000010B50446F0
:1009700000F008FD23680349D3F88C302046BDE819
:1009800010401847000000D008B503680446D3F8AB
:1009900080309847236820469B6F984700F0ECF81A
:1009A000236820461B6F9847292001F001FE00F0C4
:1009B000E3F8236820461B6F9847F8E710B5044614
:1009C00020F00EFB23682046D3F8AC30BDE8104081
:1009D000184700F0B9BC00F0BDBC00F0F1BC00F05D
:1009E0008FBC00F00DBD00F0F7BC00F093BC1FF011
:1009F00062BD10B57C21044638F0A6FF204610BD2C
:100A000090F87A301BB1406803681B681847184695
:100A10007047000010B590F8341090F878400C4BF7
:100A20008C421A7809D03AB90A4A0B4914880888C6
:100A300010800C8001221A7010BD002AFCD0054ADB
:100A400005491488088810800C800022F3E700BF55
:100A500018400120144001201640012070B50D46B9
:100A6000194635B9094B0A4A0A4840F2D22139F0F1
:100A7000B1FEC0E90F52084B003A18BF01221A70AC
:100A80000368BDE87040D3F88C301847D8B9030824
:100A900010BA03085EBA03081E40012008B5094BCE
:100AA0001B888B4203D8084B1B88934205D9074B00
:100AB000074A08489E2139F08DFE074B1980074BE5
:100AC0001A8008BD1440012016400120A3BA030873
:100AD00006BB03085EBA03081A4001201C4001202F
:100AE000012108B5002208461BF081F90A4B186065
:100AF00028B90A4B0A4A28210A4839F06BFE00221D
:100B0000042101201BF010FA074B186018B9074B9D
:100B1000034A2C21F0E708BDA401002024BC0308EF
:100B20006DBC03089CBC0308A001002041BD030864
:100B3000024B4FF0FF3118681BF0A3B9A40100204D
:100B4000014B18681BF0C8B9A4010020024B00211A
:100B500018681BF096B900BFA4010020FFF7F0BF92
:100B600003480449006800231A461BF018BA00BF66
:100B7000A00100200400002013B5084C00231A46F1
:100B800001A920681BF03BFA20684FF0FF330022D8
:100B900001A91BF034FA02B010BD00BFA001002073
:100BA00003685B6C18470120704703689B6A18470D
:100BB00040F2EF3070470000054B0360054B4FF0EB
:100BC0008062C3F88820BFF34F8FBFF36F8F7047E9
:100BD00038BF030800E100E010B504464FF45A6145
:100BE000FFF7EAFF204638F0AFFE204610BD0000B8
:100BF00082B0002301930D4B1A6B42F400021A637A
:100C00001A6B02F400020192019A1A6942F400027E
:100C10001A611A6922F400021A61054B054A1A6129
:100C2000054B4FF080629A6002B070470038024076
:100C3000D02E00203D0C000800E100E0024B1B68B4
:100C4000586803685B6918472040012070B5044666
:100C500025460A4B0C30002660602672667245F805
:100C6000203B6022294620F013FB04F55A63EE6016
:100C70002435AB42FBD1204670BD00BF38BF03080E
:100C800008B50B290BD8DFE801F01206100A0A0A92
:100C90000A0808080808012008BD0520FCE7054BE4
:100CA000054A0648652139F095FD0020F4E7022049
:100CB000F2E700BF83BD03089EBD0308E8BD03083B
:100CC00008B50A2909D8DFE801F010060E0808085F
:100CD000080606060600012008BD054B054A064821
:100CE000862139F077FD0020F6E70220F4E700BF07
:100CF00083BD03088BBE0308E8BD03082DE9F84354
:100D000091F81D800C4641460746FFF7B9FF94F85D
:100D10001E90054649463846FFF7B2FF494606464B
:100D20003846FFF7CDFFA18A628B434B521A1A64F3
:100D30009A61228B521A1A61E28A586342EA01428E
:100D40005A6420696268D863DA602768802F28D0E7
:100D5000227F0FD8202F65D0402F63D0042F1AD0C8
:100D6000354B45EA026545F40035C845DD615FD085
:100D7000324A44E0B7F5807F04D0B7F5007FEFD169
:100D80002F4900E02F4941EA0262DA61E2681A6203
:100D90005E62586132E045EA026242F40032DA6192
:100DA000F6E7A7683A1DDA62217F3A7845EA0165DD
:100DB00045F40035DD615E62586142B1012A21D0FF
:100DC000214B224A22484FF4887139F003FDDA6939
:100DD000798822F47F42013922F0100242EA01228E
:100DE000DA610121144BDA6942F02002DA61DA6932
:100DF0009206FCD410229A600029B9D0154A1A60D4
:100E0000BDE8F883DA69788822F47F42013822F05D
:100E1000100242EA0022FF3942F0100218BF0121FD
:100E2000DA61DFE745EA0262034B42F40032B6E7DB
:100E300040F20122E3E700BF00B0024001020100DE
:100E4000090002000A000200D6BE0308F0BE030833
:100E5000E8BD03080102020038B50C46897FFFF7A0
:100E60002FFFA58AE28A164B2169586342EA0542A0
:100E70005A64628BD963521B1A642568082D0ED1FF
:100E80009A611A615862207F0E4A42EA0062DA6172
:100E9000E2681A620C4A5961D9601A6038BD0022B2
:100EA000D8611A61E1680A0A480902F4784200F43C
:100EB000FC600243C1F3C4010A439A63034AECE7AE
:100EC00000B002400900010001020200010203001B
:100ED000034B1A68D207FCD423229A60704700BFE4
:100EE00000B0024030B50F4C2568ED07FCD4232537
:100EF0000904A56041F001010225FF2B65636164CF
:100F0000E0630AD00849656241EA0363E361074B85
:100F100022626061E060236030BDE561039BA363F2
:100F2000034BF8E700B00240090001000100020095
:100F300001000300012070470C2070470C2303FBC5
:100F40000100083070470C2303FB01000830704794
:100F50000120704741F61830704741F6183303FB03
:100F600001000830704741F6183303FB01000830D8
:100F70007047012070471020704700EB01100830C7
:100F8000704700EB011008307047084604F098BA2B
:100F900010B5034B036004461CF0AFFF204610BDA4
:100FA000F0BF030810B50446FFF7F2FF20461421F6
:100FB00038F0CAFC204610BD10B5034B0360044650
:100FC0001CF09BFF204610BDBCBF030810B50446B3
:100FD000FFF7F2FF20464FF4D95138F0B5FC204618
:100FE00010BD000010B5034B036004461CF085FFE4
:100FF000204610BD88BF030810B50446FFF7F2FF76
:101000002046182138F0A0FC204610BD10B5094B31
:101010000360044600F5DA500C30FFF7B9FF04F125
:101020002C00FFF7C9FF04F11400FFF7DBFF204697
:1010300010BD00BF24C0030808B50248FFF7E6FF53
:1010400008BD00BFAC01002010B50446FFF7DEFF6D
:10105000204641F6085138F077FC204610BD0000CC
:101060002DE9F34102F06CFC054602F06DFC002412
:10107000014623462846224600942AF085FA284B4A
:10108000284A1A60204616F02FF9274B274A284D88
:101090009A6028482AF0E0F92B68BFF35B8FDB07E2
:1010A00037D4284638F052FC98B3234C234B2360A6
:1010B00004F12C0808F5DC5604F1140008F5D957A2
:1010C0006060C4F80880E76026611CF017FF1C4BC5
:1010D000636140461CF012FF1A4BE36238461CF075
:1010E0000DFF04F58053184AC3F84C2B04F5DB5070
:1010F00017F0BEF8224604F5DB51304617F01EF813
:10110000304604F0DDF9114839F082FB284638F00A
:1011100029FC0F4802B0BDE8F041FFF727BC00BF33
:1011200084400120F02C0020F42C0020B41E00206C
:10113000A801002008000020AC01002024C0030802
:1011400088BF0308BCBF0308F0BF030839100008BC
:10115000742C0020704700000148FFF715BC00BF49
:10116000742C002070B5244E244C254D254B236053
:101170003046FFF76BFD28462EF0D8FC224827F0BA
:1011800055FE224B2248DC6000224FF48071C3E9F7
:10119000121220491A86C3E91A121F4999671F497A
:1011A00083F858200B60F02101801D485A660180A9
:1011B0001C4883F870204FF4A071C3E90422C3E9EE
:1011C0000622C3E90822C3E90A22C3E90E22C3E9C1
:1011D0001022C3E91422C3E917225A67C3E9016543
:1011E00001801148018011490A70012283F83420DE
:1011F0000F4A1A6070BD00BFD41E0020D01E002010
:10120000F42C0020C8B90308B41E0020742C002060
:1012100014400120010000010000010120400120D4
:101220001A400120164001201C40012018400120D6
:1012300054BB03080148FFF7BFBC00BFD41E002009
:101240000020704781807047C180704701817047DE
:10125000418170477047704770477047704710B4BE
:10126000C4880368121B84885B6D091B12B25DF889
:10127000044B09B218474FF6FF7383814FF0FF33D9
:1012800003621368C3611060704790F825201AB19B
:1012900090F8242002B118607047002070478B88B6
:1012A000838001207047704780F82610704790F8BF
:1012B0002600704710B50022B1F90840B1F90A10B4
:1012C000028042808480C18010BD00220280428062
:1012D0008280C28070470177704780ED080A7047AE
:1012E00080F82410704780F825107047012070475F
:1012F000983070478C3070478430704770470000DA
:10130000034B902283F85A2383F85823704700BF79
:1013100000E100E0094A0A49D3680A48C3F30A0316
:10132000013B9BB20B801169C1F30A0101390180B5
:101330001364536B43F0010353637047006801402B
:10134000822D0020802D0020014BD3F8AC00704787
:1013500000680140024B0122C3F8AC105A6270478A
:10136000006801407047704710B52C21044638F0E2
:10137000EBFA204610BD10B5BC21044638F0E4FA63
:10138000204610BD70B504461FF0EBF823685D6E73
:1013900026F0D6FB01462046A8472368054AD3F825
:1013A00088502046AC460023BDE87040A2F51631B7
:1013B000604700BF00B004D01FF0BAB81FF0C4B837
:1013C0001FF07FB81FF0E1B990F8252012B1036833
:1013D0005B69184770470000084B4FF08062C3F804
:1013E0008820BFF34F8FBFF36F8F4FF08072C3F829
:1013F0008820BFF34F8FBFF36F8F704700E100E08D
:10140000034B4FF080629A604FF080729A60704791
:1014100000E100E070B50023124E8380124B0360A0
:10142000336893F8582005460AB1D86C00B998681B
:101430000368DB6A98473368B0FA80F4D86C6409B3
:1014400030B10368DB6A9847002808BF44F0010404
:101450002CB9064B064A07482C2139F0BBF928461F
:1014600070BD00BF2040012034C1030830C0030814
:101470008EC00308C7C0030870B5244E3568BFF39B
:101480005B8F15F001053FD1304638F05FFA002838
:101490003AD01F4C1F4B256104F13400C4E90035DC
:1014A000C4E90255E584A562A58527F01EFF04F175
:1014B000580022F021F8184BA3652046174B40F83E
:1014C000843BFFF7A7FF164BC4F884302433C4F8DD
:1014D0008C306423C4E928350023C4F8AC30C4F848
:1014E000B030C4F8B430C4F8B8300E480E4BC4F86D
:1014F0009050C4F89C50C4F8A850C4F8983039F003
:1015000087F9304638F02EFA014870BD7C2D002056
:10151000842D002018F4030854C10308CCC103082B
:10152000CCF30308FD120008ACF3030810B5144C0B
:10153000236823B3134B144A1B6C11888B4213D1BD
:10154000124B198819F08AFA226892F86A3001332E
:1015500082F86A30FFF704FB20681FF041FDBDE808
:1015600010400020FFF748B919F078FA20680368A6
:101570001B6A9847BDE810400020FFF767B910BD0F
:101580002040012000680140822D0020802D002095
:1015900048B1836C3BB1C36C2BB1006DB0FA80F0E5
:1015A0004009404270474FF0FF30704773B5024624
:1015B0000846FFF7EDFF0C46054648BBD343C97804
:1015C000C3F3C013B1EB031F4FEA031220D0E27044
:1015D000A66C607801230DF10702F321B04784F86F
:1015E000540098B99DF80730E278E66C607802F014
:1015F000100223F0100313438DF807300DF107029A
:1016000001237321B04784F8540008B16FF001053D
:10161000284602B070BD37B50446FFF7B9FF70B970
:10162000A56C607801230DF10702F321A84784F827
:10163000540030B99DF8073003F01003E37003B095
:1016400030BD6FF00100FAE703788B4281BF017073
:1016500092F8463043F0020382F84630002070478B
:101660002DE9F843064618461D46FFF791FF8846C8
:1016700091460446A8B9AB783BB929463046FFF7F6
:1016800095FF044608B946F08006AF6C68784B4673
:1016900042463146B847002885F8540018BF6FF01D
:1016A00001042046BDE8F8832DE9F0438BB01D46C8
:1016B00006460F4614460021242201A8009139F065
:1016C0008EFA2846FFF764FFD0B9631E122B31D87B
:1016D000E9468046A4B21FFA88F3A34213D378B92F
:1016E0006400013CEE6C9DF800106878A3B20DF127
:1016F0000102B047002885F8540018BF6FF00100C0
:101700000BB0BDE8F083AA7816F808303AB918464D
:101710002946FFF74BFF16F8083003F07F0389F8DE
:10172000003017F8083089F8013008F1010809F194
:101730000209D0E76FF00300E2E737B5E0238DF848
:101740000630B62305468DF80730FFF721FF044623
:1017500070B9AB787BB12B4601220DF107010DF179
:101760000600FFF7A1FF2B6D04460A2098474CB1F5
:10177000204603B030BD2846FFF74DFF0446002841
:10178000F6D1E8E7AB78002BF2D1284603B0BDE8EC
:101790003040FFF740BF30B58DB00546FFF7F8FE8B
:1017A0000446002840F0A5802846FFF7C6FF0446FF
:1017B000002840F09E802B4601222946D020FFF7CA
:1017C0004FFF0446002840F094802B78612B40F0B6
:1017D000938001900146252202A839F000FA28469C
:1017E0008DF80340FFF7D4FE0446002840F08180C6
:1017F0002B46192201A98920FFF732FF044638B988
:101800002B4610220DF11D01E120FFF729FF0446B0
:10181000BDF82530EB82BDF805302B839DF80730ED
:10182000AB76BDF80930AB83BDF80B30EB839DF888
:101830000D3085F82030BDF80F306B84BDF81130C5
:10184000AB849DF8143085F826309DF8133085F868
:101850002730BDF817302B85BDF819306B859DF802
:101860001B3085F82C309DF81E309DF81F1003F0BA
:101870000F0242EA01122A819DF81D201B0943EA4A
:1018800002136B81089BEB609DF824302B749DF84C
:1018900029306B74BDF827306B829DF82A302B7588
:1018A00014BB2B4601220DF103010220FFF7D8FEE5
:1018B0009DF80330C3F3011385F83430044698B91A
:1018C0002B4601220DF10301FFF7CAFE9DF80330FC
:1018D00085F83530044638B92B4601220DF1030155
:1018E0000420FFF7BDFE04469DF903301B1185F867
:1018F000363020460DB030BD6FF00204F9E737B541
:10190000742304468DF80730FFF742FEA0BB05465E
:10191000234601220DF106017420FFF7A1FEA0B9B4
:101920009DF8063013F0030511D023F003038DF862
:101930000630012223460DF106010DF10700FFF7E5
:10194000B3FE236D0A209847E2E7002DE0D194F81A
:1019500044208AB19DF8063002F0030223F003030D
:1019600013438DF8063038B9234601220DF10601E4
:101970000DF10700FFF798FE03B030BDF0B589B058
:101980000023064608460C468DF807300493ADF850
:1019900014300693ADF81C30FFF7FAFD002840F034
:1019A000FC8016F0080391F8447005D181F84430AA
:1019B0002046FFF7A4FF07E0012FADF80C0000F070
:1019C000EE8081F84400012016F010051ED022465A
:1019D000072104F13B00FFF737FE28B92346012217
:1019E00069447520FFF73CFE94F83B309DF80720D2
:1019F0009B0022F01C0203F01C03134375228DF898
:101A000007308DF810208DF818300125B30622D547
:101A10002246082104F13D00FFF716FE30B92346A7
:101A200001220DF107017020FFF71AFE9DF8073023
:101A300094F83D2023F0080302F00802134305F157
:101A400020026A44702101358DF8073002F8101C1D
:101A500002F8083CEDB2B10733D02246052104F16B
:101A60003900FFF7F1FD30B9234601220DF10701DE
:101A70007420FFF7F5FDF20709D59DF8073094F8BB
:101A8000392003F01F0343EA42138DF80730B307F0
:101A90000BD594F83A309DF807209B0003F01C0307
:101AA00022F01C0213438DF8073005F120036B442C
:101AB000742203F8102C01359DF8072003F8082C38
:101AC000EDB2710722D52246052104F13800FFF757
:101AD000BBFD30B9234601220DF107017220FFF74B
:101AE000BFFD9DF8073094F8382023F0070302F07B
:101AF0000702134305F120026A44722101358DF873
:101B0000073002F8101C02F8083CEDB216F0C00FC6
:101B10003AD02246012104F13E00FFF795FD60B95D
:101B20000A2104F13C00FFF78FFD30B92346012262
:101B30000DF107017120FFF793FD72060BD594F8A4
:101B40003E309DF807201B0103F0100322F0100225
:101B500013438DF8073033060AD59DF8073094F803
:101B60003C2023F00F0302F00F0213438DF80730DF
:101B700005F120036B44712203F8102C01359DF808
:101B8000072003F8082CEDB228B923462A4606A9F7
:101B900004A8FFF789FD84F8447009B0F0BDB1F8DE
:101BA0004020B1F91230B2F5C87F03F5163303F2C5
:101BB000991328BF4FF4C8725A431423B2FBF3F2AF
:101BC0000A2302F54812B2FBF3F291F9113003F542
:101BD00044735A4391F9043091F9141013FB01F343
:101BE0004FF47A7193FBF1F31B0203EB620394F859
:101BF00034200432B3FBF2F394F9352083214A43B5
:101C000002F58032B3FBF2F32222FA3B5343323324
:101C1000642293FBF2F38DF80C3046F25A43ADF890
:101C20000830B4F84230B3F57C6F1AD23F2BC2B201
:101C300000F1010013D803EB8213DBB200258DF80D
:101C40000D3084F83C502346022203A902A8FFF776
:101C50002BFD84F8445000287FF4B6AEA8E69B081C
:101C6000E4E7FF23EAE7000013B5184B02461868C3
:101C70009B88ADF8043091F83930009008336B44FC
:101C800040F2AB7413F8080C91F83A3008336B4407
:101C900013F8083C034491F838000830684410F801
:101CA000080C184441F2B92304FB00334FF47A7056
:101CB000B3FBF0F301339BB2138091F83E0018B1EF
:101CC000B1F842100B44138002B010BDECB8030809
:101CD0002DE9F04F0646A9B00846FFF759FC0C461F
:101CE0000546002840F08A810690CDE90400CDF831
:101CF0001B000846FFF74CFC4FF00A080546002D74
:101D000040F0838123460F2204A91D20FFF7A8FC81
:101D10009DF810309DF819709DF81EC002979DF82F
:101D20001D70039703F080010CF0300703F00F03E0
:101D30000F4373709DF81130B37005469DF812E0A3
:101D40009DF813909DF814309DF815A09DF816B0DD
:101D50009DF817209DF8180001973770002900F0B2
:101D60005181120942EA0B1242EA0A32B4F816A073
:101D700094F91AB0029F4FEA4A0ACAEBD20A4FEA14
:101D8000EA724FEA5A0141EAC2714A43A1FB01815A
:101D900001EB42014FEA183848EA01584FEA0B12AA
:101DA0004FEAEB7B091308FB0BFB02FB01BBB4F909
:101DB0001810A8FB022881FB0A1AD844C90A920B02
:101DC00041EA4A5142EA88420A4402EB8201226314
:101DD000803152100912A2F57A42B1804FEAA20A6C
:101DE00094F926800AFB0AFA4FEAEA2B08FB0BFB60
:101DF000B4F9248002FB08F84FEA480808EBAB0866
:101E0000B4F91EB01B0902FB0BFB94F9202043EA36
:101E100009134FEA6A3A43EA0E335201B4F922E059
:101E2000B4F928900AFB02F2D2104FEA0E4E0EEBE4
:101E3000A80E02EB6B02C3F58013B4F81CA0B4F932
:101E40002A80A3EB2E33921440F6354E0EFB03F39B
:101E500002F50042B3F1804F0AFB02F2B8BF5B000B
:101E60004FEAE232A6BF93FBF2F35B0093FBF2F37F
:101E7000DA105243521308FB02F24FEAA30809FB9F
:101E800008F84FEA232E4FEA683808EB22320EFB9F
:101E90000EF80EFB08FE94F82C8008FB0EFE02EBF9
:101EA0006E4294F927E002EBCE1203EB2213B360EB
:101EB00094F90E3094F90DE064224B4393FBF2F356
:101EC0004B4301FB0EFE9B119EFBF2FE93FBF2F3D4
:101ED0007344B4F80AE003F580430EFB03F3B4F84F
:101EE00008E047EA0020A0EB0E1094F90CE09B12EA
:101EF00001FB0EFE9EFBF2FEA0EB6E00434394F945
:101F00001000DFF82CE1414391FBF2F2E17B02EBA0
:101F1000C1129913494312118912514303EB610312
:101F20004FF47A729B1253431B13404A23EAE37324
:101F30009342D4BFF360F260BEE80F000DF12008B9
:101F400094F93690A8E80F00BEE80F00A8E80F004B
:101F5000BEE80F00A8E80F009EE80F000EF1100E7B
:101F600088E80F00BEE80F000DF16008A8E80F0038
:101F7000BEE80F00A8E80F00BEE80F00A8E80F00B9
:101F80009EE80F0088E80F00052340F23C50002235
:101F9000C3FB09020CF00F0128AB03EB8101039F87
:101FA00051F8803C51F8401CA0FB030E03FB02E3F8
:101FB0004FEA9C1242EA8702000CD20340EA034037
:101FC00012F17F426CEB0C0C12184FEA234E4CEBD3
:101FD0002343A1FB000C01FB0EC1400A4FEA520C47
:101FE00040EAC1504CEAC37C4FEA630E10EB0C0090
:101FF0004EEB6121FEF74CF9306175B1284629B0EE
:10200000BDE8F08F236D0A20984708F1FF3818F0DB
:10201000FF087FF474AE0225F0E7019B1B0646BF64
:10202000012384F8453084F84550E7E7A086010095
:10203000F4B8030807B5064BADF806001B68054861
:1020400001220DF1060119F06BFA03B05DF804FBF3
:10205000100000204030002030B595B01022002143
:102060000AA838F0BCFD1422002103A838F0B7FDFF
:1020700000241D4B01941A6C42F080521A641B6CB0
:1020800003F080530193019B184B02941A6842F4A9
:1020900040421A601B6803F4404302930122029BF2
:1020A0004FF48033CDE9082302254FF48003CDE9B6
:1020B0000E5308214FF4A873CDE9101308A8042388
:1020C0001393129518F0E8FC0F23CDE903354FF474
:1020D000A0504FF48053CDE90603052103A80594D1
:1020E00018F0B4FE15B030BD00380240007000405A
:1020F0002DE980489DB016F0FBFEFFF7ADFF1422DE
:1021000000210FA8002438F06AFDC34B02941A6B1B
:10211000C248C34D42F010021A631A6B02F010025B
:102120000292029A03941A6B42F020021A631A6B0D
:1021300002F020020392039A04941A6B42F0800288
:102140001A631A6B02F080020492049A05941A6BC7
:1021500042F004021A631A6B02F004020592059A17
:1021600006941A6B42F001021A631A6B02F0010224
:102170000692069A07941A6B42F002021A631A6BCF
:1021800002F002020792079A08941A6B42F040028A
:102190001A631A6B02F040020892089A09941A6BAB
:1021A00042F008021A631B6B03F0080309932246EE
:1021B0003C21099B17F0F4FB9A482246042117F0B2
:1021C000EFFB224698484FF4405117F0E9FB3C23BF
:1021D00001260DEB03014FF0030A9048CDF848A00B
:1021E00002274FF00408CDE90F36119417F0ECFAEE
:1021F0008C4811940FA9CDE90F86129717F0E4FAD5
:102200000FA94FF440528848CDE90F26CDE9114778
:1022100017F0DAFA8548864A026017F0C9F9854B4B
:10222000854A2C62C5E9003228464FF48042C5E950
:102230000424C5E90244C5E9064417F0BDFD102198
:10224000284618F053FA2146284618F06EFA7B48C3
:102250007B497C4D84624FF482721823C0E90012DE
:102260004FF40072C0E906230A22C262C0E90244A8
:10227000C0E90444C0E9084419F0F6F8724A0F971F
:10228000C5E9002610204022C5E904024FF4C072BF
:10229000C5E906244FF40062C5E908244FF400594B
:1022A00007220FA928464FF0080BC5E90248CDE9DF
:1022B0001028CDE9122AC5F82890CDE9147718F036
:1022C000B7FF4FF6FF720BA92846CDE90CB60A946A
:1022D0000B960E9418F0CCFF304616F035FE4FF6F4
:1022E000FF720BA92846CDE90B7BCDE90D6418F0F0
:1022F000BFFF4FF6FF720BA92846CDE90BABCDE926
:102300000D8418F0B5FF4FF40C720A920A9B0E93DD
:102310004FF6FF720BA92846CDE90B8B0D9618F0EE
:10232000A7FF40F26A51284618F0C0FF3422214628
:102330000FA838F054FC454D454BAC86C5E9003438
:102340000923C5E905361D2340F20D1CC5E9073AEE
:1023500040F24313C5E909C340F2171E40F2471388
:102360002846C5E90BE3C5E902442C6185F83640EF
:1023700018F07CFAFF21F022CDE914144FF48068A4
:1023800005214FF4A073CDE91024CDE91681CDE9E4
:1023900018420FA922462846CDE912372D4D1A932F
:1023A0000F94ADF86C408DF86E4018F02AFB2A4B64
:1023B0002B601B68DFF8BCA098472B68274DDB68B3
:1023C0009847274BC5E90A47C5E90C442846C5E9A3
:1023D0000034C5E9027417F0FBF83146284617F0BF
:1023E000AFF920484FF48033C0E900A31E4B83624D
:1023F00084600661047680F82040C462C460C761CE
:1024000080F83040466116F0B3FDFEF738F9174901
:10241000174800F081FD2FE0003802400010024014
:10242000102F002000080240000C0240C82E00209F
:1024300000300240005C0040A086010040300020D7
:10244000005001400C300020400100A0642F00200B
:1024500000680140482E002014000020D02E0020EB
:1024600000B00240802E00200100000F98300020B4
:102470009C300020002001400B4B019318230B4996
:1024800000934A4623460A481AF094FF094B0193E9
:102490001823094900938022234608481AF08AFF2E
:1024A0001AF0B6FFFEE700BF402E002010C203085E
:1024B0008D060008442E00201EC203088127000854
:1024C000704770477FB5094B8DF817201B68029342
:1024D0000DF117020123009201930A4601460448B8
:1024E00017F064FF07B05DF804FB00BF0C0000208C
:1024F000102F00207FB500238DF81730084B1B6884
:1025000002930A4601230DF1170100910193014640
:10251000044817F0DBFF9DF8170007B05DF804FBD7
:102520000C000020102F00201FB5084C24680092DA
:10253000CDE901340A4601230146054817F0C6FFDC
:10254000003818BF012004B010BD00BF0C000020EF
:10255000102F002016F0F8BC08B506480022042110
:1025600017F01EFABDE8084002480122042117F0C6
:1025700017BA00BF0008024038B50B4D04460122CF
:102580000A484FF4005117F00BFA002204212846A4
:1025900017F006FA2046FFF74DFD28460122BDE858
:1025A0003840042117F0FCB900080240000C02403A
:1025B00038B50B4D044600220A484FF4005117F07D
:1025C000EFF900220421284617F0EAF92046FFF728
:1025D00031FD28460122BDE83840042117F0E0B95A
:1025E00000080240000C0240F7B5144E144F054697
:1025F0000C4630460022042117F0D2F900224FF495
:102600000051384617F0CCF92846FFF713FD0D4B63
:102610000D481B68224601A919F02BF93846012202
:102620004FF40051019C17F0BBF930460122042100
:1026300017F0B6F9204603B0F0BD00BF0008024015
:10264000000C0240100000204030002016F07CBC3E
:10265000054B1A686523534348BF03F6FF73034ACB
:102660001B131360704700BF4C2E0020682E002003
:10267000094B5A689F2A9CBFA0225A605B6840F2AF
:10268000BD72A03B534340F2551293FBF2F3034A51
:1026900014331361704700BF4C2E0020682E0020B9
:1026A000F8B51E4F1E4E1F4D38881F4C00F016FC0B
:1026B0003146284600F052FC40BBB6F90430DFED4D
:1026C0001B6A9FED1B6A07EE903AF8EEE77A95F8E1
:1026D000443087EEA67A012BD6ED037A84ED017A99
:1026E000F8EE677A87EE867A84ED057A96ED027ABF
:1026F000B8EE477AC7EE267AFDEEE77AC4ED037AA4
:102700000AD12846BDE8F840FFF7F9B8394628460F
:1027100000F002FC074B6360F8BD00BF983000205A
:10272000542E00209C300020682E00200000C8425B
:1027300000007A44000049431FB50023CDE902336D
:102740000522012369460448CDE9002316F042FE24
:1027500005B05DF804FB00BF802E00201FB50023EC
:10276000CDE902330722012369460448CDE900235D
:1027700016F030FE05B05DF804FB00BF802E00208F
:1027800008B5154C154DFFF7D7FF204616F096FCFF
:102790004FF47A71204616F036FD204616F086FD7D
:1027A0002860204616F014FDFFF7D8FF204616F0EB
:1027B00085FC4FF47A71204616F025FD204616F070
:1027C00075FD6860204616F003FDFFF741FFFFF737
:1027D00067FFFFF74DFFD6E7802E00204C2E00202C
:1027E0000268034B9A4201D116F09CBB704700BFB0
:1027F000001000407047000082B00E4B0022009293
:10280000596C41F480415964596C01F48041009144
:1028100000990192196C41F0805119641B6C03F00E
:1028200080530193019B0F216FF0010002B016F05D
:102830007FBE00BF0038024010B5044688B01422A5
:10284000002103A838F0CBF92268164B9A4226D112
:1028500003F58C33002401945A6C134842F48072BF
:102860005A645A6C02F480720192019A02941A6BB3
:1028700042F001021A631B6B03F001030293A022D2
:10288000029B03A90323CDE9032316F09DFF122029
:102890002246052116F04CFE122016F07BFE08B0F1
:1028A00010BD00BF00200140000002400268094B3B
:1028B0009A4282B00BD100230193074B1A6B42F46A
:1028C00080521A631B6B03F480530193019B02B087
:1028D000704700BF003002400038024007B50F4B80
:1028E00002689A4216D10022A3F5F0430192196BB7
:1028F00041F4000119631B6B03F4000301930521EC
:102900005A20019B16F014FE5A2003B05DF804EB28
:1029100016F040BE03B05DF804FB00BF00B00240FB
:102920002DE9F043044689B01422002103A838F0B1
:1029300056F92268244B9A4243D1244C244800255E
:102940000095236B43F004032363236B03F004031C
:102950000093009B0195236B43F001032363236BDA
:1029600003F001030193019B4FF012094FF4007330
:102970004FF001080327042603A9CDE90339CDE967
:102980000587079616F020FF4FF4807311480796CD
:1029900003A9CDE90339CDE9058716F015FF0295A6
:1029A000236C43F400032364236C03F400030293B9
:1029B000029B236A43F400032362236A23F4000387
:1029C000236209B0BDE8F083005C0040003802409B
:1029D0000008024000000240F0B599B004461422FD
:1029E000002107A838F0FBF830220DEB020000218F
:1029F00038F0F5F822685E4B9A4240F0B780082321
:102A00000C93C0231093042312930CA84FF40033AB
:102A1000159318F0E3FA08B1FFF7ECFE554B564852
:102A2000002400945A6C42F080625A645A6C02F09E
:102A300080620092009A01941A6B42F020021A639D
:102A40001A6B02F020020192019A02941A6B42F072
:102A500001021A631A6B02F001020292029A0394B5
:102A60001A6B42F002021A631A6B02F0020203921E
:102A7000039A04941A6B42F040021A631A6B02F034
:102A800040020492049A05941A6B42F004021A63FD
:102A90001A6B02F004020592059A06941A6B42F032
:102AA00008021A631B6B03F00803069302250E2627
:102AB000069B0B964FF4806307A9CDE90735CDE956
:102AC000094516F081FE41F658032C480B9607A9DC
:102AD000CDE907350927CDE9094516F075FE032331
:102AE00027480B9707A9CDE90735CDE9094516F029
:102AF0006BFE4FF4706322480B9607A9CDE90735AA
:102B0000CDE9094516F060FE4FF40C631D480B96A5
:102B100007A9CDE90735CDE9094516F055FEC023D3
:102B200019480B9607A9CDE90735CDE9094516F0F7
:102B30004BFE082315480B9607A9CDE90735CDE9CB
:102B4000094516F041FE4FF4A0530E480B9707A914
:102B5000CDE90735CDE9094516F036FE5820224665
:102B6000052116F0E5FC582016F014FD19B0F0BD53
:102B7000006801400038024000140240000002409A
:102B8000000402400018024000080240000C02400D
:102B900010B5044688B01422002103A838F01FF8AD
:102BA0002268144B9A4223D103F568430021019116
:102BB0005A6C114842F480125A645A6C02F4801222
:102BC0000192019A02911A6B42F020021A631B6B68
:102BD00003F020030293029B4FF46072022303214F
:102BE000CDE903230523CDE9061303A916F0ECFD77
:102BF00008B010BD00500140001402402DE9F04122
:102C000086B0002303932B4B1C68002C4FD14FF050
:102C10000108C3F80080284B00949A6B274842EAC9
:102C200008029A639B6B03EA0803009302270326BA
:102C30000C25009B01A94FF63F03CDE90137CDE9F3
:102C4000046516F0C1FD1E48059501A9CDE901876F
:102C5000CDE9034616F0B8FD48F23313194805953F
:102C600001A9CDE90137CDE9034616F0ADFD4FF6D8
:102C700083731548059501A9CDE90137CDE90346D0
:102C800016F0A2FD4CF203731048059501A9CDE999
:102C90000137CDE9034616F097FD60230C480595F2
:102CA00001A9CDE90137CDE9034616F08DFD06B047
:102CB000BDE8F081F43000200038024000140240EA
:102CC000000802400018024000100240000C0240C0
:102CD0000004024070B588B000230293204B1A6CA8
:102CE00042F010021A641B6C03F0100302930546B5
:102CF00001A903A8029B18F053F9069B4BBB18F0DF
:102D00003FF9184E184B336040F2E733F360174B2E
:102D1000B0FBF3F3013B7360304600233361B360D3
:102D2000B36118F08BFF044680B9304618F048FEB6
:102D3000044658B9362016F02DFC0F2D0DD822462A
:102D40002946362016F0F4FB094B1D60204608B0DA
:102D500070BD18F015F94000D3E70124F6E700BF75
:102D600000380240F83000200010004040420F00C0
:102D70007C0000207047FEE7FEE7FEE7FEE77047B5
:102D8000014816F099BA00BF802E0020014818F0C3
:102D900055BE00BFF8300020014817F0D5BD00BF78
:102DA000642F0020014816F041BC00BFD02E002047
:102DB0000120704708B538F00BF8162303604FF078
:102DC000FF3008BD08B538F003F816230360FEE7AE
:102DD00070B50D4614460E46731B9C4201DC20461E
:102DE00070BDAFF3008006F8010BF5E770B50D4636
:102DF00014460E46731B9C4201DC204670BD16F83B
:102E0000010BAFF30080F5E74FF0FF3070474FF450
:102E100000534B600020704701207047002070472E
:102E20000A4A116808B5034609B9094911601068D2
:102E3000694603448B4206D937F0CAFF0C2303606E
:102E40004FF0FF3008BD1360FCE700BF40310020A9
:102E5000584C0120F0B585B047004FF0FF341546BF
:102E60001E468DF80F100C48009401230DF10F023F
:102E7000394617F049F868B90748009433462A469E
:102E800047F0010117F018F9003818BF012040423F
:102E900005B0F0BD2046FBE7102F002030B58DB007
:102EA000054608461C4611468DF808001A460DF1E5
:102EB000090037F0BAFF631C4FF0FF3200929BB25B
:102EC00002AA6900044817F01FF8003818BF012053
:102ED00040420DB030BD00BF102F002016F034B8B6
:102EE00040F2024310B50387032380F83A300123F0
:102EF000044680F8443001460720FEF73FFD38B90C
:102F00002046FEF7FCFC003818BF0120404210BDEF
:102F10004FF0FF30FBE70000772370B543700123CB
:102F200083700B4B83640B4BC3640B4B03651923FA
:102F3000044603710E46FEF72EFC2046FFF7D0FF35
:102F4000214605463046FEF78FFE284670BD00BF7D
:102F5000552E00089D2E0008DD2E00080B46014668
:102F60001846FEF7B5BE7047704770477047704708
:102F7000704770477047704730B4C2684468551056
:102F8000034604EB6200D20748BF62599B6830BC1D
:102F900048BFD358184743682BB183682BB9C06822
:102FA00000F001007047184670470120704710B5C7
:102FB0000821044636F0C8FC204610BD10B510218B
:102FC000044636F0C1FC204610BD10B54FF4D67152
:102FD000044636F0B9FC204610BDE030884208B502
:102FE00005D124F0ADFDBDE8084002F079BA08BD76
:102FF00070B5036804461B6B15469847236829463D
:1030000020465B6BBDE87040184770B504461D460E
:10301000BDF91060FFF7ECFF2368294620469B6B43
:103020009847236831462046DB6BBDE8704018475F
:10303000094A02604FF4807100228184FF21C0E9B7
:103040000122C0E90322C0E90522C0E9072280F875
:1030500026108262704700BFE0F903084FF48071C8
:1030600081840D4901600D4981624FF6FF718185B0
:103070004FF47F01002241634FF0FF31C0E901228C
:10308000C0E90322C0E90522C0E90722C0E9101205
:1030900002630287C263704750F90308FCC2030849
:1030A0001A4B73B51B88018F8B4206462BD9184BE0
:1030B0001B682BB9174B184A18486C2137F08AFB4C
:1030C00013F81120164B1B6853F82250154B186843
:1030D00014F046F92B6801909B6B284698472B68A3
:1030E00001999B6C0446284698472B6801995B6AB6
:1030F00014FB00F428469847A4B223181BB2A6F884
:10310000463002B070BD0023F9E700BF7C400120CB
:10311000784001202EC2030870C20308ABC2030826
:1031200080400120844001202DE9F04F2DED028BDD
:1031300004468BB0A246002526F05CFC654BE56397
:103140004AF8403B04F16C0B504604F19809FFF734
:103150006FFF5846FFF76CFF04F1E0084846FFF7A1
:103160007DFF04F59477404622F070F93846FFF76A
:1031700075FF04F5B873184608EE103AFFF758FFCC
:10318000554BC4E96734554BC4E969354FF4A07316
:103190002A46009329465046F023FFF736FF261DA6
:1031A0004FF07F43A366514630461CF018FA4FF4A7
:1031B000A0732A46009329465846F023FFF725FFBF
:1031C000474BC4F89430594630461CF008FA0F2299
:1031D00048461421FFF70CFF0DF1080A414BC4F8D3
:1031E000C83049465046A4F8CC5021F035F99AE849
:1031F000070004F1D40383E80700DFF8ECB0CDF852
:1032000020B0642308A94846ADF8243021F0BEFB65
:10321000494630461CF0E3F940460722C521FFF736
:10322000E7FE022308AA07A9ADF81C304046032395
:10323000ADF8203021F0DDFD6323A4F818314046BD
:10324000FFF72EFF4FF0FF3904F5CE73C4F80831B5
:1032500041463046C4E947991CF0C1F94B22384633
:103260001821FFF7C5FE39465046C4F85891A4F816
:103270005C5121F0F1F89AE8070004F5B27383E895
:103280000700622308A93846ADF82430CDF820B0F5
:1032900021F07CFB394630461CF0A1F94FF4A073B5
:1032A00018EE100A00932A462946F023FFF7ADFED8
:1032B0004FF07F43304618EE101AC4F8983184F866
:1032C00096511CF08CF920460BB0BDEC028BBDE88A
:1032D000F08F00BF24C303080CC30308DB2F0008D2
:1032E0002B2B2BFF808080FFFCC2030830B50368C6
:1032F000018185B06D460146D3F8843004462846E6
:10330000984795E807003C3484E8070005B030BDD5
:1033100030B50368418185B06D460146D3F88430ED
:1033200004462846984795E807003C3484E807009F
:1033300005B030BD0022028042808280C28070478A
:1033400080F83610704770B5036804461B6B15464D
:1033500098472368294620465B6EBDE870401847B1
:1033600000207047806C7047704770477047704707
:103370007047704730B4C26844685510034604EB88
:103380006200D20748BF62599B6830BC48BFD3581F
:10339000184743682BB183682BB9C06800F001005F
:1033A0007047184670470120704710B54C210446FD
:1033B00036F0CAFA204610BD10B51021044636F08A
:1033C000C3FA204610BD10B54FF45471044636F0D0
:1033D000BBFA204610BD08B5FDF7F6FF08BD00009A
:1033E000036870B55E6B124B1B6804468DB22BB937
:1033F000104B114A6C21114837F0ECF91049828DBD
:103400000988914203D80F4B0B4A6D21F3E713F85B
:1034100012200D4B1B6853F8220003681B6B984762
:10342000281A01B233462046BDE87040184700BF55
:10343000784001202EC2030870C20308ABC2030803
:103440007C40012050C303088040012000F1F003BC
:10345000994270B504460D4603D124F071FB02F089
:103460003FF804F50F739D4203D123682046DB6AC1
:10347000984704F51E739D4205D1236820461B6BB7
:10348000BDE87040184770BD00224FF0FF31C0E921
:1034900000218260704700002DE9F04F2DED088B70
:1034A00004468FB0A046002526F0A4FAE84BE56359
:1034B00048F8403B04F16C0B4046FFF7B9FD584615
:1034C000FFF7B6FD04F1980318460AEE103AFFF72D
:1034D000AFFD04F1C40304F1F00718460AEE903A78
:1034E000FFF7A6FD384621F0B1FF04F59C7304F503
:1034F000C07A184608EE903A04F5E479FFF7AEFD7D
:103500005046FFF7ABFD4846FFF7A8FD04F50473EE
:1035100018460BEE103AFFF78BFD04F50F731846B3
:1035200009EE103A21F034FE04F51E73184609EE38
:10353000903A21F02DFE04F52D7318460BEE903ACB
:10354000FFF776FD04F53873184608EE103AFFF7DA
:1035500085FDC04BC4F8E032BF4BC4F82853C4E922
:10356000D034BE4BC4E9D2354FF4A0732A4640464E
:1035700000932946F023261DFFF747FD4FF07F43B8
:103580004146A36630461CF02AF84FF4A0732A4641
:10359000584600932946F023FFF737FDB04BC4F897
:1035A0009430594630461CF01AF82023DFF8C4B294
:1035B00000934FF49272F1234FF011081AEE100AA3
:1035C0004FF0FF31FFF721FD1AEE101AC4F8C0B01A
:1035D00084F8BE8030461CF002F834232A461AEEE6
:1035E000900A00932946F023FFF70FFD1AEE901A78
:1035F000C4F8ECB084F8EA8030461BF0F0FF38469F
:103600000722C521FFF7F4FC4FF003010BA80CAA19
:103610004FF00203ADF8301001463846ADF82C30BB
:1036200021F0E7FB04233846A4F82831FFF738FDE2
:103630004FF0FF3804F55073C4F818313946C4E927
:103640004B88304603931BF0CAFF0D2218EE900AF8
:103650001B2104AFFFF7CCFC824BC4F8683138461D
:1036600018EE901AA4F86C5120F0F6FE97E80700C7
:1036700004F5BA7383E807000CA80523DFF8F8B156
:10368000ADF83430014618EE900ACDF830B021F094
:103690007DF918EE901A30461BF0A1FF41225046EA
:1036A0001D21FFF7A5FC704BC4F8B03151463846D8
:1036B000A4F8B45120F0D0FE97E8070004F5DE73BB
:1036C00083E807004FF003015046ADF834100CA911
:1036D000CDF830B021F05AF9514630461BF07FFF4B
:1036E000D42248461021FFF783FC49463846C4F8E7
:1036F000F881A4F8FC5120F0AFFE97E8070004F52C
:10370000017383E807004FF0020248460CA9ADF8A8
:103710003420CDF830B021F039F9494630461BF05D
:103720005EFF4FF4A072F02341461BEE100A009298
:103730002A46FFF76AFC4FF07F421BEE101AC4F8CE
:103740003822304684F836521BF049FF19EE100A31
:1037500064227F21FFF74CFC0CAA00920BAA1346AF
:103760004FF0100819EE100A4FF006094FF0070A43
:103770000AAA09A9ADF82490ADF828A0ADF82C80CC
:10378000ADF8308021F06FFC4FF00512C4F87422C0
:10379000039AC4F8642219EE101A30461BF01FFF7A
:1037A00019EE900A64222F21FFF722FC0CAA1223A3
:1037B00000920BAA19EE900AADF82C3009A9134615
:1037C0000AAAADF82490ADF828A0ADF8308021F019
:1037D0004AFC4FF00512C4F8B022039AC4F8A022A4
:1037E00019EE901A30461BF0FAFE1923B2221BEE96
:1037F000900A009343215A23FFF707FC1A4BC4F8A1
:10380000DC321BEE901A30461BF0E9FEB32218EEB4
:10381000100A6121FFF7ECFB4FF07F43C4F810332F
:10382000D4F8E032A4F814533846D3F8843018EEB4
:10383000101A984797E8070004F5477383E80700D4
:103840000A4B1B6804F54B77EBB9094B16E000BF38
:103850007CC40308D4C3030864C403084D340008BF
:103860002B2B2BFF999999FFFFF700FF7840012040
:103870002EC20308FF5938FFFCC20308184A602112
:10388000184836F0A7FF184B1B881BB9174B144A72
:103890006121F5E7164B2946186813F061FD154ABA
:1038A00003460A21384627F0C9FD18EE100AC4F86D
:1038B000287321F04BF8012318EE100A0CA9ADF87B
:1038C0003430CDF830B021F061F8304618EE101ADF
:1038D0001BF085FE20460FB0BDEC088BBDE8F08FD5
:1038E0008EC30308ABC203087C40012050C3030809
:1038F00084400120C6C30308704708B5062915D8BF
:10390000DFE801F00C04080C100C100014F020F893
:10391000406808BD14F01CF88068FAE714F018F845
:103920000068F6E714F014F8C068F2E70020F0E74A
:1039300010B50421044636F007F8204610BD0000FB
:1039400000487047C4C403081620704713B500240C
:1039500051B1036801948DF8034001AA9C680DF1F0
:103960000303A04702B010BD0846FBE7C0897047BB
:10397000008A7047C088704780887047807A00F05E
:103980007F007047807AC0097047002070470000B0
:103990009FED010A704700BF0000000070477047AC
:1039A000704770477047704770477047704770475F
:1039B00030B4C26844685510034604EB6200D20775
:1039C00048BF62599B6830BC48BFD358184743680A
:1039D0002BB183682BB9C06800F00100704718460E
:1039E00070470120704710B51021044635F0ACFF38
:1039F000204610BD10B54FF4C461044635F0A4FF55
:103A0000204610BD00F1E003994270B504460D4612
:103A100003D124F095F801F063FD04F5B2739D42E3
:103A200003D123682046DB6A984704F5EE739D4274
:103A300003D1236820461B6B984704F5D0739D4241
:103A400003D1236820465B6B984704F506739D42BB
:103A500003D1236820469B6B984704F515739D425C
:103A600003D123682046DB6B984704F524739D42FD
:103A700003D1236820461B6C984704F594739D423C
:103A800005D1236820465B6CBDE87040184770BDC7
:103A900010B50446FFF7E2FA024B23600023A3644B
:103AA000204610BDD4C303082DE9F04F2DED108B37
:103AB00004468DB0A0464FF0000B25F09BFFE84B6D
:103AC000C4F83CB048F8403B04F16C0A4046FFF7AC
:103AD000AFFA04F198075046FFF7AAFA04F1E0069E
:103AE0003846FFF7BBFA04F59479304621F0AEFC76
:103AF000484621F04DFB04F5B27318460CEE903A9F
:103B000021F046FB04F5D07318460DEE103A21F073
:103B10003FFB04F5EE7318460DEE903A21F038FBAA
:103B200004F5067318460EEE103A21F031FB04F549
:103B3000157318460EEE903A21F02AFB04F5247313
:103B400018460FEE103A21F023FB04F533731846A4
:103B500009EE103AFFF782FA04F54573184608EEAD
:103B6000103AFFF795FF04F55873184608EE903A9F
:103B7000FFF78EFF04F56B73184609EE903AFFF7D6
:103B80006DFA04F57D7318460AEE103AFFF780FFD0
:103B900004F5886318460AEE903AFFF779FF04F2BD
:103BA0008C4318460BEE103AFFF758FA04F2D44350
:103BB00018460BEE903AFFF76BFF04F5A463184626
:103BC0000CEE103AFFF764FF04F26C5318460FEE48
:103BD000903AFFF72DFAA34BC4F81036A24BC4F865
:103BE00018364FF4A0735A46404600935946F023C6
:103BF000C4F81446C4F81CB6251DFFF706FA4FF0AA
:103C00007F434146A36628461BF0E9FC4FF4A073AE
:103C10005A46504600935946F023FFF7F6F9934B66
:103C2000C4F89430514628461BF0D9FC0F22384680
:103C30001421FFF7DDF90DF108088D4BC4F8C830E9
:103C400039464046A4F8CCB020F006FC98E80700BE
:103C500004F1D40383E80700864B0A9338466123B6
:103C60000AA9ADF82C3020F091FE394628461BF009
:103C7000B6FC30460722C521FFF7BAF902230AAA8B
:103C800009A93046ADF824300323ADF8283021F0DF
:103C9000B0F86023A4F818313046FFF701FA04F5B4
:103CA000C26A4FF0FF323146C4E947222846C4F8C1
:103CB00008A11BF094FC48464FF482724121FFF7A3
:103CC00097F94FF00A02ADF81C20ADF8202009A9A1
:103CD0004FF010020B46ADF82420ADF8282008A9BB
:103CE0000AAA484600920A4607A921F0BCF91E23F9
:103CF000C4F8603149462846C4F850A11BF06FFC57
:103D00001CEE900AA0221D21FFF772F909A90B46AB
:103D10000AAA08A901276FF006164FF015091CEE34
:103D2000900A00920A4607A9ADF81C70ADF82490DD
:103D3000ADF82890ADF820B021F095F91CEE901A5E
:103D4000C4F89C612846C4F88CA11BF048FC1DEE09
:103D5000100AA0226B21FFF74BF94FF0100209A8BF
:103D60000346ADF8282008A80AAA009207A902462F
:103D70001DEE100AADF81C70ADF82490ADF820B01F
:103D800021F071F91DEE101AC4F8D8612846C4F864
:103D9000C8A11BF024FC1DEE900AD2221D21FFF7C2
:103DA00027F909A803460AAA08A84FF014090092A7
:103DB00007A902461DEE900AADF81C70ADF820B0C0
:103DC000ADF82490ADF8289021F04DF91DEE901A31
:103DD000C4F814622846C4F804A21BF000FC1EEECE
:103DE000100AD2226B21FFF703F909A803460AAA99
:103DF00008A8009207A902461EEE100AADF81C7032
:103E0000ADF820B0ADF82490ADF8289021F02BF952
:103E10001EEE101AC4F850622846C4F840A21BF0E7
:103E2000DEFB1EEE900AA022AF21FFF7E1F84FF073
:103E30001002ADF828200AAA4FF01501009209AA35
:103E400013461EEE900A08AAADF8241007A9ADF893
:103E50001C70ADF820B021F006F91EEE901A0BE0B0
:103E60009CC6030884C60308053A00082B2B2BFFC9
:103E7000808080FFFCC20308C4F88C622846C4F826
:103E80007CA21BF0ACFB1FEE100AD222AF21FFF781
:103E9000AFF80AAA009209AA13461FEE100A08AA50
:103EA00007A9ADF81C70ADF820B0ADF82490ADF8BE
:103EB000289021F0D8F81FEE101AC4F8C8622846DE
:103EC000C4F8B8A21BF08BFB19EE100A562225216C
:103ED000FFF78EF84FF07F4219EE101AC4F8FC225B
:103EE0004046A4F800B320F0B7FA98E8070004F5BC
:103EF000427383E807001F4B0A9319EE100A5823F8
:103F00000AA9ADF82C3020F041FD19EE101A284610
:103F10001BF065FB7E2218EE100A1D21FFF768F8E2
:103F20004FF07F43C4F84433D4F81433A4F848B3B3
:103F3000D3F88430104E18EE101A4046984798E88F
:103F4000070004F5547383E80700336804F5B3678A
:103F50002BB90A4B0A4A60210A4836F03BFCDFF8CD
:103F60002C90B9F800304D2B12D8074B044A612130
:103F7000F2E700BFFCC20308784001202EC203080C
:103F80008EC30308ABC2030850C303087C40012062
:103F9000DFF89CA34D21DAF8000013F0E1F9DF4AC5
:103FA00003460A21384627F049FA18EE100AC4F8E9
:103FB0005C7320F0CBFCDA4F0A97552318EE100AF9
:103FC0000AA9ADF82C3020F0E1FC18EE101A2846B2
:103FD0001BF005FB362218EE900A1D21FFF708F8AA
:103FE000D04BC4F89033D4F86033A4F894B3D3F82A
:103FF000843018EE901A4046984798E8070004F578
:10400000677383E80700336804F2AC57002BA0D035
:10401000B9F80030492BA8D94921DAF8000013F08B
:104020009FF9BE4A03460A21384627F007FA18EEE0
:10403000900AC4F8A87320F089FCB94F0A974A2364
:1040400018EE900A0AA9ADF82C3020F09FFC18EE6B
:10405000901A28461BF0C3FA19EE900A56227021D6
:10406000FEF7C6FF4FF07F4219EE901AC4F8DC232A
:104070004046A4F8E0B320F0EFF998E8070004F513
:104080007A7383E80700572319EE900A0AA9ADF85E
:104090002C300A9720F07AFC19EE901A28461BF073
:1040A0009EFA7E221AEE100A7021FEF7A1FF4FF051
:1040B0007F423368C4F824244FF0FF32A4F828B4B8
:1040C000C4F830B4C4F83424C4F838B404F5B8677C
:1040D000002B3FF43EAFB9F800304C2B7FF645AFD4
:1040E0004C21DAF8000013F03BF98C4A03460A2110
:1040F000384627F0A3F91AEE100AC4F83C7420F0F1
:1041000025FC874F0A9754231AEE100A0AA9ADF826
:104110002C3020F03BFC1AEE101A28461BF05FFAF8
:1041200036221AEE900A7021FEF762FF7D4BC4F82A
:1041300070343368A4F874B44FF0FF32C4F87CB420
:10414000C4F88024C4F884B404F2D457002B3FF49C
:1041500000AFB9F80030472B7FF607AF4721DAF8F8
:10416000000013F0FDF86D4A03460A21384627F097
:1041700065F91AEE900AC4F8887420F0E7FB684FDE
:104180000A9748231AEE900A0AA9ADF82C3020F0BD
:10419000FDFB1AEE901A28461BF021FA1BEE100ABE
:1041A0005622BA21FEF724FF4FF07F421BEE101A71
:1041B000C4F8BC244046A4F8C0B420F04DF998E8F7
:1041C000070004F5996383E8070056231BEE100AE5
:1041D0000AA9ADF82C300A9720F0D8FB1BEE101A74
:1041E00028461BF0FCF97E221BEE900AA221FEF766
:1041F000FFFE4FF07F423368C4F804254FF0FF32D2
:10420000A4F808B5C4F810B5C4F81425C4F818B556
:1042100004F5BD67002B3FF49CAEB9F800304B2B82
:104220007FF6A3AE4B21DAF8000013F099F83B4A71
:1042300003460A21384627F001F91BEE900AC4F81C
:104240001C7520F083FB364F0A9753231BEE900A10
:104250000AA9ADF82C3020F099FB1BEE901A2846E5
:104260001BF0BDF91CEE100A3622A221FEF7C0FE9B
:104270002C4BC4F850354FF0FF33C4F860352A4B4F
:104280001B684FF00008A4F85485C4F85C85C4F896
:10429000648504F2FC59002B3FF45BAE234B1B8872
:1042A000452B7FF662AEDAF80000452113F058F88E
:1042B0001A4A03460A21484627F0C0F81CEE100AA5
:1042C000C4F8689520F042FB46231CEE100A0AA9A8
:1042D000ADF82C300A9720F059FB1CEE101A284636
:1042E0001BF07DF94FF4A0731FEE900A0093424635
:1042F0004146F023FEF789FE4FF07F4328461FEE2C
:10430000901AC4F8943584F892851BF068F9204619
:104310000DB0BDEC108BBDE8F08F00BFC6C3030825
:10432000FCC20308787329FF784001207C400120FB
:10433000844001207047704770470368DB6A184764
:10434000704730B4C26844685510034604EB6200FD
:10435000D20748BF62599B6830BC48BFD358184742
:1043600043682BB183682BB9C06800F00100704727
:10437000184670470120704710B51021044635F0EB
:10438000E3FA204610BD00F19803994270B5044647
:104390000D4603D123F0D4FB01F0A2F804F25463DC
:1043A0009D4203D123F0CCFB01F01AF904F53873D8
:1043B0009D4203D123F0C4FB01F0F2F804F2E47350
:1043C0009D4203D123F0BCFB01F0CAF804F2EC5388
:1043D0009D4203D123F0B4FB01F0F2F804F59E6393
:1043E0009D4203D123F0ACFB01F00AF904F50E6302
:1043F0009D4203D123F0A4FB01F0C2F804F6083378
:104400009D420CD1002384F8313A04F60C2024F0AC
:1044100057FC236820461B6BBDE87040184770BDF1
:104420004FF480710022818405490160C0E90122B6
:10443000C0E90322C0E90522C0E907228262704771
:1044400000F103080022C0E90122C0E90322C0E90B
:104450000522C0E907224FF480728284014A02607B
:10446000704700BFECC6030800224FF0FF31C0E9DF
:1044700000218260704700002DE9F04F2DED108B78
:104480000446A3B025F0B6FA22460025E84BE563C2
:1044900042F8403B10460EEE902AFEF7C9FD04F1AB
:1044A0006C0304F19808184604F1E0070B93FEF73B
:1044B000BFFD404604F5947B20F0C8FF3846FEF768
:1044C000CDFD58461BF052FC04F50873184609EE62
:1044D000903AFFF7A5FF04F51373184604F5257904
:1044E0000FEE103AFEF7BAFD4846FFF7D1FA04F591
:1044F000387318460C9320F04BFE04F547731846AA
:104500000AEE103AFFF78CFF04F5527318460FEECF
:10451000903AFEF7A3FD04F56473184604F5777A24
:104520000AEE903AFFF7B4FA504619F0B9FD04F2DA
:10453000DC4318461793FCF76DFFBE4BC4F8DC3420
:104540002433C4F8E43404F59E631846C4F8E854F0
:104550000D9320F01DFE04F22C5318460BEE103A7A
:10456000FFF75EFF04F5AB6318460293FEF776FD96
:1045700004F5B46318460393FFF78AFA04F2EC5388
:1045800018460E9320F004FE04F5C56318460BEEA2
:10459000903AFFF745FF04F2546318460F9320F05A
:1045A000F7FD04F5D26318460493FEF757FD04F5B2
:1045B000DB6318460593FFF76BFA04F22473184681
:1045C0000CEE103AFFF72CFF04F5EA631846069349
:1045D000FFF75EFA04F29C7318460CEE903AFEF771
:1045E0003DFD04F2E4731846109320F0D1FD04F56C
:1045F000026318460DEE103AFFF712FF04F64C0363
:1046000018460793FFF744FA04F6980318460DEE90
:10461000903AFEF723FD04F50E631846119320F03F
:10462000B7FD04F61C13184609EE103A1AF012FFF3
:1046300004F6B41318461293FEF7FAFC04F51E6351
:1046400018461393FEF7F4FC04F60C23184608EE04
:10465000903AFFF7E5FE04F6382318461493FEF768
:10466000E7FC04F6642318461593FEF7E1FC04F515
:1046700029630EEE103A26224FF6FF762946184699
:10468000ADF87C6036F0ABFA1EEE100AFFF7DAFEEA
:10469000694BC4F8903A84F8B86ABDF87C30A4F845
:1046A000B63A1FAE31461EEE100A20F098FD04F611
:1046B000BC2318460893FFF7EBF904F608331846B5
:1046C000099320F0C3FE04F5356318460A93FFF7FB
:1046D000DFF904F69C3318461693FEF7A9FC04F59F
:1046E0008053564AC3F8DC2A554AC3F8E42AC3F873
:1046F000E04AC3F8E85A4FF4616104F6CC4021F077
:1047000061FD4FF4A0732A461EEE900A00932946DD
:10471000F023FEF77AFC4FF07F43A366231D184673
:104720001EEE901A08EE103A1AF059FF4FF4A073DB
:104730002A460B9800932946F023FEF766FC414B6E
:10474000C4F894300B9918EE100A1AF048FF40464E
:104750000722C521FEF74CFC022332461EA9404623
:10476000ADF878300323ADF87C3020F042FB6823AD
:104770004046A4F8D030FEF793FC4FF0FF33C4E975
:10478000353304F5D6531C33C4F8C030414618EE17
:10479000100A0B931AF023FF0D2238461B21FEF757
:1047A00027FC0DF16008284BC4F81031394640460B
:1047B000A4F814511FF050FE98E8070004F58E731A
:1047C00083E80700214B1F93384667233146ADF835
:1047D000803020F0DBF8394618EE100A1AF0FFFEA0
:1047E0001F2229465846FEF703FC4FF00E02ADF893
:1047F00078204FF00F02ADF87C201EA932465846B3
:104800001BF054FBF022542158461BF0FBF93221D7
:1048100058461BF070F9322158461BF0F1F940F26E
:104820000512F02319EE900A009229462A460FE05D
:104830006CC70308CCF3030844FB030854C7030800
:10484000874300082B2B2BFF999999FFFCC2030883
:10485000FEF7DBFB274F1E221FEE100A4C21FEF74E
:10486000C7FB1FEE101AC4F87C724046A4F88052B1
:104870001FF0F2FD98E8070004F5227383E80700B3
:104880001D4B1F931FEE100A4FF00D033146ADF87C
:10489000803020F07BF81FEE101A19EE900A1AF003
:1048A0009EFE6D2251214846FEF7A2FBD4F89432B9
:1048B000C4F8C472D3F88430A4F8C85249464046BC
:1048C000984798E8070004F5347383E807000B4B1A
:1048D0001B6804F6C8372BB9094B0A4A60210A48FD
:1048E00035F078FF094B1B880B2B13D8084B054A72
:1048F0006121F4E7FFF700FFFCC2030878400120C4
:104900002EC203088EC30308ABC203087C400120FB
:1049100050C30308DB4B0B21186812F021FDDA4A63
:1049200003460A21384626F089FD4846C4F8DC7261
:1049300020F00CF8D54F1F970C2348463146ADF8B0
:10494000803020F023F8494619EE900A1AF047FE0D
:104950000C98C9220521FEF74BFB4FF004021EA85C
:104960000346ADF870204FF010014FF013021DA860
:10497000ADF87820ADF87C1002461CA90C98009682
:104980004FF00509ADF8749020F06DFB4FF0051065
:104990000C99C4F8180319EE900A1AF020FE19EECB
:1049A000901A58461BF0F9FAB94BC4F824331FEE9D
:1049B000900A1A222021FEF71BFBB64AC4F878237E
:1049C0001FEE901A4046A4F87C531FF045FD98E86E
:1049D000070004F5617383E8070065231FEE900A62
:1049E0003146ADF880301F971FF0D0FF1FEE901AB0
:1049F0001AEE100A1AF0F3FD1AEE900A40225B211B
:104A0000FEF7F6FAD4F89033A24AD3F88430C4F80B
:104A1000C0231AEE901A4046A4F8C453984798E869
:104A2000070004F5737383E807009B490B6804F6DD
:104A3000DC37002B3FF450AF984803881A2B7FF6E1
:104A400055AF904B1A21186812F08AFC8E4A034623
:104A50001421384626F0F2FC1AEE900AC4F8D873F6
:104A60001FF074FF894F1F9766231AEE900A314694
:104A7000ADF880301FF08AFF1AEE901A1AEE100A75
:104A80001AF0ADFD50466B224121FEF7B1FA6E23BC
:104A9000504600932A46294619F0A6FA2B4650465E
:104AA00064222946009519F02FFB37221146504603
:104AB00019F02FFA5046322119F055FA50460A21C2
:104AC00019F057FAD22250466FF0590119F0D5FA71
:104AD0005046B42119F054FA4FF00D0C50463146AF
:104AE000ADF87CC019F057FC6D4BC4F8E83440F2C7
:104AF0009F73A4F8EC345046179919F007FA504602
:104B00003C2119F09EFA51461AEE100A1AF067FD80
:104B10000D98C9224946FEF76BFA4FF0130A4FF081
:104B2000040E4FF0100C1EAB1DAA0D9800961CA988
:104B3000ADF870E0ADF87CC0ADF87490ADF878A039
:104B400020F091FA4FF00511C4F828150B99C4F81C
:104B500018151AEE100A0D991AF041FD1AEE101AE6
:104B600058461BF01AFA40F20511F0231BEE100A0A
:104B700000912A462946FEF748FA02981E2237215C
:104B8000FEF736FA434A0299C4F888254046A4F84D
:104B90008C551FF061FC98E8070004F2945383E8F9
:104BA00007004FF0100C0298ADF880C031461F97F7
:104BB0001FF0ECFE02991BEE100A1AF010FD5321B3
:104BC00003986D22FEF714FA324AC4F8D025A4F8EF
:104BD000D4553046FFF748FC96E8070004F2DC5352
:104BE00083E807002C490B6804F60447002B3FF4C8
:104BF00073AE2A4803880E2B7FF678AE214B0E2128
:104C0000186812F0ADFB204A03460A21384626F008
:104C100015FC0398C4F8E8751FF098FE1B4F039825
:104C20001F974FF00F0E3146ADF880E01FF0AEFE3B
:104C300003991BEE100A1AF0D2FC49460E98C922BD
:104C4000FEF7D6F94FF0040E4FF0100C1EAB1DAA64
:104C50000E9800961CA9ADF870E0ADF87CC0ADF8D8
:104C60007490ADF878A020F0FEF94FF005111BEE1E
:104C7000100AC4F824160E991AF0B1FC1BEE101A93
:104C800010E000BF84400120C6C30308FCC2030833
:104C9000F0000501FFF700FF784001207C40012073
:104CA000FFF000FF58461BF078F940F20511F023A1
:104CB0001BEE900A00912A462946FEF7A6F94946BE
:104CC0000F98C922FEF794F9ADF874900DF17809A8
:104CD0004B460DF174094A460DF170094FF0040E70
:104CE0004FF0100C49460F9800964FF00519ADF89B
:104CF00070E0ADF87CC0ADF878A020F0B4F90F9961
:104D0000C4F88C961BEE900A1AF069FC04981E22D7
:104D10003721FEF76DF9DA4A0499C4F8C0264046F7
:104D2000A4F8C4561FF098FB98E8070004F2CC637F
:104D300083E8070004981F973146ADF880A01FF064
:104D400025FE04991BEE900A1AF049FC51210598A2
:104D50006D22FEF74DF9CA4AC4F80827A4F80C578B
:104D60003046FFF781FB96E8070004F2147383E8EE
:104D70000700C4490B6804F61847002B3FF4ACAD9C
:104D8000C1480388112B7FF6B1ADC04B11211868C3
:104D900012F0E6FABE4A03460A21384626F04EFBD8
:104DA0000598C4F820771FF0D1FDBA4F05981F97DA
:104DB00012233146ADF880301FF0E8FD05991BEE57
:104DC000900A1AF00CFC40F205181BEE901A584697
:104DD0001BF0E3F8F0232A4629461CEE100ACDF812
:104DE0000080FEF712F9512106986D22FEF700F9B6
:104DF000A34AC4F88027A4F884573046FFF734FB51
:104E000096E8070004F28C7383E807009D490B685D
:104E100004F62C45002B3FF45FAD9B480388142B10
:104E20007FF664AD994BDFF858921868142112F0A0
:104E300097FA974A03460A21284626F0FFFA069871
:104E4000C4F898574FF015051FF080FDADF880505D
:104E50001FAD06981F9729461FF098FD06991CEE76
:104E6000100A1AF0BCFB00261E221CEE900A372105
:104E700018AFFEF7BDF81CEE901A3846C4F8CC9770
:104E8000A4F8D0671FF0E8FA1CEE902A02F13C0368
:104E900097E8070083E807007E4B1F931CEE900AFB
:104EA00016232946ADF880301FF070FD1CEE901AD5
:104EB0001CEE100A1AF093FB1098C9220521FEF788
:104EC00097F81EAA4FF0040E4FF0100C13461098DE
:104ED00000951DAA1CA94FF00508ADF870E0ADF8CB
:104EE0007CC0ADF878A0ADF8748020F0BCF84FF02D
:104EF0000512C4F81C2810991CEE100A1AF06FFB5A
:104F00001CEE101A58461BF048F840F205131DEE2F
:104F1000100A00933246F0233146FEF776F86D22F0
:104F200051210798FEF764F8C4F87C98A4F88068CB
:104F30002846FFF799FA95E8070004F6880383E806
:104F4000070050490B6804F5446A002B3FF4C4ACD9
:104F50004D480388182B7FF6C9AC4C4A18211068BD
:104F600012F0FEF94A4A03460A21504626F066FA34
:104F70000798C4F894A81FF0E9FC464B07981F93C4
:104F800029461923ADF880301FF000FD07991DEE6A
:104F9000100A1AF024FB1E221DEE900A3721FEF79C
:104FA00027F838461DEE901AC4F8C898A4F8CC68C3
:104FB0001FF052FA97E807001DEE903A3C3383E861
:104FC0000700344F1F9717231DEE900A2946ADF8AE
:104FD00080301FF0DBFC1DEE901A1DEE100A1AF057
:104FE000FEFA41461198C922FEF702F84FF0100C64
:104FF000ADF87CC00DF1740C62460DF1700C4FF0F1
:10500000040E6146119800954FF0130A1EABADF8DF
:1050100070E0ADF87480ADF878A020F024F84FF07F
:105020000513C4F8183911991DEE100A1AF0D7FAB1
:105030001DEE101A58461AF0B0FF012158461AF01A
:105040009DFF18EE100A59461AF0C9FA1C234FF4B6
:10505000927219EE100A009309216223FDF7D5FF21
:105060000D4919EE100A1AF033F94F2319EE100A00
:105070002946ADF880301F971AF03DF90EE000BFC9
:10508000FFF700FF784001207C4001208440012090
:10509000C6C30308FCC20308FFEA00FF19EE100AAA
:1050A00001211AF025FA0A220323114619EE100AEB
:1050B00084F84B3933461AF01EFA19EE101A18EE1E
:1050C000100A84F841691AF08AFA34234FF0110962
:1050D000924F129800933246F0233146FDF795FF28
:1050E0001299C4F8DC7918EE100A84F8DA991AF0EB
:1050F00076FA20234FF49272139800934FF0FF3109
:10510000F123FDF782FF4FF4A0781399C4F8087AD1
:1051100018EE100A84F8069A1AF061FA18EE900A4E
:10512000FA2332463146CDF80080FDF76EFF4FF08E
:10513000960AF02332461498CDF8008031464FF09D
:105140007F47FDF762FF149984F85EAA18EE900A73
:10515000C4F8607A1AF043FA3F23A422159800930A
:105160000E21D723FDF751FF159984F88AAA18EE6E
:10517000900AC4F88C7A1AF032FA46221EEE100A0F
:105180005421FDF735FF1EEE100A2946ADF87C903C
:1051900020F025F81EEE101A18EE900A1AF01FFAE9
:1051A000DFF890A1089828222F21FDF721FFC4F8ED
:1051B000ECAAA4F8F06A2846FFF756F995E807002C
:1051C00004F6F82383E8070055490B6804F65449B0
:1051D000002B3FF481AB53480388092B7FF686AB45
:1051E000514A0921106812F0BBF8504A03460A21BF
:1051F000484626F023F90898C4F8049B1FF0A6FB44
:105200004B4B08981F9329460A23ADF880301FF0B6
:10521000BDFB089918EE900A1AF0E1F90998FD22F1
:105220004721FDF7E5FE0DF1780C61462A4609237A
:105230000998ADF87C304FF00809ADF878901FF070
:10524000D8FD06230998A4F8403BFDF729FF4FF04D
:10525000FF33C4F8483B0B9BC4F8303B0999C4F8B2
:10526000447B18EE900A1AF0BAF9A92215210A987F
:10527000FDF7BEFEC4F880ABA4F8846B2846FFF7A8
:10528000F3F895E8070004F68C3383E80700244917
:105290000B6804F6684A002B3FF41EAB21480388D4
:1052A000072B7FF623AB204A0721106812F058F82D
:1052B0001E4A03463221504626F0C0F80A98C4F828
:1052C00098AB1FF043FB1A4B0A981F932946ADF881
:1052D00080901FF05BFB0A9918EE900A1AF07FF994
:1052E00018EE901A18EE100A1AF079F91698CDF8FF
:1052F0000080F02304223146FDF787FE18EE100AE5
:105300001699C4F8C47B84F8C26B1AF068F9204679
:1053100023B0BDEC108BBDE8F08F00BFFF5938FF04
:10532000784001207C40012084400120C6C303084E
:10533000FCC203080000FFFF10B5054B03600446E4
:1053400020F04AFF04F594701AF0E0FB204610BDEF
:105350006CC7030810B50446FFF7EEFF204641F680
:10536000EC2134F0F1FA204610BD7047704700F58B
:1053700098730868496803C3704770477047416075
:1053800070477047064BC0F84C310023C0F85031CD
:1053900000F5A273C0F84801C0F84031704700BF63
:1053A000B96400080123037270477047704710B456
:1053B000C26841685410034601EB6200D20748BF3F
:1053C0000A599B685DF8044B48BFD3581847436897
:1053D0002BB183682BB9C06800F0010070471846F4
:1053E00070470120704710B50C21044634F0ACFA28
:1053F000204610BD10B51021044634F0A5FA204611
:1054000010BD10B54FF4AE71044634F09DFA20463D
:1054100010BD10B522F094FB0368BDE81040DB6BB3
:10542000184710B50446D0F8400158B10368DB684E
:10543000984738B1D4F8400103689B689847002327
:10544000C4F8403110BD0000044B1B6893F858208D
:105450000AB1D86C00B99868704700BF204001209D
:10546000F8B5044617460E4622F076FC104B1C6039
:10547000104B2360104B0025C4E951350F4BC4E994
:1054800053551868036801219B68C4E94F55C4E966
:1054900055769847284611F027FFFFF7D5FF2CF0E7
:1054A00076F9FFF7D1FF2CF0EDF92046F8BD00BFEB
:1054B0007440012004D70308ECD6030820400120E3
:1054C000064BC0F84C310023C0F8503100F5A273F0
:1054D000C0F84801C0F84031704700BFB964000807
:1054E000064BC0F84C310023C0F8503100F5A273D0
:1054F000C0F84801C0F84031704700BF6963000838
:10550000064BC0F84C310023C0F8503100F5A273AF
:10551000C0F84801C0F84031704700BF1962000868
:10552000064BC0F84C310023C0F8503100F5A2738F
:10553000C0F84801C0F84031704700BFC96000089A
:10554000064BC0F84C310023C0F8503100F5A2736F
:10555000C0F84801C0F84031704700BF795F0008CB
:10556000064BC0F84C310023C0F8503100F5A2734F
:10557000C0F84801C0F84031704700BF295E0008FC
:10558000064BC0F84C310023C0F8503100F5A2732F
:10559000C0F84801C0F84031704700BFD95C00082E
:1055A000064BC0F84C310023C0F8503100F5A2730F
:1055B000C0F84801C0F84031704700BF895B00085F
:1055C000064BC0F84C310023C0F8503100F5A273EF
:1055D000C0F84801C0F84031704700BF395A000890
:1055E000064BC0F84C310023C0F8503100F5A273CF
:1055F000C0F84801C0F84031704700BFE9580008C2
:10560000064BC0F84C310023C0F8503100F5A273AE
:10561000C0F84801C0F84031704700BF99570008F2
:10562000064BC0F84C310023C0F8503100F5A2738E
:10563000C0F84801C0F84031704700BF4956000823
:1056400003685B6A184700002DE9F14FD0E9555A0D
:105650000746A86803681B6A9847B0F5557F05D2CE
:10566000454B464AA321464835F0B4F868680368BC
:105670001B6A98470F2803D8424B404AA421F2E7FF
:10568000E86803681B6A98470B2803D83E4B3B4ADF
:10569000A521E8E722F054FADFF8F490043022F074
:1056A0008DFAD9F8000010B10368DB689847D9F883
:1056B000000010B103681B689847DFF8D880D8F85D
:1056C000000010B103685B699847D7F83C0110B13E
:1056D00003685B689847D8F8000010B103681B683E
:1056E0009847D7F83C0110B103689B689847E86871
:1056F0000021FFF7A5FF4FF0000B244B0360044689
:10570000C0F804B080F808B0A868036859465B6A1E
:105710009847064612F0D4F96868036859465B6AF0
:1057200098473146054612F097F9C9F80040C7F886
:105730003C51C8F80060E5B12B1DCAF80030336851
:10574000C5F808A03046DB68F56398472B68284603
:105750001B6898472146304624F0F8FA2368204613
:105760001B69984723685B69204601B0BDE8F04F8C
:1057700018472B46E1E700BFA0C703082EC803085F
:1057800040C9030887C903082ACA030858D7030871
:1057900068400120644001202DE9F14FD0E9555ABD
:1057A0000746A86803681B6A984741F22743984256
:1057B00005D8454B454AA321454835F00BF86868A4
:1057C00003681B6A98470F2803D8424B3F4AA4211D
:1057D000F2E7E86803681B6A98470B2803D83E4B3A
:1057E0003A4AA521E8E722F0ABF9DFF8F49004305B
:1057F00022F0E4F9D9F8000010B10368DB6898479B
:10580000D9F8000010B103681B689847DFF8D4800E
:10581000D8F8000010B103685B699847D7F83C01DD
:1058200010B103685B689847D8F8000010B10368AE
:105830001B689847D7F83C0110B103689B689847EC
:10584000E8680021FFF7FCFE4FF0000B234B0360DC
:105850000446C0F804B080F808B0A8680368594648
:105860005B6A9847064612F075FE686803685946F9
:105870005B6A98473146054612F046FEC9F800407B
:10588000C7F83C51C8F80060E5B12B1DCAF80030DC
:105890003368C5F808A03046DB68F56398472B6885
:1058A00028461B6898472146304624F04FFA236863
:1058B00020461B69984723685B69204601B0BDE814
:1058C000F04F18472B46E1E7A0C70308CDCA0308ED
:1058D00040C9030887C903082ACA030858D7030820
:1058E00068400120644001202DE9F14FD0E9555A6C
:1058F0000746A86803681B6A984741F22743984205
:1059000005D8454B454AA321454834F063FF6868F4
:1059100003681B6A98470F2803D8424B3F4AA421CB
:10592000F2E7E86803681B6A98470B2803D83E4BE8
:105930003A4AA521E8E722F003F9DFF8F4900430B1
:1059400022F03CF9D9F8000010B10368DB689847F1
:10595000D9F8000010B103681B689847DFF8D480BD
:10596000D8F8000010B103685B699847D7F83C018C
:1059700010B103685B689847D8F8000010B103685D
:105980001B689847D7F83C0110B103689B6898479B
:10599000E8680021FFF754FE4FF0000B234B036033
:1059A0000446C0F804B080F808B0A86803685946F7
:1059B0005B6A9847064612F08DFD68680368594691
:1059C0005B6A98473146054612F05EFDC9F8004013
:1059D000C7F83C51C8F80060E5B12B1DCAF800308B
:1059E0003368C5F808A03046DB68F56398472B6834
:1059F00028461B6898472146304624F0A7F92368BB
:105A000020461B69984723685B69204601B0BDE8C2
:105A1000F04F18472B46E1E7A0C70308EDCB03087A
:105A200040C9030887C903082ACA030858D70308CE
:105A300068400120644001202DE9F14FD0E9555A1A
:105A40000746A86803681B6A984741F227439842B3
:105A500005D8454B454AA321454834F0BBFE68684C
:105A600003681B6A98470F2803D8424B3F4AA4217A
:105A7000F2E7E86803681B6A98470B2803D83E4B97
:105A80003A4AA521E8E722F05BF8DFF8F490043009
:105A900022F094F8D9F8000010B10368DB68984749
:105AA000D9F8000010B103681B689847DFF8D4806C
:105AB000D8F8000010B103685B699847D7F83C013B
:105AC00010B103685B689847D8F8000010B103680C
:105AD0001B689847D7F83C0110B103689B6898474A
