:020000040800F2
:10000000000003202D0600088D2000088F20000826
:1000100091200008932000089520000800000000AF
:100020000000000000000000000000003166000831
:100030009720000800000000C1660008515F00081A
:100040007D0600087D0600087D0600087D06000884
:100050007D0600087D0600087D0600087D06000874
:100060007D0600087D0600087D0600087D06000864
:100070007D0600087D0600087D0600087D06000854
:100080007D0600087D0600087D0600087D06000844
:100090007D0600087D0600087D0600087D06000834
:1000A0007D0600087D0600087D0600087D06000824
:1000B0007D0600087D0600087D0600087D06000814
:1000C0007D0600087D0600087D0600087D06000804
:1000D0007D0600087D0600087D0600087D060008F4
:1000E0007D0600087D0600087D0600087D060008E4
:1000F0007D0600087D0600087D0600087D060008D4
:100100007D0600087D0600087D0600087D060008C3
:100110007D0600087D060008992000087D0600087D
:100120007D0600087D0600087D0600087D060008A3
:100130007D0600087D0600087D0600087D06000893
:100140007D0600087D0600087D0600087D06000883
:100150007D0600087D0600087D0600087D06000873
:100160007D0600087D0600087D0600087D06000863
:100170007D0600087D0600087D06000800000000DE
:100180007D0600087D0600087D0600087D06000843
:100190007D0600087D0600087D0600087D06000833
:0C01A000A52000087D060008B120000822
:1001B00010B5054C237833B9044B13B10448AFF3A1
:1001C00000800123237010BD6401002000000000A6
:1001D0000C33020808B5034B1BB103490348AFF3C6
:1001E000008008BD00000000680100200C330208F8
:1001F00001F0FF01102A2BDB10F0070F08D010F8D8
:10020000013B013A8B422DD010F0070F42B3F6D1DB
:10021000F0B441EA012141EA014122F007047FF0F4
:1002200000070023F0E80256083C85EA010586EA4B
:10023000010685FA47F5A3FA87F586FA47F6A5FA87
:1002400087F68EB9EED1F0BC01F0FF0102F0070293
:1002500032B110F8013B013A83EA010313B1F8D13E
:100260000020704701387047002D06BF354603381F
:10027000073815F0010F07D1013015F4807F02BF58
:10028000013015F4C03F0130F0BC0138704700BFA9
:100290007BB972B90029BEBF00204FF0004106E0D3
:1002A00008BF00281CBF6FF000414FF0FF3000F086
:1002B000BBB9ADF1080C6DE904CE002909DB002BB8
:1002C0001ADB00F04DF8DDF804E0DDE9022304B0AC
:1002D0007047404261EB4101002B1BDB00F040F80E
:1002E000DDF804E0DDE9022304B0404261EB4101A6
:1002F000524263EB43037047524263EB430300F007
:100300002FF8DDF804E0DDE9022304B0404261EBA0
:1003100041017047524263EB430300F021F8DDF8DE
:1003200004E0DDE9022304B0524263EB430370476B
:1003300053B94AB9002908BF00281CBF4FF0FF314C
:100340004FF0FF3000F070B9ADF1080C6DE904CE4C
:1003500000F006F8DDF804E0DDE9022304B07047A0
:100360002DE9F047089E0D4604460F46002B4AD162
:100370008A42944665D9B2FA82F343B102FA03FC89
:10038000C3F120029F4020FA02F217439C404FEA3B
:100390001C4E1FFA8CF5B7FBFEF1220C0EFB1177F9
:1003A00042EA074201FB05F090420AD91CEB020227
:1003B00001F1FF3780F01C81904240F2198102392F
:1003C0006244121AA4B2B2FBFEF00EFB102244EA01
:1003D000024400FB05F5A5420AD91CEB040400F118
:1003E000FF3280F00781A54240F204816444023864
:1003F00040EA0140641B00211EB1DC400023C6E935
:100400000043BDE8F0878B4208D9002E00F0ED8054
:100410000021C6E900050846BDE8F087B3FA83F17C
:10042000002949D1AB4202D3824200F2F880841AFB
:1004300065EB030201201746002EE2D0C6E9004713
:10044000DFE702B9FFDEB2FA82F3002B40F09080C2
:100450008A1A4FEA1C471FFA8CFE0121B2FBF7F5FE
:1004600007FB1520220C42EA00420EFB05F09042E9
:1004700008D91CEB020205F1FF3802D2904200F2CB
:10048000CB804546121AA4B2B2FBF7F007FB10224C
:1004900044EA02440EFB00FEA64508D91CEB040406
:1004A00000F1FF3202D2A64500F2BB801046A4EB59
:1004B0000E0440EA05409FE7C1F120078B4022FA75
:1004C00007FC4CEA030C05FA01F420FA07F3FD409F
:1004D0004FEA1C492343B5FBF9F81FFA8CFE09FBD0
:1004E00018551C0C44EA054408FB0EF5A54202FA17
:1004F00001F200FA01F00BD91CEB040408F1FF3AF9
:1005000080F08880A54240F28580A8F1020864440A
:10051000641B9DB2B4FBF9F309FB134445EA0444A0
:1005200003FB0EFEA64508D91CEB040403F1FF35BE
:100530006CD2A6456AD9023B644443EA0843A3FB54
:100540000295A4EB0E04AC42C846AE4656D353D037
:1005500056B1B0EB080264EB0E0404FA07F7CA4088
:10056000CC401743C6E9007418460021BDE8F08767
:10057000C3F1200102FA03FC20FA01F225FA01F18D
:100580009D402A434FEA1C471FFA8CFEB1FBF7F04F
:1005900007FB1015110C41EA054100FB0EF58D42D9
:1005A00004FA03F408D91CEB010100F1FF382FD243
:1005B0008D422DD902386144491B92B2B1FBF7F547
:1005C00007FB151142EA014205FB0EF1914208D9E1
:1005D0001CEB020205F1FF3816D2914214D9023DFC
:1005E0006244521A45EA004138E73146304608E78E
:1005F0003946E6E61046FBE64845A9D2B9EB0208C3
:1006000065EB0C0E013BA3E74546EAE72B4694E772
:100610004046D1E7D0467BE7023D624432E70846D8
:100620000AE76444023842E7704700BFDFF834D07D
:10063000002103E00C4B5B58435004310B480C4B3A
:1006400042189A42F6D30B4A02E0002342F8043BD8
:10065000094B9A42F9D303F01BFA22F0DBF800F0C1
:10066000FDFF704700000320A4D313080000002002
:10067000640100206401002038430120FEE7704738
:1006800008B500F069FDBDE8084000F0EBBC00F0E3
:1006900065BD704710B50421044620F0C7FE204612
:1006A00010BD000038B50C4B0C4C18800C4B822050
:1006B00019806368984740F6110398420AD1094DA2
:1006C00023682C60822098472B688220DB6898473B
:1006D000002038BD0120FCE7800100204C000020F4
:1006E00082010020840100204FF4A071F020FFF768
:1006F000D9BF0000F7B5334D2B6804461B69822033
:10070000984780B2208000284AD02B680DF106025D
:100710005B6901A982209847BDF8063040F67462F3
:1007200093423FD9ADF80620BDF80630D21A92B2F6
:100730000A2A3DD90B23B2FBF3F2234B1B889A42C2
:1007400001D9013B9AB2BDF8043040F6B8318B4272
:1007500030D8C3F571630E339BB20F21B3FBF1F3B5
:100760001A4909888B4201D901398BB2184E194DAB
:1007700030682F68834281B28CBF591AC91AB8B247
:10078000BA428CBF101A801A89B280B2014405297E
:10079000C8BF33603368C8BF2A6063802B68A380FA
:1007A00003B0F0BDB32B9CBFB423ADF80630BBE75C
:1007B0000022C8E7C3F56D6308339BB20E2BCCD87B
:1007C0000023D3E784010020820100208001002063
:1007D000880100208C01002037B568460D4614467C
:1007E000FFF788FFBDF8000030B1BDF802302B6084
:1007F000BDF804302360012003B030BD032821D8A8
:10080000DFE800F0020B12190F4B1A68B2FA82F2FD
:10081000520904210D4803F0D3BB0B4B5A68B2FABE
:1008200082F252090821F5E7074B9A68B2FA82F280
:1008300052091021EEE7044BDA68B2FA82F252094B
:100840002021E7E7704700BF900100200010024020
:10085000032821D8DFE800F0020B12190F4B1A68A9
:10086000003A18BF012204210D4803F0A9BB0B4B2D
:100870005A68003A18BF01220821F5E7074B9A6829
:10088000003A18BF01221021EEE7044BDA68003A63
:1008900018BF01222021E7E7704700BF9001002028
:1008A0000010024003280DD8DFE800F00206080A15
:1008B0000421054803F089BB0821FAE71021F8E775
:1008C0002021F6E7704700BF0010024008B503285A
:1008D00011D8DFE800F0020A0C0E0421074803F0EB
:1008E00069FB431E5842584108BD0821F6E7102114
:1008F000F4E72021F2E70020F3E700BF00100240F8
:1009000070B5084D00240126E0B2FFF7DFFF18B1F3
:100910002B68012B18BF2E600134052C05F104054E
:10092000F2D170BD90010020012380F8781080F88A
:100930007930704700207047034B4164003918BF7D
:1009400001211970704700BFFF3601200020704759
:10095000836B0BB10846184770474FF6FF7070471E
:10096000406803689B6918477047704770470000EC
:1009700010B5044600F008FD23680349D3F88C3015
:100980002046BDE810401847000000D008B50368B5
:100990000446D3F880309847236820469B6F9847D9
:1009A00000F0ECF8236820461B6F9847292001F0DF
:1009B0008DF800F0E3F8236820461B6F9847F8E7AE
:1009C00010B5044609F07EFB23682046D3F8AC300E
:1009D000BDE81040184700F0B9BC00F0BDBC00F005
:1009E000F1BC00F08FBC00F00DBD00F0F7BC00F0D2
:1009F00093BC08F0D2BD10B57C21044620F016FD52
:100A0000204610BD90F87A301BB1406803681B681F
:100A1000184718467047000010B590F8341090F849
:100A200078400C4B8C421A7809D03AB90A4A0B49E3
:100A30001488088810800C8001221A7010BD002ACA
:100A4000FCD0054A05491488088810800C800022D3
:100A5000F3E700BFF8360120F4360120F636012016
:100A600070B50D46194635B9094B0A4A0A4840F295
:100A7000D22121F021FCC0E90F52084B003A18BFE7
:100A800001221A700368BDE87040D3F88C30184713
:100A90007C330208B433020802340208FE36012017
:100AA00008B5094B1B888B4203D8084B1B8893421F
:100AB00005D9074B074A08489E2121F0FDFB074B4B
:100AC0001980074B1A8008BDF4360120F636012044
:100AD00047340208AA34020802340208FA36012018
:100AE000FC360120012108B50022084605F0BDFAB8
:100AF0000A4B186028B90A4B0A4A28210A4821F0F3
:100B0000DBFB00220421012005F04CFB074B1860A1
:100B100018B9074B034A2C21F0E708BDA4010020B7
:100B2000C83502081136020840360208A00100202C
:100B30008D360208024B4FF0FF31186805F0DFBA1E
:100B4000A4010020014B186805F004BBA40100209B
:100B5000024B0021186805F0D2BA00BFA4010020A2
:100B6000FFF7F0BF03480449006800231A4605F068
:100B700054BB00BFA00100200400002013B5084CA6
:100B800000231A4601A9206805F077FB20684FF082
:100B9000FF33002201A905F070FB02B010BD00BFB9
:100BA000A001002003685B6C1847012070470368B0
:100BB0009B6A184740F2EF3070470000054B036016
:100BC000054B4FF08062C3F88820BFF34F8FBFF30F
:100BD0006F8F70472C38020800E100E010B5044622
:100BE0004FF45A61FFF7EAFF204620F01FFC204631
:100BF00010BD000082B0002301930D4B1A6B42F42C
:100C000000021A631A6B02F400020192019A1A6937
:100C100042F400021A611A6922F400021A61054BBB
:100C2000054A1A61054B4FF080629A6002B0704726
:100C300000380240D4260020410C000800E100E00A
:100C4000024B1B68586803685B691847003701202E
:100C500070B5044625460A4B0C30002660602672AB
:100C6000667245F8203B6022294609F083FB04F5B3
:100C70005A63EE602435AB42FBD1204670BD00BF05
:100C80002C38020808B50B290BD8DFE801F0120652
:100C9000100A0A0A0A0808080808012008BD0520E9
:100CA000FCE7054B054A0648652121F005FB0020BD
:100CB000F4E70220F2E700BFCF360208EA36020866
:100CC0003437020808B50A2909D8DFE801F0100610
:100CD0000E080808080606060600012008BD054B98
:100CE000054A0648862121F0E7FA0020F6E70220AF
:100CF000F4E700BFCF3602087F3702083437020816
:100D00002DE9F84391F81D800C4641460746FFF750
:100D1000B9FF94F81E90054649463846FFF7B2FFE2
:100D2000494606463846FFF7CDFFA18A628B434B02
:100D3000521A1A649A61228B521A1A61E28A586313
:100D400042EA01425A6420696268D863DA6027681F
:100D5000802F28D0227F0FD8202F65D0402F63D03E
:100D6000042F1AD0354B45EA026545F40035C845D5
:100D7000DD615FD0324A44E0B7F5807F04D0B7F53B
:100D8000007FEFD12F4900E02F4941EA0262DA618A
:100D9000E2681A625E62586132E045EA026242F439
:100DA0000032DA61F6E7A7683A1DDA62217F3A7805
:100DB00045EA016545F40035DD615E62586142B186
:100DC000012A21D0214B224A22484FF4887121F078
:100DD00073FADA69798822F47F42013922F010022D
:100DE00042EA0122DA610121144BDA6942F0200261
:100DF000DA61DA699206FCD410229A600029B9D02F
:100E0000154A1A60BDE8F883DA69788822F47F42CF
:100E1000013822F0100242EA0022FF3942F01002AB
:100E200018BF0121DA61DFE745EA0262034B42F4B1
:100E30000032B6E740F20122E3E700BF00B0024013
:100E400001020100090002000A000200CA3702087C
:100E5000E4370208343702080102020038B50C46B4
:100E6000897FFFF72FFFA58AE28A164B2169586315
:100E700042EA05425A64628BD963521B1A642568A0
:100E8000082D0ED19A611A615862207F0E4A42EAFB
:100E90000062DA61E2681A620C4A5961D9601A602C
:100EA00038BD0022D8611A61E1680A0A480902F4D3
:100EB000784200F4FC600243C1F3C4010A439A6320
:100EC000034AECE700B00240090001000102020001
:100ED00001020300034B1A68D207FCD423229A6054
:100EE000704700BF00B0024030B50F4C2568ED07D9
:100EF000FCD423250904A56041F001010225FF2B44
:100F000065636164E0630AD00849656241EA03638E
:100F1000E361074B22626061E060236030BDE56100
:100F2000039BA363034BF8E700B0024009000100F4
:100F30000100020001000300012070470C207047EF
:100F40000C2303FB0100083070470C2303FB010056
:100F500008307047012070474FF49F5070474FF49E
:100F60009F5303FB0100083070474FF49F5303FB6E
:100F7000010008307047012070471020704700EBD7
:100F800001100830704700EB011008307047084628
:100F900001F0B6BE10B5034B0360044607F0EDF850
:100FA000204610BDE438020810B50446FFF7F2FFF2
:100FB0002046142120F03AFA204610BD10B5034B0C
:100FC0000360044607F0D9F8204610BDB038020887
:100FD00010B50446FFF7F2FF204641F2E83120F059
:100FE00025FA204610BD000010B5034B03600446EF
:100FF00007F0C3F8204610BD7C38020810B504463F
:10100000FFF7F2FF2046182120F010FA204610BD0D
:1010100010B5094B0360044600F5A0501430FFF7EB
:10102000B9FF04F12C00FFF7C9FF04F11400FFF72A
:10103000DBFF204610BD00BF1839020808B5024882
:10104000FFF7E6FF08BD00BFAC01002010B5044665
:10105000FFF7DEFF204641F2885120F0E7F92046F5
:1010600010BD00002DE9F34101F096F8054601F0AE
:1010700097F800240146234628462246009411F0A2
:10108000F5FF284B284A1A60204602F059F9274BF1
:10109000274A284D9A60284811F050FF2B68BFF36B
:1010A0005B8FDB0737D4284620F0C2F998B3234C76
:1010B000234B236004F1140000F5A05707F1180634
:1010C00004F12C086060C4F80880E760266107F02E
:1010D00055F81C4B6361404607F050F81A4BE36229
:1010E000384607F04BF804F58053184AC3F8142427
:1010F00003F5856002F028FA224607F11401304614
:1011000002F0D8F9304601F0FBFD114821F0F2F869
:10111000284620F099F90F4802B0BDE8F041FFF7EA
:1011200027BC00BF643701207025002074250020F3
:1011300034170020A801002008000020AC01002086
:10114000183902087C380208B0380208E43802086E
:101150003D100008F4240020704700000148FFF70C
:1011600015BC00BFF424002070B5244E244C254D3E
:10117000254B23603046FFF76BFD284616F048FAF2
:1011800022480FF085FF224B2248DC6000224FF4FA
:101190008071C3E9121220491A86C3E91A121F4945
:1011A00099671F4983F858200B60F02101801D4882
:1011B0005A6601801C4883F870204FF4A071C3E97F
:1011C0000422C3E90622C3E90822C3E90A22C3E9CB
:1011D0000E22C3E91022C3E91422C3E917225A6779
:1011E000C3E9016501801148018011490A7001229B
:1011F00083F834200F4A1A6070BD00BF54170020D6
:1012000050170020742500206C330208341700208A
:10121000F4240020F4360120010000010000010147
:1012200000370120FA360120F6360120FC36012075
:10123000F8360120F83402080148FFF7BFBC00BFB0
:10124000541700200020704781807047C18070478C
:101250000181704741817047704770477047704700
:10126000704710B4C4880368121B84885B6D091B27
:1012700012B25DF8044B09B218474FF6FF73838131
:101280004FF0FF3303621368C3611060704790F83A
:1012900025201AB190F8242002B118607047002070
:1012A00070478B88838001207047704780F8261034
:1012B000704790F82600704710B50022B1F9084039
:1012C000B1F90A10028042808480C18010BD0022E2
:1012D000028042808280C28070470177704780ED33
:1012E000080A704780F82410704780F8251070476E
:1012F00001207047983070478C30704784307047B9
:1013000070470000034B902283F85A2383F8582338
:10131000704700BF00E100E0094A0A49D3680A4863
:10132000C3F30A03013B9BB20B801169C1F30A01AD
:10133000013901801364536B43F001035363704719
:10134000006801400226002000260020014BD3F84F
:10135000AC00704700680140024B0122C3F8AC109A
:101360005A627047006801407047704710B52C21E1
:10137000044620F05BF8204610BD10B5BC210446A1
:1013800020F054F8204610BD70B5044608F05BF913
:1013900023685D6E0EF006FD01462046A8472368CF
:1013A000054AD3F888502046AC460023BDE870407B
:1013B000A2F51631604700BF00B004D008F02AB98A
:1013C00008F034B908F0EFB808F051BA90F82520C9
:1013D00012B103685B69184770470000084B4FF073
:1013E0008062C3F88820BFF34F8FBFF36F8F4FF039
:1013F0008072C3F88820BFF34F8FBFF36F8F7047A1
:1014000000E100E0034B4FF080629A604FF0807281
:101410009A60704700E100E070B50023124E8380AF
:10142000124B0360336893F8582005460AB1D86C14
:1014300000B998680368DB6A98473368B0FA80F4AB
:10144000D86C640930B10368DB6A9847002808BF8C
:1014500044F001042CB9064B064A07482C2120F021
:101460002BFF284670BD00BF00370120283A020834
:101470002439020882390208BB39020870B5244EAB
:101480003568BFF35B8F15F001053FD130461FF083
:10149000CFFF00283AD01F4C1F4B256104F13400C8
:1014A000C4E90035C4E90255E584A562A58510F0BC
:1014B0004EF804F158000BF093F8184BA365204642
:1014C000174B40F8843BFFF7A7FF164BC4F8843056
:1014D0002433C4F88C306423C4E928350023C4F8CD
:1014E000AC30C4F8B030C4F8B430C4F8B8300E48EA
:1014F0000E4BC4F89050C4F89C50C4F8A850C4F8DF
:10150000983020F0F7FE30461FF09EFF014870BD76
:10151000FC25002004260020EC4A0208483A020874
:10152000C03A0208A04A020801130008804A0208D3
:1015300010B5144C236823B3134B144A1B6C118849
:101540008B4213D1124B198803F046FB226892F8A4
:101550006A30013382F86A30FFF704FB206808F034
:10156000B1FDBDE810400020FFF748B903F034FB9F
:10157000206803681B6A9847BDE810400020FFF709
:1015800067B910BD00370120006801400226002025
:101590000026002007B5064BADF806001B6805487D
:1015A00001220DF1060104F079F803B05DF804FBA7
:1015B000100000204428002008B5642004F049FDF4
:1015C000FBE7000030B595B0102200210AA821F0F9
:1015D00078F81422002103A821F073F800241D4B91
:1015E00001941A6C42F080521A641B6C03F0805311
:1015F0000193019B184B02941A6842F440421A600E
:101600001B6803F4404302930122029B4FF4803392
:10161000CDE9082302254FF48003CDE90E530821BC
:101620004FF4A873CDE9101308A80423139312955F
:1016300003F0F0FA0F23CDE903354FF4A0504FF437
:101640008053CDE90603052103A8059403F0BCFCF3
:1016500015B030BD003802400070004080B59AB02F
:1016600002F024FAFFF7AEFF142200210DA8002497
:1016700021F027F8C04B00941A6BC048C04D42F0CF
:1016800010021A631A6B02F010020092009A019481
:101690001A6B42F020021A631A6B02F020020192C8
:1016A000019A02941A6B42F080021A631A6B02F0DC
:1016B00080020292029A03941A6B42F004021A63A7
:1016C0001A6B02F004020392039A04941A6B42F01C
:1016D00001021A631A6B02F001020492049A059443
:1016E0001A6B42F002021A631A6B02F002020592B0
:1016F000059A06941A6B42F040021A631A6B02F0C4
:1017000040020692069A07941A6B42F008021A6386
:101710001B6B03F00803079322463C21079B02F052
:101720004FFC98482246042102F04AFC2246964883
:101730004FF4405102F044FC01264FF003083C23D3
:101740008E48CDF840800DA902274FF00409CDE95D
:101750000D360F9402F048FB8A480F940DA9CDE98D
:101760000D96109702F040FB0DA94FF440538648A8
:10177000CDE90D36CDE90F4702F036FB8348844BA7
:10178000036002F025FA834A834B2C62C5E90023EB
:1017900028464FF48043C5E90434C5E90244C5E94D
:1017A000064402F019FE1021284603F05DF8214698
:1017B000284603F078F87948794984624FF48273B7
:1017C000C0E900134FF400751823C0E906530A233B
:1017D000744DC362C0E90244C0E90444C0E908444E
:1017E00003F000FF704B0D974FF0100CC5E9003669
:1017F0004023C5E904C34FF4C073C5E906344FF470
:101800000063C5E908344FF40053AB620DA9072308
:101810002846CDE90E39CDE910384FF0080AC5E960
:101820000249CDE9127703F0C1FD4FF6FF7209A915
:101830002846CDE90AA6089409960C9403F0D6FD33
:10184000304602F05FF94FF6FF7209A92846CDE94C
:10185000097ACDE90B6403F0C9FD4FF6FF7209A9BF
:101860002846CDE9098ACDE90B9403F0BFFD4FF47A
:101870000C730893089B0C934FF6FF7209A9284636
:10188000CDE9099A0B9603F0B1FD40F26A51284662
:1018900003F0CAFD342221460DEB020020F011FFB7
:1018A000424D434BAC86C5E900340923C5E90536F2
:1018B0001D2340F20D1EC5E9073840F24313C5E968
:1018C00009E3284640F2471340F21718C5E90B8395
:1018D000C5E902442C6185F8364003F085F8FF2104
:1018E000F022CDE912144FF4806905214FF4A07362
:1018F000CDE90E24CDE91491CDE916420DA9224679
:101900002846CDE910372B4D18930D94ADF864405F
:101910008DF8664003F033F9274B2B601B6898471E
:101920002B68264DDB689847254BC5E90A47C5E972
:101930000C442846C5E90034C5E9027402F058F9A0
:101940003146284602F00CFAFEF79AFEFEF797FEA3
:1019500004F00CFB1B4A1C48214604F033FB1B4BD4
:101960001B4A186021461B4804F02CFB1A4B1860D8
:1019700004F00EFBFEE700BF0038024000100240FA
:101980001427002000080240000C0240CC26002052
:1019900000300240005C0040A08601004428002086
:1019A0000050014010280020400100A068270020BE
:1019B00000680140C426002014000020D426002026
:1019C00000B00240403B0208B9150008C8260020BC
:1019D0001C3B02088F060008C02600207047704795
:1019E0007FB5094B8DF817201B6802930DF1170284
:1019F0000123009201930A460146044802F094FD37
:101A000007B05DF804FB00BF0C0000201427002085
:101A10007FB500238DF81730084B1B6802930A46E8
:101A200001230DF11701009101930146044802F0D2
:101A30000BFE9DF8170007B05DF804FB0C000020BA
:101A4000142700201FB5084C24680092CDE901340A
:101A50000A4601230146054802F0F6FD003818BF8A
:101A6000012004B010BD00BF0C000020142700208E
:101A700002F048B808B506480022042102F0A0FA96
:101A8000BDE8084002480122042102F099BA00BFD3
:101A90000008024038B50B4D044601220A484FF4B5
:101AA000005102F08DFA00220421284602F088FA43
:101AB0002046FFF76FFD28460122BDE8384004218B
:101AC00002F07EBA00080240000C024038B50B4D0F
:101AD000044600220A484FF4005102F071FA002235
:101AE0000421284602F06CFA2046FFF753FD2846F1
:101AF0000122BDE83840042102F062BA0008024029
:101B0000000C0240F7B5144E144F05460C46304603
:101B10000022042102F054FA00224FF4005138460A
:101B200002F04EFA2846FFF735FD0D4B0D481B68B5
:101B3000224601A903F05BFF384601224FF4005111
:101B4000019C02F03DFA30460122042102F038FAED
:101B5000204603B0F0BD00BF00080240000C024068
:101B6000100000204428002001F0CCBF0268034B85
:101B70009A4201D101F0B4BF704700BF001000408D
:101B80007047000082B00E4B00220092596C41F465
:101B900080415964596C01F480410091009901928F
:101BA000196C41F0805119641B6C03F08053019350
:101BB000019B0F216FF0010002B001F0C9BF00BF0F
:101BC000003802400268094B9A4282B00BD10023D0
:101BD0000193074B1A6B42F480521A631B6B03F498
:101BE00080530193019B02B0704700BF0030024058
:101BF0000038024007B50F4B02689A4216D1002206
:101C0000A3F5F0430192196B41F4000119631B6BBA
:101C100003F40003019305215A20019B01F098FF72
:101C20005A2003B05DF804EB01F0C4BF03B05DF8C7
:101C300004FB00BF00B002402DE9F043044689B028
:101C40001422002103A820F03CFD2268244B9A4274
:101C500043D1244C244800250095236B43F0040312
:101C60002363236B03F004030093009B0195236B14
:101C700043F001032363236B03F001030193019BF2
:101C80004FF012094FF400734FF0010803270426A8
:101C900003A9CDE90339CDE90587079602F0A4F839
:101CA0004FF480731148079603A9CDE90339CDE9B4
:101CB000058702F099F80295236C43F4000323642E
:101CC000236C03F400030293029B236A43F4000392
:101CD0002362236A23F40003236209B0BDE8F08382
:101CE000005C004000380240000802400000024052
:101CF000F0B599B004461422002107A820F0E1FCB9
:101D000030220DEB0200002120F0DBFC22685E4B4C
:101D10009A4240F0B78008230C93C0231093042309
:101D200012930CA84FF40033159303F015FA08B181
:101D3000FFF726FF554B5648002400945A6C42F09A
:101D400080625A645A6C02F080620092009A019498
:101D50001A6B42F020021A631A6B02F02002019201
:101D6000019A02941A6B42F001021A631A6B02F094
:101D700001020292029A03941A6B42F002021A6361
:101D80001A6B02F002020392039A04941A6B42F057
:101D900040021A631A6B02F040020492049A0594FE
:101DA0001A6B42F004021A631A6B02F004020592E5
:101DB000059A06941A6B42F008021A631B6B03F033
:101DC0000803069302250E26069B0B964FF48063AC
:101DD00007A9CDE90735CDE9094502F005F841F637
:101DE00058032C480B9607A9CDE907350927CDE9FB
:101DF000094501F0F9FF032327480B9707A9CDE90F
:101E00000735CDE9094501F0EFFF4FF47063224833
:101E10000B9607A9CDE90735CDE9094501F0E4FFA7
:101E20004FF40C631D480B9607A9CDE90735CDE9A2
:101E3000094501F0D9FFC02319480B9607A9CDE940
:101E40000735CDE9094501F0CFFF082315480B966A
:101E500007A9CDE90735CDE9094501F0C5FF4FF4E4
:101E6000A0530E480B9707A9CDE90735CDE90945E1
:101E700001F0BAFF58202246052101F069FE5820E2
:101E800001F098FE19B0F0BD006801400038024032
:101E9000001402400000024000040240001802400A
:101EA00000080240000C024010B5044688B014221D
:101EB000002103A820F005FC2268144B9A4223D18C
:101EC00003F56843002101915A6C114842F48012D5
:101ED0005A645A6C02F480120192019A02911A6BB0
:101EE00042F020021A631B6B03F020030293029B53
:101EF0004FF4607202230321CDE903230523CDE9CA
:101F0000061303A901F070FF08B010BD0050014096
:101F1000001402402DE9F04186B0002303932B4BBF
:101F20001C68002C4FD14FF00108C3F80080284BEB
:101F300000949A6B274842EA08029A639B6B03EA73
:101F400008030093022703260C25009B01A94FF6E6
:101F50003F03CDE90137CDE9046501F045FF1E4897
:101F6000059501A9CDE90187CDE9034601F03CFFC4
:101F700048F233131948059501A9CDE90137CDE998
:101F8000034601F031FF4FF683731548059501A90B
:101F9000CDE90137CDE9034601F026FF4CF203738A
:101FA0001048059501A9CDE90137CDE9034601F0B7
:101FB0001BFF60230C48059501A9CDE90137CDE948
:101FC000034601F011FF06B0BDE8F0819C28002017
:101FD000003802400014024000080240001802408D
:101FE00000100240000C02400004024070B588B0AE
:101FF00000230293204B1A6C42F010021A641B6CEF
:1020000003F010030293054601A903A8029B03F005
:1020100085F8069B4BBB03F071F8184E184B3360E4
:1020200040F2E733F360174BB0FBF3F3013B73600F
:10203000304600233361B360B36103F0BDFE044654
:1020400080B9304603F07AFD044658B9362001F0D5
:10205000B1FD0F2D0DD822462946362001F078FD1E
:10206000094B1D60204608B070BD03F047F84000E2
:10207000D3E70124F6E700BF00380240A028002083
:102080000010004040420F007C0000207047FEE737
:10209000FEE7FEE7FEE77047014803F08DBD00BF95
:1020A000A0280020014802F00DBD00BF68270020D5
:1020B000014801F0CBBD00BFD426002001207047AD
:1020C00008B520F0A1FB162303604FF0FF3008BDD8
:1020D00008B520F099FB16230360FEE770B50D46A6
:1020E00014460E46731B9C4201DC204670BDAFF3C4
:1020F000008006F8010BF5E770B50D4614460E4654
:10210000731B9C4201DC204670BD16F8010BAFF337
:102110000080F5E74FF0FF3070474FF400534B60FD
:102120000020704701207047002070470A4A11685C
:1021300008B5034609B909491160106869460344A6
:102140008B4206D920F060FB0C2303604FF0FF3078
:1021500008BD1360FCE700BFE828002038430120D9
:10216000704710B5042104461FF060F9204610BDE9
:10217000012908B506D0022908D059B901F02CF977
:10218000006808BD01F028F94068FAE701F024F979
:102190008068F6E70020F4E700487047783B0208C3
:1021A0000720704713B5002451B1036801948DF8DE
:1021B000034001AA9C680DF10303A04702B010BDC3
:1021C0000846FBE7C0897047008A7047C08870479F
:1021D00080887047807A00F07F007047807AC0095D
:1021E00070470020704700009FED010A704700BF54
:1021F0000000000070477047704770477047704795
:102200007047704730B4C26844685510034604EB09
:102210006200D20748BF62599B6830BC48BFD358A0
:10222000184743682BB183682BB9C06800F00100E0
:102230007047184670470120704710B508210446C2
:102240001FF0F4F8204610BD10B5102104461FF011
:10225000EDF8204610BD9830884208B505D10DF044
:10226000A1FDBDE8084000F05BBD08BD074A026063
:102270000022C0E90122C0E90322C0E90522C0E929
:1022800007224FF480728284704700BFA04F02087B
:1022900070B5036804461B6B1546984723682946AA
:1022A00020465B6BBDE87040184770B504461D467C
:1022B000BDF91060FFF7ECFF2368294620469B6BB1
:1022C0009847236831462046DB6BBDE870401847CD
:1022D00010B526220446002120F0F3F92046FFF72E
:1022E000C5FF044B2360FF2384F826300023A3623C
:1022F000204610BD704D02081A4B73B51B88018F24
:102300008B4206462BD9184B1B682BB9174B184A22
:1023100018486C211FF0D0FF13F81120164B1B68D2
:1023200053F82250154B186801F046F82B680190BD
:102330009B6B284698472B6801999B6C044628465E
:1023400098472B6801995B6A14FB00F4284698476C
:10235000A4B223181BB2A6F8463002B070BD002309
:10236000F9E700BF5C37012058370120043C020820
:10237000463C0208813C0208603701206437012096
:1023800010B526220446002120F09BF92046FFF7D5
:102390006DFF0A4B23600A4BA3624FF6FF73A385C0
:1023A0004FF47F020023C4E90C324FF0FF32C4E93E
:1023B00010232387E363204610BD00BFE04C0208D2
:1023C000D03C02082DE9F04F2DED0A8B04468BB06E
:1023D000A14600250FF0FEFBEC4BE56349F8403BBE
:1023E0004846FFF775FF04F16C0304F1980818469E
:1023F0000BEE903A04F1E007FFF76AFF404604F560
:10240000947A0BF00FF93846FFF7BAFF504606F002
:102410001FFD04F50873184608EE903ADFF894B3F0
:10242000FFF724FF04F51373C4F820B2C4F8485230
:10243000184609EE103AFFF7A3FF04F5257304F5DB
:102440003776184609EE903AFFF79AFF304605F0C6
:1024500069FF04F5777318460CEE103AFEF7DCFFBF
:10246000CB4AC4F8DC2302F12403C4F8E43304F5B6
:102470007C73C4F8E853184608EE103AFFF7F6FEEE
:1024800004F21C43C4F8F0B3C4F8185418460AEE1A
:10249000103AFFF775FF04F2644304F2AC4B1846A0
:1024A0000AEE903AFFF76CFF584605F03BFF04F246
:1024B000AC5318460CEE903AFEF7AEFFB44AC4F89F
:1024C000AC2502F12403B34AC4F8B43504F58053B3
:1024D000C4F8B855C3E9F424AF4A04F5B860C3E9B9
:1024E000F6254FF461610BF059FF4FF4A0732A46B3
:1024F000009329464846F023FFF7D7FE4FF07F436D
:10250000A366231D494618460BEE103A06F0DAF88A
:102510004FF4A0732A461BEE900A00932946F0233D
:10252000FFF7C3FE9D4BC4F894301BEE901A1BEED0
:10253000100A06F0C7F840460722C521FFF7A8FE9B
:102540004FF00A0908AA012307A94046ADF8203038
:10255000ADF81C500AF069FE4046A4F8D090FFF791
:10256000CBFE4FF0FF33C4E9353304F59E531033EF
:10257000C4F8C0301BEE100A414606F0A3F80F2243
:10258000384614210DF10808FFF782FE844BC4F889
:10259000103139464046A4F814510AF079F998E808
:1025A000070004F58E7383E807007E4B089308A9A3
:1025B00009233846ADF824300AF004FC1BEE100A5B
:1025C000394606F07FF8294650463522FFF760FE6F
:1025D00008A94FF005020423ADF8202050460A4612
:1025E00007A9ADF81C3006F0D3FCF02250466C2150
:1025F00006F07AFB5046322106F0EFFA50463221BF
:1026000006F070FB684BC4F8283219EE100A172246
:102610004C21FFF73DFE654AC4F87C2219EE101AE2
:102620004046A4F880520AF033F998E8070004F510
:10263000227383E807005B4F0897072319EE100AFF
:1026400008A9ADF824300AF0BDFB19EE101A18EEF7
:10265000900A06F037F819EE900A3C225B21FFF74A
:1026600017FE524AC4F8C42219EE901A4046A4F844
:10267000C8520AF00DF998E8070004F5347383E8AE
:102680000700082319EE900A08A9ADF8243008972E
:102690000AF098FB19EE901A18EE900A06F012F85C
:1026A0006E2730466B224121FFF7F2FD3B462A465A
:1026B00029463046009705F0D9FD2B46294630467D
:1026C0000095642205F062FE37221146304605F07F
:1026D00062FD3046322105F088FD4946304605F05E
:1026E0008AFD4FF4B4722946304605F008FE3046A4
:1026F000B42105F087FD4FF0030308A93046ADF87B
:10270000203005F071FF2A4BC4F8E83340F29F7186
:10271000A4F8EC1330461CEE101A05F039FD3046D3
:102720003C2105F0D0FD18EE900A314605F0CAFFB5
:1027300018EE901A504606F0A2FC40F20B1318EE69
:10274000100A00932A46F0232946FFF7AEFD1AEE41
:10275000100A17223821FFF79BFD144AC4F84C24B5
:102760001AEE101A4046A4F850540AF091F898E86E
:10277000070004F58B6383E8070008A80623094EC9
:10278000ADF8243001461AEE100A15E0F83C0208B4
:10279000A04A0208E03C0208572200082B2B2BFF1E
:1027A000808080FFD03C0208F0000B01FFF700FFA3
:1027B000FFF000FFD447020808960AF003FB1AEE68
:1027C000101A18EE100A05F07DFF1AEE900A3C224E
:1027D0005B21FFF75DFD3E4AC4F894241AEE901A7F
:1027E0004046A4F898540AF053F898E8070004F516
:1027F000946383E8070008A84FF0050201461AEE2B
:10280000900AADF8242008960AF0DCFA1AEE901A25
:1028100018EE100A05F056FF58466B224121FFF7CB
:1028200037FD3B462A4629465846009705F01EFDCF
:102830002B46294658460095642205F0A7FD37220D
:102840001146584605F0A7FC5846322105F0CDFC4C
:102850004946584605F0CFFC4FF4B4722946584615
:1028600005F04DFD5846B42105F0CCFC4FF00302B5
:10287000ADF8202008AA1146584605F0B5FE154BC4
:10288000C4F8B83540F29F71A4F8BC1558461CEE48
:10289000901A05F07DFC58463C2105F014FD18EE19
:1028A000100A594605F00EFF18EE101A504606F0B1
:1028B000E6FB2946504606F0D3FB1BEE100A5146B4
:1028C00005F000FF20460BB0BDEC0A8BBDE8F08F91
:1028D000FFF700FFFFF000FF10B5054B0360044653
:1028E0000BF066FD04F5947006F082F9204610BDE9
:1028F000F83C020810B50446FFF7EEFF20464FF4FF
:102900009F511EF093FD204610BD7047704700F5A3
:1029100098730868496803C37047704770474160FF
:1029200070477047064BC0F84C310023C0F8503157
:1029300000F5A273C0F84801C0F84031704700BFED
:10294000392B00080123037270477047704710B499
:10295000C26841685410034601EB6200D20748BFC9
:102960000A599B685DF8044B48BFD3581847436821
:102970002BB183682BB9C06800F00100704718467E
:1029800070470120704710B50C2104461EF04EFD23
:10299000204610BD10B5102104461EF047FD20460C
:1029A00010BD10B54FF4AE7104461EF03FFD204639
:1029B00010BD10B50DF0F6F90368BDE81040DB6BF3
:1029C000184710B50446D0F8400158B10368DB68D9
:1029D000984738B1D4F8400103689B6898470023B2
:1029E000C4F8403110BD00002DE9F14FD0E9555A2F
:1029F0000746A86803681B6A9847B0F5047F05D2AC
:102A0000454B464AA32146481FF056FC68680368B8
:102A10001B6A98470F2803D8424B404AA421F2E78B
:102A2000E86803681B6A98470B2803D83E4B3B4A6B
:102A3000A521E8E70DF0B6F9DFF8F49004300DF0C9
:102A4000EFF9D9F8000010B10368DB689847D9F8AE
:102A5000000010B103681B689847DFF8D880D8F8E9
:102A6000000010B103685B699847D7F83C0110B1CA
:102A700003685B689847D8F8000010B103681B68CA
:102A80009847D7F83C0110B103689B689847E868FD
:102A9000036800215B6A98474FF0000B234B0360EB
:102AA0000446C0F804B080F808B0A8680368594626
:102AB0005B6A9847064600F03BFD68680368594624
:102AC0005B6A98473146054600F00CFDC9F80040A6
:102AD000C7F83C51C8F80060E5B12B1DCAF80030BA
:102AE0003368C5F808A03046DB68F56398472B6863
:102AF00028461B689847214630460FF017FA23688E
:102B000020461B69984723685B69204601B0BDE8F1
:102B1000F04F18472B46E1E7243D0208B23D02087A
:102B2000C03E0208073F0208AA3F0208D04102083F
:102B300048370120443701202DE9F14FD0E9555A9B
:102B40000746A86803681B6A9847B0F59F5F05D2DF
:102B5000454B464AA32146481FF0AEFB6868036810
:102B60001B6A98470F2803D8424B404AA421F2E73A
:102B7000E86803681B6A98470B2803D83E4B3B4A1A
:102B8000A521E8E70DF00EF9DFF8F49004300DF020
:102B900047F9D9F8000010B10368DB689847D9F805
:102BA000000010B103681B689847DFF8D880D8F898
:102BB000000010B103685B699847D7F83C0110B179
:102BC00003685B689847D8F8000010B103681B6879
:102BD0009847D7F83C0110B103689B689847E868AC
:102BE000036800215B6A98474FF0000B234B03609A
:102BF0000446C0F804B080F808B0A86803685946D5
:102C00005B6A9847064600F035FC686803685946D9
:102C10005B6A98473146054600F006FCC9F800405B
:102C2000C7F83C51C8F80060E5B12B1DCAF8003068
:102C30003368C5F808A03046DB68F56398472B6811
:102C400028461B689847214630460FF06FF92368E5
:102C500020461B69984723685B69204601B0BDE8A0
:102C6000F04F18472B46E1E7243D02084D4002088B
:102C7000C03E0208073F0208AA3F0208D0410208EE
:102C80004837012044370120044B1B6893F8582033
:102C90000AB1D86C00B99868704700BF00370120AE
:102CA000F8B5044617460E460DF088F9104B1C6027
:102CB000104B2360104B0025C4E951350F4BC4E97C
:102CC00053551868036801219B68C4E94F55C4E94E
:102CD00055769847284600F033FBFFF7D5FF16F0EE
:102CE000C8FAFFF7D1FF16F03FFB2046F8BD00BF42
:102CF000543701207C41020864410208003701205A
:102D0000064BC0F84C310023C0F8503100F5A273D7
:102D1000C0F84801C0F84031704700BF392B0008A7
:102D2000064BC0F84C310023C0F8503100F5A273B7
:102D3000C0F84801C0F84031704700BFE9290008D9
:102D4000406A7047806A704770478B88C0690A681C
:102D5000DB0A50F823001044704710B5C2B1137B52
:102D6000B3B1547BD27A240204F4E0641443026ABF
:102D700098B202EB840213888B4202D192F90200CE
:102D800010BD05D8013880B204320028F3D1F7E72E
:102D90000020F5E710B52C2104461EF047FB204625
:102DA00010BD000030B58BB00446BDF860500895EA
:102DB000BDF85C5007959DF8505006959DF84C5015
:102DC00005959DF8485004959DF8445003959DF84D
:102DD000405002959DF83C500195BDF83850009543
:102DE0000EF072FC064B2360159BE361169B236279
:102DF000199B63621A9BA36220460BB030BD00BFD3
:102E0000F441020870477047704730B4C2684468A4
:102E10005510034604EB6200D20748BF62599B6815
:102E200030BC48BFD358184743682BB183682BB9CF
:102E3000C06800F0010070471846704701207047D5
:102E400010B5102104461EF0F1FA204610BD10B551
:102E50004FF4047104461EF0E9FA204610BD38B55F
:102E600000F59473994204460D4603D10CF09AFF85
:102E7000FFF746FF04F5B874A54205D10CF092FFA8
:102E8000BDE83840FFF73CBF38BD00002DE9F04FEA
:102E90002DED028B04468BB0A24600250EF09AFE63
:102EA0008A4BE5634AF8403B5046FFF711FA04F1BC
:102EB0006C03184604F1980908EE903A04F1E00812
:102EC000FFF706FA484604F594770AF0ABFB404654
:102ED0000AF0A8FB04F5B87B38460AF0A3FB584675
:102EE0000AF0A0FB04F5DC7308EE103A4FF480738F
:102EF000A4F8DC31764BC4F8B831764BC4F8E03135
:102F00004FF6FF73A4F8E4314FF47F03C4F8EC31BB
:102F1000714BC4F8E851C4E980344FF0FF326F4B75
:102F2000A4F8F051C4E97E254FF4A072C4E98235BB
:102F3000009229462A465046C4E96F55C4E97155A6
:102F4000C4E97355C4E97555C4F8F451F023261D3E
:102F5000FFF7ABF94FF07F43A3665146304605F0CB
:102F6000B1FB4FF4A07218EE900A009229462A464F
:102F7000F023FFF79AF95A4BC4F8943018EE901AE0
:102F8000304605F09FFB48468A223021FFF780F942
:102F90004FF0020A08AA07A94846ADF81CA0ADF8F0
:102FA00020A00AF042F90323A4F8D0304846FFF7E6
:102FB000A3F94FF0FF32C4E935224946304605F007
:102FC00081FB4046D4223021FFF762F908AA07A905
:102FD0004046ADF81CA0ADF820A00AF026F9042365
:102FE000A4F818314046FFF787F94FF0FF32C4E9E3
:102FF00047224146304605F065FB384640223021E5
:10300000FFF746F908AA07A93846ADF81CA0ADF8A5
:1030100020A00AF00AF93846A4F860A1FFF76CF97D
:1030200004F500784FF0FF32C4E9592239463046A2
:10303000C4F8508105F046FB58460722C521FFF72A
:1030400027F9012708AA07A95846ADF82070ADF85E
:103050001C500AF0EAF8A4F8A8715846FFF74CF99A
:103060004FF0FF32C4E96B2259463046C4F89881CC
:1030700005F028FB18EE100A0F221421FFF708F9BB
:1030800002AF184BC4F8E83118EE101A3846A4F80D
:10309000EC5109F0FDFB97E8070004F5FA7383E8AB
:1030A00007000C4B089318EE100A08A9ADF824503D
:1030B00009F088FE304618EE101A05F003FB204692
:1030C0000BB0BDEC028BBDE8F08F00BF744202086C
:1030D000E04C0208D03C02085C4202085F2E000867
:1030E0002B2B2BFF808080FF7047000030B5164DE2
:1030F0002C68BFF35B8F14F001048FB020D12846F9
:103100001EF096F9E0B13F230993104B0893104B42
:10311000104911480A940122CDE906430423CDE960
:1031200003320A230093CDE90B44CDE90144059411
:10313000FFF738FE09481FF0DDF828461EF084F935
:1031400005480FB030BD00BFEC2800205C610208CC
:10315000A0610208EC5F0208F0280020E9300008B6
:103160007047000030B5174D2C68BFF35B8F14F02B
:1031700001048FB022D128461EF05AF9F0B13F2346
:103180000993114B0893114B07930123CDE9054394
:1031900004930423CDE9024314230D49009317221D
:1031A0001823CDE90B440B480A940194FFF7FAFD6C
:1031B00009481FF09FF828461EF046F905480FB051
:1031C00030BD00BF1C29002060610208A461020814
:1031D000FC5F0208202900206131000870470000D0
:1031E00030B5164D2C68BFF35B8F14F001048FB01F
:1031F00021D128461EF01CF9E8B13F230993104B5A
:103200000893104B104911480A94CDE90643012256
:103210000423CDE90332282300930222CDE90B4495
:10322000CDE901440594FFF7BDFD09481FF062F8A0
:1032300028461EF009F905480FB030BD4C29002082
:103240009C610208A8610208406102085029002020
:10325000DD31000800207047002070470EB403B530
:1032600003AB002153F8042B01930DF031FD02B0A4
:103270005DF804EB03B070470CB407B504AB53F82A
:10328000042B01930DF024FD03B05DF804EB02B0B4
:1032900070470000436C10B5044673B3038F2BB91D
:1032A000184B194AC52119481FF006F8C38E00EBC8
:1032B00043035B8C0BB30FF006FC238F012B03D869
:1032C000134B144ACB21EEE7E28E531C9BB2092B21
:1032D000194688BFA3F10A0104EB410140F63F10F3
:1032E000498C814209D10A2B04EB420228BF0023FA
:1032F00004EB4303508C588451842046BDE81040B1
:103300000FF0E4BAA0420208A9420208544302089E
:103310009E430208AC4302080FF09FBA10B586B076
:1033200002AC84E806001A460AAB05930193099B98
:1033300000932146089B0CF0D3F806B010BD0000A6
:1033400038B518BB124B13481C681349B4B1226836
:1033500022440260626822440A60A26814440F4B4F
:1033600000221A8000F038F8054600F033F80C4BC4
:103370001C600C4B1D600C4B188007E00B4B03606E
:103380000B4B0B600B4B1C68002CE8D138BD00BF09
:103390007C29002080290020842900208829002001
:1033A00058370120603701205C370120D8610208BE
:1033B000AC6102086C620208044B1B6853F82100E0
:1033C000034B1B6803EB4000704700BF84290020BB
:1033D000802900200B207047004870478C2900206E
:1033E00010B5FFF7BFFE044C2060FFF7F9FE6060E8
:1033F000FFF77CFEA06010BD8C29002010B50024D2
:1034000004600C6014601C6010BD70470438704785
:10341000704710B5102104461EF008F8204610BD74
:10342000A0F10400F5E7000010B500228260044A14
:10343000C16002F1080420320460426010BD00BF88
:10344000804402087047000010B5034B0360044637
:10345000FFF742FA204610BDB044020810B50446FA
:10346000FFF7F2FF20464FF49F511DF0DFFF20468B
:1034700010BD000010B50446FEF7A4FF014B236009
:10348000204610BDB0440208FEF7BABE704710B522
:103490004FF4AE7104461DF0C9FF204610BD10B5B3
:1034A0000446D0F8580100F052F82046BDE810401C
:1034B0000CF014BD10B50446FFF7F2FB014B23607E
:1034C000204610BDE4440208704704387047704736
:1034D00010B5102104461DF0A9FF204610BDA0F133
:1034E0000400F5E710B500228260044AC16002F1D1
:1034F000080420320460426010BD00BF304502085D
:103500007047000010B5034B03600446FFF77AFCD8
:10351000204610BD6045020810B50446FFF7F2FFD3
:1035200020464FF404711DF081FF204610BD0000BD
:1035300010B50446FFF7AAFC014B2360204610BDDE
:1035400060450208FFF75FBC0022026070477047C9
:10355000F02070474FF4A07070472920FEF7B6BAEC
:103560002820FEF7B3BA08B5FEF784FACA20FEF7A2
:10357000ADFAC320FEF78EFA0820FEF78BFA502032
:10358000FEF788FACF20FEF7A1FA0020FEF782FAB4
:10359000C120FEF77FFA3020FEF77CFAED20FEF71F
:1035A00095FA6420FEF776FA0320FEF773FA1220EC
:1035B000FEF770FA8120FEF76DFAE820FEF786FA32
:1035C0008520FEF767FA0020FEF764FA7820FEF700
:1035D00061FACB20FEF77AFA3920FEF75BFA2C204D
:1035E000FEF758FA0020FEF755FA3420FEF752FA9B
:1035F0000220FEF74FFAF720FEF768FA2020FEF7C8
:1036000049FAEA20FEF762FA0020FEF743FA0020AA
:10361000FEF740FAB120FEF759FA0020FEF73AFA19
:103620001B20FEF737FAB620FEF750FA0A20FEF705
:1036300031FAA220FEF72EFAC020FEF747FA10203A
:10364000FEF728FAC120FEF741FA1020FEF722FA11
:10365000C520FEF73BFA4520FEF71CFA1520FEF7C1
:1036600019FAC720FEF732FA9020FEF713FA362037
:10367000FEF72CFAC820FEF70DFAF220FEF726FA24
:103680000020FEF707FAB020FEF720FAC220FEF76E
:1036900001FAB620FEF71AFA0A20FEF7FBF9A72076
:1036A000FEF7F8F92720FEF7F5F90420FEF7F2F906
:1036B0002A20FEF70BFA0020FEF7ECF90020FEF7B7
:1036C000E9F90020FEF7E6F9EF20FEF7E3F92B20F9
:1036D000FEF7FCF90020FEF7DDF90020FEF7DAF92D
:1036E0000120FEF7D7F93F20FEF7D4F9F620FEF7C8
:1036F000EDF90120FEF7CEF90020FEF7CBF9062008
:10370000FEF7C8F92C20FEF7E1F9C820FEF72CFAE5
:103710002620FEF7DBF90120FEF7BCF9E020FEF7DA
:10372000D5F90F20FEF7B6F92920FEF7B3F92420CA
:10373000FEF7B0F90C20FEF7ADF90E20FEF7AAF95E
:103740000920FEF7A7F94E20FEF7A4F97820FEF72E
:10375000A1F93C20FEF79EF90920FEF79BF9132002
:10376000FEF798F90520FEF795F91720FEF792F974
:103770001120FEF78FF90020FEF78CF9E120FEF70B
:10378000A5F90020FEF786F91620FEF783F91B2025
:10379000FEF780F90420FEF77DF91120FEF77AF993
:1037A0000720FEF777F93120FEF774F93320FEF792
:1037B00071F94220FEF76EF90520FEF76BF90C2037
:1037C000FEF768F90A20FEF765F92820FEF762F98E
:1037D0002F20FEF75FF90F20FEF75CF91120FEF7AE
:1037E00075F9C820FEF7C0F92920FEF76FF9BDE88A
:1037F00008402C20FEF76AB908B5FEF73BF9032113
:10380000D320FEF77FF980B208BD10B5C4B2022202
:1038100003212046FEF7E4F80A20FEF729F92046A6
:1038200000220321FEF7DCF8BDE810400220FEF77D
:103830001FB938B50446E4B2FEF7D0F8002120469F
:10384000FEF7E6F8012105462046FEF7E1F840EADA
:10385000052080B238BD10B5C4B240212046FEF725
:10386000D7F8030607D54C212046FEF7D1F80038DB
:1038700018BF012010BD01224B212046FEF7B0F8F1
:10388000204600224B21FEF7ABF80020F2E773B58B
:103890000423C4B20E461546D7210DEB0302204681
:1038A000FEF7D0F8019B1BBA1A0DC3F30B2332802D
:1038B00020462B8001224B21FEF792F800224B215B
:1038C0002046FEF78DF802B070BD000010B50A4B1F
:1038D0001A78904204460DD0597888420AD00AB12D
:1038E00041B901229C54FEF779F82046BDE810400A
:1038F000FFF78BBF10BD00BF9829002010B5C4B2E0
:1039000009212046FEF784F840F00100C2B20921E7
:103910002046BDE81040FEF763B810B5C4B20921D7
:103920002046FEF775F8092100F0FE022046BDE8AA
:103930001040FEF755B838B5C4B20D4620460A21EE
:10394000FEF766F840EA0502D2B220460A21BDE839
:103950003840FEF745B807B50190FEF740F80198EA
:103960001F21FFF7E8FF019803B05DF804EBFFF7B4
:10397000C5BF38B5C4B20D4620460A21FEF748F847
:1039800020EA0502D2B220460A21BDE83840FEF7FF
:1039900027B810B50446FFF7C0FF20461F21BDE839
:1039A0001040FFF7E6BF10B5C0B20C460B21FEF782
:1039B0002FF8204010BD1F21FFF7F5BF0A46C0B207
:1039C0000B21FEF70DB81F21FFF7F8BF38B5C4B2C1
:1039D0000D4620461721FEF71BF820EA0502D2B259
:1039E00020461721BDE83840FDF7FABF70B5C4B2D4
:1039F000064604212046FEF70BF8042100F0FB02E6
:103A000005462046FDF7ECFF3046F021FFF7DEFFCC
:103A100005F0F80220460421FDF7E2FF49222021AB
:103A20002046FDF7DDFF0220FEF722F820460122A6
:103A30002121FDF7D5FF20469A224121FDF7D0FF35
:103A4000204601224A21FDF7CBFF204601224B21CF
:103A5000FDF7C6FF204600224B21FDF7C1FF20469F
:103A600001225621FDF7BCFF204601225821FDF717
:103A7000B7FF204601224021FDF7B2FF2046FF227A
:103A80000B21FDF7ADFFBDE870400220FDF7F0BF50
:103A9000054BD3F8882042F47002C3F888204FF019
:103AA00000629A60704700BF00ED00E008B50B4B64
:103AB0001A6842F400721A601A6842F480621A604E
:103AC0001A6842F480721A60032000F02FF8002078
:103AD000FEF78CFAFEF756F8002008BD003C0240C5
:103AE000034A044B11681B780B441360704700BFF6
:103AF0009C29002078000020014B1868704700BF07
:103B00009C29002038B50446FFF7F6FF631C1CBF54
:103B1000054B1B78054618BFE418FFF7EDFF431B64
:103B2000A342FAD338BD00BF780000200749CA6815
:103B300022F4E0620302120403F4E063120C134364
:103B400043F0BF6343F40033CB60704700ED00E007
:103B5000164B30B5DC68C4F30224C4F10703251DFD
:103B6000042B28BF0423062D4FF0FF358CBF033CE8
:103B7000002405FA03F321EA0303A54022EA050223
:103B8000A340002843EA0203ACBF00F16040084AAA
:103B90004FEA0313B8BF00F00F00DBB2AABF00F575
:103BA0006140135480F8003330BD00BF00ED00E0E9
:103BB00014ED00E0002807DB044A4109012300F06E
:103BC0001F00834042F82130704700BF00E100E051
:103BD00010B5044650B1437903F0FF0213B90271E6
:103BE000FDF7F0FF01236371002010BD0120FCE709
:103BF00010B5044630B390F8393003F0FF021BB91A
:103C000080F83820FDF7F6FF22686168022384F807
:103C10003930136823F440330B431360536BA168AE
:103C200023F007030B435363136CE16823F47F53C2
:103C300023F03F030B43136400200123E06384F867
:103C4000393010BD0120FCE770477047036870B53C
:103C50005E681D68F207044614D5E90512D51A6896
:103C600022F480721A60C26B42F00102C263012228
:103C70009A60042380F83930002380F83830436993
:103C800003B19847B20616D5AB0414D523681A6859
:103C900022F400521A6020229A60E36B43F0020380
:103CA000E363042384F83930002384F838306369EF
:103CB0000BB120469847300716D5290514D523683F
:103CC0001A6822F400621A6008229A60E36B43F0DB
:103CD0000403E363042384F83930002384F8383084
:103CE00063690BB12046984772070BD56B0509D560
:103CF00023681A6822F480621A6004229A602046BF
:103D0000FFF7A2FFB00714D5A90512D523681A68DA
:103D100022F400721A6002229A60E36BE3630123CB
:103D200084F83930002384F8383023690BB12046F9
:103D30009847F20613D5EB0411D523681A6822F4CC
:103D400080521A6010229A60E36BE363012384F8C7
:103D50003930002384F838302046FFF776FF70BDF5
:103D6000F0B590F83830012B4FF002032BD0012230
:103D700080F8393080F8382000EB0113D3E907428E
:103D80005D6A184F44EA0242093C012C9CBF05F0D1
:103D90007F431A434FEA0116036888BF42EA05626F
:103DA00099B9596A39400A435A62012C82699A6169
:103DB00003D8426A22F07F429A62012380F83930A8
:103DC000002380F838301846F0BDD96939400A43DD
:103DD000DA618219012C92691A619CBF25F07F4536
:103DE0001D62EAE7F0FFFC002DE9F74FDFF8C09114
:103DF0006D4A00230D6801249C4004EA050CAC4385
:103E000040F0B9804D6805F003044FEA43080326EB
:103E1000671E06FA08F6012F6FEA060634D887688F
:103E200007EA060ECF6807FA08F747EA0E07876029
:103E3000476827EA0C0EC5F300179F4047EA0E07B4
:103E40004760C76807EA060E8F6807FA08F747EA6F
:103E50000E07022CC76019D14FEAD30A00EB8A0A79
:103E600003F0070BDAF820704FEA8B0B4FF00F0EC0
:103E70000EFA0BFE27EA0E0E0F6907FA0BF747EA58
:103E80000E07CAF8207001E0032CDAD1076804FAA3
:103E900008F437403C4315F4403F04606BD04FF0CA
:103EA000000ACDF804A0D9F84460404C46F480469E
:103EB000C9F84460D9F8446006F480460196019E32
:103EC00023F0030606F1804606F59C3603F0030E48
:103ED000D6F808804FEA8E0E0F2707FA0EF7A04299
:103EE00028EA07074ED004F58064A0424CD004F5C0
:103EF0008064A0424AD004F58064A04248D004F512
:103F00008064A04246D004F58064A04244D004F509
:103F10008064A04242D004F58064A04240D004F501
:103F20008064A0423ED004F58064A0420CBF092406
:103F30000A2404FA0EF43C43B46094686FEA0C0659
:103F4000EF0254BF34404CEA04049460D468AF02DA
:103F500054BF34404CEA0404D4605468AF0354BFE7
:103F600034404CEA040454601468ED0354BF3440F8
:103F70004CEA040414600133102B7FF43BAF03B010
:103F8000BDE8F08F5446D4E70124D2E70224D0E7FD
:103F90000324CEE70424CCE70524CAE70624C8E7B7
:103FA0000724C6E70824C4E7003C014000000240A3
:103FB000003802400369194214BF012000207047F5
:103FC0000AB1816170470904FBE7436901EA030212
:103FD00021EA030141EA02418161704701684B69AE
:103FE00013F480634FF0000210D06FF480634B61D4
:103FF0002023026380F83D3080F83E20036C80F877
:104000003C2043F0040303640120704718467047C6
:104010002DE9F84606460F4691461D464FEA114ADD
:104020003368BAF1010F0CBF5C699C6927EA04048C
:10403000A4B2B4FA84F46409A14501D0002025E0BB
:104040006A1CEED0FFF758FD089BC01AA84201D8A1
:10405000002DE5D13368BAF1010F0CBF5B699B6994
:1040600027EA03039BB2B3FA83F35B099945D7D1DF
:1040700000232022336386F83D2086F83E30326CE0
:1040800086F83C3042F0200232640120BDE8F88618
:104090002DE9F04104460F461646984625686869A2
:1040A00027EA000080B2B8B16B695A0516D52B68B3
:1040B00043F400732B606FF480636B612022002354
:1040C000236384F83D2084F83E30226C42F00402E1
:1040D000226484F83C300120BDE8F081731CDED0FE
:1040E000FFF70AFDA0EB0800B04201D8002ED5D1A1
:1040F00023685A6927EA020292B2002ACED000232E
:104100002022236384F83D2084F83E30226C42F064
:104110002002DDE770B504460D46164623685B694C
:104120001B0601D5002070BD2046FFF757FFC8B918
:104130006A1CF3D0FFF7E0FC801BA84201D8002DD9
:10414000ECD123685B6913F08003E7D1202223635D
:1041500084F83D2084F83E30226C84F83C3042F0F4
:10416000200222640120DEE72DE9F04315460268B3
:1041700085B0DDE90C789946136843F480731360C9
:104180000E463B46CDF8008000224FF00111044658
:10419000FFF73EFF236838B11B68DB0502D54FF4FB
:1041A0000073236403200AE006F0FE061E6119492D
:1041B00043463A462046FFF76BFF18B1012005B091
:1041C000BDE8F083236803905A6903929B690393C7
:1041D000424639462046039BFFF79CFF40B1236CC3
:1041E000042B01BF2268136843F400731360E5E7F2
:1041F000B9F1010F236802D1EDB21D61DFE72A0A90
:104200001A61394642462046FFF784FF0028E6D16E
:104210002368F1E7020001002DE9FF479A46036891
:1042200015461A6842F480621A601A68DDE90C7853
:1042300042F480721A600E463B46CDF800800022A0
:104240004FF001110446FFF7E3FE236848B11B68F5
:10425000DB0502D54FF400732364032004B0BDE8EE
:10426000F0875FFA86F906F0FE061E612A4943468A
:104270003A462046FFF70CFF08B10120EEE723681D
:1042800003905A6903929B6903934246394620463C
:10429000039BFFF73FFF40B1236C042B01BF226853
:1042A000136843F400731360E7E7BAF1010F236862
:1042B0001AD1EDB242461D6139462046FFF72AFF6A
:1042C00002460028E8D121680B6843F480730B6034
:1042D0002046CDF800803B464FF00111FFF798FED5
:1042E000226860B11368B3E72A0A1A613946424668
:1042F0002046FFF70FFF0028CED12368D9E749F009
:1043000001031361044943463A462046FFF7C0FEC5
:10431000003818BF0120A1E70200010070B5044673
:104320000D46164623685B695B0701D5002070BD0A
:104330002046FFF753FEC8B96A1CF3D0FFF7DCFB39
:10434000801BA84201D8002DECD123685B6913F0D3
:104350000403E7D12022236384F83D2084F83E3013
:10436000226C84F83C3042F0200222640120DEE717
:1043700070B504460D46164621684B6913F040039C
:1043800001D0002010E04A69D2060ED56FF010026D
:104390004A612022236384F83D2084F83E30226C59
:1043A000226484F83C30012070BDFFF7A5FB801B20
:1043B000A84201D8002DDFD123685B6913F04003C8
:1043C000DAD12022236384F83D2084F83E30226C29
:1043D00042F02002E4E7000070B5044608B901206D
:1043E00070BD90F83D3003F0FF021BB980F83C200F
:1043F000FDF722FC242384F83D3023681A6822F05C
:1044000001021A601A6842F400421A601A6822F423
:1044100000421A6000F072FE3F4B65689D4294BFF7
:104420003E4B3F4B98428CBF00230123002BD6D13B
:104430002268394E51683B4BB0FBF3F321F03F014A
:104440001943B542516088BF4FF49676116A88BF10
:10445000734321F03F0184BF4FF47A76B3FBF6F348
:1044600001330B431362D169431E2B4821F44F41A2
:10447000854221F0FF0132D86D0040F6FC70B3FB9D
:10448000F5F30133034242D0C3F30B031943D16167
:10449000D4E907301168034321F0C0010B431360D6
:1044A0009168D4E9030321F40341034321F0FF01A0
:1044B0000B439360D4E90530D168034321F0FF0139
:1044C0000B43D360136843F00103136000202023E3
:1044D000206484F83D30206384F83E0080E7A068C3
:1044E00050B905EB4505B3FBF5F30133C3F30B03FB
:1044F0007BB143F40043C9E719206843B3FBF0F3F1
:104500000133C3F30B0323B143F44043BEE7042359
:10451000BCE70123BAE700BFA08601007F841E002C
:10452000FF083D0040420F002DE9F743044699463D
:104530000C9E0F469046FFF7DFFA94F83D30202B93
:10454000054603D0022003B0BDE8F08300903C494B
:10455000192301222046FFF75BFD0028F2D194F8D1
:104560003C30012BEED02068012384F83C300368F6
:10457000D9075EBF036843F001030360036823F4B7
:1045800000630360212384F83D30402384F83E30EB
:10459000002323640A9B6362BDF82C306385638D1E
:1045A0002385284BE362CDE900654B4642463946F8
:1045B0002046FFF7D9FD00282AD00120C3E7FFF7E6
:1045C000A9FD40B1236C042B01BF2268136843F49A
:1045D00000731360F1E7636A27681A4612F8011B3B
:1045E00039616262628D218D013A92B262857A6987
:1045F000481E80B2520720850AD548B15A783A61E0
:1046000002336362638D013B02399BB2218563856E
:10461000238D2A4631462046002BD0D1FFF77EFE5F
:104620000028CFD12268136843F40073136020235D
:1046300084F83D3084F83C0084F83E0083E700BFF6
:10464000020010000000FFFF2DE9F043044687B090
:104650009946109F0D469046FFF74EFA94F83D306C
:10466000202B064604D00225284607B0BDE8F0837B
:1046700000907A49192301222046FFF7C9FC00283F
:10468000F1D194F83C30012BEDD02068012384F85F
:104690003C300368DB075EBF036843F0010303603F
:1046A000036823F400630360222384F83D30402331
:1046B00084F83E30002323640E9B6362BDF83C30D7
:1046C0006385638D2385664BE3622946CDE90076D9
:1046D0004B4642462046FFF79FFD054608B101259F
:1046E000C2E7228D2368B2B902905A6902929A6990
:1046F0000292029A1A6842F400721A60DFF864812A
:10470000238D002B2CD1202284F83D2084F83C30CE
:1047100084F83E30A8E7012A0AD11A6822F48062A0
:104720001A6003905A6903929A690392039AE1E727
:10473000022A0ED11A6822F480621A601A6842F4C2
:1047400000621A6004905A6904929B690493049B66
:10475000D4E705905A6905929B690593059BCDE7BF
:10476000032B56D8012B15D1324639462046FFF788
:10477000FFFD0028B3D123681A69636A1A70636A5F
:1047800001336362238D013B2385638D013B9BB223
:104790006385B5E7022B00963B464FF00002414689
:1047A000204619D1FFF734FC002898D123681A68F5
:1047B00042F400721A601A69636A1A70626A531CC2
:1047C0006362238D013B2385638D013B9BB263852F
:1047D00023681B695370D2E7FFF71AFC02460028D2
:1047E0007FF47DAF2368196821F48061196019692D
:1047F000636A1970636A009601336362238D013B1B
:104800002385638D013B9BB2638541463B46204631
:10481000C8E7324639462046FFF7AAFD00287FF454
:104820005EAF23681A69636A1A70628D616A013A21
:1048300092B24B1C628522686362238D5069013BF2
:104840009BB2400723857FF55BAF032B02BF136844
:1048500023F48063136013694B7090E7020010002B
:104860000000FFFF0400010010B590F83D30202B40
:10487000DCB216D1242380F83D3003681A6822F098
:1048800001021A605A6A22F010025A625A6A1143EF
:1048900059621A6842F001021A6080F83D40002017
:1048A00010BD0220FCE730B590F83D30202BDCB283
:1048B00016D10268242380F83D30136823F00103E9
:1048C0001360556A4FF6F0732B40194389B2516259
:1048D000136843F00103136080F83D40002030BDB1
:1048E0000220FCE70068D1F800C0D20184328318AE
:1048F0002DE9F043C6685D684C68D1F8189005F45E
:1049000070455D60C5680CF10107C5F30B45C6F342
:104910000B463D44264445EA06455D60C668CD68C1
:10492000C6F30A062E449D6805F470459D60C7686D
:104930008D68C7F30A0701353D4445EA06459D6089
:104940001D690E6925F007051D614FF0000E1E61FF
:104950009D6991F8327091F83180C3F818E091F8B0
:10496000305045EA096545EA082545EA07459D6155
:104970005D6925F0FF055D614D695D61DD6925F4C7
:10498000E06525F00705DD61D1E907573D43DD61AD
:104990009D6A4D6AC3F828E09D62FEB1013E062E75
:1049A0001ED8104DAD5DDE6A06F0E026DE62A4EB97
:1049B0000C048E6AC96A6C436E43033444EA0644AD
:1049C000DC621C6B24F4FF6424F007041C6319638D
:1049D000835843F001038350BDE8F0830425E2E7E8
:1049E0000125E0E7A445020838B50446002863D055
:1049F00090F8A13003F0FF021BB980F8A020FDF76A
:104A000077F9022384F8A13023689A6922F0704272
:104A10009A61D4E901200243E06899690243206960
:104A200002430A439A619A68244960690A409A607D
:104A30009A6842EA0042A06902439A60DA68E06933
:104A40000A40DA60DA6842EA0042206A0243DA6029
:104A50001A69606A0A401A611A6942EA0042A06A49
:104A600002431A615A690A405A615A69E16A42EA84
:104A70000142216B0A435A61DA6A94F8350094F8CE
:104A8000361002F07F42DA62DD6A94F834202A435D
:104A900042EA002242EA0142DA625A6B42F006021E
:104AA0005A639A6942F001029A6100200123C4F816
:104AB000A40084F8A13038BD0120FCE700F800F024
:104AC00070477047036870B59E6B5D6B7207044654
:104AD00014D5690712D55A6B22F004025A630422D6
:104AE000DA63D0F8A43043F00103C0F8A430002307
:104AF00080F8A12080F8A030FFF7E2FFB20716D5BA
:104B0000AB0714D523685A6B22F002025A630222C3
:104B1000DA63D4F8A4301343C4F8A430042384F82F
:104B2000A130002384F8A0302046FFF7C9FFF0072A
:104B300010D5E9070ED523685A6B22F001025A639B
:104B40000122DA63002384F8A12084F8A0302046F3
:104B5000FCF7EEFC320711D52B070FD523685A6BF3
:104B600022F008025A630822DA63012384F8A13094
:104B7000002384F8A0302046FFF7A3FF70BD2DE985
:104B8000F04190F8A030012B06460F4694464FF0B6
:104B900002001FD04FF0010886F8A08086F8A1001F
:104BA00034240D4604FB02640FCD38340FC40FCDFE
:104BB0000FC40FCD0FC42B682360304662463946C0
:104BC000FFF790FE33680020C3F8248086F8A180A8
:104BD00086F8A000BDE8F08190F8A030012B4FF0DE
:104BE000020312D080F8A13003685A6B22F0010250
:104BF0005A63074A11645A6B42F001025A63012357
:104C000080F8A130002380F8A0301846704700BF1C
:104C1000006801402DE9F341044640B30368DD0715
:104C200010D4236898075BD423681A0700F19D808D
:104C300023685B0700F1BD80A069002840F0248153
:104C400000202CE08D4B9A6802F00C02042A07D059
:104C50009A6802F00C02082A0BD15B68590208D549
:104C6000864B1B689A03DCD56368002BD9D10120E1
:104C700015E06368814DB3F5803F13D12B6843F491
:104C800080332B60FEF738FF7C4E054633689B036C
:104C9000C7D4FEF731FF401B6428F7D9032002B0C8
:104CA000BDE8F081B3F5A02F04D12B6843F4802335
:104CB0002B60E3E72A6822F480322A602A6822F413
:104CC00080222A60002BDDD1FEF716FF06462B68F6
:104CD0009F03A6D5FEF710FF801B6428F7D9DDE7F8
:104CE000664B9A6812F00C0F07D09A6802F00C021B
:104CF000082A11D15B685E020ED4604A13689D07D2
:104D000002D5E368012BB2D11368216923F0F803BF
:104D100043EAC103136087E7E268594BB2B101224D
:104D20001A60FEF7E9FE554D06462B68980707D531
:104D30002B68226923F0F80343EAC2032B6073E770
:104D4000FEF7DAFE801B0228EFD9A7E71A60FEF70C
:104D5000D3FE4A4E0546336899077FF565AFFEF7E7
:104D6000CBFE401B0228F6D998E76269444B82B11A
:104D70000122C3F8802EFEF7BFFE404E0546736F3A
:104D80009F073FF555AFFEF7B7FE401B0228F6D947
:104D900084E7C3F8802EFEF7AFFE384E0546736FEA
:104DA00098077FF545AFFEF7A7FE401B0228F6D90E
:104DB00074E7324B1A6C12F0805228D101921A6CAF
:104DC00042F080521A641B6C03F080530193019BE4
:104DD00001272C4D2B68D9051BD5A368274D012B26
:104DE00027D12B6F43F001032B67FEF785FE234E7F
:104DF000054641F28838336F9B0739D5002F3FF4C1
:104E00001BAF1E4A136C23F08053136414E7002772
:104E1000DFE72B6843F480732B60FEF76DFE0646D8
:104E20002B68DA05D9D4FEF767FE801B0228F7D974
:104E300034E7052B04D12B6F43F004032B67D0E735
:104E40002A6F22F001022A672A6F22F004022A67E1
:104E5000002BCAD1FEF750FE41F2883806462B6F70
:104E60009807CBD5FEF748FE801B4045F7D915E7DC
:104E7000FEF742FE401B4045BDD90FE70038024017
:104E80000000474200700040364DAB6803F00C0351
:104E9000082B3DD0344B002202281A662BD1FEF796
:104EA0002BFE06462B6899011FD4D4E90732134321
:104EB000626A43EA8213E26A43EA0263A26A520820
:104EC000013A43EA02436B60274B264D01221A66E2
:104ED000FEF712FE04462B689A013FF5B1AEFEF7CD
:104EE0000BFE001B0228F6D9D8E6FEF705FE801B54
:104EF0000228D7D9D2E6FEF7FFFD04462B689B01B6
:104F00007FF59EAEFEF7F8FD001B0228F6D9C5E638
:104F100001283FF4C4AE6B68E26903F4800191425A
:104F20007FF4A5AE216A03F03F028A427FF49FAE70
:104F3000616A47F6C0721A40B2EB811F7FF497AEE8
:104F4000A26A520803F44031013AB1EB024F7FF4F8
:104F50008EAEE26A03F07063B3EB026F3FF470AEA3
:104F600085E600BF0038024000004742134908B5FB
:104F70008B6803F00C03042B1CD0082B1CD14A684F
:104F80004B68496813F4800314BF0D480D48C1F302
:104F9000881118BF002302F03F02A1FB0001FBF7BC
:104FA000C7F9064B5B68C3F3014301335B00B0FBF9
:104FB000F3F008BD0248FCE70248FAE70038024077
:104FC00000127A000024F4002DE9F0410D46044659
:104FD00010B90120BDE8F081434B1A6802F00F02BE
:104FE0008A4228D321688F072DD4C80740D43E4B6E
:104FF0001A6802F00F02AA4265D8226851076BD4E2
:10500000130707D5394A2169936823F4604343EABB
:10501000C1039360FFF7AAFF344B354A9B68C3F383
:105020000313D35CD840334B1860334B1868FCF73C
:10503000DDFF0020CEE7CAB21A701B6803F00F0331
:105040008B42C6D1CEE7294B11F0040F1EBF9A68E0
:1050500042F4E0529A600E0742BF9A6842F46042FE
:105060009A609A68A06822F0F00202439A60BCE756
:1050700062681E4B012A1CD11B6813F4003FA8D0A4
:105080001A4EB36823F003031343B360FEF734FDF5
:1050900041F288380746B368626803F00C03B3EB4B
:1050A000820FA4D0FEF728FDC01B4045F3D9032092
:1050B00090E7911E01291B6802D813F0007FDEE7FC
:1050C00013F0020FDBE7EAB21A701B6803F00F035C
:1050D000AB427FF47EAF90E70449E0688B6823F42D
:1050E000E05303438B608BE7003C024000380240F2
:1050F0008C450208740000207C000020044B054A07
:105100009B68C3F38223D35C034A1068D84070477E
:10511000003802409C450208740000200F23036001
:105120000B4B9A6802F0030242609A6802F0F002A8
:1051300082609A6802F4E052C2609B68DB0803F464
:10514000E0530361034B1B6803F00F030B607047D0
:1051500000380240003C0240036813F0430FF7B5EB
:10516000044640F08D80236813F00C0F45D08B4B24
:105170008B4D00221A67FEF7BFFC06462B689F0086
:1051800000F1D08021684E0715D5D4E90403D5F885
:1051900088201B0602F0E04243EA80131343C5F85F
:1051A0008830D5F88C30226A23F4F853013A43EA68
:1051B0000223C5F88C300D0714D5794AA369D2F8BB
:1051C000881020691B0701F0706143EA80130B43CC
:1051D000C2F88830D2F88C30616A23F440330B4334
:1051E000C2F88C306D4B6E4E01221A67FEF784FCBC
:1051F00005463368980040F19C8023689B0634D5AF
:1052000000230193664B674D1A6C42F080521A647A
:105210001B6C03F080530193019B2B6843F4807354
:105220002B60FEF769FC06462B68D90540F18880A3
:105230005B4DA26A2B6F13F4407340F08880A36A21
:1052400003F44072B2F5407F554A40F0A380916864
:1052500023F0704021F4F81120F440700143916074
:10526000116FC3F30B030B431367206810F010009A
:105270001FBF4D4B94F82C20C3F8E02100204FE0D5
:10528000464B474E00229A66FEF736FC05463368C9
:105290001F013FD42168CD0741BFD4E901231B077B
:1052A00043EA8213C6F88430880715D53C4AE36880
:1052B000D2F8840065681B0600F0E04043EA8513DD
:1052C0000343C2F88430D2F88C00E36920F01F0059
:1052D000013B0343C2F88C3049060AD5E368626893
:1052E0001B0643EA8213A26843EA02732C4AC2F8FF
:1052F00084302A4B2A4E01229A66FEF7FDFB0546B2
:1053000033681A013FF52FAFFEF7F6FB401B02286A
:10531000F6D904E0FEF7F0FB401B0228B7D90320C2
:1053200003B0F0BDFEF7E8FB801B02287FF626AF36
:10533000F5E7FEF7E1FB401B02287FF65AAFEEE7E8
:10534000FEF7DAFB801B02287FF66EAFE7E702F478
:10535000407293423FF473AF2B6F104A0121C2F8A1
:10536000401E23F440730021C2F8401E2B672B6FB0
:10537000DA077FF564AFFEF7BFFB41F288370646D8
:105380002B6F9B073FF55BAFFEF7B6FB801BB84268
:10539000F6D9C4E7916821F4F81160E700004742AC
:1053A00000380240007000400010474238B50D46FA
:1053B0000446C8B190F82C3003F0FF021BB980F806
:1053C0002D20FCF7A7FD022384F82C30211D206836
:1053D00000F020FD62682068294600F053FD01239B
:1053E00084F82C30002038BD0120FCE770B590F81F
:1053F0002C30022B05460E46D8B212D000F0FB042A
:10540000012C0FD1022385F82C30286800F070FDA4
:105410003368022B06BF052385F82C3085F82C4015
:10542000002070BD0120FCE738B590F82C30022B2D
:105430000446D8B20DD094F82C30012BDDB209D13E
:105440000223206884F82C3000F078FD84F82C507A
:10545000002038BD0120FCE72DE9F3471F468946AF
:1054600090460446FEF748FB0A9D3D442D1AFEF780
:1054700043FB264B1E68C6F3CB366E43824601962D
:105480002268936839EA03030CBF012300234345D4
:1054900001D100202EE07B1CF3D0FEF72DFBA0EB0A
:1054A0000A00A84229D323685A6822F0E0025A6011
:1054B0006268B2F5827F0AD1A268B2F5004F02D0CD
:1054C000B2F5806F03D11A6822F040021A60A26A16
:1054D000B2F5005F07D11A6822F400521A601A6808
:1054E00042F400521A60012384F85130002384F8FA
:1054F0005030032002B0BDE8F087019B002B019BD8
:1055000003F1FF3308BF00250193B9E774000020C1
:1055100070B586B00B460092039116460221012217
:105520000446FFF799FF039B054628B1636D43F0DE
:1055300020036365032514E0114A1068114AB0FB8B
:10554000F2F04FF47A72504362680590B2F5827FB0
:105550000AD100962A4680212046FFF77DFF0028C9
:10556000E4D1284606B070BD059B002BF9D0059B01
:10557000013B059323689B681B06F5D4F1E700BF48
:105580007400002000366E0137B50B464168B1F556
:10559000827F044622D18168B1F5004F02D0B1F577
:1055A000806F07D125682868B1F5806F20F0400032
:1055B000286009D00092802100222046FFF74CFF8E
:1055C00030B9002003B030BD009201210022F4E781
:1055D000636D43F0200363650320F3E7009201212C
:1055E0000022EBE710B50446002855D0436A002B93
:1055F0004ED14268B2F5827F00D0C3610023A3621E
:1056000094F8513003F0FF0223B984F8502020466B
:10561000FCF74AFC2168A068A269022384F8513093
:105620000B6823F040030B60636800F4044003F44C
:1056300082730343E06800F400600343206900F0D4
:1056400002000343606900F00100034302F40070AC
:105650000343E06900F038000343206A00F0800053
:105660000343A06A00F4005003430B60636A120C0A
:1056700003F0100302F004021A434A60CB6923F4DA
:105680000063CB6100200123606584F8513010BDB8
:105690000023C0E90433B1E70120F8E72DE9F3471F
:1056A0001F4690F85030012B04460D46904600F0FE
:1056B000A680012380F85030FEF71EFA94F851308E
:1056C000012B82465FFA83F940F09680002D67D067
:1056D000B8F1000F64D0032384F8513000236365D0
:1056E000C4E91033A4F83680A363A387E387A368D3
:1056F00026682563B3F5004FA4F8348007D13368DA
:1057000023F040033360336843F4804333603368ED
:1057100062685B065EBF336843F040033360E36852
:10572000B3F5006F43D112B1B8F1010F07D135F8CD
:10573000023BF3602563E38E013B9BB2E386E38E7D
:105740009BB2B3B9524639462046FFF7E1FE002826
:105750004FD1A36833B901932368DA6801929B683B
:105760000193019B636DDBB9012284F851209946B6
:1057700016E022689368980705D5236B33F8021B5F
:10578000D1602363D7E7FEF7B7F9A0EB0A00B84270
:10579000D5D3791CD3D0012384F851304FF00309BD
:1057A000002384F85030484602B0BDE8F08712B1BB
:1057B000B8F1010F08D12B783373236B01332363C6
:1057C000E38E013B9BB2E386E38E9BB2002BB9D004
:1057D00023689A68920703D5226B12781A73ECE754
:1057E000FEF78AF9A0EB0A00B842EDD37B1CEBD0A0
:1057F000D1E720236365ACE74FF00209D0E74FF013
:105800000209D0E72DE9F7431E4690F85030DDF845
:105810002880012B04460D46914600F0E6800123C6
:1058200080F85030FEF768F994F851306268012B27
:105830000746D9B20AD0B2F5827F40F0D480A3687F
:10584000002B40F0D080042940F0CD800DB901201C
:105850006FE0B9F1000FFAD0002EF8D094F8513073
:10586000C4F83890042B1CBF052384F85130002362
:105870006365C4E910332368E687E6861968A6875E
:10588000490658BF1968256358BF41F04001A686F4
:1058900058BF1960E168B1F5006F50D10AB1012E0F
:1058A00007D135F8022BDA60E38E2563013B9BB20A
:1058B000E3860125E38E9BB263B9E38F9BB24BB9BC
:1058C0003A4641462046FFF723FE00287AD020239F
:1058D0006365BCE721688B689A070DD5E38E9BB2A0
:1058E00053B14DB1236B33F8022BCA602363E38EAF
:1058F000013B9BB2E38600258A6812F001020CD0BE
:10590000E38F9BB24BB1A36BC96823F8021BA3635F
:10591000E38F013B9BB2E3871546FEF7EDF8C01B12
:105920004045C7D3B8F1FF3FC4D0012384F85130BC
:105930000320002384F8503003B0BDE8F0830AB19F
:10594000012E08D12A781A73236B01332363E38E67
:10595000013B9BB2E3860125E38E9BB21BB9E38F2B
:105960009BB2002BACD0226893689B070ED5E38EC8
:105970009BB25BB155B1236B1B781373236B01335F
:105980002363E38E013B9BB2E38600252268916886
:1059900011F001010DD0E38F9BB253B1A36BD2681C
:1059A0001A70A36B0133A363E38F013B9BB2E387C0
:1059B0000D46FEF7A1F8C01B4045CDD3B8F1FF3F1F
:1059C000CAD0B2E7A36833B923680190DA680192BC
:1059D0009B680193019B636D002B7FF438AF01231B
:1059E00084F85130A5E70220A3E70220A4E72DE9BF
:1059F000F3471E4690F85130012B04468A469046E4
:105A0000DDB240F095804368B3F5827F0ED18368A4
:105A100063B9042380F85130134600960A46FFF715
:105A2000F1FE0546284602B0BDE8F08794F85030F4
:105A3000012B7FD0012384F85030FEF75DF88146BA
:105A4000BAF1000F64D0B8F1000F61D0A268C4F8B9
:105A500038A000270423B2F5004F84F85130C4E980
:105A6000107767652368A4F83E80A4F83C8027631C
:105A7000A786E78607D11A6822F040021A601A68E2
:105A800022F480421A601A6857065EBF1A6842F014
:105A900040021A60E368F3B1E38F9BB2FBB1236865
:105AA0009A68D20738D5DA68A36B23F8022BA36370
:105AB000E38F013B9BB2E387EEE723689A68D00748
:105AC0001AD5A26B1B7B1370A36B0133A363E38F07
:105AD000013B9BB2E387E38F9BB2002BEDD14A469B
