:020000040800F2
:1000000000000320650F0008653B0008673B0008FF
:10001000693B00086B3B00086D3B000800000000D6
:10002000000000000000000000000000A193010893
:100030006F3B00080000000031940108C58D0108E5
:10004000B50F0008B50F0008B50F0008B50F000880
:10005000B50F0008B50F0008B50F0008B50F000870
:10006000B50F0008B50F0008B50F0008B50F000860
:10007000B50F0008B50F0008B50F0008B50F000850
:10008000B50F0008B50F0008713B0008B50F000858
:10009000B50F0008B50F0008B50F0008B50F000830
:1000A000B50F0008B50F0008B50F0008B50F000820
:1000B000B50F0008B50F0008B50F0008B50F000810
:1000C000B50F0008B50F0008B50F0008B50F000800
:1000D000B50F00087D3B0008B50F0008B50F0008FC
:1000E000B50F0008B50F0008B50F0008B50F0008E0
:1000F000B50F0008B50F0008B50F0008B50F0008D0
:10010000B50F0008B50F0008B50F0008B50F0008BF
:10011000B50F0008B50F0008893B0008B50F0008AF
:10012000B50F0008B50F0008B50F0008B50F00089F
:10013000B50F0008B50F0008B50F0008B50F00088F
:10014000B50F0008B50F0008B50F0008B50F00087F
:10015000B50F0008B50F0008B50F0008B50F00086F
:10016000B50F0008B50F0008B50F0008B50F00085F
:10017000B50F0008B50F0008B50F0008000000001B
:10018000B50F0008B50F0008B50F0008B50F00083F
:10019000B50F0008B50F0008B50F0008B50F00082F
:0C01A000953B0008B50F0008A13B0008CB
:1001B00010B5054C237833B9044B13B10448AFF3A1
:1001C00000800123237010BDF40200200000000015
:1001D00000BC030808B5034B1BB103490348AFF348
:1001E000008008BD00000000F802002000BC0308E9
:1001F00001F0FF01102A2BDB10F0070F08D010F8D8
:10020000013B013A8B422DD010F0070F42B3F6D1DB
:10021000F0B441EA012141EA014122F007047FF0F4
:1002200000070023F0E80256083C85EA010586EA4B
:10023000010685FA47F5A3FA87F586FA47F6A5FA87
:1002400087F68EB9EED1F0BC01F0FF0102F0070293
:1002500032B110F8013B013A83EA010313B1F8D13E
:100260000020704701387047002D06BF354603381F
:10027000073815F0010F07D1013015F4807F02BF58
:10028000013015F4C03F0130F0BC0138704700BFA9
:10029000034613F8012B002AFBD1181A01387047C6
:1002A00081F0004102E000BF83F0004330B54FEA27
:1002B00041044FEA430594EA050F08BF90EA020F94
:1002C0001FBF54EA000C55EA020C7FEA645C7FEA27
:1002D000655C00F0E2804FEA5454D4EB5555B8BF4A
:1002E0006D420CDD2C4480EA020281EA030382EABB
:1002F000000083EA010180EA020281EA0303362D4D
:1003000088BF30BD11F0004F4FEA01314FF4801C1F
:100310004CEA113102D0404261EB410113F0004F31
:100320004FEA03334CEA133302D0524263EB4303E8
:1003300094EA050F00F0A780A4F10104D5F1200E86
:100340000DDB02FA0EFC22FA05F2801841F10001E1
:1003500003FA0EF2801843FA05F359410EE0A5F1B5
:1003600020050EF1200E012A03FA0EFC28BF4CF0E6
:10037000020C43FA05F3C01851EBE37101F000459C
:1003800007D54FF0000EDCF1000C7EEB00006EEBA9
:100390000101B1F5801F1BD3B1F5001F0CD3490833
:1003A0005FEA30004FEA3C0C04F101044FEA44528A
:1003B00012F5800F80F09A80BCF1004F08BF5FEA11
:1003C000500C50F1000041EB045141EA050130BDF1
:1003D0005FEA4C0C404141EB0101013C28BFB1F503
:1003E000801FE9D291F0000F04BF01460020B1FA4E
:1003F00081F308BF2033A3F10B03B3F120020CDA21
:100400000C3208DD02F1140CC2F10C0201FA0CF0FE
:1004100021FA02F10CE002F11402D8BFC2F1200C63
:1004200001FA02F120FA0CFCDCBF41EA0C01904019
:10043000E41AA2BF01EB0451294330BD6FEA040462
:100440001F3C1CDA0C340EDC04F11404C4F120024D
:1004500020FA04F001FA02F340EA030021FA04F35F
:1004600045EA030130BDC4F10C04C4F1200220FAB6
:1004700002F001FA04F340EA0300294630BD21FAF4
:1004800004F0294630BD94F0000F83F4801306BFBA
:1004900081F480110134013D4EE77FEA645C18BFAE
:1004A0007FEA655C29D094EA050F08BF90EA020F45
:1004B00005D054EA000C04BF1946104630BD91EA3D
:1004C000030F1EBF0021002030BD5FEA545C05D140
:1004D0004000494128BF41F0004130BD14F580047F
:1004E0003CBF01F5801130BD01F0004545F0FE41F3
:1004F00041F470014FF0000030BD7FEA645C1ABF28
:10050000194610467FEA655C1CBF0B46024650EA5E
:10051000013406BF52EA033591EA030F41F400218A
:1005200030BD00BF90F0000F04BF0021704730B510
:100530004FF4806404F132044FF000054FF00001E5
:1005400050E700BF90F0000F04BF0021704730B5A6
:100550004FF4806404F1320410F0004548BF40427B
:100560004FF000013EE700BF42004FEAE2014FEAD0
:1005700031014FEA02701FBF12F07F4393F07F4FAB
:1005800081F06051704732F07F4208BF704793F0AE
:100590007F4F04BF41F40021704730B54FF46074C1
:1005A00001F0004521F000411CE700BF50EA0102C4
:1005B00008BF704730B54FF000050AE050EA01026D
:1005C00008BF704730B511F0004502D5404261EBDD
:1005D00041014FF4806404F132045FEA915C3FF41E
:1005E000D8AE4FF003025FEADC0C18BF03325FEABB
:1005F000DC0C18BF033202EBDC02C2F1200300FA6C
:1006000003FC20FA02F001FA03FE40EA0E0021FA90
:1006100002F11444BDE600BF70B54FF0FF0C4CF47E
:10062000E06C1CEA11541DBF1CEA135594EA0C0F30
:1006300095EA0C0F00F0DEF82C4481EA030621EA6B
:100640004C5123EA4C5350EA013518BF52EA0335A6
:1006500041F4801143F4801338D0A0FB02CE4FF058
:100660000005E1FB02E506F00042E0FB03E54FF088
:100670000006E1FB03569CF0000F18BF4EF0010E80
:10068000A4F1FF04B6F5007F64F5407404D25FEA7C
:100690004E0E6D4146EB060642EAC62141EA55512F
:1006A0004FEAC52040EA5E504FEACE2EB4F1FD0C71
:1006B00088BFBCF5E06F1ED8BEF1004F08BF5FEAEF
:1006C000500E50F1000041EB045170BD06F00046A1
:1006D00046EA010140EA020081EA0301B4EB5C044E
:1006E000C2BFD4EB0C0541EA045170BD41F4801146
:1006F0004FF0000E013C00F3AB8014F1360FDEBF6B
:10070000002001F0004170BDC4F10004203C35DA46
:100710000C341BDC04F11404C4F1200500FA05F3C9
:1007200020FA04F001FA05F240EA020001F000426A
:1007300021F0004110EBD37021FA04F642EB0601E0
:100740005EEA430E08BF20EAD37070BDC4F10C040A
:10075000C4F1200500FA04F320FA05F001FA04F2CE
:1007600040EA020001F0004110EBD37041F10001BA
:100770005EEA430E08BF20EAD37070BDC4F12005C5
:1007800000FA05F24EEA020E20FA04F301FA05F22D
:1007900043EA020321FA04F001F0004121FA04F2D5
:1007A00020EA020000EBD3705EEA430E08BF20EAA5
:1007B000D37070BD94F0000F0FD101F000464000DF
:1007C00041EB010111F4801F08BF013CF7D041EA61
:1007D000060195F0000F18BF704703F00046520065
:1007E00043EB030313F4801F08BF013DF7D043EA36
:1007F0000603704794EA0C0F0CEA135518BF95EAEC
:100800000C0F0CD050EA410618BF52EA4306D1D172
:1008100081EA030101F000414FF0000070BD50EA91
:10082000410606BF1046194652EA430619D094EA1B
:100830000C0F02D150EA013613D195EA0C0F05D105
:1008400052EA03361CBF104619460AD181EA030159
:1008500001F0004141F0FE4141F470014FF0000011
:1008600070BD41F0FE4141F4780170BD70B54FF0AC
:10087000FF0C4CF4E06C1CEA11541DBF1CEA13552C
:1008800094EA0C0F95EA0C0F00F0A7F8A4EB05040E
:1008900081EA030E52EA03354FEA013100F0888005
:1008A0004FEA03334FF0805545EA131343EA1263CE
:1008B0004FEA022245EA111545EA10654FEA002683
:1008C0000EF000419D4208BF964244F1FD0404F53C
:1008D000407402D25B084FEA3202B61A65EB030598
:1008E0005B084FEA32024FF480104FF4002CB6EB55
:1008F000020E75EB030E22BFB61A754640EA0C00D5
:100900005B084FEA3202B6EB020E75EB030E22BF14
:10091000B61A754640EA5C005B084FEA3202B6EB55
:10092000020E75EB030E22BFB61A754640EA9C0014
:100930005B084FEA3202B6EB020E75EB030E22BFE4
:10094000B61A754640EADC0055EA060E18D04FEAA2
:10095000051545EA16754FEA06164FEAC30343EA42
:1009600052734FEAC2025FEA1C1CC0D111F4801F0F
:100970000BD141EA00014FF000004FF0004CB6E708
:1009800011F4801F04BF01430020B4F1FD0C88BFA7
:10099000BCF5E06F3FF6AFAEB5EB030C04BFB6EBB2
:1009A000020C5FEA500C50F1000041EB045170BDA5
:1009B0000EF0004E4EEA113114EB5C04C2BFD4EBD2
:1009C0000C0541EA045170BD41F480114FF0000E56
:1009D000013C90E645EA060E8DE60CEA135594EAD2
:1009E0000C0F08BF95EA0C0F3FF43BAF94EA0C0FD5
:1009F0000AD150EA01347FF434AF95EA0C0F7FF44A
:100A000025AF104619462CE795EA0C0F06D152EA9D
:100A100003353FF4FDAE1046194622E750EA410681
:100A200018BF52EA43067FF4C5AE50EA41047FF492
:100A30000DAF52EA43057FF4EBAE12E74FF0FF3CF7
:100A400006E000BF4FF0010C02E000BF4FF0010CC8
:100A50004DF804CD4FEA410C7FEA6C5C4FEA430C41
:100A600018BF7FEA6C5C1BD001B050EA410C0CBF90
:100A700052EA430C91EA030F02BF90EA020F0020F2
:100A8000704710F1000F91EA030F58BF994208BF59
:100A900090422CBFD8176FEAE37040F00100704716
:100AA0004FEA410C7FEA6C5C02D150EA013C07D16D
:100AB0004FEA430C7FEA6C5CD6D152EA033CD3D0B8
:100AC0005DF8040B704700BF8446104662468C46B2
:100AD0001946634600E000BF01B5FFF7B7FF0028E5
:100AE00048BF10F1000F01BD4DF808EDFFF7F4FF0E
:100AF0000CBF012000205DF808FB00BF4DF808ED99
:100B0000FFF7EAFF34BF012000205DF808FB00BFBB
:100B10004DF808EDFFF7E0FF94BF012000205DF8DD
:100B200008FB00BF4DF808EDFFF7CEFF94BF012092
:100B300000205DF808FB00BF4DF808EDFFF7C4FF8B
:100B400034BF012000205DF808FB00BF4FEA410CD4
:100B50007FEA6C5C02D150EA013C0AD14FEA430CB7
:100B60007FEA6C5C02D152EA033C02D14FF00000F4
:100B700070474FF0010070474FEA410212F5001232
:100B800015D211D56FF47873B3EB625212D94FEAD4
:100B9000C12343F0004343EA505311F0004F23FABE
:100BA00002F018BF404270474FF00000704750EA13
:100BB000013005D111F0004008BF6FF000407047D0
:100BC0004FF00000704700BF7BB972B90029BEBF6B
:100BD00000204FF0004106E008BF00281CBF6FF066
:100BE00000414FF0FF3000F0BBB9ADF1080C6DE9EA
:100BF00004CE002909DB002B1ADB00F04DF8DDF8EC
:100C000004E0DDE9022304B07047404261EB41019A
:100C1000002B1BDB00F040F8DDF804E0DDE90223E7
:100C200004B0404261EB4101524263EB4303704721
:100C3000524263EB430300F02FF8DDF804E0DDE9F6
:100C4000022304B0404261EB41017047524263EB22
:100C5000430300F021F8DDF804E0DDE9022304B0ED
:100C6000524263EB4303704753B94AB9002908BFA6
:100C700000281CBF4FF0FF314FF0FF3000F070B97B
:100C8000ADF1080C6DE904CE00F006F8DDF804E0E3
:100C9000DDE9022304B070472DE9F047089E0D46B8
:100CA00004460F46002B4AD18A42944665D9B2FACF
:100CB00082F343B102FA03FCC3F120029F4020FA01
:100CC00002F217439C404FEA1C4E1FFA8CF5B7FB0B
:100CD000FEF1220C0EFB117742EA074201FB05F000
:100CE00090420AD91CEB020201F1FF3780F01C810F
:100CF000904240F2198102396244121AA4B2B2FB46
:100D0000FEF00EFB102244EA024400FB05F5A5426A
:100D10000AD91CEB040400F1FF3280F00781A542E0
:100D200040F204816444023840EA0140641B00211F
:100D30001EB1DC400023C6E90043BDE8F0878B42CA
:100D400008D9002E00F0ED800021C6E90005084614
:100D5000BDE8F087B3FA83F1002949D1AB4202D351
:100D6000824200F2F880841A65EB030201201746E4
:100D7000002EE2D0C6E90047DFE702B9FFDEB2FA93
:100D800082F3002B40F090808A1A4FEA1C471FFA2A
:100D90008CFE0121B2FBF7F507FB1520220C42EA7D
:100DA00000420EFB05F0904208D91CEB020205F14F
:100DB000FF3802D2904200F2CB804546121AA4B20C
:100DC000B2FBF7F007FB102244EA02440EFB00FEE0
:100DD000A64508D91CEB040400F1FF3202D2A64557
:100DE00000F2BB801046A4EB0E0440EA05409FE7EA
:100DF000C1F120078B4022FA07FC4CEA030C05FAEC
:100E000001F420FA07F3FD404FEA1C492343B5FBE8
:100E1000F9F81FFA8CFE09FB18551C0C44EA05442E
:100E200008FB0EF5A54202FA01F200FA01F00BD917
:100E30001CEB040408F1FF3A80F08880A54240F2E0
:100E40008580A8F102086444641B9DB2B4FBF9F3E9
:100E500009FB134445EA044403FB0EFEA64508D9EA
:100E60001CEB040403F1FF356CD2A6456AD9023BA2
:100E7000644443EA0843A3FB0295A4EB0E04AC428E
:100E8000C846AE4656D353D056B1B0EB080264EB19
:100E90000E0404FA07F7CA40CC401743C6E90074B1
:100EA00018460021BDE8F087C3F1200102FA03FCD7
:100EB00020FA01F225FA01F19D402A434FEA1C472E
:100EC0001FFA8CFEB1FBF7F007FB1015110C41EA7D
:100ED000054100FB0EF58D4204FA03F408D91CEB22
:100EE000010100F1FF382FD28D422DD90238614423
:100EF000491B92B2B1FBF7F507FB151142EA01421B
:100F000005FB0EF1914208D91CEB020205F1FF38F6
:100F100016D2914214D9023D6244521A45EA004168
:100F200038E73146304608E73946E6E61046FBE644
:100F30004845A9D2B9EB020865EB0C0E013BA3E7CB
:100F40004546EAE72B4694E74046D1E7D0467BE7A3
:100F5000023D624432E708460AE76444023842E749
:100F6000704700BFDFF834D0002103E00C4B5B5822
:100F7000435004310B480C4B42189A42F6D30B4AAB
:100F800002E0002342F8043B094B9A42F9D314F0E3
:100F900021FC38F06BFE01F0B3FE70470000032027
:100FA0005841090800000020F4020020F40200204B
:100FB000C04E0120FEE7704708B500F069FDBDE8AE
:100FC000084000F0EBBC00F065BD704710B504218F
:100FD000044636F065FF204610BD000038B50C4BC6
:100FE0000C4C18800C4B822019806368984740F69F
:100FF000110398420AD1094D23682C60822098473A
:101000002B688220DB689847002038BD0120FCE770
:1010100010030020700000201203002014030020A1
:101020004FF4A071F020FFF7D9BF0000F7B5334DA2
:101030002B6804461B698220984780B220800028D4
:101040004AD02B680DF106025B6901A982209847FE
:10105000BDF8063040F6746293423FD9ADF80620E1
:10106000BDF80630D21A92B20A2A3DD90B23B2FB40
:10107000F3F2234B1B889A4201D9013B9AB2BDF887
:10108000043040F6B8318B4230D8C3F571630E336B
:101090009BB20F21B3FBF1F31A4909888B4201D9A6
:1010A00001398BB2184E194D30682F68834281B2D6
:1010B0008CBF591AC91AB8B2BA428CBF101A801A1A
:1010C00089B280B201440529C8BF33603368C8BF04
:1010D0002A6063802B68A38003B0F0BDB32B9CBF54
:1010E000B423ADF80630BBE70022C8E7C3F56D6353
:1010F00008339BB20E2BCCD80023D3E71403002077
:101100001203002010030020180300201C030020FD
:1011100037B568460D461446FFF788FFBDF8000056
:1011200030B1BDF802302B60BDF8043023600120DF
:1011300003B030BD032821D8DFE800F0020B1219FC
:101140000F4B1A68B2FA82F2520904210D4815F0C9
:10115000F9B80B4B5A68B2FA82F252090821F5E746
:10116000074B9A68B2FA82F252091021EEE7044B5B
:10117000DA68B2FA82F252092021E7E7704700BF2D
:101180002003002000100240032821D8DFE800F0EF
:10119000020B12190F4B1A68003A18BF01220421E2
:1011A0000D4815F0CFB80B4B5A68003A18BF012212
:1011B0000821F5E7074B9A68003A18BF0122102171
:1011C000EEE7044BDA68003A18BF01222021E7E776
:1011D000704700BF200300200010024003280DD8F4
:1011E000DFE800F00206080A0421054815F0AFB850
:1011F0000821FAE71021F8E72021F6E7704700BF41
:101200000010024008B5032811D8DFE800F0020AF8
:101210000C0E0421074815F08FF8431E5842584120
:1012200008BD0821F6E71021F4E72021F2E70020AD
:10123000F3E700BF0010024070B5084D00240126FE
:10124000E0B2FFF7DFFF18B12B68012B18BF2E604B
:101250000134052C05F10405F2D170BD20030020F6
:10126000012380F8781080F87930704700207047AB
:10127000034B4164003918BF01211970704700BF4A
:101280008742012000207047836B0BB10846184746
:1012900070474FF6FF707047406803689B691847B6
:1012A000704770477047000010B5044600F008FD15
:1012B00023680349D3F88C302046BDE81040184716
:1012C000000000D008B503680446D3F88030984782
:1012D000236820469B6F984700F0ECF8236820466F
:1012E0001B6F9847292001F0A5FF00F0E3F8236861
:1012F00020461B6F9847F8E710B504461CF046FFE0
:1013000023682046D3F8AC30BDE81040184700F001
:10131000B9BC00F0BDBC00F0F1BC00F08FBC00F027
:101320000DBD00F0F7BC00F093BC1CF09AB910B5ED
:101330007C21044636F0B4FD204610BD90F87A308A
:101340001BB1406803681B681847184670470000C7
:1013500010B590F8341090F878400C4B8C421A7805
:1013600009D03AB90A4A0B491488088810800C80C1
:1013700001221A7010BD002AFCD0054A05491488C4
:10138000088810800C800022F3E700BF8042012013
:101390007C4201207E42012070B50D46194635B9C8
:1013A000094B0A4A0A4840F2D22137F0BFFCC0E993
:1013B0000F52084B003A18BF01221A700368BDE8AB
:1013C0007040D3F88C30184704BD03083CBD0308B7
:1013D0008ABD03088642012008B5094B1B888B4251
:1013E00003D8084B1B88934205D9074B074A084886
:1013F0009E2137F09BFC074B1980074B1A8008BDD4
:101400007C4201207E420120CFBD030832BE03088A
:101410008ABD03088242012084420120012108B5CF
:101420000022084617F0DBFC0A4B186028B90A4B6B
:101430000A4A28210A4837F079FC002204210120B9
:1014400017F06AFD074B186018B9074B034A2C21A7
:10145000F0E708BD3403002050BF030899BF03081C
:10146000C8BF03083003002066C00308024B4FF0DA
:10147000FF31186817F0FDBC34030020014B1868D9
:1014800017F022BD34030020024B0021186817F02A
:10149000F0BC00BF34030020FFF7F0BF034804494D
:1014A000006800231A4617F072BD00BF3003002009
:1014B0000400002013B5084C00231A4601A9206837
:1014C00017F095FD20684FF0FF33002201A917F0B7
:1014D0008EFD02B010BD00BF3003002003685B6CBE
:1014E00018470120704703689B6A184740F2EF30A5
:1014F00070470000054B0360054B4FF08062C3F856
:101500008820BFF34F8FBFF36F8F704754C203081B
:1015100000E100E010B504464FF45A61FFF7EAFF1E
:10152000204636F0BDFC204610BD000082B00023EE
:1015300001930D4B1A6B42F400021A631A6B02F40A
:1015400000020192019A1A6942F400021A611A69B2
:1015500022F400021A61054B054A1A61054B4FF04F
:1015600080629A6002B0704700380240D03000209C
:101570007915000800E100E0024B1B685868036819
:101580005B6918478842012070B5044625460A4B1E
:101590000C30002660602672667245F8203B60229F
:1015A00029461CF04BFF04F55A63EE602435AB422C
:1015B000FBD1204670BD00BF54C2030808B50B29FB
:1015C0000BD8DFE801F01206100A0A0A0A08080818
:1015D0000808012008BD0520FCE7054B054A064820
:1015E000652137F0A3FB0020F4E70220F2E700BFFB
:1015F000A8C00308C3C003080DC1030808B50A2921
:1016000009D8DFE801F010060E08080808060606EB
:101610000600012008BD054B054A0648862137F023
:1016200085FB0020F6E70220F4E700BFA8C003080E
:10163000A9C103080DC103082DE9F84391F81D80E5
:101640000C4641460746FFF7B9FF94F81E90054641
:1016500049463846FFF7B2FF494606463846FFF787
:10166000CDFFA18A628B434B521A1A649A61228B76
:10167000521A1A61E28A586342EA01425A642069A6
:101680006268D863DA602768802F28D0227F0FD85D
:10169000202F65D0402F63D0042F1AD0354B45EA58
:1016A000026545F40035C845DD615FD0324A44E04B
:1016B000B7F5807F04D0B7F5007FEFD12F4900E068
:1016C0002F4941EA0262DA61E2681A625E62586199
:1016D00032E045EA026242F40032DA61F6E7A768D6
:1016E0003A1DDA62217F3A7845EA016545F4003512
:1016F000DD615E62586142B1012A21D0214B224A4C
:1017000022484FF4887137F011FBDA69798822F4A6
:101710007F42013922F0100242EA0122DA610121FE
:10172000144BDA6942F02002DA61DA699206FCD4DD
:1017300010229A600029B9D0154A1A60BDE8F883D2
:10174000DA69788822F47F42013822F0100242EAF6
:101750000022FF3942F0100218BF0121DA61DFE7F1
:1017600045EA0262034B42F40032B6E740F201223E
:10177000E3E700BF00B002400102010009000200DF
:101780000A000200F4C103080EC203080DC10308D9
:101790000102020038B50C46897FFFF72FFFA58AAA
:1017A000E28A164B2169586342EA05425A64628B09
:1017B000D963521B1A642568082D0ED19A611A61EB
:1017C0005862207F0E4A42EA0062DA61E2681A62D9
:1017D0000C4A5961D9601A6038BD0022D8611A617B
:1017E000E1680A0A480902F4784200F4FC60024306
:1017F000C1F3C4010A439A63034AECE700B0024014
:10180000090001000102020001020300034B1A68F3
:10181000D207FCD423229A60704700BF00B0024078
:1018200030B50F4C2568ED07FCD423250904A560CD
:1018300041F001010225FF2B65636164E0630AD07A
:101840000849656241EA0363E361074B2262606114
:10185000E060236030BDE561039BA363034BF8E7C1
:1018600000B0024009000100010002000100030075
:10187000012070470C2070470C2303FB0100083047
:1018800070470C2303FB01000830704701207047AC
:1018900041F61830704741F6183303FB0100083059
:1018A000704741F6183303FB0100083070470120F0
:1018B00070471020704700EB01100830704700EBB4
:1018C000011008307047084604F0FCBC10B5034B0B
:1018D0000360044619F0E7FB204610BD0CC3030863
:1018E00010B50446FFF7F2FF2046142136F0D8FA6F
:1018F000204610BD10B5034B0360044619F0D3FB1E
:10190000204610BDD8C2030810B50446FFF7F2FF09
:1019100020464FF4D95136F0C3FA204610BD0000DE
:1019200010B5034B0360044619F0BDFB204610BD03
:10193000A4C2030810B50446FFF7F2FF20461821A1
:1019400036F0AEFA204610BD10B5094B03600446D0
:1019500000F5DA500C30FFF7B9FF04F12C00FFF767
:10196000C9FF04F11400FFF7DBFF204610BD00BFE4
:1019700040C3030808B50248FFF7E6FF08BD00BFF3
:101980003C03002010B50446FFF7DEFF204641F679
:10199000745136F085FA204610BD00002DE9F34160
:1019A00002F0CAFE054602F0CBFE002401462346A3
:1019B00028462246009428F093F8284B284A1A60BB
:1019C000204612F0C9F8274B274A284D9A6028482C
:1019D00027F0EEFF2B68BFF35B8FDB0737D4284679
:1019E00036F060FA98B3234C234B236004F12C08A3
:1019F00008F5D95707F1CC0604F114006060C4F86B
:101A00000880E760266119F04FFB1C4B636140467C
:101A100019F04AFB1A4BE362384619F045FB04F50E
:101A20008053184AC3F84C2B04F5DB5013F058F8D8
:101A3000224604F5DB51304612F0B8FF304604F080
:101A400041FC114837F090F9284636F037FA0F4834
:101A500002B0BDE8F041FFF727BC00BFEC42012017
:101A6000EC2E0020F02E0020B020002038030020B3
:101A7000080000203C03002040C30308A4C2030860
:101A8000D8C203080CC3030875190008702E002083
:101A9000704700000148FFF715BC00BF702E002002
:101AA00070B5244E244C254D254B23603046FFF75E
:101AB0006BFD28462CF0E6FA224825F063FC224B09
:101AC0002248DC6000224FF48071C3E912122049E1
:101AD0001A86C3E91A121F4999671F4983F85820CB
:101AE0000B60F02101801D485A6601801C4883F874
:101AF00070204FF4A071C3E90422C3E90622C3E9B0
:101B00000822C3E90A22C3E90E22C3E91022C3E96D
:101B10001422C3E917225A67C3E9016501801148FD
:101B2000018011490A70012283F834200F4A1A609B
:101B300070BD00BFD0200020CC200020F02E00205F
:101B4000F4BC0308B0200020702E00207C4201204D
:101B500001000001000001018842012082420120B1
:101B60007E420120844201208042012080BE030881
:101B70000148FFF7BFBC00BFD02000200020704705
:101B800081807047C18070470181704741817047F3
:101B90007047704770477047704710B4C488036837
:101BA000121B84885B6D091B12B25DF8044B09B2ED
:101BB00018474FF6FF7383814FF0FF3303621368BA
:101BC000C3611060704790F825201AB190F8242066
:101BD00002B118607047002070478B888380012015
:101BE0007047704780F82610704790F826007047BD
:101BF00010B50022B1F90840B1F90A100280428004
:101C00008480C18010BD0022028042808280C28018
:101C100070470177704780ED080A704780F82410FC
:101C2000704780F825107047012070479830704742
:101C30008C3070478430704770470000034B90220F
:101C400083F85A2383F85823704700BF00E100E06F
:101C5000094A0A49D3680A48C3F30A03013B9BB205
:101C60000B801169C1F30A01013901801364536BC0
:101C700043F0010353637047006801407E2F00204A
:101C80007C2F0020014BD3F8AC0070470068014066
:101C9000024B0122C3F8AC105A6270470068014041
:101CA0007047704710B52C21044636F0F9F82046ED
:101CB00010BD10B5BC21044636F0F2F8204610BD28
:101CC00070B504461BF023FD23685D6E24F0E4F933
:101CD00001462046A8472368054AD3F88850204685
:101CE000AC460023BDE87040A2F51631604700BF46
:101CF00000B004D01BF0F2BC1BF0FCBC1BF0B7BC66
:101D00001BF019BE90F8252012B103685B691847D3
:101D100070470000084B4FF08062C3F88820BFF383
:101D20004F8FBFF36F8F4FF08072C3F88820BFF3DF
:101D30004F8FBFF36F8F704700E100E0034B4FF010
:101D400080629A604FF080729A60704700E100E014
:101D500070B50023124E8380124B0360336893F8F2
:101D6000582005460AB1D86C00B998680368DB6A48
:101D700098473368B0FA80F4D86C640930B10368CE
:101D8000DB6A9847002808BF44F001042CB9064BD1
:101D9000064A07482C2136F0C9FF284670BD00BF0F
:101DA0008842012050C403084CC30308AAC3030897
:101DB000E3C3030870B5244E3568BFF35B8F15F09D
:101DC00001053FD1304636F06DF800283AD01F4C5F
:101DD0001F4B256104F13400C4E90035C4E9025504
:101DE000E584A562A58525F02CFD04F158001EF0C0
:101DF0005BFC184BA3652046174B40F8843BFFF76C
:101E0000A7FF164BC4F884302433C4F88C30642305
:101E1000C4E928350023C4F8AC30C4F8B030C4F8A5
:101E2000B430C4F8B8300E480E4BC4F89050C4F823
:101E30009C50C4F8A850C4F8983036F095FF30464E
:101E400036F03CF8014870BD782F0020802F00202C
:101E500070FD030870C40308E8C4030824FD0308E8
:101E6000391C000804FD030810B5144C236823B383
:101E7000134B144A1B6C11888B4213D1124B1988D7
:101E800015F0BEFA226892F86A30013382F86A309F
:101E9000FFF704FB20681CF079F9BDE81040002032
:101EA000FFF748B915F0ACFA206803681B6A984739
:101EB000BDE810400020FFF767B910BD884201203F
:101EC000006801407E2F00207C2F002048B1836CE9
:101ED0003BB1C36C2BB1006DB0FA80F040094042B9
:101EE00070474FF0FF30704773B502460846FFF762
:101EF000EDFF0C46054648BBD343C978C3F3C01376
:101F0000B1EB031F4FEA031220D0E270A66C607899
:101F100001230DF10702F321B04784F8540098B96A
:101F20009DF80730E278E66C607802F0100223F04A
:101F3000100313438DF807300DF1070201237321BD
:101F4000B04784F8540008B16FF00105284602B08C
:101F500070BD37B50446FFF7B9FF70B9A56C60785E
:101F600001230DF10702F321A84784F8540030B98A
:101F70009DF8073003F01003E37003B030BD6FF03D
:101F80000100FAE703788B4281BF017092F8463076
:101F900043F0020382F84630002070472DE9F843F1
:101FA000064618461D46FFF791FF884691460446AF
:101FB000A8B9AB783BB929463046FFF795FF0446F0
:101FC00008B946F08006AF6C68784B464246314609
:101FD000B847002885F8540018BF6FF00104204668
:101FE000BDE8F8832DE9F0438BB01D4606460F4649
:101FF00014460021242201A8009137F022FD284632
:10200000FFF764FFD0B9631E122B31D8E946804632
:10201000A4B21FFA88F3A34213D378B96400013C39
:10202000EE6C9DF800106878A3B20DF10102B04784
:10203000002885F8540018BF6FF001000BB0BDE810
:10204000F083AA7816F808303AB918462946FFF7FF
:102050004BFF16F8083003F07F0389F8003017F8BB
:10206000083089F8013008F1010809F10209D0E7C8
:102070006FF00300E2E737B5E0238DF80630B623B2
:1020800005468DF80730FFF721FF044670B9AB789D
:102090007BB12B4601220DF107010DF10600FFF780
:1020A000A1FF2B6D04460A2098474CB1204603B08F
:1020B00030BD2846FFF74DFF04460028F6D1E8E77B
:1020C000AB78002BF2D1284603B0BDE83040FFF7D3
:1020D00040BF30B58DB00546FFF7F8FE0446002836
:1020E00040F0A5802846FFF7C6FF0446002840F0D0
:1020F0009E802B4601222946D020FFF74FFF044641
:10210000002840F094802B78612B40F09380019060
:102110000146252202A837F094FC28468DF803409A
:10212000FFF7D4FE0446002840F081802B46192298
:1021300001A98920FFF732FF044638B92B46102247
:102140000DF11D01E120FFF729FF0446BDF8253000
:10215000EB82BDF805302B839DF80730AB76BDF8D8
:102160000930AB83BDF80B30EB839DF80D3085F85B
:102170002030BDF80F306B84BDF81130AB849DF872
:10218000143085F826309DF8133085F82730BDF8D7
:1021900017302B85BDF819306B859DF81B3085F8FD
:1021A0002C309DF81E309DF81F1003F00F0242EAFC
:1021B00001122A819DF81D201B0943EA02136B813D
:1021C000089BEB609DF824302B749DF829306B74CC
:1021D000BDF827306B829DF82A302B7514BB2B4637
:1021E00001220DF103010220FFF7D8FE9DF8033014
:1021F000C3F3011385F83430044698B92B46012205
:102200000DF10301FFF7CAFE9DF8033085F8353064
:10221000044638B92B4601220DF103010420FFF7D3
:10222000BDFE04469DF903301B1185F8363020466B
:102230000DB030BD6FF00204F9E737B574230446E2
:102240008DF80730FFF742FEA0BB0546234601226A
:102250000DF106017420FFF7A1FEA0B99DF806302C
:1022600013F0030511D023F003038DF8063001228B
:1022700023460DF106010DF10700FFF7B3FE236DB4
:102280000A209847E2E7002DE0D194F844208AB173
:102290009DF8063002F0030223F0030313438DF888
:1022A000063038B9234601220DF106010DF1070071
:1022B000FFF798FE03B030BDF0B589B000230646A5
:1022C00008460C468DF807300493ADF81430069399
:1022D000ADF81C30FFF7FAFD002840F0FC8016F046
:1022E000080391F8447005D181F844302046FFF787
:1022F000A4FF07E0012FADF80C0000F0EE8081F89C
:102300004400012016F010051ED02246072104F1DA
:102310003B00FFF737FE28B92346012269447520A8
:10232000FFF73CFE94F83B309DF807209B0022F01D
:102330001C0203F01C03134375228DF807308DF83F
:1023400010208DF818300125B30622D52246082129
:1023500004F13D00FFF716FE30B9234601220DF1CE
:1023600007017020FFF71AFE9DF8073094F83D2012
:1023700023F0080302F00802134305F120026A4427
:10238000702101358DF8073002F8101C02F8083C66
:10239000EDB2B10733D02246052104F13900FFF731
:1023A000F1FD30B9234601220DF107017420FFF73A
:1023B000F5FDF20709D59DF8073094F8392003F0B0
:1023C0001F0343EA42138DF80730B3070BD594F887
:1023D0003A309DF807209B0003F01C0322F01C02FA
:1023E00013438DF8073005F120036B44742203F882
:1023F000102C01359DF8072003F8082CEDB2710769
:1024000022D52246052104F13800FFF7BBFD30B983
:10241000234601220DF107017220FFF7BFFD9DF851
:10242000073094F8382023F0070302F00702134323
:1024300005F120026A44722101358DF8073002F857
:10244000101C02F8083CEDB216F0C00F3AD022463C
:10245000012104F13E00FFF795FD60B90A2104F166
:102460003C00FFF78FFD30B9234601220DF1070133
:102470007120FFF793FD72060BD594F83E309DF85E
:1024800007201B0103F0100322F0100213438DF804
:10249000073033060AD59DF8073094F83C2023F026
:1024A0000F0302F00F0213438DF8073005F12003EC
:1024B0006B44712203F8102C01359DF8072003F8B6
:1024C000082CEDB228B923462A4606A904A8FFF72E
:1024D00089FD84F8447009B0F0BDB1F84020B1F92D
:1024E0001230B2F5C87F03F5163303F2991328BFF3
:1024F0004FF4C8725A431423B2FBF3F20A2302F5D5
:102500004812B2FBF3F291F9113003F544735A43C8
:1025100091F9043091F9141013FB01F34FF47A711F
:1025200093FBF1F31B0203EB620394F834200432B3
:10253000B3FBF2F394F9352083214A4302F580324C
:10254000B3FBF2F32222FA3B53433233642293FB70
:10255000F2F38DF80C3046F25A43ADF80830B4F877
:102560004230B3F57C6F1AD23F2BC2B200F10100AA
:1025700013D803EB8213DBB200258DF80D3084F8FD
:102580003C502346022203A902A8FFF72BFD84F842
:10259000445000287FF4B6AEA8E69B08E4E7FF238A
:1025A000EAE7000013B5184B024618689B88ADF89F
:1025B000043091F83930009008336B4440F2AB742A
:1025C00013F8080C91F83A3008336B4413F8083CC0
:1025D000034491F838000830684410F8080C184497
:1025E00041F2B92304FB00334FF47A70B3FBF0F3EC
:1025F00001339BB2138091F83E0018B1B1F842103C
:102600000B44138002B010BD18BC03082DE9F04F35
:102610000646A9B00846FFF759FC0C4605460028B7
:1026200040F08A810690CDE90400CDF81B000846F1
:10263000FFF74CFC4FF00A080546002D40F083815F
:1026400023460F2204A91D20FFF7A8FC9DF8103097
:102650009DF819709DF81EC002979DF81D70039794
:1026600003F080010CF0300703F00F030F43737089
:102670009DF81130B37005469DF812E09DF8139057
:102680009DF814309DF815A09DF816B09DF8172000
:102690009DF8180001973770002900F05181120948
:1026A00042EA0B1242EA0A32B4F816A094F91AB0C0
:1026B000029F4FEA4A0ACAEBD20A4FEAEA724FEA8D
:1026C0005A0141EAC2714A43A1FB018101EB420177
:1026D0004FEA183848EA01584FEA0B124FEAEB7BF1
:1026E000091308FB0BFB02FB01BBB4F91810A8FB94
:1026F000022881FB0A1AD844C90A920B41EA4A51BE
:1027000042EA88420A4402EB82012263803152107D
:102710000912A2F57A42B1804FEAA20A94F9268002
:102720000AFB0AFA4FEAEA2B08FB0BFBB4F92480F8
:1027300002FB08F84FEA480808EBAB08B4F91EB0F2
:102740001B0902FB0BFB94F9202043EA09134FEA13
:102750006A3A43EA0E335201B4F922E0B4F9289000
:102760000AFB02F2D2104FEA0E4E0EEBA80E02EB5D
:102770006B02C3F58013B4F81CA0B4F92A80A3EB54
:102780002E33921440F6354E0EFB03F302F5004251
:10279000B3F1804F0AFB02F2B8BF5B004FEAE232AE
:1027A000A6BF93FBF2F35B0093FBF2F3DA10524304
:1027B000521308FB02F24FEAA30809FB08F84FEA9C
:1027C000232E4FEA683808EB22320EFB0EF80EFB80
:1027D00008FE94F82C8008FB0EFE02EB6E4294F982
:1027E00027E002EBCE1203EB2213B36094F90E3014
:1027F00094F90DE064224B4393FBF2F34B4301FB4E
:102800000EFE9B119EFBF2FE93FBF2F37344B4F8B1
:102810000AE003F580430EFB03F3B4F808E047EA4F
:102820000020A0EB0E1094F90CE09B1201FB0EFEB1
:102830009EFBF2FEA0EB6E00434394F91000DFF81C
:102840002CE1414391FBF2F2E17B02EBC1129913BF
:10285000494312118912514303EB61034FF47A7219
:102860009B1253431B13404A23EAE3739342D4BFA2
:10287000F360F260BEE80F000DF1200894F9369085
:10288000A8E80F00BEE80F00A8E80F00BEE80F00A0
:10289000A8E80F009EE80F000EF1100E88E80F0068
:1028A000BEE80F000DF16008A8E80F00BEE80F00B9
:1028B000A8E80F00BEE80F00A8E80F009EE80F0090
:1028C00088E80F00052340F23C500022C3FB0902B8
:1028D0000CF00F0128AB03EB8101039F51F8803C02
:1028E00051F8401CA0FB030E03FB02E34FEA9C12CD
:1028F00042EA8702000CD20340EA034012F17F4211
:102900006CEB0C0C12184FEA234E4CEB2343A1FB4B
:10291000000C01FB0EC1400A4FEA520C40EAC150C4
:102920004CEAC37C4FEA630E10EB0C004EEB6121C6
:10293000FEF74AF9306175B1284629B0BDE8F08F3D
:10294000236D0A20984708F1FF3818F0FF087FF43C
:1029500074AE0225F0E7019B1B0646BF012384F8F5
:10296000453084F84550E7E7A086010020BC030805
:1029700010B58AB004463249684637F09EF9684679
:10298000FDF786FC4FF47A7382B26946204615F053
:1029900052FF2C49684637F090F96846FDF778FCFD
:1029A0004FF47A7382B26946204615F044FF2649F7
:1029B000684637F082F96846FDF76AFC4FF47A738F
:1029C00082B26946204615F036FF2049684637F046
:1029D00074F96846FDF75CFC4FF47A7382B269467D
:1029E000204615F028FF1A49684637F066F9684610
:1029F000FDF74EFC4FF47A7382B26946204615F01B
:102A00001AFF1449684637F058F96846FDF740FC4C
:102A10004FF47A7382B26946204615F00CFF0E49D6
:102A2000684637F04AF96846FDF732FC4FF47A738E
:102A300082B26946204615F0FEFE0AB010BD00BF06
:102A40002CC503083AC5030856C5030873C5030817
:102A50008AC50308A1C50308BDC5030810B590B019
:102A60000849044601A837F028F901A8FDF710FC31
:102A70004FF47A7382B201A9204615F0DCFE10B043
:102A800010BD00BFDBC5030810B590B0084904466F
:102A900001A837F012F901A8FDF7FAFB4FF47A7399
:102AA00082B201A9204615F0C6FE10B010BD00BFCD
:102AB00016C6030810B5406890B00C46FDF754FDEB
:102AC00002460B4601A8074936F058FF01A8FDF75A
:102AD000DFFB4FF47A7382B201A9204615F0ABFEFA
:102AE00010B010BD52C6030810B5806890B00C46F7
:102AF000FDF73AFD02460B4601A8074936F03EFFB6
:102B000001A8FDF7C5FB4FF47A7382B201A92046F4
:102B100015F091FE10B010BD6FC6030810B54069E6
:102B200090B00C46FDF720FD02460B4601A8074970
:102B300036F024FF01A8FDF7ABFB4FF47A7382B2A5
:102B400001A9204615F077FE10B010BD8DC6030810
:102B500010B590B0C2680C4601A8074936F00EFFC8
:102B600001A8FDF795FB4FF47A7382B201A92046C4
:102B700015F061FE10B010BD9FC6030810B590B0EF
:102B800002680C4601A8074936F0F8FE01A8FDF7D7
:102B90007FFB4FF47A7382B201A9204615F04BFEF9
:102BA00010B010BDB3C6030810B590B002690C4652
:102BB00001A8074936F0E2FE01A8FDF769FB4FF4D2
:102BC0007A7382B201A9204615F035FE10B010BD0F
:102BD000CCC6030870B50A4E044605462046FDF7EC
:102BE00057FB2B1B984200D870BD2B78F25C02F08B
:102BF0000302012A08BF203305F8013BEEE700BFBE
:102C00000512040810B412780D4B313A052A12D877
:102C1000DFE802F00307090B0D0FDB685DF8044BDA
:102C200018471B69FAE75B69F8E79B69F6E7DB6918
:102C3000F4E71B6AF2E79B685DF8044B0846184707
:102C40000C00002007B5064BADF806001B680548D0
:102C500001220DF1060115F045F903B05DF804FB02
:102C6000340000204032002030B595B01022002101
:102C70000AA836F0E6FE1422002103A836F0E1FE91
:102C800000241D4B01941A6C42F080521A641B6C94
:102C900003F080530193019B184B02941A6842F48D
:102CA00040421A601B6803F4404302930122029BD6
:102CB0004FF48033CDE9082302254FF48003CDE99A
:102CC0000E5308214FF4A873CDE9101308A804236C
:102CD0001393129514F0B2FB0F23CDE903354FF493
:102CE000A0504FF48053CDE90603052103A80594B5
:102CF00014F07EFD15B030BD003802400070004079
:102D00002DE980489DB012F073FDFFF7ADFF14224E
:102D100000210FA8002436F094FEC44B02941A6BD5
:102D2000C348C44D42F010021A631A6B02F010023D
:102D30000292029A03941A6B42F020021A631A6BF1
:102D400002F020020392039A04941A6B42F080026C
:102D50001A631A6B02F080020492049A05941A6BAB
:102D600042F004021A631A6B02F004020592059AFB
:102D700006941A6B42F001021A631A6B02F0010208
:102D80000692069A07941A6B42F002021A631A6BB3
:102D900002F002020792079A08941A6B42F040026E
:102DA0001A631A6B02F040020892089A09941A6B8F
:102DB00042F008021A631B6B03F0080309932246D2
:102DC0003C21099B13F0BEFA9B482246042113F0D4
:102DD000B9FA224699484FF4405113F0B3FA3C2314
:102DE00001264FF0030A0DEB0301914811940227CD
:102DF0004FF00408CDE90F36CDF848A013F0B6F92E
:102E00008D4811940FA9CDE90F86129713F0AEF9F2
:102E10000FA94FF440538948CDE90F36CDE911474A
:102E200013F0A4F98648874B036013F041F8864AF3
:102E3000864B2C62C5E9002328464FF48043C5E940
:102E40000434C5E90244C5E9064413F087FC1021A7
:102E5000284614F01DF92146284614F038F97C481C
:102E60007C497D4D84624FF482734FF01809C0E9AC
:102E700000134FF40073C0E906390A23C362C0E9A6
:102E80000244C0E90444C0E9084414F0CFFF734B86
:102E90000F97C5E9003640221023C5E904324FF4EC
:102EA000C0724FF40053C5E90624AB624FF40062D0
:102EB00007230FA92846CDE91038CDE9123A4FF083
:102EC000080BC5E90248C5E90824CDE9147714F0D8
:102ED00091FE4FF6FF720BA92846CDE90CB60A9475
:102EE0000B960E9414F0A6FE304612F0ADFC4FF691
:102EF000FF720BA92846CDE90B7BCDE90D6414F0D8
:102F000099FE4FF6FF720BA92846CDE90D84CDE955
:102F10000BAB14F08FFE4FF40C720A920A9A0E92C9
:102F20000BA94FF6FF722846CDE90B8B0D9614F0D6
:102F300081FE40F26A51284614F09AFE214634225E
:102F40000FA836F07EFD464D464AAC86C5E9002402
:102F50000922C5E905261D22C5E9072A40F20D1000
:102F600040F2431240F2171CC5E9090240F2471231
:102F70002846C5E90BC2C5E902442C6185F83640F4
:102F800014F046F9FF20F0214FF4A0724FF005082D
:102F9000CDE914044FF48060CDE91608CDE9101492
:102FA000CDE91227CDE918411A920FA922462846E9
:102FB0000F942D4DADF86C408DF86E4014F0F3F980
:102FC0002A4A2A60126890472A68294DD268904799
:102FD000284AC5E90A47C5E90C442846C5E9002442
:102FE000C5E9027412F0C5FF3146284613F07AF89D
:102FF00010231A4621460FA836F023FD1E4DDFF898
:1030000080E0AC604FF48033C5E900E328461B4BF9
:10301000AB622E612C7685F82040EC62EC60EF61AB
:1030200085F830406E6112F023FC2BE0003802403E
:10303000001002401031002000080240000C024045
:10304000C830002000300240005C0040A086010033
:1030500040320020005001400C320020400100A00E
:103060006431002000680140483000203800002012
:10307000D030002000B00240803000200100000F5E
:10308000002001400FA92846CDE90F86119412F0C7
:1030900021FE0FA907232846CDE90F37DFF8A080CE
:1030A00012F018FE1A484FF4E133C0E900830C23F4
:1030B000C0E90534C0E902440461C46115F08CFB29
:1030C000FDF77AFFFDF777FF1249134800F022FE63
:1030D000124B13491348CDE900934FF40052234695
:1030E00017F060F9104B11491148CDE90093802287
:1030F000234617F057F90F4B0F491048CDE90093BD
:103100008022234617F04EF917F07AF9FEE700BF48
:1031100098320020E03200200433002040300020AC
:10312000E5C60308C70F000844300020F3C60308B3
:10313000053400083C30002003C70308853400082C
:1031400000100140704770477FB5094B8DF817207C
:103150001B6802930DF117020123009201930A46A6
:103160000146044813F0F4FD07B05DF804FB00BF0E
:1031700030000020103100207FB500238DF817307B
:10318000084B1B6802930A4601230DF117010091B9
:1031900001930146044813F06BFE9DF8170007B039
:1031A0005DF804FB30000020103100201FB5084CF2
:1031B00024680092CDE901340A46012301460548FE
:1031C00013F056FE003818BF012004B010BD00BF38
:1031D000300000201031002012F036BB08B5064840
:1031E0000022042113F0AEF8BDE808400248012295
:1031F000042113F0A7B800BF0008024038B50B4DFA
:10320000044601220A484FF4005113F09BF80022B3
:103210000421284613F096F82046FFF713FD2846B0
:103220000122BDE83840042113F08CB800080240A8
:10323000000C024038B50B4D044600220A484FF4FA
:10324000005113F07FF800220421284613F07AF889
:103250002046FFF7F7FC28460122BDE8384004214C
:1032600013F070B800080240000C0240F7B5144E8D
:10327000144F05460C4630460022042113F062F834
:1032800000224FF40051384613F05CF82846FFF74F
:10329000D9FC0D4B0D481B68224601A914F0CBFF49
:1032A000384601224FF40051019C13F04BF8304690
:1032B0000122042113F046F8204603B0F0BD00BF00
:1032C00000080240000C0240340000204032002080
:1032D00012F0BABA054B1A686523534348BF03F688
:1032E000FF73034A1B131360704700BF4C3000206C
:1032F00068300020094B5A689F2A9CBFA0225A6060
:103300005B6840F2BD72A03B534340F2551293FB01
:10331000F2F3034A14331361704700BF4C300020AE
:1033200068300020F8B51E4F1E4E1F4D38881F4CC8
:1033300000F0D2FC3146284600F00EFD40BBB6F945
:103340000430DFED1B6A9FED1B6A07EE903AF8EE42
:10335000E77A95F8443087EEA67A012BD6ED037A0A
:1033600084ED017AF8EE677A87EE867A84ED057A45
:1033700096ED027AB8EE477AC7EE267AFDEEE77A46
:10338000C4ED037A0AD12846BDE8F840FEF755BFE0
:103390003946284600F0BEFC074B6360F8BD00BF0D
:1033A000E032002054300020043300206830002038
:1033B0000000C84200007A44000049431FB50023C2
:1033C000CDE902330522012369460448CDE90023F3
:1033D00012F080FC05B05DF804FB00BF80300020D7
:1033E0001FB50023CDE902330722012369460448B3
:1033F000CDE9002312F06EFC05B05DF804FB00BFC0
:103400008030002008B5154C154DFFF7D7FF20463A
:1034100012F0D4FA4FF47A71204612F074FB204671
:1034200012F0C4FB2860204612F052FBFFF7D8FFD1
:10343000204612F0C3FA4FF47A71204612F063FB73
:10344000204612F0B3FB6860204612F041FBFFF704
:1034500041FFFFF767FFFFF74DFFD6E78030002001
:103460004C30002038B5064B002504461D80FCF783
:103470000FFF294602462046BDE8384036F0E1BA43
:10348000003300201E4D1F4CB5F900101E481E4E83
:1034900008B50122214415F0E6FB00224FF0FF336E
:1034A0000121104617F012FBB5F90030172B0EDD85
:1034B000164B5B68304698472046FFF7D3FFB5F9B7
:1034C000001001222144304615F0CDFBE5E7E25C17
:1034D0000D2A12D12046FFF77DFBB5F900200C49DB
:1034E000204636F0B6FA10B9084B1B68E2E70948E7
:1034F00022463146FFF786FBDEE701332B80DEE70D
:1035000000330020E2320020983200200C0000201E
:103510001AC703086830002007B500230948009344
:103520001A461946006817F01BFB074B0748B3F90A
:103530000010014406486423012203B05DF804EB47
:1035400015F079B93C30002000330020E232002031
:10355000983200200268034B9A4201D112F062B9FE
:10356000704700BF001000407047000082B00E4B53
:1035700000220092596C41F480415964596C01F465
:103580008041009100990192196C41F080511964B9
:103590001B6C03F080530193019B0F216FF001001E
:1035A00002B012F045BC00BF0038024010B504461E
:1035B00088B01422002103A836F043FA2268164B83
:1035C0009A4226D103F58C33002401945A6C134897
:1035D00042F480725A645A6C02F480720192019A29
:1035E00002941A6B42F001021A631B6B03F0010391
:1035F0000293A022029B03A90323CDE9032312F027
:10360000B5FD12202246052112F012FC122012F004
:1036100041FC08B010BD00BF002001400000024086
:103620000268094B9A4282B00BD100230193074BE9
:103630001A6B42F480521A631B6B03F4805301939C
:10364000019B02B0704700BF0030024000380240CA
:1036500007B50F4B02689A4216D10022A3F5F0433A
:103660000192196B41F4000119631B6B03F4000311
:10367000019305215A20019B12F0DAFB5A2003B076
:103680005DF804EB12F006BC03B05DF804FB00BF6C
:1036900000B002402DE9F043044689B01422002115
:1036A00003A836F0CEF92268244B9A4243D1244C29
:1036B000244800250095236B43F004032363236B08
:1036C00003F004030093009B0195236B43F0010377
:1036D0002363236B03F001030193019B4FF0120955
:1036E0004FF400734FF001080327042603A9CDE926
:1036F0000339CDE90587079612F038FD4FF4807342
:103700001148079603A9CDE90339CDE9058712F0E1
:103710002DFD0295236C43F400032364236C03F412
:1037200000030293029B236A43F400032362236A8B
:1037300023F40003236209B0BDE8F083005C00407D
:10374000003802400008024000000240F0B599B085
:1037500004461422002107A836F073F930220DEB3D
:103760000200002136F06DF922685E4B9A4240F06B
:10377000B78008230C93C0231093042312930CA842
:103780004FF40033159314F00BF908B1FFF7ECFE7A
:10379000554B5648002400945A6C42F080625A649B
:1037A0005A6C02F080620092009A01941A6B42F007
:1037B00020021A631A6B02F020020192019A02940D
:1037C0001A6B42F001021A631A6B02F001020292B4
:1037D000029A03941A6B42F002021A631A6B02F007
:1037E00002020392039A04941A6B42F040021A6395
:1037F0001A6B02F040020492049A05941A6B42F08C
:1038000004021A631A6B02F004020592059A0694E8
:103810001A6B42F008021A631B6B03F0080306934D
:1038200002250E26069B0B964FF4806307A9CDE96F
:103830000735CDE9094512F099FC41F658032C48AB
:103840000B9607A9CDE907350927CDE9094512F0FF
:103850008DFC032327480B9707A9CDE90735CDE950
:10386000094512F083FC4FF4706322480B9607A9B8
:10387000CDE90735CDE9094512F078FC4FF40C632A
:103880001D480B9607A9CDE90735CDE9094512F08A
:103890006DFCC02319480B9607A9CDE90735CDE982
:1038A000094512F063FC082315480B9607A9CDE9DA
:1038B0000735CDE9094512F059FC4FF4A0530E48E5
:1038C0000B9707A9CDE90735CDE9094512F04EFC64
:1038D00058202246052112F0ABFA582012F0DAFAED
:1038E00019B0F0BD006801400038024000140240E9
:1038F000000002400004024000180240000802409C
:10390000000C024010B5044688B01422002103A820
:1039100036F097F82268144B9A4223D103F5684396
:10392000002101915A6C114842F480125A645A6C79
:1039300002F480120192019A02911A6B42F0200265
:103940001A631B6B03F020030293029B4FF4607217
:1039500002230321CDE903230523CDE9061303A99F
:1039600012F004FC08B010BD0050014000140240E9
:1039700010B5044688B01422002103A836F061F87F
:103980002268184B9A422BD103F5943300240194FA
:103990005A6C154842F010025A645A6C02F0100238
:1039A0000192019A02941A6B42F001021A631B6B96
:1039B00003F0010302934FF4C062029B0223CDE99E
:1039C000032303210723CDE9061303A912F0CEFB3D
:1039D00025202246052112F02BFA252012F05AFA52
:1039E00008B010BD00100140000002402DE9F04178
:1039F00086B0002303932B4B1C68002C4FD14FF053
:103A00000108C3F80080284B00949A6B274842EACB
:103A100008029A639B6B03EA0803009302270326BC
:103A20000C25009B01A94FF63F03CDE90137CDE9F5
:103A3000046512F09BFB1E48059501A9CDE901879D
:103A4000CDE9034612F092FB48F23313194805956D
:103A500001A9CDE90137CDE9034612F087FB4FF606
:103A600083731548059501A9CDE90137CDE90346D2
:103A700012F07CFB4CF203731048059501A9CDE9C7
:103A80000137CDE9034612F071FB60230C48059520
:103A900001A9CDE90137CDE9034612F067FB06B075
:103AA000BDE8F0815C330020003802400014024081
:103AB000000802400018024000100240000C0240C2
:103AC0000004024070B588B000230293204B1A6CAA
:103AD00042F010021A641B6C03F0100302930546B7
:103AE00001A903A8029B13F03DFF069B4BBB13F0FB
:103AF00019FF184E184B336040F2E733F360174B51
:103B0000B0FBF3F3013B7360304600233361B360D5
:103B1000B36114F075FD044680B9304614F032FCF0
:103B2000044658B9362012F0B5F90F2D0DD82246AB
:103B30002946362012F07CF9094B1D60204608B05A
:103B400070BD13F0EFFE4000D3E70124F6E700BF9D
:103B500000380240603300200010004040420F0057
:103B6000A00000207047FEE7FEE7FEE7FEE7704793
:103B7000014812F021B800BF80300020014814F045
:103B80000FBF00BF98320020014814F039BC00BFBD
:103B900060330020014813F0A9BB00BF643100204E
:103BA000014812F014BA00BFD03000200120704745
:103BB00008B536F055F8162303604FF0FF3008BD06
:103BC00008B536F04DF816230360FEE770B50D46D4
:103BD00014460E46731B9C4201DC204670BDAFF3B9
:103BE000008006F8010BF5E770B50D4614460E4649
:103BF000731B9C4201DC204670BD16F8010BAFF32D
:103C00000080F5E74FF0FF3070474FF400534B60F2
:103C10000020704701207047002070470A4A116851
:103C200008B5034609B9094911601068694603449B
:103C30008B4206D936F014F80C2303604FF0FF30A6
:103C400008BD1360FCE700BFA8330020C04E012070
:103C5000F0B585B047004FF0FF3415461E468DF88D
:103C60000F100C48009401230DF10F02394612F099
:103C70001DFE68B90748009433462A4647F0010103
:103C800012F0ECFE003818BF0120404205B0F0BD34
:103C90002046FBE71031002030B58DB005460846C0
:103CA0001C4611468DF808001A460DF1090036F041
:103CB0000CF8631C4FF0FF3200929BB202AA69001D
:103CC000044812F0F3FD003818BF012040420DB047
:103CD00030BD00BF1031002011F0B6BD40F20243EC
:103CE00010B50387032380F83A300123044680F897
:103CF000443001460720FEF7DFFA38B92046FEF7C8
:103D00009CFA003818BF0120404210BD4FF0FF3030
:103D1000FBE70000772370B54370012383700B4BE2
:103D200083640B4BC3640B4B036519230446037177
:103D30000E46FEF7CEF92046FFF7D0FF2146054696
:103D40003046FEF72FFC284670BD00BF513C0008EE
:103D5000993C0008D93C00080B4601461846FEF77E
:103D600055BC704770477047704770477047704741
:103D70007047704730B4C26844685510034604EB7E
:103D80006200D20748BF62599B6830BC48BFD35815
:103D9000184743682BB183682BB9C06800F0010055
:103DA0007047184670470120704710B50821044637
:103DB00034F076F8204610BD10B51021044634F0DA
:103DC0006FF8204610BD10B54FF4D671044634F09C
:103DD00067F8204610BDE030884208B505D122F0D2
:103DE0005BF9BDE8084002F07DBA08BD70B5036814
:103DF00004461B6B154698472368294620465B6B93
:103E0000BDE87040184770B504461D46BDF9106006
:103E1000FFF7ECFF2368294620469B6B98472368F1
:103E200031462046DB6BBDE870401847094A026006
:103E30004FF4807100228184FF21C0E90122C0E992
:103E40000322C0E90522C0E9072280F82610826219
:103E5000704700BFDC0604084FF4807181840D496F
:103E600001600D4981624FF6FF7181854FF47F013A
:103E7000002241634FF0FF31C0E90122C0E9032273
:103E8000C0E90522C0E90722C0E9101202630287D7
:103E9000C26370474C060408ECC703081A4B73B59D
:103EA0001B88018F8B4206462BD9184B1B682BB9F8
:103EB000174B184A18486C2134F038FF13F81120BA
:103EC000164B1B6853F82250154B18680FF080FEF4
:103ED0002B6801909B6B284698472B6801999B6C37
:103EE0000446284698472B6801995B6A14FB00F446
:103EF00028469847A4B223181BB2A6F8463002B051
:103F000070BD0023F9E700BFE4420120E042012038
:103F10001FC7030861C703089CC70308E8420120C4
:103F2000EC4201202DE9F04F2DED028B04468BB0C1
:103F3000A246002524F00AF8654BE5634AF8403BA9
:103F400004F16C0B504604F19809FFF76FFF5846D7
:103F5000FFF76CFF04F1E0084846FFF77DFF04F52A
:103F6000947740461FF01EFD3846FFF775FF04F5B5
:103F7000B873184608EE103AFFF758FF554BC4E9DE
:103F80006734554BC4E969354FF4A0732A46009352
:103F900029465046F023FFF736FF261D4FF07F439A
:103FA000A3665146304618F0F0FB4FF4A0732A4642
:103FB000009329465846F023FFF725FF474BC4F8E6
:103FC00094305946304618F0E0FB0F224846142141
:103FD000FFF70CFF0DF1080A414BC4F8C830494601
:103FE0005046A4F8CC501EF0E3FC9AE8070004F118
:103FF000D40383E80700DFF8ECB0CDF820B06B23E2
:1040000008A94846ADF824301EF06CFF49463046FA
:1040100018F0BBFB40460722C521FFF7E7FE02234D
:1040200008AA07A9ADF81C3040460323ADF820309C
:104030001FF08BF96A23A4F818314046FFF72EFFD2
:104040004FF0FF3904F5CE73C4F8083141463046CD
:10405000C4E9479918F099FB4B2238461821FFF71D
:10406000C5FE39465046C4F85891A4F85C511EF07C
:104070009FFC9AE8070004F5B27383E80700692300
:1040800008A93846ADF82430CDF820B01EF02AFF3C
:104090003946304618F079FB4FF4A07318EE100A39
:1040A00000932A462946F023FFF7ADFE4FF07F43E9
:1040B000304618EE101AC4F8983184F8965118F06A
:1040C00064FB20460BB0BDEC028BBDE8F08F00BF57
:1040D00014C80308FCC70308D73D00082B2B2BFF8F
:1040E000808080FFECC7030830B50368018185B08C
:1040F0006D460146D3F8843004462846984795E833
:1041000007003C3484E8070005B030BD30B50368D3
:10411000418185B06D460146D3F884300446284677
:10412000984795E807003C3484E8070005B030BDA7
:104130000022028042808280C280704780F8361060
:10414000704770B5036804461B6B15469847236893
:10415000294620465B6EBDE8704018470020704736
:10416000806C704770477047704770477047704762
:1041700030B4C26844685510034604EB6200D207AD
:1041800048BF62599B6830BC48BFD3581847436842
:104190002BB183682BB9C06800F001007047184646
:1041A00070470120704710B54C21044633F078FE6B
:1041B000204610BD10B51021044633F071FE204694
:1041C00010BD10B54FF45471044633F069FE20461B
:1041D00010BD08B5FDF796FD08BD0000036870B579
:1041E0005E6B124B1B6804468DB22BB9104B114A03
:1041F0006C21114834F09AFD1049828D0988914252
:1042000003D80F4B0B4A6D21F3E713F812200D4B27
:104210001B6853F8220003681B6B9847281A01B2E9
:1042200033462046BDE87040184700BFE0420120F9
:104230001FC7030861C703089CC70308E4420120A5
:1042400040C80308E842012000F1F003994270B52C
:1042500004460D4603D121F01FFF02F043F804F598
:104260000F739D4203D123682046DB6A984704F50B
:104270001E739D4205D1236820461B6BBDE870402C
:10428000184770BD00224FF0FF31C0E90021826065
:10429000704700002DE9F04F2DED088B04468FB0DC
:1042A000A0464FF0000A23F051FEE64BC4F83CA0B4
:1042B00048F8403B04F16C0B4046FFF7B7FD584609
:1042C000FFF7B4FD04F1980318460AEE103AFFF721
:1042D000ADFD04F1C40304F1F00718460AEE903A6C
:1042E00004F59C76FFF7A2FD38461FF05BFB3046D5
:1042F000FFF7B2FD04F5C073184608EE103AFFF759
:10430000ABFD04F5E473184608EE903AFFF7A4FD00
:1043100004F5047318460BEE103AFFF787FD04F519
:104320000F73184609EE103A1FF0DEF904F51E73FC
:10433000184609EE903A1FF0D7F904F52D73184688
:1043400004F538790BEE903AFFF770FD4846FFF719
:1043500083FDBD4BC4F8E032BC4BC4F828A3C4E9CC
:10436000D034BB4BC4E9D23A4FF4A0735246404616
:1043700000935146F023251DFFF745FD4FF07F4385
:104380004146A366284618F000FA4FF4A07352463F
:10439000584600935146F023FFF735FDAD4BC4F866
:1043A00094305946284618F0F0F92023DFF8B8B2C7
:1043B00000934FF49272F1234FF011081AEE100A95
:1043C0004FF0FF31FFF71FFD1AEE101AC4F8C0B00E
:1043D00084F8BE80284618F0D8F9342352461AEEE5
:1043E000900A00935146F023FFF70DFD1AEE901A44
:1043F000C4F8ECB084F8EA80284618F0C6F93846CC
:104400000722C521FFF7F2FC02230CAA0BA93846AC
:10441000ADF82C300323ADF830301EF096FF0B239F
:104420003846A4F82831FFF739FD4FF0FF3804F57E
:104430005073C4F818313946C4E94B8828460393B1
:1044400018F0A3F90D2230461B2104AFFFF7CEFC74
:10445000814BC4F8683131463846A4F86CA11EF08F
:10446000A7FA97E8070004F5BA7383E807007B4BC7
:104470000C9330460C230CA9ADF834301EF032FDFD
:104480003146284618F081F918EE100A41221D2104
:10449000FFF7ACFC724AC4F8B021384618EE101A87
:1044A000A4F8B4A11EF084FA97E8070004F5DE73BF
:1044B00083E80700694E0C9618EE100A0CA94FF01D
:1044C0000A0BADF834B01EF00DFD18EE101A284698
:1044D00018F05BF9D42218EE900A1021FFF786FC41
:1044E000384618EE901AC4F8F881A4F8FCA11EF022
:1044F0005FFA97E8070004F5017383E807000923D2
:1045000018EE900A0CA9ADF834300C961EF0EAFCB7
:1045100018EE901A284618F038F94FF4A073524656
:1045200041461BEE100A0093F023FFF76CFC4FF09E
:104530007F43C4F838321BEE101A284684F836A29E
:1045400018F023F919EE100A64227F21FFF74EFCC0
:104550004FF00603ADF824300BA90CAB00930B46CB
:104560000AA90A464FF0100819EE100A072609A9F1
:10457000ADF82860ADF82C80ADF830801FF01FF842
:10458000039BC4F864324FF00511C4F87412284636
:1045900019EE101A18F0F9F819EE900A64222F217A
:1045A000FFF724FC4FF00603ADF824301223ADF8DA
:1045B0002C300AA90CAB0A4619EE900A009309A9FF
:1045C0000BABADF82860ADF830801EF0F8FF4FF06F
:1045D0000513C4F8B032039BC4F8A03219EE901A48
:1045E000284618F0D2F819231BEE900A0093B22245
:1045F0005A234321FFF707FC194AC4F8DC221BEEBB
:10460000901A284618F0C1F8B32261214846FFF7F6
:10461000EDFB4FF07F43C4F81033D4F8E032A4F838
:1046200014A33846D3F884304946984797E80700E2
:1046300004F5477383E807000A4B1B6804F54B77C2
:10464000D3B913E06CC90308C4C8030854C90308EC
:10465000494200082B2B2BFF999999FFECC70308BF
:10466000FFF700FFE0420120FF5938FF184B194ABD
:104670006021194834F05AFB184B1B88072B03D8CC
:10468000174B144A6121F4E7164B314618680FF0B6
:104690009FFA154A03465946384625F07BF94846A5
:1046A000C4F828731EF0FEFB104B0C930CA90823D2
:1046B0004846ADF834301EF015FC2846494618F03F
:1046C00064F820460FB0BDEC088BBDE8F08F00BF4A
:1046D0001FC703087EC803089CC70308E4420120E3
:1046E00040C80308EC420120B6C80308ECC7030821
:1046F000704708B5062915D8DFE801F00C04080C4E
:10470000100C10000FF05CFD406808BD0FF058FD64
:104710008068FAE70FF054FD0068F6E70FF050FDEF
:10472000C068F2E70020F0E710B50421044633F03A
:10473000B7FB204610BD000000487047B4C903080D
:104740001620704713B5002451B1036801948DF809
:10475000034001AA9C680DF10303A04702B010BDFD
:104760000846FBE7C0897047008A7047C0887047D9
:1047700080887047807A00F07F007047807AC00997
:1047800070470020704700009FED010A704700BF8E
:1047900000000000704770477047704770477047CF
:1047A000704770477047704730B4C268446855100E
:1047B000034604EB6200D20748BF62599B6830BCD5
:1047C00048BFD358184743682BB183682BB9C068DA
:1047D00000F001007047184670470120704710B57F
:1047E0001021044633F05CFB204610BD10B54FF499
:1047F000C461044633F054FB204610BD00F1E003D1
:10480000994270B504460D4603D121F045FC01F0F4
:1048100069FD04F5B2739D4203D123682046DB6A2B
:10482000984704F5EE739D4203D1236820461B6B25
:10483000984704F5D0739D4203D1236820465B6BF3
:10484000984704F506739D4203D1236820469B6B6D
:10485000984704F515739D4203D123682046DB6B0E
:10486000984704F524739D4203D1236820461B6CAE
:10487000984704F594739D4205D1236820465B6CEC
:10488000BDE87040184770BD10B50446FFF7E4FA64
:10489000024B23600023A364204610BDC4C8030854
:1048A0002DE9F04F2DED108B04468DB0A0464FF052
:1048B000000B23F04BFBE84BC4F83CB048F8403BFE
:1048C00004F16C0A4046FFF7B1FA04F1980750462C
:1048D000FFF7ACFA04F1E0063846FFF7BDFA04F53D
:1048E000947930461FF05EF848461EF0FDFE04F550
:1048F000B27318460CEE903A1EF0F6FE04F5D07333
:1049000018460DEE103A1EF0EFFE04F5EE73184651
:104910000DEE903A1EF0E8FE04F5067318460EEE12
:10492000103A1EF0E1FE04F5157318460EEE903AAB
:104930001EF0DAFE04F5247318460FEE103A1EF04E
:10494000D3FE04F53373184609EE103AFFF784FAE4
:1049500004F54573184608EE103AFFF795FF04F585
:104960005873184608EE903AFFF78EFF04F56B7304
:10497000184609EE903AFFF76FFA04F57D73184672
:104980000AEE103AFFF780FF04F5886318460AEE36
:10499000903AFFF779FF04F28C4318460BEE103A79
:1049A000FFF75AFA04F2D44318460BEE903AFFF799
:1049B0006BFF04F5A46318460CEE103AFFF764FF92
:1049C00004F26C5318460FEE903AFFF72FFAA34B00
:1049D000C4F81036A24BC4F818364FF4A0735A46E8
:1049E000404600935946F023C4F81446C4F81CB658
:1049F000251DFFF708FA4FF07F434146A36628467E
:104A000017F0C3FE4FF4A0735A4650460093594620
:104A1000F023FFF7F8F9934BC4F894305146284639
:104A200017F0B3FE0F2238461421FFF7DFF90DF11E
:104A300008088D4BC4F8C83039464046A4F8CCB0BD
:104A40001DF0B6FF98E8070004F1D40383E80700DF
:104A5000864B0A93384668230AA9ADF82C301EF01D
:104A600041FA3946284617F090FE30460722C52104
:104A7000FFF7BCF902230AAA09A93046ADF8243091
:104A80000323ADF828301EF060FC6723A4F818312A
:104A90003046FFF703FA04F5C26A4FF0FF323146A1
:104AA000C4E947222846C4F808A117F06EFE48461C
:104AB0004FF482724121FFF799F94FF00A02ADF8E5
:104AC0001C20ADF8202009A94FF010020B46ADF8CC
:104AD0002420ADF8282008A90AAA484600920A46D0
:104AE00007A91EF06CFD1E23C4F860314946284614
:104AF000C4F850A117F049FE1CEE900AA0221D2117
:104B0000FFF774F909A90B460AAA08A901276FF053
:104B100006164FF015091CEE900A00920A4607A9E6
:104B2000ADF81C70ADF82490ADF82890ADF820B029
:104B30001EF045FD1CEE901AC4F89C612846C4F88E
:104B40008CA117F022FE1DEE100AA0226B21FFF7A8
:104B50004DF94FF0100209A80346ADF8282008A827
:104B60000AAA009207A902461DEE100AADF81C70B1
:104B7000ADF82490ADF820B01EF021FD1DEE101A06
:104B8000C4F8D8612846C4F8C8A117F0FEFD1DEE90
:104B9000900AD2221D21FFF729F909A803460AAA83
:104BA00008A84FF01409009207A902461DEE900ACA
:104BB000ADF81C70ADF820B0ADF82490ADF8289099
:104BC0001EF0FDFC1DEE901AC4F814622846C4F8CD
:104BD00004A217F0DAFD1EEE100AD2226B21FFF7B5
:104BE00005F909A803460AAA08A8009207A90246DF
:104BF0001EEE100AADF81C70ADF820B0ADF8249090
:104C0000ADF828901EF0DBFC1EEE101AC4F85062BE
:104C10002846C4F840A217F0B8FD1EEE900AA02264
:104C2000AF21FFF7E3F84FF01002ADF828200AAAF1
:104C30004FF01501009209AA13461EEE900A08AA29
:104C4000ADF8241007A9ADF81C70ADF820B01EF027
:104C5000B6FC1EEE901A0BE08CCB030874CB030855
:104C6000FD4700082B2B2BFF808080FFECC703083B
:104C7000C4F88C622846C4F87CA217F086FD1FEEAB
:104C8000100AD222AF21FFF7B1F80AAA009209AAAE
:104C900013461FEE100A08AA07A9ADF81C70ADF85C
:104CA00020B0ADF82490ADF828901EF088FC1FEEDF
:104CB000101AC4F8C8622846C4F8B8A217F065FDF7
:104CC00019EE100A56222521FFF790F84FF07F4287
:104CD00019EE101AC4F8FC224046A4F800B31DF0E7
:104CE00067FE98E8070004F5427383E807001F4B4E
:104CF0000A9319EE100A5F230AA9ADF82C301EF0B2
:104D0000F1F819EE101A284617F03FFD7E2218EE32
:104D1000100A1D21FFF76AF84FF07F43C4F84433AF
:104D2000D4F81433A4F848B3D3F88430104E18EEF6
:104D3000101A4046984798E8070004F5547383E832
:104D40000700336804F5B3672BB90A4B0A4A6021A0
:104D50000A4833F0EBFFDFF82C90B9F80030542B01
:104D600012D8074B044A6121F2E700BFECC70308E1
:104D7000E04201201FC703087EC803089CC7030840
:104D800040C80308E4420120DFF89CA35421DAF86C
:104D900000000EF01DFFDF4A03460A21384624F0CA
:104DA000F9FD18EE100AC4F85C731EF07BF8DA4FB8
:104DB0000A975C2318EE100A0AA9ADF82C301EF0F1
:104DC00091F818EE101A284617F0DFFC362218EE7C
:104DD000900A1D21FFF70AF8D04BC4F89033D4F89D
:104DE0006033A4F894B3D3F8843018EE901A404698
:104DF000984798E8070004F5677383E8070033686D
:104E000004F2AC57002BA0D0B9F80030502BA8D931
:104E10005021DAF800000EF0DBFEBE4A03460A21FC
:104E2000384624F0B7FD18EE900AC4F8A8731EF0B7
:104E300039F8B94F0A97512318EE900A0AA9ADF82C
:104E40002C301EF04FF818EE901A284617F09DFCF3
:104E500019EE900A56227021FEF7C8FF4FF07F42EC
:104E600019EE901AC4F8DC234046A4F8E0B31DF014
:104E70009FFD98E8070004F57A7383E807005E2336
:104E800019EE900A0AA9ADF82C300A971EF02AF8FC
:104E900019EE901A284617F078FC7E221AEE100AB6
:104EA0007021FEF7A3FF4FF07F423368C4F824243B
:104EB0004FF0FF32A4F828B4C4F830B4C4F8342456
:104EC000C4F838B404F5B867002B3FF43EAFB9F826
:104ED0000030532B7FF645AF5321DAF800000EF077
:104EE00077FE8C4A03460A21384624F053FD1AEE19
:104EF000100AC4F83C741DF0D5FF874F0A975B2356
:104F00001AEE100A0AA9ADF82C301DF0EBFF1AEECC
:104F1000101A284617F039FC36221AEE900A702132
:104F2000FEF764FF7D4BC4F870343368A4F874B4A2
:104F30004FF0FF32C4F87CB4C4F88024C4F884B4C1
:104F400004F2D457002B3FF400AFB9F800304E2BD9
:104F50007FF607AF4E21DAF800000EF039FE6D4AF9
:104F600003460A21384624F015FD1AEE900AC4F8CB
:104F700088741DF097FF684F0A974F231AEE900A26
:104F80000AA9ADF82C301DF0ADFF1AEE901A284694
:104F900017F0FBFB1BEE100A5622BA21FEF726FF84
:104FA0004FF07F421BEE101AC4F8BC244046A4F810
:104FB000C0B41DF0FDFC98E8070004F5996383E890
:104FC00007005D231BEE100A0AA9ADF82C300A97E2
:104FD0001DF088FF1BEE101A284617F0D6FB7E2224
:104FE0001BEE900AA221FEF701FF4FF07F423368CB
:104FF000C4F804254FF0FF32A4F808B5C4F810B582
:10500000C4F81425C4F818B504F5BD67002B3FF4A7
:105010009CAEB9F80030522B7FF6A3AE5221DAF8DD
:1050200000000EF0D5FD3B4A03460A21384624F025
:10503000B1FC1BEE900AC4F81C751DF033FF364F0F
:105040000A975A231BEE900A0AA9ADF82C301DF0DE
:1050500049FF1BEE901A284617F097FB1CEE100A2A
:105060003622A221FEF7C2FE2C4BC4F850354FF079
:10507000FF33C4F860352A4B1B684FF00008A4F8D2
:105080005485C4F85C85C4F8648504F2FC59002B8F
:105090003FF45BAE234B1B884C2B7FF662AEDAF8F5
:1050A00000004C210EF094FD1A4A03460A2148469E
:1050B00024F070FC1CEE100AC4F868951DF0F2FE96
:1050C0004D231CEE100A0AA9ADF82C300A971DF0EA
:1050D00009FF1CEE101A284617F057FB4FF4A07377
:1050E0001FEE900A009342464146F023FEF78BFEE6
:1050F0004FF07F4328461FEE901AC4F8943584F889
:10510000928517F042FB20460DB0BDEC108BBDE838
:10511000F08F00BFB6C80308ECC70308787329FFF7
:10512000E0420120E4420120EC4201207047704738
:1051300070470368DB6A1847704730B4C268446838
:105140005510034604EB6200D20748BF62599B68C2
:1051500030BC48BFD358184743682BB183682BB97C
:10516000C06800F001007047184670470120704782
:1051700010B51021044632F093FE204610BD00F118
:105180009803994270B504460D4603D120F084FF80
:1051900001F0A8F804F254639D4203D120F07CFF93
:1051A00001F020F904F538739D4203D120F074FF1B
:1051B00001F0F8F804F2E4739D4203D120F06CFF93
:1051C00001F0D0F804F2EC539D4203D120F064FFCB
:1051D00001F0F8F804F59E639D4203D120F05CFFD6
:1051E00001F010F904F50E639D4203D120F054FF45
:1051F00001F0C8F804F608339D420CD1002384F86E
:10520000313A04F60C2022F007F8236820461B6B85
:10521000BDE87040184770BD4FF480710022818452
:1052200005490160C0E90122C0E90322C0E9052265
:10523000C0E907228262704758FA03080022C0E9D9
:105240000122C0E90322C0E90522C0E907224FF488
:1052500080728284014A0260704700BFDCCB030881
:1052600000224FF0FF31C0E900218260704700004A
:105270002DE9F04F2DED108B0446A3B022F066FE11
:1052800022464FF00009E94BC4F83C9042F8403BFD
:1052900010460CEE102AFEF7C9FD04F16C0304F170
:1052A0009808184604F1E0070293FEF7BFFD404658
:1052B00004F5947A1EF076FB3846FEF7CDFD504695
:1052C00017F02AFE04F5087318460CEE903AFFF723
:1052D000A3FF04F5137318460DEE103AFEF7BCFD5C
:1052E00004F52573184609EE103AFFF7CDFA04F5D8
:1052F000387318460C931EF0F7F904F547731846F7
:1053000009EE903AFFF788FF04F5527318460DEE48
:10531000903AFEF7A1FD04F56473184604F577761C
:105320000AEE103AFFF7B0FA304615F08FFF04F29C
:10533000DC4318461793FCF70BFDBD4BC4F8DC3477
:105340002433C4F8E43404F59E631846C4F8E894A2
:105350000D931EF0C9F904F22C5318460EEE103AC4
:10536000FFF75AFF04F5AB6318460EEE903AFEF7CE
:1053700073FD04F5B46318460FEE103AFFF784FA94
:1053800004F2EC5318460E931EF0AEF904F5C56313
:1053900018460FEE903AFFF73FFF04F254631846A9
:1053A0000F931EF0A1F904F5D26318460393FEF79C
:1053B00053FD04F5DB6318460493FFF765FA04F226
:1053C000247318460593FFF727FF04F5EA63184690
:1053D0000693FFF759FA04F29C7318460AEE903AC6
:1053E000FEF73AFD04F2E473184610931EF07CF9C0
:1053F00004F5026318460793FFF70EFF04F64C030B
:1054000018460893FFF740FA04F6980318460BEE87
:10541000103AFEF721FD04F50E63184611931EF0B5
:1054200063F904F61C13184608EE903A17F0E8F8F2
:1054300004F6B41318461293FEF7F8FC04F51E6345
:1054400018461393FEF7F2FC04F60C23184608EEF8
:10545000103AFFF7E1FE04F6382318461493FEF7DE
:10546000E5FC04F6642318461593FEF7DFFC04F50B
:1054700029630BEE903A26224FF6FF7549461846EF
:10548000ADF87C5034F0DDFA1BEE900AFFF7D6FE43
:10549000684BC4F8903A84F8B85ABDF87C30A4F848
:1054A000B63A1FAD29461BEE900A1EF044F904F6E9
:1054B000BC2318460993FFF7E7F904F608331846AA
:1054C0000A931EF06FFA04F5356318460B93FFF745
:1054D000DBF904F69C3318461693FEF7A7FC04F597
:1054E0008053554AC3F8DC2A544AC3F8E42AC3F867
:1054F000E04AC3F8E89A4FF4616104F6CC401FF02B
:105500000DF94FF4A0734A461CEE100A0093494669
:10551000F023FEF778FC04F1040B4FF07F431CEE00
:10552000101AA366584617F030F94FF4A0734A4694
:10553000029800934946F023FEF765FC404BC4F8FF
:1055400094300299584617F020F940460722C521A9
:10555000FEF74CFC02232A461EA94046ADF87830DF
:105560000323ADF87C301DF0F0FE6F234046A4F815
:10557000D030FEF793FC4FF0FF33C4E9353304F528
:10558000D6531C33C4F8C03041465846029317F036
:10559000FCF80D2238461B21FEF728FC0DF16008AF
:1055A000284BC4F8103139464046A4F814911DF038
:1055B000FFF998E8070004F58E7383E80700224B93
:1055C0001F934FF06E0238462946ADF880201DF03B
:1055D00089FC3946584617F0D8F81F2249465046EC
:1055E000FEF704FC0E23ADF878302A460F231EA9DF
:1055F0005046ADF87C3017F02FFDF0225421504674
:1056000017F0D6FB3221504617F04BFB32215046A3
:1056100017F0CCFB0D4A0E4FC4F828221DEE100ADD
:105620001E224C21FEF7E2FB14E000BF5CCC030815
:1056300024FD03084008040844CC03087F510008F7
:105640002B2B2BFF999999FFECC70308F00005015C
:10565000FFF700FF1DEE101AC4F87C724046A4F854
:1056600080921DF0A5F998E8070004F5227383E8FD
:1056700007001E4B1F931DEE100A4FF0140329461E
:10568000ADF880301DF02EFC1DEE101A1CEE900AB5
:1056900017F07BF86D2219EE100A5121FEF7A6FBD8
:1056A000D4F89432C4F8C472D3F88430A4F8C89201
:1056B00019EE101A4046984798E8070004F534732D
:1056C00083E807000A4B1B6804F6C8372BB9094B5F
:1056D000094A6021094833F029FB094B1B88122B2A
:1056E00012D8084B044A6121F4E700BFECC7030855
:1056F000E04201201FC703087EC803089CC70308B7
:10570000E442012040C80308E04B122118680EF063
:105710005FFADF4A03460A21384624F03BF919EEC6
:10572000100AC4F8DC721DF0BDFB4FF01301D94F15
:10573000ADF8801019EE100A29461F971DF0D2FB14
:1057400019EE101A1CEE900A17F01FF80C98C922D7
:105750000521FEF74BFB4FF004004FF013014FF013
:1057600010031EAA4FF0050CADF87000ADF87810CC
:105770000C98ADF87C301CA9134600951DAAADF815
:1057800074C01DF01CFF4FF00511C4F818130299E6
:10579000C4F808131CEE900A0C9916F0F6FF1CEEE4
:1057A000901A504617F0CFFCBB49C4F824131A22B4
:1057B0001DEE900A2021FEF719FBB84BC4F8783390
:1057C0001DEE901A4046A4F87C931DF0F1F898E87D
:1057D000070004F5617383E807006C231DEE900A4F
:1057E0002946ADF880301F971DF07CFB1DEE901A06
:1057F00019EE900A16F0C9FF40221AEE100A5B213A
:10580000FEF7F4FAA54BC4F8C033D4F89033A4F8EB
:10581000C493D3F884301AEE101A4046984798E89B
:10582000070004F5737383E807009D490B6804F6CD
:10583000DC37002B3FF44BAF9A480388212B7FF6CF
:1058400050AF924A212110680EF0C2F9904A0346E7
:105850001421384624F09EF81AEE100AC4F8D873C2
:105860008C4F1DF01FFB1AEE100A1F9729466D275B
:10587000ADF880701DF036FB1AEE101A19EE900A82
:1058800016F083FF30466B224121FEF7AFFA6E22FD
:1058900013463046009249464A4615F07BFC4B467B
:1058A000304664224946CDF8009015F003FD3722BA
:1058B0001146304615F003FC3046322115F029FC24
:1058C00030460A2115F02BFCD22230466FF05901E8
:1058D00015F0A9FC3046B42115F028FC0D23304604
:1058E0002946ADF87C3015F02CFE6F4BC4F8E83437
:1058F00040F29F73A4F8EC343046179915F0DCFBA6
:1059000030463C2115F073FC314619EE900A16F032
:105910003CFF0D98604EC9220521FEF767FA4FF053
:10592000040EADF870E04FF0050C0DF1700E4FF065
:1059300010031EAA71460D98ADF874C0ADF87C3006
:105940004FF0130C134600951DAAADF878C01DF05A
:1059500036FE4FF00512C4F82825029AC4F818251F
:105960000D9919EE900A16F010FF19EE901A504694
:1059700017F0E9FB1E221EEE900AC4F834653721A9
:10598000FEF734FA454BC4F888351EEE901A4046AF
:10599000A4F88C951DF00CF898E8070004F29453D5
:1059A00083E807003B4E1F9617231EEE900A2946F8
:1059B000ADF880301DF096FA1EEE901A1EEE100A19
:1059C00016F0E3FE3A4653211FEE100AFEF70EFAD8
:1059D000324BC4F8D035A4F8D4952846FFF740FCE4
:1059E00095E8070004F2DC5383E807002C490B68B4
:1059F00004F60446002B3FF46AAE2A480388152BB0
:105A00007FF66FAE214A152110680EF0E1F8204AAA
:105A100003460A21304623F0BDFF1FEE100AC4F8EA
:105A2000E8651DF03FFA1B4E1F9616231FEE100A65
:105A30002946ADF880301DF055FA1FEE101A1EEE03
:105A4000100A16F0A2FE0E98C9220521FEF7CEF923
:105A50004FF0040EADF870E04FF010030DF1780E2A
:105A60004FF0050CADF87C3073460DF1700E7146A9
:105A70000E98ADF874C01DAA4FF0130C0095ADF848
:105A800078C01DF09CFD4FF005120FE0EC420120A4
:105A9000B6C80308ECC70308F0000501FFF700FFD4
:105AA000E0420120E4420120FFF000FFC4F8242678
:105AB000029AC4F814260E991EEE100A16F065FE1E
:105AC0001EEE101A504617F03EFBD5490F98C4F849
:105AD0003016C9220521FEF789F91EA803464FF0AA
