:020000040800F2
:1000000000000320650F0008B13C0008B33C000865
:10001000B53C0008B73C0008B93C000800000000EF
:10002000000000000000000000000000C103010803
:10003000BB3C00080000000051040108D9FD000885
:10004000B50F0008B50F0008B50F0008B50F000880
:10005000B50F0008B50F0008B50F0008B50F000870
:10006000B50F0008B50F0008B50F0008B50F000860
:10007000B50F0008B50F0008B50F0008B50F000850
:10008000B50F0008B50F0008BD3C0008B50F00080B
:10009000B50F0008B50F0008B50F0008B50F000830
:1000A000B50F0008B50F0008B50F0008B50F000820
:1000B000B50F0008B50F0008B50F0008B50F000810
:1000C000B50F0008B50F0008B50F0008B50F000800
:1000D000B50F0008C93C0008B50F0008B50F0008AF
:1000E000B50F0008B50F0008B50F0008B50F0008E0
:1000F000B50F0008B50F0008B50F0008B50F0008D0
:10010000B50F0008B50F0008B50F0008B50F0008BF
:10011000B50F0008B50F0008D53C0008B50F000862
:10012000B50F0008B50F0008B50F0008B50F00089F
:10013000B50F0008B50F0008B50F0008B50F00088F
:10014000B50F0008B50F0008B50F0008B50F00087F
:10015000B50F0008B50F0008B50F0008B50F00086F
:10016000B50F0008B50F0008B50F0008B50F00085F
:10017000B50F0008B50F0008B50F0008000000001B
:10018000B50F0008B50F0008B50F0008B50F00083F
:10019000B50F0008B50F0008B50F0008B50F00082F
:0C01A000E13C0008B50F0008ED3C000831
:1001B00010B5054C237833B9044B13B10448AFF3A1
:1001C00000800123237010BDF40200200000000015
:1001D000B815030808B5034B1BB103490348AFF337
:1001E000008008BD00000000F8020020B8150308D8
:1001F00001F0FF01102A2BDB10F0070F08D010F8D8
:10020000013B013A8B422DD010F0070F42B3F6D1DB
:10021000F0B441EA012141EA014122F007047FF0F4
:1002200000070023F0E80256083C85EA010586EA4B
:10023000010685FA47F5A3FA87F586FA47F6A5FA87
:1002400087F68EB9EED1F0BC01F0FF0102F0070293
:1002500032B110F8013B013A83EA010313B1F8D13E
:100260000020704701387047002D06BF354603381F
:10027000073815F0010F07D1013015F4807F02BF58
:10028000013015F4C03F0130F0BC0138704700BFA9
:10029000034613F8012B002AFBD1181A01387047C6
:1002A00081F0004102E000BF83F0004330B54FEA27
:1002B00041044FEA430594EA050F08BF90EA020F94
:1002C0001FBF54EA000C55EA020C7FEA645C7FEA27
:1002D000655C00F0E2804FEA5454D4EB5555B8BF4A
:1002E0006D420CDD2C4480EA020281EA030382EABB
:1002F000000083EA010180EA020281EA0303362D4D
:1003000088BF30BD11F0004F4FEA01314FF4801C1F
:100310004CEA113102D0404261EB410113F0004F31
:100320004FEA03334CEA133302D0524263EB4303E8
:1003300094EA050F00F0A780A4F10104D5F1200E86
:100340000DDB02FA0EFC22FA05F2801841F10001E1
:1003500003FA0EF2801843FA05F359410EE0A5F1B5
:1003600020050EF1200E012A03FA0EFC28BF4CF0E6
:10037000020C43FA05F3C01851EBE37101F000459C
:1003800007D54FF0000EDCF1000C7EEB00006EEBA9
:100390000101B1F5801F1BD3B1F5001F0CD3490833
:1003A0005FEA30004FEA3C0C04F101044FEA44528A
:1003B00012F5800F80F09A80BCF1004F08BF5FEA11
:1003C000500C50F1000041EB045141EA050130BDF1
:1003D0005FEA4C0C404141EB0101013C28BFB1F503
:1003E000801FE9D291F0000F04BF01460020B1FA4E
:1003F00081F308BF2033A3F10B03B3F120020CDA21
:100400000C3208DD02F1140CC2F10C0201FA0CF0FE
:1004100021FA02F10CE002F11402D8BFC2F1200C63
:1004200001FA02F120FA0CFCDCBF41EA0C01904019
:10043000E41AA2BF01EB0451294330BD6FEA040462
:100440001F3C1CDA0C340EDC04F11404C4F120024D
:1004500020FA04F001FA02F340EA030021FA04F35F
:1004600045EA030130BDC4F10C04C4F1200220FAB6
:1004700002F001FA04F340EA0300294630BD21FAF4
:1004800004F0294630BD94F0000F83F4801306BFBA
:1004900081F480110134013D4EE77FEA645C18BFAE
:1004A0007FEA655C29D094EA050F08BF90EA020F45
:1004B00005D054EA000C04BF1946104630BD91EA3D
:1004C000030F1EBF0021002030BD5FEA545C05D140
:1004D0004000494128BF41F0004130BD14F580047F
:1004E0003CBF01F5801130BD01F0004545F0FE41F3
:1004F00041F470014FF0000030BD7FEA645C1ABF28
:10050000194610467FEA655C1CBF0B46024650EA5E
:10051000013406BF52EA033591EA030F41F400218A
:1005200030BD00BF90F0000F04BF0021704730B510
:100530004FF4806404F132044FF000054FF00001E5
:1005400050E700BF90F0000F04BF0021704730B5A6
:100550004FF4806404F1320410F0004548BF40427B
:100560004FF000013EE700BF42004FEAE2014FEAD0
:1005700031014FEA02701FBF12F07F4393F07F4FAB
:1005800081F06051704732F07F4208BF704793F0AE
:100590007F4F04BF41F40021704730B54FF46074C1
:1005A00001F0004521F000411CE700BF50EA0102C4
:1005B00008BF704730B54FF000050AE050EA01026D
:1005C00008BF704730B511F0004502D5404261EBDD
:1005D00041014FF4806404F132045FEA915C3FF41E
:1005E000D8AE4FF003025FEADC0C18BF03325FEABB
:1005F000DC0C18BF033202EBDC02C2F1200300FA6C
:1006000003FC20FA02F001FA03FE40EA0E0021FA90
:1006100002F11444BDE600BF70B54FF0FF0C4CF47E
:10062000E06C1CEA11541DBF1CEA135594EA0C0F30
:1006300095EA0C0F00F0DEF82C4481EA030621EA6B
:100640004C5123EA4C5350EA013518BF52EA0335A6
:1006500041F4801143F4801338D0A0FB02CE4FF058
:100660000005E1FB02E506F00042E0FB03E54FF088
:100670000006E1FB03569CF0000F18BF4EF0010E80
:10068000A4F1FF04B6F5007F64F5407404D25FEA7C
:100690004E0E6D4146EB060642EAC62141EA55512F
:1006A0004FEAC52040EA5E504FEACE2EB4F1FD0C71
:1006B00088BFBCF5E06F1ED8BEF1004F08BF5FEAEF
:1006C000500E50F1000041EB045170BD06F00046A1
:1006D00046EA010140EA020081EA0301B4EB5C044E
:1006E000C2BFD4EB0C0541EA045170BD41F4801146
:1006F0004FF0000E013C00F3AB8014F1360FDEBF6B
:10070000002001F0004170BDC4F10004203C35DA46
:100710000C341BDC04F11404C4F1200500FA05F3C9
:1007200020FA04F001FA05F240EA020001F000426A
:1007300021F0004110EBD37021FA04F642EB0601E0
:100740005EEA430E08BF20EAD37070BDC4F10C040A
:10075000C4F1200500FA04F320FA05F001FA04F2CE
:1007600040EA020001F0004110EBD37041F10001BA
:100770005EEA430E08BF20EAD37070BDC4F12005C5
:1007800000FA05F24EEA020E20FA04F301FA05F22D
:1007900043EA020321FA04F001F0004121FA04F2D5
:1007A00020EA020000EBD3705EEA430E08BF20EAA5
:1007B000D37070BD94F0000F0FD101F000464000DF
:1007C00041EB010111F4801F08BF013CF7D041EA61
:1007D000060195F0000F18BF704703F00046520065
:1007E00043EB030313F4801F08BF013DF7D043EA36
:1007F0000603704794EA0C0F0CEA135518BF95EAEC
:100800000C0F0CD050EA410618BF52EA4306D1D172
:1008100081EA030101F000414FF0000070BD50EA91
:10082000410606BF1046194652EA430619D094EA1B
:100830000C0F02D150EA013613D195EA0C0F05D105
:1008400052EA03361CBF104619460AD181EA030159
:1008500001F0004141F0FE4141F470014FF0000011
:1008600070BD41F0FE4141F4780170BD70B54FF0AC
:10087000FF0C4CF4E06C1CEA11541DBF1CEA13552C
:1008800094EA0C0F95EA0C0F00F0A7F8A4EB05040E
:1008900081EA030E52EA03354FEA013100F0888005
:1008A0004FEA03334FF0805545EA131343EA1263CE
:1008B0004FEA022245EA111545EA10654FEA002683
:1008C0000EF000419D4208BF964244F1FD0404F53C
:1008D000407402D25B084FEA3202B61A65EB030598
:1008E0005B084FEA32024FF480104FF4002CB6EB55
:1008F000020E75EB030E22BFB61A754640EA0C00D5
:100900005B084FEA3202B6EB020E75EB030E22BF14
:10091000B61A754640EA5C005B084FEA3202B6EB55
:10092000020E75EB030E22BFB61A754640EA9C0014
:100930005B084FEA3202B6EB020E75EB030E22BFE4
:10094000B61A754640EADC0055EA060E18D04FEAA2
:10095000051545EA16754FEA06164FEAC30343EA42
:1009600052734FEAC2025FEA1C1CC0D111F4801F0F
:100970000BD141EA00014FF000004FF0004CB6E708
:1009800011F4801F04BF01430020B4F1FD0C88BFA7
:10099000BCF5E06F3FF6AFAEB5EB030C04BFB6EBB2
:1009A000020C5FEA500C50F1000041EB045170BDA5
:1009B0000EF0004E4EEA113114EB5C04C2BFD4EBD2
:1009C0000C0541EA045170BD41F480114FF0000E56
:1009D000013C90E645EA060E8DE60CEA135594EAD2
:1009E0000C0F08BF95EA0C0F3FF43BAF94EA0C0FD5
:1009F0000AD150EA01347FF434AF95EA0C0F7FF44A
:100A000025AF104619462CE795EA0C0F06D152EA9D
:100A100003353FF4FDAE1046194622E750EA410681
:100A200018BF52EA43067FF4C5AE50EA41047FF492
:100A30000DAF52EA43057FF4EBAE12E74FF0FF3CF7
:100A400006E000BF4FF0010C02E000BF4FF0010CC8
:100A50004DF804CD4FEA410C7FEA6C5C4FEA430C41
:100A600018BF7FEA6C5C1BD001B050EA410C0CBF90
:100A700052EA430C91EA030F02BF90EA020F0020F2
:100A8000704710F1000F91EA030F58BF994208BF59
:100A900090422CBFD8176FEAE37040F00100704716
:100AA0004FEA410C7FEA6C5C02D150EA013C07D16D
:100AB0004FEA430C7FEA6C5CD6D152EA033CD3D0B8
:100AC0005DF8040B704700BF8446104662468C46B2
:100AD0001946634600E000BF01B5FFF7B7FF0028E5
:100AE00048BF10F1000F01BD4DF808EDFFF7F4FF0E
:100AF0000CBF012000205DF808FB00BF4DF808ED99
:100B0000FFF7EAFF34BF012000205DF808FB00BFBB
:100B10004DF808EDFFF7E0FF94BF012000205DF8DD
:100B200008FB00BF4DF808EDFFF7CEFF94BF012092
:100B300000205DF808FB00BF4DF808EDFFF7C4FF8B
:100B400034BF012000205DF808FB00BF4FEA410CD4
:100B50007FEA6C5C02D150EA013C0AD14FEA430CB7
:100B60007FEA6C5C02D152EA033C02D14FF00000F4
:100B700070474FF0010070474FEA410212F5001232
:100B800015D211D56FF47873B3EB625212D94FEAD4
:100B9000C12343F0004343EA505311F0004F23FABE
:100BA00002F018BF404270474FF00000704750EA13
:100BB000013005D111F0004008BF6FF000407047D0
:100BC0004FF00000704700BF7BB972B90029BEBF6B
:100BD00000204FF0004106E008BF00281CBF6FF066
:100BE00000414FF0FF3000F0BBB9ADF1080C6DE9EA
:100BF00004CE002909DB002B1ADB00F04DF8DDF8EC
:100C000004E0DDE9022304B07047404261EB41019A
:100C1000002B1BDB00F040F8DDF804E0DDE90223E7
:100C200004B0404261EB4101524263EB4303704721
:100C3000524263EB430300F02FF8DDF804E0DDE9F6
:100C4000022304B0404261EB41017047524263EB22
:100C5000430300F021F8DDF804E0DDE9022304B0ED
:100C6000524263EB4303704753B94AB9002908BFA6
:100C700000281CBF4FF0FF314FF0FF3000F070B97B
:100C8000ADF1080C6DE904CE00F006F8DDF804E0E3
:100C9000DDE9022304B070472DE9F047089E0D46B8
:100CA00004460F46002B4AD18A42944665D9B2FACF
:100CB00082F343B102FA03FCC3F120029F4020FA01
:100CC00002F217439C404FEA1C4E1FFA8CF5B7FB0B
:100CD000FEF1220C0EFB117742EA074201FB05F000
:100CE00090420AD91CEB020201F1FF3780F01C810F
:100CF000904240F2198102396244121AA4B2B2FB46
:100D0000FEF00EFB102244EA024400FB05F5A5426A
:100D10000AD91CEB040400F1FF3280F00781A542E0
:100D200040F204816444023840EA0140641B00211F
:100D30001EB1DC400023C6E90043BDE8F0878B42CA
:100D400008D9002E00F0ED800021C6E90005084614
:100D5000BDE8F087B3FA83F1002949D1AB4202D351
:100D6000824200F2F880841A65EB030201201746E4
:100D7000002EE2D0C6E90047DFE702B9FFDEB2FA93
:100D800082F3002B40F090808A1A4FEA1C471FFA2A
:100D90008CFE0121B2FBF7F507FB1520220C42EA7D
:100DA00000420EFB05F0904208D91CEB020205F14F
:100DB000FF3802D2904200F2CB804546121AA4B20C
:100DC000B2FBF7F007FB102244EA02440EFB00FEE0
:100DD000A64508D91CEB040400F1FF3202D2A64557
:100DE00000F2BB801046A4EB0E0440EA05409FE7EA
:100DF000C1F120078B4022FA07FC4CEA030C05FAEC
:100E000001F420FA07F3FD404FEA1C492343B5FBE8
:100E1000F9F81FFA8CFE09FB18551C0C44EA05442E
:100E200008FB0EF5A54202FA01F200FA01F00BD917
:100E30001CEB040408F1FF3A80F08880A54240F2E0
:100E40008580A8F102086444641B9DB2B4FBF9F3E9
:100E500009FB134445EA044403FB0EFEA64508D9EA
:100E60001CEB040403F1FF356CD2A6456AD9023BA2
:100E7000644443EA0843A3FB0295A4EB0E04AC428E
:100E8000C846AE4656D353D056B1B0EB080264EB19
:100E90000E0404FA07F7CA40CC401743C6E90074B1
:100EA00018460021BDE8F087C3F1200102FA03FCD7
:100EB00020FA01F225FA01F19D402A434FEA1C472E
:100EC0001FFA8CFEB1FBF7F007FB1015110C41EA7D
:100ED000054100FB0EF58D4204FA03F408D91CEB22
:100EE000010100F1FF382FD28D422DD90238614423
:100EF000491B92B2B1FBF7F507FB151142EA01421B
:100F000005FB0EF1914208D91CEB020205F1FF38F6
:100F100016D2914214D9023D6244521A45EA004168
:100F200038E73146304608E73946E6E61046FBE644
:100F30004845A9D2B9EB020865EB0C0E013BA3E7CB
:100F40004546EAE72B4694E74046D1E7D0467BE7A3
:100F5000023D624432E708460AE76444023842E749
:100F6000704700BFDFF834D0002103E00C4B5B5822
:100F7000435004310B480C4B42189A42F6D30B4AAB
:100F800002E0002342F8043B094B9A42F9D30BF0EC
:100F90002BFC2EF049FB02F0CBF970470000032038
:100FA000DC7B070800000020F4020020F40200208F
:100FB000DC3D0120FEE7704708B500F065FDBDE8A7
:100FC000084000F0E9BC00F061BD704710B5042195
:100FD00004462CF043FC204610BD000038B50C4BF5
:100FE0000C4C18800C4B822019806368984740F69F
:100FF000110398420AD1094D23682C60822098473A
:101000002B688220DB689847002038BD0120FCE770
:1010100010030020700000201203002014030020A1
:101020004FF4A071F020FFF7D9BF0000F7B5334DA2
:101030002B6804461B698220984780B220800028D4
:101040004AD02B680DF106025B6901A982209847FE
:10105000BDF8063040F6746293423FD9ADF80620E1
:10106000BDF80630D21A92B20A2A3DD90B23B2FB40
:10107000F3F2234B1B889A4201D9013B9AB2BDF887
:10108000043040F6B8318B4230D8C3F571630E336B
:101090009BB20F21B3FBF1F31A4909888B4201D9A6
:1010A00001398BB2184E194D30682F68834281B2D6
:1010B0008CBF591AC91AB8B2BA428CBF101A801A1A
:1010C00089B280B201440529C8BF33603368C8BF04
:1010D0002A6063802B68A38003B0F0BDB32B9CBF54
:1010E000B423ADF80630BBE70022C8E7C3F56D6353
:1010F00008339BB20E2BCCD80023D3E71403002077
:101100001203002010030020180300201C030020FD
:1011100037B568460D461446FFF788FFBDF8000056
:1011200030B1BDF802302B60BDF8043023600120DF
:1011300003B030BD032821D8DFE800F0020B1219FC
:101140000F4B1A68B2FA82F2520904210D480CF0D2
:1011500003B90B4B5A68B2FA82F252090821F5E73B
:10116000074B9A68B2FA82F252091021EEE7044B5B
:10117000DA68B2FA82F252092021E7E7704700BF2D
:101180002003002000100240032821D8DFE800F0EF
:10119000020B12190F4B1A68003A18BF01220421E2
:1011A0000D480CF0D9B80B4B5A68003A18BF012211
:1011B0000821F5E7074B9A68003A18BF0122102171
:1011C000EEE7044BDA68003A18BF01222021E7E776
:1011D000704700BF200300200010024003280DD8F4
:1011E000DFE800F00206080A042105480CF0B9B84F
:1011F0000821FAE71021F8E72021F6E7704700BF41
:101200000010024008B5032811D8DFE800F0020AF8
:101210000C0E042107480CF099F8431E584258411F
:1012200008BD0821F6E71021F4E72021F2E70020AD
:10123000F3E700BF0010024070B5084D00240126FE
:10124000E0B2FFF7DFFF18B12B68012B18BF2E604B
:101250000134052C05F10405F2D170BD20030020F6
:10126000012380F8781080F87930704700207047AB
:10127000034B4164003918BF01211970704700BF4A
:10128000A331012000207047836B0BB1084618473B
:1012900070474FF6FF707047406803689B691847B6
:1012A000704770477047000010B5044600F004FD19
:1012B00023680349D3F88C302046BDE81040184716
:1012C000000000D008B503680446D3F88030984782
:1012D000236820469B6F984700F0ECF8236820466F
:1012E0001B6F9847292002F0E9F800F0E3F8236823
:1012F00020461B6F9847F8E710B5044613F02CFD05
:1013000023682046D3F8AC30BDE81040184700F001
:10131000B5BC00F0B9BC00F0EDBC00F08BBC00F037
:1013200009BD00F0F3BC00F08FBC12F080BF10B517
:101330007C2104462CF092FA204610BD90F87A30B9
:101340001BB1406803681B681847184670470000C7
:1013500010B590F8341090F878400C4B8C421A7805
:1013600009D03AB90A4A0B491488088810800C80C1
:1013700001221A7010BD002AFCD0054A05491488C4
:10138000088810800C800022F3E700BF9C31012008
:10139000983101209A31012070B50D46194635B9B2
:1013A000094B0A4A0A4840F2D2212DF09DF9C0E9C2
:1013B0000F52084B003A18BF01221A700368BDE8AB
:1013C0007040D3F88C301847BC160308F416030895
:1013D00042170308A231012008B5094B1B888B4234
:1013E00003D8084B1B88934205D9074B074A084886
:1013F0009E212DF079F9074B1980074B1A8008BD03
:10140000983101209A31012087170308EA17030851
:10141000421703089E310120A0310120012108B5A7
:10142000002208460EF0E5FC0A4B186028B90A4B6A
:101430000A4A28210A482DF057F9002204210120E8
:101440000EF074FD074B186018B9074B034A2C21A6
:10145000F0E708BD340300200819030851190308F8
:101460008019030830030020041A0308024B4FF0D0
:10147000FF3118680EF007BD34030020014B1868D7
:101480000EF02CBD34030020024B002118680EF032
:10149000FABC00BF34030020FFF7F0BF0348044943
:1014A000006800231A460EF07CBD00BF3003002008
:1014B0000400002013B5084C00231A4601A9206837
:1014C0000EF09FFD20684FF0FF33002201A90EF0BF
:1014D00098FD02B010BD00BF3003002003685B6CB4
:1014E00018470120704703689B6A184740F2EF30A5
:1014F00070470000054B0360054B4FF08062C3F856
:101500008820BFF34F8FBFF36F8F7047D81B03083E
:1015100000E100E010B504464FF45A61FFF7EAFF1E
:1015200020462CF09BF9204610BD000082B000231D
:1015300001930D4B1A6B42F400021A631A6B02F40A
:1015400000020192019A1A6942F400021A611A69B2
:1015500022F400021A61054B054A1A61054B4FF04F
:1015600080629A6002B0704700380240981F0020E5
:101570007915000800E100E0024B1B685868036819
:101580005B691847A431012070B5044625460A4B13
:101590000C30002660602672667245F8203B60229F
:1015A000294613F031FD04F55A63EE602435AB4251
:1015B000FBD1204670BD00BFD81B030808B50B291E
:1015C0000BD8DFE801F01206100A0A0A0A08080818
:1015D0000808012008BD0520FCE7054B054A064820
:1015E00065212DF081F80020F4E70220F2E700BF2A
:1015F000461A0308611A0308AB1A030808B50A293A
:1016000009D8DFE801F010060E08080808060606EB
:101610000600012008BD054B054A064886212DF02D
:1016200063F80020F6E70220F4E700BF461A03083B
:101630002D1B0308AB1A03082DE9F84391F81D8010
:101640000C4641460746FFF7B9FF94F81E90054641
:1016500049463846FFF7B2FF494606463846FFF787
:10166000CDFFA18A628B434B521A1A649A61228B76
:10167000521A1A61E28A586342EA01425A642069A6
:101680006268D863DA602768802F28D0227F0FD85D
:10169000202F65D0402F63D0042F1AD0354B45EA58
:1016A000026545F40035C845DD615FD0324A44E04B
:1016B000B7F5807F04D0B7F5007FEFD12F4900E068
:1016C0002F4941EA0262DA61E2681A625E62586199
:1016D00032E045EA026242F40032DA61F6E7A768D6
:1016E0003A1DDA62217F3A7845EA016545F4003512
:1016F000DD615E62586142B1012A21D0214B224A4C
:1017000022484FF488712CF0EFFFDA69798822F4CF
:101710007F42013922F0100242EA0122DA610121FE
:10172000144BDA6942F02002DA61DA699206FCD4DD
:1017300010229A600029B9D0154A1A60BDE8F883D2
:10174000DA69788822F47F42013822F0100242EAF6
:101750000022FF3942F0100218BF0121DA61DFE7F1
:1017600045EA0262034B42F40032B6E740F201223E
:10177000E3E700BF00B002400102010009000200DF
:101780000A000200781B0308921B0308AB1A030827
:101790000102020038B50C46897FFFF72FFFA58AAA
:1017A000E28A164B2169586342EA05425A64628B09
:1017B000D963521B1A642568082D0ED19A611A61EB
:1017C0005862207F0E4A42EA0062DA61E2681A62D9
:1017D0000C4A5961D9601A6038BD0022D8611A617B
:1017E000E1680A0A480902F4784200F4FC60024306
:1017F000C1F3C4010A439A63034AECE700B0024014
:10180000090001000102020001020300034B1A68F3
:10181000D207FCD423229A60704700BF00B0024078
:1018200030B50F4C2568ED07FCD423250904A560CD
:1018300041F001010225FF2B65636164E0630AD07A
:101840000849656241EA0363E361074B2262606114
:10185000E060236030BDE561039BA363034BF8E7C1
:1018600000B0024009000100010002000100030075
:10187000012070470C2070470C2303FB0100083047
:1018800070470C2303FB01000830704701207047AC
:1018900040F68C20704740F68C2303FB0100083093
:1018A000704740F68C2303FB01000830704701208D
:1018B00070471020704700EB01100830704700EBB4
:1018C000011008307047084604F086BC10B5034B81
:1018D0000360044610F04FFC204610BD901C030826
:1018E00010B50446FFF7F2FF204614212BF0B6FF97
:1018F000204610BD10B5034B0360044610F03BFCBE
:10190000204610BD5C1C030810B50446FFF7F2FF2B
:10191000204640F694212BF0A1FF204610BD000088
:1019200010B5034B0360044610F025FC204610BDA3
:10193000281C030810B50446FFF7F2FF20461821C3
:101940002BF08CFF204610BD10B5084B03600446F9
:1019500000F52C60FFF7BAFF04F12C00FFF7CAFF77
:1019600004F11400FFF7DCFF204610BDC41C03087F
:1019700008B50248FFF7E8FF08BD00BF3C030020A0
:1019800010B50446FFF7E0FF20464FF448612BF006
:1019900065FF204610BD00002DE9F34103F022F859
:1019A000054603F023F80024014623462846224634
:1019B00000941DF073FD274B274A1A60204609F05A
:1019C000C3F8264B264A274D9A6027481DF0CEFCC7
:1019D0002B68BFF35B8FDB0735D428462BF040FF25
:1019E00088B3224C224B236004F6243604F1140001
:1019F00004F12C0804F52C676060C4F80880E760E7
:101A0000266110F0B9FB1B4B6361404610F0B4FB3C
:101A1000194BE362384610F0AFFB184BC4F8C03ADC
:101A200004F6D4200AF054F8224604F6D4213046B5
:101A300009F0B4FF304604F0CFFB11482CF072FEE1
:101A400028462BF019FF0F4802B0BDE8F041FFF720
:101A50002BBC00BF08320120F81D0020FC1D002017
:101A6000BC0F002038030020080000203C030020A9
:101A7000C41C0308281C03085C1C0308901C0308F2
:101A8000711900087C1D0020704700000148FFF715
:101A900019BC00BF7C1D002070B5244E244C254D80
:101AA000254B23603046FFF76FFD284621F0C8FF25
:101AB00022481BF045F9224B2248DC6000224FF4FB
:101AC0008071C3E9121220491A86C3E91A121F490C
:101AD00099671F4983F858200B60F02101801D4849
:101AE0005A6601801C4883F870204FF4A071C3E946
:101AF0000422C3E90622C3E90822C3E90A22C3E992
:101B00000E22C3E91022C3E91422C3E917225A673F
:101B1000C3E9016501801148018011490A70012261
:101B200083F834200F4A1A6070BD00BFDC0F00201C
:101B3000D80F0020FC1D0020AC160308BC0F0020AD
:101B40007C1D0020983101200100000100000101EE
:101B5000A43101209E3101209A310120A0310120C1
:101B60009C310120381803080148FFF7C3BC00BFAF
:101B7000DC0F00200020704781807047C1807047D3
:101B800001817047418170477047704770477047C7
:101B9000704710B4C4880368121B84885B6D091BEE
:101BA00012B25DF8044B09B218474FF6FF738381F8
:101BB0004FF0FF3303621368C3611060704790F801
:101BC00025201AB190F8242002B118607047002037
:101BD00070478B88838001207047704780F82610FB
:101BE000704790F82600704710B50022B1F9084000
:101BF000B1F90A10028042808480C18010BD0022A9
:101C0000028042808280C28070470177704780EDF9
:101C1000080A704780F82410704780F82510704734
:101C200001207047983070478C307047843070477F
:101C300070470000034B902283F85A2383F85823FF
:101C4000704700BF00E100E0094A0A49D3680A482A
:101C5000C3F30A03013B9BB20B801169C1F30A0174
:101C6000013901801364536B43F0010353637047E0
:101C7000006801408A1E0020881E0020014BD3F816
:101C8000AC00704700680140024B0122C3F8AC1061
:101C90005A627047006801407047704710B52C21A8
:101CA00004462BF0DBFD204610BD10B5BC210446D8
:101CB0002BF0D4FD204610BD70B5044612F00DFB8C
:101CC00023685D6E19F0C6FE01462046A8472368CA
:101CD000054AD3F888502046AC460023BDE8704042
:101CE000A2F51631604700BF00B004D012F0DCBA94
:101CF00012F0E6BA12F0A1BA12F003BC90F8252057
:101D000012B103685B69184770470000084B4FF039
:101D10008062C3F88820BFF34F8FBFF36F8F4FF0FF
:101D20008072C3F88820BFF34F8FBFF36F8F704767
:101D300000E100E0034B4FF080629A604FF0807248
:101D40009A60704700E100E070B50023124E838076
:101D5000124B0360336893F8582005460AB1D86CDB
:101D600000B998680368DB6A98473368B0FA80F472
:101D7000D86C640930B10368DB6A9847002808BF53
:101D800044F001042CB9064B064A07482C212CF0DC
:101D9000ABFC284670BD00BFA4310120D41D030850
:101DA000D01C03082E1D0308671D030870B5244EC0
:101DB0003568BFF35B8F15F001053FD130462BF03E
:101DC0004FFD00283AD01F4C1F4B256104F1340011
:101DD000C4E90035C4E90255E584A562A5851BF078
:101DE0000EFA04F1580014F009FD184BA3652046C3
:101DF000174B40F8843BFFF7A7FF164BC4F884301D
:101E00002433C4F88C306423C4E928350023C4F893
:101E1000AC30C4F8B030C4F8B430C4F8B8300E48B0
:101E20000E4BC4F89050C4F89C50C4F8A850C4F8A5
:101E300098302CF077FC30462BF01EFD014870BD29
:101E4000841E00208C1E0020DC520308F41D0308B1
:101E50006C1E030890520308311C000870520308DE
:101E600010B5144C236823B3134B144A1B6C118810
:101E70008B4213D1124B19880CF0CCFA226892F8DD
:101E80006A30013382F86A30FFF708FB206812F0ED
:101E900063FFBDE810400020FFF74CB90CF0BAFA20
:101EA000206803681B6A9847BDE810400020FFF7D0
:101EB0006BB910BDA4310120006801408A1E0020CA
:101EC000881E00200F48104A104908B54FF480338F
:101ED000C0E90023816200230122022183600261A4
:101EE000037680F82030C362C360C16180F830306F
:101EF00042610AF0C7FC18B1BDE8084001F096BB8A
:101F000008BD00BF481F0020002001400100000F55
:101F10001FB50023CDE90233052201230D48694690
:101F2000CDE900230AF0E0FE08B101F07FFB09488B
:101F30000AF04EFD4FF47A7106480AF0EEFD0548AE
:101F40000AF03EFE044B186002480AF0CBFD05B0D3
:101F50005DF804FB481F0020242100201FB500234A
:101F6000CDE90233072201230D486946CDE900235C
:101F70000AF0BAFE08B101F059FB09480AF028FD41
:101F80004FF47A7106480AF0C8FD05480AF018FEB9
:101F9000044B586002480AF0A5FD05B05DF804FB4B
:101FA000481F00202421002048B1836C3BB1C36C42
:101FB0002BB1006DB0FA80F04009404270474FF0FD
:101FC000FF30704773B502460846FFF7EDFF0C4639
:101FD000054648BBD343C978C3F3C013B1EB031F15
:101FE0004FEA031220D0E270A66C607801230DF155
:101FF0000702F321B04784F8540098B99DF80730E0
:10200000E278E66C607802F0100223F010031343CC
:102010008DF807300DF1070201237321B04784F8D2
:10202000540008B16FF00105284602B070BD37B505
:102030000446FFF7B9FF70B9A56C607801230DF174
:102040000702F321A84784F8540030B99DF80730FF
:1020500003F01003E37003B030BD6FF00100FAE746
:1020600003788B4281BF017092F8463043F002033F
:1020700082F84630002070472DE9F843064618469E
:102080001D46FFF791FF884691460446A8B9AB78F4
:102090003BB929463046FFF795FF044608B946F09C
:1020A0008006AF6C68784B4642463146B8470028F8
:1020B00085F8540018BF6FF001042046BDE8F8838E
:1020C0002DE9F0438BB01D4606460F46144600210D
:1020D000242201A800912DF092F92846FFF764FF11
:1020E000D0B9631E122B31D8E9468046A4B21FFA3C
:1020F00088F3A34213D378B96400013CEE6C9DF8D9
:1021000000106878A3B20DF10102B047002885F8ED
:10211000540018BF6FF001000BB0BDE8F083AA783F
:1021200016F808303AB918462946FFF74BFF16F85B
:10213000083003F07F0389F8003017F8083089F879
:10214000013008F1010809F10209D0E76FF003003E
:10215000E2E737B5E0238DF80630B62305468DF863
:102160000730FFF721FF044670B9AB787BB12B46EF
:1021700001220DF107010DF10600FFF7A1FF2B6D04
:1021800004460A2098474CB1204603B030BD28468B
:10219000FFF74DFF04460028F6D1E8E7AB78002BA7
:1021A000F2D1284603B0BDE83040FFF740BF30B55C
:1021B0008DB00546FFF7F8FE0446002840F0A580E4
:1021C0002846FFF7C6FF0446002840F09E802B46B5
:1021D00001222946D020FFF74FFF0446002840F097
:1021E00094802B78612B40F093800190014625224A
:1021F00002A82DF004F928468DF80340FFF7D4FE1D
:102200000446002840F081802B46192201A989202C
:10221000FFF732FF044638B92B4610220DF11D019D
:10222000E120FFF729FF0446BDF82530EB82BDF819
:1022300005302B839DF80730AB76BDF80930AB83B2
:10224000BDF80B30EB839DF80D3085F82030BDF8DC
:102250000F306B84BDF81130AB849DF8143085F8D5
:1022600026309DF8133085F82730BDF817302B85C0
:10227000BDF819306B859DF81B3085F82C309DF822
:102280001E309DF81F1003F00F0242EA01122A814E
:102290009DF81D201B0943EA02136B81089BEB602C
:1022A0009DF824302B749DF829306B74BDF82730CD
:1022B0006B829DF82A302B7514BB2B4601220DF141
:1022C00003010220FFF7D8FE9DF80330C3F301138A
:1022D00085F83430044698B92B4601220DF10301EC
:1022E000FFF7CAFE9DF8033085F83530044638B94B
:1022F0002B4601220DF103010420FFF7BDFE044629
:102300009DF903301B1185F8363020460DB030BDE5
:102310006FF00204F9E737B5742304468DF80730EF
:10232000FFF742FEA0BB0546234601220DF1060140
:102330007420FFF7A1FEA0B99DF8063013F0030545
:1023400011D023F003038DF80630012223460DF14E
:1023500006010DF10700FFF7B3FE236D0A20984731
:10236000E2E7002DE0D194F844208AB19DF80630D0
:1023700002F0030223F0030313438DF8063038B94B
:10238000234601220DF106010DF10700FFF798FE2B
:1023900003B030BDF0B589B00023064608460C46B0
:1023A0008DF807300493ADF814300693ADF81C3067
:1023B000FFF7FAFD002840F0FC8016F0080391F8C2
:1023C000447005D181F844302046FFF7A4FF07E0B0
:1023D000012FADF80C0000F0EE8081F844000120E0
:1023E00016F010051ED02246072104F13B00FFF72E
:1023F00037FE28B92346012269447520FFF73CFEC9
:1024000094F83B309DF807209B0022F01C0203F05B
:102410001C03134375228DF807308DF810208DF8BA
:1024200018300125B30622D52246082104F13D00CB
:10243000FFF716FE30B9234601220DF10701702087
:10244000FFF71AFE9DF8073094F83D2023F00803AB
:1024500002F00802134305F120026A44702101359D
:102460008DF8073002F8101C02F8083CEDB2B107F5
:1024700033D02246052104F13900FFF7F1FD30B9D0
:10248000234601220DF107017420FFF7F5FDF20745
:1024900009D59DF8073094F8392003F01F0343EA6B
:1024A00042138DF80730B3070BD594F83A309DF8F6
:1024B00007209B0003F01C0322F01C0213438DF83D
:1024C000073005F120036B44742203F8102C01350A
:1024D0009DF8072003F8082CEDB2710722D522469B
:1024E000052104F13800FFF7BBFD30B92346012276
:1024F0000DF107017220FFF7BFFD9DF8073094F83A
:10250000382023F0070302F00702134305F12002ED
:102510006A44722101358DF8073002F8101C02F868
:10252000083CEDB216F0C00F3AD02246012104F16A
:102530003E00FFF795FD60B90A2104F13C00FFF76A
:102540008FFD30B9234601220DF107017120FFF7FD
:1025500093FD72060BD594F83E309DF807201B01C1
:1025600003F0100322F0100213438DF807303306F6
:102570000AD59DF8073094F83C2023F00F0302F0B1
:102580000F0213438DF8073005F120036B447122CD
:1025900003F8102C01359DF8072003F8082CEDB244
:1025A00028B923462A4606A904A8FFF789FD84F81E
:1025B000447009B0F0BDB1F84020B1F91230B2F565
:1025C000C87F03F5163303F2991328BF4FF4C8727E
:1025D0005A431423B2FBF3F20A2302F54812B2FB6A
:1025E000F3F291F9113003F544735A4391F9043031
:1025F00091F9141013FB01F34FF47A7193FBF1F38B
:102600001B0203EB620394F834200432B3FBF2F3B1
:1026100094F9352083214A4302F58032B3FBF2F36B
:102620002222FA3B53433233642293FBF2F38DF8B8
:102630000C3046F25A43ADF80830B4F84230B3F5E6
:102640007C6F1AD23F2BC2B200F1010013D803EB0A
:102650008213DBB200258DF80D3084F83C50234600
:10266000022203A902A8FFF72BFD84F8445000289A
:102670007FF4B6AEA8E69B08E4E7FF23EAE7000094
:1026800013B5184B024618689B88ADF8043091F8D2
:102690003930009008336B4440F2AB7413F8080CE7
:1026A00091F83A3008336B4413F8083C034491F82E
:1026B00038000830684410F8080C184441F2B92377
:1026C00004FB00334FF47A70B3FBF0F301339BB299
:1026D000138091F83E0018B1B1F842100B441380FA
:1026E00002B010BDD01503082DE9F04F0646A9B081
:1026F0000846FFF759FC0C460546002840F08A8141
:102700000690CDE90400CDF81B000846FFF74CFC0D
:102710004FF00A080546002D40F0838123460F2222
:1027200004A91D20FFF7A8FC9DF810309DF8197032
:102730009DF81EC002979DF81D70039703F080015D
:102740000CF0300703F00F030F4373709DF8113046
:10275000B37005469DF812E09DF813909DF8143073
:102760009DF815A09DF816B09DF817209DF818004B
:1027700001973770002900F05181120942EA0B12CB
:1027800042EA0A32B4F816A094F91AB0029F4FEA4E
:102790004A0ACAEBD20A4FEAEA724FEA5A0141EA00
:1027A000C2714A43A1FB018101EB42014FEA183893
:1027B00048EA01584FEA0B124FEAEB7B091308FB7A
:1027C0000BFB02FB01BBB4F91810A8FB022881FB2C
:1027D0000A1AD844C90A920B41EA4A5142EA88428D
:1027E0000A4402EB82012263803152100912A2F5E1
:1027F0007A42B1804FEAA20A94F926800AFB0AFACB
:102800004FEAEA2B08FB0BFBB4F9248002FB08F823
:102810004FEA480808EBAB08B4F91EB01B0902FBED
:102820000BFB94F9202043EA09134FEA6A3A43EA82
:102830000E335201B4F922E0B4F928900AFB02F2F7
:10284000D2104FEA0E4E0EEBA80E02EB6B02C3F550
:102850008013B4F81CA0B4F92A80A3EB2E33921491
:1028600040F6354E0EFB03F302F50042B3F1804F04
:102870000AFB02F2B8BF5B004FEAE232A6BF93FB4D
:10288000F2F35B0093FBF2F3DA105243521308FBAE
:1028900002F24FEAA30809FB08F84FEA232E4FEA99
:1028A000683808EB22320EFB0EF80EFB08FE94F897
:1028B0002C8008FB0EFE02EB6E4294F927E002EB3F
:1028C000CE1203EB2213B36094F90E3094F90DE0AD
:1028D00064224B4393FBF2F34B4301FB0EFE9B112F
:1028E0009EFBF2FE93FBF2F37344B4F80AE003F5A7
:1028F00080430EFB03F3B4F808E047EA0020A0EBA6
:102900000E1094F90CE09B1201FB0EFE9EFBF2FEF2
:10291000A0EB6E00434394F91000DFF82CE1414333
:1029200091FBF2F2E17B02EBC112991349431211C0
:102930008912514303EB61034FF47A729B125343A4
:102940001B13404A23EAE3739342D4BFF360F2605F
:10295000BEE80F000DF1200894F93690A8E80F00AA
:10296000BEE80F00A8E80F00BEE80F00A8E80F00BF
:102970009EE80F000EF1100E88E80F00BEE80F0071
:102980000DF16008A8E80F00BEE80F00A8E80F00EE
:10299000BEE80F00A8E80F009EE80F0088E80F00CF
:1029A000052340F23C500022C3FB09020CF00F014A
:1029B00028AB03EB8101039F51F8803C51F8401C88
:1029C000A0FB030E03FB02E34FEA9C1242EA8702DC
:1029D000000CD20340EA034012F17F426CEB0C0C76
:1029E00012184FEA234E4CEB2343A1FB000C01FBD2
:1029F0000EC1400A4FEA520C40EAC1504CEAC37C77
:102A00004FEA630E10EB0C004EEB6121FEF7DCF891
:102A1000306175B1284629B0BDE8F08F236D0A20DA
:102A2000984708F1FF3818F0FF087FF474AE0225CC
:102A3000F0E7019B1B0646BF012384F8453084F86C
:102A40004550E7E7A0860100D815030810B58AB005
:102A50000446324968462CF00EFE6846FDF718FC25
:102A60004FF47A7382B2694620460CF0EEFE2C4990
:102A700068462CF000FE6846FDF70AFC4FF47A73B6
:102A800082B2694620460CF0E0FE264968462CF0EA
:102A9000F2FD6846FDF7FCFB4FF47A7382B269469B
:102AA00020460CF0D2FE204968462CF0E4FD684632
:102AB000FDF7EEFB4FF47A7382B2694620460CF0C4
:102AC000C4FE1A4968462CF0D6FD6846FDF7E0FBC7
:102AD0004FF47A7382B2694620460CF0B6FE144970
:102AE00068462CF0C8FD6846FDF7D2FB4FF47A73B8
:102AF00082B2694620460CF0A8FE0E4968462CF0CA
:102B0000BAFD6846FDF7C4FB4FF47A7382B269469A
:102B100020460CF09AFE0AB010BD00BFB01E03089C
:102B2000BE1E0308DA1E0308F71E03080E1F030863
:102B3000251F0308411F030810B590B0084904463B
:102B400001A82CF098FD01A8FDF7A2FB4FF47A73C1
:102B500082B201A920460CF078FE10B010BD00BF73
:102B60005F1F030810B590B00849044601A82CF077
:102B700082FD01A8FDF78CFB4FF47A7382B201A9A4
:102B800020460CF062FE10B010BD00BF9A1F030873
:102B900010B5406890B00C46FDF7E6FC02460B46C7
:102BA00001A807492CF0C8FB01A8FDF771FB4FF401
:102BB0007A7382B201A920460CF047FE10B010BD16
:102BC000D61F030810B5806890B00C46FDF7CCFC0A
:102BD00002460B4601A807492CF0AEFB01A8FDF701
:102BE00057FB4FF47A7382B201A920460CF02DFEF8
:102BF00010B010BDF31F030810B5406990B00C462B
:102C0000FDF7B2FC02460B4601A807492CF094FBE5
:102C100001A8FDF73DFB4FF47A7382B201A920466B
:102C20000CF013FE10B010BD1120030810B590B0C9
:102C3000C2680C4601A807492CF07EFB01A8FDF7ED
:102C400027FB4FF47A7382B201A920460CF0FDFDF8
:102C500010B010BD2320030810B590B002680C46D8
:102C600001A807492CF068FB01A8FDF711FB4FF400
:102C70007A7382B201A920460CF0E7FD10B010BDB6
:102C80003720030810B590B002690C4601A8074927
:102C90002CF052FB01A8FDF7FBFA4FF47A7382B2D5
:102CA00001A920460CF0D1FD10B010BD5020030842
:102CB00070B50A4E044605462046FDF7E9FA2B1B7F
:102CC000984200D870BD2B78F25C02F00302012A12
:102CD00008BF203305F8013BEEE700BF2D64030871
:102CE00010B412780D4B313A052A12D8DFE802F001
:102CF0000307090B0D0FDB685DF8044B18471B69D0
:102D0000FAE75B69F8E79B69F6E7DB69F4E71B6ABA
:102D1000F2E79B685DF8044B084618470C0000205A
:102D20002DE9F0411D46B3F90030172B07460E463A
:102D3000144608DD194B5B68304698472946204603
:102D400001F056F917E0D25C0D2A23D12046FFF797
:102D5000AFFFB5F900801249424620462CF057FBE0
:102D600010B90E4B1B68E7E7B8F1010F0CDD0B4BF8
:102D700030469B689847B5F900103046214401223F
:102D8000BDE8F0410CF079BF224631463846FFF7E6
:102D9000A7FFD3E701332B80EDE700BF0C00002035
:102DA0006920030810B594B0102200210AA82CF065
:102DB00026FB1422002103A82CF021FB214B00212B
:102DC00001911A6C42F080521A641B6C03F080531C
:102DD0000193019B1C4B02911A6842F440421A6015
:102DE0001B6803F440430293029B01214FF480339C
:102DF0000224CDE908134FF480030820CDE90E43E7
:102E00004FF4A873CDE91003042308A81294139378
:102E10000BF01EFB08B100F009FC0F23CDE90334D1
:102E200000224FF4A053CDE9052305214FF4805330
:102E300003A807930BF0E6FC08B100F0F7FB14B011
:102E400010BD00BF0038024000700040054808B5C2
:102E5000054B03600AF036F818B1BDE8084000F0F1
:102E6000E5BB08BD901F0020003002400D480E4A0F
:102E700008B50023C0E900230222C0E90A32C0E9F4
:102E80000C33C0E902230AF07EF808B100F0CEFB53
:102E9000044801210AF030F918B1BDE8084000F0FB
:102EA000C5BB08BD981F002000B002402DE9F743C4
:102EB00001264FF000080827C1E90067C1E9026850
:102EC0004FF6FF720C460546CDF804800BF0BCFEB1
:102ED000304609F0C3FC0223C4E900372146C4E9A7
:102EE00002684FF6FF7228460BF0AEFE4FF0040961
:102EF0000323C4E900372146C4E902984FF6FF7264
:102F000028460BF0A1FE4FF40C730193019BA660C1
:102F10002146C4E90097E3604FF6FF7228460BF0A4
:102F200093FE40F26A51284603B0BDE8F0430BF02F
:102F3000A9BE00001848194A00B50123C0E90023C2
:102F40004FF0100C40220023C0E904C24FF4C072BD
:102F50000421C0E906234FF40062C0E90231C0E950
:102F600008234FF400538DB0072283620223CDE97A
:102F70000712CDE9053205A90322CDE909230B93F8
:102F80000BF042FE08B100F051FB034801A9FFF726
:102F90008DFF0DB05DF804FBD81F0020400100A09C
:102FA0002DE9F0418EB01422002109A82CF027FA57
:102FB0000024434B01941A6B424FDFF81081424EBC
:102FC00042F010021A631A6B02F010020192019A89
:102FD00002941A6B42F020021A631A6B02F020026C
:102FE0000292029A03941A6B42F080021A631A6BDF
:102FF00002F080020392039A04941A6B42F00402D6
:103000001A631A6B02F004020492049A05941A6B74
:1030100042F001021A631A6B02F001020592059A4E
:1030200006941A6B42F002021A631A6B02F0020253
:103030000692069A07941A6B42F040021A631A6BC2
:1030400002F040020792079A08941A6B42F00802B5
:103050001A631B6B03F008030893224638463C2191
:10306000089B0AF079F92246404604210AF074F9D7
:10307000224630464FF440510AF06EF901253C23B8
:10308000CDE9093509A9032338460C9302270B948F
:103090000AF076F8042309A94046CDE909350B94D6
:1030A0000C970AF06DF84FF4405309A93046CDE96A
:1030B0000935CDE90B470AF063F80EB0BDE8F081A1
:1030C0000038024000100240000C0240000802409C
:1030D00008B51248124A134BC0E9002300234FF4ED
:1030E0008042C0E90233C0E90423C0E90633036229
:1030F0000AF03EFB08B100F099FA084810210AF0E6
:10310000D1FF08B100F092FA044800210AF0E9FF6B
:1031100018B1BDE8084000F089BA08BD0C200020B5
:10312000005C0040A086010070B5104E86B00446D9
:103130000D4630688DF8172032210DF021FE012850
:10314000034611D10A4A1268CDE901020DF11702B6
:10315000009221462A4607480AF004FE0023306800
:103160001A4619460DF004FC06B070BD442100203B
:10317000300000200C20002070B5124D88B00446AD
:1031800005912868002632218DF81F600DF0F8FDAA
:103190000128059A034610D10B490968CDE90101C0
:1031A0000DF11F010091094821460AF06BFE2868C5
:1031B0003346324631460DF0DBFB9DF81F0008B068
:1031C00070BD00BF44210020300000200C200020F2
:1031D0002DE9FF41124F04460D463868322116464C
:1031E00098460DF0CDFD012817D10E4B1B680096B7
:1031F0002146CDE901832A4603460B480AF042FEE8
:10320000002304461A46386819460DF0B1FB201E0B
:1032100018BF012004B0BDE8F0810020FAE700BF2C
:1032200044210020300000200C20002010B58EB07A
:103230003422002101A82CF0E2F82848284B002471
:10324000C0E900344FF0090C0123C0E905C34FF079
:103250001D0E0323C0E907E340F20D1240F24313B1
:10326000C0E9092340F2171140F247138486C0E9F0
:103270000244C0E90B13046180F836400AF0D2FF23
:1032800008B100F0D3F94FF4A0730221CDE9043165
:10329000FF21F0224FF48060CDE906140521CDE92D
:1032A0000801CDE90224CDE90A420C48019400222C
:1032B00001A90C93ADF834408DF836400BF07DF841
:1032C00008B100F0B3F9074C074B23601B6898471F
:1032D0002368DB6898470EB010BD00BF6420002053
:1032E0000068014060200020380000200C4D0D4C8B
:1032F000B5F900100C480C4E08B5012221440CF021
:10330000BCFC00224FF0FF33012110460EF046FCBA
:1033100006482B4622463146FFF702FDF1E700BF83
:103320006621002048210020802200202C2100203E
:1033300083B50322002101200DF0B3FA344DDFF8EC
:10334000FC90286000231A46194618240DF010FB43
:1033500009F058FAFFF726FDFFF722FEFFF776FD8A
:10336000FFF7B6FE00F064F9FFF7E4FDFFF75EFF3C
:10337000FFF77CFDFEF7A6FD00F012FEFDF71CFE38
:10338000FDF719FE2349009400234FF40052224810
:10339000CDF804900EF016F8DFF8A4A01F4F2049D6
:1033A000CAF80000CDE90047002380221D48DFF85D
:1033B00094801D4E0EF006F8CDE90046C8F80000D6
:1033C00000231A491A481B4C80220DF0FBFFDAF843
:1033D00000302060012B03D0D9F800000EF020F857
:1033E000D8F80030012B02D038680EF019F82368A5
:1033F000012B02D030680EF013F82B682BB90E4861
:1034000001224FF4804109F0A7FF0EF061F8FEE7BA
:10341000442100206E200308C70F0008202100204F
:103420007C200308B1350008102100208C200308FF
:10343000ED3200080C210020001802401821002065
:10344000142100201C21002070477047FFF76CBE3C
:10345000FFF792BE08B5FFF7BBFE80B208BD09F0CA
:10346000FDB9000008B506480022042109F074FFE8
:10347000BDE8084002480122042109F06DBF00BFE9
:103480000008024038B50B4D044601220A484FF4AB
:10349000005109F061FF00220421284609F05CFF79
:1034A000204600F0F7F828460122BDE83840042104
:1034B00009F052BF00080240000C024038B50B4D25
:1034C000044600220A484FF4005109F045FF00224B
:1034D0000421284609F040FF204600F0DBF828468A
:1034E0000122BDE83840042109F036BF000802403F
:1034F000000C0240F8B5114E114F05460C463046FF
:103500000022042109F028FF00224FF40051384620
:1035100009F022FF284600F0BDF8204600F0AAF886
:10352000012204464FF40051384609F015FF304699
:103530000122042109F010FF2046F8BD00080240D6
:10354000000C024009F08AB907B5642306480093CD
:103550000023194640F6FF72006800F03DFD034B62
:10356000186003B05DF804FB242100202C2100200A
:103570000D4B13B558689F2803D8A0225A6002B09B
:1035800010BDB3F57A7F094C03D940F2592323616A
:10359000F5E74FF4FA6300934FF4FA721423A02175
:1035A00000F01AFD2061EAE7242100202C210020F0
:1035B00008B508490848002200F06EFCFEF7A8FC98
:1035C000FEF7CCFCFFF7C0FF00F09EFCFFF7D0FF3A
:1035D000F4E700BF242200202822002007B50023A2
:1035E000094800931A46194600680EF021FB074B64
:1035F0000748B3F90010014406486423012203B0D0
:103600005DF804EB0CF021B91021002066210020A8
:1036100048210020802200200268034B9A4201D1F9
:1036200009F00AB9704700BF001000407047000061
:103630000E480F4A08B54FF48273C0E900230023F7
:10364000C0E90233C0E90433C0E908334FF4007124
:10365000182283620A23C0E90612C3620BF0F0FB52
:1036600018B1BDE80840FFF7E1BF08BD68210020A0
:103670000050014007B5054B02461B68044801A9EC
:103680000BF0E3FD019803B05DF804FB340000206B
:103690006821002007B5064BADF806001B680548F9
:1036A00001220DF106010BF027FC03B05DF804FBCD
:1036B000340000206821002082B00E4B00220092CE
:1036C000596C41F480415964596C01F48041009176
:1036D00000990192196C41F0805119641B6C03F040
:1036E00080530193019B0F216FF0010002B009F09C
:1036F000A9BB00BF0038024010B5044688B01422B0
:10370000002103A82BF07BFE2268164B9A4226D19B
:1037100003F58C33002401945A6C134842F48072F0
:103720005A645A6C02F480720192019A02941A6BE4
:1037300042F001021A631B6B03F001030293A02203
:10374000029B03A90323CDE9032309F019FD1220ED
:103750002246052109F076FB122009F0A5FB08B0EE
:1037600010BD00BF00200140000002400268094B6C
:103770009A4282B00BD100230193074B1A6B42F49B
:1037800080521A631B6B03F480530193019B02B0B8
:10379000704700BF003002400038024007B50F4BB1
:1037A00002689A4216D10022A3F5F0430192196BE8
:1037B00041F4000119631B6B03F40003019305211D
:1037C0005A20019B09F03EFB5A2003B05DF804EB40
:1037D00009F06ABB03B05DF804FB00BF00B0024013
:1037E0002DE9F043044689B01422002103A82BF0F0
:1037F00006FE2268244B9A4243D1244C24480025DB
:103800000095236B43F004032363236B03F004034D
:103810000093009B0195236B43F001032363236B0B
:1038200003F001030193019B4FF012094FF4007361
:103830004FF001080327042603A9CDE90339CDE998
:103840000587079609F09CFC4FF480731148079692
:1038500003A9CDE90339CDE9058709F091FC02956B
:10386000236C43F400032364236C03F400030293EA
:10387000029B236A43F400032362236A23F40003B8
:10388000236209B0BDE8F083005C004000380240CC
:103890000008024000000240F0B599B0044614222E
:1038A000002107A82BF0ABFD30220DEB0200002118
:1038B0002BF0A5FD22685E4B9A4240F0B7800823AA
:1038C0000C93C0231093042312930CA84FF40033DD
:1038D00015930BF06FF808B1FFF7A8FE554B56484B
:1038E000002400945A6C42F080625A645A6C02F0D0
:1038F00080620092009A01941A6B42F020021A63CF
:103900001A6B02F020020192019A02941A6B42F0A3
:1039100001021A631A6B02F001020292029A0394E6
:103920001A6B42F002021A631A6B02F0020203924F
:10393000039A04941A6B42F040021A631A6B02F065
:1039400040020492049A05941A6B42F004021A632E
:103950001A6B02F004020592059A06941A6B42F063
:1039600008021A631B6B03F00803069302250E2658
:10397000069B0B964FF4806307A9CDE90735CDE987
:10398000094509F0FDFB41F658032C480B9607A9A1
:10399000CDE907350927CDE9094509F0F1FB0323F6
:1039A00027480B9707A9CDE90735CDE9094509F067
:1039B000E7FB4FF4706322480B9607A9CDE9073562
:1039C000CDE9094509F0DCFB4FF40C631D480B966B
:1039D00007A9CDE90735CDE9094509F0D1FBC02399
:1039E00019480B9607A9CDE90735CDE9094509F036
:1039F000C7FB082315480B9607A9CDE90735CDE984
:103A0000094509F0BDFB4FF4A0530E480B9707A9D9
:103A1000CDE90735CDE9094509F0B2FB582022462A
:103A2000052109F00FFA582009F03EFA19B0F0BD4F
:103A300000680140003802400014024000000240CB
:103A4000000402400018024000080240000C02403E
:103A500010B5044688B01422002103A82BF0CFFC37
:103A60002268144B9A4223D103F568430021019147
:103A70005A6C114842F480125A645A6C02F4801253
:103A80000192019A02911A6B42F020021A631B6B99
:103A900003F020030293029B4FF460720223032180
:103AA000CDE903230523CDE9061303A909F068FB3B
:103AB00008B010BD005001400014024010B504468B
:103AC00088B01422002103A82BF099FC2268184B1F
:103AD0009A422BD103F59433002401945A6C154873
:103AE00042F010025A645A6C02F010020192019ADC
:103AF00002941A6B42F001021A631B6B03F001037C
:103B000002934FF4C062029B0223CDE903230321F9
:103B10000723CDE9061303A909F032FB252022462D
:103B2000052109F08FF9252009F0BEF908B010BD74
:103B300000100140000002402DE9F04186B0002352
:103B400003932B4B1C68002C4FD14FF00108C3F896
:103B50000080284B00949A6B274842EA08029A6337
:103B60009B6B03EA08030093022703260C25009BA6
:103B700001A94FF63F03CDE90137CDE9046509F00E
:103B8000FFFA1E48059501A9CDE90187CDE9034655
:103B900009F0F6FA48F233131948059501A9CDE961
:103BA0000137CDE9034609F0EBFA4FF68373154868
:103BB000059501A9CDE90137CDE9034609F0E0FA01
:103BC0004CF203731048059501A9CDE90137CDE901
:103BD000034609F0D5FA60230C48059501A9CDE903
:103BE0000137CDE9034609F0CBFA06B0BDE8F08114
:103BF000C0210020003802400014024000080240AA
:103C00000018024000100240000C02400004024074
:103C100070B588B000230293204B1A6C42F010025A
:103C20001A641B6C03F010030293054601A903A854
:103C3000029B0AF0A1FE069B4BBB0AF07DFE184ECC
:103C4000184B336040F2E733F360174BB0FBF3F3EC
:103C5000013B7360304600233361B360B3610BF006
:103C6000D9FC044680B930460BF096FB044658B99F
:103C7000362009F019F90F2D0DD822462946362095
:103C800009F0E0F8094B1D60204608B070BD0AF04D
:103C900053FE4000D3E70124F6E700BF003802409E
:103CA000C42100200010004040420F00A00000206E
:103CB0007047FEE7FEE7FEE7FEE77047014808F0C1
:103CC00085BF00BF481F002001480BF073BE00BF36
:103CD0008022002001480BF09DBB00BFC4210020C2
:103CE00001480AF00DBB00BF64200020014809F024
:103CF00078B900BF981F00200120704708B52BF04D
:103D00008DFC162303604FF0FF3008BD08B52BF083
:103D100085FC16230360FEE770B50D4614460E467B
:103D2000731B9C4201DC204670BDAFF3008006F897
:103D3000010BF5E770B50D4614460E46731B9C4209
:103D400001DC204670BD16F8010BAFF30080F5E7EB
:103D50004FF0FF3070474FF400534B600020704726
:103D600001207047002070470A4A116808B50346D1
:103D700009B9094911601068694603448B4206D9A4
:103D80002BF04CFC0C2303604FF0FF3008BD136098
:103D9000FCE700BF0C220020E03D01202DE9F043AC
:103DA0001B4E85B004468DF80F10306832211F4637
:103DB00015460CF0E5FF0128034626D14FEA4409D9
:103DC0004FF032081348CDF800800DF10F0249463C
:103DD00009F076FDB0B90F48CDF800803B462A4681
:103DE00049F0010109F044FE003818BF01204442A7
:103DF000002330681A4619460CF0BAFD204605B07B
:103E0000BDE8F0834FF0FF34F2E70024F6E700BF8F
:103E1000442100200C2000202DE9F041044682B00E
:103E200003F108000D46C008114603F101081A46C7
:103E30006B46A3EBC00302AF9D460DF109008DF860
:103E40000850124D2BF01FFC286832210CF098FF0F
:103E5000012802AE17D14FF0FF33610000933246C4
:103E60001FFA88F30A4809F02BFD003818BF01201B
:103E7000002344421A46286819460CF079FD204672
:103E8000BD46BDE8F0810024F9E700BF44210020D1
:103E90000C20002008F0E2BC002AF8B50CBF772304
:103EA00076234370144B8364144BC364144B036533
:103EB0000127192304460371877012480E46FEF746
:103EC00076F940F2024323870323054684F83A300B
:103ED00084F8447021460720FEF75CFA18B92046A2
:103EE000FEF719FA08B14FF0FF3530462146FEF7CC
:103EF000C7FB2846F8BD00BF9D3D0008193E0008DD
:103F0000953E000828220020F8B51E4F1E4D1F4E7A
:103F100038881F4C08F0A2FC29463046FEF7E4FB27
:103F200040BBB6F90430DFED1B6A9FED1B6A07EE5C
:103F3000903AF8EEE77A95F8443087EEA67A012BAE
:103F4000D6ED037A84ED017AF8EE677A87EE867A09
:103F500084ED057A96ED027AB8EE477AC7EE267AB6
:103F6000FDEEE77AC4ED037A0BD12846BDE8F840B0
:103F7000FEF7D1B9002239462846FFF78DFF074BDF
:103F80006360F8BD24220020282200201022002097
:103F90002C2100200000C84200007A440000494360
:103FA0000B480C4A08B54FF4E133C0E90023002365
:103FB0000C22C0E90233C0E905230361C3610BF0A1
:103FC00015FC18B1BDE80840FFF730BB08BD00BFC5
:103FD000802200200010014030B5039CE51A441AED
:103FE000511A05FB0444013194FBF1F4E01830BD93
:103FF00038B500250D800446FCF74AF929460246EB
:104000002046BDE838402BF0FAB97047704770473A
:1040100070477047704770477047704730B4C26848
:1040200044685510034604EB6200D20748BF62594A
:104030009B6830BC48BFD358184743682BB183688E
:104040002BB9C06800F00100704718467047012086
:10405000704710B50821044629F000FC204610BD29
:1040600010B51021044629F0F9FB204610BD10B50B
:104070004FF4D671044629F0F1FB204610BDE03024
:10408000884208B505D117F0E5FCBDE8084002F00C
:10409000B3B808BD70B5036804461B6B1546984756
:1040A0002368294620465B6BBDE87040184770B511
:1040B00004461D46BDF91060FFF7ECFF2368294652
:1040C00020469B6B9847236831462046DB6BBDE852
:1040D00070401847094A02604FF4807100228184C1
:1040E000FF21C0E90122C0E90322C0E90522C0E99D
:1040F000072280F826108262704700BF0459030827
:104100004FF4807181840D4901600D4981624FF641
:10411000FF7181854FF47F01002241634FF0FF3131
:10412000C0E90122C0E90322C0E90522C0E9072253
:10413000C0E9101202630287C26370477458030813
:10414000702103081A4B73B51B88018F8B420646FA
:104150002BD9184B1B682BB9174B184A18486C21E0
:104160002AF0C2FA13F81120164B1B6853F822509C
:10417000154B186806F024FD2B6801909B6B2846B0
:1041800098472B6801999B6C0446284698472B68F2
:1041900001995B6A14FB00F428469847A4B22318DF
:1041A0001BB2A6F8463002B070BD0023F9E700BF8D
:1041B00000320120FC310120A3200308E520030880
:1041C0002021030804320120083201202DE9F04F9C
:1041D0002DED028B04468BB0A246002519F094FB0E
:1041E000654BE5634AF8403B04F16C0B504604F123
:1041F0009809FFF76FFF5846FFF76CFF04F1E008DE
:104200004846FFF77DFF04F59477404615F0BCF86B
:104210003846FFF775FF04F5B873184608EE103AF4
:10422000FFF758FF554BC4E96734554BC4E969356E
:104230004FF4A0732A46009329465046F023FFF717
:1042400036FF261D4FF07F43A366514630460FF0E0
:104250005CF84FF4A0732A46009329465846F02391
:10426000FFF725FF474BC4F89430594630460FF00E
:104270004CF80F2248461421FFF70CFF0DF1080AF5
:10428000414BC4F8C83049465046A4F8CC5014F00D
:1042900081F89AE8070004F1D40383E80700DFF807
:1042A000ECB0CDF820B0742308A94846ADF824300E
:1042B00014F00AFB494630460FF027F84046072223
:1042C000C521FFF7E7FE022308AA07A9ADF81C30B5
:1042D00040460323ADF8203014F029FD7323A4F8E1
:1042E00018314046FFF72EFF4FF0FF3904F5CE732B
:1042F000C4F8083141463046C4E947990FF005F843
:104300004B2238461821FFF7C5FE39465046C4F8FF
:104310005891A4F85C5114F03DF89AE8070004F5B0
:10432000B27383E80700722308A93846ADF8243039
:10433000CDF820B014F0C8FA394630460EF0E5FF4B
:104340004FF4A07318EE100A00932A462946F02372
:10435000FFF7ADFE4FF07F43304618EE101AC4F859
:10436000983184F896510EF0D0FF20460BB0BDEC8A
:10437000028BBDE8F08F00BF98210308802103085D
:104380007F4000082B2B2BFF808080FF70210308CB
:1043900030B50368018185B06D460146D3F884309D
:1043A00004462846984795E807003C3484E807000F
:1043B00005B030BD30B50368418185B06D4601461A
:1043C000D3F8843004462846984795E807003C34E3
:1043D00084E8070005B030BD002202804280828060
:1043E000C280704780F83610704770B50368044685
:1043F0001B6B154698472368294620465B6EBDE82F
:104400007040184700207047806C704770477047B5
:10441000704770477047704730B4C26844685510A1
:10442000034604EB6200D20748BF62599B6830BC68
:1044300048BFD358184743682BB183682BB9C0686D
:1044400000F001007047184670470120704710B512
:104450004C21044629F002FA204610BD10B5102167
:10446000044629F0FBF9204610BD10B54FF45471F5
:10447000044629F0F3F9204610BD08B5FDF73EFCCF
:1044800008BD0000036870B55E6B124B1B680446E4
:104490008DB22BB9104B114A6C2111482AF024F926
:1044A0001049828D0988914203D80F4B0B4A6D2128
:1044B000F3E713F812200D4B1B6853F82200036832
:1044C0001B6B9847281A01B233462046BDE870405E
:1044D000184700BFFC310120A3200308E520030892
:1044E0002021030800320120C421030804320120E6
:1044F00000F1F003994270B504460D4603D117F060
:10450000A9FA01F079FE04F504739D4203D12368F2
:104510002046DB6A984704F513739D4205D1236852
:1045200020461B6BBDE87040184770BD00224FF05D
:10453000FF31C0E900218260704700002DE9F04F93
:104540002DED088B04468FB0A0464FF0000919F0FE
:10455000DBF9E54BC4F83C9048F8403B04F16C0BA8
:104560004046FFF7B7FD5846FFF7B4FD04F1980346
:1045700018460AEE103AFFF7ADFD04F1C40304F14A
:10458000F00718460AEE903A04F59C76FFF7A2FD74
:10459000384614F0F9FE3046FFF7B2FD04F5C0735B
:1045A000184608EE103AFFF7ABFD04F5E473184621
:1045B00008EE903AFFF7A4FD04F50473184609EEDF
:1045C000103A14F083FD04F51373184609EE903A7F
:1045D00014F07CFD04F52273184604F52D7A0BEED9
:1045E000103AFFF777FD5046FFF78AFDBF4BC4F83E
:1045F000B43204F540731846C4F8FC920BEE903ABE
:10460000FFF768FDBA4BC4E9D034BA4BC4E9D239DC
:104610004FF4A0734A46404600934946F023251DB7
:10462000FFF745FD4FF07F434146A36628460EF055
:104630006CFE4FF4A0734A46584600934946F02357
:10464000FFF735FDAC4BC4F89430594628460EF0C0
:104650005CFE2023DFF8C4B200934FF49272F12382
:104660004FF011081AEE100A4FF0FF31FFF71FFD4F
:104670001AEE101AC4F8C0B084F8BE8028460EF0B6
:1046800044FE34234A461AEE900A00934946F0232A
:10469000FFF70DFD1AEE901AC4F8ECB084F8EA802A
:1046A00028460EF032FE38460722C521FFF7F2FCFD
:1046B00002230CAA0BA93846ADF82C300323ADF821
:1046C000303014F034FB1A233846A4F82831FFF7B1
:1046D00039FD4FF0FF3B04F55073C4F818313946EB
:1046E0002846C4E94BBB03930EF00FFE0D22304663
:1046F0001B21FFF7CFFC04AF804BC4F86831314673
:104700003846A4F86C9113F045FE97E8070004F5CD
:10471000BA7383E80700DFF80882CDF830801B23E6
:1047200030460CA9ADF8343014F0CEF831462846A6
:104730000EF0EBFD412218EE100A1D21FFF7AAFC36
:104740006F4BC4F8B03118EE101A3846A4F8B49183
:1047500013F020FE97E8070004F5DE7383E80700F6
:104760004FF0190218EE100A0CA9ADF83420CDF85C
:10477000308014F0A9F818EE101A28460EF0C5FD86
:10478000D42218EE900A1021FFF784FC18EE901A3C
:104790003846C4F8F8B1A4F8FC9113F0FBFD97E893
:1047A000070004F5017383E80700182318EE900A48
:1047B0000CA9ADF83430CDF8308014F085F818EE3F
:1047C000901A28460EF0A1FD19EE100A64227F21EE
:1047D000FFF760FC4FF004020BA80346ADF824205D
:1047E0000AA80CAA4FF005010092024609A80E265D
:1047F000ADF82810014619EE100AADF82C60ADF89E
:10480000306014F0CEFB039AC4F838224FF0051044
:1048100019EE101AC4F8480228460EF076FD19EE7B
:10482000900A64222F21FFF735FC4FF00402ADF807
:1048300024200CAA4FF00501102300920BAA19EEB8
:10484000900AADF82810ADF82C3009A913460AAA31
:10485000ADF8306014F0A5FB4FF00512C4F88422C7
:10486000039AC4F8742219EE901A28460EF04DFDF2
:1048700019221BEE100A00925A23B2224321FFF79D
:1048800016FC1F4BC4F8B0321BEE101A28460EF06F
:104890003CFDB32261215046FFF7FCFB4FF07F4304
:1048A000C4F8E432D4F8B432A4F8E892D3F88430EF
:1048B00051463846984797E8070004F53C7383E86B
:1048C0000700104B1B6804F54B762BB90E4B0F4AB3
:1048D00060210F4829F008FF0E4B1B88162B21D8AA
:1048E0000D4B0A4A6121F4E7F0220308482203082D
:1048F000D8220308F14400082B2B2BFF999999FF2C
:10490000FFF700FFFC310120A32003080222030867
:104910002021030800320120C4210308FF5938FF79
:10492000702103081B4B1621186806F049F91A4A32
:1049300003460A2130461AF00BFD5046C4F8FC62CB
:1049400013F0A2FF17230CA95046ADF83430CDF870
:10495000308013F0B9FF514628460EF0D6FC4FF4D4
:10496000A0731BEE900A00934A465946F023FFF7C6
:104970009EFB4FF07F4328461BEE901AC4F8283365
:1049800084F826930EF0C1FC20460FB0BDEC088BD6
:10499000BDE8F08F083201203A220308704708B5BD
:1049A000062915D8DFE801F00C04080C100C1000E3
:1049B00006F0FEFB406808BD06F0FAFB8068FAE7E7
:1049C00006F0F6FB0068F6E706F0F2FBC068F2E7D7
:1049D0000020F0E710B50421044628F03FFF2046F0
:1049E00010BD0000004870473823030813207047AB
:1049F00013B5002451B1036801948DF8034001AA56
:104A00009C680DF10303A04702B010BD0846FBE708
:104A1000C0897047008A7047C08870478088704797
:104A2000807A00F07F007047807AC00970470020CC
:104A3000704700009FED010A704700BF00000000B2
:104A400070477047704770477047704770477047AE
:104A50007047704730B4C26844685510034604EB91
:104A60006200D20748BF62599B6830BC48BFD35828
:104A7000184743682BB183682BB9C06800F0010068
:104A80007047184670470120704710B51021044642
:104A900028F0E4FE204610BD10B54FF4C461044672
:104AA00028F0DCFE204610BD00F1E003994270B50D
:104AB00004460D4603D116F0CDFF01F09DFB04F531
:104AC000B2739D4203D123682046DB6A984704F500
:104AD000EE739D4203D1236820461B6B984704F573
:104AE000D0739D4203D1236820465B6B984704F541
:104AF00006739D4203D1236820469B6B984704F5BB
:104B000015739D4203D123682046DB6B984704F55B
:104B100024739D4203D1236820461B6C984704F5FB
:104B200094739D4205D1236820465B6CBDE87040BC
:104B3000184770BD10B50446FFF7E2FA024B236038
:104B40000023A364204610BD482203082DE9F04F3E
:104B50002DED108B04468DB0A0464FF0000B18F0E1
:104B6000D3FEE84BC4F83CB048F8403B04F16C0A73
:104B70004046FFF7AFFA04F198075046FFF7AAFA4C
:104B800004F1E0063846FFF7BBFA04F594793046A5
:104B900014F0FAFB484614F099FA04F5B27318467B
:104BA0000CEE903A14F092FA04F5D07318460DEE1C
:104BB000103A14F08BFA04F5EE7318460DEE903AA5
:104BC00014F084FA04F5067318460EEE103A14F049
:104BD0007DFA04F5157318460EEE903A14F076FA45
:104BE00004F5247318460FEE103A14F06FFA04F52A
:104BF0003373184609EE103AFFF782FA04F545734D
:104C0000184608EE103AFFF795FF04F5587318465A
:104C100008EE903AFFF78EFF04F56B73184609EE25
:104C2000903AFFF76DFA04F57D7318460AEE103AD4
:104C3000FFF780FF04F5886318460AEE903AFFF705
:104C400079FF04F28C4318460BEE103AFFF758FA3E
:104C500004F2D44318460BEE903AFFF76BFF04F5CD
:104C6000A46318460CEE103AFFF764FF04F26C538D
:104C700018460FEE903AFFF72DFAA34BC4F8103602
:104C8000A24BC4F818364FF4A0735A46404600931E
:104C90005946F023C4F81446C4F81CB6251DFFF786
:104CA00006FA4FF07F434146A36628460EF02DFBDF
:104CB0004FF4A0735A46504600935946F023FFF72D
:104CC000F6F9934BC4F89430514628460EF01DFB7C
:104CD0000F2238461421FFF7DDF90DF108088D4B3E
:104CE000C4F8C83039464046A4F8CCB013F052FBA3
:104CF00098E8070004F1D40383E80700864B0A9381
:104D0000384671230AA9ADF82C3013F0DDFD394681
:104D100028460EF0FAFA30460722C521FFF7BAF905
:104D2000022309A93046ADF824300AAA0323ADF8BE
:104D3000283013F0FCFF4FF070023046A4F8182121
:104D4000FFF700FA04F5C26A4FF0FF323146C4E9BA
:104D500047222846C4F808A10EF0D7FA48464FF477
:104D600082724121FFF796F909234FF00E0209A93B
:104D7000ADF81C30ADF82030ADF824200B46ADF86E
:104D8000282008A90AAA484600920A4607A914F052
:104D900008F91E23C4F8603149462846C4F850A1DA
:104DA0000EF0B3FA1CEE900AA0221D21FFF772F953
:104DB00009A90B460AAA08A901276FF006164FF0A9
:104DC00012091CEE900A00920A4607A9ADF81C7061
:104DD000ADF82490ADF82890ADF820B014F0E1F8CB
:104DE0001CEE901AC4F89C612846C4F88CA10EF001
:104DF0008CFA1DEE100AA0226B21FFF74BF94FF041
:104E00000E0209A80346ADF8282008A80AAA0092B5
:104E100007A902461DEE100AADF81C70ADF82490EB
:104E2000ADF820B014F0BDF81DEE101AC4F8D8612A
:104E30002846C4F8C8A10EF068FA1DEE900AD222E6
:104E40001D21FFF727F909A803460AAA08A84FF071
:104E50001109009207A902461DEE900AADF81C70D8
:104E6000ADF820B0ADF82490ADF8289014F099F882
:104E70001DEE901AC4F814622846C4F804A20EF07D
:104E800044FA1EEE100AD2226B21FFF703F909A89B
:104E900003460AAA08A8009207A902461EEE100AB5
:104EA000ADF81C70ADF820B0ADF82490ADF82890A6
:104EB00014F077F81EEE101AC4F850622846C4F8B1
:104EC00040A20EF022FA1EEE900AA022AF21FFF7B8
:104ED000E1F84FF00E02ADF828200AAA4FF01201B7
:104EE000009209AA13461EEE900A08AAADF82410F3
:104EF00007A9ADF81C70ADF820B014F052F81EEE02
:104F0000901A0BE0D4240308BC240308A94A000823
:104F10002B2B2BFF808080FF70210308C4F88C624C
:104F20002846C4F87CA20EF0F0F91FEE100AD22237
:104F3000AF21FFF7AFF80AAA009209AA13461FEEA5
:104F4000100A08AA07A9ADF81C70ADF820B0ADF89A
:104F50002490ADF8289014F024F81FEE101AC4F82D
:104F6000C8622846C4F8B8A20EF0CFF919EE100AAC
:104F700056222521FFF78EF84FF07F4219EE101AC6
:104F8000C4F8FC224046A4F800B313F003FA98E8F2
:104F9000070004F5427383E807001F4B0A9319EEDC
:104FA000100A68230AA9ADF82C3013F08DFC19EE15
:104FB000101A28460EF0A9F97E2218EE100A1D21BB
:104FC000FFF768F84FF07F43C4F84433D4F8143344
:104FD000A4F848B3D3F88430104E18EE101A4046A7
:104FE000984798E8070004F5547383E8070033688E
:104FF00004F5B3672BB90A4B0A4A60210A4829F025
:1050000073FBDFF82C90B9F800305D2B12D8074BFA
:10501000044A6121F2E700BF70210308FC3101203E
:10502000A32003080222030820210308C421030847
:1050300000320120DFF89CA35D21DAF8000005F0C2
:10504000BFFDDF4A03460A2138461AF081F918EEFF
:10505000100AC4F85C7313F017FCDA4F0A97652343
:1050600018EE100A0AA9ADF82C3013F02DFC18EE3A
:10507000101A28460EF049F9362218EE900A1D2122
:10508000FFF708F8D04BC4F89033D4F86033A4F895
:1050900094B3D3F8843018EE901A4046984798E8B5
:1050A000070004F5677383E80700336804F2AC5720
:1050B000002BA0D0B9F80030592BA8D95921DAF823
:1050C000000005F07DFDBE4A03460A2138461AF06D
:1050D0003FF918EE900AC4F8A87313F0D5FBB94F46
:1050E0000A975A2318EE900A0AA9ADF82C3013F04B
:1050F000EBFB18EE901A28460EF007F919EE900A0D
:1051000056227021FEF7C6FF4FF07F4219EE901A2B
:10511000C4F8DC234046A4F8E0B313F03BF998E868
:10512000070004F57A7383E80700672319EE900AF5
:105130000AA9ADF82C300A9713F0C6FB19EE901AA5
:1051400028460EF0E2F87E221AEE100A7021FEF7D1
:10515000A1FF4FF07F423368C4F824244FF0FF32A0
:10516000A4F828B4C4F830B4C4F83424C4F838B46B
:1051700004F5B867002B3FF43EAFB9F800305C2B64
:105180007FF645AF5C21DAF8000005F019FD8C4A86
:1051900003460A2138461AF0DBF81AEE100AC4F862
:1051A0003C7413F071FB874F0A9764231AEE100AC0
:1051B0000AA9ADF82C3013F087FB1AEE101A284616
:1051C0000EF0A3F836221AEE900A7021FEF762FF65
:1051D0007D4BC4F870343368A4F874B44FF0FF32D8
:1051E000C4F87CB4C4F88024C4F884B404F2D4575E
:1051F000002B3FF400AFB9F80030572B7FF607AF14
:105200005721DAF8000005F0DBFC6D4A03460A215D
:1052100038461AF09DF81AEE900AC4F8887413F014
:1052200033FB684F0A9758231AEE900A0AA9ADF883
:105230002C3013F049FB1AEE901A28460EF065F850
:105240001BEE100A5622BA21FEF724FF4FF07F42D0
:105250001BEE101AC4F8BC244046A4F8C0B413F0E6
:1052600099F898E8070004F5996383E80700662336
:105270001BEE100A0AA9ADF82C300A9713F024FB94
:105280001BEE101A28460EF040F87E221BEE900A04
:10529000A221FEF7FFFE4FF07F423368C4F80425D9
:1052A0004FF0FF32A4F808B5C4F810B5C4F81425BF
:1052B000C4F818B504F5BD67002B3FF49CAEB9F8EF
:1052C00000305B2B7FF6A3AE5B21DAF8000005F01F
:1052D00077FC3B4A03460A2138461AF039F81BEEA0
:1052E000900AC4F81C7513F0CFFA364F0A9763235F
:1052F0001BEE900A0AA9ADF82C3013F0E5FA1BEE6C
:10530000901A28460EF001F81CEE100A3622A2214F
:10531000FEF7C0FE2C4BC4F850354FF0FF33C4F8F5
:1053200060352A4B1B684FF00008A4F85485C4F878
:105330005C85C4F8648504F2FC59002B3FF45BAE35
:10534000234B1B88552B7FF662AEDAF800005521FF
:1053500005F036FC1A4A03460A21484619F0F8FFC0
:105360001CEE100AC4F8689513F08EFA56231CEE52
:10537000100A0AA9ADF82C300A9713F0A5FA1CEE12
:10538000101A28460DF0C1FF4FF4A0731FEE900ACB
:10539000009342464146F023FEF789FE4FF07F43DB
:1053A00028461FEE901AC4F8943584F892850DF0C3
:1053B000ACFF20460DB0BDEC108BBDE8F08F00BFF8
:1053C0003A22030870210308787329FFFC31012079
:1053D000003201200832012070477047704703688F
:1053E000DB6A1847704730B4C268446855100346FA
:1053F00004EB6200D20748BF62599B6830BC48BFCB
:10540000D358184743682BB183682BB9C06800F0A4
:1054100001007047184670470120704710B51021F1
:10542000044628F01BFA204610BD00F1980399426B
:1054300070B504460D4603D116F00CFB00F0DCFEFF
:1054400004F68C039D420CD1002384F8B53704F593
:10545000F26017F0BFFB236820461B6BBDE870406D
:10546000184770BD4FF480710022818405490160A6
:10547000C0E90122C0E90322C0E90522C0E90722F0
:1054800082627047C44F03080022C0E90122C0E9CC
:105490000322C0E90522C0E907224FF4807282840A
:1054A000014A0260704700BF2425030800224FF024
:1054B000FF31C0E900218260704700002DE9F04F04
:1054C0002DED108B044699B0A1464FF0000A18F05C
:1054D0001BFAE64BC4F83CA049F8403B4846FEF7AF
:1054E000F9FD04F16C0304F19808184604F1E00793
:1054F0000A93FEF7EFFD404613F046FF04F5947B58
:105500003846FEF7FDFD58460EF0ECFA04F5087338
:1055100004F5137618460493FFF7A4FF3046FEF710
:10552000EFFD04F52573184609EE903AFFF702FBEC
:1055300004F5387318460593FFF794FF04F5437399
:1055400018460CEE903AFEF7DBFD04F5557318464D
:105550000AEE103AFFF7EEFA04F568731846069360
:10556000FFF780FF04F5737318460DEE103AFEF74F
:10557000C7FD04F2144318460AEE903AFFF7DAFA30
:1055800004F58C6318460793FFF76CFF04F28C4315
:1055900018460DEE903AFEF7B3FD04F2D4431846D8
:1055A0000EEE103AFFF7C6FA04F5A4631846089306
:1055B000FFF758FF04F24C5318460EEE903AFFF7EF
:1055C000B9FA04F5B36318460BEE103AFEF798FDEE
:1055D00004F5BC6318460993FFF744FF04F20C631B
:1055E00018460FEE103AFFF7A5FA04F5CB631846FC
:1055F0000BEE903AFEF784FD04F5D463184609EEED
:10560000103A0DF0BDFD04F5E76318460B93FEF765
:1056100061FD04F2647318460C93FEF75BFD04F51C
:10562000F263184608EE903AFFF71CFF04F2BC73D1
:1056300018460D93FEF74EFD04F5FD6318460E93D4
:10564000FEF748FD04F614030CEE103A26224FF63E
:10565000FF7551461846ADF8545029F0D0FE1CEEA7
:10566000100AFFF711FF824BC4F8143884F83C5835
:10567000BDF85430A4F83A3815AD29461CEE100A8E
:1056800013F04BFD04F5046318460FEE903AFFF754
:1056900051FA04F68C031846029313F075FE04F6D3
:1056A000D40318460393FFF745FA04F5126318462E
:1056B0000F93FEF70FFD6F4BC4F8503A6E4BC4F8D2
:1056C000583A4FF4A0735246484600935146F0238F
:1056D000C4F8544AC4F85CAAFEF7E9FC4FF07F43D3
:1056E000A366231D4946184608EE103A0DF00DFE3C
:1056F0004FF4A07352460A9800935146F023FEF7E8
:10570000D6FC5E4BC4F894300A99DFF8909118EEFD
:10571000100A0DF0FAFD40460722C521FEF7BAFC3B
:1057200002232A4614A94046ADF850300323ADF8B1
:10573000543013F0FCFA78234046A4F8D030FEF73A
:1057400001FD4FF0FF33C4E9353304F52563C4F898
:10575000C030414618EE100A0A930DF0D6FD0D2216
:1057600038461B21FEF796FC0DF14008444BC4F867
:10577000103139464046A4F814A112F00BFE98E807
:10578000070004F58E7383E807003E4B15933846F7
:1057900077232946ADF8583013F096F8394618EEBD
:1057A000100A0DF0B2FD1F2251465846FEF772FC5A
:1057B0000C23ADF850302A460D2314A95846ADF8F5
:1057C00054300EF02FFAF022542158460EF0D6F83D
:1057D000322158460EF025F8322158460EF0CCF80A
:1057E000294AC4F8282230461E224C21FEF752FCDA
:1057F00031464046C4F87C92A4F880A212F0CAFD5B
:1058000098E8070004F5227383E807001D4B159301
:10581000304623232946ADF8583013F055F8314669
:1058200004981A4F0DF071FD6D2219EE900A512166
:10583000FEF730FCD4F89432C4F8C492D3F8843024
:10584000A4F8C8A219EE901A4046984798E80700B5
:1058500004F5347383E807003B6804F64C16FBB983
:105860000B4B0C4A60210C4828F03EFFA42503088E
:10587000685A03088C2503082B5400082B2B2BFF98
:10588000999999FF70210308F0000501FC3101206E
:10589000A32003080222030820210308FFF700FFCA
:1058A000034B1B88212B09D8024B034A6121DAE7FD
:1058B00000320120C421030802220308DB4B21210E
:1058C000186805F07DF9DA4A03460A21304619F0D6
:1058D0003FFD19EE900AC4F8DC6212F0D5FFD54EF8
:1058E0001596222319EE900A2946ADF8583012F089
:1058F000EBFF19EE901A04980DF007FD0499584635
:105900000EF007FACC4AC4F8E8221CEE900A1A22DC
:105910002021FEF7BFFB1CEE901A4046C4F83C93D2
:10592000A4F840A312F036FD98E8070004F552737E
:1059300083E8070075231CEE900A2946ADF858301D
:10594000159612F0C1FF1CEE901A05980DF0DDFCC3
:105950006D221AEE100A2A21FEF79CFBD4F854336C
:10596000C4F88493D3F88430A4F888A31AEE101AEC
:105970004046984798E8070004F5647383E80700F9
:105980003B6804F51666002B3FF46AAFAB4A1388F8
:10599000302B89D9A54B3021186805F011F9A44A9C
:1059A00003461421304619F0D3FC1AEE100AC4F84D
:1059B0009C6312F069FF9F4E159676231AEE100A2B
:1059C0002946ADF8583012F07FFF1AEE101A0598EC
:1059D0000DF09BFC059958460EF09BF99649C4F8CA
:1059E000A8131E221DEE100A3721FEF753FB1DEEF1
:1059F000101A4046C4F8FC93A4F800A412F0CAFCA4
:105A000098E8070004F5816383E807004FF026005B
:105A1000ADF8580029461DEE100A159612F054FFF5
:105A20001DEE101A06980DF070FC6D221AEE900A09
:105A30005321FEF72FFBD4F81434C4F84494D3F860
:105A40008430A4F848A41AEE901A4046984798E883
:105A5000070004F58A6383E807003B6804F68816AC
:105A6000002B3FF4FDAE754A1388242B7FF61CAF44
:105A70006E4B2421186805F0A3F86D4A03460A21ED
:105A8000304619F065FC1AEE900AC4F85C6412F016
:105A9000FBFE684E159625231AEE900A2946ADF8AE
:105AA000583012F011FF1AEE901A06980DF02DFCE6
:105AB000069958460EF02DF95F49C4F868141E2265
:105AC0001DEE900A3721FEF7E5FA1DEE901A4046CA
:105AD000C4F8BC94A4F8C0A412F05CFC98E80700D9
