:020000040800F2
:10000000000003202D0600088D2000088F20000826
:1000100091200008932000089520000800000000AF
:10002000000000000000000000000000A18800089F
:10003000972000080000000031890008C5810008F1
:100040007D0600087D0600087D0600087D06000884
:100050007D0600087D0600087D0600087D06000874
:100060007D0600087D0600087D0600087D06000864
:100070007D0600087D0600087D0600087D06000854
:100080007D0600087D0600087D0600087D06000844
:100090007D0600087D0600087D0600087D06000834
:1000A0007D0600087D0600087D0600087D06000824
:1000B0007D0600087D0600087D0600087D06000814
:1000C0007D0600087D0600087D0600087D06000804
:1000D0007D0600087D0600087D0600087D060008F4
:1000E0007D0600087D0600087D0600087D060008E4
:1000F0007D0600087D0600087D0600087D060008D4
:100100007D0600087D0600087D0600087D060008C3
:100110007D0600087D060008992000087D0600087D
:100120007D0600087D0600087D0600087D060008A3
:100130007D0600087D0600087D0600087D06000893
:100140007D0600087D0600087D0600087D06000883
:100150007D0600087D0600087D0600087D06000873
:100160007D0600087D0600087D0600087D06000863
:100170007D0600087D0600087D06000800000000DE
:100180007D0600087D0600087D0600087D06000843
:100190007D0600087D0600087D0600087D06000833
:0C01A000A52000087D060008B120000822
:1001B00010B5054C237833B9044B13B10448AFF3A1
:1001C00000800123237010BD6401002000000000A6
:1001D0001070020808B5034B1BB103490348AFF385
:1001E000008008BD000000006801002010700208B7
:1001F00001F0FF01102A2BDB10F0070F08D010F8D8
:10020000013B013A8B422DD010F0070F42B3F6D1DB
:10021000F0B441EA012141EA014122F007047FF0F4
:1002200000070023F0E80256083C85EA010586EA4B
:10023000010685FA47F5A3FA87F586FA47F6A5FA87
:1002400087F68EB9EED1F0BC01F0FF0102F0070293
:1002500032B110F8013B013A83EA010313B1F8D13E
:100260000020704701387047002D06BF354603381F
:10027000073815F0010F07D1013015F4807F02BF58
:10028000013015F4C03F0130F0BC0138704700BFA9
:100290007BB972B90029BEBF00204FF0004106E0D3
:1002A00008BF00281CBF6FF000414FF0FF3000F086
:1002B000BBB9ADF1080C6DE904CE002909DB002BB8
:1002C0001ADB00F04DF8DDF804E0DDE9022304B0AC
:1002D0007047404261EB4101002B1BDB00F040F80E
:1002E000DDF804E0DDE9022304B0404261EB4101A6
:1002F000524263EB43037047524263EB430300F007
:100300002FF8DDF804E0DDE9022304B0404261EBA0
:1003100041017047524263EB430300F021F8DDF8DE
:1003200004E0DDE9022304B0524263EB430370476B
:1003300053B94AB9002908BF00281CBF4FF0FF314C
:100340004FF0FF3000F070B9ADF1080C6DE904CE4C
:1003500000F006F8DDF804E0DDE9022304B07047A0
:100360002DE9F047089E0D4604460F46002B4AD162
:100370008A42944665D9B2FA82F343B102FA03FC89
:10038000C3F120029F4020FA02F217439C404FEA3B
:100390001C4E1FFA8CF5B7FBFEF1220C0EFB1177F9
:1003A00042EA074201FB05F090420AD91CEB020227
:1003B00001F1FF3780F01C81904240F2198102392F
:1003C0006244121AA4B2B2FBFEF00EFB102244EA01
:1003D000024400FB05F5A5420AD91CEB040400F118
:1003E000FF3280F00781A54240F204816444023864
:1003F00040EA0140641B00211EB1DC400023C6E935
:100400000043BDE8F0878B4208D9002E00F0ED8054
:100410000021C6E900050846BDE8F087B3FA83F17C
:10042000002949D1AB4202D3824200F2F880841AFB
:1004300065EB030201201746002EE2D0C6E9004713
:10044000DFE702B9FFDEB2FA82F3002B40F09080C2
:100450008A1A4FEA1C471FFA8CFE0121B2FBF7F5FE
:1004600007FB1520220C42EA00420EFB05F09042E9
:1004700008D91CEB020205F1FF3802D2904200F2CB
:10048000CB804546121AA4B2B2FBF7F007FB10224C
:1004900044EA02440EFB00FEA64508D91CEB040406
:1004A00000F1FF3202D2A64500F2BB801046A4EB59
:1004B0000E0440EA05409FE7C1F120078B4022FA75
:1004C00007FC4CEA030C05FA01F420FA07F3FD409F
:1004D0004FEA1C492343B5FBF9F81FFA8CFE09FBD0
:1004E00018551C0C44EA054408FB0EF5A54202FA17
:1004F00001F200FA01F00BD91CEB040408F1FF3AF9
:1005000080F08880A54240F28580A8F1020864440A
:10051000641B9DB2B4FBF9F309FB134445EA0444A0
:1005200003FB0EFEA64508D91CEB040403F1FF35BE
:100530006CD2A6456AD9023B644443EA0843A3FB54
:100540000295A4EB0E04AC42C846AE4656D353D037
:1005500056B1B0EB080264EB0E0404FA07F7CA4088
:10056000CC401743C6E9007418460021BDE8F08767
:10057000C3F1200102FA03FC20FA01F225FA01F18D
:100580009D402A434FEA1C471FFA8CFEB1FBF7F04F
:1005900007FB1015110C41EA054100FB0EF58D42D9
:1005A00004FA03F408D91CEB010100F1FF382FD243
:1005B0008D422DD902386144491B92B2B1FBF7F547
:1005C00007FB151142EA014205FB0EF1914208D9E1
:1005D0001CEB020205F1FF3816D2914214D9023DFC
:1005E0006244521A45EA004138E73146304608E78E
:1005F0003946E6E61046FBE64845A9D2B9EB0208C3
:1006000065EB0C0E013BA3E74546EAE72B4694E772
:100610004046D1E7D0467BE7023D624432E70846D8
:100620000AE76444023842E7704700BFDFF834D07D
:10063000002103E00C4B5B58435004310B480C4B3A
:1006400042189A42F6D30B4A02E0002342F8043BD8
:10065000094B9A42F9D305F055FB25F05DFF00F0F8
:10066000FDFF70470000032088F8150800000020F7
:100670006401002064010020F4490120FEE7704776
:1006800008B500F069FDBDE8084000F0EBBC00F0E3
:1006900065BD704710B50421044624F049FD20468D
:1006A00010BD000038B50C4B0C4C18800C4B822050
:1006B00019806368984740F6110398420AD1094DA2
:1006C00023682C60822098472B688220DB6898473B
:1006D000002038BD0120FCE7800100204C000020F4
:1006E00082010020840100204FF4A071F020FFF768
:1006F000D9BF0000F7B5334D2B6804461B69822033
:10070000984780B2208000284AD02B680DF106025D
:100710005B6901A982209847BDF8063040F67462F3
:1007200093423FD9ADF80620BDF80630D21A92B2F6
:100730000A2A3DD90B23B2FBF3F2234B1B889A42C2
:1007400001D9013B9AB2BDF8043040F6B8318B4272
:1007500030D8C3F571630E339BB20F21B3FBF1F3B5
:100760001A4909888B4201D901398BB2184E194DAB
:1007700030682F68834281B28CBF591AC91AB8B247
:10078000BA428CBF101A801A89B280B2014405297E
:10079000C8BF33603368C8BF2A6063802B68A380FA
:1007A00003B0F0BDB32B9CBFB423ADF80630BBE75C
:1007B0000022C8E7C3F56D6308339BB20E2BCCD87B
:1007C0000023D3E784010020820100208001002063
:1007D000880100208C01002037B568460D4614467C
:1007E000FFF788FFBDF8000030B1BDF802302B6084
:1007F000BDF804302360012003B030BD032821D8A8
:10080000DFE800F0020B12190F4B1A68B2FA82F2FD
:10081000520904210D4805F00DBD0B4B5A68B2FA80
:1008200082F252090821F5E7074B9A68B2FA82F280
:1008300052091021EEE7044BDA68B2FA82F252094B
:100840002021E7E7704700BF900100200010024020
:10085000032821D8DFE800F0020B12190F4B1A68A9
:10086000003A18BF012204210D4805F0E3BC0B4BF0
:100870005A68003A18BF01220821F5E7074B9A6829
:10088000003A18BF01221021EEE7044BDA68003A63
:1008900018BF01222021E7E7704700BF9001002028
:1008A0000010024003280DD8DFE800F00206080A15
:1008B0000421054805F0C3BC0821FAE71021F8E738
:1008C0002021F6E7704700BF0010024008B503285A
:1008D00011D8DFE800F0020A0C0E0421074805F0E9
:1008E000A3FC431E5842584108BD0821F6E71021D9
:1008F000F4E72021F2E70020F3E700BF00100240F8
:1009000070B5084D00240126E0B2FFF7DFFF18B1F3
:100910002B68012B18BF2E600134052C05F104054E
:10092000F2D170BD90010020012380F8781080F88A
:100930007930704700207047034B4164003918BF7D
:1009400001211970704700BFBB3D01200020704796
:10095000836B0BB10846184770474FF6FF7070471E
:10096000406803689B6918477047704770470000EC
:1009700010B5044600F008FD23680349D3F88C3015
:100980002046BDE810401847000000D008B50368B5
:100990000446D3F880309847236820469B6F9847D9
:1009A00000F0ECF8236820461B6F9847292001F0DF
:1009B0008DF800F0E3F8236820461B6F9847F8E7AE
:1009C00010B504460CF06CFD23682046D3F8AC301B
:1009D000BDE81040184700F0B9BC00F0BDBC00F005
:1009E000F1BC00F08FBC00F00DBD00F0F7BC00F0D2
:1009F00093BC0BF0C0BF10B57C21044624F098FBDB
:100A0000204610BD90F87A301BB1406803681B681F
:100A1000184718467047000010B590F8341090F849
:100A200078400C4B8C421A7809D03AB90A4A0B49E3
:100A30001488088810800C8001221A7010BD002ACA
:100A4000FCD0054A05491488088810800C800022D3
:100A5000F3E700BFB43D0120B03D0120B23D0120CD
:100A600070B50D46194635B9094B0A4A0A4840F295
:100A7000D22125F0A3FAC0E90F52084B003A18BF63
:100A800001221A700368BDE87040D3F88C30184713
:100A900080700208B870020806710208BA3D012091
:100AA00008B5094B1B888B4203D8084B1B8893421F
:100AB00005D9074B074A08489E2125F07FFA074BC6
:100AC0001980074B1A8008BDB03D0120B23D0120BE
:100AD0004B710208AE71020806710208B63D012092
:100AE000B83D0120012108B50022084607F0F7FBB8
:100AF0000A4B186028B90A4B0A4A28210A4825F0EF
:100B00005DFA00220421012007F086FC074B1860E3
:100B100018B9074B034A2C21F0E708BDA4010020B7
:100B2000CC7202081573020844730208A001002069
:100B300091730208024B4FF0FF31186807F019BC9F
:100B4000A4010020014B186807F03EBCA40100205E
:100B5000024B0021186807F00CBC00BFA401002064
:100B6000FFF7F0BF03480449006800231A4607F066
:100B70008EBC00BFA00100200400002013B5084C6B
:100B800000231A4601A9206807F0B1FC20684FF045
:100B9000FF33002201A907F0AAFC02B010BD00BF7C
:100BA000A001002003685B6C1847012070470368B0
:100BB0009B6A184740F2EF3070470000054B036016
:100BC000054B4FF08062C3F88820BFF34F8FBFF30F
:100BD0006F8F70473075020800E100E010B50446E1
:100BE0004FF45A61FFF7EAFF204624F0A1FA2046AD
:100BF00010BD000082B0002301930D4B1A6B42F42C
:100C000000021A631A6B02F400020192019A1A6937
:100C100042F400021A611A6922F400021A61054BBB
:100C2000054A1A61054B4FF080629A6002B0704726
:100C3000003802405C2D0020410C000800E100E07B
:100C4000024B1B68586803685B691847BC3D01206C
:100C500070B5044625460A4B0C30002660602672AB
:100C6000667245F8203B602229460CF071FD04F5C0
:100C70005A63EE602435AB42FBD1204670BD00BF05
:100C80003075020808B50B290BD8DFE801F0120611
:100C9000100A0A0A0A0808080808012008BD0520E9
:100CA000FCE7054B054A0648652125F087F9002039
:100CB000F4E70220F2E700BFD3730208EE730208E4
:100CC0003874020808B50A2909D8DFE801F01006CF
:100CD0000E080808080606060600012008BD054B98
:100CE000054A0648862125F069F90020F6E702202A
:100CF000F4E700BFD3730208837402083874020853
:100D00002DE9F84391F81D800C4641460746FFF750
:100D1000B9FF94F81E90054649463846FFF7B2FFE2
:100D2000494606463846FFF7CDFFA18A628B434B02
:100D3000521A1A649A61228B521A1A61E28A586313
:100D400042EA01425A6420696268D863DA6027681F
:100D5000802F28D0227F0FD8202F65D0402F63D03E
:100D6000042F1AD0354B45EA026545F40035C845D5
:100D7000DD615FD0324A44E0B7F5807F04D0B7F53B
:100D8000007FEFD12F4900E02F4941EA0262DA618A
:100D9000E2681A625E62586132E045EA026242F439
:100DA0000032DA61F6E7A7683A1DDA62217F3A7805
:100DB00045EA016545F40035DD615E62586142B186
:100DC000012A21D0214B224A22484FF4887125F074
:100DD000F5F8DA69798822F47F42013922F01002AD
:100DE00042EA0122DA610121144BDA6942F0200261
:100DF000DA61DA699206FCD410229A600029B9D02F
:100E0000154A1A60BDE8F883DA69788822F47F42CF
:100E1000013822F0100242EA0022FF3942F01002AB
:100E200018BF0121DA61DFE745EA0262034B42F4B1
:100E30000032B6E740F20122E3E700BF00B0024013
:100E400001020100090002000A000200CE7402083B
:100E5000E8740208387402080102020038B50C4632
:100E6000897FFFF72FFFA58AE28A164B2169586315
:100E700042EA05425A64628BD963521B1A642568A0
:100E8000082D0ED19A611A615862207F0E4A42EAFB
:100E90000062DA61E2681A620C4A5961D9601A602C
:100EA00038BD0022D8611A61E1680A0A480902F4D3
:100EB000784200F4FC600243C1F3C4010A439A6320
:100EC000034AECE700B00240090001000102020001
:100ED00001020300034B1A68D207FCD423229A6054
:100EE000704700BF00B0024030B50F4C2568ED07D9
:100EF000FCD423250904A56041F001010225FF2B44
:100F000065636164E0630AD00849656241EA03638E
:100F1000E361074B22626061E060236030BDE56100
:100F2000039BA363034BF8E700B0024009000100F4
:100F30000100020001000300012070470C207047EF
:100F40000C2303FB0100083070470C2303FB010056
:100F5000083070470120704741F65420704741F631
:100F6000542303FB01000830704741F6542303FB70
:100F7000010008307047012070471020704700EBD7
:100F800001100830704700EB011008307047084628
:100F900002F0FABC10B5034B0360044609F025FAD1
:100FA000204610BDE875020810B50446FFF7F2FFB1
:100FB0002046142124F0BCF8204610BD10B5034B88
:100FC0000360044609F011FA204610BDB47502080A
:100FD00010B50446FFF7F2FF204641F65C2124F0ED
:100FE000A7F8204610BD000010B5034B036004466F
:100FF00009F0FBF9204610BD8075020810B50446C3
:10100000FFF7F2FF2046182124F092F8204610BD89
:1010100010B5094B0360044600F5D4500830FFF7C3
:10102000B9FF04F12C00FFF7C9FF04F11400FFF72A
:10103000DBFF204610BD00BF1C76020808B5024841
:10104000FFF7E6FF08BD00BFAC01002010B5044665
:10105000FFF7DEFF204641F6104124F069F82046F4
:1010600010BD00002DE9F34101F040FA054601F002
:1010700041FA00240146234628462246009415F0F2
:1010800077FE274B274A1A60204603F069FD264B5E
:10109000264A274D9A60274815F0D2FD2B68BFF3EA
:1010A0005B8FDB0736D4284624F044F890B3224CFB
:1010B000224B234F236004F1140000F5D55604F1B0
:1010C0002C086060C4F80880E760266109F08EF99A
:1010D0001C4B6361404609F089F91B4BE3623846BB
:1010E00009F084F904F58053184AC3F8882A03F6F6
:1010F0009C2004F0E9F92246A6F11801304604F0DC
:1011000099F9304602F040FC114824F075FF28465A
:1011100024F01CF80F4802B0BDE8F041FFF728BCEE
:10112000203E0120F82B0020FC2B0020BC1D0020BD
:10113000A801002008000020AC0100201C76020855
:10114000341C002080750208B4750208E875020896
:101150003D1000087C2B0020704700000148FFF77D
:1011600015BC00BF7C2B002070B5244E244C254DAF
:10117000254B23603046FFF76BFD28461AF0CAF86E
:10118000224813F047FA224B2248DC6000224FF439
:101190008071C3E9121220491A86C3E91A121F4945
:1011A00099671F4983F858200B60F02101801D4882
:1011B0005A6601801C4883F870204FF4A071C3E97F
:1011C0000422C3E90622C3E90822C3E90A22C3E9CB
:1011D0000E22C3E91022C3E91422C3E917225A6779
:1011E000C3E9016501801148018011490A7001229B
:1011F00083F834200F4A1A6070BD00BFDC1D002048
:10120000D81D0020FC2B002070700208BC1D00209F
:101210007C2B0020B03D01200100000100000101F5
:10122000BC3D0120B63D0120B23D0120B83D01206A
:10123000B43D0120FC7102080148FFF7BFBC00BFAC
:10124000DC1D00200020704781807047C1807047FE
:101250000181704741817047704770477047704700
:10126000704710B4C4880368121B84885B6D091B27
:1012700012B25DF8044B09B218474FF6FF73838131
:101280004FF0FF3303621368C3611060704790F83A
:1012900025201AB190F8242002B118607047002070
:1012A00070478B88838001207047704780F8261034
:1012B000704790F82600704710B50022B1F9084039
:1012C000B1F90A10028042808480C18010BD0022E2
:1012D000028042808280C28070470177704780ED33
:1012E000080A704780F82410704780F8251070476E
:1012F00001207047983070478C30704784307047B9
:1013000070470000034B902283F85A2383F8582338
:10131000704700BF00E100E0094A0A49D3680A4863
:10132000C3F30A03013B9BB20B801169C1F30A01AD
:10133000013901801364536B43F001035363704719
:10134000006801408A2C0020882C0020014BD3F833
:10135000AC00704700680140024B0122C3F8AC109A
:101360005A627047006801407047704710B52C21E1
:10137000044623F0DDFE204610BD10B5BC21044616
:1013800023F0D6FE204610BD70B504460BF049FB95
:1013900023685D6E11F0C8FF01462046A847236808
:1013A000054AD3F888502046AC460023BDE870407B
:1013B000A2F51631604700BF00B004D00BF018BB97
:1013C0000BF022BB0BF0DDBA0BF03FBC90F82520F0
:1013D00012B103685B69184770470000084B4FF073
:1013E0008062C3F88820BFF34F8FBFF36F8F4FF039
:1013F0008072C3F88820BFF34F8FBFF36F8F7047A1
:1014000000E100E0034B4FF080629A604FF0807281
:101410009A60704700E100E070B50023124E8380AF
:10142000124B0360336893F8582005460AB1D86C14
:1014300000B998680368DB6A98473368B0FA80F4AB
:10144000D86C640930B10368DB6A9847002808BF8C
:1014500044F001042CB9064B064A07482C2124F01D
:10146000ADFD284670BD00BFBC3D01202C770208B1
:101470002876020886760208BF76020870B5244EE8
:101480003568BFF35B8F15F001053FD1304623F07F
:1014900051FE00283AD01F4C1F4B256104F1340047
:1014A000C4E90035C4E90255E584A562A58513F0B9
:1014B00010FB04F158000EF07FFA184BA36520468C
:1014C000174B40F8843BFFF7A7FF164BC4F8843056
:1014D0002433C4F88C306423C4E928350023C4F8CD
:1014E000AC30C4F8B030C4F8B430C4F8B8300E48EA
:1014F0000E4BC4F89050C4F89C50C4F8A850C4F8DF
:10150000983024F079FD304623F020FE014870BD6C
:10151000842C00208C2C0020149602084C770208A2
:10152000C4770208C895020801130008A8950208AC
:1015300010B5144C236823B3134B144A1B6C118849
:101540008B4213D1124B198805F080FC226892F867
:101550006A30013382F86A30FFF704FB20680BF031
:101560009FFFBDE810400020FFF748B905F06EFC72
:10157000206803681B6A9847BDE810400020FFF709
:1015800067B910BDBC3D0120006801408A2C0020D5
:10159000882C002007B5064BADF806001B680548EF
:1015A00001220DF1060106F0B3F903B05DF804FB6A
:1015B00010000020CC2E002008B5642006F083FE29
:1015C000FBE7000030B595B0102200210AA824F0F6
:1015D000FAFE1422002103A824F0F5FE00241D4B7E
:1015E00001941A6C42F080521A641B6C03F0805311
:1015F0000193019B184B02941A6842F440421A600E
:101600001B6803F4404302930122029B4FF4803392
:10161000CDE9082302254FF48003CDE90E530821BC
:101620004FF4A873CDE9101308A80423139312955F
:1016300005F02AFC0F23CDE903354FF4A0504FF4F9
:101640008053CDE90603052103A8059405F0F6FDB6
:1016500015B030BD003802400070004080B59AB02F
:1016600004F05EFBFFF7AEFF142200210DA800245A
:1016700024F0A9FEC04B00941A6BC048C04D42F044
:1016800010021A631A6B02F010020092009A019481
:101690001A6B42F020021A631A6B02F020020192C8
:1016A000019A02941A6B42F080021A631A6B02F0DC
:1016B00080020292029A03941A6B42F004021A63A7
:1016C0001A6B02F004020392039A04941A6B42F01C
:1016D00001021A631A6B02F001020492049A059443
:1016E0001A6B42F002021A631A6B02F002020592B0
:1016F000059A06941A6B42F040021A631A6B02F0C4
:1017000040020692069A07941A6B42F008021A6386
:101710001B6B03F00803079322463C21079B04F050
:1017200089FD98482246042104F084FD224696480B
:101730004FF4405104F07EFD01264FF003083C2396
:101740008E48CDF840800DA902274FF00409CDE95D
:101750000D360F9404F082FC8A480F940DA9CDE950
:101760000D96109704F07AFC0DA94FF4405386486B
:10177000CDE90D36CDE90F4704F070FC8348844B6A
:10178000036004F05FFB834A834B2C62C5E90023AE
:1017900028464FF48043C5E90434C5E90244C5E94D
:1017A000064404F053FF1021284605F097F921461E
:1017B000284605F0B2F97948794984624FF482737A
:1017C000C0E900134FF400751823C0E906530A233B
:1017D000744DC362C0E90244C0E90444C0E908444E
:1017E00006F03AF8704B0D974FF0100CC5E9003633
:1017F0004023C5E904C34FF4C073C5E906344FF470
:101800000063C5E908344FF40053AB620DA9072308
:101810002846CDE90E39CDE910384FF0080AC5E960
:101820000249CDE9127705F0FBFE4FF6FF7209A9D8
:101830002846CDE90AA6089409960C9405F010FFF5
:10184000304604F099FA4FF6FF7209A92846CDE90F
:10185000097ACDE90B6405F003FF4FF6FF7209A981
:101860002846CDE9098ACDE90B9405F0F9FE4FF43D
:101870000C730893089B0C934FF6FF7209A9284636
:10188000CDE9099A0B9605F0EBFE40F26A51284625
:1018900005F004FF342221460DEB020024F093FDF5
:1018A000424D434BAC86C5E900340923C5E90536F2
:1018B0001D2340F20D1EC5E9073840F24313C5E968
:1018C00009E3284640F2471340F21718C5E90B8395
:1018D000C5E902442C6185F8364005F0BFF9FF21C7
:1018E000F022CDE912144FF4806905214FF4A07362
:1018F000CDE90E24CDE91491CDE916420DA9224679
:101900002846CDE910372B4D18930D94ADF864405F
:101910008DF8664005F06DFA274B2B601B689847E1
:101920002B68264DDB689847254BC5E90A47C5E972
:101930000C442846C5E90034C5E9027404F092FA63
:101940003146284604F046FBFEF79AFEFEF797FE66
:1019500006F046FC1B4A1C48214606F06DFC1B4B5A
:101960001B4A186021461B4806F066FC1A4B18609B
:1019700006F048FCFEE700BF0038024000100240BD
:101980009C2D002000080240000C0240542D002035
:1019900000300240005C0040A0860100CC2E0020F8
:1019A00000500140982E0020400100A0F02D0020A2
:1019B000006801404C2D0020140000205C2D002008
:1019C00000B0024044780208B9150008502D0020EC
:1019D000207802088F060008482D002070477047C5
:1019E0007FB5094B8DF817201B6802930DF1170284
:1019F0000123009201930A460146044804F0CEFEFA
:101A000007B05DF804FB00BF0C0000209C2D0020F7
:101A10007FB500238DF81730084B1B6802930A46E8
:101A200001230DF11701009101930146044804F0D0
:101A300045FF9DF8170007B05DF804FB0C0000207F
:101A40009C2D00201FB5084C24680092CDE901347C
:101A50000A4601230146054804F030FF003818BF4C
:101A6000012004B010BD00BF0C0000209C2D002000
:101A700004F082B908B506480022042104F0DAFB1C
:101A8000BDE8084002480122042104F0D3BB00BF96
:101A90000008024038B50B4D044601220A484FF4B5
:101AA000005104F0C7FB00220421284604F0C2FBC9
:101AB0002046FFF76FFD28460122BDE8384004218B
:101AC00004F0B8BB00080240000C024038B50B4DD2
:101AD000044600220A484FF4005104F0ABFB0022F8
:101AE0000421284604F0A6FB2046FFF753FD2846B4
:101AF0000122BDE83840042104F09CBB00080240EC
:101B0000000C0240F7B5144E144F05460C46304603
:101B10000022042104F08EFB00224FF400513846CD
:101B200004F088FB2846FFF735FD0D4B0D481B6878
:101B3000224601A906F095F8384601224FF40051DB
:101B4000019C04F077FB30460122042104F072FB73
:101B5000204603B0F0BD00BF00080240000C024068
:101B600010000020CC2E002004F006B90268034BC0
:101B70009A4201D104F0EEB8704700BF0010004057
:101B80007047000082B00E4B00220092596C41F465
:101B900080415964596C01F480410091009901928F
:101BA000196C41F0805119641B6C03F08053019350
:101BB000019B0F216FF0010002B004F003B900BFD8
:101BC000003802400268094B9A4282B00BD10023D0
:101BD0000193074B1A6B42F480521A631B6B03F498
:101BE00080530193019B02B0704700BF0030024058
:101BF0000038024007B50F4B02689A4216D1002206
:101C0000A3F5F0430192196B41F4000119631B6BBA
:101C100003F40003019305215A20019B04F0D2F83C
:101C20005A2003B05DF804EB04F0FEB803B05DF891
:101C300004FB00BF00B002402DE9F043044689B028
:101C40001422002103A824F0BEFB2268244B9A42F0
:101C500043D1244C244800250095236B43F0040312
:101C60002363236B03F004030093009B0195236B14
:101C700043F001032363236B03F001030193019BF2
:101C80004FF012094FF400734FF0010803270426A8
:101C900003A9CDE90339CDE90587079604F0DEF9FC
:101CA0004FF480731148079603A9CDE90339CDE9B4
:101CB000058704F0D3F90295236C43F400032364F1
:101CC000236C03F400030293029B236A43F4000392
:101CD0002362236A23F40003236209B0BDE8F08382
:101CE000005C004000380240000802400000024052
:101CF000F0B599B004461422002107A824F063FB34
:101D000030220DEB0200002124F05DFB22685E4BC7
:101D10009A4240F0B78008230C93C0231093042309
:101D200012930CA84FF40033159305F04FFB08B144
:101D3000FFF726FF554B5648002400945A6C42F09A
:101D400080625A645A6C02F080620092009A019498
:101D50001A6B42F020021A631A6B02F02002019201
:101D6000019A02941A6B42F001021A631A6B02F094
:101D700001020292029A03941A6B42F002021A6361
:101D80001A6B02F002020392039A04941A6B42F057
:101D900040021A631A6B02F040020492049A0594FE
:101DA0001A6B42F004021A631A6B02F004020592E5
:101DB000059A06941A6B42F008021A631B6B03F033
:101DC0000803069302250E26069B0B964FF48063AC
:101DD00007A9CDE90735CDE9094504F03FF941F6FA
:101DE00058032C480B9607A9CDE907350927CDE9FB
:101DF000094504F033F9032327480B9707A9CDE9D8
:101E00000735CDE9094504F029F94FF470632248FC
:101E10000B9607A9CDE90735CDE9094504F01EF970
:101E20004FF40C631D480B9607A9CDE90735CDE9A2
:101E3000094504F013F9C02319480B9607A9CDE909
:101E40000735CDE9094504F009F9082315480B9633
:101E500007A9CDE90735CDE9094504F0FFF84FF4AE
:101E6000A0530E480B9707A9CDE90735CDE90945E1
:101E700004F0F4F858202246052103F0A3FF58206F
:101E800003F0D2FF19B0F0BD0068014000380240F5
:101E9000001402400000024000040240001802400A
:101EA00000080240000C024010B5044688B014221D
:101EB000002103A824F087FA2268144B9A4223D108
:101EC00003F56843002101915A6C114842F48012D5
:101ED0005A645A6C02F480120192019A02911A6BB0
:101EE00042F020021A631B6B03F020030293029B53
:101EF0004FF4607202230321CDE903230523CDE9CA
:101F0000061303A904F0AAF808B010BD0050014060
:101F1000001402402DE9F04186B0002303932B4BBF
:101F20001C68002C4FD14FF00108C3F80080284BEB
:101F300000949A6B274842EA08029A639B6B03EA73
:101F400008030093022703260C25009B01A94FF6E6
:101F50003F03CDE90137CDE9046504F07FF81E4861
:101F6000059501A9CDE90187CDE9034604F076F88E
:101F700048F233131948059501A9CDE90137CDE998
:101F8000034604F06BF84FF683731548059501A9D5
:101F9000CDE90137CDE9034604F060F84CF2037354
:101FA0001048059501A9CDE90137CDE9034604F0B4
:101FB00055F860230C48059501A9CDE90137CDE915
:101FC000034604F04BF806B0BDE8F081242F002052
:101FD000003802400014024000080240001802408D
:101FE00000100240000C02400004024070B588B0AE
:101FF00000230293204B1A6C42F010021A641B6CEF
:1020000003F010030293054601A903A8029B05F003
:10201000BFF9069B4BBB05F0ABF9184E184B33606C
:1020200040F2E733F360174BB0FBF3F3013B73600F
:10203000304600233361B360B36105F0F7FF044617
:1020400080B9304605F0B4FE044658B9362003F096
:10205000EBFE0F2D0DD822462946362003F0B2FEA6
:10206000094B1D60204608B070BD05F081F94000A5
:10207000D3E70124F6E700BF00380240282F0020F4
:102080000010004040420F007C0000207047FEE737
:10209000FEE7FEE7FEE77047014805F0C7BE00BF58
:1020A000282F0020014804F047BE00BFF02D00207B
:1020B000014803F005BF00BF5C2D002001207047E0
:1020C00008B524F023FA162303604FF0FF3008BD53
:1020D00008B524F01BFA16230360FEE770B50D4621
:1020E00014460E46731B9C4201DC204670BDAFF3C4
:1020F000008006F8010BF5E770B50D4614460E4654
:10210000731B9C4201DC204670BD16F8010BAFF337
:102110000080F5E74FF0FF3070474FF400534B60FD
:102120000020704701207047002070470A4A11685C
:1021300008B5034609B909491160106869460344A6
:102140008B4206D924F0E2F90C2303604FF0FF30F4
:1021500008BD1360FCE700BF702F0020F849012084
:1021600070477047704770477047704770477047B7
:10217000704730B4C26844685510034604EB6200EF
:10218000D20748BF62599B6830BC48BFD358184734
:1021900043682BB183682BB9C06800F00100704719
:1021A000184670470120704710B50821044622F0F8
:1021B000BFFF204610BD10B51021044622F0B8FF25
:1021C000204610BD10B54FF4C071044622F0B0FF98
:1021D000204610BDE030884208B505D111F0A4F8C2
:1021E000BDE8084001F0E0BB08BD70B503680446D7
:1021F0001B6B154698472368294620465B6BBDE854
:102200007040184770B504461D46BDF91060FFF7D1
:10221000ECFF2368294620469B6B9847236831468C
:102220002046DB6BBDE8704018470000094A026099
:102230004FF4807100228184FF21C0E90122C0E9AE
:102240000322C0E90522C0E9072280F82610826235
:10225000704700BF989802084FF4807181840D493F
:1022600001600D4981624FF6FF7181854FF47F0156
:10227000002241634FF0FF31C0E90122C0E903228F
:10228000C0E90522C0E90722C0E9101202630287F3
:10229000C263704708980208347902081A4B73B574
:1022A0001B88018F8B4206462BD9184B1B682BB914
:1022B000174B184A18486C2123F080FE13F81120A0
:1022C000164B1B6853F82250154B186802F084FC1B
:1022D0002B6801909B6B284698472B6801999B6C53
:1022E0000446284698472B6801995B6A14FB00F462
:1022F00028469847A4B223181BB2A6F8463002B06D
:1023000070BD0023F9E700BF183E0120143E0120F4
:1023100068780208AA780208E57802081C3E0120C5
:10232000203E01202DE9F04F04468BB0A246002547
:1023300012F054FF564BE5634AF8403B04F16C0B36
:10234000504604F19809FFF771FF5846FFF76EFFFA
:1023500004F1E0084846FFF77FFF04F59477404614
:102360000EF022FC3846FFF777FF4A4BC4E95C3495
:10237000494BC4E95E354FF4A0732A4600932946C1
:102380005046F023FFF73EFF261D4FF07F43A36624
:102390005146304609F083FB4FF4A0732A46009360
:1023A00029465846F023FFF72DFF3C4BC4F89430E4
:1023B0005946304609F073FB0F2248461421FFF7B7
:1023C00014FF0DF1080A364BC4F8C8304946504690
:1023D000A4F8CC500DF0EEFB9AE8070004F1D4030A
:1023E00083E80700DFF8BCB0CDF820B0172308A9B8
:1023F0004846ADF824300DF077FE4946304609F0E6
:102400004EFB40460722C521FFF7EFFE022308AA34
:1024100007A9ADF81C3040460323ADF820300EF07C
:1024200096F81623A4F818314046FFF737FF4FF00F
:10243000FF3904F5B873C4F8083141463046C4E9A1
:10244000479909F02CFB4B2238461821FFF7CDFEA7
:1024500039465046C4F85891A4F85C510DF0AAFBD7
:102460009AE8070004F5B27383E80700152308A96A
:102470003846ADF82430CDF820B00DF035FE3046AA
:10248000394609F00CFB20460BB0BDE8F08F00BFC9
:102490005C79020844790208D52100082B2B2BFF18
:1024A000808080FF34790208704708B5042914D869
:1024B000DFE801F00B03070B0F0002F095FE406808
:1024C00008BD02F091FE8068FAE702F08DFE006818
:1024D000F6E702F089FEC068F2E70020F0E710B5E9
:1024E0000421044622F024FE204610BD0048704717
:1024F0009C7902080F20704713B5002451B103687E
:1025000001948DF8034001AA9C680DF10303A047D4
:1025100002B010BD0846FBE7C0897047008A7047CB
:10252000C088704780887047807A00F07F007047CD
:10253000807AC00970470020704700009FED010AB3
:10254000704700BF0000000070477047704730B40C
:10255000C26844685510034604EB6200D20748BFC6
:1025600062599B6830BC48BFD358184743682BB1A9
:1025700083682BB9C06800F00100704718467047A7
:102580000120704710B51021044622F0D1FD2046ED
:1025900010BD10B54FF49961044622F0C9FD2046E4
:1025A00010BDE030884208B505D110F0BDFEBDE891
:1025B000084001F0F9B908BD2DE9F04F2DED0E8B63
:1025C00004468DB026464FF0000B12F007FEEA4B92
:1025D000C4F83CB046F8403B04F16C0A3046FFF7C3
:1025E00025FE04F198085046FFF720FE04F1E007AD
:1025F0004046FFF731FE04F5947938460EF0D4FAE0
:1026000048460EF073F904F5B27318460BEE103A13
:102610000EF06CF904F5D07318460BEE903A0EF0FC
:1026200065F904F5EE7318460CEE103A0EF05EF9FB
:1026300004F5067318460CEE903A0EF057F904F5BF
:10264000157318460DEE103A0EF050F904F5247388
:1026500018460DEE903A0EF049F904F5337318461A
:102660000EEE103A0EF042F904F54273184608EEE9
:10267000103AFFF7F1FD04F55473184608EE903A4E
:10268000FFF7EAFD04F56673184609EE103AFFF706
:10269000E3FD04F57873184609EE903AFFF7DCFD88
:1026A00004F5856318460AEE103AFFF7D5FD04F5E8
:1026B0008E6318460AEE903AFFF7CEFDAF4BC4F892
:1026C000B834AF4BC4F8C0344FF4A0735A460093EB
:1026D00059463046C4F8BC44C4F8C4B4F023251DA0
:1026E000FFF790FD4FF07F43A3663146284609F07F
:1026F000D6F94FF4A0735A46009359465046F0233A
:10270000FFF780FD9F4BC4F894305146284609F0EE
:10271000C6F90F22404614210DF1080AFFF765FDA6
:10272000994BC4F8C83041465046A4F8CCB00DF0DF
:1027300041FA9AE8070004F1D4030AAE83E80700DF
:10274000924B0A93314614234046ADF82C300DF0DD
:10275000CBFC4146284609F0A2F938460722C5219C
:10276000FFF743FD0223324609A9ADF8243038466D
:102770000323ADF828300DF0EAFE1323A4F8183136
:102780003846FFF78BFD4FF0FF33C4E9473304F5BC
:102790009763C4F808313946284609F080F948465D
:1027A0004FF481727D21FFF720FD4FF00B0208A945
:1027B000042709ABADF82420ADF8282048460A4686
:1027C0004FF01E0807A90096ADF81C70ADF82070F8
:1027D0000DF0F7FFC4F860814946284609F05FF91B
:1027E0001BEE100A4FF481720A21FFF7FEFC08A8C5
:1027F00002464FF00A0107A809ABADF82410ADF866
:102800002810009601461BEE100AADF81C70ADF8BA
:1028100020700DF0D6FF1BEE101AC4F89C812846DC
:1028200009F03DF91BEE900AA0221D21FFF7DDFC07
:1028300008A8024607A84FF001086FF0061709AB79
:102840004FF00D09014600961BEE900AADF824905A
:10285000ADF82890ADF81C80ADF820B00DF0B1FFB8
:102860001BEE901AC4F8D871284609F018F91CEE2E
:10287000100AA0226B21FFF7B8FC08A84FF00B024A
:10288000ADF82820024607A809AB014600961CEEC9
:10289000100AADF82490ADF81C80ADF820B00DF012
:1028A00090FF1CEE101AC4F81472284609F0F7F8CD
:1028B0001CEE900AD2221D21FFF797FC08A80246C1
:1028C00007A84FF00C0909AB014600961CEE900AD0
:1028D000ADF81C80ADF820B0ADF82490ADF828908C
:1028E0000DF06FFF1CEE901AC4F85072284609F0E4
:1028F000D6F81DEE100AD2226B21FFF776FC08A84D
:10290000024607A809AB014600961DEE100AADF875
:102910001C80ADF820B0ADF82490ADF828900DF0F3
:1029200050FF1DEE101AC4F88C72284609F0B7F853
:102930001DEE900AA022AF21FFF757FC07A84FF029
:102940000D014FF00B0209ABADF82410ADF82820B3
:10295000014608AA1DEE900A0096ADF81C80ADF85D
:1029600020B00DF02EFF1DEE901AC4F8C872284654
:1029700009F095F80CE000BFE87A0208D07A020866
:10298000A32500082B2B2BFF808080FF34790208C1
:102990001EEE100AD222AF21FFF727FC07A809ABD1
:1029A00008AA014600961EEE100AADF81C80ADF88C
:1029B00020B0ADF82490ADF828900DF002FF1EEE87
:1029C000101AC4F80473284609F069F818EE100AC2
:1029D00056222521FFF709FC4FF07F4218EE101A0E
:1029E000C4F838235046A4F83CB30DF0E3F89AE855
:1029F000070004F5517383E807004FF00A01664FA2
:102A0000ADF82C1018EE100A31460A970DF06CFB49
:102A100018EE101A284609F042F818EE900A7822AB
:102A20002821FFF7E2FB4FF07F4318EE901AC4F81D
:102A300080335046A4F884B30DF0BCF89AE8070040
:102A400004F5637383E80700072318EE900A314604
:102A5000ADF82C300A970DF047FB18EE901A284677
:102A600009F01DF819EE100A56227021FFF7BDFB80
:102A70004FF07F4319EE101AC4F8C8335046A4F83B
:102A8000CCB30DF097F89AE8070004F5757383E866
:102A90000700092319EE100A3146ADF82C300A97C9
:102AA0000DF022FB19EE101A284608F0F8FF19EE77
:102AB000900A78227421FFF798FB4FF07F4319EEBC
:102AC000901AC4F810345046A4F814B40DF072F8FB
:102AD0009AE8070004F21C4383E80700062319EE76
:102AE000900A3146ADF82C300A970DF0FDFA19EE38
:102AF000901A284608F0D3FF1AEE100A5622BA217F
:102B0000FFF773FB4FF07F431AEE101AC4F85834E6
:102B10005046A4F85CB40DF04DF89AE8070004F2B2
:102B2000644383E8070008231AEE100A3146ADF823
:102B30002C300A970DF0D8FA1AEE101A284608F031
:102B4000AEFF1AEE900A7822BA21FFF74EFB4FF043
:102B50007F431AEE901AC4F8A0345046A4F8A4B4E7
:102B60000DF028F89AE8070004F2AC4383E8070068
:102B700005231AEE900A3146ADF82C300A970DF075
:102B8000B3FA28461AEE901A08F089FF20460DB0D5
:102B9000BDEC0E8BBDE8F08F3479020830B50368C8
:102BA000018185B06D460146D3F88430044628463D
:102BB000984795E807003C3484E8070005B030BD2D
:102BC00030B50368418185B06D460146D3F8843045
:102BD00004462846984795E807003C3484E80700F7
:102BE00005B030BD0022028042808280C2807047E2
:102BF00080F83610704770B5036804461B6B1546A5
:102C000098472368294620465B6EBDE87040184708
:102C100000207047806C7047704770470368DB6A1C
:102C200018477047704730B4C2684468551003466F
:102C300004EB6200D20748BF62599B6830BC48BFB2
:102C4000D358184743682BB183682BB9C06800F08C
:102C500001007047184670470120704710B54C219D
:102C6000044622F065FA204610BD10B51021044636
:102C700022F05EFA204610BD08B5FEF7A7FB08BD9E
:102C8000036870B55E6B124B1B6804468DB22BB99E
:102C9000104B114A6C21114823F090F91049828D94
:102CA0000988914203D80F4B0B4A6D21F3E713F8C3
:102CB00012200D4B1B6853F8220003681B6B9847CA
:102CC000281A01B233462046BDE87040184700BFBD
:102CD000143E012068780208AA780208E578020804
:102CE000183E0120147B02081C3E012098308842C7
:102CF00008B505D110F018FBBDE8084000F054BE3F
:102D000008BD00224FF0FF31C0E90021826070470A
:102D1000074A02600022C0E90122C0E90322C0E99B
:102D20000522C0E907224FF480728284704700BFF9
:102D3000409B02082DE9F04F2DED108B044697B013
:102D400012F04CFA22460025EB4BE56342F8403B7B
:102D500010460AEE102AFFF769FA04F16C0304F139
:102D6000980818460693FFF761FA40460DF01CFFDD
:102D700004F1E00304F5947A18460AEE903AFFF75E
:102D80006BFA504609F052FA04F5087318460BEE38
:102D9000103ADFF88CB3D94FFFF7BAFF04F513737D
:102DA000C4F820B2C4F8485218460BEE903AFFF728
:102DB00053FA04F52573184604F5387609EE903A6F
:102DC000FFF74AFACE4BC4F89432C4F8DC523046CE
:102DD00007F0DEFB04F5787318460993FEF71CFB39
:102DE00007F1240304F57D71C4F8E833C4F8EC530B
:102DF000C4F8E07308460CEE101AFFF789FF04F5DB
:102E00008461C4F8F4B3C4F81C5408460CEE901A5C
:102E1000FFF722FA04F58D6108460DEE101AFFF750
:102E20001BFA04F59661084608EE101A07F0B0FB8D
:102E300004F5B66108460A91FEF7EEFA07F124029E
:102E400004F2C451C4F8B825C4F8BC55C4F8B07530
:102E500008460DEE901AFFF75BFF04F5BE61C4F85B
:102E6000C4B5C4F8EC5508460EEE101AFFF7F4F995
:102E700004F5C76104F5D06708460EEE901AFFF717
:102E8000EBF9384607F084FB04F5F06108460B9136
:102E9000FEF7C2FA994BC4F8803703F1240204F21A
:102EA0009471C4F88827C4F88C5708460FEE101A9E
:102EB000FFF72EFF04F5F861C4F894B7C4F8BC57C7
:102EC00008460FEE901AFFF7C7F904F6080104F55B
:102ED000056908460291FFF7BFF9484607F058FB1D
:102EE00004F5156108460C91FEF796FA834BC4F879
:102EF000503903F1240204F66411C4F85829C4F8C7
:102F00005C5908460391FFF703FF04F51961C4F803
:102F100064B9C4F88C5908460491FFF79DF904F68A
:102F2000D81104F5226B08460591FFF795F958462C
:102F300007F02EFB04F5326108460D91FEF76CFA9E
:102F40006E4BC4F8203B03F1240204F63433C4F87A
:102F5000282BC4F82C5B184609EE103A08F0DAFC6E
:102F600004F6CC3318460793FFF760F904F6F833FC
:102F700018460893FFF75AF904F58053614AC3F8DD
:102F8000382A614AC3F83C4AC3F8402AC3F8445A75
:102F900004F628404FF461610EF0C2FC4FF4A073B8
:102FA0002A461AEE100A00932946F023FFF72AF961
:102FB0004FF07F43A366231D1AEE101A184608EE41
:102FC000903A08F06CFD4FF4A0732A4606980093DF
:102FD0002946F023FFF716F94C4BC4F894300699B4
:102FE00018EE900A08F05BFD40460722C521FFF766
:102FF000FCF8022314AA13A9ADF84C3040464FF058
:103000000303ADF850300DF0A2FA2323A4F8D0301A
:103010004046FFF743F94FF0FF33C4E9353304F579
:10302000D1531833C4F8C03018EE900A414608F066
:1030300036FD1AEE900A0D221B210DF13808FFF71C
:10304000D4F8334BC4F810311AEE901AA4F8145186
:1030500040460CF0AFFD98E8070004F58E7383E856
:1030600007002C4B14931AEE900A222314A9ADF8F2
:1030700054300DF039F81AEE901A18EE900A08F054
:103080000EFD294650461F22FFF7AFF84FF0090208
:103090000823ADF8502013A914AA5046ADF84C30BF
:1030A00009F064F9F02250465A2109F00BF8504615
:1030B000322108F080FF5046322109F001F8164A0B
:1030C000C4F828221BEE900A1A222021FFF78DF85F
:1030D000124AC4F87C221BEE901AA4F88052404693
:1030E0000CF068FD98E8070004F5227383E80700F8
:1030F0004FF0200016E000BF047C0208C8950208CB
:103100005C7B0208EC7B0208ED2C00082B2B2BFFCC
:10311000999999FF34790208F0000501FFF700FF43
:10312000FC920208E84BADF8540014A91BEE900A7B
:1031300014930CF0D9FF1BEE901A1BEE100A08F046
:10314000AEFC19EE900A40225B21FFF74EF8D4F84E
:103150009432DE4AC4F8C42219EE901AA4F8C85278
:103160004046D3F88430984798E8070004F5347354
:1031700083E8070004F6244319EE900AA4F8245CBF
:10318000C4F8DC320CF090FFCF4B149319EE900A88
:10319000212314A9ADF854300CF0A6FF19EE901AB3
:1031A0001BEE100A08F07BFC30466B224121FFF732
:1031B0001CF86E20009003462A462946304607F048
:1031C0008BF92B46009529463046642207F014FA05
:1031D00037221146304607F014F93046322107F005
:1031E0003AF930460A2107F03CF9B4222946304624
:1031F00007F0BBF93046B42107F03AF94FF0070069
:10320000ADF8500014A9304607F024FB40F29F7E31
:10321000AF48A4F8F0E30999C4F8EC03304607F08E
:10322000EDF830463C2107F084F91BEE100A3146D8
:1032300008F035FC1BEE101A504609F00EF9A549AE
:10324000C4F8FC131CEE900A17224C21FEF7CDFFA8
:103250009E4AC4F850241CEE901AA4F854544046D8
:103260000CF0A8FC98E8070004F25C4383E8070030
:103270001D23ADF8543014AB1946934E14961CEE32
:10328000900A0CF031FF1CEE901A1CEE100A08F0A8
:1032900006FC1DEE100A3C225B21FEF7A6FF8B4ABE
:1032A000C4F898241DEE101AA4F89C5440460CF063
:1032B00081FC98E8070004F2A44383E8070014ABFC
:1032C00019461DEE100A14961C26ADF854600CF039
:1032D0000BFF1DEE101A1CEE100A08F0E0FB18EEB2
:1032E000100A6B224121FEF780FF6E2318EE100AB0
:1032F00000932A46294607F0EFF82B4618EE100AED
:1033000000952946642207F077F93722114618EE16
:10331000100A07F076F818EE100A322107F09BF831
:1033200018EE100A0A2107F09CF84FF4B47218EE58
:10333000100A294607F019F918EE100AB42107F00F
:1033400097F814AB4FF0070C194618EE100AADF8B9
:1033500050C007F07FFA40F29F7E5D48A4F8C0E5B8
:103360000A99C4F8BC0518EE100A07F047F818EEE1
:10337000100A3C2107F0DDF818EE101A1CEE100AB6
:1033800008F08DFB1CEE101A504609F066F8514902
:10339000C4F8CC151EEE100A17223621FEF725FFC1
:1033A0004A4AC4F820261EEE101AA4F824564046B5
:1033B0000CF000FC98E8070004F22C6383E8070097
:1033C000414B14931EEE100A1B2314A9ADF8543080
:1033D0000CF08AFE1EEE101A1DEE900A08F05FFB3C
:1033E0001EEE900A3C225B21FEF7FFFE374AC4F82E
:1033F00068261EEE901AA4F86C5640460CF0DAFBD4
:1034000098E8070004F2746383E807002E4B1493D6
:103410001A23ADF8543014AB19461EEE900A0CF086
:1034200063FE1EEE901A1DEE900A08F038FB384637
:103430006B224121FEF7D9FE6E2300932A462946CE
:10344000384607F049F82B4600952946384664224D
:1034500007F0D2F837221146384606F0D2FF384638
:10346000322106F0F8FF38460A2106F0FAFF4FF441
:10347000B4722946384607F078F83846B42106F089
:10348000F7FF14AB4FF0070C19463846ADF850C0A3
:1034900007F0E0F940F29F7E0D48A4F890E70B9901
:1034A000C4F88C07384606F0A9FF38463C2107F0DF
:1034B00040F81DEE900A394608F0F1FA1DEE901A18
:1034C000504608F0CAFF07E034790208FFF700FF12
:1034D000FFF000FFF0000501C349C4F89C171FEE80
:1034E000900A17224C21FEF780FEC04AC4F8F0274C
:1034F0001FEE901AA4F8F45740460CF05BFB98E8D6
:10350000070004F2FC7383E807001F23ADF8543072
:1035100014ABB74F149719461FEE900A0CF0E4FD58
:103520001FEE901A1FEE100A08F0B9FA02983C221A
:103530005B21FEF75AFEAD4A0299C4F83828A4F878
:103540003C5840460CF036FB98E8070004F644036C
:1035500083E807001E23ADF8543014AB19460298D7
:1035600014970CF0C1FD02991FEE100A08F097FAAB
:1035700048466B224121FEF738FE6E2300932A460F
:103580002946484606F0A8FF2B460095294648469E
:10359000642207F031F837221146484606F031FF21
:1035A0004846322106F057FF48460A2106F059FFE7
:1035B0004FF4B4722946484606F0D7FF4846B42176
:1035C00006F056FF14AB4FF0070C19464846ADF80D
:1035D00050C007F03FF940F29F7E8648A4F860E9AA
:1035E0000C99C4F85C09484606F008FF48463C219F
:1035F00006F09FFF1FEE100A494608F050FA1FEE32
:10360000101A504608F029FF77490498C4F86C193D
:103610003C225B21FEF7E9FD744A0499C4F8C029F5
:10362000A4F8C45940460CF0C5FA98E8070004F61F
:10363000CC1383E8070018230498ADF8543014A97C
:1036400014970CF051FDDDE9030108F028FA059804
:103650002A463321FEF7C9FD644A0599C4F8082AB1
:10366000A4F80C5A40460CF0A5FA98E8070004F6B6
:10367000142383E8070019230598ADF8543014A9E2
:1036800014970CF031FD0599039808F008FA584694
:103690006B224121FEF7A9FD6E2300932A4629469D
:1036A000584606F019FF2B460095294658466422D5
:1036B00006F0A2FF37221146584606F0A2FE5846F1
:1036C000322106F0C8FE58460A2106F0CAFE4FF421
:1036D000B4722946584606F048FF5846B42106F011
:1036E000C7FE4FF0070C14A95846ADF850C007F0BC
:1036F000B1F840F29F7E3F48A4F830EB0D99C4F832
:103700002C0B584606F07AFE58463C2106F011FF75
:103710000398594608F0C3F90399504608F09DFEF6
:103720002946504608F08AFE18EE900A514608F0E5
:10373000B6F962234FF4927219EE100A009609212D
:10374000FEF760FD19EE100A2B4908F021F801265A
:1037500019EE100A14A9ADF85460149708F02BF86C
:1037600019EE100A314608F023F90A224FF003033C
:10377000114619EE100A84F8633B2B4608F01BF93A
:1037800019EE101A18EE900A84F8595B08F087F9C0
:1037900034232A460798194E00932946F023112511
:1037A000FEF730FD0799C4F8F46B18EE900A84F820
:1037B000F25B08F074F92023089800934FF492729A
:1037C000F1234FF0FF31FEF71DFD18EE900A089926
:1037D000C4F8206C84F81E5C08F061F9204617B02C
:1037E000BDEC108BBDE8F08FF0000501FFF700FF86
:1037F00034790208FFF000FFFFEA00FFFF5938FFAD
:1038000010B5054B036004460EF094F804F594706F
:1038100008F0DCFB204610BD047C020810B504460D
:10382000FFF7EEFF204641F6482121F081FC2046BB
:1038300010BD7047704700F598730868496803C366
:10384000704770477047416070477047064BC0F83B
:103850004C310023C0F8503100F5A273C0F8480184
:10386000C0F84031704700BF713F00080123037268
:1038700070477047704710B4C268416854100346DF
:1038800001EB6200D20748BF0A599B685DF8044B00
:1038900048BFD358184743682BB183682BB9C06819
:1038A00000F001007047184670470120704710B5BE
:1038B0000C21044621F03CFC204610BD10B510211F
:1038C000044621F035FC204610BD10B54FF4AE7112
:1038D000044621F02DFC204610BD10B50FF024FD4C
:1038E0000368BDE81040DB6B184710B50446D0F8FC
:1038F000400158B10368DB68984738B1D4F84001FB
:1039000003689B6898470023C4F8403110BD00004D
:10391000044B1B6893F858200AB1D86C00B998681A
:10392000704700BFBC3D0120F8B5044617460E465F
:103930000FF006FE104B1C60104B2360104B00254F
:10394000C4E951350F4BC4E9535518680368012188
:103950009B68C4E94F55C4E955769847284601F05D
:10396000FFF8FFF7D5FF19F006FBFFF7D1FF19F0BD
:103970007DFB2046F8BD00BF103E0120B083020849
:1039800098830208BC3D0120064BC0F84C3100234F
:10399000C0F8503100F5A273C0F84801C0F84031BA
:1039A000704700BF713F0008064BC0F84C31002340
:1039B000C0F8503100F5A273C0F84801C0F840319A
:1039C000704700BF213E0008064BC0F84C31002371
:1039D000C0F8503100F5A273C0F84801C0F840317A
:1039E000704700BFD13C0008064BC0F84C310023A3
:1039F000C0F8503100F5A273C0F84801C0F840315A
:103A0000704700BF813B0008064BC0F84C310023D3
:103A1000C0F8503100F5A273C0F84801C0F8403139
:103A2000704700BF313A000803685B6A184700001E
:103A30002DE9F14FD0E9555A0746A86803681B6A7B
:103A40009847B0F5996F05D2454B464AA3214648A1
:103A500022F0B4FA686803681B6A98470F2803D8F5
:103A6000424B404AA421F2E7E86803681B6A984782
:103A70000B2803D83E4B3B4AA521E8E70FF054FC46
:103A8000DFF8F49004300FF08DFCD9F8000010B18D
:103A90000368DB689847D9F8000010B103681B6819
:103AA0009847DFF8D880D8F8000010B103685B6948
:103AB0009847D7F83C0110B103685B689847D8F87D
:103AC000000010B103681B689847D7F83C0110B19B
:103AD00003689B689847E8680021FFF7A5FF4FF04F
:103AE000000B244B03600446C0F804B080F808B013
:103AF000A868036859465B6A9847064601F008FCC7
:103B00006868036859465B6A98473146054601F084
:103B1000D9FBC9F80040C7F83C51C8F80060E5B1CE
:103B20002B1DCAF800303368C5F808A03046DB68A2
:103B3000F56398472B6828461B689847214630460E
:103B400011F0F8FC236820461B69984723685B69DD
:103B5000204601B0BDE8F04F18472B46E1E700BF13
:103B6000347C0208C27C0208D27D0208197E020859
:103B7000BC7E020804840208043E0120003E0120AD
:103B80002DE9F14FD0E9555A0746A86803681B6A2A
:103B9000984740F26343984205D8454B454AA321D4
:103BA000454822F00BFA686803681B6A98470F289B
:103BB00003D8424B3F4AA421F2E7E86803681B6A36
:103BC00098470B2803D83E4B3A4AA521E8E70FF067
:103BD000ABFBDFF8F49004300FF0E4FBD9F8000001
:103BE00010B10368DB689847D9F8000010B103688A
:103BF0001B689847DFF8D480D8F8000010B103683C
:103C00005B699847D7F83C0110B103685B68984737
:103C1000D8F8000010B103681B689847D7F83C013A
:103C200010B103689B689847E8680021FFF7FCFE25
:103C30004FF0000B234B03600446C0F804B080F83B
:103C400008B0A868036859465B6A9847064601F0C1
:103C5000DBFC6868036859465B6A9847314605464D
:103C600001F0A2FCC9F80040C7F83C51C8F8006058
:103C7000E5B12B1DCAF800303368C5F808A03046FE
:103C8000DB68F56398472B6828461B6898472146F0
:103C9000304611F04FFC236820461B699847236883
:103CA0005B69204601B0BDE8F04F18472B46E1E7BD
:103CB000347C02085F7F0208D27D0208197E020868
:103CC000BC7E020804840208043E0120003E01205C
:103CD0002DE9F14FD0E9555A0746A86803681B6AD9
:103CE0009847B0F5C07F05D2454B464AA3214648C8
:103CF00022F064F9686803681B6A98470F2803D8A4
:103D0000424B404AA421F2E7E86803681B6A9847DF
:103D10000B2803D83E4B3B4AA521E8E70FF004FBF4
:103D2000DFF8F49004300FF03DFBD9F8000010B13B
:103D30000368DB689847D9F8000010B103681B6876
:103D40009847DFF8D880D8F8000010B103685B69A5
:103D50009847D7F83C0110B103685B689847D8F8DA
:103D6000000010B103681B689847D7F83C0110B1F8
:103D700003689B689847E8680021FFF755FE4FF0FD
:103D8000000B244B03600446C0F804B080F808B070
:103D9000A868036859465B6A9847064601F078FAB6
:103DA0006868036859465B6A98473146054601F0E2
:103DB00049FAC9F80040C7F83C51C8F80060E5B1BD
:103DC0002B1DCAF800303368C5F808A03046DB6800
:103DD000F56398472B6828461B689847214630466C
:103DE00011F0A8FB236820461B69984723685B698C
:103DF000204601B0BDE8F04F18472B46E1E700BF71
:103E0000347C02086F800208D27D0208197E020805
:103E1000BC7E020804840208043E0120003E01200A
:103E20002DE9F14FD0E9555A0746A86803681B6A87
:103E30009847B0F5C86F05D2454B464AA32146487E
:103E400022F0BCF8686803681B6A98470F2803D8FB
:103E5000424B404AA421F2E7E86803681B6A98478E
:103E60000B2803D83E4B3B4AA521E8E70FF05CFA4C
:103E7000DFF8F49004300FF095FAD9F8000010B193
:103E80000368DB689847D9F8000010B103681B6825
:103E90009847DFF8D880D8F8000010B103685B6954
:103EA0009847D7F83C0110B103685B689847D8F889
:103EB000000010B103681B689847D7F83C0110B1A7
:103EC00003689B689847E8680021FFF7ADFD4FF055
:103ED000000B244B03600446C0F804B080F808B01F
:103EE000A868036859465B6A9847064601F0E0FAFD
:103EF0006868036859465B6A98473146054601F091
:103F0000B1FAC9F80040C7F83C51C8F80060E5B103
:103F10002B1DCAF800303368C5F808A03046DB68AE
:103F2000F56398472B6828461B689847214630461A
:103F300011F000FB236820461B69984723685B69E2
:103F4000204601B0BDE8F04F18472B46E1E700BF1F
:103F5000347C02086F810208D27D0208197E0208B3
:103F6000BC7E020804840208043E0120003E0120B9
:103F70002DE9F14FD0E9555A0746A86803681B6A36
:103F8000984741F65323984205D8454B454AA3210B
:103F9000454822F013F8686803681B6A98470F28A1
:103FA00003D8424B3F4AA421F2E7E86803681B6A42
:103FB00098470B2803D83E4B3A4AA521E8E70FF073
:103FC000B3F9DFF8F49004300FF0ECF9D9F8000001
:103FD00010B10368DB689847D9F8000010B1036896
:103FE0001B689847DFF8D480D8F8000010B1036848
:103FF0005B699847D7F83C0110B103685B68984744
:10400000D8F8000010B103681B689847D7F83C0146
:1040100010B103689B689847E8680021FFF704FD2A
:104020004FF0000B234B03600446C0F804B080F847
:1040300008B0A868036859465B6A9847064601F0CD
:10404000B7F96868036859465B6A98473146054680
:1040500001F07CF9C9F80040C7F83C51C8F800608D
:10406000E5B12B1DCAF800303368C5F808A030460A
:10407000DB68F56398472B6828461B6898472146FC
:10408000304611F057FA236820461B699847236889
:104090005B69204601B0BDE8F04F18472B46E1E7C9
:1040A000347C020881820208D27D0208197E02084F
:1040B000BC7E020804840208043E0120003E012068
:1040C000406A7047806A704770478B88C0690A6889
:1040D000DB0A50F823001044704710B5C2B1137BBF
:1040E000B3B1547BD27A240204F4E0641443026A2C
:1040F00098B202EB840213888B4202D192F902003B
:1041000010BD05D8013880B204320028F3D1F7E79A
:104110000020F5E710B52C21044621F009F82046CF
:1041200010BD000030B58BB00446BDF86050089556
:10413000BDF85C5007959DF8505006959DF84C5081
:1041400005959DF8485004959DF8445003959DF8B9
:10415000405002959DF83C500195BDF838500095AF
:1041600010F074FD064B2360159BE361169B2362E0
:10417000199B63621A9BA36220460BB030BD00BF3F
:10418000288402087047022070477047704700007B
:1041900038B50546074B45F8043BD0F81C320446B9
:1041A0001B6800F507709847636828461B689847A6
:1041B000204638BD0C86020810B5044B0360044647
:1041C00000F5F670FFF7E4FF204610BD54860208A4
:1041D00030B4C26844685510034604EB6200D2074D
:1041E00048BF62599B6830BC48BFD35818474368E2
:1041F0002BB183682BB9C06800F0010070471846E6
:10420000704701207047F0B4C56846686F100446D7
:1042100006EB6500ED07A46844BFF5592C59A44688
:10422000F0BC604743682BB183682BB9C06800F0CD
:1042300001007047184670470120704710B50446CA
:10424000FFF7A6FF204640F2344120F071FF2046E0
:1042500010BD10B51021044620F06AFF204610BDA5
:1042600010B51021044620F063FF204610BD10B5A4
:104270000446FFF7A1FF20464FF4C86120F058FF25
:10428000204610BD10B5044600F5AA7006F0E9FC02
:1042900004F5F87001F06CF9D4F8083404F5816085
:1042A000D3F88830BDE810401847000008B58BB23D
:1042B000012B05D9054B064A0648542121F07EFE04
:1042C0004FF4067301FB0300043008BD8884020824
:1042D000A3840208378502089830884208B505D1C2
:1042E0000FF022F8BDE80840FFF74EBB08BD000004
:1042F00070B500F5F6748C4215461A4611D1036864
:10430000012DDB6A05D9074B074A0848612121F0D6
:1043100055FE4FF4067105FB01410431BDE87040C4
:10432000184770BD88840208968502083785020800
:104330002DE9F04F2DED028B04468BB0A1460025F0
:1043400010F04CFF844BE56349F8403B04F16C0BE3
:10435000484604F19808FDF769FF5846FDF766FFE7
:1043600040460CF021FC4FF48073A4F804317B4BE1
:10437000C4F8E0307A4BC4F808314FF6FF7304F507
:104380009476A4F80C314FF0FF324FF47F03C4E968
:104390004825C4F81431C4E93955C4E93B55C4E98A
:1043A0003D55C4E93F55C4F81051A4F81851C4F85C
:1043B0001C51304606F0ACFE6A4BC4F8EC3104F5F3
:1043C000F67204F5F87008EE102A01F0C7F804F54B
:1043D000816001F0C3F8644BC4F82036634BC4F825
:1043E0002836634BC4F830364FF4A072614BC4F8E2
:1043F0003836009229462A464846C4F82446C4F86E
:104400002C56C4F83446C4F83C56F023FDF7FAFEA7
:10441000271D4FF07F43A3664946384607F03FFB10
:104420004FF4A072009229462A465846F023FDF721
:10443000E9FE514BC4F894305946384607F02FFB3B
:1044400040460722C521FDF7D0FE022308AA07A98E
:10445000ADF81C3040460323ADF820300CF077F85F
:104460000E23A4F8D0304046FDF718FF04F5C663CC
:104470004FF0FF3204F1E00AC4F8C030C4E935223D
:104480004146384607F00BFB0F2250461421FDF73A
:10449000ACFE0DF10808394BC4F8103151464046C6
:1044A000A4F814510BF086FB98E8070004F58E730E
:1044B00083E807002A4B089308A90D235046ADF85E
:1044C00024300BF011FE5146384607F0E8FA40F26E
:1044D0002713332200932946F5233046FDF792FE39
:1044E0002946304607F093F82946304607F0EAF8A7
:1044F0003046234906F0CBFF30460A2106F0CAFFBA
:1045000030460A2106F0C9FF30460A2106F03FFF77
:104510002A462946304606F07AFE2946304606F0FD
:104520008EFE4B2384F8B2312A4630464FF4027196
:1045300006F050FE18EE101A04F5C462304606F07C
:104540001CFD3846314607F0AAFA20460BB0BDECF8
:10455000028BBDE8F08F00BF54860208089802085D
:10456000347902080C86020824860208F142000809
:104570003C860208D94200082B2B2BFF808080FF4D
:104580007D560108806A704770477047704730B4A5
:10459000C26844685510034604EB6200D20748BF66
:1045A00062599B6830BC48BFD358184743682BB149
:1045B00083682BB9C06800F0010070471846704747
:1045C0000120704710B51021044620F0B1FD2046AF
:1045D00010BD10B54FF40671044620F0A9FD204629
:1045E00010BD38B500F1A003994204460D4603D131
:1045F0000EF09AFEFFF7C8F904F5E0739D4203D16F
:104600000EF092FEFFF7E0F904F5BC739D4203D172
:104610000EF08AFEFFF7E8F904F59874A54205D17B
:104620000EF082FEBDE83840FFF7EEB938BD00005D
:104630002DE9F04F064600254FF480738C4A8384A1
:10464000C0E90155C0E90355C0E90555C0E9075562
:10465000856246F82C2B874AA0F85030FF2385B09E
:10466000044680F8523000F15803C0E90B2504F1EC
:10467000A00BC0E90D55C0E90F55C0E91155C5643F
:1046800045651846019304F1E80A0CF08DFA584686
:104690000CF08AFA04F5987950460CF085FA04F586
:1046A000BC7848460CF080FA04F5E07740460CF000
:1046B0007BFA38460CF078FA6F4AC4E982246F4AD4
:1046C000C4E984256E4AA26030462A466FF0020192
:1046D000FDF78BFD3046F821FCF7BAFD30464FF46C
:1046E0000271FCF7B7FD674A62653146204607F064
:1046F000D6F9019B642218463221FDF776FD4FF072
:104700000503ADF80C30019B062602A903AA184642
:10471000ADF808600BF01BFF019B1222A4F890205B
:104720001846FDF7BBFD019B4FF0FF3519462046AB
:10473000C4E9255507F0B3F958460B223221FDF79D
:1047400054FD03AA02A94FF005035846ADF80C30FA
:10475000ADF808600BF0FBFE1123A4F8D8305846E2
:10476000FDF79CFD04F50272C4F8C82059462046A6
:10477000C4E93755019207F092F95046BA22322126
:10478000FDF733FD4FF0050B03AA02A95046ADF823
:104790000860ADF80CB00BF0DAFE1023A4F820315D
:1047A0005046FDF77BFD51462046C4E9495507F0C8
:1047B00076F9484640F267123121FDF716FD03AA4B
:1047C00002A94846ADF80860ADF80CB00BF0BFFE8A
:1047D0000F23A4F868314846FDF760FD019BC4F83B
:1047E000583149462046C4E95B5507F058F9404620
:1047F0004FF48B723121FDF7F8FC03AA02A9404661
:10480000ADF80860ADF80CB00BF0A1FE0C23A4F8D5
:10481000B0314046FDF742FD019BC4F8A03141464E
:104820002046C4E96D5507F03AF938464FF4DF7277
:104830003121FDF7DAFC03AA02A93846ADF8086079
:10484000ADF80CB00BF083FE0B23A4F8F83138461A
:10485000FDF724FD019BC4F8E8312046C4E97F55EB
:10486000394607F01CF9204605B0BDE8F08F00BFBF
:10487000A4860208989802088C860208E34500087E
:10488000F50008022B2B2BFF7047000030B5164DAA
:104890002C68BFF35B8F14F001048FB020D1284641
:1048A00020F048FCE0B13F230993104B0893104BD4
:1048B000104911480A940122CDE906430423CDE9A9
:1048C00003320A230093CDE90B44CDE9014405945A
:1048D000FFF728FC094821F08FFB284620F036FC22
:1048E00005480FB030BD00BF742F0020D0E0020893
:1048F000C8E2020888D80208782F002089480008FA
:104900007047000030B5174D2C68BFF35B8F14F073
:1049100001048FB022D1284620F00CFCF0B13F23D7
:104920000993114B0893114B07930123CDE90543DC
:1049300004930423CDE902430F230D49009327225A
:104940001223CDE90B440B480A940194FFF7EAFBCC
:10495000094821F051FB284620F0F8FB05480FB02C
:1049600030BD00BFA42F0020D4E00208CCE2020832
:1049700098D80208A82F00200149000870470000BD
:1049800030B5174D2C68BFF35B8F14F001048FB066
:1049900022D1284620F0CEFBF0B13F230993114BE2
:1049A0000893114B07930123CDE9053304930423A6
:1049B000CDE9024314230D4900935F221823CDE96A
:1049C0000B440B480A940194FFF7ACFB094821F013
:1049D00013FB284620F0BAFB05480FB030BD00BFDE
:1049E000D42F002020E10208D0E20208BCDA02083D
:1049F000D82F00207D4900087047000030B5174DC2
:104A00002C68BFF35B8F14F001048FB022D12846CD
:104A100020F090FBF0B13F230993114B0893114B09
:104A2000114912480A94CDE9064301220423CDE935
:104A300003322823009310222923CDE90B44CDE92A
:104A400001440594FFF76EFB094821F0D5FA28468A
:104A500020F07CFB05480FB030BD00BF04300020C3
:104A6000C4E20208D4E20208F0DF020808300020A5
:104A7000F949000800207047002070470EB403B5C4
:104A800003AB002153F8042B01930FF0E3FB02B0BA
:104A90005DF804EB03B070470CB407B504AB53F8F2
:104AA000042B01930FF0D6FB03B05DF804EB02B0CA
:104AB00070470000436C10B5044673B3038F2BB9E5
:104AC000184B194AC521194821F078FAC38E00EB1A
:104AD00043035B8C0BB311F0FCFA238F012B03D83B
:104AE000134B144ACB21EEE7E28E531C9BB2092BE9
:104AF000194688BFA3F10A0104EB410140F63F10BB
:104B0000498C814209D10A2B04EB420228BF0023C1
:104B100004EB4303508C588451842046BDE8104078
:104B200011F0DAB93087020839870208E4870208F1
:104B30002E8802083C88020811F095B910B586B09D
:104B400002AC84E806001A460AAB05930193099B60
:104B500000932146089B0DF085FF06B010BD0000B4
:104B600038B518BB124B13481C681349B4B12268FE
:104B700022440260626822440A60A26814440F4B17
:104B800000221A8000F030FB054600F02BFB0C4B96
:104B90001C600C4B1D600C4B188007E00B4B036036
:104BA0000B4B0B600B4B1C68002CE8D138BD00BFD1
:104BB00034300020383000203C30002040300020CD
:104BC000143E01201C3E0120183E012068E302082B
:104BD000D8E20208A0E50208044B1B6853F8210044
:104BE000034B1B6803EB4000704700BF3C300020C4
:104BF00038300020704770477047704770477047E3
:104C0000704770477047704730B4C26844685510A9
:104C1000034604EB6200D20748BF62599B6830BC70
:104C200048BFD358184743682BB183682BB9C06875
:104C300000F001007047184670470120704710B51A
:104C40001021044620F074FA204610BD10B54FF430
:104C50008961044620F06CFA204610BD00F1E003A3
:104C6000994270B504460D4603D10EF05DFBFEF788
:104C70009BFE04F534739D4203D123682046DB6A12
:104C8000984704F552739D4203D1236820461B6B5D
:104C9000984704F543739D4203D1236820465B6B1C
:104CA000984704F561739D4203D1236820469B6BAE
:104CB000984704F570739D4203D123682046DB6B4F
:104CC000984704F57F739D4203D1236820461B6CEF
:104CD000984704F516739D4205D1236820465B6C06
:104CE000BDE87040184770BD2DE9F04F2DED0A8BDF
:104CF00004468FB0A046002510F070FAEB4BE56338
:104D000048F8403B4046FDF791FA04F16C03184621
:104D10000CEE103AFDF78AFA4FF48073A4F8BC3019
:104D2000E34BC4F89830E34BC4F8C0304FF6FF7340
:104D300004F1E0074FF0FF32A4F8C4304FF47F03D2
:104D4000C4F8CC3004F59479C4E93625C4E9275574
:104D5000C4E92955C4E92B55C4E92D55C4F8C850F8
:104D6000A4F8D050C4F8D450384604F5E07B0BF0DA
:104D70001BFF484606F0CEFD584606F0CBFD04F575
:104D80001672104608EE102A0BF0B0FD04F52572DD
:104D9000104608EE902A0BF0A9FD04F53472104677
:104DA00009EE102A0BF0A2FD04F54372104609EE3D
:104DB000902A0BF09BFD04F5527210460AEE102A61
:104DC0000BF094FD04F5617210460AEE902A0BF088
:104DD0008DFD04F5707210460BEE102A0BF086FD67
:104DE00004F57F7210460BEE902A0BF07FFDB24B5C
:104DF000C4F838344FF4A072B04BC4F84034009279
:104E0000F0232A4629464046C4F83C44C4F844549A
:104E1000261DFDF7F7F94FF07F42A2664146304666
:104E200006F03DFE4FF4A0721CEE100A00922946D7
:104E30002A46F023FDF7E6F9A14BC4F8943004F1BB
:104E4000980A1CEE101A304606F029FE0F22504632
:104E50001421FDF7CAF90DF110089A4BC4F8C830B7
:104E600051464046A4F8CC500AF0A4FE98E807004A
:104E700004F1D4030DF1300883E807008D4B0C9347
:104E80004FF0040241465046ADF834200BF02CF9A7
:104E90005146304606F003FE38460722C521FDF78D
:104EA000A4F90BA84FF002014FF0030A4246ADF8F7
:104EB0002C1001463846ADF830A00BF048FBA4F8A2
:104EC00018A13846FDF7EAF94FF0FF30C4E9470072
:104ED00004F587600390C4F80801394630462B2753
:104EE00006F0DDFD6A220097C52348461421FDF730
:104EF00089F948464FF07F4106F04AFC4FF0020125
:104F00006C4BADF83410484641460C9306F053FC08
:104F10004846012106F04CFD2B4684F857A11E227D
:104F200048460C2106F047FD4946304606F0B7FDDD
:104F300035220097C52358461421FDF763F95846DA
:104F4000614906F025FC5B4B0C9341465846ADF891
:104F5000345006F030FC5846012106F029FD2B465E
:104F600084F8EFA11E2258460C2106F024FD594674
:104F7000304606F094FD18EE100A4FF481727D2140
:104F8000FDF733F94FF004029146ADF82420ADF857
:104F900028204FF00B030BAA18EE100AADF82C30A6
:104FA000ADF8303009A91346CDF800800AAA0BF0FD
:104FB00008FC1E27039BC4F8803218EE101AC4F8B0
:104FC0009072304606F06BFD18EE900A4FF4817235
:104FD0000A21FDF70AF90A230BAA18EE900AADF888
:104FE0002C30ADF8303009A91346CDF800800AAA5C
:104FF000ADF82490ADF828900BF0E3FB18EE901A72
:10500000C4F8CC72304606F04AFD19EE100AA02210
:105010001D21FDF7EAF80BAA4FF0010A4FF00D0B26
:1050200019EE100A134609A90AAACDF800806FF0FC
:105030000617ADF824A0ADF82850ADF82CB0ADF8A7
:1050400030B00BF0BEFB039BC4F8F83219EE101A17
:105050003046C4F8087306F022FD19EE900AA0222B
:105060006B21FDF7C2F80BAA4FF00B0319EE900A63
:10507000ADF8303009A91346CDF800800AAAADF882
:1050800024A0ADF82850ADF82CB00BF09AFB039B90
:10509000C4F8343319EE901A3046C4F8447306F05D
:1050A000FEFC1AEE100AD2221D210FE03089020800
:1050B0000898020834790208188902085D4C000833
:1050C0002B2B2BFF808080FF787329FFFDF78DF855
:1050D0000BAA4FF00C091AEE100A134609A90AAAE6
:1050E000CDF80080ADF824A0ADF82850ADF82C9094
:1050F000ADF830900BF065FB039BC4F870331AEEEB
:10510000101A3046C4F8807306F0C9FC1AEE900AF3
:10511000D2226B21FDF769F80BAA1AEE900A13460A
:1051200009A90AAACDF80080ADF824A0ADF828504E
:10513000ADF82C90ADF830900BF043FB039BC4F816
:10514000AC331AEE901A3046C4F8BC7306F0A7FCD4
:105150001BEE100AA022AF21FDF747F84FF00B031A
:105160000AAA1BEE100AADF8303009A90BABCDF836
:105170000080ADF824A0ADF82850ADF82CB00BF0AD
:1051800020FB039BC4F8E8331BEE101A3046C4F82A
:10519000F87306F084FC1BEE900AD222AF21FDF7D3
:1051A00024F81BEE900A0BAB0AAA09A9CDF80080DF
:1051B000ADF824A0ADF82850ADF82C90ADF83090A3
:1051C0000BF0FFFA039BC4F8347430461BEE901AC0
:1051D000C4F8243406F063FC20460FB0BDEC0A8B03
:1051E000BDE8F08F2420704700487047443000200D
:1051F00010B5FFF7C5FB064C2060FFF7FFFB6060B2
:10520000FFF744FBA060FFF77DFBE06010BD00BF2F
:105210004430002010B5002404600C6014601C6051
:1052200010BD70477047704770470438704770472B
:1052300010B5102104461FF07BFF204610BDA0F1E1
:105240000400F5E710B500228260044AC16002F153
:10525000080420320460426010BD00BF7889020853
:105260007047000010B5034B03600446FCF77EFF57
:10527000204610BDB489020810B50446FFF7F2FFBE
:1052800020464FF4C0711FF053FF204610BD0000B0
:1052900010B50446FDF746F8014B2360204610BDCB
:1052A000B4890208FCF763BF704704387047704741
:1052B00010B5102104461FF03BFF204610BDA0F1A1
:1052C0000400F5E710B500228260044AC16002F1D3
:1052D000080420320460426010BD00BFE08902086B
:1052E0007047000010B5034B03600446FDF72CF92E
:1052F000204610BD1C8A020810B50446FFF7F2FFD5
:1053000020464FF499611FF013FF204610BD0000A6
:1053100010B50446FDF750F9014B2360204610BD3F
:105320001C8A0208FDF711B97047043870477047AE
:10533000C06803681B6B184710B5102104461FF0A6
:10534000F7FE204610BDA0F10400F5E710B50022DD
:105350008260044AC16002F10804243204604260A1
:1053600010BD00BF488A0208704700F580500B68E6
:10537000C0F8483A4B68C0F84C3A8B68C0F8503ACD
:105380007047000010B5034B03600446FEF738FA7F
:10539000204610BD888A020810B50446FFF7F2FFC8
:1053A000204641F654211FF0C3FE204610BD0000E8
:1053B00010B50446FDF7BEFC014B2360204610BD2E
:1053C000888A020838B5044604F63435FDF725FC12
:1053D000284606F03BFB04F58054C4F8480A2846EA
:1053E00006F04DFBC4F84C0A284606F04BFBC4F807
:1053F000500A38BD00F5805100F6343091F8503A2B
:1054000091F84C2A91F8481A06F0D5BA704710B5B1
:105410004FF4AE7104461FF08BFE204610BD10B550
:105420000446D0F8580100F058F82046BDE8104076
:105430000EF016B810B50446FEF776FA014B23605D
:10544000204610BDC48A0208704704387047704770
:1054500010B5102104461FF06BFE204610BDA0F1D0
:105460000400F5E710B500228260044AC16002F131
:10547000080420320460426010BD00BF108B020897
:105480007047000010B5034B03600446FEF794FE1E
:10549000204610BD4C8B020810B50446FFF7F2FF02
:1054A00020464FF4C8611FF043FE204610BD0000A7
:1054B00010B50446FEF73CFF014B2360204610BDAB
:1054C0004C8B0208FEF7DEBE00226421C0E90021F9
:1054D000C0E90222C0E90422704783683C220133FC
:1054E000836093FBF2F102FB113323B9426901326D
:1054F0003B2A06DC4261014651F80C0B0368DB686D
:1055000018470269436101323B2A01DC0261F2E77C
:10551000C26803610132172AD8BF1346C360EAE7A5
:105520000B68C3604B6803618B6843617047000080
:1055300010B5034B03600446FFF726F8204610BD64
:10554000848B020810B50446FFF7F2FF20464FF4A3
:1055500006711FF0EDFD204610BD000010B5044699
:10556000FFF766F8014B2360204610BD848B0208CC
:10557000FFF70BB87047043870477047C06803687E
:105580009B6C1847A0F10400FFF7F8BF10B510217D
:1055900004461FF0CDFD204610BDA0F10400F5E744
:1055A0008068FFF7BDBF000010B500228260044A8A
:1055B000C16002F1080428320460426010BD00BFDF
:1055C000108C020870470B68C0F858344B68C0F85C
:1055D0005C348B68C0F860347047000010B5034B32
:1055E00003600446FFF70DFB204610BD548C0208F3
:1055F00010B50446FFF7F2FF204640F264411FF069
:1056000097FD204610BD000010B50446FFF76CFB67
:10561000054B23600023C4F84834C4F84C34C4F864
:105620005034204610BD00BF548C020838B50446E3
:1056300004F5E075FFF7E6FA284606F007FAC4F825
:105640005804284606F01BFAC4F85C04284606F005
:1056500019FAC4F8600438BD1FB5044690F85034F8
:1056600090F84C2490F8481400F5E07006F0A3F987
:10567000E06BD4F85034D4F84814D4F84C24C4F86F
:10568000603403930368C4F85814CDE901125B69D0
:10569000C4F85C2401A9984704B010BD90F86034A8
:1056A00090F85C2490F8581400F5E07006F083B987
:1056B00007B5D0F8481402460131C0F8481492F8F2
:1056C000503492F84C2400F59470C9B2019006F061
:1056D00072F9019803B05DF804EB0EF0E5BE07B572
:1056E000D0F8481402460139C0F8481492F85034F2
:1056F00092F84C2400F59470C9B2019006F05BF961
:10570000019803B05DF804EB0EF0CEBE07B5D0F8FB
:105710004C2401460132C0F84C2491F8503491F8E1
:10572000481400F59470D2B2019006F044F9019843
:1057300003B05DF804EB0EF0B7BE07B5D0F84C240B
:105740000146013AC0F84C2491F8503491F84814BD
:1057500000F59470D2B2019006F02DF9019803B0D3
:105760005DF804EB0EF0A0BE07B5D0F8503401464A
:105770000133C0F8503491F84C2491F8481400F5E6
:105780009470DBB2019006F016F9019803B05DF851
:1057900004EB0EF089BE07B5D0F850340146013B4A
:1057A000C0F8503491F84C2491F8481400F59470E6
:1057B000DBB2019006F0FFF8019803B05DF804EB4E
:1057C0000EF072BEF02070474FF4A0707047292091
:1057D000FCF77CB92820FCF779B908B5FCF74AF941
:1057E000CA20FCF773F9C320FCF754F90820FCF732
:1057F00051F95020FCF74EF9CF20FCF767F9002053
:10580000FCF748F9C120FCF745F93020FCF742F9D4
:10581000ED20FCF75BF96420FCF73CF90320FCF772
:1058200039F91220FCF736F98120FCF733F9E8202A
:10583000FCF74CF98520FCF72DF90020FCF72AF93C
:105840007820FCF727F9CB20FCF740F93920FCF74A
:1058500021F92C20FCF71EF90020FCF71BF934205D
:10586000FCF718F90220FCF715F9F720FCF72EF9E0
:105870002020FCF70FF9EA20FCF728F90020FCF7BC
:1058800009F90020FCF706F9B120FCF71FF9002008
:10589000FCF700F91B20FCF7FDF8B620FCF716F921
:1058A0000A20FCF7F7F8A220FCF7F4F8C020FCF778
:1058B0000DF91020FCF7EEF8C120FCF707F91020D5
:1058C000FCF7E8F8C520FCF701F94520FCF7E2F801
:1058D0001520FCF7DFF8C720FCF7F8F89020FCF75C
:1058E000D9F83620FCF7F2F8C820FCF7D3F8F220FC
:1058F000FCF7ECF80020FCF7CDF8B020FCF7E6F858
:10590000C220FCF7C7F8B620FCF7E0F80A20FCF745
:10591000C1F8A720FCF7BEF82720FCF7BBF804204D
:10592000FCF7B8F82A20FCF7D1F80020FCF7B2F811
:105930000020FCF7AFF80020FCF7ACF8EF20FCF7F4
:10594000A9F82B20FCF7C2F80020FCF7A3F80020F0
:10595000FCF7A0F80120FCF79DF83F20FCF79AF82F
:10596000F620FCF7B3F80120FCF794F80020FCF7D0
:1059700091F80620FCF78EF82C20FCF7A7F8C82039
:10598000FCF7F2F82620FCF7A1F80120FCF782F8DA
:10599000E020FCF79BF80F20FCF77CF82920FCF7AF
:1059A00079F82420FCF776F80C20FCF773F80E2029
:1059B000FCF770F80920FCF76DF84E20FCF76AF848
:1059C0007820FCF767F83C20FCF764F80920FCF726
:1059D00061F81320FCF75EF80520FCF75BF8172050
:1059E000FCF758F81120FCF755F80020FCF752F8A6
:1059F000E120FCF76BF80020FCF74CF81620FCF7D0
:105A000049F81B20FCF746F80420FCF743F8112066
:105A1000FCF740F80720FCF73DF83120FCF73AF896
:105A20003320FCF737F84220FCF734F80520FCF768
:105A300031F80C20FCF72EF80A20FCF72BF8282070
:105A4000FCF728F82F20FCF725F80F20FCF722F8A8
:105A50001120FCF73BF8C820FCF786F82920FCF75A
:105A600035F8BDE808402C20FCF730B808B5FCF745
:105A700001F80321D320FCF745F880B208BD10B52A
:105A8000C4B2022203212046FBF7AAFF0A20FBF73B
:105A9000EFFF204600220321FBF7A2FFBDE81040E4
:105AA0000220FBF7E5BF38B50446E4B2FBF796FFEA
:105AB00000212046FBF7ACFF012105462046FBF7FD
:105AC000A7FF40EA052080B238BD10B5C4B240211E
:105AD0002046FBF79DFF030607D54C212046FBF728
